:020000022000DC
:1060000000000120756302005D6302005F6302000F
:106010006163020063630200656302000000000028
:1060200000000000000000000000000067630200A4
:1060300069630200000000006B6302006D630200F0
:106040006F6302006F6302006F6302006F63020000
:106050006F6302006F6302006F6302006F630200F0
:106060006F6302006F6302006F6302006F630200E0
:106070006F6302006F6302006F6302006F630200D0
:106080006F6302006F6302006F6302006F630200C0
:106090006F6302006F630200116802006F63020009
:1060A0006F6302006F6302006F6302006F630200A0
:1060B0006F6302006F630200000000000000000038
:1060C0006F6302006F6302006F6302006F63020080
:1060D0006F6302006F6302006F6302000000000044
:1060E00000000000000000000000000000000000B0
:1060F00000000000000000000000000000000000A0
:10610000000000000000000000000000000000008F
:10611000000000000000000000000000000000007F
:10612000000000000000000000000000000000006F
:10613000000000000000000000000000000000005F
:10614000000000000000000000000000000000004F
:10615000000000000000000000000000000000003F
:10616000000000000000000000000000000000002F
:10617000000000000000000000000000000000001F
:10618000000000000000000000000000000000000F
:1061900000000000000000000000000000000000FF
:1061A00000000000000000000000000000000000EF
:1061B00000000000000000000000000000000000DF
:1061C00000000000000000000000000000000000CF
:1061D00000000000000000000000000000000000BF
:1061E00000000000000000000000000000000000AF
:1061F000000000000000000000000000000000009F
:10620000354936480A1A02D0072291438D4634494F
:1062100034480A1A06D00722914381F309880222E2
:1062200082F3148830483149314A00F044F831484B
:106230003149324A00F03FF831483249324A00F0E1
:106240003AF832483249334A00F035F83248334997
:10625000334A00F030F833483349344A00F02BF821
:1062600033483449344A00F026F83448344900228F
:1062700000F02CF833483449002200F027F8334866
:106280003349091A082902DB002202604160314AC1
:1062900090471F481F49884205D00268043003B464
:1062A000904703BCF7E700208646EC46002000211B
:1062B000294A9047FEE7884207D0521A05D0037852
:1062C00001300B700131013AF9D17047884202D098
:1062D00002700130FAE770470000012000E0002062
:1062E000000001200000012080680200B857002053
:1062F000BC570020D4630200D4630200546802003B
:1063000080680200B8570020B85700205C6802007F
:106310005C6802005C6802005C6802005C68020065
:106320005C6802005C6802005C6802008068020031
:1063300084680200BC570020BC570020BC570020D6
:10634000BC570020BC570020BC570020BC57002081
:10635000BC7700209D630200E9640200FEE7FEE7CF
:10636000FEE7FEE7FEE7FEE7FEE7FEE7FEE7FEE705
:10637000704700BF1048804710484FF0070188431E
:1063800085460F4880470F48016841F4700101605D
:10639000BFF34F8FBFF36F8FFFF732BF0A480B4930
:1063A0000B4A884207D0521A05D0037801300B708F
:1063B0000131013AF9D170477163020000000120F8
:1063C0008D65020088ED00E05C680200B85700208F
:0463D000B85700209A
:1063D400044B1A5C012393404FF0A042C2F80835E5
:1063E400704700BF5C68020008B50020FFF7F0FFAB
:1063F4000120FFF7EDFF0220FFF7EAFF0320BDE8CD
:106404000840FFF7E5BF0000074A4FF0A041105CC9
:10641400D1F804350122824022EA03001340C1F876
:106424000805C1F80C3570475C680200C20708B55E
:1064340001460CD54FF0A0430322C3F81C27C3F830
:106444004827C3F84C27C3F85027FFF7CDFF8B0725
:106454000AD54FF0A0430C22C3F83427C3F83827D9
:10646400C3F83C27C3F8402708BD1FB5002103909B
:1064740001AA44F20100CDE9011100F003F805B0CE
:106484005DF804FB72B6094B1B68DB0700D500BE40
:10649400BFF34F8F0649074BCA6802F4E062134307
:1064A400CB60BFF34F8F00BFFDE700BFF0ED00E00E
:1064B40000ED00E00400FA050B684A68436093426B
:1064C40008BF0023016008BF43607047436843B1BD
:1064D4000268916852680B449342436004BF0023EE
:1064E4004360704770B50120094DFFF79FFF45F0E9
:1064F400010500242046FFF787FF4FF4FA764FF496
:106504007A40A847013EFAD10134042CF2D1F0E7D5
:10651400606802000C4B1B78062B10D10B4B1B68D8
:106524001A070CD10A4B186800F0F003302B08D07E
:1065340000F0E000A0F140035842584170470020A9
:1065440070470120704700BFE00F00F0E40F00F037
:10655400E80F00F0094B1B78062B0CD1084B1B6885
:106564001A0708D1074B186800F0F000A0F13003B7
:106574005842584170470020704700BFE00F00F0B8
:10658400E40F00F0E80F00F008B5FFF7C3FF28B1EF
:106594007D4B7E4A1B68C3F304231360FFF7DAFFC5
:1065A40010B17B4B7B4A1A60FFF7B4FF28B17A4BDA
:1065B4007A4A1B68C3F342331360FFF7CBFF20B161
:1065C400774AD36823F08073D360FFF7A3FF40B109
:1065D4004FF080430022C3F80C21C3F81021C3F804
:1065E4003825FFF7B7FF10B16E4B03221A60FFF78F
:1065F400B1FF40B16C4B05221A6001229A67002258
:106604009A603F225A60694B1B78062B50D1684B25
:106614001B6819074CD1674B1B6803F0F003502B20
:1066240046D14FF08052644BD2F80414C3F82015BD
:10663400D2F80814C3F82415D2F80C14C3F828159A
:10664400D2F81014C3F82C15D2F81414C3F830156A
:10665400D2F81814C3F83415D2F81C14C3F8401532
:10666400D2F82014C3F84415D2F82414C3F84815FA
:10667400D2F82814C3F84C15D2F82C14C3F85015CA
:10668400D2F83014C3F85415D2F83414C3F8601592
:10669400D2F83814C3F86415D2F83C14C3F868155A
:1066A400D2F84014C3F86C15D2F84424C3F870250A
:1066B400FFF730FF28B1414B414A1B6803F04F03F9
:1066C4001360FFF727FF48B14FF08043D3F800244D
:1066D400D20744BF6FF00102C3F80024394B1B6892
:1066E400062B08D1384B1B68062B01BF374A1368A9
:1066F40043F480631360364AD2F8883043F470035D
:10670400C2F88830BFF34F8FBFF36F8F4FF0102361
:10671400D3F80022002A03DBD3F80432002B2FDA4B
:106724002C4B0122C3F80425D3F80024002AFBD003
:106734004FF010221521C2F80012D3F80024002AC9
:10674400FBD04FF010231522C3F80422214B1A4624
:10675400D3F800140029FBD00021C3F80415D2F8A3
:106764000034002BFBD0BFF34F8F19491A4BCA6872
:1067740002F4E0621343CB60BFF34F8F00BFFDE729
:10678400164B174A1A6008BD240300104035014017
:1067940074C007400DF0ADBA440200103C0500403F
:1067A400F0ED00E0A005004010560040E00F00F0BE
:1067B400E40F00F0E80F00F000C0004058020010A1
:1067C400E40E004030010010340100103C1700407A
:1067D40000ED00E000E001400400FA05B857002095
:1067E4000090D00307B508496846FFF765FE019B92
:1067F40013B903B05DF804FBD3E900209047684661
:10680400FFF764FEF3E700BF68680200FFF7EABF22
:106814004BDF70471FB50D4C01A8FFF7F9FF70B9A6
:10682400214602A8FFF748FE039B002BF4D00198F1
:10683400D3E90021904702A8FFF748FEF4E70528B2
:1068440001D0FFF712FE04B010BD00BF746802004F
:086854001968020000000000B9
:10685C00071213140338FDD8704700005468020067
:10686C005C680200080000005468020054680200D2
:04687C000800000010
:046880000090D003B1
:040000032000637501
:00000001FF
