:020000040000FA
:10000000D8200020150200001D0200001F02000081
:100010002102000023020000250200000000000071
:1000200000000000000000000000000027020000A7
:1000300029020000000000002B0200002D02000039
:100040002F0200002F0200002F0200002F020000EC
:100050002F0200002F020000A10200002F0200006A
:1000600011070000250700002F0200002F020000EA
:100070002F0200002F0200002F0200002F020000BC
:100080002F0200002F0200002F0200002F020000AC
:100090002F0200002F0200002F0200002F0200009C
:1000A0002F0200002F0200002F0200002F0200008C
:1000B0002F0200002F0200000000000000000000DE
:1000C0002F0200002F0200002F0200002F0200006C
:1000D0002F0200002F0200002F020000000000008D
:1000E0000000000000000000000000000000000010
:1000F0000000000000000000000000000000000000
:1001000000000000000000000000000000000000EF
:1001100000000000000000000000000000000000DF
:1001200000000000000000000000000000000000CF
:1001300000000000000000000000000000000000BF
:1001400000000000000000000000000000000000AF
:10015000000000000000000000000000000000009F
:10016000000000000000000000000000000000008F
:10017000000000000000000000000000000000007F
:10018000000000000000000000000000000000006F
:10019000000000000000000000000000000000005F
:1001A000000000000000000000000000000000004F
:1001B000000000000000000000000000000000003F
:1001C000000000000000000000000000000000002F
:1001D000000000000000000000000000000000001F
:1001E000000000000000000000000000000000000F
:1001F00000000000000000000000000000000000FF
:10020000DFF80CD000F03AF800480047790C000005
:10021000D82000200648804706480047FEE7FEE752
:10022000FEE7FEE7FEE7FEE7FEE7FEE7FEE7FEE7A6
:10023000F503000001020000202A04DB203A21FA25
:1002400002F00021704721FA02F3D040C2F12002EF
:10025000914008431946704740EA01039B0703D0C9
:1002600009E008C9121F08C0042AFAD203E011F8F5
:10027000013B00F8013B521EF9D27047064C074D76
:1002800006E0E06840F0010394E807009847103466
:10029000AC42F6D3FFF7B8FF541500007415000008
:1002A0002DE9F043002589B0DFF84091A8464FF4CE
:1002B000807601242F460695304600F08FFD38B138
:1002C000D9F80403204203D0304600F07DFD2543D9
:1002D000361D64007F1CB6B2082FEDD34FF4BE74F8
:1002E000204600F07BFD48B1204600F06DFD45F052
:1002F000004506AA0121002000F052FD3C4E15F0F9
:10030000FF0F15D0012700242F420DD009EB8401E7
:10031000D1F81005D1F81015C0F3042056F82420A8
:10032000C1F3014102B190477F00641C082CEBD35C
:10033000002D2DDA4FF0FF30CDF808804AE004A9F7
:10034000204600F0E3FC002822D04FEA9518204612
:1003500000F054FC56F820501DB1B8F1030F03D043
:1003600006E0B8F1030F13D102A9204600F0D6FC35
:100370004FF0A04000EB8400D0F8000706A9C0F3BE
:100380000149204600F0C2FC28B1B9F1020F05D0A6
:1003900009B0BDE8F083B9F1030FF9D1B8F1030F4B
:1003A00007D1B9F1020F1FD00221204600F0E7FC6F
:1003B000012715B141462046A847002FE8D06A46DC
:1003C0000121002000F0ECFC069900988842DFD063
:1003D00006900298049096F84450002768B225F0E1
:1003E000C004401CABD1D3E70321DEE7006000402E
:1003F00040000020F0B5B5480023021D0178101D13
:1004000001254FF0805406290BD11678360708D104
:100410000678C6F30316032E06D0042E04D0052E4C
:1004200002D0062907D00EE0B4F82463A84FC6F323
:1004300004263E6002E01678360704D10678C6F33B
:100440000316032E02D0062904D00FE0A24FA14EBE
:100450007E670EE01678360708D10678C6F30316D5
:10046000032E06D0042E04D0052E02D0062907D074
:100470000EE0D4F84462994FC6F342363E6002E083
:100480001678360704D10678C6F30316032E02D079
:10049000062906D011E0924E376827F08077376042
:1004A0000EE01678360708D10678C6F30316032E39
:1004B00006D0042E04D0052E02D006290AD011E061
:1004C0004FF08046C6F80C31C6F81031834E361F07
:1004D000336002E01678360704D10678C6F30316B7
:1004E000032E02D0062905D00CE07C4F032664378A
:1004F0003E600AE01678360704D10678C6F3031684
:10050000032E02D006290DD014E0764F05263E605A
:10051000744E78363560734E083633603F263F1D83
:100520003E6002E01678360704D10678C6F303165B
:10053000052E02D0062957D062E06B4E36686B4F0D
:100540003E60694E361D36683F1D3E60664E083679
:1005500036683F1D3E60644E0C3636683F1D3E6077
:10056000614E103636683F1D3E605F4E1436366869
:100570003F1D3E605C4E183636685C4F20373E604B
:10058000594E1C3636683F1D3E60574E2036366841
:100590003F1D3E60544E243636683F1D3E60524E2D
:1005A000283636683F1D3E604F4E2C3636683F1D5C
:1005B0003E604D4E303636684C4F40373E604A4EB6
:1005C000343636683F1D3E60474E383636683F1D2C
:1005D0003E60454E3C3636683F1D3E60424E4036DA
:1005E00036683F1D3E6002E01678360708D106786F
:1005F000C6F30316032E06D0042E04D0052E02D017
:10060000062907D019E0D4F85812394A01F04F01F1
:10061000116002E0117809070FD10078C0F30310D0
:10062000032803D0042801D0052806D131480168E9
:10063000C90702D06FF001010160D4F8300106282B
:1006400008D1D4F83401062804D12B48016841F4BC
:100650008061016022487438016841F470010160D2
:10066000BFF34F8FBFF36F8F4FF01021D1F800020F
:10067000002803DBD1F80402002822DA1F4A1560A3
:100680001F480468002CFCD01524C1F800420568FE
:10069000002DFCD0C1F8044201680029FCD0136091
:1006A00001680029FCD0BFF34F8F0D48F038016876
:1006B000144A01F4E06111430160BFF34F8F00BFA2
:1006C000FDE7124910480860F0BD0000E00F00F09F
:1006D000403501400DF0ADBA00C007403C05004078
:1006E000FCED00E0105600400404001020C500405E
:1006F000E40E0040000400403C17004004E50140C7
:1007000000E401400400FA050090D0031800002026
:1007100004220249024800F079BA00008C0000204F
:100720000080004004220249024800F06FBA000035
:10073000980000200090004002E008C8121F08C185
:10074000002AFAD170477047002001E001C1121F52
:10075000002AFBD17047000072B609480068C00744
:1007600000D000BEBFF34F8F0548E4380168054A4A
:1007700001F4E06111430160BFF34F8F00BFFDE75B
:10078000F0ED00E00400FA050EB500210091CDE97E
:1007900001106A4644F20100FFF7DEFF0EBD0000C3
:1007A00030B542680B4C1379E15C0120FF290ED073
:1007B000FE290DD012684FF4A86505EB8101515850
:1007C000054A52F82320914202D1FF20E054002034
:1007D00030BD00000D000020A400002003681B8B2A
:1007E0009BB253436422B3FBF2F292B2AFF30080A8
:1007F00070B50446006816460D4690F8212001EBBE
:10080000450100EB8101022A01D0082070BD496832
:10081000B14205D1C16909B36068007988471DE01C
:100820002046FFF7BDFF08B1112070BD61680C4A7A
:10083000FE200979505432462946204600F000FE39
:100840002068C06950B16168064A0220097902EB4C
:10085000410148550221606800F09EFC002070BDF7
:100860000D000020B80000202DE9F84F07688946E8
:10087000054601EB490897F821001E46924607EB12
:10088000880410B10820BDE8F88F4FF0000B324803
:10089000C4F804B0A672006800900A22296802EB2E
:1008A0008800085C40B100208DF801006946504680
:1008B00000F0EEFAB0B901E00120F5E747F828A012
:1008C0004FF001084FF0A04108FA0AF016B1C1F844
:1008D0000C0501E0C1F808050027E019083000F018
:1008E00095FB08B10420CEE77F1CFFB2022FF4D3A2
:1008F000207A00F0DDFB607A00F0DAFB206836B188
:1009000000F07AFA0646206800F074FB05E000F07B
:1009100071FB0646206800F06FFA07464946686892
:1009200000F02BFC0146207A324600F09FFB0221AA
:10093000686800F022FC0146607A3A4600F096FBB7
:1009400084F80B806968054A097902EB410202F8D4
:1009500009B0002097E7000048150000B80000200B
:100960002DE9F0470025DFF8689007680446A8469F
:10097000626805EB450007EB8006137909EB43023B
:1009800002F80580F17A71B10A22216802EB800039
:10099000085CD8B10021306800F0ECFA306800F053
:1009A000D7FAC6F804806D1C022DE1D36168094AAC
:1009B000FF2009795054606800F0BEFB606800F0C9
:1009C0000BFC022087F82100BDE8F0870121E2E757
:1009D000B80000200D0000202DE9F74F84B00E0074
:1009E000044607D0256895F8210028B1082007B0F3
:1009F000BDE8F08F0B20FAE700F09AF918B18528CE
:100A000001D00420F3E700F039FA20B900F000FA31
:100A100008B10320EBE75048DFF840A1002100783F
:100A20004FF0010BC0F30310032821D08AF800B067
:100A3000FF2285F82020002091464FF0FF3C00BFA8
:100A400000EB400705EB8703401CD97283F8089040
:100A500083F80990C0B245F827C00228F0D305F109
:100A6000200000F0D3FA30B1204600F083FCC8E744
:100A70008AF80010DCE7002756F82720501C12D017
:100A8000F0193946037A2046FFF7EEFE5FEA0008C8
:100A900004D0204600F06EFC4046A8E7002239460C
:100AA0002046FFF7A5FE7F1CFFB2022FE4D30020F3
:100AB00009224FF48053316901E04908401C9942F2
:100AC00001D39042F9D39AF8001009B100B901207E
:100AD000234AD2E90112CDE901128DF804006068C1
:100AE000204A01A900790290606800F099FB070094
:100AF00004D0204600F03EFC384678E76168306953
:100B00000968D1F81015CAB2010F0001FFF794FB74
:100B10000646A861606800F00FFBCDF800B05F46A4
:100B2000042332460221606800F064FB0221606801
:100B300000F02BFB0698E86160680B49074A0079D2
:100B4000521C41F820406168097902F8019085F84B
:100B5000217000204BE70000E80F00F00C0000209F
:100B600048150000E9130000C400002000F002B89E
:100B700000F008B872B602480168491C016070476D
:100B80001400002003490868401E086000D162B6C6
:100B9000704700001400002005494FF0FF3208287C
:100BA00041F8202002D3084480F83C207047000020
:100BB00040000020F0B54FF0FF3512B100230826A9
:100BC00001E0082309260C4C05E000BF54F823700F
:100BD0007F1C04D05B1CB342F8D32846F0BD261816
:100BE0005DB286F8245044F82310002AF5D1E118AC
:100BF00081F83C00F1E70000400000200249084471
:100C000090F9240070470000400000202DE9F041D9
:100C1000174688460646002417E000BF4FF4A07030
:100C200000EB84054FF480307159A04059B1D6F8DB
:100C30000413014207D02946304600F0D7F8D8E91E
:100C4000002128469047641CE4B2BC42E6D3BDE8CC
:100C5000F08100000121814003484068014201D039
:100C600001207047002070470400002001218140CE
:100C7000080300D00120704786B01422204968463E
:100C8000FFF7EAFA01208DF809001D481D4A694660
:100C90000838FFF7A1FE08B1FFF776FD18480838BD
:100CA000FFF75EFEDFF860904FF0000A42F2F67840
:100CB000002544464E4689F800A0114822460021EE
:100CC0000838FFF78BFD1128F7D030780028FCD0CA
:100CD0000B48224601210838FFF780FD08B1FFF7D5
:100CE00053FD074C1926103C4FF47A47611C3846D7
:100CF0008847761EFAD16D1CEDB2FF2DD9D3D7E708
:100D000030150000DD13000000000020C20800F0D4
:100D100007030120895C98400840704710B5C2085D
:100D200000F00703885C01249C402043885410BDD8
:100D30000448017809B18520704701210170002025
:100D4000704700000100002070B541EA4201DDE972
:100D500004564FF0A04441EA830141EA052104EB27
:100D6000800041EA0641C0F8001770BD1CB50021A3
:100D700000910B4601220191FFF7E6FF1CBD4FF0E9
:100D8000A04202EB8000D0F8002722F44032C0F8E5
:100D90000027D0F8002742EA0141C0F80017704749
:100DA00018B5084B6C4601441B68009306E000BF71
:100DB00054F82030D3F81035401C08C28142F7D8CF
:100DC00018BD000044150000034908B5084400217F
:100DD00001600068009008BD006000400249405872
:100DE000012800D0002070470060004008B50022B4
:100DF00042504058009008BD10B5FFF7FFFE60213B
:100E000001EB80000149C0B2084410BD0060004001
:100E100070B5174D95F8490008B1082070BD002045
:100E2000411E2A18401CC0B282F824102028F8D392
:100E300000242046FFF7B0FE641CE4B2092CF8D36E
:100E400000240C4945F8454FC02081F800040126D4
:100E50004020891FC1F800014FF4BE70FFF7B4FFB6
:100E60000549F007C1F804032E71204670BD00004B
:100E70004000002006E000E000600040034890F8D9
:100E80004900002800D001207047000040000020E9
:100E90002DE9FC4104462B480F462044002590F9DB
:100EA0002410491C01D0082546E0B978002651B32A
:100EB000012200212046FFF77DFE411C21D0830046
:100EC00021483A7818447978D0F81035DFF87CC09A
:100ED00003EA0C03C0F81035D0F810354FF4F85C75
:100EE0000CEA042C43EA0C034FF4403C0CEA0242A7
:100EF0004FF4801C0CEA01510A431343C0F810352B
:100F000004E0042518E0FE2180F824107A780120FE
:100F1000A0404FF0A041012A11D0C1F80C050122D8
:100F200020460096002311460196FFF70DFF054964
:100F300020464531FFF7F2FE2846BDE8FC81C1F8A6
:100F40000805ECE74000002000600040FFE0ECFFF7
:100F50000649084490F92400810005480844D0F867
:100F6000101541F00301C0F8101570474000002033
:100F70000060004001B10121064A104490F92400AC
:100F8000820005481044D0F8102561F31452C0F8CF
:100F900010257047400000200060004010B5044656
:100FA00000F0DCF970B12046FFF728FEC0B2FFF771
:100FB000F3FD2046FFF722FE0C4A002102EB8000E1
:100FC000C0F810150A49FF20214481F8240020466A
:100FD00000F0ACF9002807D02046FFF7C7FE2046F6
:100FE000BDE8104000F0ACB910BD0000006000404A
:100FF0004000002010B5FFF701FE302101EB80001A
:101000000149C0B2084410BD006000402DE9F0471E
:101010000427144E814600244FF001080020FFF7FA
:10102000A5FD08FA04F5354203D02046FFF712FE6D
:1010300058B10020FFF79CFD27B104F10104AE4335
:10104000E4B2EBD13846BDE8F087074908FA04F06E
:1010500000274A681043486089F800403846FFF787
:1010600087FDEFE7FFFF0F00040000202DE9F041AE
:1010700014460D00074612D08CB10026FFF7F6FD8E
:1010800078B13846FFF7E6FD68B1084800EBC700C5
:10109000C0F81055C0F814453046BDE8F0810E2068
:1010A000FBE70726F8E70826F6E7000000F0014016
:1010B00070B5044601260025A640FFF7D7FD18B1FC
:1010C0002046FFF7C7FD18B102480660284670BDEC
:1010D0000825FBE708F5014070B504460126002508
:1010E000A640FFF7C3FD18B12046FFF7B3FD18B1C6
:1010F00002480660284670BD0825FBE704F501405C
:1011000070B504460026FFF7B1FD78B10848012507
:10111000A54005600020FFF729FD06484168A94366
:1011200041600020FFF724FD304670BD0726FBE735
:1011300008F501400400002000680121C1607047EB
:101140002DE9F04106460D464FF4803400681746FD
:10115000AC404BB14FF4A07101EB8501FFF746FEA7
:101160003068C0F8044301E0C0F80843306800EB81
:101170008500C0F84075BDE8F08102684FF4A070AA
:1011800000EB810080B21044704702684FF4803059
:101190008840C2F80803704770B505460C464FF406
:1011A000A07000EB840081B22868FFF71FFE296859
:1011B0004FF48030A040C1F8040370BD02680121E3
:1011C00011610079034A00EB400002EB80000172DC
:1011D000704700008C000020016801220A6000793D
:1011E000034A00EB400002EB8000022101727047CD
:1011F0008C000020F0B40468049E40F20115D4F87D
:1012000000728D40AF43C4F800720468D4F80052F5
:101210001D43C4F800523346F0BCFFF791BF0000F5
:101220002DE9F04104460E4600792B4900EB4000C1
:1012300001EB8007387A10B10820BDE8F0813A60F0
:10124000706800254FF4A078786006E008EB85010F
:101250002068FFF7CBFD6D1CEDB26079A842F5D890
:101260002068F17840F3073000284FEA411106DA90
:1012700000F00F0000F1E02080F8141D03E000F101
:10128000E02080F800142068012140F3073000F0CE
:101290001F0201FA02F24009800000F1E020C0F8CC
:1012A000002120687278D0F8043562F30103C0F899
:1012B00004352068B278D0F8083562F30103C0F82D
:1012C000083520683278D0F8103562F30303C0F88F
:1012D000103539720020B0E78C00002010B50346AD
:1012E000006840F3073101F01F02012090404909D6
:1012F000890001F1E021C1F8800119684FF0FF3049
:10130000D1F800220024C1F800421968C1F808038E
:101310001846FFF753FF1879034900EB400001EB33
:101320008000047210BD00008C00002010B503493D
:10133000FFF7ECFC002800D0012010BD8500002044
:1013400010B50549C20800F007008B5C01248440F9
:10135000A3438B5410BD00008500002004490844BD
:1013600090F92400082801D201207047002070471E
:10137000400000202DE9F05F0668834696F82000C3
:10138000FFF7BEFE002505EB450800244FF0FF0ADD
:1013900006EB880707EB040999F80800FF2803D03B
:1013A000FFF7AEFE89F808A0641CE4B2022CF1D36A
:1013B00056F82800411C05D0FFF7F0FD4FF0FF3133
:1013C00046F8281000206D1CEDB2F872022DDAD319
:1013D000DBF80400BDE8F05FFFF780BF01490120A2
:1013E00008707047000000202DE9F04113480D46B9
:1013F0000127002400F10C0800EB4506305D28B100
:10140000305D401E3055305D70B10027641CE4B281
:10141000022CF3D3002F0ED058F82500022140688B
:10142000BDE8F041FFF7B1BE58F825000068C1697A
:1014300028468847EAE7BDE8F0810000B8000020B0
:101440002DE9F04788460546076801EB480007EBA1
:101450008004164697F82000FFF72AFEDFF8B090C8
:101460004FF0FF0A7EB1B869B04211D886B2207A37
:10147000FFF71EFE94F80900FFF72EFE69680A794F
:1014800009F802A040E0607AFFF712FE207AF3E745
:101490006268824228D03AB3B24225D900230321A0
:1014A0006868FFF74DFEA07A0028206802D0FFF799
:1014B000A3FC01E0FFF79EFD824603216868FFF769
:1014C0005CFE014617F8200F5246FFF7CFFD387833
:1014D000FFF702FE69680A7909F8028068680D4919
:1014E000007941F8206003E069680A7909F802A0F0
:1014F0000023324641466868FFF722FE207AFFF754
:10150000EBFD607AFFF7E8FD6660BDE8F08700005C
:101510000D000020A4000020009000400104000005
:101520000338FDD8704700001C000020181500008B
:101530000700000012000000000000000200000090
:1015400088130000000000500300010000000007A5
:101550000000000074150000000000201C000000C6
:1015600038070000901500001C000020BC2000007F
:10157000480700000000000000000000000000001C
:101580000000000000000000000000000090D003F8
:0400000500000201F4
:00000001FF
