:020000022000DC
:1060000000000420756302005D6302005F6302000C
:106010006163020063630200656302000000000028
:1060200000000000000000000000000067630200A4
:1060300069630200000000006B6302006D630200F0
:10604000E59402006F630200F5980200CD9C020007
:10605000F99E02006F630200499702006F6302001D
:106060006F6302006F6302006F6302006F630200E0
:106070006F6302006F6302006F6302006F630200D0
:106080006F6302004D6F02006F6302006F630200D6
:10609000E96F02006F630200850003006F63020076
:1060A0006F6302006F6302006F6302006F630200A0
:1060B0006F6302006F630200000000000000000038
:1060C0006F6302006F6302006F6302006F63020080
:1060D0006F6302006F6302006F6302006F63020070
:1060E0006F63020069A502006F63020000000000F8
:1060F000000000006F630200000000006F630200F8
:10610000000000000000000000000000000000008F
:10611000000000000000000000000000000000007F
:10612000000000000000000000000000000000006F
:10613000000000000000000000000000000000005F
:10614000000000000000000000000000000000004F
:10615000000000000000000000000000000000003F
:10616000000000000000000000000000000000002F
:10617000000000000000000000000000000000001F
:10618000000000000000000000000000000000000F
:1061900000000000000000000000000000000000FF
:1061A00000000000000000000000000000000000EF
:1061B00000000000000000000000000000000000DF
:1061C00000000000000000000000000000000000CF
:1061D00000000000000000000000000000000000BF
:1061E00000000000000000000000000000000000AF
:1061F000000000000000000000000000000000009F
:10620000354936480A1A02D0072291438D4634494F
:1062100034480A1A06D00722914381F309880222E2
:1062200082F3148830483149314A00F044F831484B
:106230003149324A00F03FF831483249324A00F0E1
:106240003AF832483249334A00F035F83248334997
:10625000334A00F030F833483349344A00F02BF821
:1062600033483449344A00F026F83448344900228F
:1062700000F02CF833483449002200F027F8334866
:106280003349091A082902DB002202604160314AC1
:1062900090471F481F49884205D00268043003B464
:1062A000904703BCF7E700208646EC46002000211B
:1062B000294A9047FEE7884207D0521A05D0037852
:1062C00001300B700131013AF9D17047884202D098
:1062D00002700130FAE770470000042000E003205C
:1062E0000000042000000420343E0300242200208B
:1062F0006C220020D4630200D46302000410030067
:10630000343E030024220020242200208C110300AC
:106310008C1103008C1103008C1103008C110300FD
:106320008C1103008C1103008C110300343E030018
:106330007C3E03006C2200206C2200206C22002096
:1063400050370020503700205037002050370020B1
:10635000505700209D63020029AB0200FEE7FEE7D4
:10636000FEE7FEE7FEE7FEE7FEE7FEE7FEE7FEE705
:10637000704700BF1048804710484FF0070188431E
:1063800085460F4880470F48016841F4700101605D
:10639000BFF34F8FBFF36F8FFFF732BF0A480B4930
:1063A0000B4A884207D0521A05D0037801300B708F
:1063B0000131013AF9D170477163020000000420F5
:1063C000CD90020088ED00E078110300102200203B
:0463D0002422002063
:1063D4007047000007B5054B0093054A4FF48073DE
:1063E40000F033F803B05DF804FB00BFF96302006A
:1063F4006D2200202DE9F84389461446B2B10F4BB3
:106404000F4E0325002743F00108224609EB07013C
:10641400002005F01FFC0744241A48B933782BB137
:106424004FF47A40C047013D02D13570BDE8F8838E
:1064340001233370002CE8D1F8E700BF901103006A
:106444006C220020704705F059BCF0B595B01C468D
:10645400164608460D4602F079FD1A9B0D93CDE9C8
:10646400086400242346082205A928460A948DF8C6
:106474002C400C9402F087FD079B0293069B039328
:106484009DF814308DF8114003F00302012A1DD148
:10649400BDF81440059EC3F3C203C4F383148DF8FE
:1064A4001030A20008230EA9284602F06CFDC6F3A2
:1064B400952608AB0093224602AB0EA9304600F0A5
:1064C400D7FB284602F046FD15B0F0BD022AF8D1EC
:1064D400BDF81640C3F3C203A4098DF81030082791
:1064E400082C264628BF08263B4632460EA92846D5
:1064F40002F049FDA41B08AB02AA31460EA837449A
:1065040000F01AFC002CEBD1DBE7000008B5FFF724
:106514009AFF0421034800F019FB034B01225A712E
:1065240008BD00BF6811030024220020037813F083
:10653400040216D003F00303012B03D0022B09D06D
:10654400012070470A6800880232C0F383100244B5
:106554000A60F5E70B684288023303EB92130B6081
:10656400EEE71046704700002DE9F04F87B0002396
:106574000446851C0DF107000F4690468DF8073040
:1065840000F024FF454806683E60D0E90132134418
:1065940001339B1B824600F21C4600F5836900F21E
:1065A4001447AB421BD30022B8F1000F70D005236F
:1065B40063F3070264F38912DAF80010DAF808309A
:1065C4009DF807000B4003330D444AF82320CAF812
:1065D400005000F01FFF012007B0BDE8F08F01213B
:1065E400304601F03CFF484601F052FF384601F0C6
:1065F4004FFFDAF80400DAF808B0029000EA0B0062
:1066040003300AEB800002A9FFF790FF029B50BB06
:106614000BEA03020AEB820203F1020CD268039232
:10662400013303EA0B0B0AEB8B0B02F00302012A82
:10663400CDF808C0DBF80C1022D0022A16D083460D
:10664400384601F028FF10B1029BCAF804305946BD
:10665400304601F004FFDAE901231344DAF800209C
:1066640001339B1A9DE70BEA0300C9E7BDF80E301E
:106674009B0903334FEA114B0CEB93030293DFE7BF
:10668400BDF80C30C3F383134FEA114B6344F5E7B1
:10669400062363F3070264F39F528DE7402400202E
:1066A4000B4B0C48FF2210B59A600022C3F8182443
:1066B400C3E90022C3F81424012283F8202402F041
:1066C400FEFB044610B9044802F0A6FC204610BDA7
:1066D400402400208C100300B411030030B50A4C90
:1066E40071B10A4A0A49121BD20800239A4201D105
:1066F400002030BD31F82350854202D00133F5E744
:10670400034654F83300F4E7A010030068110300B3
:1067140024220020094B013903EBC000032909D8C6
:10672400DFE801F00A02040604207047007970478C
:10673400407970470020704702207047A010030082
:10674400034BD3E90030C31A58425841704700BF85
:10675400402400202DE9F04387B0FFF7F1FF0646FF
:10676400002840F0FB807E4DC5F81804BFF34F8F1E
:106774006868AC6802902040033005EB800002A9F1
:10678400FFF7D4FE029B18B1D5F81824002A5FD075
:1067940004EA0302991C013305EB8202234005EB52
:1067A4008303D268DB68049302F00303022B039291
:1067B400029162D1BDF80E306A484FEA9318B8F1DD
:1067C400500FC14628BF4FF0500969F38F1309F1E8
:1067D4000801ADF80E3002F08AFB0746002800F0ED
:1067E400A88002F0B3FB03A900230822384602F074
:1067F400C0FB029924EA01060136B600B14535D939
:106804005FFA89F97EB3F6B2A9EB06092140033198
:106814005FFA89F4B146544E05EB810108234A46D8
:10682400384602F0A6FB36B109F108032246314688
:10683400384602F09EFB029B08F1030803EB980321
:106844000293D5F81834002B4BD1D5F810445BE0F3
:106854002A689A4204D86A60304607B0BDE8F083DB
:1068640004EA030088E740493446D7E7214003316E
:1068740008234A4605EB8101DAE7012B59D1BDF81B
:106884000C303848C3F38311062928BF062161F36D
:10689400891302318900ADF80C3002F028FB074659
:1068A400002846D002F052FB0023082203A93846F0
:1068B40002F05FFB0026BDF80C20C2F38312B30084
:1068C400964203F10803BCD202994A1C21400331C9
:1068D400029205EB81010422384602F04AFB01369C
:1068E400E9E7384602F036FBFFF72AFF80F00100A3
:1068F400C6B2B1E7E3685B7923B1236839461B6804
:1069040020469847E3681C68002CF3D1384602F00F
:1069140021FB0DF107008DF8074000F057FDD5F875
:1069240018340BB9029B6B609DF8070000F072FDF0
:10693400DAE7D5F8104454B90C4B0D480D49C01A88
:10694400C008000440F0020000F06EF8CCE72368B1
:1069540020469B689847E3681C68ECE700267BE7C1
:10696400402400208C1003004C240020A0100300BD
:10697400D8100300C01103002DE9F74F284C8046BE
:106984000F46924601A9012218469B46D4F8089066
:10699400FFF7EAFD80B3019D0026A91C5E4506EBC6
:1069A400010233D100211F4801F018FD80F31000CB
:1069B4006A1C02EA090204EB8202000405EA0903E4
:1069C400033340EA1840D06014F8232068F3C5026A
:1069D40004F8232034F8232066F3891224F82320B2
:1069E40054F8232067F39F2244F8232002F0F8028E
:1069F40042F0010204F8232094F820341BB1FFF77D
:106A0400A9FE0028FBD103B0BDE8F08F09EA020219
:106A140004EB82025AF82630D3600136BEE700BF89
:106A2400402400205C28002000231A46FFF7A4BF5E
:106A340007B50123019201AAFFF79EFF03B05DF899
:106A440004FB07B5CDE9002302236A46FFF794FF50
:106A540003B05DF804FB1FB5CDE90123069B039346
:106A640001AA0323FFF788FF05B05DF804FB1FB5F7
:106A7400CDE90023069B0293079B03936A460423F4
:106A8400FFF77AFF05B05DF804FB00002DE9F3473A
:106A940080462C4CD01C8A46174601A90022800847
:106AA400A568FFF761FDC8B3DDF80490A66809F195
:106AB4000200019001362840361AB6000330B7426E
:106AC40004EB800034D83A46514609F046FE0021D2
:106AD4001D4801F083FC80F3100009F101032B40F1
:106AE40004EB83034FEA184242EA0042DA6005EA03
:106AF4000903033304EB830214F8231068F3C5017C
:106B040004F82310518867F38F11518034F823203F
:106B140002F0380242F0020224F8232094F82034D0
:106B24001BB1FFF717FE0028FBD102B0BDE8F087C8
:106B34003246514609F011FEBA1B0AEB060104F174
:106B44000C00C2E7402400205C28002030B50F4927
:106B5400D1F81024002314463CB9C468237152B9F7
:106B6400C1F810042260184630BDE46825799D42BE
:106B740006D02468F0E7D268116821601060F2E75B
:106B840001330A2BE7D14FF0FF33ECE74024002018
:106B9400094A38B50123D2F8104482F820341D463E
:106BA40004B938BDE3685D71236820465B68984783
:106BB400E3681C68F4E700BF40240020037A052B37
:106BC40010B50C460FD0437A23B1084A0849204631
:106BD40001F0C4FC0749204601F0C0FC2046BDE892
:106BE400104001F0B0BC002AF8D0F3E70B12030008
:106BF4008F3103002E220300C38873B504460D466B
:106C040033B1144A00921449144A284601F0A6FCF0
:106C1400217A05291CD0637A4BB1A088FFF77AFD4D
:106C24000F4B104953F82020284601F097FC227A94
:106C34000D4BA08853F822600021FFF74FFD0B494C
:106C440003463246284602B0BDE8704001F086BCD7
:106C540002B070BD0B1203001812030010120300DF
:106C6400D81103008F3103003C12030030120300DB
:106C74002DE9F04385B01F460C9D002306460C46C3
:106C8400904695F80C902B7329463846FFF7B4FFCD
:106C9400B8F1060F09D8DFE808F00412181F2833EA
:106CA40040003146284601F059FC00222946384666
:106CB400FFF784FF85F80C9005B0BDE8F0832268E7
:106CC4003146284601F04AFCEFE7D4E90023314677
:106CD400284601F043FCE8E7A36800933146D4E971
:106CE4000023284601F03AFCDFE7E3680193A36838
:106CF40000933146D4E90023284601F02FFCD4E761
:106D040023690293E3680193A36800933146D4E9AD
:106D14000023284601F022FCC7E763690393236933
:106D24000293E3680193A36800933146D4E90023F6
:106D3400284601F013FCB8E708292DE9F84F8046EE
:106D44000E4617461C463AD8002593F80C901D733E
:106D540019461046FFF750FFDFF884A0DFF884B02F
:106D6400AE422ED918F805205946204601F0F6FB0C
:106D74000135082DF4D11849DFF86CB0204601F034
:106D8400EDFB4FF0000A564520D918F80A507E2D25
:106D940003D8284609F0D8FB00B92E252A465946BF
:106DA400204601F0DBFB0AF1010ABAF1080FEAD12F
:106DB400012221463846FFF701FF84F80C90BDE814
:106DC400F88F5146204601F0C9FBD1E7034920461C
:106DD40001F0C4FBE7E700BF06120300041203003E
:106DE40002120300FC110300081203001FB5002166
:106DF400039001AA44F20100CDE9011100F004F866
:106E040005B05DF804FB000010B572B6FFF7C0FED4
:106E1400FFF7A0FC0028FBD1104B114C1149E41AD8
:106E2400E408240444F00100FFF7FEFD0E4B1B6848
:106E3400DB0700D500BE0D4944F00200FFF7F4FD66
:106E4400BFF34F8F0A490B4BCA6802F4E062134345
:106E5400CB60BFF34F8F00BFFDE700BFA01003005E
:106E6400D81003009B120300F0ED00E0A71203000A
:106E740000ED00E00400FA05094A537891780133E3
:106E8400DBB2994208BF0023117899421FBF0370F7
:106E94005078182303FB002014BF043000207047EF
:106EA400FC28002073B5054600240DF107000E46AA
:106EB4008DF8074000F08AFA0DF10600FFF7DCFFB9
:106EC40090B10670094B9DF8062045605A709DF8F4
:106ED400070000F09FFA24B9054B4FF48012C3F861
:106EE4000021204602B070BD0424F0E7FC280020F5
:106EF40000E100E0024B4FF43C6043F0010318470B
:106F0400C012030038B50C4B0C4C4FF40032C3F8DC
:106F1400802001254FF48033C4F84833C4F8083383
:106F24006560FFF7E7FF064BA56000241C60FFF7D0
:106F3400E1FF044B1C7038BD00E100E0001001408B
:106F4400182A0020092A0020F8B51F4B1F491B6886
:106F54000025C1F84051C1F84451C1F84851C1F865
:106F64004C51C1F80051C1F804514BB3D1F8044558
:106F740017490968641A24F07F442F461A68A2420C
:106F840009D8A41A15441A7CDE691AB11F74D3E90E
:106F940005209047AEB90F4A0F4B11781B788B42EE
:106FA40005D10133DBB2022B08BF00231370127822
:106FB4000A4B43F822500A4B4FF48012C3F80021C5
:106FC400F8BD3346DAE700BF1C2A00200010014058
:106FD400182A0020152A0020142A00200C2A002038
:106FE40000E100E02DE9F04FA14AA24913780978A5
:106FF400A14D994285B03CD00133DBB2022B08BFCE
:10700400002313709D4912789D4B0F6853F822009A
:107014003B1823F07F4300220B602B68164614466E
:10702400944613B942B12B6006E0196881420ED927
:1070340002B12B60091A196001272B68DFF848A2F6
:1070440001934FF00008BEB9DFF844B266E0401A7D
:107054000C44D968C3F800C0D3F81CE031B13A1924
:1070640022F07F42C3E90121DE611E4601227346FC
:10707400D7E700263746E0E73446F6697F4A636877
:107084001268DFF810C2A068991A21F07F416145A7
:1070940000F2A68001442160012222742A680023A0
:1070A400C4E90133E361002A40F0A3802C60CAE7FD
:1070B4005A1C9BF80210D2B291428BF8002004BFF4
:1070C40000228BF80020182202FB03B31A799C6873
:1070D400022A1CD0032A12D0012A1FD1207CE8B92D
:1070E400D3E90312A2605A69E2609A69654BA2610E
:1070F4001B78002B0CBF0B4603466360BEE70022DF
:107104002B681146002B67D142B12B6006E0296839
:107114000A468946002A5AD1002323749BF800307A
:107124009BF801209A42C3D12B68B8F1000F04D117
:10713400019A9A4201D1002F43D0002B73D0D3F887
:1071440000A0514D4D4BD5F804751C68DFF84881FB
:107154003E1B98F8003026F07F4603369BB94FF467
:107164008033C5F84433C5F80433484B4FF4003238
:107174004FF00109C3F880211A60C5F80090FFF7A9
:10718400B9FE88F80090B2452CBF5444A41924F0E9
:107194007F44C5F84045D5F80435DB1B23F07F4315
:1071A400E41B033324F07F44A3420AD9D5F8043501
:1071B400C5F84035FFF79EFE344B4FF40032C3F858
:1071C4000021304B00221A7005B0BDE8F08F9442C4
:1071D4002CD09146D2699DE719740122DB6991E7AD
:1071E400D31A23F07F43834234BFC31A002323609E
:1071F40052E721681368994213D8591A1160E26161
:1072040054E7091AD8691A4638B1034618688842FF
:10721400F7D3401A1860184613462160E061DC6118
:1072240011E71346F2E7FFF76DFECAE74C4511D1AB
:10723400CB692B6073B9DFF844E00120CDE9021279
:10724400CAF80800CEF800300E4B1870FFF752FE53
:10725400DDE902121368D269C9F81C2012B1106862
:10726400034413602B68994218BF4FF0010853E799
:10727400142A0020152A00201C2A0020182A002085
:107284000C2A0020082A00200010014000E100E040
:10729400FC280020FEFF7F00092A002008B5FFF724
:1072A40031FE104B00200B2218809A700E4B186090
:1072B4000E4B18700E4B18700E4B4FF48012C021F9
:1072C400C3F8802183F814131A6002F18042A2F5F6
:1072D4006F22C2F8080583F81113074BD2F804256E
:1072E4001A6008BDFC2800201C2A0020142A002053
:1072F400152A002000E100E0182A0020074B9B78A3
:107304004BB132B128B10368187C20B959745A6161
:107314007047072070470820704700BFFC280020F2
:107324002DE9F7431E4FBB7805460E469046A3B39E
:1073340098B304292FD943697BB3437C0024012BE0
:107344000DF107000CBF8946A1468DF8074000F0F7
:107354003DF80DF10600FFF78FFDD0B10123037056
:10736400104B4560D3F80435C0E90498C0E90236EF
:107374009DF806307B709DF8070000F04BF824B9A7
:10738400094B4FF48012C3F80021204603B0BDE836
:10739400F0830424EFE70724F7E70824F5E700BFA8
:1073A400FC2800200010014000E100E0064A927829
:1073B4003AB130B1426922B1002202740221FFF7CE
:1073C40071BD0820704700BFFC28002070B5EFF3A2
:1073D400108672B60C4A946801239CB993600B4BD7
:1073E4000B4DD3F8801029401160C3F88050D3F8B6
:1073F400841051604FF0FF32C3F88420047006B942
:1074040062B670BD0370FAE7202A002000E100E0B4
:10741400FC06FFBD084B9A6810B55AB150B9EFF39A
:10742400108172B6054A1C6814605C6854609860E8
:1074340001B962B610BD00BF202A002000E100E0BF
:1074440070B5064D0646002455F8043B0BB1304692
:1074540098470134042CF7D170BD00BF382A0020AE
:10746400033080B240F2FD33984230B51FD8124B3E
:107474001A783AB91C895D892C440444A4B2B4F541
:10748400806F0AD31A7DA2B99A8BDC8B2244024402
:1074940092B2B2F5806F0CD201220A8014461422F3
:1074A40002FB04335A8910445881002030BD09205E
:1074B400FCE70720FAE700BF6C2A00200B4A0C4BBC
:1074C4005188142000FB0131CB6833B9042049688A
:1074D40010700122074801F0BDBA05230649137054
:1074E40002238B80012200230968F3E7502A00203D
:1074F4006C2A002010220020342B002007B5002322
:1075040005490093054A09680548082301F00CFA67
:1075140003B05DF804FB00BF342B0020D412030039
:107524001022002007B50023009301460823034AD4
:10753400034801F0F9F903B05DF804FBCC12030031
:107544001022002013B500230C46009301460423A7
:10755400074A084801F0E8F938B9074B142202FB3E
:1075640004340123237402B010BD0E20FBE700BFD6
:10757400C8120300102200206C2A002037B50A48E4
:107584000A4B42689C8819685388032503330570A5
:107594009BB2002000909B0001EB8401044801F0A1
:1075A400C3F903B030BD00BF502A0020342B0020A3
:1075B4001022002010B50146044800F043FE1C22AE
:1075C4000446002109F0F2F8204610BD202B0020CB
:1075D40068B10268084B9A4209D14068074B984247
:1075E40007D0013398420CBF0120032070470320C9
:1075F40070470020704700BFDEC0ADDEFE011EF103
:107604004388033300EB8303994209D382884FF6FE
:10761400FF739A4206D00088B0FA80F040097047A0
:1076240002207047012070472DE9F8430223DFF858
:1076340060800B800D46174600F5805600F1080463
:107644004FF00109B4420FD2236801330CD0314604
:107654002046FFF7D5FF48B10FB187F80090022804
:107664000BD14FF480632B80BDE8F883A368D8F86E
:107674000020934201D9C8F800302B886288033374
:1076840013442B806388033304EB8304DAE700BFDD
:10769400642A0020154A142303FB002070B50B68EC
:1076A40044680D4604F58056ABB15C88033403EBA3
:1076B4008404B4420DD2236801330AD031462046F3
:1076C400FFF79EFF01280BD010F0FF0F05D0022812
:1076D400EFD1002003E00834EBE72C60012070BDFB
:1076E4006388033304EB8304E3E700BF6C2A0020C0
:1076F400436873B504460D4663B3234AD1688B428D
:1077040028D31269934225D813F0030022D11F4ACB
:107714002189128991421DD121689A68914219D117
:107724001B4A51688B4203D901F580518B420DD31A
:10773400926993420CD902F58052934208D20123F4
:107744002B80B0FA80F0400902B070BD0346F7E721
:107754000A20F6E700232B801E46019601A92888FB
:10776400FFF798FF30B92B8801339BB2012B2B8094
:10777400F3D9E9E7019B226899689142EED16360ED
:10778400024B1B892381DFE710220020502A0020AE
:107794006C2A00202DE9F8431C461C4B1B78064636
:1077A4000F4615466BB372B36CB3DFF868804FF0C5
:1077B4001409A388012B01D90A2020E009FB03F353
:1077C40018F803302BB92146A088FFF763FF20B9CE
:1077D4002060A3880133A380EBE723681EB1998856
:1077E40032889142EFD11FB119883A889142EAD187
:1077F4009A68C5E90023064B1B892B810020BDE84C
:10780400F8830220FBE70520F9E700BF482A00209F
:10781400502A00206C2A002008B5074B191D5888EF
:10782400FFF738FF18B1BDE80840FFF7A7BEBDE871
:107834000840FFF743BE00BF502A00202DE9F04F57
:10784400A04FDFF8A49289B00646B8463B6823B936
:1078540049469D4800F030FD3860D8F8005029783A
:107864004B1E052B00F2FA80DFE813F006005E00E1
:107874005E00EE00EE005C0126B1944B00225A60DB
:107884000124ECE02B79032B1DD8DFE803F015026B
:107894002A358F490B78022B084619D00B7D022B11
:1078A4004FF0010316D114225343C2180020C854C8
:1078B4005068FFF737FE03E001232B71FFF71EFE2C
:1078C400002800F0BC80814B00225A600E24C6E0E0
:1078D4000023E8E77D4A13700023536041F61D54EA
:1078E400BDE07C497C48002302222B718A8001225E
:1078F400096801F0AFF8E3E7764C00262E712068A2
:10790400734DFFF70FFE754BD4F800C05A8814234B
:107914005343EA18EE5451682160A188C2F804C0A8
:1079240011810222A280CBE7B5F814A0AA7DDFF86A
:10793400A0B1AEB1022AEB8806D9142101FB0AB129
:10794400DA1C088902440A81142202FB0ABAC3F52C
:107954007F43BAF80A20FD331344AAF80A308FE7AC
:10796400142303FB0AB318895C6804EB8004062A19
:1079740068D8DFE802F0274D35431D59040041F66D
:107984001D54AA7DEB88022A06D9142101FB0AB1F1
:10799400DA1C088902440A81142202FB0ABAC3F5DC
:1079A4007F43BAF80A20FD331344AAF80A3056E09C
:1079B4004B484C4900234360AB690360FFF798FED2
:1079C400002871D00223AB75002300930423EA1826
:1079D4002146414800F0A8FF002830D00E24D0E70B
:1079E4002B69002B14BF03230123AB7500230093E1
:1079F40005F10C02042304F10801EAE70123AB7545
:107A04000022EB8800929B002A6904F10C01E0E754
:107A140003290CBF05230623AB750023009304231D
:107A240005F10802E118D4E70623AB752D4B19883C
:107A34002B4B5868FFF786FD04460028A1D109B0F6
:107A4400BDE8F08F0F249CE7002E7FF419AF2B794B
:107A5400012B4BD0E3B1022B3FF440AF0F2414228F
:107A6400002103A808F0A2FE41F61D539C4208BF62
:107A74000024D8F8003004941A78023A042A00F258
:107A84000581DFE812F0E600F20015011D01240172
:107A940002232B710DF10A01EB68039303A8CDE9CE
:107AA4000466FFF725FE08B90A24D8E70498BDF850
:107AB4000A108388EB8003882B81FFF743FD04467B
:107AC40027E000BF682A0020202B0020482A00203D
:107AD4006C2A0020342B002010220020502A002081
:107AE4002C2A0020402B0020602A0020DFF8FCA173
:107AF40003AA53463146A81DFFF74CFE044658B965
:107B0400BAF804100498FFF71DFD04460A2C3FF44C
:107B1400E5AE002CA3D192E708223146504608F086
:107B240045FEF3E7002E7FF4ABAE6B4B1A7BAAB194
:107B34001E731A78013A062A90D801A151F822F04E
:107B4400EB7B0200117C02002F7C0200357C0200DA
:107B5400617A02003B7C02004D7C02001A78072AFD
:107B6400E7D801A151F822F08D7B0200377B020097
:107B7400377B0200B37B0200C77B0200E77B020075
:107B8400E77B0200AF7B02001A89544901321A8153
:107B940000225A801A730A78B2FA82F252099A724F
:107BA4000A7DB2FA82F25209DA72012207E04C49E4
:107BB40058688A884088033202448A8002221A70F4
:107BC400B7E7464C5A884649142505FB0242086823
:107BD400546850608888108102228A800C600622D2
:107BE400EDE70722EBE79A7A32B9DA7A8AB900220A
:107BF4001A705A805A6071E6384900229A72CA682B
:107C0400002AF2D1097C0029EFD05A80FFF704FE44
:107C140055E70022DA72314A116A0029E7D192F855
:107C24002420002AE3D00122EFE7FFF7A7FC46E770
:107C3400FFF744FC43E7294A5B88142101FB032333
:107C44005868FFF76FFC3AE700225A60FFF756FCCA
:107C540035E701228DF80C201A89ADF818209A888E
:107C6400DB68ADF81A20059310E002228DF80C2091
:107C74001A89ADF818209A88ADF81A20DA689B7D25
:107C840005929A1F534253418DF81C3003A8FFF705
:107C9400D7FB002649461348C8F8006000F037FBBC
:107CA4000121114800F0E6FB00287FF4CFADC6E6C1
:107CB40003228DF80C20DA88ADF818201A89CFE752
:107CC4000422DB888DF80C20ADF81830DEE705239C
:107CD4008DF80C30DAE700BF502A00206C2A00200F
:107CE400342B0020202B0020302B0020442B00209C
:107CF4004068FFF7A3BD000008B50121044800F067
:107D0400A3FB18B9BDE80840FFF798BD08BD00BF44
:107D1400302B00202DE9F3419846354B1B7806465D
:107D24000D46002B5BD000295BD009884FF6FF730A
:107D3400994258D06B88002B55D06B689B0754D15F
:107D44004AB92F890DF102013846FFF789FB30B19A
:107D540002B0BDE8F08113885788ADF8023001A85D
:107D6400FFF728FC044658B9BDF80230214A142113
:107D740001FB032358890338C01B58810820E7E717
:107D840000238375BDF8023083826B68036180F839
:107D940000800121184800F062FB2B882381B8F190
:107DA400030F6B88A38004BF0423A3754FF0000561
:107DB40008BF3368E06008BFA361E780658101A95B
:107DC4000E4800F069FA36B1E36833600C4B756015
:107DD4001B89B5723381FFF78FFF0020B8E70220BB
:107DE400B6E70520B4E70420B2E70320B0E700BFFC
:107DF400482A00206C2A0020642A0020202B00201E
:107E0400502A002008B5084B1A68042A09D01968BA
:107E1400064A42F821000121184600F020FB002008
:107E240008BD0C20FCE700BF3C2B0020382A0020B2
:107E34002DE9F04F14228BB000210DEB020008F065
:107E4400B5FC764A137803F0FF01CDE901123BB18A
:107E540005A8FFF7F5FA002738460BB0BDE8F08F08
:107E6400029B181D00F011FB0028F4D140F6F873B2
:107E74004FF080521B685C1C08BF694B694C08BFFB
:107E84001B6811695269581C08BF02FB01F3236186
:107E94000022A3F540536449E360204600F010FD3E
:107EA400039407460028D7D11C238C225F496048DD
:107EB400DFF88891DFF8888100F08FF9BA463D46F3
:107EC4004FF0030B3C46039BDE6856443046314674
:107ED400FFF77EFB01284DD042B2002A36D003289A
:107EE40022D106F580520868013040F08A800431BE
:107EF4009142F8D1D9F800203AB902220123C9F8F5
:107F04000060A9F8042001930CE0142262430220CB
:107F140008EB020108F80200464A4E60548001341E
:107F24000881A4B245F001050AF5805ABAF5405F0C
:107F3400C9D1BBF1010F98BF0025EDB2022D03D0CA
:107F4400062D35D0002D3CD10B2785E71421614344
:107F540008EB010008F8012001F110020831466025
:107F6400424441443046FFF75FFB45F002050134CB
:107F7400A4B2D9E7019B63B11422624308EB020166
:107F8400022008F802000134D9F800204A60088170
:107F9400A4B200222849C9F800603046FFF744FB28
:107FA400B9F80420022A0CBF042208221543BBE7B7
:107FB400029A0123137005A800235360FFF740FAC7
:107FC4004AE704A8FFF7F6FAC8B10123013D03709C
:107FD4000A2D09D8DFE805F006080608070807088F
:107FE4000F110F000023037104A9114800F054F984
:107FF400FFF782FE30E70323F5E70223F3E70827C0
:108004002AE70BF1FF321FFA82FB1422624308EBCA
:1080140002014E60032108F80210A8E7482A002054
:10802400141000101022002088190300942A002044
:10803400202B0020502A0020382B0020342B002035
:108044006C2A002073B50D460446C8B1C1B10DF1C8
:108054000601FFF74DFBA8B10B4BBDF8060066689F
:10806400142202FB003001210C3000F0F8F963689F
:108074002E600C336B600123A372002002B070BD2C
:108084000520FBE70A20F9E76C2A002013B5044613
:10809400A8B10DF10601FFF72BFB90B10B4ABDF817
:1080A4000630142101FB0323DA6862B1A27A52B1CB
:1080B400DA680020013ADA60A07202B010BD05202F
:1080C400FBE70A20F9E70620F7E700BF6C2A002047
:1080D40002230022FFF71EBE18B103230022FFF77C
:1080E40019BE052070470000104B1B7813B50446D9
:1080F400ABB14FF6FF73984213D001A8FFF75AFAB9
:1081040088B10523037001230371C48001A90848C1
:1081140000F0C2F8FFF7F0FD002002B010BD02200D
:10812400FBE70420F9E70820F7E700BF482A00200E
:10813400202B00200E4B1B7807B5A3B101A8FFF735
:1081440039FA90B10623037001A90A4800F0A4F893
:10815400094B1A780AB101221A73FFF7CDFD0020EA
:1081640003B05DF804FB0220FAE70820F8E700BF3B
:10817400482A0020202B0020502A002007B5ADF803
:108184000600ADF804100DF1060001A9FFF702FB8B
:1081940003B05DF804FB07B51346ADF806000A46C4
:1081A40000200DF10601FFF7F5FA03B05DF804FBBA
:1081B40007B51346ADF806000A460DF10600002186
:1081C400FFF7E8FA03B05DF804FB20B119B10368C6
:1081D4000B60002070470520704710B561B1B2FBF9
:1081E400F3F403FB1424A4B244B9C0E9001484607A
:1081F4008281C381204610BD0E20FCE70920FAE7E6
:1082040082B050E8022FC188B2EB324F4FF0000326
:1082140017BF92B241EA014142EA014104E04268D7
:10822400B2EB324F08BF012340E80212002AE8D122
:108234008DF807309DF80730002B0CBF112000206B
:1082440002B0704737B550E8013F9DB2C489254458
:108254008489A54228BF2D1B0489A54202BFBFF310
:108264002F8F002207E0C5EA030540E80154002CE3
:10827400E9D14FF001028DF803200193019B9DF891
:1082840003200B6002F0FF0322B10B88006818443E
:1082940003B030BD1846FBE70A884B889A4209D1DF
:1082A40050E8012FC2EA024240E80123002BF7D133
:1082B400012070470020704737B550E8023F1FFA8D
:1082C400A3F5C488A54202BFBFF32F8F00220DE09F
:1082D400C48925448489A54228BF2D1BC3EA0545CA
:1082E40040E80254002CE8D14FF001028DF803203D
:1082F4000193019B9DF803200B6002F0FF0322B160
:108304004B880068184403B030BD1846FBE70A8860
:108314004B889A4209D150E8022FC2EA224240E82F
:108324000223002BF7D1012070470020704701F091
:108334001F024B090121914000EB830000F063B858
:108344004B0910B501F01F040121A14000EB83008B
:1083540000F04EF8E04000F0010010BD01F01F03F2
:1083640001229A404B0900EB8300D14300F061B82D
:108374004B0901F01F0150F82300C84000F0010030
:1083840070472DE9F0474E1E760980460F460136A8
:10839400002558F8254008EB8509E44394FAA4F431
:1083A400B4FA84F44FEA451A202C06D10135AE42C2
:1083B400EFD83C462046BDE8F0875444A742F5D99F
:1083C40021464046FFF7BCFF0028F3D0D9F800400F
:1083D400E44394FAA4F4B4FA84F4E5E750E8002FF3
:1083E4000B4640E8003C9CF0000FF7D11046704764
:1083F40050E8002F42EA010340E8003C9CF0000FE3
:10840400F6D11046704750E8003F43EA010240E8C5
:10841400002C9CF0000FF6D11046704750E8002F56
:1084240002EA010340E8003C9CF0000FF6D110463C
:10843400704750E8003F03EA010240E8002C9CF03A
:10844400000FF6D11046704750E8002F02EB0103ED
:1084540040E8003C9CF0000FF6D11046704750E80D
:10846400003F03EB010240E8002C9CF0000FF6D122
:108474001046704750E8003FA3EB010240E8002C8F
:108484009CF0000FF6D1104670470121FFF7B0BFF2
:108494000121FFF7B8BF0021FFF7C0BF10B590B1AD
:1084A400D0E9012301689B1ADBB20A60013BDBB20D
:1084B400FF2B026802D10020107110BD11684C1C02
:1084C40014600B70F2E70E20F7E737B50546002479
:1084D4000DF107008DF80740FEF778FF2A686B68F6
:1084E400116899420ED9481E106011F8014CEB68CE
:1084F400298A01FB0434AB6811791B1ADBB2994257
:1085040038BF13719DF80700FEF784FF204603B0BF
:1085140030BD37B5054600230DF107000C468DF834
:108524000730FEF753FF2A681368591C1160E96885
:10853400641A298AB4FBF1F41C709DF80700FEF755
:1085440069FF03B030BD826810B504462AB143699F
:108554000168006998470023A36010BD0EB403B5F9
:10856400039921B104AB01AA019300F06DF802B0A4
:108574005DF804EB03B07047826830B40468551C9E
:108584008560A154D0E901329A4202D330BCFFF78E
:10859400DABF30BC704700002DE9F84F9946DDE999
:1085A4000A431746824688460A460126BA420FD233
:1085B4004E4538BF4E4613F0010B01D164B9002477
:1085C4000125B9F1010F1AD909F1FF397D43F8E703
:1085D400B2FBF7F20136E9E79B070ED5B9F1000FBC
:1085E4000CBF30252025A642EAD2013C294650463C
:1085F400FFF7C2FF002CF6D1E1E72025F3E7B8FB33
:10860400F5F39F42E2D9DFF83C90B8FBF5F350460E
:1086140019F8031005FB1388FFF7AEFFB5FBF7F35A
:10862400BD4207D2BBF1000F02D00CB1A64203D366
:10863400BDE8F88F1D46E8E720215046013CFFF7CE
:108644009BFFF2E79C1703002DE9F74F05461746F9
:108654008846002900F0308118F8011B49B92B7BAA
:10866400002B00F02981284603B0BDE8F04FFFF746
:108674006ABF252940F0C080002698F800302D2BD1
:10868400424608F1010823D0302B24D02B2B25D0CF
:1086940000242A2B02F1010123D13B681A1D1B6817
:1086A4003A601C440A4613782E2B26D101324FF02F
:1086B4000009104610F8011BA1F1300CBCF1090FA0
:1086C4001DD80A2303FB0913A3F130090246F0E77E
:1086D40046F00106D1E746F00206CEE746F004066E
:1086E400CBE711F8013CA3F130000928DBD80A22BA
:1086F40002FB0434303C0A46CBE74FF0000912F881
:10870400011B01F0FB0068289046F8D069290ED0BF
:108714004AD8582964D006D825296DD098F8003055
:10872400002B99D19BE7632962D06429F6D13A687A
:10873400D2F800A0111D8AEAEA723960A2EBEA724B
:108744004FF0010B092A5BDCCB4538BFCB462CB17B
:10875400BAF1000F01DB720700D5013CB30702D563
:10876400B9F1000F04D0F00702D4002C4ED100243C
:10877400BAF1000F52DACAF1000A2D212846FFF798
:10878400FBFE06F00302022A05D1B9F1000F02D163
:10879400002C47D10024CDE900464B460A2251461D
:1087A4002846FFF7F9FEB9E773294CD014D870298D
:1087B400B4D13B681A1D3A60302128461C68FFF783
:1087C400DBFE78212846FFF7D7FE00220823CDE9F7
:1087D400003221461022E3E775292BD078299DD158
:1087E40039680A1D3A60CDE900464B46102228E05C
:1087F4003B681A1D19783A602846FFF7BDFE8DE7DD
:108804000A230BF1010BB2FBF3F29BE7A345AFD2B2
:1088140020212846013CFFF7AFFEA6E77107B0D53B
:108824002B21ABE7A345B6D230212846013CFFF704
:10883400A3FEADE73968CDE900460A1D3A604B4610
:108844000A220968ACE73B681A1D3A6016F0010673
:10885400D3F800A020D1BAF1000F03D0504607F09E
:10886400FAFF0646B44200D9C4B90AF1FF3A1EE041
:1088740028460136FFF780FE1AF806100029F7D1C2
:10888400A642BFF44BAF002C3FF448AF202128464A
:10889400013CFFF771FEF3E70026EDE720212846AF
:1088A400013CFFF769FEDDE72846FFF765FE1AF88D
:1088B400011F0029F8D131E703B0BDE8F08F0000B3
:1088C40007B50B4688B9124B1248134AC01A0E2337
:1088D400C0080093114B0004114940F00100FEF759
:1088E400BAF80E2003B05DF804FB4BB9084B0948F5
:1088F4000C4AC01AC0080E2300930004074BEBE790
:1089040003601B68114603B05DF804EB184700BF11
:10891400A0100300F810030059180300AC1703005B
:108924005E180300D51803002DE9F34188B93D4BC7
:108934003D483E4AC01AC0080E243D4B0094000432
:108944003C4940F00100FEF786F8204602B0BDE83D
:10895400F0814AB9334B3448374AC01AC0080E2450
:1089640000040094324BEBE7D0F800C0BCF1000FD8
:1089740009D12C4B2C48314AC01AC00808240004E1
:1089840000942B4BDCE74BB9264B27482C4AC01AE2
:10899400C008092400040094254BD1E74768D7F8A0
:1089A4000480B3FBF8F708FB17374FB11D4B1E4883
:1089B400244AC01AC0080924000400941C4BBFE7D1
:1089C4008F0709D0174B18481F4AC01AC008102433
:1089D40000040094164BB3E712F0030F09D0114BB7
:1089E40011481A4AC01AC008102400040094104BFD
:1089F400A6E7C768B9420BD34C1E05691C44AC42B8
:108A040006D8DCF80C40A44602B0BDE8F04160474B
:108A1400044B05480E4AC01AC008102400040094F0
:108A2400034B8DE7A0100300F8100300591803004E
:108A3400BE1703005E180300DB180300CF18030001
:108A44008E180300E11803000B1903002319030017
:108A540046190300F7B580B92A4B2B482B4AC01A94
:108A6400C0080E242A4B009400042A4940F0010057
:108A7400FDF7F1FF204603B0F0BDD0F800C0BCF113
:108A8400000F09D11F4B2048234AC01AC0080824EC
:108A9400000400941E4BE8E74AB91A4B1A481F4ACF
:108AA400C01AC008092400040094194BDDE7476884
:108AB400D7F800E00EF1FF370F4209D0114B1248EE
:108AC400174AC01AC008102400040094104BCCE7C5
:108AD400C768B9420CD34C1E05690EFB0244AC4274
:108AE40006D8DCF81040A44603B0BDE8F040604767
:108AF400044B05480B4AC01AC00810240004009413
:108B0400034BB2E7A0100300F81003005918030048
:108B1400D11703005E180300CF1803008E1803005A
:108B2400E41703000A18030029DF704728DF7047A1
:108B340070B503689D6886B004460E466DB1142274
:108B44000021684607F032FEA36805932379019655
:108B54002BB1012B0DD06846A84706B070BD012388
:108B64008DF8003023690293E368039363690493E7
:108B7400F1E702238DF80030E3681B030293F5E765
:108B84000846704700207047024B187A003018BF1F
:108B940001207047E82B0020034B187A0122B0FA19
:108BA40080F05A7440097047E82B002008B510463D
:108BB4001A4607F0D2FD002008BD000008B51422B3
:108BC4000021044807F0F2FD0348FFF719FB0020D9
:108BD40008BD00BFE82B0020D82B002010B5094C9D
:108BE400094B43602046FFF750FC40B907F02EFACA
:108BF4001C2320748C2205490548FFF7EEFA002057
:108C040010BD00BFE82B00207C1903004C2B002072
:108C1400D82B002070B5244C244E237A25463BB92A
:108C240023492448FFF748FB306008B9606070BDF1
:108C3400346802232B72237973B1012B24D020468C
:108C44000321FFF775FF00232B726B601849194845
:108C5400BDE87040FFF75BBBD4E90523D21AB2F537
:108C6400805F28BF4FF48052D4E903109208012A90
:108C740038BF012219441844FFF756FF50B1112898
:108C8400DDD101232B72D2E7D4E903031844FFF7A3
:108C94004DFFF3E72B7C002BC9D10146BDE87040A2
:108CA400022000F009B800BFE82B0020002C0020AF
:108CB400FC2B0020D82B002038B5831E012B45D86F
:108CC400234C237A002B41D0022B09D1032830D026
:108CD400204B1B680022E2601A793AB1012A22D0A3
:108CE400637C7BBBBDE83840FFF794BFD3E9051232
:108CF4008D1AB5F5805F94BF521902F580529A61BE
:108D04009142EDD102284FF0000308BF19462372A7
:108D1400104B18BF0D211868FFF70AFF0E490F48C2
:108D2400FFF7F5FADCE71A6901321A615B699A42C6
:108D3400E7E7E3680133082B01D8E360D0E70023B9
:108D4400E360DFE7BDE8384007F070B938BD00BF25
:108D5400E82B0020002C0020FC2B0020D82B002026
:108D640000F0FD03012B08D1044B00225A74421E6B
:108D7400504250411874FFF74DBF7047E82B002054
:108D840010B5064C201DFFF780FB28B9637C1BB986
:108D9400BDE81040FFF73EBF10BD00BFE82B002028
:108DA4002DE9F34180460D460F4801A916461F469A
:108DB400FFF748FA0446A8B11C22002107F0F6FC8C
:108DC4002D0B0123237101A9C4F80080A760E5607D
:108DD40066610548FFF760FAFFF7D2FF002002B092
:108DE400BDE8F0810420FAE7D82B00202DE9F743F1
:108DF40081468846104801A917461E46FFF722FA05
:108E04000446B0B11C22002107F0D0FC00250A9BC7
:108E1400A36001A92571C4F80090C4E903786661D0
:108E24000548FFF739FAFFF7ABFF284603B0BDE862
:108E3400F0830420FAE700BFD82B00202DE9F04787
:108E4400B0F806904479D2F800A09DF8208009FB80
:108E540004F4043C06460AEB0300A0420F4688BF14
:108E6400A4EB030A191DC2F800A0B1FBF9F509FB34
:108E740015114DB9A9EB0104544528BF5446BAF164
:108E8400000F04D1BDE8F0873668013DF1E70431F5
:108E94007B1970182246B8F1000F0ED0014618460F
:108EA400AAEB040A07F059FCD145254436684C4620
:108EB4004FF0000128BF5446E1E71946F0E7FFF7F9
:108EC400EDBAF8B546790146721E05460023934271
:108ED4002D6803D30024A64202D8F8BD0133F6E777
:108EE4000F682846FFF715FB01343946F3E72DE9EF
:108EF400F843068ACD1C0746FFF7E7FA043E3544DB
:108F04000446B5FBF6F5F0B14FF48073EDB28380FF
:108F1400C680013D076081464FF00008A84512D283
:108F24003846FFF7D2FA064648B1637901336371D4
:108F340008F10108C9F8000007608146EEE7204601
:108F4400FFF7BFFF34462046BDE8F8830121043013
:108F5400FFF785BA10B5012104460430FFF78AFAF9
:108F640010F0FF0F04D12046BDE81040FFF7A9BF61
:108F740010BD1FB503920022009203AAFFF75EFF03
:108F840005B05DF804FB1FB503920122009203AA09
:108F9400FFF754FF05B05DF804FB41DF70470000A4
:108FA400064B10B500241C70054B1C60BFF35F8F8B
:108FB4000449054800F039F8204610BD0C2C002067
:108FC400102C0020A8190300042C002007B500234E
:108FD4000DF107008DF80730FEF7F8F9F1EE103ABD
:108FE40023F09F03E1EE103ABFF35F8F094B402259
:108FF400C3F884219DF80700FEF70CFA07F026F861
:1090040020B1FFF7CAFF03B05DF804FB20BF40BFE7
:1090140020BFF8E700E100E0836800225A609A600C
:10902400C3E90422DA601A6070470B684A68436037
:10903400934208BF0023016008BF43607047436840
:1090440043B10268916852680B449342436004BF81
:10905400002343607047000010B50D49A1F59472D8
:10906400914201D800200FE08B1ADB1003EBD3737D
:109074005B1002EBC30452F83330834205D802D2AA
:1090840004F10802ECE7606810BD2146E8E700BF80
:10909400F81A030008B5FFF7DFFF024B002808BFEA
:1090A400184608BDBD190300054B1B68082B01BFFA
:1090B400044B1868B0FA80F0400918BF00207047CC
:1090C400300100103401001008B54FF08043002235
:1090D400C3F80C21C3F81021C3F838254FF080528F
:1090E40003F54043D2F80414C3F82015D2F8081449
:1090F400C3F82415D2F80C14C3F82815D2F81014A8
:10910400C3F82C15D2F81414C3F83015D2F8181477
:10911400C3F83415D2F81C14C3F84015D2F820143F
:10912400C3F84415D2F82414C3F84815D2F8281407
:10913400C3F84C15D2F82C14C3F85015D2F83014D7
:10914400C3F85415D2F83414C3F86015D2F838149F
:10915400C3F86415D2F83C14C3F86815D2F8401467
:10916400C3F86C15D2F84424C3F87025FFF79CFFAC
:1091740010B1384B384A1A60FFF796FF18B1374BD5
:10918400FB22C3F81825FFF78FFF48B13449354B4C
:109194000A681B6822F00F0203F00F0313430B60ED
:1091A400FFF782FF18B1304B4FF400721A604FF092
:1091B4008043D3F80024D20744BF6FF00102C3F800
:1091C40000242A4AD2F8883043F47003C2F8883065
:1091D400BFF34F8FBFF36F8F4FF01023D3F80022EC
:1091E400002A03DBD3F80432002B2FDA204B0122B0
:1091F400C3F80425D3F80024002AFBD04FF0102232
:109204001221C2F80012D3F80024002AFBD04FF038
:1092140010231222C3F80422154B1A46D3F8001463
:109224000029FBD00021C3F80415D2F80034002B28
:10923400FBD0BFF34F8F0D490E4BCA6802F4E062B6
:109244001343CB60BFF34F8F00BFFDE70A4B0B4ABC
:109254001A6008BD8C5600404881030000F00040AD
:10926400E40E0040580200104096024000ED00E079
:1092740000E001400400FA052C2200200090D003F5
:10928400074B1B5C1F2B8ABF064A4FF0A04203F01A
:109294001F03D2F80405D840C04300F00100704712
:1092A400B61E030000030050074B1B5C1F2B86BF38
:1092B40003F01F0305494FF0A041012202FA03F312
:1092C400C1F80C35704700BFB61E03000003005000
:1092D400074B1B5C1F2B86BF03F01F0305494FF090
:1092E400A041012202FA03F3C1F80835704700BF18
:1092F400B61E03000003005008B50020FFF7E8FF86
:109304000120FFF7E5FF0220FFF7E2FF0320BDE89D
:109314000840FFF7DDBF08B50020FFF7C5FF0120B7
:10932400FFF7C2FF0220FFF7BFFF0320BDE808409C
:10933400FFF7BABF0A4B185C1F288ABF094B4FF0CE
:10934400A04300F01F00D3F804250121814021EA45
:1093540002000A40C3F80805C3F80C25704700BF93
:10936400B61E030000030050014B185C704700BF99
:10937400B21E030038B5074C051E04F1080318BFDC
:109384001C4623682BB11A6822605B6828469847FC
:10939400F7E738BD1C2C002020B9054B01225A7078
:1093A400FFF7E8BF012802D1014A9070F8E770473F
:1093B400142C002020B9034B01225A70FFF7DABFA6
:1093C400704700BF142C002038B50B4C237883B9A8
:1093D4000A486360A3602361E36000F057F8054620
:1093E40006F034FE08B900F05DF801232370284626
:1093F40038BD8525FBE700BF142C00209D93020097
:1094040037B50B4C00230DF107008DF80730FDF73D
:10941400DDFFE368013BE360E56815B900F054F84B
:10942400A5709DF80700FDF7F5FF03B030BD00BF40
:10943400142C0020012813B509D018B103281CD01E
:1094440002B010BD0F4B0122C3F88020F8E70E4C88
:1094540000230DF107008DF80730FDF7B7FF2378DF
:109464000BB9FFF7B1FFE3689DF807000133E36030
:109474000123A370FDF7CEFFE2E700F013F8FFF736
:10948400BFFFDDE700E100E0142C0020044A13795B
:1094940023B90121106091801846704785207047D8
:1094A400282C0020074B1A68D2075FBFC02283F81C
:1094B400002301221A604FF080430122C3F81825CB
:1094C400704700BF00E100E0044B01221A604FF036
:1094D4008042D2F81834DB03FBD470470C00004000
:1094E400154B07B51A687AB100221A601B680093FD
:1094F400009B4FF080430122C3F808230F4B587997
:1095040010B95A711B6898470D4B1A6882B1002232
:109514001A601B680193019B4FF080430222C3F839
:109524000823064B1B68012003B05DF804EB1847C1
:1095340003B05DF804FB00BF00010040282C0020AC
:109544000401004000F1804000F5C040002382B0D7
:10955400036003680193019B02B0704703681F2BEB
:1095640083BF03F01F03036001484FF0A04070471E
:109574000003005007B5019001A8FFF7EFFF019B1E
:1095840000EB8300D0F8002722F44032C0F8002713
:10959400D0F8003743EA0143C0F8003703B05DF860
:1095A40004FB0000054B4FF0FF32072843F820204E
:1095B40084BF1B1883F85820704700BF302C00204C
:1095C40010B5174C94F86A3043BB04F130033021D2
:1095D400FF22013911F0FF0103F8012BF9D1C8B2C0
:1095E400FFF7E0FF01310C29F9D1062200210D48D3
:1095F40007F0DCF80C4BC02283F8062340221A60E3
:109604004FF4BE70FFF79EFF084B4FF00042C3F8C3
:109614000423012384F86A30002010BD0820FCE7ED
:10962400302C0020942C002000E100E00060004079
:1096340037B5354B1A18044692F93000013061D120
:109644008878002852D01846002250F8045B01356F
:1096540046D1181980F83020002043F822009200E7
:1096640002F1804202F5C0420B78D2F810554878D6
:1096740025F499151B04000525F4F85500F4801011
:1096840003F44033C2F8105503432002D2F81055B6
:1096940000F47C5003432B43C2F810354A780194FC
:1096A400012A01A826D1FFF759FF019B9A40C0F86F
:1096B400082501A80194FFF751FF019B134903F505
:1096C400E073032240F8232024FA02F2012304F079
:1096D400070003FA00F08B5C18438854002003E071
:1096E4000132082AB1D1042003B030BDFE2382F830
:1096F4003030D3E7FFF732FF019A01239340C0F8DB
:109704000C35D6E70820EFE7302C0020942C0020FD
:1097140007B5019001A8FFF721FF019A01239340A7
:10972400C0F8083503B05DF804FB07B5019001A843
:10973400FFF714FF019A01239340C0F80C3503B0DE
:109744005DF804FB2DE9F04F002489B0CDE9024413
:10975400624D4FF48072012102F1804303F5C0434E
:1097640090B21B68012B06D1D5F804330B4202D00A
:10977400FFF7E8FE0C430432B2F5907F4FEA410153
:10978400EAD1574B1B68012B0ED14FF4BE70FFF783
:10979400D9FE4FF0A04344F00044D3F810350293AF
:1097A400504BD3F81035039314F0FF0F1AD04E4FDB
:1097B40000250126344210D0AB0003F1804303F5A9
:1097C400C043D3F81005D3F8101557F8253023B14A
:1097D400C1F30141C0F3052098470135082D4FEA34
:1097E4004606E7D1002C75DA0DF110080023049326
:1097F400C8F804304FF0FF33CDE90633DFF8E8A0B2
:10980400DFF8E89000273D4619F9014B631C48D066
:10981400E4B2012324F0C00604F0070203FA02F2C2
:10982400F00808AB191811F8083C134239D00AEBB8
:109834000603A40993F930305AF823B0BBF1000FA2
:1098440008D1032C2DD118F800C04CEA020C08F8FA
:1098540000C001E0032CF6D001A80196FFF77EFEBC
:10986400019B11F8181C03F5E07C114250F82C0000
:10987400C0F3014005D0022813D1032C0BD121469B
:1098840004E003280DD1032C05D102213046FFF753
:1098940071FE0135EDB2BBF1000F02D02146304616
:1098A400D8470137042FAFD1A5B14FF0A043029997
:1098B400D3F8102503F540739142D3F8103502D143
:1098C4000399994206D002920393049A059B069247
:1098D400079395E709B0BDE8F08F00BF0060004032
:1098E4007C61004000030050302C0020902C0020AC
:1098F400014B1B68184700BF9C2C00200E4B98425C
:1099040037B50D4602D0002003B030BD00230DF161
:1099140007008DF80730FDF759FD084B1C7914B981
:1099240001221D601A719DF80700FDF773FD002CDC
:10993400E9D01120E8E700BF002000409C2C002063
:109944007FB503788DF804304368029383688DF8FB
:109954000C30C368049303698DF81430054A064B30
:1099640001A853F8213052F82110984707B05DF848
:1099740004FB00BFA42C0020B42C0020F0B5064644
:10998400174616F804CB124A42F82C70114A42F8D2
:109994002C30114B0D460FCB85B06C4684E80F007C
:1099A4002B6800932B798DF805306B798DF8063090
:1099B400AB680293002FAB89ADF80C30074A6346BD
:1099C40008BF3A462146304600F0BEFA05B0F0BD65
:1099D400B42C0020A42C0020D81E030045990200BA
:1099E4000023435082B043580193019B02B0704757
:1099F4002DE9F0470D78089E9DF824A004460F46F3
:109A04009946002D5ED1D0F82431D2F800803BB1C4
:109A14004FF49271FFF7E4FF012363613B7017E099
:109A2400D0F81C3153B34FF48E71FFF7D9FFD0F83F
:109A340024311BB14FF492712046EBE713689E4228
:109A440012D919F80330C0F81C35136801331360B8
:109A5400B04535D1D4F8043193B34FF48271204624
:109A6400FFF7BEFF002504E00123BAF1000F03D085
:109A7400C3612846BDE8F0874361E9E7D0F80831BF
:109A8400002BE5D04FF48471FFF7AAFFD0F82431FE
:109A9400002BCFD113689E42DAD9D0F8181509F8F3
:109AA4000310136801331360721E934205D102231D
:109AB400C0F8003201232362CAE79E42FAD1C7E705
:109AC4000125D6E74FF49271FFF78AFF4FF48E71A8
:109AD400FFF786FF4FF48471FFF782FFBAE70000B7
:109AE4002DE9FF470C4605461F4620463B4B039392
:109AF4004FF4827116469DF83080FFF771FF4FF4E2
:109B04009271FFF76DFF4FF48E71FFF769FF4FF409
:109B14008471FFF765FF0023C4F800326B6385F896
:109B24002E3001232362A3606A6B97421DD9B35C74
:109B3400C4F81C356B6B01336B632B68E3B905F117
:109B4400340A05F12E09039B002B1FDC95F82E30F7
:109B540053BB0020039B002B15DC0023C4F8003505
:109B64000523C4F8003503200DE0B8F1000F01D03F
:109B7400E361E2E76361E0E740F28623AB60AB6850
:109B8400C4F80433002004B0BDE8F087CDE90078C0
:109B94003346524649462046FFF72AFF0028D5D0CF
:109BA400039B013B0393CEE7D4F8C434C4F8C43414
:109BB400002BCED013F0010F14BF4FF4024003204A
:109BC40048F2012213F0020F18BF104613F0040FDD
:109BD40048F2022318BF1846BCE700BFA086010064
:109BE4002DE9FF470C4605461F462046354B039397
:109BF4004FF482719246FFF7F3FE4FF49271FFF730
:109C0400EFFE4FF48E71FFF7EBFE4FF48471FFF714
:109C1400E7FE0023012F2E686B6385F82E3008BF02
:109C240002224FF001030CBFC4F80022C4F8003232
:109C340023622360AEB905F1340905F12E08039BB4
:109C4400002B18DC95F82E301BBB0020039B002B47
:109C54000EDC0023C4F800350523C4F800350320C6
:109C640006E040F28623AB60AB68C4F804330020FE
:109C740004B0BDE8F087CDE9007653464A46414634
:109C84002046FFF7B5FE0028DCD0039B013B03937D
:109C9400D5E7D4F8C434C4F8C434002BD5D013F0B9
:109CA400010F14BF4FF40240032048F2012213F0C5
:109CB400020F18BF104613F0040F48F2022318BF16
:109CC4001846C3E7A0860100F0B52C4C2C4894F844
:109CD4002C3089B004F134020193A36A0093636ABF
:109CE40004F12E01FFF784FE2746E0B994F82EC054
:109CF400266ABCF1000F1DD1217B8B1E012B19D8C4
:109D0400626AA3699A4215D1E26963696262C6F321
:109D140040160329A36284F82C6006D100961849E2
:109D24002046FFF7DDFE09B0F0BD15492046FFF7D8
:109D340057FFF8E7134D0FCD03AC0FC42B68236016
:109D4400BCF1000F17D00E4AD2F8C434C2F8C434A0
:109D540099070CD501238DF80830002387F82F309C
:109D64007307E0D4D7E9003102A89847DBE75A0724
:109D7400F3D50223EFE78DF808C0EEE7C42C0020EA
:109D840000300040D02C00202DE9F84F05793C4CE0
:109D94004FF03C0A0AFB05FA04EB0A069B4696F8C8
:109DA4002D3080460F469146002B65D13549006819
:109DB400FFF7A4FD002861D13A687B7B86F8383030
:109DC4001F2A8CBF02F01F031346B060C6F804B00C
:109DD40086F82F0086F8300003F5E07188BF2A4E1C
:109DE40044F80A9098BF4FF0A04640F20C6346F83E
:109DF400213079681F291E468CBF01F01F030B46D2
:109E040003F5E0738CBFDFF880C04FF0A04C4CF832
:109E14002360D8F80030C3F80825BA68C3F80C15D5
:109E2400C3F82425B9F1000F1ED01B0B59B2002929
:109E34003A7BB4BF154E01F16046DBB2B8BF03F004
:109E44000F074FEA4212A8BF06F56146D2B2B4BF6B
:109E5400F25586F8002303F01F03012202FA03F3EC
:109E640049090B4A42F821303C2303FB05440123F2
:109E740084F82D30BDE8F88F0820FBE71120F9E7BE
:109E8400C42C0020CD9C02000003005014ED00E01F
:109E940000E100E0026803790521C2F80015044AD4
:109EA4003C2101FB0323022283F82D20704700BFCD
:109EB400C42C00201F2886BF00F01F00044A4FF066
:109EC400A042012303FA00F0C2F80805704700BF5E
:109ED400000300501F2886BF00F01F00044A4FF003
:109EE400A042012303FA00F0C2F80C05704700BF3A
:109EF400000300504FF0402307B5D3F81831D3B115
:109F04000E4B0F4900221A60C87F1B680193FF287B
:109F1400019B03D08B7F5BB1FFF7DCFF00234B7702
:109F24000B72D1E90031074803B05DF804EB184720
:109F3400FFF7C0FFF2E703B05DF804FB18410040EF
:109F4400002D0020082D00202DE9F74F0679724FCF
:109F540001934FF0240909FB06F907EB090A93461C
:109F64009AF81C2080460C46002A40F0D1800568EF
:109F74006A492846FFF7C2FC0146002840F0CA801F
:109F8400019BCAF80430237B47F809B0012B2078E1
:109F940000F2AC80FFF79EFF23781F2B86BF03F0EF
:109FA4001F035F4A4FF0A04203F5E073012042F81B
:109FB400230094F80190B9F1FF0F00F09A8048460D
:109FC400FFF788FFB9F11F0F8BBF09F01F034B4642
:109FD400534A4FF0A04203F5E073032042F82300F4
:109FE400A378FF2B00F088801F2B8BBF03F01F0288
:109FF4001A464B484FF0A04002F5E0724FF0040CB3
:10A0040040F822C09A46242202FB067282F82030CD
:10A01400E078D077FF2816D02379002B6FD0FFF794
:10A0240059FFE3781F2B86BF03F01F033C4A4FF010
:10A03400A04203F5E073032042F82300242303FB2A
:10A04400067322799A772378C5F80835A368C5F88A
:10A054000C95C5F810A5C5F82435637B227B003325
:10A0640018BF0123022A4DD0032A4ED0012A01D160
:10A0740043F00203C5F85435A379C5F8C035242349
:10A084007343FB5813B14022C5F804230722C5F8D3
:10A09400002503B3D8F8003062791B0B58B20028AE
:10A0A400A8BF00F16044DBB2B8BF03F00F054FEA6C
:10A0B4004212B4BF1B4C04F56144D2B2B4BF625522
:10A0C40084F8002303F01F03012202FA03F340097A
:10A0D400154A42F82030242303FB067600237377C5
:10A0E40001233377084603B0BDE8F08FFFF7E2FEA3
:10A0F40052E74FF0FF3973E74FF0FF3A83E7FFF77A
:10A10400D9FE8EE743F00403B4E743F00603B1E756
:10A114000821E7E71121E5E7002D0020F99E020060
:10A124000003005014ED00E000E100E02DE9F341EC
:10A134000579424E24236B431446F2180F46517F8F
:10A144008046002978D1F35823B114F0140F04BFCA
:10A154000123537797E80F004FF0240C0CFB056C98
:10A164000CF10C0E8EE80F009CF81F00FF2804D0A1
:10A174009CF81E30C3B1FFF79DFE396821B101F090
:10A184006043B3F1005F06D1BA6882B102F0604364
:10A19400B3F1005F0BD0242303FB056500236B7729
:10A1A400102002B0BDE8F081FFF794FEE5E7D8F88F
:10A1B40000307868C3F84415C3F84805F968C3F853
:10A1C40034250022C3F83815C3F81821D3F8182110
:10A1D4000192019A14F0010218BF0122C3F850251C
:10A1E40014F0020218BF0122C3F8402522075CBF05
:10A1F40001221A6124226A43B25892B9D3F8182171
:10A20400002AFBD0242303FB0565E87FFF2803D045
:10A21400AC7F1CB1FFF75EFE0020C2E7FFF74AFEE9
:10A22400FAE714F004004FF0400202D0C3F8082308
:10A23400F2E7C3F80423B4E71120B2E7002D0020AD
:10A244000E4A537910B503F0FF01A3B90C4B196002
:10A25400116821B1012454710A4AC2F8044300F17F
:10A26400804000F524300122026011B91A68002AE6
:10A27400FCD0002000E0112010BD00BF242D0020E0
:10A284000091024000900240F8B5414D2E79002E15
:10A2940077D190F804E0BEF1FF0F74D090F805C0B8
:10A2A400BCF1FF0F6FD08779FF2F6CD0C379FF2BE0
:10A2B40069D0384CC4F824E5C4F828C5C4F830750E
:10A2C400C4F83435037A90F80BC0877AFF2B08BFA3
:10A2D4004FF0FF33C4F83835437AFF2B08BF4FF0F3
:10A2E400FF33C4F83C350368C4F84035037B9B0155
:10A2F40043EACC033B43477B90F810C0002F14BFC4
:10A30400802700273B43C4F84435D4F80036877BC4
:10A3140023F07F4323F0FF033B43C77B43EA4C63B3
:10A3240090F811C0002F14BF4FF08077002743EA44
:10A334000C733B43C4F8003601236E712960AA6094
:10A34400C4F8083341B1837C134A5B01DBB282F861
:10A3540029334FF4007353600E49104C104E012200
:10A3640000202A711643C1F80025642520600A6084
:10A37400236853B94FF42070B047013DF8D10D2044
:10A38400F8BD0820FCE70720FAE70020F8E700BF43
:10A39400242D00200090024000E100E000910240E2
:10A3A400001F0300444B5B792DE9F0411446054638
:10A3B40003F0FF02002B73D1404E4378326011B397
:10A3C4009A1E072A1FD8DFE802F04B49471145437C
:10A3D4004104CA791206887942EA0042487942EA7D
:10A3E4000022087902433648C0F83C26CA7812068F
:10A3F400887842EA0042487842EA002209780A430F
:10A404002F49C1F838262E4A0121C2F80813A97829
:10A414001B0243EA013329780B43E97843EA4133C9
:10A42400297943EA8133697943EAC133C2F834367E
:10A43400244B642743F0010833689BBB4FF420701E
:10A44400C047013FF8D10D20BDE8F0810022C2E7EA
:10A454000022C3E70022C4E70022C9E70022CAE7BA
:10A464000022CBE76978D3F83C26D3F83836023992
:10A47400072913D8DFE801F0110F0D0B0A080604B1
:10A48400110EE171110CA171110A617122711A0E80
:10A49400E2701A0CA2701A0A627023700020D3E7CB
:10A4A4001120D1E700233360054B0122C3F80423B4
:10A4B400002CD7D12046C7E7242D0020009102406C
:10A4C40000900240001F03001FB500238DF80730E1
:10A4D4000A4B0DF10702186802909B88ADF80C3006
:10A4E400114602A8FFF75EFF28B99DF8073013F064
:10A4F400010F18BF112005B05DF804FBF11E030025
:10A5040000F06043B3F1005F09D1064BC3F8102596
:10A51400C3F81405C3F818150820FFF791BE1020DE
:10A52400704700BF0090024000F06043B3F1005F49
:10A5340009D1064BC3F80425C3F80805C3F80C1564
:10A544000420FFF77DBE1020704700BF009002403A
:10A55400034BC3F81C15C3F820050C20FFF770BE8D
:10A5640000900240054A136833B1054B002058712E
:10A57400996810601A681047704700BF0091024044
:10A58400242D002008B5094B1B7853B10020FEF799
:10A594009FFE0120FEF79CFE0320BDE80840FEF765
:10A5A40097BEBDE80840FEF7A7BE00BF302D0020CF
:10A5B400F8B57B4C237805461BB100232370FFF7C5
:10A5C400E1FF172D00F28880DFE805F00C17174330
:10A5D40054657680888D888D959A9A9A9A9AC4C97A
:10A5E400D1D9E4E4FFF7CEFF6E48FCF7DFFE6E4BF3
:10A5F400002204461A702046F8BD0020FEF740FEF3
:10A60400F8B10020FEF764FE022D0CBF4FF4E161A7
:10A614004FF47A61644B1D704FF400404FF4FA74A8
:10A624000025E0FB01454FF47A72002320462946B9
:10A6340005F094FE002201465A48BDE8F840FCF7B4
:10A644006FBEFEF731FE022D0CBFC8214FF4C87156
:10A65400E0E70020FEF714FE40B10020FEF738FECC
:10A664004FF44871504B03221A70D5E7FEF71CFED5
:10A67400C821F7E70020FEF703FE38B10020FEF7FB
:10A6840027FE4FF47A61484B0422EDE7FEF70CFEF7
:10A694004FF4C871F7E70020FEF7F2FD48B100203F
:10A6A400FEF716FE404B05221A7041F69A1100225D
:10A6B400C2E7FEF7F9FDF5E70020FEF73BFE3A4B53
:10A6C40006221A70002240F6CD41B5E70020FEF7BD
:10A6D400EBFD354B07221A7000248CE70120207013
:10A6E400FEF728FEEEE701202070FEF723FE00228D
:10A6F4004FF48041A0E7FEF70EFE2B4B0C22EAE755
:10A704002A482B4EFCF752FED5F1110504461CD005
:10A71400D8B9012D13D0C8235D434FF400474FF43B
:10A72400FA7000214FF47A720023C7FB050105F08B
:10A7340015FE224601461D48FCF7F2FD04460220A0
:10A74400FEF7B2FD0123337055E70220FEF7C0FD8A
:10A754000023F8E7FFF716FF134B1222BBE7FFF7BE
:10A7640011FF0020FEF7A0FD0F4B1322B3E7FFF704
:10A7740009FF0120FEF798FD0B4B1422ABE7FFF70E
:10A7840001FF0020FEF790FD0120FEF78DFD064B32
:10A794001522A0E7FEF7BFFD034B1D709CE700BF29
:10A7A400842D0020542D0020852D0020342D0020E0
:10A7B400302D0020002910B514BF03240024FEF717
:10A7C400D3FD1F288ABF0A4B4FF0A04300F01F009F
:10A7D40003EB8000D0F8002722F44032C0F80027B1
:10A7E400D0F8003743EA0443C0F80037002010BD16
:10A7F40000030050044B1B6813F0010301D0FFF762
:10A80400D7BE1846704700BF802D0020032813D8F8
:10A81400012A0BD1012908D100F10E02D2B200EBBA
:10A8240040000C4B1A540020704700220129F6D036
:10A834004BB24BB1022901D007207047054B00EB06
:10A84400400018444270EEE7024900EB400008441F
:10A854008270E8E7742D0020032802D80121FFF755
:10A86400A9BF0620704708B5012202210020FFF786
:10A87400CDFF08B1072810D1072202210120FFF7DC
:10A88400C5FF08B1072808D100210A220846FFF7AE
:10A89400BDFF10B1072808BF002008BD0388102B96
:10A8A40010B502D0112B1ED010BD1A4C2168B1B9BD
:10A8B40001220846FFF7AAFF08B1072824D107227E
:10A8C40002210120FFF7A2FF08B107281CD10422AE
:10A8D40002210020FFF79AFF08B1072814D123684A
:10A8E40001332360E0E70B4A1368013B1360002B3C
:10A8F400DAD1FFF7B8FF0028D6D0074B1B68002B2E
:10A90400D2D0BDE810401847034B1B68002BE6D09B
:10A914009847E4E78C2D0020882D002008B50020FE
:10A92400FFF79AFF08B1062806D10120FFF794FF2C
:10A9340010B1062808BF002008BD76DF70477ADF13
:10A9440070477CDF70478FDF704767DF704733DF06
:10A95400704700000B7813B9014B01221A7070473D
:10A96400902D0020FCF742BA0388212B13B504462E
:10A974002FD005D8102B17D0112B0AD002B010BD40
:10A984003B2B01D0562BF9D11321A088FFF7D5FF1B
:10A994001AE0144B14481549C01AC008000440F0CA
:10A9A4000300FCF741F8E9E70E4B0F481049C01AC1
:10A9B400C008000440F00300FCF736F80D4BA188F2
:10A9C4000D48198003F0EEF80028D7D0FCF70EFAF2
:10A9D400D4E7002301A98088ADF80430FFF7B3FF62
:10A9E400F2E700BFA0100300D8100300061F030005
:10A9F400141F0300342200201430002008B503780B
:10AA04004BB9054B3B211888FFF797FF18B1BDE8F8
:10AA14000840FCF7EBB908BD3422002008B598B112
:10AA240003281ED10F4B10481049C01AC008000457
:10AA340040F00300FBF7F8FF0220FFF7DBFE80B1D4
:10AA4400BDE80840FCF7D2B9FFF7D4FE08B1FCF723
:10AA5400CDF9FFF763FF08B1FCF7C8F9FFF777FFFB
:10AA6400EDE708BDA0100300D8100300661F030023
:10AA740010B5044604F096FB204604F0B9F9237897
:10AA84000C2B08D10321044801F05BFC18B1BDE88C
:10AA94001040FCF7ABB910BD942D0020FCF7A6B90B
:10AAA4002DE9F041114DDFF84C8006460F462C4647
:10AAB4002B78ABB13A4631460D4800F0ABFD132874
:10AAC400F6D00828F4D043F201429042F0D008B105
:10AAD400FCF78CF92378013BDBB22370BDE8F081ED
:10AAE40048F001034FF47A409847E1E7362200200A
:10AAF400EC2F0020201F030013B508220446002178
:10AB0400684605F053FE9DF80030694664F300037F
:10AB140002208DF80030FFF718FF08B1FCF766F942
:10AB240002B010BDF0B54FF080430122ADB01A6001
:10AB3400D3F80021002AFBD04FF400410020FBF79A
:10AB4400AFFD08B1FCF752F9FBF7E0FCFCF7A6FBFC
:10AB540008B1FCF74BF9FEF723FA08B1FCF746F904
:10AB640005F0F6F908B1FCF741F9002301A9012029
:10AB7400019305F0B9FA08B1FCF738F901A805F01A
:10AB840083FB08B1FCF732F911237A488DF80030C1
:10AB940005F061FE774982B26846FFF7D2FE08B13C
:10ABA400FCF724F90021082201A805F0FFFD7249F1
:10ABB4004FF0C87301A8CDE90113FFF7C0FE08B137
:10ABC400FCF714F900216D4802F0C0FE08B1FCF74F
:10ABD4000DF9E621694802F0CCFE08B1FCF706F94C
:10ABE400E6224FF6FF71654802F0CFFE08B1FCF78C
:10ABF400FDF80023CDE901336946614B61480093B8
:10AC040002F0BEFF08B1FCF7F1F85F4B019311238A
:10AC14008DF8093001A941F211135C48ADF80A30EE
:10AC240000F05EFC08B1FCF7E1F8AC22002101A8B9
:10AC340005F0BCFD02238DF8043040F20163544A50
:10AC4400ADF806300123ADF8143006928DF880304B
:10AC54004FF4967244F25063CDE9232301A94D4B7E
:10AC64004D482A9301F0F6FA08B1FCF7BFF8012128
:10AC7400494801F0ECFA1C22002101A805F096FDD8
:10AC840000234FF42032CDE90132ADF812304FF4F5
:10AC940070228DF81430414B039206930322404BEB
:10ACA4008DF8102001A8079301F090FD08B1FCF77E
:10ACB4009DF803F045FD08B1FCF798F80522002142
:10ACC40001A805F073FD019B03F07C42354B13434F
:10ACD40001939DF8083023F0030343F0030301A814
:10ACE4008DF8083003F0C6FD08B1FCF77FF82E4854
:10ACF40003F0A8FD08B1FCF779F80120FFF7FCFE8A
:10AD04002A4800F0FDFF00F0BFF900F083F800F0DE
:10AD14002BF900F05FFA002000F096FB244B254845
:10AD24002549C01AC008000440F00300FBF77CFE6C
:10AD340003F0F8FD08B1FCF759F800F0AFFE1F4C22
:10AD44001F48204D204E00F0DBFF01222270002717
:10AD54002B7803B12F7033781BB123780BB100F03B
:10AD640079FA00F0A5FEFBF7F5FC0028F0D1FEF718
:10AD74002DF9EDE7261F0300060010000030002027
:10AD840069A902001430002059A90200EC2F002008
:10AD94003022002021AA0200942D002001AA0200E2
:10ADA400A1AA02003107100375AA02002E1F030096
:10ADB400A0100300D81003003E1F03002030002021
:10ADC4004B1F030021300020283000201FB5CDE99F
:10ADD4000001CDE90223694600220348FFF7A6F9E2
:10ADE40005B05DF804FB00BF1C20030007B522205A
:10ADF400FEF79BFC06238DF8073000231A46012139
:10AE04000DF10700FFF7E2FF2220FEF781FC03B0FB
:10AE14005DF804FB07B5002301A92220ADF8043036
:10AE24008DF80630FEF704FC08B1FBF7DFFF2220A3
:10AE3400FEF76EFC044B4FF47A4043F0010398474D
:10AE440003B05DF804FB00BF801F03002DE9F84345
:10AE5400804600AF14466D46894691B3FFF7C6FF9E
:10AE64002220FEF762FC04F10B0303F4FC73ADEB48
:10AE7400030D02238DF80030C8F300438DF8013030
:10AE84004FEA18238DF802308DF803802246494694
:10AE940001A805F062FC0C4B0C48C01AC008000461
:10AEA4006946042240F00300FBF7F0FD261D002351
:10AEB4001A46F1B26846FFF789FF2220FEF728FC04
:10AEC400AD46BD46BDE8F883A0100300D8100300CA
:10AED4002DE9F04182B0044600AF1546E8460E461F
:10AEE400F9B12220FEF721FC032305F10B023B718B
:10AEF40002F4FC72C4F30043ADEB020D04217B7138
:10AF04002B1DDBB26A46781864BAFC80FFF75EFF3B
:10AF140001A92A46304605F020FC2220FEF7F8FB62
:10AF2400C5460837BD46BDE8F0810000014B01224B
:10AF34001A7070472030002007B50A4B00221868A9
:10AF44009B880090ADF804301146062368468DF8BE
:10AF54000030FFF727FA08B1FBF748FF03B05DF8AC
:10AF640004FB00BF881F030030B5224D224889B07E
:10AF740000F0C6FE0FCD03AC0FC42B682360002283
:10AF840002231E498DF81E3003A8FFF77DF908B18E
:10AF9400FBF72CFF1A4B0022186801909B88ADF830
:10AFA4000830114601A8FFF7FDF908B1FBF71EFFB1
:10AFB40000229923114601A88DF80430FFF7F2F915
:10AFC40008B1FBF713FFFFF7B7FF02238DF8033037
:10AFD400002240F231230DF1030101A8ADF8043041
:10AFE400FFF7E0F908B1FBF701FF064B00221A70E6
:10AFF40009B030BD901F0300AA1F030031AF020047
:10B00400A41F030020300020084A08B50B46002185
:10B01400117002464FF480711846FFF771FA18B1A7
:10B02400BDE80840FBF7E2BE08BD00BF20300020A9
:10B0340038B505460C46FFF747FA0028FBD12A46E7
:10B044004FF480712046FFF76FFA08B1FBF7CEFE8C
:10B05400034B1A78002AFCD000221A7038BD00BFB6
:10B064002030002008B501460120FFF771FA08B12D
:10B07400FBF7BCFE034B1A78002AFCD000221A709E
:10B0840008BD00BF2030002030B5224B224C23499C
:10B09400E41AE408240444F0030489B02046FBF7CE
:10B0A400C3FCFEF78DFA08B1FBF7A0FE1C4920464D
:10B0B400FBF7BAFC1B4B0FCB6D4685E80F0040F63F
:10B0C4001173ADF800300D238DF802304FF00043BA
:10B0D400029300231A4629461348FEF74FFC08B191
:10B0E400FBF784FE20461149FBF79EFC104B0FCB67
:10B0F40004AC84E80F0000231A4621460D48FEF7ED
:10B1040043FE08B1FBF772FE0A48FEF7C3FE09B01E
:10B1140030BD00BFA0100300D8100300E01F0300DF
:10B12400F41F0300C01F03001820030005200300C0
:10B13400D01F03002820030010B50446142005F096
:10B1440009FA00224260024642F80C4BC0E903228D
:10B1540010BD0000436813B9074800F0D1BD013B9E
:10B164004360C068D0E9002353601A600023C0E93B
:10B1740000330C3805F038BA3020030010B54468A9
:10B1840024B9044800F0BCFD204610BDC36853F840
:10B19400040CFAE76320030038B5D0E90023934296
:10B1A40004460D4604D10A48BDE8384000F0A8BD65
:10B1B40001334360142005F0CDF92369856000F163
:10B1C4000C0222610C34C0E903431A6038BD00BF8D
:10B1D4004120030008B5054800F092FD4FF4FA70D1
:10B1E400FFF7AAFF024B186008BD00BFE820030068
:10B1F4002C300020044B054801221A70044B002215
:10B204001A7000F07DBD00BF28300020A820030084
:10B214002930002010B50A4B0A4C0B4801221A7041
:10B224002368596800F06CFD23685B68002BFDD12E
:10B23400064A07481370BDE8104000F061BD00BF26
:10B24400293000202C300020B820030028300020B2
:10B25400D720030038B5194C23686BB193F8032148
:10B26400174B53F82250284600F042F86B7B2068B5
:10B2740001336B7305F0B8F9124D28684368DBB1EC
:10B28400FFF77CFF20602868FFF764FF21680E4801
:10B2940091F8033191F8012191F8001100F030FD8B
:10B2A400216891F8003191F801011B0203EB004081
:10B2B400BDE83840FFF7A8BE38BD00BF24300020E9
:10B2C400303000202C30002073200300FFF7C2BF71
:10B2D40008B5014640B1007B044B052253F8200019
:10B2E400FFF7F6FD002008BD0120FCE70C21030058
:10B2F40008B5014640B1007B044B052253F82000F9
:10B30400FFF7A4FD002008BD0120FCE70C21030089
:10B31400064B027B03EB420113F81220497841707B
:10B32400002302708370C27003717047022103000E
:10B3340070B5437B013B044643734FF482700D4662
:10B34400164605F007F948B1002380F8016180F83A
:10B35400005180F80231237B80F8033170BD10B5B1
:10B36400044698B1806808B105F03EF92046FFF71D
:10B37400CFFFA0236373E278A178FFF7D9FFA06021
:10B3840020B92046BDE8104005F02EB910BD0000DC
:10B3940010B50A4B0A4C1B781BB981682068FFF76B
:10B3A400FBFE23685B68012B07D1064B1B7823B196
:10B3B400054B1B780BB1FFF789FF10BD2930002026
:10B3C4002C300020283000202030002070B5437B32
:10B3D400044623B38578C678FF2D10D00135EDB22D
:10B3E400A5702046FFF7D4FF324629462046FFF7D2
:10B3F4009FFF0028A06014BF0020042070BD437884
:10B40400013B9E4204DA0136F6B2C6700025E7E736
:10B4140001230371034800F073FC0320EEE70220CC
:10B42400ECE700BF6A21030007B5C3780193837872
:10B43400009343780278017B024800F061FC03B07A
:10B444005DF804FB87210300042870B505462AD85B
:10B4540001461A4800F054FC102005F07BF8A023A4
:10B46400437305730446FFF733FF154B217813F834
:10B474001520914205D103EB450362785B789A422B
:10B4840007D0104800F03CFC2046FFF741FFFFF7CF
:10B494002FFFE278A1782046FFF74AFFA06020B989
:10B4A400204605F0A1F8002405E0074B204643F8A8
:10B4B4002540FFF7B9FF204670BD00BF20210300DF
:10B4C400022103003921030030300020A8DF704737
:10B4D400AADF7047ACDF7047AEDF704762DF7047AA
:10B4E400F0B5054695B031200E4605F011F98022DD
:10B4F4000021464805F05AF9002D00F08480002E02
:10B5040000F0818033682B604FF6FF73EB81404B72
:10B5140004AA03F1100C174618685968144603C4AA
:10B52400083363452246F7D105F110013846FFF789
:10B53400D5FF0446002863D12B7C8DF80A302A1DE0
:10B544004FF4A05302A90120ADF80830FFF7BEFF65
:10B554000446002854D101460322684605F026F922
:10B5640011238DF8003073798DF801309DF8023085
:10B57400012262F3420321461C220DA88DF80230F9
:10B5840005F014F99DF834300E9423F01A0343F0B7
:10B594001A038DF8343001AF2B7C8DF80E30214620
:10B5A40041F2014303223846CDE910441394ADF827
:10B5B4000C30CDF848D005F0F9F8B3798DF80430A3
:10B5C400F3798DF805309DF8063023F01F0343F01E
:10B5D40002032146142208A88DF8063005F0E6F887
:10B5E40003ABCDE9083780230A93ADF82C30074B21
:10B5F4000C9308AAAB1D0DA9A888FFF769FF0446A0
:10B60400204615B0F0BD0E24FAE700BF45300020F7
:10B61400CC21030070B5154686B00646002847D0F5
:10B62400244C204605F099F808220021684605F0CC
:10B63400BDF800236A46F188F089ADF80050ADF8F2
:10B6440002300194FFF746FF054640BB1A4B1B4CE2
:10B65400F289E41AE4084FF6FF7324049A4244F092
:10B6640003041FD01022014602A805F09FF8F388B6
:10B67400ADF8083001238DF80A30BDF80230ADF87A
:10B684000C3002A9019BF089CDF810D00593FFF787
:10B6940023FF0B49054602462046FBF7C9F9284615
:10B6A40006B070BD07492046FBF7BEF90825F6E74A
:10B6B4000E25F4E745300020A0100300D810030045
:10B6C400DC210300FC21030070B5054686B00C465E
:10B6D40031B128B10388112B20D003D8102B0ED000
:10B6E40006B070BD502B24D0572BF9D12C4B01221E
:10B6F4001A702C4A13780133DBB21370F0E7838895
:10B70400CB8103238DF8043020460B6801A99847A8
:10B71400244B2548197800F0F3FAE1E74FF6FF735C
:10B72400CB8102238DF80430236801A92046984771
:10B73400D6E7C288CB889A421FD1018A1B4800F001
:10B74400DFFA1B4B1B482A8AC01AC00805F11206EF
:10B754000004314640F00300FBF798F932462146D5
:10B7640001A82B7C00F07EF89DF8142001A9204646
:10B77400FFF750FF08B1FBF739FBEA8863899A4267
:10B78400AED12B8A022BABD12368002BA8D005F1B4
:10B79400120001F08DF980F001008DF80400C3E778
:10B7A40044300020362200203122030046220300C8
:10B7B400A0100300D810030010B5064B1B780446F4
:10B7C4000BB9FFF717FD00232370012323742046D0
:10B7D40010BD00BF2830002010B5064B1B7804466E
:10B7E4000BB1FFF717FD00232370012323742046B8
:10B7F40010BD00BF283000202DE9F043164BDFF8C0
:10B8040060901E780F4687B005466846FFF7E4FF50
:10B814003C7897F8038011484246214600F070FABC
:10B82400F6B244450ED93846FFF799FD16B168467D
:10B83400FFF7C2FF00232B70284601232B7407B0A7
:10B84400BDE8F0832146484600F05AFA200401344A
:10B85400FFF708FCE4B2E4E7283000205D2203008F
:10B86400902203002DE9F041012B4FF00007C8B0EE
:10B8740004463E46117813D90729567800F0D5803E
:10B88400042E02D9022323702AE07C4850F8265063
:10B894001DB901232370237428E0022B00D097786C
:10B8A400082900F2C080DFE801F0051D2544505747
:10B8B40021C35E00042004F04DFE2B780370EB7866
:10B8C4004370AB786E4EC3700025857001463068B6
:10B8D400FFF762FC33686B48596800F011FA257071
:10B8E4000123D8E729462046FFF786FF204648B0C3
:10B8F400BDE8F081297B644800F002FA00230522A8
:10B9040029460DF121008DF8203004F026FF06238E
:10B914008DF83030224608AB0CAE1D4603CDB5423F
:10B92400106051602B4602F10802F6D11B781370A7
:10B93400DCE7297B554800F0E3F92846FFF7E8FCEB
:10B944002846FFF7D5FC00239DE7514B1B78002BBD
:10B95400F9D1FFF74FFCF6E74D4B1B78002BF2D0E3
:10B96400FFF758FCEFE7294608A8FFF745FF9DF8C5
:10B97400206076B108AD23460CAE2A4603CAB24213
:10B9840018605960154603F10803F6D112781A704D
:10B99400ACE7297B3F4800F0B3F96846FFF70CFF9A
:10B9A40007963B4E2B79E3B93378D3B1A86890F866
:10B9B4000231FB2B0BDC0422184407A904F0CDFE52
:10B9C400AA6892F80231043382F8023109E0FC2BB0
:10B9D40020D1042207A9FC3004F0BFFE2846FFF75B
:10B9E400F5FC079B0133B3F5803F0793DAD30023BB
:10B9F4008DF8203001238DF83030224608AB0CAE90
:10BA04001D4603CDB542106051602B4602F1080279
:10BA1400F6D18BE72846FFF7D9FC0028E1D1AB68C3
:10BA240093F80201C7E703232DE7022B7FF437AF16
:10BA3400174B3502684605EB074593F80080FFF77E
:10BA4400CBFE2B463A463146134800F059F908A973
:10BA54002846FFF7EDFA802108A8FFF721F85FFADE
:10BA640088F8802128A8FFF71BF8B8F1000F3FF4ED
:10BA74006AAF6846FFF7A0FE65E700BF30300020DC
:10BA8400C8300020A3220300B7220300DB220300F6
:10BA94002830002026230300FF22030008B5FF20DE
:10BAA400FFF74AFB014B186008BD00BFC8300020F7
:10BAB400244B2DE9F04F18684268C9B09B46EAB19F
:10BAC400FFF75CFB0546C8B11F4B02A81F78FFF7C0
