:020000022000DC
:1060000000000120756302005D6302005F6302000F
:106010006163020063630200656302000000000028
:1060200000000000000000000000000067630200A4
:1060300069630200000000006B6302006D630200F0
:10604000258102006F630200118402006F63020069
:106050006F6302006F6302008D8202006F630200B3
:106060006F6302006F6302006F6302006F630200E0
:106070006F6302006F6302006F6302006F630200D0
:106080006F630200316F02006F6302006F630200F2
:10609000CD6F02006F630200C59F02006F630200B4
:1060A0006F6302006F6302006F6302006F630200A0
:1060B0006F6302006F630200000000000000000038
:1060C0006F6302006F6302006F6302006F63020080
:1060D0006F6302006F6302006F6302000000000044
:1060E00000000000000000000000000000000000B0
:1060F00000000000000000000000000000000000A0
:10610000000000000000000000000000000000008F
:10611000000000000000000000000000000000007F
:10612000000000000000000000000000000000006F
:10613000000000000000000000000000000000005F
:10614000000000000000000000000000000000004F
:10615000000000000000000000000000000000003F
:10616000000000000000000000000000000000002F
:10617000000000000000000000000000000000001F
:10618000000000000000000000000000000000000F
:1061900000000000000000000000000000000000FF
:1061A00000000000000000000000000000000000EF
:1061B00000000000000000000000000000000000DF
:1061C00000000000000000000000000000000000CF
:1061D00000000000000000000000000000000000BF
:1061E00000000000000000000000000000000000AF
:1061F000000000000000000000000000000000009F
:10620000354936480A1A02D0072291438D4634494F
:1062100034480A1A06D00722914381F309880222E2
:1062200082F3148830483149314A00F044F831484B
:106230003149324A00F03FF831483249324A00F0E1
:106240003AF832483249334A00F035F83248334997
:10625000334A00F030F833483349344A00F02BF821
:1062600033483449344A00F026F83448344900228F
:1062700000F02CF833483449002200F027F8334866
:106280003349091A082902DB002202604160314AC1
:1062900090471F481F49884205D00268043003B464
:1062A000904703BCF7E700208646EC46002000211B
:1062B000294A9047FEE7884207D0521A05D0037852
:1062C00001300B700131013AF9D17047884202D098
:1062D00002700130FAE770470000012000E0002062
:1062E0000000012000000120BCB20200B822002002
:1062F00004230020D4630200D4630200C8A4020077
:10630000BCB20200B8220020B82200209CA50200E6
:106310009CA502009CA502009CA502009CA5020071
:106320009CA502009CA502009CA50200BCB2020034
:1063300008B30200042300200423002004230020CB
:10634000642C0020642C0020642C0020642C00208D
:10635000644C00209D630200718E0200FEE7FEE7A0
:10636000FEE7FEE7FEE7FEE7FEE7FEE7FEE7FEE705
:10637000704700BF1048804710484FF0070188431E
:1063800085460F4880470F48016841F4700101605D
:10639000BFF34F8FBFF36F8FFFF732BF0A480B4930
:1063A0000B4A884207D0521A05D0037801300B708F
:1063B0000131013AF9D170477163020000000120F8
:1063C000217C020088ED00E09CA50200B82200209C
:0463D000B8220020CF
:1063D400F0B595B01C46164608460D4601F025FB5F
:1063E4001A9B0D93CDE9086400242346082205A9CD
:1063F40028460A948DF82C400C9401F033FB079B3B
:106404000293069B03939DF814308DF8114003F01A
:106414000302012A1DD1BDF81440059EC3F3C20333
:10642400C4F383148DF81030A20008230EA9284663
:1064340001F018FBC6F3952608AB0093224602AB85
:106444000EA9304600F0D6FB284601F0F2FA15B04A
:10645400F0BD022AF8D1BDF81640C3F3C203A40963
:106464008DF810300827082C264628BF08263B46FE
:1064740032460EA9284601F0F5FAA41B08AB02AA7D
:1064840031460EA8374400F019FC002CEBD1DBE7B1
:10649400014B01221A707047452300207047000009
:1064A40070B50E4D06460FCD88B06C460FC495E806
:1064B4000F00002E84E80F004FF00603084A094835
:1064C400009308BF0022694601F0C4FD08B100F042
:1064D4007FFC054B1E7008B070BD00BF9CA5020078
:1064E40095640200B82200200423002007B5044B61
:1064F4000093044A4023FFF76BFF03B05DF804FBED
:106504000D6502000523002038B50D4B0D4D00200C
:1065140018700D4804782D5DD2B21C4665B1043064
:1065240002F09CFB08B100F053FC084B1A7812B13E
:106534002378002BFBD038BD0C3002F095F9F1E73D
:1065440045230020582A0020B822002004230020DC
:1065540008B50848084A0378D35C3BB1043002F01C
:1065640019FB0020BDE80840FFF79ABF0C3002F089
:1065740017F9F6E7B8220020582A00200120FFF777
:106584008FBF000008B5FFF7F9FF0421034800F0AE
:106594009FFA034B01225A7108BD00BF8CA502006B
:1065A400CC220020037813F0040216D003F0030376
:1065B400012B03D0022B09D0012070470A68008800
:1065C4000232C0F3831002440A60F5E70B68428884
:1065D400023303EB92130B60EEE7104670470000A2
:1065E4002DE9F04F87B000230446851C0DF1070008
:1065F4000F4690468DF8073000F0DAFE45480668ED
:106604003E60D0E90132134401339B1B824600F201
:106614001C4600F5836900F21447AB421BD30022E9
:10662400B8F1000F70D0052363F3070264F38912F5
:10663400DAF80010DAF808309DF807000B4003334D
:106644000D444AF82320CAF8005000F0D5FE01207A
:1066540007B0BDE8F08F0121304600F02AFF48461C
:1066640000F03DFF384600F03AFFDAF80400DAF8AB
:1066740008B0029000EA0B0003300AEB800002A984
:10668400FFF790FF029B50BB0BEA03020AEB820266
:1066940003F1020CD2680392013303EA0B0B0AEBF9
:1066A4008B0B02F00302012ACDF808C0DBF80C10B2
:1066B40022D0022A16D08346384600F013FF10B1C8
:1066C400029BCAF804305946304600F0F2FEDAE97B
:1066D40001231344DAF8002001339B1A9DE70BEAE7
:1066E4000300C9E7BDF80E309B0903334FEA114B91
:1066F4000CEB93030293DFE7BDF80C30C3F3831371
:106704004FEA114B6344F5E7062363F3070264F38E
:106714009F528DE7182400200B4B0C48FF2210B524
:106724009A600022C3F81824C3E90022C3F8142491
:1067340083F8202401F032F9044610B9044801F02A
:10674400D9F9204610BD00BF1824002018A5020066
:10675400DCA5020030B50A4C71B10A4A0A49121B81
:10676400D20800239A4201D1002030BD31F82350D1
:10677400854202D00133F5E7034654F83300F4E7C9
:106784002CA502008CA50200B8220020094B013977
:1067940003EBC000032909D8DFE801F00A0204066C
:1067A4000420704700797047407970470020704793
:1067B400022070472CA50200034BD3E90030C31A12
:1067C40058425841704700BF182400202DE9F04377
:1067D40087B0FFF7F1FF0646002840F0FB807E4DAE
:1067E400C5F81804BFF34F8F6868AC680290204066
:1067F400033005EB800002A9FFF7D4FE029B18B119
:10680400D5F81824002A5FD004EA0302991C013346
:1068140005EB8202234005EB8303D268DB68049313
:1068240002F00303022B0392029162D1BDF80E30F1
:106834006A484FEA9318B8F1500FC14628BF4FF089
:10684400500969F38F1309F10801ADF80E3001F016
:10685400BDF80746002800F0A88001F0E6F803A977
:1068640000230822384601F0F3F8029924EA0106CD
:106874000136B600B14535D95FFA89F97EB3F6B26F
:10688400A9EB0609214003315FFA89F4B146544E5D
:1068940005EB810108234A46384601F0D9F836B1A0
:1068A40009F1080322463146384601F0D1F8029B2B
:1068B40008F1030803EB98030293D5F81834002B6E
:1068C4004BD1D5F810445BE02A689A4204D86A6038
:1068D400304607B0BDE8F08304EA030088E7404986
:1068E4003446D7E72140033108234A4605EB8101AA
:1068F400DAE7012B59D1BDF80C303848C3F38311C2
:10690400062928BF062161F3891302318900ADF8F5
:106914000C3001F05BF80746002846D001F085F8FA
:106924000023082203A9384601F092F80026BDF896
:106934000C20C2F38312B300964203F10803BCD2C5
:1069440002994A1C21400331029205EB8101042281
:10695400384601F07DF80136E9E7384601F069F878
:10696400FFF72AFF80F00100C6B2B1E7E3685B7964
:1069740023B1236839461B6820469847E3681C689E
:10698400002CF3D1384601F054F80DF107008DF8CE
:10699400074000F00DFDD5F818340BB9029B6B606D
:1069A4009DF8070000F028FDDAE7D5F8104454B943
:1069B4000C4B0D480D49C01AC008000440F00200F9
:1069C40000F06EF8CCE7236820469B689847E3689C
:1069D4001C68ECE700267BE71824002018A50200B9
:1069E400242400202CA5020054A50200E8A50200DE
:1069F4002DE9F74F284C80460F46924601A9012203
:106A040018469B46D4F80890FFF7EAFD80B3019D31
:106A14000026A91C5E4506EB010233D100211F4864
:106A240000F01CFD80F310006A1C02EA090204EB6A
:106A34008202000405EA0903033340EA1840D060E7
:106A440014F8232068F3C50204F8232034F8232023
:106A540066F3891224F8232054F8232067F39F2235
:106A640044F8232002F0F80242F0010204F8232043
:106A740094F820341BB1FFF7A9FE0028FBD103B022
:106A8400BDE8F08F09EA020204EB82025AF82630CC
:106A9400D3600136BEE700BF18240020342800204C
:106AA40000231A46FFF7A4BF07B50123019201AAE8
:106AB400FFF79EFF03B05DF804FB07B5CDE90023A3
:106AC40002236A46FFF794FF03B05DF804FB00005D
:106AD40030B50F49D1F81024002314463CB9C468DA
:106AE400237152B9C1F810042260184630BDE4681D
:106AF40025799D4206D02468F0E7D26811682160A8
:106B04001060F2E701330A2BE7D14FF0FF33ECE7D3
:106B140018240020094A38B50123D2F8104482F819
:106B240020341D4604B938BDE3685D7123682046EE
:106B34005B689847E3681C68F4E700BF18240020EA
:106B4400037A052B10B50C460FD0437A23B1084ABB
:106B54000849204600F029FD0749204600F025FD9C
:106B64002046BDE8104000F015BD002AF8D0F3E738
:106B740033A6020038A6020058A60200C38873B5E3
:106B840004460D4633B1144A00921449144A284667
:106B940000F00BFD217A05291CD0637A4BB1A08843
:106BA400FFF7F4FD0F4B104953F82020284600F05E
:106BB400FCFC227A0D4BA08853F822600021FFF7D9
:106BC400C9FD0B4903463246284602B0BDE8704071
:106BD40000F0EBBC02B070BD33A6020043A6020075
:106BE4003BA6020000A6020038A6020068A6020026
:106BF4005BA602002DE9F04385B01F460C9D0023DF
:106C040006460C46904695F80C902B732946384658
:106C1400FFF7B4FFB8F1060F09D8DFE808F0041253
:106C2400181F283340003146284600F0BEFC0022DD
:106C340029463846FFF784FF85F80C9005B0BDE877
:106C4400F08322683146284600F0AFFCEFE7D4E930
:106C540000233146284600F0A8FCE8E7A368009327
:106C64003146D4E90023284600F09FFCDFE7E368BF
:106C74000193A36800933146D4E90023284600F029
:106C840094FCD4E723690293E3680193A368009317
:106C94003146D4E90023284600F087FCC7E763693E
:106CA400039323690293E3680193A3680093314635
:106CB400D4E90023284600F078FCB8E708292DE938
:106CC400F84F80460E4617461C463AD8002593F8DE
:106CD4000C901D7319461046FFF750FFDFF884A08F
:106CE400DFF884B0AE422ED918F805205946204664
:106CF40000F05BFC0135082DF4D11849DFF86CB0C5
:106D0400204600F052FC4FF0000A564520D918F8EE
:106D14000A507E2D03D8284603F0F6FA00B92E2532
:106D24002A465946204600F040FC0AF1010ABAF10D
:106D3400080FEAD1012221463846FFF701FF84F803
:106D44000C90BDE8F88F5146204600F02EFCD1E7A8
:106D54000349204600F029FCE7E700BF2EA6020005
:106D64002CA602002AA6020024A6020030A60200D5
:106D740070B5084D084E00242B789C4201D30020A6
:106D840070BD3368012113F8340001F017FA01349F
:106D9400F2E700BFD4280020F828002070B5094D80
:106DA400094E00242B789C4204D30848BDE8704067
:106DB40000F0EEBA336813F8340001F043FA0134FA
:106DC400F0E700BFD4280020F8280020D8280020AD
:106DD4001FB50021039001AA44F20100CDE901117D
:106DE40000F004F805B05DF804FB000010B572B6BD
:106DF400FFF790FEFFF7EAFC0028FBD1104B114C83
:106E04001149E41AE408240444F00100FFF748FEA1
:106E14000E4B1B68DB0700D500BE0D4944F0020091
:106E2400FFF73EFEBFF34F8F0A490B4BCA6802F4CB
:106E3400E0621343CB60BFF34F8F00BFFDE700BF99
:106E44002CA5020054A50200C7A60200F0ED00E044
:106E5400D3A6020000ED00E00400FA05094A5378C5
:106E640091780133DBB2994208BF0023117899422B
:106E74001FBF03705078182303FB002014BF043095
:106E840000207047FC28002073B5054600240DF14E
:106E940007000E468DF8074000F08AFA0DF106004F
:106EA400FFF7DCFF90B10670094B9DF806204560A2
:106EB4005A709DF8070000F09FFA24B9054B4FF46F
:106EC4008012C3F80021204602B070BD0424F0E70C
:106ED400FC28002000E100E0024B4FF43C6043F04A
:106EE40001031847E0A6020038B50C4B0C4C4FF4D4
:106EF4000032C3F8802001254FF48033C4F84833AE
:106F0400C4F808336560FFF7E7FF064BA56000246B
:106F14001C60FFF7E1FF044B1C7038BD00E100E08A
:106F240000100140182A0020092A0020F8B51F4B40
:106F34001F491B680025C1F84051C1F84451C1F8EC
:106F44004851C1F84C51C1F80051C1F804514BB338
:106F5400D1F8044517490968641A24F07F442F4680
:106F64001A68A24209D8A41A15441A7CDE691AB117
:106F74001F74D3E905209047AEB90F4A0F4B11781F
:106F84001B788B4205D10133DBB2022B08BF0023EF
:106F9400137012780A4B43F822500A4B4FF48012B4
:106FA400C3F80021F8BD3346DAE700BF1C2A0020ED
:106FB40000100140182A0020152A0020142A00205D
:106FC4000C2A002000E100E02DE9F04FA14AA2497B
:106FD40013780978A14D994285B03CD00133DBB2D6
:106FE400022B08BF002313709D4912789D4B0F6834
:106FF40053F822003B1823F07F4300220B602B68D8
:1070040016461446944613B942B12B6006E019683B
:1070140081420ED902B12B60091A196001272B682D
:10702400DFF848A201934FF00008BEB9DFF844B27C
:1070340066E0401A0C44D968C3F800C0D3F81CE0D9
:1070440031B13A1922F07F42C3E90121DE611E46C3
:1070540001227346D7E700263746E0E73446F6694F
:107064007F4A63681268DFF810C2A068991A21F099
:107074007F41614500F2A68001442160012222740F
:107084002A680023C4E90133E361002A40F0A380A5
:107094002C60CAE75A1C9BF80210D2B291428BF8BA
:1070A400002004BF00228BF80020182202FB03B347
:1070B4001A799C68022A1CD0032A12D0012A1FD1F3
:1070C400207CE8B9D3E90312A2605A69E2609A69A4
:1070D400654BA2611B78002B0CBF0B460346636013
:1070E400BEE700222B681146002B67D142B12B600A
:1070F40006E029680A468946002A5AD100232374E7
:107104009BF800309BF801209A42C3D12B68B8F158
:10711400000F04D1019A9A4201D1002F43D0002BD1
:1071240073D0D3F800A0514D4D4BD5F804751C68AD
:10713400DFF848813E1B98F8003026F07F4603367E
:107144009BB94FF48033C5F84433C5F80433484B36
:107154004FF400324FF00109C3F880211A60C5F8DA
:107164000090FFF7B9FE88F80090B2452CBF544454
:10717400A41924F07F44C5F84045D5F80435DB1B39
:1071840023F07F43E41B033324F07F44A3420AD952
:10719400D5F80435C5F84035FFF79EFE344B4FF45F
:1071A4000032C3F80021304B00221A7005B0BDE84C
:1071B400F08F94422CD09146D2699DE71974012234
:1071C400DB6991E7D31A23F07F43834234BFC31AA8
:1071D4000023236052E721681368994213D8591A8F
:1071E4001160E26154E7091AD8691A4638B10346B6
:1071F40018688842F7D3401A18601846134621606D
:10720400E061DC6111E71346F2E7FFF76DFECAE7C0
:107214004C4511D1CB692B6073B9DFF844E00120F0
:10722400CDE90212CAF80800CEF800300E4B1870EF
:10723400FFF752FEDDE902121368D269C9F81C2077
:1072440012B11068034413602B68994218BF4FF0C1
:10725400010853E7142A0020152A00201C2A0020C4
:10726400182A00200C2A0020082A002000100140BF
:1072740000E100E0FC280020FEFF7F00092A002036
:1072840008B5FFF731FE104B00200B2218809A70CE
:107294000E4B18600E4B18700E4B18700E4B4FF4BB
:1072A4008012C021C3F8802183F814131A6002F1FC
:1072B4008042A2F56F22C2F8080583F81113074B28
:1072C400D2F804251A6008BDFC2800201C2A0020DE
:1072D400142A0020152A002000E100E0182A0020CA
:1072E400074B9B784BB132B128B10368187C20B9A5
:1072F40059745A617047072070470820704700BFCF
:10730400FC2800202DE9F7431E4FBB7805460E46A6
:107314009046A3B398B304292FD943697BB3437C24
:107324000024012B0DF107000CBF8946A1468DF8FE
:10733400074000F03DF80DF10600FFF78FFDD0B1D6
:1073440001230370104B4560D3F80435C0E9049859
:10735400C0E902369DF806307B709DF8070000F006
:107364004BF824B9094B4FF48012C3F8002120468E
:1073740003B0BDE8F0830424EFE70724F7E708240B
:10738400F5E700BFFC2800200010014000E100E008
:10739400064A92783AB130B1426922B100220274AD
:1073A4000221FFF771BD0820704700BFFC280020B0
:1073B40070B5EFF3108672B60C4A946801239CB939
:1073C40093600B4B0B4DD3F8801029401160C3F828
:1073D4008050D3F8841051604FF0FF32C3F88420FA
:1073E400047006B962B670BD0370FAE7202A002063
:1073F40000E100E0FC06FFBD084B9A6810B55AB1E5
:1074040050B9EFF3108172B6054A1C6814605C68C9
:107414005460986001B962B610BD00BF202A0020F4
:1074240000E100E001F01F024B090121914000EB53
:10743400830000F01DB801F01F0301229A404B099C
:1074440000EB8300D14300F029B84B0901F01F0180
:1074540050F82300C84000F00100704750E8002FA6
:107464000B4640E8003C9CF0000FF7D110467047F3
:1074740050E8003F43EA010240E8002C9CF0000F72
:10748400F6D11046704750E8002F02EA010340E8A5
:10749400003C9CF0000FF6D11046704750E8003FC6
:1074A40003EA010240E8002C9CF0000FF6D11046DC
:1074B400704750E8003F03EB010240E8002C9CF0C9
:1074C400000FF6D11046704750E8003FA3EB0102CD
:1074D40040E8002C9CF0000FF6D1104670470121C3
:1074E400FFF7C6BF0021FFF7CEBF10B590B1D0E9BA
:1074F400012301689B1ADBB20A60013BDBB2FF2B5C
:10750400026802D10020107110BD11684C1C146077
:107514000B70F2E70E20F7E737B5054600240DF1AE
:1075240007008DF80740FFF743FF2A686B6811686E
:1075340099420ED9481E106011F8014CEB68298A53
:1075440001FB0434AB6811791B1ADBB2994238BFD2
:1075540013719DF80700FFF74FFF204603B030BDBD
:1075640037B5054600230DF107000C468DF80730AA
:10757400FFF71EFF2A681368591C1160E968641A32
:10758400298AB4FBF1F41C709DF80700FFF734FF5F
:1075940003B030BD826810B504462AB1436901685E
:1075A400006998470023A36010BD0EB403B5039986
:1075B40021B104AB01AA019300F074F802B05DF8A4
:1075C40004EB03B070470A2938B504460D4602D1CE
:1075D4000D21FFF7F8FFA3682268591CA160D55458
:1075E400D4E901329A4204D32046BDE83840FFF77B
:1075F400D1BF38BD2DE9F84F9946DDE90A43174656
:10760400824688460A460126BA420FD24E4538BF02
:107614004E4613F0010B01D164B900240125B9F1E0
:10762400010F1AD909F1FF397D43F8E7B2FBF7F2EC
:107634000136E9E79B070ED5B9F1000F0CBF3025E1
:107644002025A642EAD2013C29465046FFF7BBFF5B
:10765400002CF6D1E1E72025F3E7B8FBF5F39F42D0
:10766400E2D9DFF83C90B8FBF5F3504619F8031063
:1076740005FB1388FFF7A7FFB5FBF7F3BD4207D25D
:10768400BBF1000F02D00CB1A64203D3BDE8F88FC2
:107694001D46E8E720215046013CFFF794FFF2E73E
:1076A400E6A602002DE9F74F05461746884600294D
:1076B40000F0308118F8011B49B92B7B002B00F036
:1076C4002981284603B0BDE8F04FFFF763BF2529A1
:1076D40040F0C080002698F800302D2B424608F177
:1076E400010823D0302B24D02B2B25D000242A2B87
:1076F40002F1010123D13B681A1D1B683A601C4446
:107704000A4613782E2B26D101324FF00009104679
:1077140010F8011BA1F1300CBCF1090F1DD80A238C
:1077240003FB0913A3F130090246F0E746F0010612
:10773400D1E746F00206CEE746F00406CBE711F89F
:10774400013CA3F130000928DBD80A2202FB0434EF
:10775400303C0A46CBE74FF0000912F8011B01F058
:10776400FB0068289046F8D069290ED04AD85829D9
:1077740064D006D825296DD098F80030002B99D113
:107784009BE7632962D06429F6D13A68D2F800A055
:10779400111D8AEAEA723960A2EBEA724FF0010B1A
:1077A400092A5BDCCB4538BFCB462CB1BAF1000FBC
:1077B40001DB720700D5013CB30702D5B9F1000F14
:1077C40004D0F00702D4002C4ED10024BAF1000FEB
:1077D40052DACAF1000A2D212846FFF7F4FE06F01A
:1077E4000302022A05D1B9F1000F02D1002C47D1BE
:1077F4000024CDE900464B460A2251462846FFF7AD
:10780400F9FEB9E773294CD014D87029B4D13B6878
:107814001A1D3A60302128461C68FFF7D4FE7821EF
:107824002846FFF7D0FE00220823CDE90032214686
:107834001022E3E775292BD078299DD139680A1DD8
:107844003A60CDE900464B46102228E03B681A1DF9
:1078540019783A602846FFF7B6FE8DE70A230BF144
:10786400010BB2FBF3F29BE7A345AFD220212846DC
:10787400013CFFF7A8FEA6E77107B0D52B21ABE7C3
:10788400A345B6D230212846013CFFF79CFEADE764
:107894003968CDE900460A1D3A604B460A22096858
:1078A400ACE73B681A1D3A6016F00106D3F800A055
:1078B40020D1BAF1000F03D0504602F0D1FD0646A4
:1078C400B44200D9C4B90AF1FF3A1EE02846013691
:1078D400FFF779FE1AF806100029F7D1A642BFF483
:1078E4004BAF002C3FF448AF20212846013CFFF762
:1078F4006AFEF3E70026EDE720212846013CFFF766
:1079040062FEDDE72846FFF75EFE1AF8011F002934
:10791400F8D131E703B0BDE8F08F2DE9F047B0F8B6
:1079240006904479D2F800A09DF8208009FB04F465
:10793400043C06460AEB0300A0420F4688BFA4EBB2
:10794400030A191DC2F800A0B1FBF9F509FB1511D2
:107954004DB9A9EB0104544528BF5446BAF1000FB0
:1079640004D1BDE8F0873668013DF1E704317B19A5
:1079740070182246B8F1000F0ED001461846AAEB43
:10798400040A02F011FDD145254436684C464FF0F7
:10799400000128BF5446E1E71946F0E7FFF7A5BD0B
:1079A400F8B546790146721E0546002393422D68B8
:1079B40003D30024A64202D8F8BD0133F6E70F68CA
:1079C4002846FFF7CDFD01343946F3E72DE9F843A6
:1079D400068ACD1C0746FFF79FFD043E3544044646
:1079E400B5FBF6F5F0B14FF48073EDB28380C68039
:1079F400013D076081464FF00008A84512D2384681
:107A0400FFF78AFD064648B163790133637108F1D3
:107A14000108C9F8000007608146EEE72046FFF739
:107A2400BFFF34462046BDE8F88301210430FFF748
:107A340040BD10B5012104460430FFF745FD10F0A8
:107A4400FF0F04D12046BDE81040FFF7A9BF10BDC9
:107A54001FB503920022009203AAFFF75EFF05B050
:107A64005DF804FB1FB503920122009203AAFFF7FD
:107A740054FF05B05DF804FB41DF7047064B10B5B9
:107A840000241C70054B1C60BFF35F8F044905483C
:107A940000F039F8204610BD342A0020382A00208E
:107AA400F8A602002C2A002007B500230DF10700D8
:107AB4008DF80730FFF77CFCF1EE103A23F09F03BA
:107AC400E1EE103ABFF35F8F094B4022C3F88421E3
:107AD4009DF80700FFF790FC02F058FA20B1FFF779
:107AE400CBFF03B05DF804FB20BF40BF20BFF8E725
:107AF40000E100E0836800225A609A60C3E904222E
:107B0400DA601A6070470B684A684360934208BFA2
:107B14000023016008BF43607047436843B10268B3
:107B2400916852680B449342436004BF002343604E
:107B34007047000010B50D49A1F59472914201D827
:107B440000200FE08B1ADB1003EBD3735B1002EB06
:107B5400C30452F83330834205D802D204F1080238
:107B6400ECE7606810BD2146E8E700BF48A80200C2
:107B740008B5FFF7DFFF024B002808BF184608BD11
:107B84000DA70200BFF34F8F0549064BCA6802F4E4
:107B9400E0621343CB60BFF34F8F00BFFDE700BF2C
:107BA40000ED00E00400FA050C4B1B78062B10D105
:107BB4000B4B1B681A070CD10A4B186800F0F00332
:107BC400302B08D000F0E000A0F1400358425841A7
:107BD4007047002070470120704700BFE00F00F09D
:107BE400E40F00F0E80F00F0094B1B78062B0CD1D2
:107BF400084B1B681A0708D1074B186800F0F000FF
:107C0400A0F130035842584170470020704700BF2C
:107C1400E00F00F0E40F00F0E80F00F008B5FFF704
:107C2400C3FF28B1894B8A4A1B68C3F3042313603A
:107C3400FFF7DAFF10B1874B874A1A60FFF7B4FFEA
:107C440028B1864B864A1B68C3F342331360FFF79F
:107C5400CBFF20B1834AD36823F08073D360FFF74E
:107C6400A3FF40B14FF080430022C3F80C21C3F8B6
:107C74001021C3F83825FFF7B7FF10B17A4B032260
:107C84001A60FFF7B1FF40B1784B05221A60012258
:107C94009A6700229A603F225A60754B1B78062B24
:107CA40050D1744B1B6818074CD1734B1B6803F0FD
:107CB400F003502B46D14FF08052704BD2F804148D
:107CC400C3F82015D2F80814C3F82415D2F80C14FC
:107CD400C3F82815D2F81014C3F82C15D2F81414CC
:107CE400C3F83015D2F81814C3F83415D2F81C149C
:107CF400C3F84015D2F82014C3F84415D2F824145C
:107D0400C3F84815D2F82814C3F84C15D2F82C142B
:107D1400C3F85015D2F83014C3F85415D2F83414FB
:107D2400C3F86015D2F83814C3F86415D2F83C14BB
:107D3400C3F86815D2F84014C3F86C15D2F844247B
:107D4400C3F87025FFF730FF28B14D4B4D4A1B682F
:107D540003F04F031360FFF727FF48B14FF0804350
:107D6400D3F80024D10744BF6FF00102C3F8002404
:107D7400454B1B68062B08D1444B1B68062B01BFDF
:107D8400434A136843F480631360424AD2F888304C
:107D940043F47003C2F88830BFF34F8FBFF36F8F83
:107DA4004FF01023D3F80C22D2071ED53A4B0122F0
:107DB400C3F80425D3F80024002AFBD04FF0102286
:107DC400D2F80C3223F00103C2F80C32324B1A46BB
:107DD400D3F800140029FBD00021C3F80415D2F80D
:107DE4000034002BFBD0FFF7CDFED3F80022002A8D
:107DF40003DBD3F80432002B23DA274B0122C3F828
:107E04000425D3F80024002AFBD04FF010221521BA
:107E1400C2F80012D3F80024002AFBD04FF010233C
:107E24001522C3F804221C4B1A46D3F80014002967
:107E3400FBD00021C3F80415D2F80034002BFBD08A
:107E4400D1E7164B164A1A6008BD00BF2403001080
:107E54004035014074C007400DF0ADBA4402001033
:107E64003C050040F0ED00E0A00500401056004045
:107E7400E00F00F0E40F00F0E80F00F000C0004055
:107E840058020010E40E00403001001034010010CC
:107E94003C17004000ED00E000E00140D422002047
:107EA4000090D003044B1A5C012393404FF0A0428E
:107EB400C2F80C35704700BF02AC0200044B1A5CD8
:107EC400012393404FF0A042C2F80835704700BF29
:107ED40002AC020038B5074C051E04F1080318BFB4
:107EE4001C4623682BB11A6822605B6828469847B1
:107EF400F7E738BD442A002020B9054B01225A7007
:107F0400FFF7E8BF012802D1014A9070F8E77047F3
:107F14003C2A002020B9034B01225A70FFF7DABF34
:107F2400704700BF3C2A002038B50B4C237883B936
:107F34000A486360A3602361E36000F0C7F8054664
:107F440002F024F808B900F0CDF801232370284684
:107F540038BD8525FBE700BF3C2A0020FD7E0200DA
:107F640037B50B4C00230DF107008DF80730FFF7F0
:107F74001FFAE368013BE360E56815B900F0C4F853
:107F8400A5709DF80700FFF737FA03B030BD00BFB6
:107F94003C2A0020012813B509D018B103281CD0AD
:107FA40002B010BD0F4B0122C3F88020F8E70E4C3D
:107FB40000230DF107008DF80730FFF7F9F9237856
:107FC4000BB9FFF7B1FFE3689DF807000133E360E5
:107FD4000123A370FFF710FAE2E700F083F8FFF73C
:107FE400BFFFDDE700E100E03C2A00201FB5037875
:107FF4008DF800304368019383688DF80830C368B6
:108004000393054A054B684653F8213052F8211072
:10801400984705B05DF804FB502A0020542A00203C
:108024001FB503788DF800304368019383688DF899
:108034000830C3680393054A054B684653F821305A
:1080440052F82110984705B05DF804FB502A00202F
:10805400542A0020F0B5184B077891F81DE043F836
:108064002720164B16460A6943F82720144B03F8B9
:1080740007E00C4684460FCC89B06D460FC594E8E2
:108084000F0085E80F000497BEF1000F0AD0002E00
:108094000C4A694608BF32460CF1040000F0B8FCF3
:1080A40009B0F0BD002E084A694608BF32460CF1FB
:1080B4000C0000F0BBFAF3E7542A0020502A0020F9
:1080C400582A0020F17F020025800200044A137917
:1080D40023B90121106091801846704785207047AC
:1080E4005C2A0020074B1A68D2075FBFC02283F8BE
:1080F400002301221A604FF080430122C3F818259F
:10810400704700BF00E100E0044B01221A604FF009
:108114008042D2F81834DB03FBD470470C000040D3
:10812400154B07B51A687AB100221A601B680093D0
:10813400009B4FF080430122C3F808230F4B58796A
:1081440010B95A711B6898470D4B1A6882B1002206
:108154001A601B680193019B4FF080430222C3F80D
:108164000823064B1B68012003B05DF804EB184795
:1081740003B05DF804FB00BF000100405C2A00204E
:108184000401004000F1804000F5C040002382B0AB
:10819400036003680193019B02B07047800000F103
:1081A400A040D0F8003723F44033C0F80037D0F8AB
:1081B400003743EA0141C0F80017704738B51F4C37
:1081C400251895F93020072A17DD224492F8481023
:1081D400890903290CD14FF0A043D3F81035C340CB
:1081E40013F0010F08BF0221BDE83840FFF7D6BFE6
:1081F400012914BF03210221F6E7D3B2072B1CD8AF
:10820400930003F1804303F5C043D3F8100540F015
:108214000100C3F8100502F14000800080B2FFF7AE
:10822400B1FF51B195F9303054F823302BB101230B
:1082340003FA02F2024BC3F8042338BD642A002077
:10824400006000400E4B034493F93020072A02DDFE
:108254000021FFF7A3BFD3B2072B10D8930003F17B
:10826400804303F5C043D3F8101521F00101C3F88E
:108274001015012303FA02F2024BC3F808237047D6
:10828400642A0020006000402DE9F04F85B00024EE
:108294005A4D01944FF48072012102F1804303F599
:1082A400C04390B21B68012B06D1D5F804330B42AE
:1082B40002D0FFF767FF0C430432B2F5907F4FEA18
:1082C4004101EAD14E4B1B68012B0AD14FF4BE7019
:1082D400FFF758FF4FF0A04344F00044D3F81035A3
:1082E400019314F0FF0F1AD0464F002501263442A3
:1082F40010D0AB0003F1804303F5C043D3F810055D
:10830400D3F8101557F8253023B1C1F30141C0F358
:10831400042098470135082D4FEA4606E7D1002C82
:1083240064DA00224FF0FF33CDE90223354D0127F3
:108334004FF0000A344E54464FF0A04816F9012B72
:10834400531C46D0D2B222F0C0094FEAD90104A886
:10835400084402F0070310F804CC07FA03F31CEAFC
:10836400030F36D005EB090C92099CF930C055F87F
:108374002CB0BBF1000F0AD1032A2AD10DF1080E4B
:108384001EF801C04CEA030C0EF801C001E0032AF8
:10839400F4D009F5E07110F80C0C58F821101842CB
:1083A400C1F3014105D0022913D1032A0BD111468F
:1083B40004E003290DD1032A05D102214846FFF721
:1083C400EDFE0134E4B2BBF1000F02D01146484681
:1083D400D8470AF1010ABAF1040FAFD134B14FF012
:1083E400A043019AD3F81035934202D105B0BDE8F9
:1083F400F08F0193029B03939AE700BF0060004053
:108404007C610040642A0020B42A0020014B1B68D0
:10841400184700BFC02A00200E4B984237B50D46BE
:1084240002D0002003B030BD00230DF107008DF809
:108434000730FEF7BDFF084B1C7914B901221D60FB
:108444001A719DF80700FEF7D7FF002CE9D0112020
:10845400E8E700BF00200040C02A0020034B9842F8
:1084640001BF034B00221A601A71704700200040BC
:10847400C02A00200023435082B043580193019B3B
:1084840002B070470A4610B54FF48E71FFF7F2FF41
:10849400136A9168C95C136A01331362C0F81C152E
:1084A40010BD8B690A4610B54FF4847123B9FFF7E8
:1084B400E1FFD0F8183510BDFFF7DCFF536AD1682F
:1084C400D0F81805C854536A01335362F3E7000027
:1084D4001FB501238DF80030044BCDE90110D3E919
:1084E40000126846904705B05DF804FBC82A0020D6
:1084F40030B54C4AD2F8043313F4007F85B01546E6
:108504004FD0D2F82431002B4BD04FF49271104647
:10851400FFF7B0FF4FF40173C2F80833424B93F8EE
:10852400291009B9012151603E4902228DF8002029
:10853400D1F88024C1F8802403929A690292DA68FF
:1085440001920022C3E906226846D3E9001290474B
:108554003448D0F81C315BB133490A6A4B699A42FA
:108564000A464BD291F82830002B47D1FFF78AFFF7
:108574002C4AD2F8443193B14FF4A2711046FFF75C
:1085840079FF294B93F8291009B1012111609A69E7
:108594002AB100229A61586AD968FFF799FF05B099
:1085A40030BDD5F804335B07D2D5D5F80831002B9C
:1085B400CED01D4C1B482146FFF773FF636AA269A6
:1085C4009A422346C4D1E269E1684AB12369E3606F
:1085D4000023606AA261E3616362FFF779FFB7E792
:1085E40094F829200AB901226A600E4A4FF40170F6
:1085F400C2F8080300229A61586AEEE74FF48E71BC
:108604000848FFF737FF51690029B1D000230291D0
:1086140091688DF80030019153616846D2E90013E6
:108624009847A5E700200040C82A00202DE9F84318
:10863400564F047991462C2202FB0472064692F8A6
:108644002A200D46002A40F09A8051490068FFF71D
:10865400E3FE8046002840F0958029683368481C72
:108664000BD04FF0A04001228A40C0F8082501F544
:10867400E0724FF0030C40F822C06868421C1FBF30
:1086840000F5E0724FF0A04C4FF0000E4CF822E0E1
:10869400AA6995F814C0C3F824256A7DBCF1010FBA
:1086A4004CEA0202C3F86C25C3F81405C3F80C1590
:1086B4001DD1AA68511C1FBF02F5E0714FF0A04004
:1086C4004FF0000C40F821C0E968481C0BD04FF073
:1086D400A04C01208840CCF8080501F5E0704FF06B
:1086E400030E4CF820E0C3F80815C3F810252C231A
:1086F4006343FA18C2F804902A69FA50B9F1000FDA
:108704002AD04FF48E7130682D7FFFF7B3FE3068A6
:108714004FF4A271FFF7AEFE32681E4BC2F8043369
:10872400120B51B20029A8BF01F160404FEA451372
:10873400BABF194802F00F0500F56140DBB2B4BFBF
:10874400435580F8003302F01F02012303FA02F2BA
:108754004909124B43F8212033680422C3F8002549
:108764002C2303FB04730022C3E9062283F8292087
:108774005A61012283F82A204046BDE8F8834FF06D
:108784000808F9E74FF01108F6E700BFC82A0020EF
:10879400F58402008000020014ED00E000E100E036
:1087A400F8B5047900682D4D0023C0F800352C235A
:1087B40003FB04535B6873B1294BC0F80833020B05
:1087C40053B201215B0902F01F0201FA02F22033C5
:1087D400244941F82320D0F80C65D0F81415D0F8BA
:1087E4000835D0F810254FF0FF37BE42C0F8147595
:1087F40018BF06F5E076C0F80C75C0F80875C0F827
:1088040010751EBF4FF0A0474FF0020C47F826C06A
:108814004E1C1FBF4FF0A04601F5E071022746F839
:108824002170511C1FBF4FF0A04102F5E0720226D7
:1088340041F822605A1C1FBF03F5E0734FF0A042B9
:10884400022142F82310FFF709FE2C2303FB0454F2
:10885400002384F82A306360F8BD00BFC82A0020D2
:108864008402020000E100E02DE9F047214F06797F
:108874004FF02C0909FB067480466569002D37D139
:108884006261A16025624FF48E71006884F82850FB
:10889400FFF7F0FDD8F80000012383602146FFF7BD
:1088A400F1FD6368A14693B9D8F800A0226A636910
:1088B4009A4212D3D8F80030D3F81C21002AFBD0F6
:1088C4000122DA602C2303FB067600237361284619
:1088D400BDE8F08794F8283043B9DAF81C31002B4E
:1088E400F8D049465046FFF7CDFDDFE70F25E9E70D
:1088F4001125ECE7C82A00200023435082B04358D6
:108904000193019B02B070471FB501238DF800301D
:10891400044BCDE90110D3E900126846904705B035
:108924005DF804FBF42A00207FB5374AD2F82461AD
:10893400002E48D010464FF49271FFF7DDFF02235A
:108944008DF80030D2F88034C2F880340393D2F822
:108954003C3502932D4BDA6801920022C3E90622CA
:108964006846D3E900129047274AD2F844317BB1D4
:108974004FF4A2711046FFF7BFFF244B996939B138
:108984000021C3E90611D968D2F83C05FFF7BCFF02
:108994001D4AD2F82031A3B14FF490711046FFF76D
:1089A400ABFF1A4B596961B1D2F84C150291002200
:1089B40099688DF8002001915A616846D3E9001244
:1089C400904704B070BDD2F81031002BCCD04FF4D6
:1089D40088711046FFF790FF0C4BD2F83C0599695B
:1089E4008842C1D1DC69D96864B1D2F8005225F05B
:1089F4002005C2F800521A699C61DA60DE61FFF753
:108A040083FFB1E79C61FAE700200040F42A0020CC
:108A14002DE9F8435A4F06799146242202FB067247
:108A2400044692F820200D46002A40F0A2805549C1
:108A34000068FFF7F1FC8046002840F09D8029681B
:108A44002368481C0BD04FF0A04001228A40C0F894
:108A5400082501F5E0724FF0030C40F822C0686865
:108A6400421C1FBF00F5E0724FF0A04C4FF0000E07
:108A74004CF822E0AA6995F814C0C3F824256A7D4D
:108A8400BCF1010F4CEA0202C3F86C25C3F80C15C3
:108A9400C3F814051DD1AA68511C1FBF02F5E0716B
:108AA4004FF0A0404FF0000C40F821C0E968481C8A
:108AB4000BD04FF0A04C01208840CCF8080501F5FC
:108AC400E0704FF0030E4CF820E0C3F80815C3F82B
:108AD400102524237343FA18C2F804902A69FA5023
:108AE400B9F1000F34D04FF4887120682D7FFFF75F
:108AF40003FF4FF490712068FFF7FEFE4FF492716C
:108B04002068FFF7F9FE20684FF4A271FFF7F4FE26
:108B140022681D4BC2F80433120B51B20029A8BFBE
:108B240001F160404FEA4513BABF184802F00F053F
:108B340000F56140DBB2B4BF435580F8003302F066
:108B44001F02012303FA02F24909114B43F82120C1
:108B540023680822C3F80025242303FB067300229C
:108B6400C3E906225A61012283F820204046BDE869
:108B7400F8834FF00808F9E74FF01108F6E700BF53
:108B8400F42A00202D8902001003020014ED00E0F5
:108B940000E100E0F8B5047900682D4D0023C0F829
:108BA4000035242303FB04535B6873B1294BC0F8DD
:108BB4000833020B53B201215B0902F01F0201FAD0
:108BC40002F22033244941F82320D0F80C65D0F870
:108BD4001415D0F80835D0F810254FF0FF37BE42F1
:108BE400C0F80C7518BF06F5E076C0F81475C0F827
:108BF4000875C0F810751EBF4FF0A0474FF0020C67
:108C040047F826C04E1C1FBF4FF0A04601F5E07187
:108C1400022746F82170511C1FBF4FF0A04102F5F6
:108C2400E072022641F822605A1C1FBF03F5E0736C
:108C34004FF0A042022142F82310FFF70FFC242337
:108C440003FB0454002384F820306360F8BD00BFA4
:108C5400F42A00201003020000E100E001F0604368
:108C6400B3F1005F2DE9F041074632D11B4B067981
:108C7400242505FB063598466C6964BB6A61A960C6
:108C840000684FF49071FFF737FE4FF4AC71386809
:108C9400FFF732FE3B686A69A968C3F84415C3F854
:108CA400482501229A606A6862B9D3F82021D3F872
:108CB400584152B9002CF8D00F24242303FB068614
:108CC400002373612046BDE8F081002C18BF0F24F7
:108CD400F3E71024F6E71124F4E700BFF42A002098
:108CE40072DF704773DF704776DF70477ADF704753
:108CF4007CDF70477FDF70478FDF7047B1DF7047DD
:108D0400FEF766B808B5064B01211878FFF7EAFFAD
:108D140008B1FEF75DF80020BDE80840FFF7C2B8CF
:108D2400E82200200388212B13B5044652D024D80E
:108D3400112B2DD0132B45D0102B41D12D4B2E4868
:108D44002E49C01AC008000440F00300FDF7A8FE35
:108D54000120FFF7A7F80020FFF7B0F8284BA188FF
:108D64002848198000F0A8FF08B1FEF731F8FDF794
:108D7400FFFF28B3FEF72CF822E0522B32D0562BFB
:108D840001D03B2B1CD11321A088FFF7ADFFF0E7E6
:108D9400184B19481C49C01AC008000440F00300CD
:108DA400FDF77EFE0120FFF789F8154B4FF6FF72A1
:108DB4001A80FDF7F3FF08B1FEF70AF8FFF7A2FFE8
:108DC40002B010BD0E4800231A4685210088FFF723
:108DD40091FFCEE7002301A98088ADF80430FFF7A6
:108DE4008BFFC6E7064800231A4619460088FFF79A
:108DF40085FFBEE72CA5020054A5020028AC0200A2
:108E0400EA220020842B002032AC020008B503784B
:108E14004BB9054B3B211888FFF766FF18B1BDE835
:108E24000840FDF7D5BF08BDEA22002010B50A4B63
:108E34000A4CE41AE408240444F0030402203AB17E
:108E4400FFF730F806492046BDE81040FDF728BE7C
:108E5400FFF734F80349F6E72CA5020054A50200F5
:108E64003FAC020050AC0200FDF7B2BF30B54FF08A
:108E740080430122A7B01A60D3F80021002AFBD056
:108E84004FF400410020FDF747FC08B1FDF7A0FFB7
:108E9400FDF778FBFEF7F4F908B1FDF799FFFEF74B
:108EA400EDFD08B1FDF794FF01F032F808B1FDF7CC
:108EB4008FFF002317A90120179301F0B1F808B11F
:108EC400FDF786FF17A801F05DF908B1FDF780FFF3
:108ED400112363488DF8203001F0C2FA604982B250
:108EE40008A8FFF705FF08B1FDF772FF082200216B
:108EF40017A801F082FA5B4A4FF0C87317A8CDE9AE
:108F04001723FFF7F3FE08B1FDF762FF002156486F
:108F140000F0CAFD08B1FDF75BFF0023089317A911
:108F2400524B5348179300F0B5FE08B1FDF750FFBC
:108F3400504B5148089308A900F032FF08B1FDF7DF
:108F440047FF41F22353ADF804304B4B4B4C9B7C11
:108F54008DF806303C22002108A801F04EFA0223C5
:108F64008DF820303C2240F20163002117A8ADF8AF
:108F7400223001F042FA22460123ADF86C3052F857
:108F8400041B01AB08A81C9300F006F908B1FDF717
:108F94001FFF3B4AA16817A800F0FEF808B1FDF7CF
:108FA40017FF1822002102A801F027FA002301224A
:108FB400ADF8143003934FF480738DF80820ADF8A6
:108FC4001C3002AA40232D492E480493FFF788FE43
:108FD40008B1FDF7FDFE1C22002117A801F00DFACF
:108FE40000234FF42022CDE91732ADF86A304FF454
:108FF40020328DF86C30244B19921C930322234B9E
:109004008DF8682017A81D9300F08EFB08B1FDF7BA
:10901400DFFE1F4B1F4C2049E41AE408240444F0EB
:1090240003042046FDF73CFDFFF76CFE4FF400708F
:1090340001F070F90546FF2001F06CF9174902466A
:109044002046FDF731FD2A4615492046FDF72CFD43
:10905400FDF7BCFB0028FBD1FEF726FDF8E700BFB7
:1090640062AC02005000A000582B0020058D0200C5
:10907400842B0020318E02006C2B0020D82200208B
:10908400E4220020E8220020118E02006D8E0200EE
:109094002CA5020054A5020070AC020088AC0200AA
:1090A40089AC02006DDF704779DF70477DDF704760
:1090B40064DF70472DE9F04F85B000250E9CBDF8A4
:1090C4003CB027880191804691469A462E46B8F8CE
:1090D4000020B2420CDC3DB12288013AD21B92B28C
:1090E400FF2A3BD80AF80720002005B0BDE8F08F1E
:1090F400D8F8042052F82600039000220DF10B0149
:1091040003A8FFF7D5FF0028EFD19DF80B204A45AF
:1091140022D12288002D14BF0020022002EB090175
:10912400014459451ADC45B9013292B2019B2280AF
:109134000AF8023022880132228022880DF10B01C4
:10914400524403A8FFF7B4FF0028CED121889DF82C
:109154000B200A44228001250136B8E70C20C4E71D
:109164002DE9F341089CBDF824501746CDE900458C
:10917400022206469846FFF79DFF50B94346102247
:1091840039463046CDE9084502B0BDE8F041FFF765
:1091940091BF02B0BDE8F0812DE9F04F002316889D
:1091A400138090F82D3085B007460D46144653B30E
:1091B400082E01D80C2027E102A8FFF773FF00282E
:1091C40040F0228123880822EA54238801339BB289
:1091D4001B222380EA542088013080B2208006229A
:1091E4000DF10901284401F0DFF823889DF80820D7
:1091F40006339BB212F0FE0218BF01222380EA5408
:10920400238801332380BB78FBB123880433B34222
:10921400D0D802A8FFF748FF002840F0F580238843
:109224000322EA54238801339BB219222380EA548F
:109234002388BDF8082001339BB2E9182380EA543F
:10924400120A4A70238802332380FA789AB1238859
:10925400D91CB142AED80221E954238801339BB210
:1092640001212380E95423880B449BB22380EA54D0
:1092740023880B4423807A68AAB12388D91CB1427D
:1092840098D8022192F90020E954238801339BB233
:109294000A212380E954238801339BB22380EA54B2
:1092A4002388013323803B89002B40F0A1803B8A33
:1092B4005BB1CDE900462B460722032107F11000DC
:1092C400FFF74EFF002840F09F803B8B5BB1CDE958
:1092D40000462B461522142107F11800FFF740FF22
:1092E400002840F091803A6A002A40F09080D7F834
:1092F4002480B8F1000F30D0B8F804302188981CCD
:109304008A1C0244B2423FF655AFFE283FF652AFE4
:1093140003336B54238801339BB2FF222380EA5426
:10932400238801339BB22380B8F80020EA54E9185B
:10933400120A4A702088023080B22080B8F80420D3
:109344005AB1D8F8081000296BD0284401F02CF841
:109354002388B8F804201344238097F82C30002B7A
:1093640040F09A80387800284ED03B88012B58D0A2
:10937400228802F1020CB4453FF61CAF012805D146
:109384007B78023313449E42FFF414AF023EB61AB4
:10939400B6B202A905EB0C00ADF80860FFF786FE33
:1093A40090BB3978BDF80820022900F0BA807B7898
:1093B400934202D3B24240F2B280012940F0B3801A
:1093C4009BB29E42C0F0AF80ADF808300821BDF8D2
:1093D4000830FE2B3FF6EEAE22880133AB542288D0
:1093E400013292B22280A9542288134423800BE0D4
:1093F400CDE900462B460622022107F10800FFF7BB
:10940400AFFE00283FF453AF05B0BDE8F08FB4F8C9
:1094140000C00CF10603B3423FF6CCAE1188052917
:1094240001D80720F0E76FF4486E01EB0E039BB2FE
:109434004FF27D3E7345F4D95388052BF1D96FF46F
:109444004860181880B27045EBD94FF6FF7081421E
:1094540003D0834201D09942E3D8052305F80C30A8
:10946400238801339BB212212380E95423880133DA
:109474009BB223801188E954E818090A41702388B3
:1094840002339BB223805288EA54E918120A4A70C4
:109494002388023323802AE7BB6A002BC1D04FF014
:1094A40000094FF00C0A4FF0160B97F82C305FFAB6
:1094B40089F293427FF656AFB96A0AFB02F201EBD6
:1094C4000208B8F80430981CFE283FF673AE2088D2
:1094D40003332B54238801339BB2238005F803B054
:1094E400238801339BB223808A5AEA54E918120A6A
:1094F4004A702088023080B22080B8F804205AB123
:10950400D8F8081000298CD0284400F04DFF238897
:10951400B8F804201344238009F10109C5E709219F
:1095240055E7B242FBD9ADF808604FE775DF7047E5
:1095340076DF70477ADF70477BDF7047034B1A880A
:1095440082420CBF18460020704700BFAC2B00209D
:10955400024B9B6903B11847704700BF902B002052
:1095640073B586B23046FFF7E9FF044670B1164D75
:10957400027A2B7B9A420BD200F10A013046FFF7A4
:10958400D5FFE8B1112801D0FFF7E2FF02B070BDAA
:10959400002303722B7C43B13B213046FFF7C8FF05
:1095A40030F0080301D0FFF7D3FF6B69002BEDD037
:1095B40000228DF80420ADF8066001A89847E5E77D
:1095C400237A01332372E1E7902B002013B50B4675
:1095D400497A0F4C024669B9D4E901101C7A002C6F
:1095E40018BF01465868FDF78DFE08B1FFF7B0FFBC
:1095F40002B010BD002119726369002BF8D001215B
:10960400ADF806008DF8041001A89847F0E700BFF4
:10961400902B00204B8802889A4213D842889A42A1
:1096240010D380888A8840F2F313984294BF031AB7
:10963400C31A934206D800F2F310904234BF0020BC
:1096440001207047002070470388112B70B5014634
:1096540048D002D8102B1ED070BD122B52D0502BE4
:10966400FAD12F4BC288DB899A42F5D1038A022BA7
:10967400F2D186883046FFF761FF05460028EBD01B
:1096840001F1120000F021F930BB6868FDF780FE9B
:109694000028E1D009E0C37B012BDDD14FF6FF7038
:1096A400FFF74CFF054620B90420BDE87040FFF7E2
:1096B4004FBF1C4A8E880680002303721368C5F8C6
:1096C4000A300A30536843601031FFF7A3FF144B8C
:1096D4006872DB89002BBFD129463046BDE8704053
:1096E400FFF774BF8088FFF729FF04460028B3D032
:1096F4004068FDF74DFE08B1FFF72AFF4FF6FF73F0
:109704002380A9E786883046FFF718FF054600281E
:10971400A2D008310A30FFF77DFF6872DCE700BF92
:10972400902B0020C02B0020F8B5064648B3054610
:109734000FCD154F3C460FC495E8070084E8070099
:109744003068124C3C60B0B1FFF7F4FEC0B9326827
:1097540013682360536863600D480E4A4FF6FF7325
:1097640003800D4B40F8043F0021FDF7B9FD0028AC
:1097740018BF032004E02046FFF7DEFE0028EBD0EC
:10978400F8BD0E20FCE700BF902B0020C02B00206A
:10979400AC2B002065950200C82B002073B5019105
:1097A400019C06466CB100252C46294601A8FDF70C
:1097B4004CFE18B106EB440301349D800135142D91
:1097C400F3D13046346002B070BD00002DE9F0479B
:1097D40003888488112B8CB006463CD01A2B3FD0CA
:1097E400102B17D1274DAB68DB430093696868469B
:1097F400FDF754FE009901A8FFF7D0FF0DF1080909
:109804004FF00008019B984507D3132C13D904206B
:10981400FDF7DEFA0CB0BDE8F08739F802AB00279B
:109824000137514605EB8700FDF705FE1D2FF7D1E3
:1098340008F10108E6E721461348FDF7F3FD214648
:109844001248FDF7EFFDF37B012BE3D010482146CE
:10985400FDF7E8FDDEE70C482146FDF7ECFDD9E70E
:10986400057A0C482D09012D214606D9FDF7DAFDAC
:10987400022D21460848F0D0EAE7FDF7DCFD214639
:109884000548EAE7E82B0020F02B0020EC2B002011
:10989400F42B0020F82B0020FC2B0020AADF7047BB
:1098A400002301380B70042806D8DFE800F0030613
:1098B400080A0C0011230B7070472123FBE73123A6
:1098C400F9E71223F7E72223F5E7007800F0010017
:1098D4007047F0B58B7891B0002B0C4608BF01237C
:1098E4008DF80E3005460B88ADF80C300021164675
:1098F4006846032200F081FD6946607CFFF7D0FFD3
:109904000DF10101A07CFFF7CBFF9DF80230E27B53
:1099140062F3C303227C62F30413227B62F3000329
:10992400227D002A14BF0222012262F34203002195
:109934001C2209A88DF8023000F05FFD637B13F050
:10994400300F15D002AF03220021384600F055FD38
:109954000DF10901E07CFFF7A3FF11238DF8083016
:109964009DF80A300E97012262F342038DF80A3003
:10997400637B8DF824301422A37B8DF825300021DD
:1099840004A800F03AFD03AB0493A388ADF81C309F
:10999400A368CDF814D01BB1E288ADF81820089361
:1099A400A369002B2ED001AF03220021384600F01A
:1099B40024FDA3691A88ADF82C205A88187BADF8C9
:1099C4002E2039465A680A920D97FFF769FFA3695A
:1099D4000DF10501587BFFF763FFA2699DF806307E
:1099E400917A61F3C303D17A61F30413117A927B00
:1099F400002A61F3000314BF0222012262F342032E
:109A04008DF80630E36903B10C93334604AA09A91F
:109A14002846FFF743FF11B0F0BD90DF7047A5DF84
:109A24007047B5DF704700007FB50023ADF808101C
:109A3400ADF80A106A4602A9064603930093ADF8EE
:109A44000430FFF7EAFF054600B3124B124CE41A48
:109A5400E408FEF78DF8240444F00104034632467A
:109A64000E492046FDF729F8BDF80020BDF8023064
:109A740052EA030103D00A492046FDF71EF8BDF857
:109A840004201AB107492046FDF70EF8284604B011
:109A940070BD00BF2CA5020064A5020092AC0200B8
:109AA400DCAC02001BAD020078B14FF01713036069
:109AB4001B2303711723C380038141F61B32002348
:109AC400016143818281184670470E20704700006F
:109AD40013B5034680880C46A0B91A88232A00F0DF
:109AE400A38011D8102A22D0112A51D0A37A4BB1C5
:109AF400E1880020FFF793FF002840F09B804FF49B
:109B04008073638102B010BD3A2A49D0552A5FD0D0
:109B1400242AEBD11A7A0B694A73002BE6D04DF64E
:109B24007A21ADF8040000918DF8042078E0DB7B05
:109B34000A790A73012B13D0022B14D0E1882389EC
:109B44008B4205D20020FFF76AFF70B90123E3724C
:109B5400217B637B8B42C9D20020FFF765FFC5E7F9
:109B64000B88E380EAE74B88FBE7112802D1012345
:109B7400A372EDE7FDF7FCFF374A384B38499B1ACF
:109B8400DB081B04024643F00100FCF78DFFDFE70E
:109B94001723CB800B8141F61B3348818B81A5E7CA
:109BA4005B89CA88934228BF1346172B0A6938BFBA
:109BB40017230B814AB1C97A39B140F67721009154
:109BC400ADF80430694620469047002363818DE751
:109BD400DB88C988A072172B38BF17238B4228BF94
:109BE4000B462381FFF71DFF60B1FDF7C1FF1A4A41
:109BF4001A4B1C499B1ADB081B04024643F0010064
:109C0400FCF752FFE37A002B7FF470AF2369002B3B
:109C14003FF46CAF40F6772200922289ADF804201D
:109C240069462046984761E7197A237B994228BF01
:109C3400194692E711283FF465AFFDF799FF064AEC
:109C4400064B07499B1ADB081B04024643F001003C
:109C5400FCF72AFF56E700BF2CA5020064A502000A
:109C640071AD0200A2AD0200B0DF704766DF70473D
:109C740010B5002104464088FFF7F8FF034608B9F1
:109C8400237210BD112801D10123F9E76368BDE8EF
:109C94001040184760B159B10378DE2B0AD00B6825
:109CA4004360DE2303704FF6FF7343800020704748
:109CB4000E2070470820704728B10378DE2B04D1AA
:109CC4004180002070470E20704708207047F0B58F
:109CD400054685B00C46F1B1E8B10B78DE2B1AD1FC
:109CE40082884B889A4204D10B7A13B10846FFF755
:109CF400BFFF2B88112B32D0512B0ED0012B0AD150
:109D04002B7A012B07D1A9886288914203D123724F
:109D14002046FFF7ADFF05B0F0BDAE886388B342BF
:109D2400F9D1AF79022FF6D1AD7B2B1F022BF2D8DC
:109D340000211022684600F060FB052D14BF4FF48B
:109D4400C0730023694630468DF80070ADF80430C6
:109D5400FFF78AFF0028DED063689847DBE7638853
:109D6400AA889A4204BF4FF6FF736380D3E7A8DF43
:109D7400704762DF70470288502A10B40DD1C4883E
:109D84004A88944209D1028A012A06D14B6923B137
:109D9400827C5DF8044B808818475DF8044B70475B
:109DA400F0B50B6843618FB0334B02AA044603F14C
:109DB4001007164618685968154603C50833BB4290
:109DC4002A46F7D104F112013046FFF7D2FF0028EA
:109DD4004FD1A37C8DF80630224641F2235301A9CA
:109DE4000120ADF80430FFF7C2FF002841D101463D
:109DF400202206A800F001FB41F22453ADF81830EC
:109E0400A37C8DF81A309DF82530224623F01203E6
:109E140001254FF0011643F0120332F80A0B07969E
:109E240006A98DF825308DF829508DF82B50FFF7B1
:109E340050FDF0B90146202206A800F0DEFA41F2F6
:109E44002553ADF81830A37C8DF81A309DF82530D1
:109E54000796224623F00A0343F00A0332F8020B62
:109E64008DF8253006A98DF829508DF82A50FFF772
:109E740030FD0FB0F0BD00BFDEAD020010DF704753
:109E840013B5044609496846FDF73DFE019808B933
:109E940002B010BDD0E900312046984718B1684699
:109EA400FDF73BFEF2E71120F2E700BFF4AD02003C
:109EB40013B5044607496846FDF725FE019B0BB917
:109EC40002B010BD2046D3E9002190476846FDF753
:109ED40024FEF3E70CAE02000B4991F816335A093D
:109EE400EC231341DB0706D5084B9A683AB94FF4C3
:109EF40080030B60704742F20200FCF769BF1A68E6
:109F040042F480021A60704700E100E0202A002039
:109F1400F7B5194F3C7864BB184E012520463570BF
:109F2400FFF7AEFF112821D02046FFF7C1FF144BE5
:109F34008DF80340186801900DF10300FDF738FA1D
:109F4400104901A8FFF79AFF0446B0FA80F04009CF
:109F540038709DF80300FDF74FFA3CB90A4B347092
:109F64001C70FFF7B9FF2846FFF7A2FF204603B095
:109F7400F0BD0824FAE700BF612C0020602C00200B
:109F8400EEAD0200F16D0200622C0020014B187846
:109F9400704700BF612C002007B508496846FDF7EB
:109FA400B2FD019B13B903B05DF804FBD3E90020B3
:109FB40090476846FDF7B1FDF3E700BF00AE02002D
:109FC400FFF7EABF60DF704769DF704761DF704702
:109FD40030B5114B1B7891B0E3B1104D34240DF121
:109FE400020103A8ADF80240FFF7F0FF70B929465B
:109FF40001A8FDF788FD029B002BF0D003A8D3E94C
:10A004000021904701A8FDF788FDF4E7052801D059
:10A01400FCF7DEFE11B030BD632C00204CB0020012
:10A0240030B5054685B00C46002900F099804D4BAB
:10A034000B600C22002101A800F0DFF901238DF848
:10A04400063022688DF80450062301A92020ADF8BB
:10A054000830FFF7B9FF60B1FDF78AFD424A434B70
:10A0640043499B1ADB081B04024643F00100FCF73A
:10A074001BFD0C22002101A800F0BFF901238DF87B
:10A0840005302268002301A94020ADF80630FFF70F
:10A094009BFF60B1FDF76CFD334A344B35499B1A85
:10A0A400DB081B04024643F00100FCF7FDFC0C2214
:10A0B400002101A800F0A1F90A2322688DF80430D8
:10A0C40001A90120FFF780FF60B1FDF751FD264A89
:10A0D400264B29499B1ADB081B04024643F0010066
:10A0E400FCF7E2FC0C22002101A800F086F94FF4F1
:10A0F400B0632268019301A9A120FFF765FF60B155
:10A10400FDF736FD184A194B1C499B1ADB081B0442
:10A11400024643F00100FCF7C7FC0C22002101A811
:10A1240000F06BF99DF8043022686FF3000301A975
:10A13400A0208DF80430FFF747FF034668B1FDF710
:10A1440017FD094A094B0E499B1ADB081B040246FA
:10A1540043F00100FCF7A8FC0023184605B030BD0D
:10A164000E23FAE7B82200202CA5020074A50200F1
:10A1740020AE020066AE0200B2AE0200FEAE0200E5
:10A184004FAF0200F8B506460768FFF71BFF3368B8
:10A19400BB4205461DD9194B194C1A49E41AE40867
:10A1A400240444F002042046FCF77AFC3368164980
:10A1B4003A462046FCF781FC4FF080533268D3F8CE
:10A1C4000C3112499B0203F100539A1A2046FCF702
:10A1D4006BFC25B90E4B01221A702846F8BD28469F
:10A1E400FDF7C6FC054A064B0A499B1ADB081B040B
:10A1F400024643F00100FCF757FCEEE72CA50200F1
:10A2040074A50200A2AF0200D1AF020002B00200A6
:10A21400632C00202CB002004BDF70471FB50D4C9F
:10A2240001A8FFF7F9FF70B9214602A8FDF76BFCFE
:10A23400039B002BF4D00198D3E90021904702A896
:10A24400FDF76BFCF4E7052801D0FCF7C1FD04B071
:10A2540010BD00BF64B002007F2805D8034B185C12
:10A26400034B5B5C18407047002070477CB00200D1
:10A27400FCB00200A0F16103192B98BF203870478D
:10A28400A0F14103192B98BF203070477F2805D8CF
:10A29400034B185C034B5B5C18407047002070470D
:10A2A4007CB00200FCB00200A0F16103192B98BF3E
:10A2B40020387047A0F14103192B98BF2030704714
:10A2C4007F299ABF017001206FF02E0070475AB1A8
:10A2D4000A787F2A0AD800B1026000211960596007
:10A2E400501A18BF01207047002070476FF02E00ED
:10A2F4007047000008B5034B5B689B681B68984770
:10A3040008BD00BFEC22002008B50921FFF7F2FFC9
:10A3140008BD000038B5214B214A9B1A102B2CD9BB
:10A32400044600F0CDF804F1130020F00F021D4B99
:10A334001968F1B14B689A422AD04FF0FF340025D6
:10A3440005E0086850B14368934218D001469A4228
:10A35400F7D2A3423CBF1C460D46F2E74DB16B68F1
:10A364009B1A6B60A31AEC18EA5000F0AAF80434A4
:10A374000CE000F0A6F8002408E0002406E00368DE
:10A384000B60044644F8042B00F09BF8204638BDCB
:10A394000868044B18600846F3E700BF644C0020CB
:10A3A400642C002000230020844640EA010313F0BB
:10A3B400030F18D18446202A0BD32DE9F007B1E806
:10A3C400F807A0E8F807A2F12002202AF7D2BDE896
:10A3D400F007042A07D351F8043B40F8043BA2F1E8
:10A3E4000402042AF7D2002A05D011F8013B00F830
:10A3F400013B013AF9D1604670478446002A2DD0CA
:10A4040010F0030F04D000F8011B013A26D0F7E73F
:10A41400C9B241EA012141EA0141202A12D3A2F141
:10A4240020022DE9F0030B460C460D460E460F465E
:10A4340088468946A0E8FA03203AFBD2BDE8F00337
:10A4440020320BD0042A05D340F8041B043A05D06B
:10A45400042AF9D200F8011B013AFBD16046704787
:10A4640000F1010110F0030F11D010F8012B002AA4
:10A4740023D010F0030F0AD010F8012B002A1CD0AF
:10A4840010F0030F03D010F8012B002A15D02DE98A
:10A4940070004FF001324FF0803350F8044BA4EBBE
:10A4A400020525EA04051D4000D1F6E7A0F10400E9
:10A4B40070BC10F8012B002AFBD1A0EB01007047FF
:04A4C4007047704726
:08A4C800197F020000000000F2
:10A4D000D197020000000000D59A0200582B0020FE
:10A4E0004D96020000000000D39C0200842B002047
:10A4F0007B9D02006C2B0020298D020000000000D3
:08A50000997F02000000000039
:10A50800D59F02000000000021A202000000000008
:10A518004823002010240020182400205023002065
:04A528001800000017
:10A52C000CAC02000000000012AC020000000000A5
:10A53C0019AC0200000000001DAC0200000000007D
:10A54C0022AC020000000000F9A502000000030389
:10A55C0006AC020000000000D1AD020000000303B5
:10A56C0018AE02000000030358B002000000030301
:10A57C0070B002000000030304A7020000000000FA
:10A58C00BCA5020000000000C8A50200CC220020DF
:10A59C00FFFFFFFFFFFFFFFFFFFFFFFFFFFFFFFFBF
:10A5AC0000000000000000000000D60106010000C1
:10A5BC00F164020055650200A164020075617274B9
:10A5CC005F6C6F675F6261636B656E6400000000B7
:10A5DC003C2800207F000000BC2800204261636BF7
:10A5EC00656E647320666C75736865640061707069
:10A5FC000000000033A602007CA602003BA602006D
:10A60C0084A602008CA6020094A602009CA602005E
:10A61C00A4A60200ACA6020020253032780020202F
:10A62C0020007C002563001B5B306D002573001B34
:10A63C005B313B33316D0025734C6F677320647253
:10A64C006F70706564202825642925730D0A003C01
:10A65C0025733E2025733A20000000000000000006
:10A66C00CDA60200B4A60200BCA60200C1A6020040
:10A67C001B5B313B33306D001B5B313B33326D0068
:10A68C001B5B313B33336D001B5B313B33346D0053
:10A69C001B5B313B33356D001B5B313B33366D003F
:10A6AC001B5B313B33376D007761726E696E6700EF
:10A6BC00696E666F00646562756700466174616CF3
:10A6CC00206572726F720053797374656D207265B8
:10A6DC00736574000338FDD870473031323334352C
:10A6EC00363738394142434445460000D0A4020075
:10A6FC00D0A40200040000007077725F6D676D7467
:10A70C0000556E6B6E6F776E206572726F72206380
:10A71C006F6465000000000048A802000100000002
:10A72C0054A802000200000072A8020003000000FE
:10A73C0093A8020004000000A6A802000500000077
:10A74C00B7A8020006000000CBA80200070000001A
:10A75C00E3A8020008000000FBA8020009000000AA
:10A76C0013A902000A0000002CA902000B00000033
:10A77C0044A902000C0000005BA902000D000000BF
:10A78C006FA902000E00000081A902000F0000005A
:10A79C0090A9020010000000A4A902001100000002
:10A7AC00BBA9020012000000CAA90200130000009D
:10A7BC00DFA9020080000000F3A902008100000064
:10A7CC0014AA02008200000030AA020083000000DC
:10A7DC004CAA0200840000006AAA02008500000056
:10A7EC008BAA020086000000B0AA020090000000B4
:10A7FC00C7AA020091000000E5AA02009200000026
:10A80C0003AB02000082000018AB020001820000C2
:10A81C0036AB02000282000052AB02000084000042
:10A82C006EAB02000184000092AB020002840000B7
:10A83C00BCAB020003840000E1AB02004E52465F49
:10A84C0053554343455353004E52465F4552524F66
:10A85C00525F5356435F48414E444C45525F4D49FD
:10A86C005353494E47004E52465F4552524F525F2A
:10A87C00534F46544445564943455F4E4F545F45EC
:10A88C004E41424C4544004E52465F4552524F5247
:10A89C005F494E5445524E414C004E52465F455214
:10A8AC00524F525F4E4F5F4D454D004E52465F45E5
:10A8BC0052524F525F4E4F545F464F554E44004ECE
:10A8CC0052465F4552524F525F4E4F545F53555054
:10A8DC00504F52544544004E52465F4552524F52CF
:10A8EC005F494E56414C49445F504152414D004ED8
:10A8FC0052465F4552524F525F494E56414C494465
:10A90C005F5354415445004E52465F4552524F528C
:10A91C005F494E56414C49445F4C454E47544800A4
:10A92C004E52465F4552524F525F494E56414C492A
:10A93C00445F464C414753004E52465F4552524F7E
:10A94C00525F494E56414C49445F44415441004E7C
:10A95C0052465F4552524F525F444154415F5349F6
:10A96C005A45004E52465F4552524F525F54494D24
:10A97C00454F5554004E52465F4552524F525F4E12
:10A98C00554C4C004E52465F4552524F525F464F0B
:10A99C005242494444454E004E52465F4552524F36
:10A9AC00525F494E56414C49445F41444452004E1B
:10A9BC0052465F4552524F525F42555359004E52C8
:10A9CC00465F4552524F525F434F4E4E5F434F5579
:10A9DC004E54004E52465F4552524F525F524553B1
:10A9EC004F5552434553004E52465F4552524F52BB
:10A9FC005F4D4F44554C455F4E4F545F494E495443
:10AA0C0049414C495A4544004E52465F4552524FBB
:10AA1C00525F4D555445585F494E49545F46414924
:10AA2C004C4544004E52465F4552524F525F4D5575
:10AA3C005445585F4C4F434B5F4641494C4544008D
:10AA4C004E52465F4552524F525F4D555445585FDA
:10AA5C00554E4C4F434B5F4641494C4544004E527A
:10AA6C00465F4552524F525F4D555445585F434FC8
:10AA7C004E445F494E49545F4641494C4544004E53
:10AA8C0052465F4552524F525F4D4F44554C455FB5
:10AA9C00414C52454144595F494E495449414C49F6
:10AAAC005A4544004E52465F4552524F525F5354E2
:10AABC004F524147455F46554C4C004E52465F4500
:10AACC0052524F525F4150495F4E4F545F494D5067
:10AADC004C454D454E544544004E52465F455252EE
:10AAEC004F525F464541545552455F4E4F545F455A
:10AAFC004E41424C4544004E52465F4552524F52D5
:10AB0C005F494F5F50454E44494E47004E52465F99
:10AB1C004552524F525F4452565F5457495F45520B
:10AB2C00525F4F56455252554E004E52465F45525B
:10AB3C00524F525F4452565F5457495F4552525FD1
:10AB4C00414E41434B004E52465F4552524F525F6D
:10AB5C004452565F5457495F4552525F444E4143ED
:10AB6C004B004E52465F4552524F525F424C455F2E
:10AB7C00495053505F52585F504B545F5452554E8E
:10AB8C004341544544004E52465F4552524F525F2A
:10AB9C00424C455F495053505F4348414E4E454CE3
:10ABAC005F414C52454144595F45584953545300F9
:10ABBC004E52465F4552524F525F424C455F495090
:10ABCC0053505F4C494E4B5F444953434F4E4E4597
:10ABDC0043544544004E52465F4552524F525F42D9
:10ABEC004C455F495053505F504545525F52454A62
:10ABFC0045435445440007121314636C6F636B0098
:10AC0C00434C4F434B004750494F5445005052530F
:10AC1C00005541525400554152544500436F6E6EDD
:10AC2C00656374656400446973636F6E6E65637409
:10AC3C006564005265636569766564204C45442003
:10AC4C004F4E21005265636569766564204C45441E
:10AC5C00204F464621004E6F726469635F426C69F7
:10AC6C006E6B7900426C696E6B79206578616D70E2
:10AC7C006C6520737461727465642E006C7461670A
:10AC8C003A202570200073645F626C655F676170A9
:10AC9C005F646174615F6C656E6774685F75706426
:10ACAC006174652829202872657175657374292073
:10ACBC006F6E20636F6E6E656374696F6E20307893
:10ACCC0025782072657475726E65642025732E006C
:10ACDC005468652072657175657374656420545889
:10ACEC002F5258207061636B6574206C656E6774AD
:10ACFC006820697320746F6F206C6F6E67206279A7
:10AD0C002025752F2575206F63746574732E005480
:10AD1C0068652072657175657374656420636F6D09
:10AD2C0062696E6174696F6E206F66205458206181
:10AD3C006E64205258207061636B6574206C656E74
:10AD4C006774687320697320746F6F206C6F6E6703
:10AD5C00206279202575206D6963726F7365636F4E
:10AD6C006E64732E0073645F626C655F67617474EC
:10AD7C00635F65786368616E67655F6D74755F723C
:10AD8C0065717565737428292072657475726E65AA
:10AD9C00642025732E0073645F626C655F67617459
:10ADAC0074735F65786368616E67655F6D74755FFA
:10ADBC007265706C7928292072657475726E656481
:10ADCC002025732E006E72665F626C655F6761741E
:10ADDC00740023D1BCEA5F782315DEEF1212000059
:10ADEC00000001000007000000A5020000A5020001
:10ADFC000800000008A5020018A5020008000000C9
:10AE0C0000A5020008A50200080000006E72665F33
:10AE1C007364680073645F626C655F6366675F731D
:10AE2C00657428292072657475726E6564202573AB
:10AE3C00207768656E20617474656D7074696E67D7
:10AE4C0020746F2073657420424C455F434F4E4E07
:10AE5C005F4346475F4741502E0073645F626C65E9
:10AE6C005F6366675F7365742829207265747572F9
:10AE7C006E6564202573207768656E206174746537
:10AE8C006D7074696E6720746F2073657420424C0A
:10AE9C00455F4741505F4346475F524F4C455F43C8
:10AEAC004F554E542E0073645F626C655F6366672A
:10AEBC005F73657428292072657475726E656420E1
:10AECC002573207768656E20617474656D70746984
:10AEDC006E6720746F2073657420424C455F434F3E
:10AEEC004D4D4F4E5F4346475F56535F5555494452
:10AEFC002E0073645F626C655F6366675F73657475
:10AF0C0028292072657475726E656420257320770C
:10AF1C0068656E20617474656D7074696E672074F9
:10AF2C006F2073657420424C455F47415454535F06
:10AF3C004346475F415454525F5441425F53495A10
:10AF4C00452E0073645F626C655F6366675F736553
:10AF5C007428292072657475726E656420257320BF
:10AF6C007768656E20617474656D7074696E6720A6
:10AF7C00746F2073657420424C455F4741545453A1
:10AF8C005F4346475F534552564943455F434841EB
:10AF9C004E4745442E00496E737566666963696554
:10AFAC006E742052414D20616C6C6F6361746564EA
:10AFBC0020666F722074686520536F6674446576E2
:10AFCC006963652E004368616E676520746865204F
:10AFDC0052414D207374617274206C6F636174699B
:10AFEC006F6E2066726F6D203078257820746F201C
:10AFFC00307825782E004D6178696D756D20524141
:10B00C004D2073697A6520666F72206170706C696F
:10B01C00636174696F6E20697320307825782E0017
:10B02C0073645F626C655F656E61626C6528292074
:10B03C0072657475726E65642025732E00000000B5
:10B04C00D0A4020000A50200080000006E72665F2A
:10B05C007364685F626C6500C8A40200D0A402002F
:10B06C00080000006E72665F7364685F736F630044
:10B07C00202020202020202020682828282820205C
:10B08C0020202020202020202020202020202020B4
:10B09C00481010101010101010101010101010106C
:10B0AC00848484848484848484841010101010100C
:10B0BC001081818181818101010101010101010165
:10B0CC000101010101010101010101101010101019
:10B0DC001082828282828202020202020202020236
:10B0EC0002020202020202020202021010101020DE
:10B0FC0000070320041702010857104080000000CD
:10B10C00B0B2020074B1020088B2020053756E0036
:10B11C004D6F6E005475650057656400546875007A
:10B12C004672690053617400000000004A616E00B1
:10B13C00466562004D617200417072004D6179008C
:10B14C004A756E004A756C00417567005365700056
:10B15C004F6374004E6F760044656300000000007E
:10B16C00414D00504D000000ACB20200A8B20200EC
:10B17C00A8B20200A8B20200A8B20200A8B2020053
:10B18C00A8B20200A8B20200A8B20200A8B2020043
:10B19C00FFFFFFFFFFFFFFFFFFFFFFFFFFFF0000B1
:10B1AC00E8B1020018B1020024B2020038B102006A
:10B1BC006CB10200CCB102007CB20200D8B102002A
:10B1CC00256D2F25642F2579000000002561202591
:10B1DC0062202565202554202559000053756E6486
:10B1EC006179004D6F6E64617900547565736461AB
:10B1FC0079005765646E6573646179005468757283
:10B20C007364617900467269646179005361747585
:10B21C0072646179000000004A616E756172790098
:10B22C004665627275617279004D617263680041A6
:10B23C007072696C004D6179004A756E65004A75D3
:10B24C006C79004175677573740053657074656D26
:10B25C00626572004F63746F626572004E6F766543
:10B26C006D62657200446563656D62657200000015
:10B27C0025483A254D3A2553000000005DA20200F6
:10B28C0079A2020085A2020091A20200ADA20200E6
:10B29C00B9A20200C5A20200D3A202000000000065
:10B2AC002E00000043000000504F5349580000008E
:10B2BC0000000000002000400000000000200040C2
:10B2CC000000000000000000FF0000000090D00310
:10B2DC00182B00201F000000372B00201F0000003F
:10B2EC00FF00FFFF0CB102000CB102000CB1020018
:0CB2FC000CB102000CB10200642C002018
:040000032000637501
:00000001FF
