:1000000000000120750300005D0300005F03000095
:1000100061030000630300006503000000000000AE
:100020000000000000000000000000006703000066
:1000300069030000000000006B0300006D03000076
:100040006F0300006F030000B91700006F0300008A
:100050006F0300006F0300006F0300006F030000D8
:100060006F0300006F0300006F0300006F030000C8
:100070006F030000A51800006F0300006F0300006D
:100080006F0300006F0300006F0300006F030000A8
:100090006F0300006F0300006F0300006F03000098
:1000A0006F0300006F0300006F0300006F03000088
:1000B0006F0300006F03000000000000000000005C
:1000C0006F0300006F0300006F0300006F03000068
:1000D0006F0300006F0300006F03000000000000CA
:1000E0000000000000000000000000000000000010
:1000F0000000000000000000000000000000000000
:1001000000000000000000000000000000000000EF
:1001100000000000000000000000000000000000DF
:1001200000000000000000000000000000000000CF
:1001300000000000000000000000000000000000BF
:1001400000000000000000000000000000000000AF
:10015000000000000000000000000000000000009F
:10016000000000000000000000000000000000008F
:10017000000000000000000000000000000000007F
:10018000000000000000000000000000000000006F
:10019000000000000000000000000000000000005F
:1001A000000000000000000000000000000000004F
:1001B000000000000000000000000000000000003F
:1001C000000000000000000000000000000000002F
:1001D000000000000000000000000000000000001F
:1001E000000000000000000000000000000000000F
:1001F00000000000000000000000000000000000FF
:10020000354936480A1A02D0072291438D463449AF
:1002100034480A1A06D00722914381F30988022242
:1002200082F3148830483149314A00F044F83148AB
:100230003149324A00F03FF831483249324A00F041
:100240003AF832483249334A00F035F832483349F7
:10025000334A00F030F833483349344A00F02BF881
:1002600033483449344A00F026F8344834490022EF
:1002700000F02CF833483449002200F027F83348C6
:100280003349091A082902DB002202604160314A21
:1002900090471F481F49884205D00268043003B4C4
:1002A000904703BCF7E700208646EC46002000217B
:1002B000294A9047FEE7884207D0521A05D00378B2
:1002C00001300B700131013AF9D17047884202D0F8
:1002D00002700130FAE770470000012000E00020C2
:1002E00000000120000001206C2A00000000002016
:1002F00034000020D4030000D403000028260000AE
:100300006C2A000000000020000000209026000061
:100310009026000090260000902600009026000005
:100320009026000090260000902600006C2A000015
:10033000A02A0000340000203400002034000020F7
:10034000C8060020C8060020C8060020C8060020F5
:10035000C82600209D0300003D210000FEE7FEE7C7
:10036000FEE7FEE7FEE7FEE7FEE7FEE7FEE7FEE765
:10037000704700BF1048804710484FF0070188437E
:1003800085460F4880470F48016841F470010160BD
:10039000BFF34F8FBFF36F8FFFF732BF0A480B4990
:1003A0000B4A884207D0521A05D0037801300B70EF
:1003B0000131013AF9D170477103000000000120BA
:1003C0006122000088ED00E090260000000000207F
:0403D0000000002009
:1003D400F0B595B01C46164608460D4601F03BF8AC
:1003E4001A9B0D93CDE9086400242346082205A92D
:1003F40028460A948DF82C400C9401F049F8079B88
:100404000293069B03939DF814308DF8114003F07A
:100414000302012A1DD1BDF81440059EC3F3C20393
:10042400C4F383148DF81030A20008230EA92846C3
:1004340001F02EF8C6F3952608AB0093224602ABD2
:100444000EA9304600F01AFC284601F008F815B051
:10045400F0BD022AF8D1BDF81640C3F3C203A409C3
:100464008DF810300827082C264628BF08263B465E
:1004740032460EA9284601F00BF8A41B08AB02AAC9
:1004840031460EA8374400F05DFC002CEBD1DBE7CD
:10049400014B01221A70704775000020704700005C
:1004A40070B50E4D06460FCD88B06C460FC495E866
:1004B4000F00002E84E80F004FF00603084A094895
:1004C400009308BF0022694601F038F908B100F032
:1004D40093FC054B1E7008B070BD00BF9026000051
:1004E40095040000000000203400002007B5044BF0
:1004F4000093044A4023FFF76BFF03B05DF804FB4D
:100504000D0500003500002038B50D4B0D4D0020C1
:1005140018700D4804782D5DD2B21C4665B10430C4
:1005240001F0C8FD08B100F067FC084B1A7812B15D
:100534002378002BFBD038BD0C3001F0C1FBF1E770
:100544007500002064060020000000203400002014
:1005540008B50848084A0378D35C3BB1043001F07D
:1005640045FD0020BDE80840FFF79ABF0C3001F0BC
:1005740043FBF6E700000020640600200120FFF79B
:100584008FBF000008B5FFF7F9FF0421034800F00E
:10059400E3FA034B01225A7108BD00BF6C26000028
:1005A40014000020037813F0040216D003F00303B0
:1005B400012B03D0022B09D0012070470A68008860
:1005C4000232C0F3831002440A60F5E70B684288E4
:1005D400023303EB92130B60EEE710467047000002
:1005E4002DE9F04F044685B0851C00200F46904647
:1005F40000F05AFC454806683E60D0E901321344D5
:1006040001339B1B824600F21C4600F5836900F20D
:100614001447AB421AD30022B8F1000F6FD0052360
:1006240063F3070264F38912DAF80010DAF8083089
:100634000B4003330D444AF823200020CAF800502D
:1006440000F034FC012005B0BDE8F08F01213046F4
:1006540000F04EFC484600F061FC384600F05EFCB9
:10066400DAF80400DAF808B0009000EA0B0003306E
:100674000AEB80006946FFF795FF009B50BB0BEA2D
:1006840003020AEB820203F1020CD26801920133E5
:1006940003EA0B0B0AEB8B0B02F00302012ACDF8E1
:1006A40000C0DBF80C1022D0022A16D0834638464C
:1006B40000F037FC10B1009BCAF8043059463046AC
:1006C40000F016FCDAE901231344DAF800200133C0
:1006D4009B1A9EE70BEA0300C9E7BDF806309B09A5
:1006E40003334FEA114B0CEB93030093DFE7BDF8A0
:1006F4000430C3F383134FEA114B6344F5E7062335
:1007040063F3070264F39F528EE700BF48010020A1
:100714000B4B0C48FF2210B59A600022C3F8182432
:10072400C3E90022C3F8142483F8202400F04CFE0B
:10073400044610B9044800F078FF204610BD00BFFD
:10074400480100207C260000D026000030B50A4C69
:1007540071B10A4A0A49121BD20800239A4201D1F4
:10076400002030BD31F82350854202D00133F5E733
:10077400034654F83300F4E73C2600006C260000DE
:1007840000000020094B013903EBC000032909D8FC
:10079400DFE801F00A02040604207047007970477C
:1007A4004079704700207047022070473C260000C3
:1007B400034BD3E90030C31A58425841704700BF75
:1007C400480100202DE9F04385B0FFF7F1FF06460C
:1007D400002840F0F7807C4DC5F81804BFF34F8F14
:1007E4006868AC6800902040033005EB80006946DF
:1007F400FFF7D8FE009B18B1D5F81824002A5FD063
:1008040004EA0302991C013305EB8202234005EB41
:100814008303D268DB68029302F00303022B019284
:10082400009162D1BDF8063068484FEA9318B8F1D8
:10083400500FC14628BF4FF0500969F38F1309F1D7
:100844000801ADF8063000F0D7FD0746002800F097
:10085400A48000F000FE01A900230822384600F01D
:100864000DFE009924EA01060136B600B14535D9DA
:100874005FFA89F97EB3F6B2A9EB06092140033188
:100884005FFA89F4B146524E05EB810108234A46CA
:10089400384600F0F3FD36B109F10803224631462B
:1008A400384600F0EBFD009B08F1030803EB9803C6
:1008B4000093D5F81834002B4BD1D5F810445BE0E5
:1008C4002A689A4204D86A60304605B0BDE8F083CD
:1008D40004EA030088E73E493446D7E72140033160
:1008E40008234A4605EB8101DAE7012B55D1BDF80F
:1008F40004303648C3F38311062928BF062161F367
:10090400891302318900ADF8043000F075FD074603
:10091400002842D000F09FFD0023082201A9384698
:1009240000F0ACFD0026BDF80420C2F38312B3002E
:10093400964203F10803BCD200994A1C21400331BA
:10094400009205EB81010422384600F097FD013640
:10095400E9E7384600F083FDFFF72AFF80F0010045
:10096400C6B2B1E7E3685B7923B1236839461B68F3
:1009740020469847E3681C68002CF3D1384600F001
:100984006EFD204600F090FAD5F818340BB9009BA0
:100994006B60002000F08AFADEE7D5F8104454B901
:1009A4000C4B0D480D49C01AC008000440F0020069
:1009B40000F06EF8D0E7236820469B689847E36808
:1009C4001C68ECE700267FE7480100207C26000035
:1009D400540100203C2600005C260000DC260000B8
:1009E4002DE9F74F284C80460F46924601A9012273
:1009F40018469B46D4F80890FFF7F2FD80B3019D9A
:100A04000026A91C5E4506EB010233D100211F48D4
:100A140000F04EFA80F310006A1C02EA090204EBAB
:100A24008202000405EA0903033340EA1840D06057
:100A340014F8232068F3C50204F8232034F8232093
:100A440066F3891224F8232054F8232067F39F22A5
:100A540044F8232002F0F80242F0010204F82320B3
:100A640094F820341BB1FFF7ADFE0028FBD103B08E
:100A7400BDE8F08F09EA020204EB82025AF826303C
:100A8400D3600136BEE700BF4801002064050020A2
:100A940000231A46FFF7A4BF2DE9F34780462C4CE8
:100AA400D01C8A46174601A900228008A568FFF7D2
:100AB40097FDC8B3DDF80490A66809F1020001901F
:100AC40001362840361AB6000330B74204EB8000E2
:100AD40034D83A46514601F04CFD00211D4800F03F
:100AE400E7F980F3100009F101032B4004EB8303C1
:100AF4004FEA184242EA0042DA6005EA0903033386
:100B040004EB830214F8231068F3C50104F82310DE
:100B1400518867F38F11518034F8232002F0380292
:100B240042F0020224F8232094F820341BB1FFF78A
:100B340049FE0028FBD102B0BDE8F0873246514699
:100B440001F017FDBA1B0AEB060104F10C00C2E721
:100B5400480100206405002030B50F49D1F8102465
:100B6400002314463CB9C468237152B9C1F8100477
:100B74002260184630BDE46825799D4206D0246879
:100B8400F0E7D268116821601060F2E701330A2BA4
:100B9400E7D14FF0FF33ECE748010020094A38B5AC
:100BA4000123D2F8104482F820341D4604B938BD1C
:100BB400E3685D71236820465B689847E3681C68B6
:100BC400F4E700BF48010020037A052B10B50C465A
:100BD4000FD0437A23B1084A0849204600F0FBF9B4
:100BE4000749204600F0F7F92046BDE8104000F020
:100BF400E7B9002AF8D0F3E7272700002C270000E4
:100C04004C270000C38873B504460D4633B1144A1B
:100C140000921449144A284600F0DDF9217A052986
:100C24001CD0637A4BB1A088FFF7ACFD0F4B104981
:100C340053F82020284600F0CEF9227A0D4BA088E4
:100C440053F822600021FFF781FD0B490346324629
:100C5400284602B0BDE8704000F0BDB902B070BDD6
:100C640027270000372700002F270000F426000064
:100C74002C2700005C2700004F2700002DE9F043DB
:100C840085B01F460C9D002306460C46904695F8F9
:100C94000C902B7329463846FFF7B4FFB8F1060FC2
:100CA40009D8DFE808F00412181F28334000314641
:100CB400284600F090F9002229463846FFF784FFC1
:100CC40085F80C9005B0BDE8F083226831462846CB
:100CD40000F081F9EFE7D4E900233146284600F01B
:100CE4007AF9E8E7A36800933146D4E9002328465B
:100CF40000F071F9DFE7E3680193A36800933146DC
:100D0400D4E90023284600F066F9D4E72369029366
:100D1400E3680193A36800933146D4E9002328468D
:100D240000F059F9C7E76369039323690293E36801
:100D34000193A36800933146D4E90023284600F0C8
:100D44004AF9B8E708292DE9F84F80460E461746B8
:100D54001C463AD8002593F80C901D73194610468A
:100D6400FFF750FFDFF884A0DFF884B0AE422ED93D
:100D740018F805205946204600F02DF90135082DB4
:100D8400F4D11849DFF86CB0204600F024F94FF094
:100D9400000A564520D918F80A507E2D03D8284653
:100DA40001F0E2FB00B92E252A465946204600F000
:100DB40012F90AF1010ABAF1080FEAD10122214617
:100DC4003846FFF701FF84F80C90BDE8F88F5146D0
:100DD400204600F000F9D1E70349204600F0FBF873
:100DE400E7E700BF22270000202700001E2700009D
:100DF40018270000242700001FB50021039001AA32
:100E040044F20100CDE9011100F004F805B05DF8E9
:100E140004FB000010B572B6FFF7C0FEFFF7D2FC6A
:100E24000028FBD1104B114C1149E41AE4082404A6
:100E340044F00100FFF72CFE0E4B1B68DB0700D5C6
:100E440000BE0D4944F00200FFF722FEBFF34F8FAE
:100E54000A490B4BCA6802F4E0621343CB60BFF348
:100E64004F8F00BFFDE700BF3C2600005C2600005A
:100E7400BB270000F0ED00E0C727000000ED00E014
:100E84000400FA0572B6024A13680133136070470E
:100E940004060020034A1368013B136003B962B6D9
:100EA400704700BF04060020FFF7ECBFFFF7F2BF56
:100EB40050E8002F0B4640E8003C9CF0000FF7D1AF
:100EC4001046704750E8003F43EA010240E8002C16
:100ED4009CF0000FF6D11046704750E8002F02EA4C
:100EE400010340E8003C9CF0000FF6D11046704727
:100EF40050E8003F03EB010240E8002C9CF0000F97
:100F0400F6D11046704750E8003FA3EB010240E8D9
:100F1400002C9CF0000FF6D1104670470121FFF71A
:100F2400D1BF0021FFF7D9BF10B590B1D0E901239B
:100F340001689B1ADBB20A60013BDBB2FF2B02683B
:100F440002D10020107110BD11684C1C14600B708C
:100F5400F2E70E20F7E738B504460020FFF7A4FFB8
:100F6400226863681168994213D9481E106011F809
:100F7400015CE368218A01FB0535A36811791B1A1A
:100F8400DBB2994200D213710020FFF78FFF28468D
:100F940038BD0025F8E738B5054600200C46FFF7B4
:100FA40083FF2A681368591C1160E968641A298A46
:100FB400B4FBF1F41C700020BDE83840FFF776BFA5
:100FC400826810B504462AB14369016800699847EC
:100FD4000023A36010BD0EB403B5039921B104AB83
:100FE40001AA019300F074F802B05DF804EB03B0B9
:100FF40070470A2938B504460D4602D10D21FFF782
:10100400F8FFA3682268591CA160D554D4E90132C1
:101014009A4204D32046BDE83840FFF7D1BF38BD1B
:101024002DE9F84F9946DDE90A431746824688467A
:101034000A460126BA420FD24E4538BF4E4613F037
:10104400010B01D164B900240125B9F1010F1AD9AA
:1010540009F1FF397D43F8E7B2FBF7F20136E9E71E
:101064009B070ED5B9F1000F0CBF30252025A642F1
:10107400EAD2013C29465046FFF7BBFF002CF6D1CB
:10108400E1E72025F3E7B8FBF5F39F42E2D9DFF867
:101094003C90B8FBF5F3504619F8031005FB138890
:1010A400FFF7A7FFB5FBF7F3BD4207D2BBF1000F73
:1010B40002D00CB1A64203D3BDE8F88F1D46E8E781
:1010C40020215046013CFFF794FFF2E7D4270000AB
:1010D4002DE9F74F054617468846002900F0308170
:1010E40018F8011B49B92B7B002B00F029812846F5
:1010F40003B0BDE8F04FFFF763BF252940F0C0807F
:10110400002698F800302D2B424608F1010823D020
:10111400302B24D02B2B25D000242A2B02F10101C3
:1011240023D13B681A1D1B683A601C440A46137895
:101134002E2B26D101324FF00009104610F8011B66
:10114400A1F1300CBCF1090F1DD80A2303FB0913CC
:10115400A3F130090246F0E746F00106D1E746F074
:101164000206CEE746F00406CBE711F8013CA3F1F2
:1011740030000928DBD80A2202FB0434303C0A463A
:10118400CBE74FF0000912F8011B01F0FB006828BF
:101194009046F8D069290ED04AD8582964D006D888
:1011A40025296DD098F80030002B99D19BE763294D
:1011B40062D06429F6D13A68D2F800A0111D8AEAF7
:1011C400EA723960A2EBEA724FF0010B092A5BDC88
:1011D400CB4538BFCB462CB1BAF1000F01DB720707
:1011E40000D5013CB30702D5B9F1000F04D0F007D4
:1011F40002D4002C4ED10024BAF1000F52DACAF105
:10120400000A2D212846FFF7F4FE06F00302022A05
:1012140005D1B9F1000F02D1002C47D10024CDE94A
:1012240000464B460A2251462846FFF7F9FEB9E725
:1012340073294CD014D87029B4D13B681A1D3A6074
:10124400302128461C68FFF7D4FE78212846FFF792
:10125400D0FE00220823CDE9003221461022E3E724
:1012640075292BD078299DD139680A1D3A60CDE9BA
:1012740000464B46102228E03B681A1D19783A6054
:101284002846FFF7B6FE8DE70A230BF1010BB2FBEC
:10129400F3F29BE7A345AFD220212846013CFFF798
:1012A400A8FEA6E77107B0D52B21ABE7A345B6D2BC
:1012B40030212846013CFFF79CFEADE73968CDE9B3
:1012C40000460A1D3A604B460A220968ACE73B68AF
:1012D4001A1D3A6016F00106D3F800A020D1BAF125
:1012E400000F03D0504601F06DF90646B44200D910
:1012F400C4B90AF1FF3A1EE028460136FFF779FE29
:101304001AF806100029F7D1A642BFF44BAF002CFF
:101314003FF448AF20212846013CFFF76AFEF3E77B
:101324000026EDE720212846013CFFF762FEDDE7B9
:101334002846FFF75EFE1AF8011F0029F8D131E7AD
:1013440003B0BDE8F08F2DE9F047B0F8069044797A
:10135400D2F800A09DF8208009FB04F4043C064662
:101364000AEB0300A0420F4688BFA4EB030A191D31
:10137400C2F800A0B1FBF9F509FB15114DB9A9EBB1
:101384000104544528BF5446BAF1000F04D1BDE806
:10139400F0873668013DF1E704317B197018224665
:1013A400B8F1000F0ED001461846AAEB040A01F06A
:1013B400E0F8D145254436684C464FF0000128BF7B
:1013C4005446E1E71946F0E7FFF7AEBDF8B54679B4
:1013D4000146721E0546002393422D6803D3002460
:1013E400A64202D8F8BD0133F6E70F682846FFF796
:1013F400D2FD01343946F3E72DE9F843068ACD1CC2
:101404000746FFF7A8FD043E35440446B5FBF6F550
:10141400F0B14FF48073EDB28380C680013D076064
:1014240081464FF00008A84512D23846FFF793FDD5
:10143400064648B163790133637108F10108C9F8BC
:10144400000007608146EEE72046FFF7BFFF344601
:101454002046BDE8F88301210430FFF749BD10B5EB
:10146400012104460430FFF74EFD10F0FF0F04D1B4
:101474002046BDE81040FFF7A9BF10BD1FB5039279
:101484000022009203AAFFF75EFF05B05DF804FB9B
:101494001FB503920122009203AAFFF754FF05B07F
:1014A4005DF804FB026813685268934291BFD01A36
:1014B40080680130801888BFC01A70472DE9F8434E
:1014C40003681D685C68A54284BF836801331746BE
:1014D400884694BF641B5C1BC2684168BC420646D4
:1014E40005FB02110CD37A43404601F042F8B3687D
:1014F4003D449D4288BF002533681D60BDE8F883E4
:1015040004FB02F94A46404601F033F8F268716878
:101514003C1B624308EB090001F02BF833681C60A4
:10152400ECE7036881681A685B688B4234BF013357
:101534000023D31A584258417047F8B50446002096
:101544000D46FFF7B1FC2046FFF7EBFF10B1237CFB
:10155400002B3CD12268A66853685168B14234BF5D
:1015640001310021516030B11168A068814234BF5B
:10157400013100211160E2686068511E072920D8FA
:10158400DFE801F004101F141F1F1F182A78C2542B
:101594002046FFF787FF23689A68824200D298604A
:1015A400002415E02A8820F81320F1E72A6840F87F
:1015B4002320EDE7D5E9006700EBC300C0E900672D
:1015C400E6E7294602FB030000F0D3FFE0E704242A
:1015D4000020FFF76BFC2046F8BD70B505460E46AB
:1015E400144682B10020FFF75FFC2846FFF75AFF3C
:1015F400A0420AD3224631462846FFF75FFF002463
:101604000020FFF753FC204670BD0524F8E710B511
:1016140004460020FFF748FC2046FFF743FF04463A
:101624000020FFF743FC204610BD836800225A6067
:101634009A60C3E90422DA601A60704707B58DF82E
:1016440007000DF107010648FFF777FF0448FFF78D
:1016540068FF08B100F01CF903B05DF804FB00BF9B
:101664002826000038B50C4D2B7893B90B4B0C4948
:10167400002808BF18460388284620F8013F00F0D8
:10168400C7F8044618B900F0F1F801232B7020467E
:1016940038BD8524FBE700BF58060020E42700007E
:1016A4004116000010B504460248FFF7B0FF207051
:1016B40010BD00BF2826000010B50A4601460448A4
:1016C400FFF78BFF044600F0D1F8204610BD00BFA1
:1016D400282600001FB503788DF800304368019375
:1016E40083688DF80830C3680393054A054B684640
:1016F40053F8213052F82110984705B05DF804FBE7
:101704005C060020600600201FB503788DF80030C9
:101714004368019383688DF80830C3680393054ACE
:10172400054B684653F8213052F82110984705B00C
:101734005DF804FB5C06002060060020F0B5184B41
:10174400077891F81DE043F82720164B16460A69DE
:1017540043F82720144B03F807E00C4684460FCCCB
:1017640089B06D460FC594E80F0085E80F00049713
:10177400BEF1000F0AD0002E0C4A694608BF32465B
:101784000CF1040000F070FB09B0F0BD002E084A13
:10179400694608BF32460CF10C0000F073F9F3E718
:1017A400600600205C06002064060020D9160000B4
:1017B4000D170000014B1B68184700BF6806002086
:1017C40038B50B4B98420D4601D0002038BD00209F
:1017D400FFF76AFB074B1C7914B901221D601A71CB
:1017E4000020FFF763FB002CEFD01120EEE700BFD1
:1017F4000020004068060020034B984201BF034BC1
:1018040000221A601A717047002000406806002008
:1018140010B5124C2278FAB9114B1960037813F001
:10182400010F104B1EBFD3F8042542F00102C3F888
:101834000425D3F8002222F00102C3F800224378E1
:10184400094A5B01DBB282F80D334FF40053136095
:1018540001232370002010BD8520FCE774060020BE
:101864007006002000D0004000E100E0064B00229A
:101874001A6082B01B680193019B044B0122C3F8D8
:1018840004231A6002B0704700D1004000D0004029
:10189400024A0123C2F808335360704700D0004065
:1018A400074B00221A6082B01B680193019B054B11
:1018B400D3F80805044B1B68C0B202B0184700BF38
:1018C40000D1004000D000407006002000234350A7
:1018D40082B043580193019B02B070470A4610B589
:1018E4004FF48E71FFF7F2FF136A9168C95C136AB3
:1018F40001331362C0F81C1510BD8B690A4610B57C
:101904004FF4847123B9FFF7E1FFD0F8183510BD07
:10191400FFF7DCFF536AD168D0F81805C854536A3E
:1019240001335362F3E700001FB501238DF8003043
:10193400044BCDE90110D3E900126846904705B085
:101944005DF804FB7806002030B54C4AD2F8043325
:1019540013F4007F85B015464FD0D2F82431002B04
:101964004BD04FF492711046FFF7B0FF4FF4017360
:10197400C2F80833424B93F8291009B90121516088
:101984003E4902228DF80020D1F88024C1F8802439
:1019940003929A690292DA6801920022C3E906224C
:1019A4006846D3E9001290473448D0F81C315BB143
:1019B40033490A6A4B699A420A464BD291F8283055
:1019C400002B47D1FFF78AFF2C4AD2F8443193B158
:1019D4004FF4A2711046FFF779FF294B93F82910B1
:1019E40009B1012111609A692AB100229A61586AE9
:1019F400D968FFF799FF05B030BDD5F804335B070C
:101A0400D2D5D5F80831002BCED01D4C1B48214629
:101A1400FFF773FF636AA2699A422346C4D1E2695D
:101A2400E1684AB12369E3600023606AA261E3616B
:101A34006362FFF779FFB7E794F829200AB9012216
:101A44006A600E4A4FF40170C2F8080300229A61DA
:101A5400586AEEE74FF48E710848FFF737FF516973
:101A64000029B1D00023029191688DF800300191D2
:101A740053616846D2E900139847A5E70020004067
:101A8400780600202DE9F843564F047991462C221C
:101A940002FB0472064692F82A200D46002A40F002
:101AA4009A8051490068FFF78BFE8046002840F079
:101AB400958029683368481C0BD04FF0A040012260
:101AC4008A40C0F8082501F5E0724FF0030C40F895
:101AD40022C06868421C1FBF00F5E0724FF0A04CA2
:101AE4004FF0000E4CF822E0AA6995F814C0C3F830
:101AF40024256A7DBCF1010F4CEA0202C3F86C256F
:101B0400C3F81405C3F80C151DD1AA68511C1FBFD6
:101B140002F5E0714FF0A0404FF0000C40F821C0F6
:101B2400E968481C0BD04FF0A04C01208840CCF849
:101B3400080501F5E0704FF0030E4CF820E0C3F8FF
:101B44000815C3F810252C236343FA18C2F804902F
:101B54002A69FA50B9F1000F2AD04FF48E71306817
:101B64002D7FFFF7B3FE30684FF4A271FFF7AEFE8E
:101B740032681E4BC2F80433120B51B20029A8BFBD
:101B840001F160404FEA4513BABF194802F00F054E
:101B940000F56140DBB2B4BF435580F8003302F076
:101BA4001F02012303FA02F24909124B43F82120D0
:101BB40033680422C3F800252C2303FB047300229A
:101BC400C3E9062283F829205A61012283F82A20D6
:101BD4004046BDE8F8834FF00808F9E74FF01108D4
:101BE400F6E700BF780600204D19000080000200CF
:101BF40014ED00E000E100E0F8B5047900682D4D33
:101C04000023C0F800352C2303FB04535B6873B135
:101C1400294BC0F80833020B53B201215B0902F0CF
:101C24001F0201FA02F22033244941F82320D0F89C
:101C34000C65D0F81415D0F80835D0F810254FF0FD
:101C4400FF37BE42C0F8147518BF06F5E076C0F839
:101C54000C75C0F80875C0F810751EBF4FF0A0478A
:101C64004FF0020C47F826C04E1C1FBF4FF0A04691
:101C740001F5E071022746F82170511C1FBF4FF097
:101C8400A04102F5E072022641F822605A1C1FBFEF
:101C940003F5E0734FF0A042022142F82310FFF74E
:101CA400ABFD2C2303FB0454002384F82A30636027
:101CB400F8BD00BF780600208402020000E100E0C5
:101CC4002DE9F047214F06794FF02C0909FB0674E2
:101CD40080466569002D37D16261A16025624FF4A9
:101CE4008E71006884F82850FFF7F0FDD8F80000E2
:101CF400012383602146FFF7F1FD6368A14693B990
:101D0400D8F800A0226A63699A4212D3D8F8003046
:101D1400D3F81C21002AFBD00122DA602C2303FB18
:101D24000676002373612846BDE8F08794F82830CE
:101D340043B9DAF81C31002BF8D049465046FFF776
:101D4400CDFDDFE70F25E9E71125ECE77806002054
:101D54000023435082B043580193019B02B0704763
:101D64001FB501238DF80030044BCDE90110D3E9F0
:101D740000126846904705B05DF804FBA4060020F5
:101D84007FB5374AD2F82461002E48D010464FF46C
:101D94009271FFF7DDFF02238DF80030D2F8803412
:101DA400C2F880340393D2F83C3502932D4BDA68A1
:101DB40001920022C3E906226846D3E90012904743
:101DC400274AD2F844317BB14FF4A2711046FFF791
:101DD400BFFF244B996939B10021C3E90611D968C1
:101DE400D2F83C05FFF7BCFF1D4AD2F82031A3B15D
:101DF4004FF490711046FFF7ABFF1A4B596961B16C
:101E0400D2F84C150291002299688DF800200191B6
:101E14005A616846D3E90012904704B070BDD2F805
:101E24001031002BCCD04FF488711046FFF790FF8F
:101E34000C4BD2F83C0599698842C1D1DC69D96858
:101E440064B1D2F8005225F02005C2F800521A6994
:101E54009C61DA60DE61FFF783FFB1E79C61FAE71A
:101E640000200040A40600202DE9F8435A4F0679CB
:101E74009146242202FB0672044692F820200D4665
:101E8400002A40F0A28055490068FFF799FC80467B
:101E9400002840F09D8029682368481C0BD04FF02F
:101EA400A04001228A40C0F8082501F5E0724FF0F5
:101EB400030C40F822C06868421C1FBF00F5E072A2
:101EC4004FF0A04C4FF0000E4CF822E0AA6995F8B0
:101ED40014C0C3F824256A7DBCF1010F4CEA020248
:101EE400C3F86C25C3F80C15C3F814051DD1AA68F2
:101EF400511C1FBF02F5E0714FF0A0404FF0000CE1
:101F040040F821C0E968481C0BD04FF0A04C0120D8
:101F14008840CCF8080501F5E0704FF0030E4CF84A
:101F240020E0C3F80815C3F8102524237343FA18D6
:101F3400C2F804902A69FA50B9F1000F34D04FF472
:101F4400887120682D7FFFF703FF4FF4907120689C
:101F5400FFF7FEFE4FF492712068FFF7F9FE206848
:101F64004FF4A271FFF7F4FE22681D4BC2F804334C
:101F7400120B51B20029A8BF01F160404FEA45138A
:101F8400BABF184802F00F0500F56140DBB2B4BFD8
:101F9400435580F8003302F01F02012303FA02F2D2
:101FA4004909114B43F8212023680822C3F800256E
:101FB400242303FB06730022C3E906225A6101228B
:101FC40083F820204046BDE8F8834FF00808F9E77D
:101FD4004FF01108F6E700BFA4060020851D00009D
:101FE4001003020014ED00E000E100E0F8B504790C
:101FF40000682D4D0023C0F80035242303FB04534F
:102004005B6873B1294BC0F80833020B53B201214A
:102014005B0902F01F0201FA02F22033244941F85D
:102024002320D0F80C65D0F81415D0F80835D0F872
:1020340010254FF0FF37BE42C0F80C7518BF06F5E7
:10204400E076C0F81475C0F80875C0F810751EBFA6
:102054004FF0A0474FF0020C47F826C04E1C1FBF9C
:102064004FF0A04601F5E071022746F82170511C9B
:102074001FBF4FF0A04102F5E072022641F8226032
:102084005A1C1FBF03F5E0734FF0A042022142F82F
:102094002310FFF7B1FB242303FB0454002384F82B
:1020A40020306360F8BD00BFA406002010030200C6
:1020B40000E100E001F06043B3F1005F2DE9F0417D
:1020C400074632D11B4B0679242505FB0635984675
:1020D4006C6964BB6A61A96000684FF49071FFF792
:1020E40037FE4FF4AC713868FFF732FE3B686A691B
:1020F400A968C3F84415C3F8482501229A606A68A0
:1021040062B9D3F82021D3F8584152B9002CF8D041
:102114000F24242303FB0686002373612046BDE8B5
:10212400F081002C18BF0F24F3E71024F6E71124E4
:10213400F4E700BFA40600202DE9F041002186B099
:102144000846FEF7E5FA08B1FEF756FEFEF71AFA5E
:102154000020FFF787FA08B1FEF74EFE1C4B1D4C1A
:102164001D491E4E1E4FDFF87C80E41AE408240447
:1021740044F003042046FEF78BFC46F001060DF103
:102184000700FFF78FFA9DF80750102D28BF102580
:10219400294602A8FFF790FA08B1FEF72DFE39464A
:1021A4002046FEF775FC02A920462A46FEF774FC79
:1021B40041462046FEF76CFCFEF704FB0028FBD1E9
:1021C40064254FF47A40B047013DFAD1D7E700BF08
:1021D4003C2600005C2600000628000000280000C1
:1021E4001B2800004E2700000C4B1B78062B10D137
:1021F4000B4B1B681A070CD10A4B186800F0F0034C
:10220400302B08D000F0E000A0F1400358425841C0
:102214007047002070470120704700BFE00F00F0B6
:10222400E40F00F0E80F00F0094B1B78062B0CD1EB
:10223400084B1B681A0708D1074B186800F0F00018
:10224400A0F130035842584170470020704700BF46
:10225400E00F00F0E40F00F0E80F00F008B5FFF71E
:10226400C3FF28B17D4B7E4A1B68C3F3042313606C
:10227400FFF7DAFF10B17B4B7B4A1A60FFF7B4FF1C
:1022840028B17A4B7A4A1B68C3F342331360FFF7D1
:10229400CBFF20B1774AD36823F08073D360FFF774
:1022A400A3FF40B14FF080430022C3F80C21C3F8D0
:1022B4001021C3F83825FFF7B7FF10B16E4B032286
:1022C4001A60FFF7B1FF40B16C4B05221A6001227E
:1022D4009A6700229A603F225A60694B1B78062B4A
:1022E40050D1684B1B6819074CD1674B1B6803F02E
:1022F400F003502B46D14FF08052644BD2F80414B3
:10230400C3F82015D2F80814C3F82415D2F80C1415
:10231400C3F82815D2F81014C3F82C15D2F81414E5
:10232400C3F83015D2F81814C3F83415D2F81C14B5
:10233400C3F84015D2F82014C3F84415D2F8241475
:10234400C3F84815D2F82814C3F84C15D2F82C1445
:10235400C3F85015D2F83014C3F85415D2F8341415
:10236400C3F86015D2F83814C3F86415D2F83C14D5
:10237400C3F86815D2F84014C3F86C15D2F8442495
:10238400C3F87025FFF730FF28B1414B414A1B6861
:1023940003F04F031360FFF727FF48B14FF080436A
:1023A400D3F80024D20744BF6FF00102C3F800241D
:1023B400394B1B68062B08D1384B1B68062B01BF11
:1023C400374A136843F480631360364AD2F888307E
:1023D40043F47003C2F88830BFF34F8FBFF36F8F9D
:1023E4004FF01023D3F80022002A03DBD3F8043281
:1023F400002B2FDA2C4B0122C3F80425D3F8002438
:10240400002AFBD04FF010221521C2F80012D3F895
:102414000024002AFBD04FF010231522C3F8042215
:10242400214B1A46D3F800140029FBD00021C3F82D
:102434000415D2F80034002BFBD0BFF34F8F194999
:102444001A4BCA6802F4E0621343CB60BFF34F8FA8
:1024540000BFFDE7164B174A1A6008BD240300109D
:102464004035014074C007400DF0ADBA440200107D
:102474003C050040F0ED00E0A0050040105600408F
:10248400E00F00F0E40F00F0E80F00F000C000409F
:1024940058020010E40E0040300100103401001016
:1024A4003C17004000ED00E000E001400400FA05A4
:1024B4001C0000200090D0037F2805D8034B185C33
:1024C400034B5B5C18407047002070472C280000C9
:1024D400AC280000A0F16103192B98BF2038704785
:1024E400A0F14103192B98BF203070477F2805D8ED
:1024F400034B185C034B5B5C18407047002070472B
:102504002C280000AC280000A0F16103192B98BF0F
:1025140020387047A0F14103192B98BF2030704731
:102524007F299ABF017001206FF02E0070475AB1C5
:102534000A787F2A0AD800B1026000211960596024
:10254400501A18BF01207047002070476FF02E000A
:102554007047000008B5034B5B689B681B6898478D
:1025640008BD00BF2000002008B50921FFF7F2FFD5
:1025740008BD844640EA010313F0030F18D18446D2
:10258400202A0BD32DE9F007B1E8F807A0E8F807F3
:10259400A2F12002202AF7D2BDE8F007042A07D3CB
:1025A40051F8043B40F8043BA2F10402042AF7D298
:1025B400002A05D011F8013B00F8013B013AF9D19A
:1025C4006046704700F1010110F0030F11D010F8BC
:1025D400012B002A23D010F0030F0AD010F8012B8E
:1025E400002A1CD010F0030F03D010F8012B002A8E
:1025F40015D02DE970004FF001324FF0803350F8C0
:10260400044BA4EB020525EA04051D4000D1F6E7BE
:10261400A0F1040070BC10F8012B002AFBD1A0EB40
:0426240001007047FA
:102628004C060020080600204000000001000000C1
:04263800000000009E
:10263C00EA27000000000000EE2700000000000068
:10264C00F227000000000000F72700000000000047
:10265C00ED26000000000303E62700000000000048
:10266C00B026000000000000BC2600001400002072
:10267C00780000204001002048010020800000204C
:04268C001800000032
:10269000FFFFFFFFFFFFFFFFFFFFFFFFFFFFFFFF4A
:1026A00000000000000000000000D601060100004C
:1026B000F104000055050000A1040000756172746A
:1026C0005F6C6F675F6261636B656E640000000042
:1026D0006C0500207F000000EC0500204261636B68
:1026E000656E647320666C757368656400617070F4
:1026F0000000000027270000702700002F2700009F
:10270000782700008027000088270000902700001D
:1027100098270000A02700002025303278002020D4
:1027200020007C002563001B5B306D002573001BBF
:102730005B313B33316D0025734C6F6773206472DE
:102740006F70706564202825642925730D0A003C8C
:1027500025733E2025733A20000000000000000091
:10276000C1270000A8270000B0270000B5270000FF
:102770001B5B313B33306D001B5B313B33326D00F3
:102780001B5B313B33336D001B5B313B33346D00DE
:102790001B5B313B33356D001B5B313B33366D00CA
:1027A0001B5B313B33376D007761726E696E67007A
:1027B000696E666F00646562756700466174616C7E
:1027C000206572726F720053797374656D20726543
:1027D000736574003031323334353637383941421D
:1027E000434445460106726E670050525300524EF4
:1027F00047005541525400554152544500000000D5
:102800000338FDD87047524E47206578616D706C73
:102810006520737461727465642E0052616E646F1A
:102820006D20566563746F723A00000020202020EE
:102830002020202020682828282820202020202030
:102840002020202020202020202020204810101090
:1028500010101010101010101010101084848484A8
:10286000848484848484101010101010108181815D
:1028700081818101010101010101010101010101C8
:10288000010101010101011010101010108282825B
:102890008282820202020202020202020202020298
:1028A0000202020202020210101010200007032090
:1028B000041702010857104080000000602A000041
:1028C00024290000382A000053756E004D6F6E00F9
:1028D0005475650057656400546875004672690058
:1028E00053617400000000004A616E00466562009A
:1028F0004D617200417072004D6179004A756E0041
:102900004A756C0041756700536570004F63740031
:102910004E6F76004465630000000000414D00509A
:102920004D0000005C2A0000582A0000582A0000D0
:10293000582A0000582A0000582A0000582A00008F
:10294000582A0000582A0000582A0000FFFFFFFF05
:10295000FFFFFFFFFFFFFFFFFFFF000098290000C0
:10296000C8280000D4290000E82800001C29000025
:102970007C2900002C2A000088290000256D2F25C5
:10298000642F25790000000025612025622025653F
:10299000202554202559000053756E646179004D3F
:1029A0006F6E646179005475657364617900576571
:1029B000646E6573646179005468757273646179DB
:1029C000004672696461790053617475726461795B
:1029D000000000004A616E7561727900466562729E
:1029E00075617279004D6172636800417072696C43
:1029F000004D6179004A756E65004A756C79004139
:102A000075677573740053657074656D62657200E7
:102A10004F63746F626572004E6F76656D626572AA
:102A200000446563656D62657200000025483A25C3
:102A30004D3A255300000000BD240000D9240000B9
:102A4000E5240000F12400000D25000019250000F8
:102A50002525000033250000000000002E000000A6
:0C2A600043000000504F53495800000094
:102A6C00000000000020004000000000002000409A
:102A7C000000000000000000FF0000000090D003E8
:102A8C00BC280000BC280000BC280000BC280000AA
:042A9C00BC28000052
:040000030000037581
:00000001FF
