:020000022000DC
:1060000000000120756302005D6302005F6302000F
:106010006163020063630200656302000000000028
:1060200000000000000000000000000067630200A4
:1060300069630200000000006B6302006D630200F0
:106040006F6302006F6302008DC002006F63020085
:106050006F6302006F6302006F6302006F630200F0
:106060006F6302006F6302006F6302006F630200E0
:106070006F6302006F6302006F6302006F630200D0
:106080006F630200B17602006F6302006F6302006B
:106090004D7702006F63020045DA02006F63020071
:1060A0006F6302006F6302006F6302006F630200A0
:1060B0006F6302006F630200000000000000000038
:1060C0006F6302006F6302006F6302006F63020080
:1060D0006F6302006F6302006F6302000000000044
:1060E00000000000000000000000000000000000B0
:1060F00000000000000000000000000000000000A0
:10610000000000000000000000000000000000008F
:10611000000000000000000000000000000000007F
:10612000000000000000000000000000000000006F
:10613000000000000000000000000000000000005F
:10614000000000000000000000000000000000004F
:10615000000000000000000000000000000000003F
:10616000000000000000000000000000000000002F
:10617000000000000000000000000000000000001F
:10618000000000000000000000000000000000000F
:1061900000000000000000000000000000000000FF
:1061A00000000000000000000000000000000000EF
:1061B00000000000000000000000000000000000DF
:1061C00000000000000000000000000000000000CF
:1061D00000000000000000000000000000000000BF
:1061E00000000000000000000000000000000000AF
:1061F000000000000000000000000000000000009F
:10620000354936480A1A02D0072291438D4634494F
:1062100034480A1A06D00722914381F309880222E2
:1062200082F3148830483149314A00F044F831484B
:106230003149324A00F03FF831483249324A00F0E1
:106240003AF832483249334A00F035F83248334997
:10625000334A00F030F833483349344A00F02BF821
:1062600033483449344A00F026F83448344900228F
:1062700000F02CF833483449002200F027F8334866
:106280003349091A082902DB002202604160314AC1
:1062900090471F481F49884205D00268043003B464
:1062A000904703BCF7E700208646EC46002000211B
:1062B000294A9047FEE7884207D0521A05D0037852
:1062C00001300B700131013AF9D17047884202D098
:1062D00002700130FAE770470000012000C0002082
:1062E00000000120000001208C0D0300DC220020B2
:1062F000BC230020D4630200D463020046E4020001
:106300008C0D0300DC220020DC22002090E602003D
:1063100090E6020090E6020090E6020090E602009D
:1063200090E6020090E6020090E602008C0D030069
:106330006C0E0300BC230020BC230020BC230020E3
:10634000BF310020C0310020C4310020C431002002
:10635000C43300209D630200F5D20200FEE7FEE791
:10636000FEE7FEE7FEE7FEE7FEE7FEE7FEE7FEE705
:10637000704700BF1048804710484FF0070188431E
:1063800085460F4880470F48016841F4700101605D
:10639000BFF34F8FBFF36F8FFFF732BF0A480B4930
:1063A0000B4A884207D0521A05D0037801300B708F
:1063B0000131013AF9D170477163020000000120F8
:1063C000FDD5020088ED00E0CCE502001822002097
:0463D000DC220020AB
:1063D40000487047B8310020F0B595B01C46164609
:1063E40008460D4605F01EFB1A9B0D93CDE9086483
:1063F40000242346082205A928460A948DF82C4037
:106404000C9405F02CFB079B0293069B03939DF8C9
:1064140014308DF8114003F00302012A1DD1BDF898
:106424001440059EC3F3C203C4F383148DF81030E3
:10643400A20008230EA9284605F011FBC6F39526F1
:1064440008AB0093224602AB0EA9304600F0B6FF1B
:10645400284605F0EBFA15B0F0BD022AF8D1BDF8D4
:106464001640C3F3C203A4098DF810300827082C82
:10647400264628BF08263B4632460EA9284605F084
:10648400EEFAA41B08AB02AA31460EA8374400F06A
:10649400F9FF002CEBD1DBE7014B01221A707047A6
:1064A400FD2300207047000070B50E4D06460FCD49
:1064B40088B06C460FC495E80F00002E84E80F00E6
:1064C4004FF00603084A0948009308BF00226946B2
:1064D40005F09EFD08B101F02FF8054B1E7008B0C1
:1064E40070BD00BF90E602009D640200DC22002023
:1064F400BC23002007B5044B0093044A4023FFF754
:106504006BFF03B05DF804FB15650200BD2300209A
:1065140038B50D4B0D4D002018700D4804782D5DD5
:10652400D2B21C4665B1043006F072FA08B101F02B
:1065340003F8084B1A7812B12378002BFBD038BD2E
:106544000C3005F0DFFFF1E7FD2300207C2C002058
:10655400DC220020BC23002008B50848084A037840
:10656400D35C3BB1043006F0EFF90020BDE80840ED
:10657400FFF79ABF0C3005F061FFF6E7DC2200203C
:106584007C2C002000230428CB604B6098BF044B74
:10659400044A98BF53F820308A600B60704700BFEC
:1065A40000E90200DCE80200CB6800225A7170475F
:1065B400C368DB6800225A717047CB6801225A71A4
:1065C4007047C368DB6801225A7170470D4A8A60BC
:1065D40070B50D4A0D4C0023121BCB604B600B6051
:1065E40012091D469A4207D0E6683679FF2E05D077
:1065F400854202D1A3680B6070BD013501331034AC
:10660400F0E700BF14E9020094E5020074E502001B
:106614002DE9F74F164D174C52F8047C0193641B77
:1066240006468946924624094FF00008444508D19D
:10663400114A3B460221304603B0BDE8F04F03F057
:106644000BB8A968384607F0A5FEAB46103510B163
:1066540008F10108EAE7DDED017A17EE90CA534626
:106664004A465946304603B0BDE8F04F604700BF84
:1066740074E5020094E502004CEA0200014BFFF7C6
:10668400C7BF00BF656C0200014BFFF7C1BF00BF6D
:10669400AD650200014BFFF7BBBF00BFBF65020041
:1066A400014BFFF7B5BF00BF9D6A0200037813F0EA
:1066B400040216D003F00303012B03D0022B09D0EC
:1066C400012070470A6800880232C0F38310024434
:1066D4000A60F5E70B684288023303EB92130B6000
:1066E400EEE71046704700002DE9F04F87B0002315
:1066F4000446851C0DF107000F4690468DF80730BF
:1067040001F016FA454806683E60D0E901321344A8
:1067140001339B1B824600F21C4600F5836900F29C
:106724001447AB421BD30022B8F1000F70D00523ED
:1067340063F3070264F38912DAF80010DAF8083018
:106744009DF807000B4003330D444AF82320CAF890
:10675400005001F011FA012007B0BDE8F08F0121CB
:10676400304602F084FA484602F09AFA384602F0BB
:1067740097FADAF80400DAF808B0029000EA0B009D
:1067840003300AEB800002A9FFF790FF029B50BB85
:106794000BEA03020AEB820203F1020CD2680392B1
:1067A400013303EA0B0B0AEB8B0B02F00302012A01
:1067B400CDF808C0DBF80C1022D0022A16D083468C
:1067C400384602F070FA10B1029BCAF804305946F8
:1067D400304602F04CFADAE901231344DAF80020D7
:1067E40001339B1A9DE70BEA0300C9E7BDF80E309D
:1067F4009B0903334FEA114B0CEB93030293DFE73E
:10680400BDF80C30C3F383134FEA114B6344F5E72F
:10681400062363F3070264F39F528DE7D02400201C
:10682400012907B5034604D08168D1F848118907C6
:1068340007D500221146184603B05DF804EB03F0B7
:1068440067BF53680193054B00931368044A022100
:1068540002F002FF03B05DF804FB00BFC6E60200CD
:10686400BCE602002DE9F3478368D3F84841C4F33A
:106874004004074634B10022114602B0BDE8F04797
:1068840003F046BF144E154DDFF85880DFF85890DA
:10689400DFF858A0AD1B2D09AC4202D102B0BDE80F
:1068A400F087F268B3681179FF2907D10C4A0821EF
:1068B400384602F0D1FE01341036EDE75279002A51
:1068C40014BF42464A46CDE90021384652460821C3
:1068D40002F0C2FEEFE700BF74E5020094E5020097
:1068E400ECE60200DBE60200E3E602000BE702004E
:1068F40030B50A4B0A4A0B49D21AD20800239A42ED
:1069040001D1052006E031F823500468A54202D1E4
:106914000360002030BD0133F1E700BFF4E402005E
:106924006CE50200642200202DE9F84F224B234835
:10693400FF229A600022C3F81824C3E90022C3F896
:10694400142483F8202405F026F8814688B91C48CD
:106954001C4E1D4CDFF87CA005F0C5F9A41BE4080F
:106964004D46A54208D10023184A19481946A342A6
:106974001BD14846BDE8F88F4FF00008474606EBA8
:10698400C50BBD420AD0142256F83710DBF80000BC
:1069940007F00DFC0028C8BF08F101080137BC420C
:1069A400EFD12AF825800135DBE720F8231042F8DF
:1069B400041B0133DBE700BFD024002094E5020070
:1069C400D0E80200F4E402006CE50200A0220020FA
:1069D400662200206422002007B5019031B9019A93
:1069E400064B53F8320003B05DF804FB01A8FFF72F
:1069F4007FFF0028F3D00020F5E700BFF4E4020095
:106A0400002310B5CB604B60034B8B600C46012117
:106A1400FFF7E2FF206010BDDCE80200094B0139FA
:106A240003EBC000032909D8DFE801F00A020406D9
:106A34000420704700797047407970470020704700
:106A440002207047F4E4020030B5114C00EB400022
:106A540054F821508240072383406A401A400D4B6A
:106A64006A40C2F3821044F8212003EB8101C2F38F
:106A7400C203834238BF0346C2F34220834202F07A
:106A8400070238BF03469A4238BF1A464A8030BDCF
:106A9400A0220020642200202DE9F74F06461D465F
:106AA4009046002A4FD0CB6828684B4993F804904D
:106AB400072207F07CFBD0B9B8F1010F07D1474A90
:106AC4000221304603B0BDE8F04F02F0C5BD444F8B
:106AD40004460A2257F8041B686807F068FB00287C
:106AE40073D00134052CF4D16B683E4A13E00822BC
:106AF4003D49286807F05BFB58B9B8F1010F04461B
:106B04002AD00127394A3A4B9B1A4FEAD30A9346B3
:106B140045E02B68374A0221304603B0BDE8F04F08
:106B240002F09ABD18F83530A3420FD2002128464E
:106B3400FFF752FF524603460221304602F08CFD15
:106B44000135BD42EED103B0BDE8F08F224629469F
:106B54004846FFF779FFF3E7244B254FDFF89CA065
:106B6400FF1AFF08002503F10608EAE7184600218A
:106B74000193FFF731FF0099202207F018FB019BD6
:106B8400014608B1013310E00BEBC3029279A24233
:106B940015D3224619464846FFF756FF01374745A5
:106BA400D1D255F82730009300239A45DED155F809
:106BB4002730114A0221304602F04EFDEEE7184616
:106BC400FFF70AFF0D4A0346F4E7B8F1020FE4B2F7
:106BD400C2D0022796E700BFA5E70200ACE7020097
:106BE400ECE8020017E80200C3E70200F4E4020044
:106BF4006CE50200CBE7020003E80200E0E70200D4
:106C040013460A46C168FFF747BF000013B50446A0
:106C14000191A3B162B9019A0F4B04EB440407201C
:106C240053F82230A0401840E040C0B202B010BD7A
:106C340001A8FFF75DFE0028EDD00020F6E72AB991
:106C4400019A064B03EBC2039879EFE701A8FFF71B
:106C54004FFE0028F1D1F3E7A0220020F4E4020063
:106C6400284B294A2DE9F04F9B1A4FEAD309CB68E8
:106C74005B7985B005460E461BB9244A022102F011
:106C8400EBFC234B234A244F0821284602F0E4FC62
:106C9400224A0821284602F0DFFC00244C4502D198
:106CA40005B0BDE8F08FF36893F8048001231A4619
:106CB40021464046FFF7AAFF0122214683460023CE
:106CC4004046FFF7A3FF0328034628BF03235FFAC8
:106CD40083FA804601212046FFF77EFE57F82A30CA
:106CE40001930F4A0F4B57F82B100091D04598BFD2
:106CF400134602930C4A03460821284602F0ACFCD2
:106D04000134CBE76CE50200F4E4020036E802004B
:106D140049E8020055E80200ECE8020073E80200CA
:106D2400DAF2020034E80200B0E8020013460A4630
:106D3400C168FFF795BF0000034BD3E90030C31AC5
:106D440058425841704700BFD02400202DE9F04F2D
:106D540087B0FFF7F1FF0646002840F01A818E4DF8
:106D6400C5F81804BFF34F8F6868AC6802902040E0
:106D7400033005EB800002A9FFF798FC029B18B1D1
:106D8400D5F81824002A66D004EA0302991C0133BA
:106D940005EB8202234005EB8303D268DB6804938E
:106DA40002F00303022B0392029169D1BDF80E3065
:106DB4007A489DF80C604FEA931ABAF1500FD14605
:106DC40028BF4FF0500969F38F1309F10801ADF89A
:106DD4000E3004F0F8FDC6F3C2068046002800F029
:106DE400BF8004F01FFE03A900230822404604F0DC
:106DF4002CFE029924EA01070137BF00B94538D9AE
:106E04005FFA89F997B3FFB2A9EB0709214003316F
:106E14005FFA89FBB946624F05EB810108234A46B4
:106E2400404604F012FE37B109F108035A463946C8
:106E3400404604F00AFE029B0AF1030A03EB9A039C
:106E44000293D5F81834002B50D1D5F81044DFF84C
:106E5400649107276FE02A689A4204D86A60304632
:106E640007B0BDE8F08F04EA030081E74C49BB4654
:106E7400D4E72140033108234A4605EB8101D7E7D3
:106E8400012B6DD1BDF80C604448C6F3831106296B
:106E940028BF062161F3891602318900ADF80C6020
:106EA40004F091FDC6F3C2068046002858D004F0D1
:106EB400B9FD0023082203A9404604F0C6FD0027BB
:106EC400BDF80C20C2F38312BB00974203F1080300
:106ED400B7D202994A1C21400331029205EB810189
:106EE4000422404604F0B1FD0137E9E7404604F0CE
:106EF4009DFDFFF721FF80F00100C6B2AFE7E36814
:106F04005A79B2B11B79BDF8101003EB430259F85A
:106F1400211007FA02F3052E03EA010323FA02F310
:106F240008BF0326B34204D3236841461B682046A6
:106F34009847E3681C68002CE1D1404604F076FDD4
:106F44000DF107008DF8074000F0F2FDD5F8183474
:106F54000BB9029B6B609DF8070000F00DFEC8E7BB
:106F6400D5F8104474B90F4B5B88012BC1D90E4B73
:106F74000E480F49C01AC008000440F0020000F097
:106F840073F8B6E7236820469B689847E3681C6853
:106F9400E8E7002663E700BFD024002094E5020060
:106FA400DC24002070220020F4E402000CE502003E
:106FB400FBEA0200A02200202DE9F74F284C80466E
:106FC4000F46924601A9012218469B46D4F8089020
:106FD400FFF78AFB80B3019D0026A91C5E4506EBE2
:106FE400010233D100211F4801F000FE80F310009C
:106FF4006A1C02EA090204EB8202000405EA09039E
:10700400033340EA1840D06014F8232068F3C50223
:1070140004F8232034F8232066F3891224F823206B
:1070240054F8232067F39F2244F8232002F0F80247
:1070340042F0010204F8232094F820341BB1FFF736
:1070440085FE0028FBD103B0BDE8F08F09EA0202F7
:1070540004EB82025AF82630D3600136BEE700BF43
:10706400D0240020EC28002000231A46FFF7A4BFF8
:1070740007B50123019201AAFFF79EFF03B05DF853
:1070840004FB07B5CDE9002302236A46FFF794FF0A
:1070940003B05DF804FB1FB5CDE90123069B039300
:1070A40001AA0323FFF788FF05B05DF804FB000085
:1070B4001C4A2DE9F843D2F81034074688460024C8
:1070C400194689B9F9680C71A3B9C2F810740B6038
:1070D400154B164DED1AED08002603F10709AE42D3
:1070E4000DD12046BDE8F883C9680879A04212D0C2
:1070F4000968E6E7DB681A680A601F60E8E719F8C0
:107104003620FB684245314628BF42461879FFF7CE
:107114009BFC0136E3E701340A2CD1D14FF0FF3454
:10712400DFE700BFD0240020F4E402006CE5020095
:10713400094A38B50123D2F8104482F820341D4698
:1071440004B938BDE3685D71236820465B689847DD
:10715400E3681C68F4E700BFD024002010B588B0B1
:107164000023CDE902330493CDE900331E4B1F4ABB
:1071740005931F4B06929B1A9B08079302AA6B4622
:1071840043F2274141F26E0001F0FAFBB0B905A9C0
:1071940002A801F09FFB174B5B88022B04460AD917
:1071A4001548164B1649C01AC0080004224640F080
:1071B4000300FFF75DFF204608B010BD0A2810D178
:1071C40005A902A801F082FB0A4B5B88022B044646
:1071D400F1D90948094B0B49C01AC00800042246DA
:1071E400E5E70324E7E700BF6E102734A022002060
:1071F400DC220020702200200CE50200F4E40200EE
:1072040099EA0200CAEA020010B58368D3F848314B
:107214009B07044605D500221146BDE8104003F043
:1072240077BAFFF79BFF30B9044A08212046BDE82E
:10723400104002F011BA024A0221F7E768E702009F
:1072440080E7020000B589B00023CDE90533079338
:10725400CDE9013305AA01AB43F2274141F26E00A7
:1072640001F08EFB90B9CDE9030003A905A801F054
:10727400CFFA40B90F48104A0499121A07F00CF8D3
:1072840005A801F001FB09B05DF804FB0A280FD141
:107294000A4B5B88012B09D909480A4B0A49C01AD1
:1072A400C008000440F00200FFF7DEFE0520EAE714
:1072B4000320E8E7A0220020DC2200207022002026
:1072C4000CE50200F4E4020074EA020010B58368DD
:1072D400D3F848319B07044605D500221146BDE882
:1072E400104003F015BAFFF7ADFF30B9044A082186
:1072F4002046BDE8104002F0AFB9024A0221F7E788
:107304002CE7020044E70200037A052B10B50C4673
:107314000FD0437A23B1084A0849204603F035FECA
:107324000749204603F031FE2046BDE8104003F033
:1073340021BE002AF8D0F3E77FED0200C3F2020079
:1073440012EF0200C38873B504460D4633B1144AE4
:1073540000921449144A284603F017FE217A05299D
:107364001CD0637A4BB1A088FFF758FB0F4B104930
:1073740053F82020284603F008FE227A0D4BA088FB
:1073840053F822600021FFF727FB0B4903463246DE
:10739400284602B0BDE8704003F0F7BD02B070BDEE
:1073A4007FED02008CED020084ED02004CED020042
:1073B400C3F20200B0ED0200A4ED02002DE9F04397
:1073C40085B01F460C9D002306460C46904695F852
:1073D4000C902B7329463846FFF7B4FFB8F1060F1B
:1073E40009D8DFE808F00412181F2833400031469A
:1073F400284603F0CAFD002229463846FFF784FFD9
:1074040085F80C9005B0BDE8F08322683146284623
:1074140003F0BBFDEFE7D4E900233146284603F02F
:10742400B4FDE8E7A36800933146D4E90023284675
:1074340003F0ABFDDFE7E3680193A36800933146F3
:10744400D4E90023284603F0A0FDD4E7236902937E
:10745400E3680193A36800933146D4E900232846E6
:1074640003F093FDC7E76369039323690293E36819
:107474000193A36800933146D4E90023284603F01E
:1074840084FDB8E708292DE9F84F80460E461746D3
:107494001C463AD8002593F80C901D7319461046E3
:1074A400FFF750FFDFF884A0DFF884B0AE422ED996
:1074B40018F805205946204603F067FD0135082DCC
:1074C400F4D11849DFF86CB0204603F05EFD4FF0AC
:1074D400000A564520D918F80A507E2D03D82846AC
:1074E40006F0A8FC00B92E252A465946204603F08A
:1074F4004CFD0AF1010ABAF1080FEAD10122214632
:107504003846FFF701FF84F80C90BDE8F88F514628
:10751400204603F03AFDD1E70349204603F035FD48
:10752400E7E700BF7AED020078ED020076ED020095
:1075340070ED02007CED02001FB50021039001AA4A
:1075440044F20100CDE9011100F004F805B05DF842
:1075540004FB000010B572B6FFF7EAFDFFF7F6FB77
:107564000028FBD1154C62884AB11548154B1649C1
:10757400C01AC008000440F00100FFF775FD134B6A
:107584001B68DB0700D500BE6388012B09D90C48B2
:107594000C4B0F49C01AC008000440F00200FFF76A
:1075A40063FDBFF34F8F0B490B4BCA6802F4E062D3
:1075B4001343CB60BFF34F8F00BFFDE77022002061
:1075C4000CE50200F4E40200FCED0200F0ED00E042
:1075D40008EE020000ED00E00400FA05094A5378C1
:1075E40091780133DBB2994208BF002311789942A4
:1075F4001FBF03705078182303FB002014BF04300E
:10760400002070478C29002073B5054600240DF135
:1076140007000E468DF8074000F08AFA0DF10600C7
:10762400FFF7DCFF90B10670094B9DF8062045601A
:107634005A709DF8070000F09FFA24B9054B4FF4E7
:107644008012C3F80021204602B070BD0424F0E784
:107654008C29002000E100E0024B4FF43C6043F031
:107664000103184720EE020038B50C4B0C4C4FF4C4
:107674000032C3F8802001254FF48033C4F8483326
:10768400C4F808336560FFF7E7FF064BA5600024E4
:107694001C60FFF7E1FF044B1C7038BD00E100E003
:1076A40000100140A82A0020992A0020F8B51F4B99
:1076B4001F491B680025C1F84051C1F84451C1F865
:1076C4004851C1F84C51C1F80051C1F804514BB3B1
:1076D400D1F8044517490968641A24F07F442F46F9
:1076E4001A68A24209D8A41A15441A7CDE691AB190
:1076F4001F74D3E905209047AEB90F4A0F4B117898
:107704001B788B4205D10133DBB2022B08BF002367
:10771400137012780A4B43F822500A4B4FF480122C
:10772400C3F80021F8BD3346DAE700BFAC2A0020D5
:1077340000100140A82A0020A52A0020A42A002025
:107744009C2A002000E100E02DE9F04FA14AA24963
:1077540013780978A14D994285B03CD00133DBB24E
:10776400022B08BF002313709D4912789D4B0F68AC
:1077740053F822003B1823F07F4300220B602B6850
:1077840016461446944613B942B12B6006E01968B4
:1077940081420ED902B12B60091A196001272B68A6
:1077A400DFF848A201934FF00008BEB9DFF844B2F5
:1077B40066E0401A0C44D968C3F800C0D3F81CE052
:1077C40031B13A1922F07F42C3E90121DE611E463C
:1077D40001227346D7E700263746E0E73446F669C8
:1077E4007F4A63681268DFF810C2A068991A21F012
:1077F4007F41614500F2A680014421600122227488
:107804002A680023C4E90133E361002A40F0A3801D
:107814002C60CAE75A1C9BF80210D2B291428BF832
:10782400002004BF00228BF80020182202FB03B3BF
:107834001A799C68022A1CD0032A12D0012A1FD16B
:10784400207CE8B9D3E90312A2605A69E2609A691C
:10785400654BA2611B78002B0CBF0B46034663608B
:10786400BEE700222B681146002B67D142B12B6082
:1078740006E029680A468946002A5AD1002323745F
:107884009BF800309BF801209A42C3D12B68B8F1D1
:10789400000F04D1019A9A4201D1002F43D0002B4A
:1078A40073D0D3F800A0514D4D4BD5F804751C6826
:1078B400DFF848813E1B98F8003026F07F460336F7
:1078C4009BB94FF48033C5F84433C5F80433484BAF
:1078D4004FF400324FF00109C3F880211A60C5F853
:1078E4000090FFF7B9FE88F80090B2452CBF5444CD
:1078F400A41924F07F44C5F84045D5F80435DB1BB2
:1079040023F07F43E41B033324F07F44A3420AD9CA
:10791400D5F80435C5F84035FFF79EFE344B4FF4D7
:107924000032C3F80021304B00221A7005B0BDE8C4
:10793400F08F94422CD09146D2699DE719740122AC
:10794400DB6991E7D31A23F07F43834234BFC31A20
:107954000023236052E721681368994213D8591A07
:107964001160E26154E7091AD8691A4638B103462E
:1079740018688842F7D3401A1860184613462160E5
:10798400E061DC6111E71346F2E7FFF76DFECAE739
:107994004C4511D1CB692B6073B9DFF844E0012069
:1079A400CDE90212CAF80800CEF800300E4B187068
:1079B400FFF752FEDDE902121368D269C9F81C20F0
:1079C40012B11068034413602B68994218BF4FF03A
:1079D400010853E7A42A0020A52A0020AC2A00208D
:1079E400A82A00209C2A0020982A00200010014088
:1079F40000E100E08C290020FEFF7F00992A00208E
:107A040008B5FFF731FE104B00200B2218809A7046
:107A14000E4B18600E4B18700E4B18700E4B4FF433
:107A24008012C021C3F8802183F814131A6002F174
:107A34008042A2F56F22C2F8080583F81113074BA0
:107A4400D2F804251A6008BD8C290020AC2A002035
:107A5400A42A0020A52A002000E100E0A82A002092
:107A6400074B9B784BB132B128B10368187C20B91D
:107A740059745A617047072070470820704700BF47
:107A84008C2900202DE9F7431E4FBB7805460E468E
:107A94009046A3B398B304292FD943697BB3437C9D
:107AA4000024012B0DF107000CBF8946A1468DF877
:107AB400074000F03DF80DF10600FFF78FFDD0B14F
:107AC40001230370104B4560D3F80435C0E90498D2
:107AD400C0E902369DF806307B709DF8070000F07F
:107AE4004BF824B9094B4FF48012C3F80021204607
:107AF40003B0BDE8F0830424EFE70724F7E7082484
:107B0400F5E700BF8C2900200010014000E100E0EF
:107B1400064A92783AB130B1426922B10022027425
:107B24000221FFF771BD0820704700BF8C29002097
:107B340070B5EFF3108672B60C4A946801239CB9B1
:107B440093600B4B0B4DD3F8801029401160C3F8A0
:107B54008050D3F8841051604FF0FF32C3F8842072
:107B6400047006B962B670BD0370FAE7B02A00204B
:107B740000E100E0FC06FFBD084B9A6810B55AB15D
:107B840050B9EFF3108172B6054A1C6814605C6842
:107B94005460986001B962B610BD00BFB02A0020DD
:107BA40000E100E02AB113880144884204D1184658
:107BB40070474FF6FF73F7E75BBA10F8012B9BB2DF
:107BC4005A40C2F30313534083EA03331BB25A01EE
:107BD40002F4FF5253409BB2E7E7000070B5064D34
:107BE4000646002455F8043B0BB13046984701344F
:107BF400042CF7D170BD00BFC82A0020033080B226
:107C040040F2FD33984230B51FD8124B1A783AB976
:107C14001C895D892C440444A4B2B4F5806F0AD352
:107C24001A7DA2B99A8BDC8B2244024492B2B2F53B
:107C3400806F0CD201220A801446142202FB043302
:107C44005A8910445881002030BD0920FCE70720E0
:107C5400FAE700BFFC2A00200B4A0C4B5188142081
:107C640000FB0131CB6833B904204968107001224C
:107C7400074803F03FBC05230649137002238B8099
:107C8400012200230968F3E7E02A0020FC2A0020EF
:107C940050220020B42B002007B50023054900938F
:107CA400054A09680548082303F064FB03B05DF83E
:107CB40004FB00BFB42B002034EE0200502200204D
:107CC40007B50023009301460823034A034803F041
:107CD40051FB03B05DF804FB2CEE0200502200209F
:107CE40013B500230C46009301460423074A0848B1
:107CF40003F040FB38B9074B142202FB0434012380
:107D0400237402B010BD0E20FBE700BF28EE020072
:107D140050220020FC2A002037B50A480A4B42684A
:107D24009C88196853880325033305709BB200208F
:107D340000909B0001EB8401044803F01BFB03B09B
:107D440030BD00BFE02A0020B42B002050220020C8
:107D540010B50146044800F0D4FE1C22044600215C
:107D640006F0C3FA204610BDF822002068B102686C
:107D7400084B9A4209D14068074B984207D0013317
:107D840098420CBF01200320704703207047002055
:107D9400704700BFDEC0ADDEFE011EF14388033331
:107DA40000EB8303994209D382884FF6FF739A420A
:107DB40006D00088B0FA80F040097047022070476E
:107DC400012070472DE9F8430223DFF860800B801F
:107DD4000D46174600F5805600F108044FF00109DE
:107DE400B4420FD2236801330CD031462046FFF74A
:107DF400D5FF48B10FB187F8009002280BD14FF49A
:107E040080632B80BDE8F883A368D8F800209342F0
:107E140001D9C8F800302B886288033313442B80BF
:107E24006388033304EB8304DAE700BFF42A0020F9
:107E3400154A142303FB002070B50B6844680D46F3
:107E440004F58056ABB15C88033403EB8404B4427C
:107E54000DD2236801330AD031462046FFF79EFF36
:107E640001280BD010F0FF0F05D00228EFD100201D
:107E740003E00834EBE72C60012070BD6388033312
:107E840004EB8304E3E700BFFC2A0020436873B5D6
:107E940004460D4663B3234AD1688B4228D3126942
:107EA400934225D813F0030022D11F4A2189128955
:107EB40091421DD121689A68914219D11B4A516897
:107EC4008B4203D901F580518B420DD392699342C1
:107ED4000CD902F58052934208D201232B80B0FAC8
:107EE40080F0400902B070BD0346F7E70A20F6E7C8
:107EF40000232B801E46019601A92888FFF798FFCE
:107F040030B92B8801339BB2012B2B80F3D9E9E7DD
:107F1400019B226899689142EED16360024B1B89F0
:107F24002381DFE750220020E02A0020FC2A0020E1
:107F34002DE9F8431C461C4B1B7806460F46154694
:107F44006BB372B36CB3DFF868804FF01409A38885
:107F5400012B01D90A2020E009FB03F318F80330B0
:107F64002BB92146A088FFF763FF20B92060A388BE
:107F74000133A380EBE723681EB1998832889142CC
:107F8400EFD11FB119883A889142EAD19A68C5E9BC
:107F94000023064B1B892B810020BDE8F8830220B7
:107FA400FBE70520F9E700BFD82A0020E02A0020DB
:107FB400FC2A002008B5074B191D5888FFF738FF25
:107FC40018B1BDE80840FFF7A7BEBDE80840FFF7B9
:107FD40043BE00BFE02A00202DE9F04FA04FDFF898
:107FE400A49289B00646B8463B6823B949469D48E1
:107FF40000F0C1FD3860D8F8005029784B1E052BDD
:1080040000F2FA80DFE813F006005E005E00EE0086
:10801400EE005C0126B1944B00225A600124ECE08E
:108024002B79032B1DD8DFE803F015022A358F497D
:108034000B78022B084619D00B7D022B4FF001035D
:1080440016D114225343C2180020C8545068FFF7B5
:1080540037FE03E001232B71FFF71EFE002800F01A
:10806400BC80814B00225A600E24C6E00023E8E75E
:108074007D4A13700023536041F61D54BDE07C49D2
:108084007C48002302222B718A800122096803F0B4
:1080940031FAE3E7764C00262E712068734DFFF722
:1080A4000FFE754BD4F800C05A8814235343EA18C2
:1080B400EE5451682160A188C2F804C011810222E3
:1080C400A280CBE7B5F814A0AA7DDFF8A0B1AEB1C9
:1080D400022AEB8806D9142101FB0AB1DA1C0889AB
:1080E40002440A81142202FB0ABAC3F57F43BAF898
:1080F4000A20FD331344AAF80A308FE7142303FB44
:108104000AB318895C6804EB8004062A68D8DFE89F
:1081140002F0274D35431D59040041F61D54AA7D34
:10812400EB88022A06D9142101FB0AB1DA1C08895A
:1081340002440A81142202FB0ABAC3F57F43BAF847
:108144000A20FD331344AAF80A3056E04B484C4940
:1081540000234360AB690360FFF798FE002871D0E9
:108164000223AB75002300930423EA1821464148F7
:1081740003F000F9002830D00E24D0E72B69002B3F
:1081840014BF03230123AB750023009305F10C02F4
:10819400042304F10801EAE70123AB750022EB880C
:1081A40000929B002A6904F10C01E0E703290CBF4B
:1081B40005230623AB7500230093042305F108026D
:1081C400E118D4E70623AB752D4B19882B4B58685F
:1081D400FFF786FD04460028A1D109B0BDE8F08F61
:1081E4000F249CE7002E7FF419AF2B79012B4BD081
:1081F400E3B1022B3FF440AF0F241422002103A863
:1082040006F073F841F61D539C4208BF0024D8F8C9
:10821400003004941A78023A042A00F20581DFE857
:1082240012F0E600F20015011D01240102232B7156
:108234000DF10A01EB68039303A8CDE90466FFF787
:1082440025FE08B90A24D8E70498BDF80A108388E3
:10825400EB8003882B81FFF743FD044627E000BF32
:10826400F82A0020F8220020D82A0020FC2A002026
:10827400B42B002050220020E02A0020BC2A002039
:10828400C02B0020F02A0020DFF8FCA103AA5346EB
:108294003146A81DFFF74CFE044658B9BAF804103D
:1082A4000498FFF71DFD04460A2C3FF4E5AE002CAC
:1082B400A3D192E708223146504606F016F8F3E7B8
:1082C400002E7FF4ABAE6B4B1A7BAAB11E731A78E7
:1082D400013A062A90D801A151F822F087830200BE
:1082E400AD830200CB830200D1830200FD81020032
:1082F400D7830200E98302001A78072AE7D801A18C
:1083040051F822F029830200D3820200D3820200B2
:108314004F8302006383020083830200838302008D
:108324004B8302001A89544901321A8100225A806F
:108334001A730A78B2FA82F252099A720A7DB2FA70
:1083440082F25209DA72012207E04C4958688A889D
:108354004088033202448A8002221A70B7E7464CEE
:108364005A884649142505FB02420868546850603F
:108374008888108102228A800C600622EDE7072299
:10838400EBE79A7A32B9DA7A8AB900221A705A80FB
:108394005A6071E6384900229A72CA68002AF2D1FA
:1083A400097C0029EFD05A80FFF704FE55E700222C
:1083B400DA72314A116A0029E7D192F82420002A9E
:1083C400E3D00122EFE7FFF7A7FC46E7FFF744FC01
:1083D40043E7294A5B88142101FB03235868FFF70C
:1083E4006FFC3AE700225A60FFF756FC35E701229A
:1083F4008DF80C201A89ADF818209A88DB68ADF83E
:108404001A20059310E002228DF80C201A89ADF889
:1084140018209A88ADF81A20DA689B7D05929A1F75
:10842400534253418DF81C3003A8FFF7D7FB0026B5
:1084340049461348C8F8006000F0C8FB0121114800
:1084440000F020FC00287FF4CFADC6E603228DF8AF
:108454000C20DA88ADF818201A89CFE70422DB88CB
:108464008DF80C20ADF81830DEE705238DF80C30BC
:10847400DAE700BFE02A0020FC2A0020B42B002009
:10848400F8220020B02B0020C42B00204068FFF706
:10849400A3BD000008B50121044800F0DDFB18B9B4
:1084A400BDE80840FFF798BD08BD00BFB02B002011
:1084B4002DE9F34198460023ADF802303F4B1B7879
:1084C40006460D46002B70D0002970D009884FF65F
:1084D400FF7399426DD06B88002B6AD06B689B0741
:1084E40069D142B92F8969463846FFF787FB30B115
:1084F40002B0BDE8F08113885788ADF8003001A8B8
:10850400FFF726FC044658B9BDF800302C4A142164
:1085140001FB032358890338C01B58810820E7E76F
:1085240000238375BDF8003083826B68036180F893
:1085340000800121234800F09AFB2B882381B8F1A5
:10854400030F6B88A38001BF0423A3753368A36161
:10855400E06000220621E780201DFFF723FB0DF1D8
:108564000202ADF80200042104F10C00FFF71AFB2B
:10857400A968ADF8020089000DF102026868FFF7EE
:1085840011FB01A9ADF8020060810F4800F0E3FA85
:108594003EB10023E2687360B3720C4B32601B89F6
:1085A4003381FFF777FF0020A2E70220A0E7052030
:1085B4009EE704209CE703209AE700BFD82A002006
:1085C400FC2A0020F42A0020F8220020E02A0020BF
:1085D40008B5084B1A68042A09D01968064A42F8F3
:1085E40021000121184600F042FB002008BD0C20A8
:1085F400FCE700BFBC2B0020C82A00202DE9F04F67
:1086040014228BB000210DEB020005F06EFE764AB9
:10861400137803F0FF01CDE901123BB105A8FFF780
:10862400DDFA002738460BB0BDE8F08F029B181D19
:1086340000F033FB0028F4D140F6F8734FF0805279
:108644001B685C1C08BF694B694C08BF1B68116937
:108654005269581C08BF02FB01F323610022A3F5F1
:1086640040536449E360204602F048FE0394074601
:108674000028D7D11C238C225F496048DFF88891F9
:10868400DFF8888100F008FABA463D464FF0030B44
:108694003C46039BDE68564430463146FFF766FB92
:1086A40001284DD042B2002A36D0032822D106F543
:1086B40080520868013040F08A8004319142F8D138
:1086C400D9F800203AB902220123C9F80060A9F8B8
:1086D400042001930CE014226243022008EB0201FF
:1086E40008F80200464A4E60548001340881A4B25E
:1086F40045F001050AF5805ABAF5405FC9D1BBF1CE
:10870400010F98BF0025EDB2022D03D0062D35D000
:10871400002D3CD10B2785E71421614308EB0100B0
:1087240008F8012001F11002083146604244414436
:108734003046FFF747FB45F002050134A4B2D9E700
:10874400019B63B11422624308EB0201022008F882
:1087540002000134D9F800204A600881A4B2002242
:108764002849C9F800603046FFF72CFBB9F804200B
:10877400022A0CBF042208221543BBE7029A0123F4
:10878400137005A800235360FFF728FA4AE704A8EA
:10879400FFF7DEFAC8B10123013D03700A2D09D8A1
:1087A400DFE805F006080608070807080F110F00A0
:1087B4000023037104A9114800F0CDF9FFF76AFE04
:1087C40030E70323F5E70223F3E708272AE70BF151
:1087D400FF321FFA82FB1422624308EB02014E604F
:1087E400032108F80210A8E7D82A0020141000106A
:1087F400502200207CF70200242B0020F8220020C5
:10880400E02A0020B82B0020B42B0020FC2A0020F2
:108814002DE9F3410E46054668B361B301A9FFF79C
:1088240035FB50B36C68002206212046B4F806805C
:108834006788FFF7B7F9791CADF806000DF1060259
:10884400890004F10800FFF7ADF9804517D10D4BFD
:10885400BDF80400142202FB003001210C3000F0AA
:1088640006FA6B6834600C3373600123AB7200202A
:1088740002B0BDE8F0810520FAE70A20F8E70D20F0
:10888400F6E700BFFC2A002013B50446A8B10DF199
:108894000601FFF7FBFA90B10B4ABDF8063014212C
:1088A40001FB0323DA6862B1A27A52B1DA680020CC
:1088B400013ADA60A07202B010BD0520FBE70A207D
:1088C400F9E70620F7E700BFFC2A00200223002274
:1088D400FFF7EEBD18B103230022FFF7E9BD052021
:1088E400704700000F4B1B7837B505469BB1A0B10C
:1088F40001A8FFF72DFA90B10423037000242B681C
:10890400C360047101A9084800F025F9FFF7C2FD0E
:10891400204603B030BD0220FBE70520F9E708201C
:10892400F7E700BFD82A0020F82200200E4B1B785E
:1089340007B5A3B101A8FFF70BFA90B106230370A2
:1089440001A90A4800F007F9094B1A780AB1012273
:108954001A73FFF79FFD002003B05DF804FB0220AB
:10896400FAE70820F8E700BFD82A0020F822002000
:10897400E02A00200B46002102460846FFF7D8BA39
:1089840007B5ADF80600ADF804100DF1060001A915
:10899400FFF7CEFA03B05DF804FB00002DE9F84FB1
:1089A4003B4B1B780446002B6ED000286ED012225D
:1089B4000021DFF8E0A005F098FC032323804FF0AA
:1089C400000BD04614274FF00109DAF80410BAF866
:1089D4000A50BAF808600846FFF7C8F9032808BF28
:1089E4002388628804BF03F1FF33238007FB0B83D2
:1089F4002E44DB681344638023891D4463892581E5
:108A0400B6B233446381C6F58066A389B6B2B34275
:108A140038BFA68101F1080501F58056AE4217D989
:108A24002B68013314D031462846FFF7B7F90128E3
:108A340019D010F0FF0F23D00228EFD1E38884F877
:108A44001090761BE589013305EBA605E380E581EB
:108A54000AF1140ABBF1000F02D00020BDE8F88F20
:108A64004FF0010BB1E7E3880133E380E3896A88BF
:108A740003331344E3816B88033305EB8305CDE7AC
:108A8400A3880133A380F6E70220E7E70520E5E7A2
:108A9400D82A0020FC2A002010B561B1B2FBF3F4FF
:108AA40003FB1424A4B244B9C0E900148460828195
:108AB400C381204610BD0E20FCE70920FAE782B0EE
:108AC40050E8022FC188B2EB324F4FF0000317BFBA
:108AD40092B241EA014142EA014104E04268B2EB48
:108AE400324F08BF012340E80212002AE8D18DF872
:108AF40007309DF80730002B0CBF1120002002B076
:108B0400704737B550E8013F9DB2C4892544848934
:108B1400A54228BF2D1B0489A54202BFBFF32F8F96
:108B2400002207E0C5EA030540E80154002CE9D11E
:108B34004FF001028DF803200193019B9DF803205F
:108B44000B6002F0FF0322B10B880068184403B0E5
:108B540030BD1846FBE70A884B889A4209D150E891
:108B6400012FC2EA024240E80123002BF7D1012081
:108B740070470020704737B550E8023F1FFAA3F54D
:108B8400C488A54202BFBFF32F8F00220DE0C48921
:108B940025448489A54228BF2D1BC3EA054540E826
:108BA4000254002CE8D14FF001028DF80320019308
:108BB400019B9DF803200B6002F0FF0322B14B8858
:108BC4000068184403B030BD1846FBE70A884B8898
:108BD4009A4209D150E8022FC2EA224240E8022315
:108BE400002BF7D1012070470020704750E8002F78
:108BF4000B4640E8003C9CF0000FF7D1104670474C
:108C040050E8002F42EA010340E8003C9CF0000FCA
:108C1400F6D11046704750E8003F43EA010240E8AD
:108C2400002C9CF0000FF6D11046704750E8002F3E
:108C340002EA010340E8003C9CF0000FF6D1104624
:108C4400704750E8003F03EA010240E8002C9CF022
:108C5400000FF6D11046704750E8002F02EB0103D5
:108C640040E8003C9CF0000FF6D11046704750E8F5
:108C7400003F03EB010240E8002C9CF0000FF6D10A
:108C84001046704750E8003FA3EB010240E8002C77
:108C94009CF0000FF6D1104670470121FFF7B0BFDA
:108CA4000121FFF7B8BF0021FFF7C0BF0021FFF784
:108CB400C8BF00002DE9F0478368D3F84841C4F3E6
:108CC400400488B0074634B10022114608B0BDE81C
:108CD400F04701F01DBD012906D91E4A022108B042
:108CE400BDE8F04700F0B8BC1B4D1C4EDFF870A087
:108CF4004FF06408A146761B1C23B6FBF3F6A6428C
:108D040005F11C0502D108B0BDE8F08755F81C0C2C
:108D140055E90623017900689A1A1B1ADBB20393FA
:108D240008FB03F3B3FBF2F3CDE9019335F8043CFC
:108D34000093CDE9061255F8083C11FB08F13846BA
:108D4400B1FBF2F1CDE904215246082100F084FC84
:108D54000134D4E774EE020094E50200CCE502008D
:108D640087EE020010B590B1D0E9012301689B1A87
:108D7400DBB20A60013BDBB2FF2B026802D10020A8
:108D8400107110BD11684C1C14600B70F2E70E20BA
:108D9400F7E737B5054600240DF107008DF80740C5
:108DA400FEF7C6FE2A686B68116899420ED9481E00
:108DB400106011F8014CEB68298B01FB0434AB689B
:108DC40011791B1ADBB2994238BF13719DF8070061
:108DD400FEF7D2FE204603B030BD37B5054600236A
:108DE4000DF107000C468DF80730FEF7A1FE2A6846
:108DF4001368591C1160E968641A298BB4FBF1F4F7
:108E04001C709DF80700FEF7B7FE03B030BD30B10B
:108E14008A68B2F8483143F02003A2F84831704719
:108E2400436810B59C686068036801219B68984793
:108E3400A36810B903221A7010BD0422FBE7096865
:108E4400006805F0A7BA08B105F0CBBA704738B589
:108E5400836805460068DC7FFFF7F5FFAB685A7E40
:108E64002044B0FBF2F302FB1300B0FA80F0400997
:108E740038BD10B584680068FFF7E5FFE37F627EC4
:108E8400A076C0B20344B3FBF2F102FB1133013309
:108E94002375A37F01311844A175B0FBF2F3591C6B
:108EA40002FB13030133E175637504F1140010BD73
:108EB40038B58368054600689C7FFFF7C4FFAB683C
:108EC4005A7E2044B0FBF2F302FB1300B0FA80F0A8
:108ED400400938BD2DE9F843089C1E460F46E1B908
:108EE400184D194C641BE408944204D9174800EB4C
:108EF4008208BC4201D100230AE06B68D8F8000064
:108F0400196805F047FAA946083520B9D9F804309C
:108F14003360BDE8F8830137EBE70028EBD0017834
:108F2400436839B12146104698472368002BE2D0A4
:108F34003460EEE7120199189B58002BDBD03160A6
:108F4400E7E700BF48E40200B8E40200182200206A
:108F540030B50368D3F8405185B00446EDB1002321
:108F6400092201A9284602F07AFD2368029AC3F86F
:108F740040210021092201A805F0B7F900230922A4
:108F840001A9284602F061FD284602F006FD236887
:108F9400D3F8400118B9C3F83C0105B030BD01A9AC
:108FA4000023092202F05BFD20680023092201A9A5
:108FB400D0F84001019302F048FDEEE707B583685D
:108FC400B9B1DA7E8A4211D00B4A009233228DF86D
:108FD400042001F12F028DF805206D22ADF8062042
:108FE400D9766A460549006901F0CFFF03B05DF800
:108FF40004FBD976024AF5E71B5B313BC3F202005E
:10900400A8EF0200836807B51A7F8A4213D045F699
:109014001B32ADF8002034228DF8022001F12F021A
:109024008DF803206D22ADF8042019776A460349B0
:10903400006901F0AAFF03B05DF804FBC3F202006B
:10904400014901F0A2BF00BFD9F202000A4600683C
:10905400014901F09ABF00BFD8EF020009B1FFF740
:10906400F5BF7047014A024901F08FBF9EEF02002D
:10907400C3F202002DE9F047002506460F461446C8
:109084000560207840B104F0D0FE60B1002304F8FC
:10909400013B33680B2BF4D93368002247F82320B3
:1090A4002846BDE8F08733685A1C326047F82340ED
:1090B400054694F80080B8F1000FEAD0002D40F086
:1090C4008280B8F1270F06D0B8F15C0F00F08380DE
:1090D400B8F1220F6FD12046FFF7B5FE611C02469E
:1090E400204604F027FF4546E3E72046FFF7ABFEA2
:1090F400611C0246204604F01DFF0025D9E73028F4
:1091040025D102234FF00008E05CA0F13001C9B280
:1091140007295FFA83F917D8013341EAC801052BFF
:109124005FFA81F8F0D199462046FFF78CFE09F1E9
:10913400FF3AA244821CA2EB09025146204604F0E5
:10914400F9FE04F8018BB4E7B9F1020FECD17828E9
:1091540037D102214FF00008635CA3F13002D2B290
:10916400092AC8B214D842EA081303295FFA83F81B
:109174000CD14FF0040A2046FFF765FE0AF1FF39CF
:10918400A144821CA2EB0A024946D7E70321E3E784
:10919400A3F16102052A03D8573B43EA0813E4E725
:1091A400A3F14102052A01D8373BF6E7022808D08B
:1091B4004FF0030ADFE7404604F037FE00287FF44F
:1091C40068AF013475E7A8458FD0B8F15C0FF8D1CA
:1091D4006078854293D12046FFF735FE04F10108FB
:1091E40002464146204604F0A5FE444661E72DE9C7
:1091F400F34106460F461446002514B902B0BDE8F3
:10920400F081706803682246D3F80C80791901ABA9
:10921400C047019B1D44E41A002BEED1B3681A78B1
:10922400032AEAD0D3F848219206FBD5B3F84821A3
:109234006FF34512A3F84821DFE72DE9F04F054607
:1092440085B090460F46002971D00024385D04F0A3
:10925400ECFD40BB5FFA88FB05F1100A3846FFF7C6
:10926400F2FDAB685B7E001BA3EB0803984207EB9F
:1092740004091AD94A46002612F8010B02930192F6
:10928400039204F0D2FDDDE9012320B112F8013C80
:109294000A2B35D03346A968487E08EB060188427C
:1092A4002DD90136E8E70134D0E74B460026B04219
:1092B40019D013F8012B0A2A04EB060A1DD12869D8
:1092C40001F058FE32462E4649462846FFF78FFFE6
:1092D40056F8100FFFF7B4FE5FFA88F130460AF132
:1092E4000104FFF7BBFE2869391901F04EFE286915
:1092F40005B0BDE8F04FFFF7A3BE0136D7E71E4621
:10930400286901F037FE324649462846FFF76FFFC9
:109314003444385D04F089FD38B92869FFF790FEBC
:1093240059465046FFF79AFE98E70134F1E705B035
:10933400BDE8F08F0A4619B10249006801F025BE64
:10934400704700BFDEEF02000A4619B10249006807
:1093540001F01BBE704700BFD2EF020070B5054696
:10936400FFF787FD83790278817801339A420446B6
:1093740001D1012915D0012905F1100604D90139BB
:10938400C9B23046FFF7D6FF2378A1798B4209D9B9
:10939400013B591AC9B23046FFF7D6FFAB68002229
:1093A400DA7770BD0131C91AC9B23046FFF756FEEB
:1093B400F4E7F8B50546FFF75CFD04468778C67800
:1093C4002846FFF744FD78B12869FFF739FEB74214
:1093D40005F110050ED161782378C91A2846C9B25F
:1093E400BDE8F840FFF7B0BF2846FFF761FD00284D
:1093F400EAD1ECE7A378E178C91AC9B22846FFF7A5
:1094040099FF237861788B42E7D9591A2846C9B263
:10941400BDE8F840FFF722BE2DE9F3410646806817
:10942400414F002480222146A0308DF8034004F0EF
:109434005CFF3E49306901F0A8FD306901F09AFDF6
:109444004FF47A7547F00107706803680122D3F876
:1094540010800DF1030101ABC047019B5BB94FF6CE
:10946400C010B847019B002BEED1013DADB2002DD9
:10947400EAD10D2033E09DF80330B1681B2B46D0B0
:1094840091F8A0201B2AEDD1522B40D10C4400238B
:1094940084F8A03091F8A1205B2A1DD101F1A2002B
:1094A400022510F8012B0135EDB23B2A6CB219D11B
:1094B400002C1FDB05F1A0040C44002214F8010B5E
:1094C400D0B9FA2A28BFFA22FA2B28BFFA230A7540
:1094D4008B7581F8A00002E081F8A0300B2002B067
:1094E400BDE8F08103EB830302EB4303303B802DA3
:1094F4009BB2D6D10C20F2E702EB820200EB4200D1
:1095040001353038EDB282B22806F3D4D6E70A1911
:109514000134E4B2092C82F8A030A3D9002381F8E5
:10952400A0300420DBE700BFF0EF0200C3EF02002D
:1095340038B50546FFF79DFC027843789A42044605
:109544008378C27801D1934214D09A4205D9D21AB1
:10955400D2B20B49286901F018FD237861788B4257
:1095640005F1100007D9591AC9B2FFF7EDFEAB682F
:109574009A7FDA7738BDC91AC9B2FFF76FFDF6E7EB
:10958400CCEF0200F8B51E46C3685B6805469860D8
:109594004068036817461C68294A2B46A0470446BE
:1095A400002844D1686902F0F6F9044600283ED147
:1095B400A8684FF4A6722146C0E94F4404F095FE12
:1095C400AB682048B3F8482142F02002A3F84821B0
:1095D400B3F8482167F38202A3F84821B3F848217D
:1095E40042F00802A3F8482101221A7045F2180239
:1095F4001A83154A154B9B1A4FEAD30C21460432A1
:10960400614516D1072B04D9114B0E48042204F0EE
:10961400AEFC66B19DF81810E868FDF749FD002816
:10962400A1BFEB68DB6801225A71B8BF042420464D
:10963400F8BD52F831703F6840F8047B0131DFE730
:10964400138E02001822002048E40200B8E402004D
:10965400438E0200FFF7CBBD0CB473B506AB0E46C8
:1096640053F8045B81680193D1F848315B070446E1
:1096740020D5CB7EB3421DD002221B31684604F0B4
:109684000BFE31462046FFF799FC01AA29462069C2
:1096940001F0F8FC9DF800102046FFF78FFC9DF8C0
:1096A400011011B12046FFF7ADFC02B0BDE87040D7
:1096B40002B0704701AA2946206901F0E3FCF4E7EF
:1096C400F8B504468068857FAB187F2B0F46164695
:1096D4003ADC002A38D0C37FED1A03F12001134489
:1096E4002033EDB201446A1C184404F023FCA06842
:1096F400C37F203332463946184404F01BFCA0686B
:109704002030FFF7A0FBA268D37F90772033134467
:1097140020460E4A0821FFF79FFFA368DA7F3244F0
:10972400DA772046FFF793FB40B12069FFF788FC06
:1097340055B12046BDE8F840FFF73BBE2046FFF791
:10974400B7FB0028F1D1F3E7F8BD00BFC3F2020074
:109754002DE9F04104468068D0F84831827FC3F394
:109764000008C37F5FFA88F7D51A0E46EDB2002FC2
:109774003ED17E2A40D83DB103F12001213301447A
:109784002A46184404F0D6FBA368DA7F1A4482F808
:109794002060002F72D19A7F0132D2B29A7713449B
:1097A40083F82080002D72D02046FFF762FB827878
:1097B400C3789A4204F1100620D1A268D37F2033E3
:1097C400134408212046354AFFF746FFE91BC9B276
:1097D4003046FFF7B9FDA268D37F0133D377204623
:1097E400FFF735FB10B32069BDE8F041FFF728BC53
:1097F4007E2AC9D9002DC7D1BDE8F0812069284A45
:10980400264901F0C2FBA268D37F203313442046CB
:10981400224A0821FFF720FF2069224A1F4901F04C
:10982400B4FB01213046FFF711FCD4E72046FFF7D3
:109834003FFB0028E0D02046FFF71BFBC27883786B
:10984400013AD21A12F0FF02054604F1100603D0C1
:109854001549206901F099FB2069FFF7F1FBE978CC
:10986400AB78C91A3046C9B2FFF764FD29780139CB
:109874003046C9B2BDE8F041FFF7F0BB002D93D1EB
:109884009A7F0132D2B29A77134483F82050324639
:109894000649206901F079FB9DE700BFC3F202008D
:1098A400A2EF0200A5EF0200CCEF02007CED020063
:1098B400F0B5826885B000250446CDE901558DF8E0
:1098C4000C50D2F844610F46002941D1002E3AD001
:1098D400FFF744FDA0683B46D0F84401092201A9E2
:1098E40002F0BDF8A068029BC0F84431857F002BCC
:1098F4004CD1A030FFF7A7FAA36830B303F1A0015D
:1099040003F1200004F024FDA0682030FFF79BFA47
:109914008DF80C009DF80C30A268AB42D377937796
:1099240002D22069FFF79EFBA3682D4A204620330C
:109934000821FFF791FE2046FFF789FA002848D056
:109944002069FFF77DFB05B0F0BD83F82000DBE75D
:10995400D2F84031B342F6D0D2F83C31002BF2D0E9
:10996400FFF7FCFCA368D3F8440130BB03F12000EB
:10997400FFF769FAC5B2A068D0F83C31C0F84431A9
:10998400C5B100F12001A03004F0E2FCA06801A9F7
:1099940000230922D0F8440102F061F8A0689DF880
:1099A4000C2000F1200109230132D0F8440102F017
:1099B40056F8AFE780F8A050E8E72B46092201A942
:1099C40002F04DF8A368019A9DF80C50C3F84421A5
:1099D400DCE72046FFF76CFA0028B1D1B3E700BFFB
:1099E400C3F2020038B504468068C37F857FED1A50
:1099F40015F0FF0540D003F12101203301442A462C
:109A0400184404F097FAA268937F013B93772046A9
:109A1400FFF72FFA8278C3789A4215D1A268D37FD0
:109A2400203313442046154A0821FFF715FE54F845
:109A3400100F1249124A01F0A8FA691E2046C9B251
:109A4400BDE83840FFF780BC0E4A0C49206901F09C
:109A54009CFA2069FFF706FBA268D37F20331344E6
:109A64002046064A0821FFF7F7FD2069064A034904
:109A7400BDE8384001F089BA38BD00BFC3F2020026
:109A8400ACEF0200A2EF0200A5EF02002DE9F041C5
:109A9400C3685B6890B004460D46002203A91868A9
:109AA40002F0D5F8002840F08B808DB1039801F0C6
:109AB400BDFFA268D2F838310133C2F8383103F05F
:109AC4000703012B04D00125284610B0BDE8F0811E
:109AD4002046FFF7CEF981780129064605D90139D8
:109AE400C9B204F11000FFF725FC3178012905D92A
:109AF4000139C9B204F11000FFF726FC2069FFF711
:109B0400B1FA2DB12F4A02212046FFF7A5FDDBE76C
:109B14000023082204A9039801F0A1FF069B0793E0
:109B2400059B08939DF810308DF8255003F003022F
:109B3400012A25D1BDF81060049F0398C3F3C20322
:109B4400C6F383168DF82430B20008230AA901F065
:109B540086FFC7F3952723690093324607AB0AA90A
:109B64003846FDF72BFC039801F060FFE3685B685F
:109B7400002203A9186802F06AF80028C8D0A2E7F6
:109B8400022AF0D1BDF81260C3F3C203B6098DF8FE
:109B940024304FF00808082E374628BF08274346CC
:109BA4003A460AA9039801F05AFFF61B236907AA4B
:109BB40039460AA8B844FDF765FC002EEBD1D2E77C
:109BC400002581E770EF020013B5436801A9002264
:109BD40018689C6802F03BF8014610B92046FFF76C
:109BE40055FF02B010BDF7B547680191BC68A36882
:109BF4001E78042E0ED001A9386801F053FF0546E3
:109C040050B9019801F00EFF032E03D129462046D6
:109C1400FFF73CFF03B0F0BDF11E18BF0121204641
:109C2400FFF734FFE7E700002DE9F04F04468068B2
:109C3400A5B0102100F5A470FEF7EDFFA3681B7812
:109C4400022B40F0938000230B9360680368012289
:109C54001D690DF12B010BABA8470B9B002B6CD09E
:109C64009DF92B30002BF0DB01F003FFA068437853
:109C74000593022B00F20685DFE813F00300440489
:109C84004B049DF82B500D2D31D00A2D2FD0B0F858
:109C940048316FF38D13A0F84831092D00F0FD8190
:109CA40000F2EA81002DD0D0082D00F0D18328469F
:109CB40004F0C0F80028C8D0A3689DF82B10D3F88E
:109CC4004851C5F3C00515F0FF0F40F01683987F87
:109CD4007E28BAD8DE7F721CD2B2DA771E441A44C8
:109CE400013086F8201082F820509877ADE7D0F83C
:109CF400483113F47F5F05D0D0F84831C3F387139C
:109D04009D42CAD1B0F8483165F38D13A0F84831AB
:109D1400837F002B37D1C0F844312069FFF790F9D5
:109D2400A36802221A700022DA8383F820202368B1
:109D3400B14A03212046FFF78FFC00212046FFF79C
:109D4400A5FE98B12368AC4A03212046FFF784FCA2
:109D5400A368D3F84821120708D520462033A64A21
:109D64000821FFF779FC2046FFF723FB206901F067
:109D740001F9A0686FF0100100F5A470FEF761FF0F
:109D840025B0BDE8F08F90F82030002B5CD1A0689E
:109D94002030FFF758F8A3680026C5B2C3F8446121
:109DA40015B3D3F83C01002800F08F803346092214
:109DB40017A901F054FE9DF864309D4240F085805F
:109DC400A068092300F1A0016A1CD0F83C0101F04D
:109DD40046FEA06800F1A001203004F0DBFAA3687D
:109DE400002870D183F8A0002046FFF7A1FB20468D
:109DF400FFF72DF810B92069FFF722F9A26817A917
:109E040020320EA8FFF736F90E9A0346002A84D0B2
:109E1400002840F0A080794F794EF61BF6080546DD
:109E2400AE42179B40F09D80764A00920221764A0A
:109E34002046FFF711FC73E70135B5F5807F04D1A7
:109E4400002283F82020A2E70025A3682B44EEB269
:109E540093F8200003F0E9FFA3680028ECD16EB169
:109E64009A7F03F120000132521B411904F062F879
:109E7400A268937F9B1BDBB29377D377A568AB7FF4
:109E84001F331D445FFA85F8A946EFB2A8EB070615
:109E940099F80000F6B2013D03F0C7FF0028F3D1A2
:109EA400A268937F03F11F01114489453FF46FAF0A
:109EB4009E1BA7EB080716443B44DBB286F8200040
:109EC4009377D37763E783F8A060082705F10A0640
:109ED40004EB07083146606901F075FD054600286A
:109EE40033D0A368D3F83C01A8B9C3E94F55CDE9F1
:109EF40017009B7F8DF8643017A928460023092298
:109F040001F0A3FDA1688A7F09230132203128468C
:109F140001F09BFD68E70023092217A901F09FFDCA
:109F2400A06818950023092217A9D0F83C0101F074
:109F34008CFD00231893A368D3F83C2117929A7FD1
:109F44008DF86420C3F83C51D6E74046FFF700F88B
:109F5400013FBFD148E72D4A02212046FFF77CFB91
:109F6400DEE67A681846116804F014FAB846083731
:109F740018B10135AE42BFF453AFA06800211022DE
:109F840004300F9104F0B1F9D8F80450EB682BB108
:109F940095E80F00A668043686E80F00D5F808B0E7
:109FA400DFF86C90DFF86CA017AF00264FF00108C3
:109FB40000250E9B43450BD94946786804F0EAF91D
:109FC40050BBA268B2F8483143F00203A2F848310A
:109FD400A3681B69002B49D00E9917AA02EB8602CD
:109FE400891B20469847A368B3F848216FF34102C0
:109FF400A3F8482194E600BFC3F2020048E402003B
:10A00400B8E4020054F2020092F1020040F20200AD
:10A0140068F202006BF202005146786804F0BAF963
:10A024000028CED013AB00932A460FAB41465846C6
:10A03400FEF750FF6A1CCBD00F9B002BC8D01968C9
:10A04400786804F0A7F901350028B2D10F9DEB68B8
:10A0540033B195E80F00A668043686E80F0046463B
:10A0640008F10108D5F808B00437A1E7A54A022190
:10A074002046FFF7F1FAB6E71B2D0BD07F2D7FF4B6
:10A0840016AED0F8483118077FF5DFAD2046FFF74C
:10A09400A9FCDAE501234370D7E5D0F848311B0762
:10A0A4007FF5D3AD837FC3F17F0313F0FF030393E5
:10A0B4003FF4CBAD00F12001C27FA03004F0ECF8F6
:10A0C400A368DA7F1344002583F8A050D87F03F0F7
:10A0D400ACFEA2680690431B18BF0123C2F844518A
:10A0E40017A9A0320CA80793FEF7C4FF1798FEF730
:10A0F400AAFE059B0493CDE90D55C7B21E460295F1
:10A10400AB46A9460C9B23B1079A013B1344B342C7
:10A114007CD8069B002B38D124AB03EB860353F881
:10A12400340CFEF790FEC7B224AB03EB86034FF06A
:10A13400000A09930AF1010308930FAB00935246F6
:10A144000DAB31462846FEF7C5FE0D9B002B00F0F3
:10A15400C1801968099B3A4653F8340C04F027F877
:10A164008046A8B9029B013302930D9B18680E9B8D
:10A174008BB9FEF768FE039AC3B20493DB1B9A42C1
:10A1840001DDDBB20393D34631E0059FCCE7D14632
:10A19400DDF820A0CEE7FEF756FE049BC0B2834252
:10A1A40038BF03460493039B0BB313AB00932846B9
:10A1B4000EAB4A463146FEF78DFE0D9B18680E9B8A
:10A1C400D3F800C007EB08025FFA88F1835C2BB96F
:10A1D400039B8B4228BF0B46039308E01CF8022024
:10A1E4009A42F5D108F10108B8F5807FEAD10D9BB8
:10A1F4000E93089B002BCAD1434A04212046FFF743
:10A204002BFA002D6AD14FF0FF3965E024AB4FF0F3
:10A21400000803EB860A0FAB009342460DAB3146B0
:10A224002846FEF757FEB8F1FF3F05D1364A042110
:10A234002046FFF711FA08E50D9B002B3FF405AD0E
:10A2440019685AF8340C04F0A5F808F1010800283C
:10A25400E1D10D9B9D68002D45D1029B002B3FF45D
:10A26400F4AC012B6FD12B783BB10FAB00934A4672
:10A274000EAB31462846FEF72DFE0E9B1868FEF7FE
:10A28400E2FDB84206D00E9B039A19682046394471
:10A29400FFF716FAA368DA7F134493F8200003F05B
:10A2A400C4FDA368002831D1D3F84821D70723D5AA
:10A2B400B3F8482160F30002A3F848212021204686
:10A2C400FFF746FAA268B2F8483143F00103A2F856
:10A2D4004831BAE4002DC0D10025BEE70D9B4FF0F4
:10A2E400FF39002BB9D00C9B079A0136F6B2134400
:10A2F4009E42FFF407AFB0E720212046FFF728FA7B
:10A30400A3E400BF72F2020090F20200DA7F9B7FA6
:10A314009A42BFF49AAC2046FEF7ABFDA26885785A
:10A32400D37F0133D3772046FEF7A3FD8378AB4276
:10A3340005D1012104F11000FEF788FE85E42069AF
:10A34400FEF77EFE81E4A368DFF8649300225A7767
:10A3540024AB03EB860306930BF1010305930FABC8
:10A3640000935A460DAB31462846FEF7B3FD0D9BCC
:10A374001968069B3A4653F8340C03F018FF70B979
:10A38400029B013B02930D9BD3F800B0BBF1000F7D
:10A3940008D1A36883F81DB0029B002B3FD0DDF8E1
:10A3A40014B0D9E74846FEF74EFD049BA268184452
:10A3B400C3B2484692F819800893FEF744FD07900B
:10A3C4005846FEF740FD089B079A181A5FFA80FA70
:10A3D400A068417FA8EB0208B8FBF3F3DBB2B1FB42
:10A3E400F3F203FB121301F1010C13F0FF0F80F8D9
:10A3F4001DC00DD1CDF800B04B46A34A072120461D
:10A40400FFF72AF9514604F11000FEF727FEC3E7CF
:10A414005B469E4A07212046FFF71EF9F2E72368B0
:10A424009B4A20460321FFF717F9A368974A203374
:10A4340008212046FFF710F92046FEF7BAFF0E9BCD
:10A44400039A196820463944FFF73AF9FFF7FDBB30
:10A45400D0F848311E077FF5F8AB867F002E3FF415
:10A46400F4ABC37F002B3FF4F0ABF61A03F12001E9
:10A47400F6B21F33721C0144184403F05BFDA36859
:10A48400DA7F013ADA779A7F013A9A77002E37D049
:10A494002A468049206900F078FD2046FEF7E9FC51
:10A4A4008278C3789A4213D1A268D37F2946203395
:10A4B400254613442046754AFFF7CEF855F8100F89
:10A4C400FEF7D0FD31462846FEF73EFFFFF7BDBB41
:10A4D400714A6E49206900F058FD2069FEF7C2FDFB
:10A4E400A268D37F203313442946684A2046FFF7E5
:10A4F400B3F86A4A6549206900F047FDFFF7A5BB38
:10A50400674AF7E79DF82B305B2B40F0BB800223B2
:10A51400C1E500234370D0F8483119077FF50DAC2D
:10A524009DF82B30313B1B2B3FF68FAB01A252F829
:10A5340023F000BF55A6020063A6020083A6020012
:10A5440047A602004F9C02004F9C02004F9C020051
:10A554004F9C02004F9C02004F9C02004F9C020043
:10A564004F9C02004F9C02004F9C02004F9C020033
:10A574004F9C0200A9A50200B5A50200B9A50200DE
:10A5840005A602004F9C02004BA602004F9C02004D
:10A5940059A602004F9C02004F9C02004F9C0200EF
:10A5A40067A6020001212046FFF782F9FFF74DBBA1
:10A5B4000021F8E72046FEF75CFC037842789A42D3
:10A5C400054604D18178C27891423FF43EAB6A7962
:10A5D4009A4204F110060ED132492069012200F09A
:10A5E400D4FC69793046FEF7AFFEA268D37F01330D
:10A5F400D377FFF72ABB01213046FEF727FDF4E7A6
:10A604002046FEF736FC8379027801339A420546E8
:10A6140003D18378012B3FF418AB012A20690BD1B5
:10A62400214900F0B2FC697904F11000FEF716FD2F
:10A63400A268D37F013BDBE701221C4900F0A5FCA3
:10A64400F6E7032343702046FEF772FFFFF7FDBAD7
:10A65400032343702046FEF781FEFFF7F6BA032377
:10A664004370D0F84831B0F8482103F0010383F077
:10A67400010363F30002A0F84821FFF7E6BA0323BD
:10A684004370FEE4002306E5BCF20200C3F20200BC
:10A69400C2F202007CED0200A2EF0200A5EF02006C
:10A6A400BFEF0200CCEF0200DEEF0200D2EF0200A7
:10A6B40077ED0200836870B51E78012E044620D120
:10A6C4004068036800219B6898470546B8B908218B
:10A6D4002046FEF773FC31462046FEF793FC0A49F8
:10A6E400206900F052FCA3680222DD8383F8205025
:10A6F4001A7003212368054A2046FEF7ADFF284659
:10A7040070BD0825FBE700BFD8F20200C3F20200C7
:10A714002DE9F04F044689B07E48DFF81C921746B5
:10A724000E4603F05EFE05467B4803F05AFEA3681E
:10A73400CDF80090794A5B6808212D1A2046FEF76F
:10A744008BFFA3685868FEF77EFB8046484603F0FB
:10A7540048FEA36808EB000292B299682046FEF70F
:10A764006CFD6F4A00212046ADB2FEF775FF3FB184
:10A7740036B14FF00C09B04609FB0769C84527D12B
:10A78400654803F02EFE02300544ADB2614B0093E0
:10A7940005F10308634A082120462B461FFA88F86E
:10A7A400FEF75AFF424660492046FEF746FD36B1A1
:10A7B4000C23DFF8709103FB0767BE4222D1A36824
:10A7C400D3F80C80B8F1000F5AD109B0BDE8F08F6E
:10A7D400D8F80400FEF737FB8246D8F80000FEF7ED
:10A7E40032FB5044A8420AD9D8F80400FEF72BFBE8
:10A7F4000546D8F80000FEF726FB0544ADB208F183
:10A804000C08BBE7D6E9002393B34AB30192424A4A
:10A8140000920821454A2046FEF71EFF7068FEF7A5
:10A8240012FB83463068FEF70EFB82463A4803F07B
:10A83400D8FDA5EB0B03A3EB0A031B1AD9B204F151
:10A844001000FEF70BFC3A223949206900F09DFB09
:10A85400B16889B142462046FEF7EFFC0C36ACE7FE
:10A8640000932B464A4608212046FEF7F5FEEFE703
:10A87400002AEDD00092F4E72069FEF7E1FBEDE752
:10A8840000220392174604AE009603AB0121404612
:10A8940002F10109FEF71EFB039D5DB12868FEF776
:10A8A400D2FAB84204D9039B1868FEF7CCFA87B2EF
:10A8B4004A46E9E7B9F1010F87D01E4ADFF864A0E0
:10A8C40029462046FEF7C8FE2A46BD1CADB203AB9E
:10A8D40000960121404602F10109FEF7FBFA039BB1
:10A8E400002B3FF472AF1B68009308212B4652469D
:10A8F4002046FEF7B1FE039B596831B17A1D92B22E
:10A904002046FEF79AFC4A46E1E72069FEF798FBE9
:10A91400F9E700BFF6EF0200E8F20200BDF2020020
:10A92400F1F10200FBF1020003F2020016F2020050
:10A934007CED02001FF20200C8EF02000022114663
:10A94400FFF7E6BE022910B5044608D18368D3F8A0
:10A9540048319B0703D5BDE81040FFF7EFBF2069DE
:10A96400054A064900F011FB2069054A0349BDE880
:10A97400104000F00ABB00BFB0EF0200C3F20200B7
:10A98400B4EF0200012906D0022906D18368D3F866
:10A9940048319B0701D5FFF7D1BF024A0221FEF7D8
:10A9A4005BBE00BF72F2020038B58368D3F8484139
:10A9B400C4F340040D4634B100221146FFF7A8FE4B
:10A9C4002546284638BD0029FBD05B68024A02218F
:10A9D400FEF742FEF5E700BF1CF10200012937B57E
:10A9E4000546144604D103B0BDE83040FFF7A6BFC6
:10A9F400023918BF0121FFF7D7FF48B963680193F3
:10AA0400044B0093044A236802212846FEF724FEDF
:10AA140003B030BDC6E602008FF10200012907B57C
:10AA240004D103B05DF804EBFFF788BF02290AD113
:10AA340053680193084B00931368084AFEF70CFE11
:10AA440003B05DF804FB8CBF0121002103B05DF865
:10AA540004EBFFF7A9BF00BFC6E602008FF10200B6
:10AA640011F1FF3110B518BF01210446FFF79CFF17
:10AA740040B9054A0549206900F087FAA36845F200
:10AA840018021A8310BD00BFB9EF0200C3F202001E
:10AA940001292DE9F3410446154637D18668FEF7AE
:10AAA400BBFC38BBA36804F11005FA21284693F8CF
:10AAB40014809F7DFEF7CAFA20691E49FA2200F02D
:10AAC40064FA2046FEF7A8FCA0B9A368197D717644
:10AAD400A368A1EB08019B7D33762846C9B2FEF733
:10AAE40033FC317EC91BC9B2284602B0BDE8F0412F
:10AAF400FEF720BCA36845F218021A830E4A04210B
:10AB0400204602B0BDE8F041FEF7A6BD022994BF7D
:10AB140000210121FFF748FF48B96B680193074BF7
:10AB240000932B68064A02212046FEF795FD02B0E9
:10AB3400BDE8F081CCEF0200B7F10200C6E60200E6
:10AB44008FF102002DE9F04111F1FF3186B018BFF9
:10AB540001210546FFF728FF40BBAB68DFF85480AE
:10AB6400D3F840610446EEB1082C1BD030460023D4
:10AB7400092203A900F073FF9DF81420A968304648
:10AB840009230132A03100F06AFFAB68049EA033B0
:10AB94000093671C2346424600212846FEF75CFDCD
:10ABA4003C46E0E7AB68002283F8A02006B0BDE88D
:10ABB400F08100BFADF1020011F1FF3110B518BFF3
:10ABC40001210446FFF7F0FE30B9A368B3F8482129
:10ABD40060F38202A3F8482110BD11F1FF3110B5D2
:10ABE40018BF01210446FFF7DFFE30B9A268B2F8AE
:10ABF400483143F00403A2F8483110BD11F1FF318C
:10AC040010B518BF01210446FFF7CEFE30B9A36882
:10AC1400B3F8482160F3C302A3F8482110BD11F131
:10AC2400FF3110B518BF01210446FFF7BDFE30B94E
:10AC3400A268B2F8483143F00803A2F8483110BDC5
:10AC4400022973B50D4694BF00210121044616461E
:10AC5400FFF7AAFE014658B9022D0BD17368019380
:10AC64000C4B00930C4A336829462046FEF7F4FC4B
:10AC740002B070BDA368094AD3F8483113F0080F35
:10AC8400074B18BF1346074A204602B0BDE8704080
:10AC9400FEF7E2BCC6E602008FF10200CB0503001A
:10ACA40098F102009CF1020011F1FF3110B518BFB8
:10ACB40001210446FFF778FE48B9A368C3F83801B8
:10ACC400E3685B68BDE81040186801F008B810BD7F
:10ACD4007FB511F1FF3118BF01210446FFF764FE6F
:10ACE4000546B8B9E3685B681E68304600F0F4FFB7
:10ACF400B268A168C0B2CDE9010264234343B3FB47
:10AD0400F2F3DBB20093D1F83831034A29462046E6
:10AD1400FEF7A2FC04B070BD58F102001A60C068CE
:10AD24001A4601F0B3B8000010B4074C0378E35C92
:10AD340023B104305DF8044B01F06ABE0C305DF8B9
:10AD4400044B01F0DFBB00BF7C2C00204069054AA6
:10AD54000378D35C13B1043001F014BF0C3001F05C
:10AD64009DBC00BF7C2C00200378044AD35C13B143
:10AD7400043001F0E9BD0C3001F060BB7C2C0020F4
:10AD840010B504464069FFF7EFFFA368BDE8104023
:10AD94001868FCF7BDBE000037B51A6004461A46B1
:10ADA400006900F0FAFF054608BB6069134A03789E
:10ADB400D35CFBB1043001F06DFEC0B9FF230193F5
:10ADC40001AA01236946206901F025F878B99DF8A4
:10ADD400042000996069FFF7A7FF636893F829309E
:10ADE400054623B118B90199206901F08EF8284667
:10ADF40003B030BD0C3001F0CDFBDEE77C2C00202D
:10AE040037B5FF23044600936A46012301A9C068AD
:10AE140000F072FF98B9009888B163690B4D0199ED
:10AE2400C2B21878285C60B1181D01F03FFE30B939
:10AE3400A368224640F6CD411868FCF723FE03B010
:10AE440030BD03F10C0001F0B1FBF0E77C2C0020D5
:10AE540073B50378FF26012B05460C4601960BD0EB
:10AE6400BBB1022B06D1017AE06800F07FFF2046D7
:10AE7400FFF7C6FF02B070BD017AE06800F076FF0C
:10AE84002B7A002BF3D063680020D3E9002190478C
:10AE9400EDE7017A206901F038F801AA0123694637
:10AEA4002069019600F0B7FF019A22B1D2B200994D
:10AEB4006069FFF739FF63680120D3E900219047F7
:10AEC400D8E7000038B5436893F8283004460D46A7
:10AED4000BB383681868FCF71BFE30F008030ED12F
:10AEE40075B16069FFF740FF61686069002208314D
:10AEF40001F08EF868B96368012283F8292038BD0F
:10AF0400636893F8283043B12046BDE83840FFF722
:10AF140077BF0620F3E70029E3D1064AA0680021A1
:10AF2400FCF79EFD6368012283F828200028EBD0FB
:10AF3400E5E700BF51AD020038B5044640680D4650
:10AF4400C0E90023002303852022083003F0A4F97C
:10AF54002C612946064A606901F05AF8054628B969
:10AF6400E06800F0C0FE206900F0BDFE284638BD50
:10AF740055AE0200826810B504462AB143690168DF
:10AF8400006998470023A36010BD0EB403B503996C
:10AF940021B104AB01AA019300F074F802B05DF88A
:10AFA40004EB03B070470A2938B504460D4602D1B4
:10AFB4000D21FFF7F8FFA3682268591CA160D5543E
:10AFC400D4E901329A4204D32046BDE83840FFF761
:10AFD400D1BF38BD2DE9F84F9946DDE90A4317463C
:10AFE400824688460A460126BA420FD24E4538BFE9
:10AFF4004E4613F0010B01D164B900240125B9F1C7
:10B00400010F1AD909F1FF397D43F8E7B2FBF7F2D2
:10B014000136E9E79B070ED5B9F1000F0CBF3025C7
:10B024002025A642EAD2013C29465046FFF7BBFF41
:10B03400002CF6D1E1E72025F3E7B8FBF5F39F42B6
:10B04400E2D9DFF83C90B8FBF5F3504619F8031049
:10B0540005FB1388FFF7A7FFB5FBF7F3BD4207D243
:10B06400BBF1000F02D00CB1A64203D3BDE8F88FA8
:10B074001D46E8E720215046013CFFF794FFF2E724
:10B0840091F502002DE9F74F054617468846002939
:10B0940000F0308118F8011B49B92B7B002B00F01C
:10B0A4002981284603B0BDE8F04FFFF763BF252987
:10B0B40040F0C080002698F800302D2B424608F15D
:10B0C400010823D0302B24D02B2B25D000242A2B6D
:10B0D40002F1010123D13B681A1D1B683A601C442C
:10B0E4000A4613782E2B26D101324FF00009104660
:10B0F40010F8011BA1F1300CBCF1090F1DD80A2373
:10B1040003FB0913A3F130090246F0E746F00106F8
:10B11400D1E746F00206CEE746F00406CBE711F885
:10B12400013CA3F130000928DBD80A2202FB0434D5
:10B13400303C0A46CBE74FF0000912F8011B01F03E
:10B14400FB0068289046F8D069290ED04AD85829BF
:10B1540064D006D825296DD098F80030002B99D1F9
:10B164009BE7632962D06429F6D13A68D2F800A03B
:10B17400111D8AEAEA723960A2EBEA724FF0010B00
:10B18400092A5BDCCB4538BFCB462CB1BAF1000FA2
:10B1940001DB720700D5013CB30702D5B9F1000FFA
:10B1A40004D0F00702D4002C4ED10024BAF1000FD1
:10B1B40052DACAF1000A2D212846FFF7F4FE06F000
:10B1C4000302022A05D1B9F1000F02D1002C47D1A4
:10B1D4000024CDE900464B460A2251462846FFF793
:10B1E400F9FEB9E773294CD014D87029B4D13B685F
:10B1F4001A1D3A60302128461C68FFF7D4FE7821D6
:10B204002846FFF7D0FE00220823CDE9003221466C
:10B214001022E3E775292BD078299DD139680A1DBE
:10B224003A60CDE900464B46102228E03B681A1DDF
:10B2340019783A602846FFF7B6FE8DE70A230BF12A
:10B24400010BB2FBF3F29BE7A345AFD220212846C2
:10B25400013CFFF7A8FEA6E77107B0D52B21ABE7A9
:10B26400A345B6D230212846013CFFF79CFEADE74A
:10B274003968CDE900460A1D3A604B460A2209683E
:10B28400ACE73B681A1D3A6016F00106D3F800A03B
:10B2940020D1BAF1000F03D0504603F0A2F80646BD
:10B2A400B44200D9C4B90AF1FF3A1EE02846013677
:10B2B400FFF779FE1AF806100029F7D1A642BFF469
:10B2C4004BAF002C3FF448AF20212846013CFFF748
:10B2D4006AFEF3E70026EDE720212846013CFFF74C
:10B2E40062FEDDE72846FFF75EFE1AF8011F00291B
:10B2F400F8D131E703B0BDE8F08F000007B50B4685
:10B30400A0B9154B5B886BB1144B1548154AC01A8C
:10B314000E23C0080093144B0004144940F00100AC
:10B32400FBF7B9FE0E2003B05DF804FB6BB90A4BC2
:10B334005B88002BF6D0094B09480D4AC01AC00897
:10B344000E2300930004084BE7E703601B681146D3
:10B3540003B05DF804EB184788220020F4E40200EF
:10B364003CE502004EF60200A1F5020053F602008D
:10B37400CAF602002DE9F3419646B0B9504B5B88FA
:10B38400002B00F095804F4B4F48504AC01AC0081C
:10B394000E244F4B009400044E4940F00100FBF78B
:10B3A4007AFE204602B0BDE8F0816AB9444B5B885E
:10B3B400002B7DD0434B4448474AC01AC0080E2492
:10B3C40000040094424BE7E7D0F800C0BCF1000F42
:10B3D4000DD13B4B5B88002B6CD03A4B3A483F4A2B
:10B3E400C01AC008082400040094394BD4E76BB990
:10B3F400334B5B88002B5FD0324B3348384AC01A3A
:10B40400C008092400040094314BC5E74768D7F805
:10B414000480B3FBF8F708FB17376FB1284B5B8840
:10B42400002B49D0274B28482E4AC01AC0080924AB
:10B4340000040094264BAFE78F070DD0204B5B88A8
:10B44400002B3BD01F4B2048274AC01AC0081024A9
:10B45400000400941E4B9FE712F0030F0CD0184B0E
:10B464005B885BB3174B1848204AC01AC0081024E5
:10B4740000040094164B8FE7C768B9420BD34C1EE7
:10B4840005691C44AC4206D8DCF80C40A44602B062
:10B49400BDE8F04160470A4B5B887BB1094B0A4821
:10B4A400134AC01AC008102400040094084B73E720
:10B4B4000E2476E7082474E7092472E7102470E761
:10B4C40088220020F4E402003CE502004EF602006B
:10B4D400B3F5020053F60200D0F60200C4F60200EF
:10B4E40083F60200D6F6020000F7020018F7020005
:10B4F4003BF70200F7B5A0B9374B5B88002B63D04C
:10B50400364B3748374AC01AC0080E24364B0094CD
:10B514000004364940F00100FBF7BDFD204603B0AE
:10B52400F0BDD0F800C0BCF1000F0DD12A4B5B88F0
:10B53400002B4BD0294B2A482D4AC01AC008082496
:10B5440000040094284BE4E76AB9234B5B88002B82
:10B554003ED0224B2248274AC01AC00809240004BE
:10B564000094214BD5E74768D7F800E00EF1FF3788
:10B574000F420CD0184B5B8863B3184B18481E4A13
:10B58400C01AC008102400040094174BC1E7C76810
:10B59400B9420CD34C1E05690EFB0244AC4206D8DA
:10B5A400DCF81040A44603B0BDE8F04060470A4B05
:10B5B4005B887BB1094B0A48104AC01AC0081024A2
:10B5C40000040094084BA4E70E24A7E70824A5E789
:10B5D4000924A3E71024A1E788220020F4E4020050
:10B5E4003CE502004EF60200C6F5020053F60200E6
:10B5F400C4F6020083F60200D9F50200FFF502004A
:10B6040029DF704728DF704770B503689D6886B0EE
:10B6140004460E466DB114220021684602F065FE10
:10B62400A3680593237901962BB1012B0DD06846AD
:10B63400A84706B070BD01238DF80030236902933A
:10B64400E368039363690493F1E702238DF8003000
:10B65400E3681B030293F5E7084670470020704730
:10B66400024B187A003018BF01207047582C002074
:10B67400034B187A0122B0FA80F05A7440097047DB
:10B68400582C002008B510461A4602F005FE00208A
:10B6940008BD000008B514220021044802F025FE6C
:10B6A4000348FDF70CFA002008BD00BF582C002009
:10B6B4000C23002010B5094C094B43602046FDF7CC
:10B6C400ECFA40B902F0A2F91C2320748C2205493B
:10B6D4000548FDF7E1F9002010BD00BF582C0020FB
:10B6E40070F70200CC2B00200C23002070B5244CF2
:10B6F400244E237A25463BB923492448FDF73BFAD7
:10B70400306008B9606070BD346802232B722379FD
:10B7140073B1012B24D020460321FFF775FF0023CA
:10B724002B726B6018491948BDE87040FDF74EBA9A
:10B73400D4E90523D21AB2F5805F28BF4FF48052B2
:10B74400D4E903109208012A38BF0122194418448D
:10B75400FFF756FF50B11128DDD101232B72D2E738
:10B76400D4E903031844FFF74DFFF3E72B7C002BC8
:10B77400C9D10146BDE87040022000F009B800BFFD
:10B78400582C0020702C00206C2C00200C2300204E
:10B7940038B5831E012B45D8234C237A002B41D086
:10B7A400022B09D1032830D0204B1B680022E26011
:10B7B4001A793AB1012A22D0637C7BBBBDE83840B8
:10B7C400FFF794BFD3E905128D1AB5F5805F94BFD6
:10B7D400521902F580529A619142EDD102284FF03C
:10B7E400000308BF19462372104B18BF0D211868B7
:10B7F400FFF70AFF0E490F48FDF7E8F9DCE71A697D
:10B8040001321A615B699A42E7E7E3680133082B66
:10B8140001D8E360D0E70023E360DFE7BDE8384008
:10B8240002F0E4B838BD00BF582C0020702C002072
:10B834006C2C00200C23002000F0FD03012B08D108
:10B84400044B00225A74421E504250411874FFF7B0
:10B854004DBF7047582C002010B5064C201DFDF735
:10B864001CFA28B9637C1BB9BDE81040FFF73EBF42
:10B8740010BD00BF582C00202DE9F34180460D4631
:10B884000F4801A916461F46FDF73BF90446A8B127
:10B894001C22002102F029FD2D0B0123237101A993
:10B8A400C4F80080A760E56066610548FDF753F9B8
:10B8B400FFF7D2FF002002B0BDE8F0810420FAE7D0
:10B8C4000C2300202DE9F74381468846104801A93E
:10B8D40017461E46FDF715F90446B0B11C22002197
:10B8E40002F003FD00250A9BA36001A92571C4F899
:10B8F4000090C4E9037866610548FDF72CF9FFF769
:10B90400ABFF284603B0BDE8F0830420FAE700BF8C
:10B914000C2300202DE9F047B0F806904479D2F8C2
:10B9240000A09DF8208009FB04F4043C06460AEBC1
:10B934000300A0420F4688BFA4EB030A191DC2F8F6
:10B9440000A0B1FBF9F509FB15114DB9A9EB0104F0
:10B95400544528BF5446BAF1000F04D1BDE8F0871E
:10B964003668013DF1E704317B1970182246B8F1BD
:10B97400000F0ED001461846AAEB040A02F08CFC14
:10B98400D145254436684C464FF0000128BF544643
:10B99400E1E71946F0E7FDF7E5B9F8B54679014660
:10B9A400721E0546002393422D6803D30024A64249
:10B9B40002D8F8BD0133F6E70F682846FDF70DFA03
:10B9C40001343946F3E72DE9F843068BCD1C0746CD
:10B9D400FDF7DFF9043E35440446B5FBF6F5F0B156
:10B9E4004FF48073EDB28380C680013D07608146C9
:10B9F4004FF00008A84512D23846FDF7CAF90646AA
:10BA040048B163790133637108F10108C9F8000092
:10BA140007608146EEE72046FFF7BFFF3446204625
:10BA2400BDE8F88301210430FDF721B910B50121E7
:10BA340004460430FDF726F910F0FF0F04D1204628
:10BA4400BDE81040FFF7A9BF10BD1FB50392002247
:10BA5400009203AAFFF75EFF05B05DF804FB1FB573
:10BA640003920122009203AAFFF754FF05B05DF888
:10BA740004FB7047026813685268934291BFD01A5E
:10BA840080680130801888BFC01A704703688168D5
:10BA94001A685B688B4234BF01330023D31A5842BF
:10BAA40058417047F7B5002304460DF107000D46D1
:10BAB4008DF80730FCF73CF82046FFF7E7FF10B19C
:10BAC400237C002B3CD12268A66853685168B1429C
