:020000022000DC
:1060000000000120756302005D6302005F6302000F
:106010006163020063630200656302000000000028
:1060200000000000000000000000000067630200A4
:1060300069630200000000006B6302006D630200F0
:106040005D8102006F630200BD850200198F0200AE
:10605000AD8602006F630200398402006F630200A4
:106060006F6302006F6302006F6302006F630200E0
:106070006F630200058C02006F6302006F63020011
:106080006F630200D56E02006F6302006F6302004F
:10609000716F02006F63020001B302006F630200C0
:1060A0006F6302006F6302006F6302006F630200A0
:1060B0006F6302006F630200000000000000000038
:1060C0006F6302006F6302006F6302006F63020080
:1060D0006F6302006F6302006F6302000000000044
:1060E00000000000000000000000000000000000B0
:1060F00000000000000000000000000000000000A0
:10610000000000000000000000000000000000008F
:10611000000000000000000000000000000000007F
:10612000000000000000000000000000000000006F
:10613000000000000000000000000000000000005F
:10614000000000000000000000000000000000004F
:10615000000000000000000000000000000000003F
:10616000000000000000000000000000000000002F
:10617000000000000000000000000000000000001F
:10618000000000000000000000000000000000000F
:1061900000000000000000000000000000000000FF
:1061A00000000000000000000000000000000000EF
:1061B00000000000000000000000000000000000DF
:1061C00000000000000000000000000000000000CF
:1061D00000000000000000000000000000000000BF
:1061E00000000000000000000000000000000000AF
:1061F000000000000000000000000000000000009F
:10620000354936480A1A02D0072291438D4634494F
:1062100034480A1A06D00722914381F309880222E2
:1062200082F3148830483149314A00F044F831484B
:106230003149324A00F03FF831483249324A00F0E1
:106240003AF832483249334A00F035F83248334997
:10625000334A00F030F833483349344A00F02BF821
:1062600033483449344A00F026F83448344900228F
:1062700000F02CF833483449002200F027F8334866
:106280003349091A082902DB002202604160314AC1
:1062900090471F481F49884205D00268043003B464
:1062A000904703BCF7E700208646EC46002000211B
:1062B000294A9047FEE7884207D0521A05D0037852
:1062C00001300B700131013AF9D17047884202D098
:1062D00002700130FAE770470000012000E0002062
:1062E00000000120000001203CD50200B82200205F
:1062F00010230020D4630200D463020064C50200AE
:106300003CD50200B8220020B822002074C602004A
:1063100074C6020074C6020074C6020074C602008D
:1063200074C6020074C6020074C602003CD50200A6
:1063300094D50200102300201023002010230020F9
:10634000F02F0020F02F0020F42F0020F42F002049
:10635000F44F00209D6302009D930200FEE7FEE7DC
:10636000FEE7FEE7FEE7FEE7FEE7FEE7FEE7FEE705
:10637000704700BF1048804710484FF0070188431E
:1063800085460F4880470F48016841F4700101605D
:10639000BFF34F8FBFF36F8FFFF732BF0A480B4930
:1063A0000B4A884207D0521A05D0037801300B708F
:1063B0000131013AF9D170477163020000000120F8
:1063C000397D020088ED00E074C60200B82200208A
:0463D000B8220020CF
:1063D40000487047E82F00207047000007B5044BC1
:1063E4000093044A402300F032F803B05DF804FB44
:1063F400FD630200112300202DE9F8438946144669
:10640400B2B10F4B0F4E0325002743F0010822467B
:1064140009EB0701002003F0ADFF0744241A48B933
:1064240033782BB14FF47A40C047013D02D1357027
:10643400BDE8F88301233370002CE8D1F8E700BFEE
:1064440080C6020010230020704703F0C7BFF0B5D8
:1064540095B01C46164608460D4601F0B0FA1A9B44
:106464000D93CDE9086400242346082205A9284693
:106474000A948DF82C400C9401F0BEFA079B029309
:10648400069B03939DF814308DF8114003F003022A
:10649400012A1DD1BDF81440059EC3F3C203C4F301
:1064A40083148DF81030A20008230EA9284601F0A9
:1064B400A3FAC6F3952608AB0093224602AB0EA9B5
:1064C400304600F069FB284601F07DFA15B0F0BDB6
:1064D400022AF8D1BDF81640C3F3C203A4098DF80B
:1064E40010300827082C264628BF08263B4632468B
:1064F4000EA9284601F080FAA41B08AB02AA314673
:106504000EA8374400F0ACFB002CEBD1DBE7000015
:1065140008B5FFF79AFF0421034800F0ABFA034BD8
:1065240001225A7108BD00BF64C60200B8220020CF
:10653400037813F0040216D003F00303012B03D0F5
:10654400022B09D0012070470A6800880232C0F388
:10655400831002440A60F5E70B684288023303EBB8
:1065640092130B60EEE71046704700002DE9F04FE0
:1065740087B000230446851C0DF107000F469046A2
:106584008DF8073000F0E6FE454806683E60D0E925
:106594000132134401339B1B824600F21C4600F572
:1065A400836900F21447AB421BD30022B8F1000FF9
:1065B40070D0052363F3070264F38912DAF800103C
:1065C400DAF808309DF807000B4003330D444AF80D
:1065D4002320CAF8005000F0E1FE012007B0BDE816
:1065E400F08F0121304600F036FF484600F049FFA5
:1065F400384600F046FFDAF80400DAF808B00290F2
:1066040000EA0B0003300AEB800002A9FFF790FFB9
:10661400029B50BB0BEA03020AEB820203F1020C59
:10662400D2680392013303EA0B0B0AEB8B0B02F0E3
:106634000302012ACDF808C0DBF80C1022D0022A8C
:1066440016D08346384600F01FFF10B1029BCAF8EB
:1066540004305946304600F0FEFEDAE901231344C3
:10666400DAF8002001339B1A9DE70BEA0300C9E71F
:10667400BDF80E309B0903334FEA114B0CEB930327
:106684000293DFE7BDF80C30C3F383134FEA114BD9
:106694006344F5E7062363F3070264F39F528DE72F
:1066A400242400200B4B0C48FF2210B59A600022D2
:1066B400C3F81824C3E90022C3F81424012283F880
:1066C400202401F035F9044610B9044801F0DCF93E
:1066D400204610BD24240020D0C50200A4C6020018
:1066E40030B50A4C71B10A4A0A49121BD208002378
:1066F4009A4201D1002030BD31F82350854202D0A6
:106704000133F5E7034654F83300F4E7E4C5020027
:1067140064C60200B8220020094B013903EBC00013
:10672400032909D8DFE801F00A02040604207047AF
:106734000079704740797047002070470220704705
:10674400E4C50200034BD3E90030C31A5842584150
:10675400704700BF242400202DE9F04387B0FFF7E1
:10676400F1FF0646002840F0FB807E4DC5F8180472
:10677400BFF34F8F6868AC6802902040033005EB8C
:10678400800002A9FFF7D4FE029B18B1D5F81824A3
:10679400002A5FD004EA0302991C013305EB82024C
:1067A400234005EB8303D268DB68049302F0030300
:1067B400022B0392029162D1BDF80E306A484FEA6F
:1067C4009318B8F1500FC14628BF4FF0500969F330
:1067D4008F1309F10801ADF80E3001F0C1F8074636
:1067E400002800F0A88001F0EAF803A90023082299
:1067F400384601F0F7F8029924EA01060136B6009A
:10680400B14535D95FFA89F97EB3F6B2A9EB060929
:10681400214003315FFA89F4B146544E05EB8101FE
:1068240008234A46384601F0DDF836B109F1080379
:1068340022463146384601F0D5F8029B08F1030898
:1068440003EB98030293D5F81834002B4BD1D5F8F9
:1068540010445BE02A689A4204D86A60304607B064
:10686400BDE8F08304EA030088E740493446D7E7EB
:106874002140033108234A4605EB8101DAE7012B65
:1068840059D1BDF80C303848C3F38311062928BF09
:10689400062161F3891302318900ADF80C3001F04F
:1068A4005FF80746002846D001F089F80023082243
:1068B40003A9384601F096F80026BDF80C20C2F36F
:1068C4008312B300964203F10803BCD202994A1C16
:1068D40021400331029205EB81010422384601F084
:1068E40081F80136E9E7384601F06DF8FFF72AFF31
:1068F40080F00100C6B2B1E7E3685B7923B1236895
:1069040039461B6820469847E3681C68002CF3D17D
:10691400384601F058F80DF107008DF8074000F0F3
:1069240019FDD5F818340BB9029B6B609DF807006C
:1069340000F034FDDAE7D5F8104454B90C4B0D4897
:106944000D49C01AC008000440F0020000F06EF8BF
:10695400CCE7236820469B689847E3681C68ECE70B
:1069640000267BE724240020D0C502003024002028
:10697400E4C5020024C60200B0C602002DE9F74FA8
:10698400284C80460F46924601A9012218469B4690
:10699400D4F80890FFF7EAFD80B3019D0026A91CF6
:1069A4005E4506EB010233D100211F4800F028FDAB
:1069B40080F310006A1C02EA090204EB820200045C
:1069C40005EA0903033340EA1840D06014F8232091
:1069D40068F3C50204F8232034F8232066F38912EF
:1069E40024F8232054F8232067F39F2244F823201B
:1069F40002F0F80242F0010204F8232094F8203453
:106A04001BB1FFF7A9FE0028FBD103B0BDE8F08F4E
:106A140009EA020204EB82025AF82630D3600136F6
:106A2400BEE700BF242400204028002000231A468B
:106A3400FFF7A4BF07B50123019201AAFFF79EFF48
:106A440003B05DF804FB07B5CDE9002302236A46D1
:106A5400FFF794FF03B05DF804FB1FB5CDE90123F4
:106A6400069B039301AA0323FFF788FF05B05DF893
:106A740004FB000030B50F49D1F81024002314465C
:106A84003CB9C468237152B9C1F810042260184695
:106A940030BDE46825799D4206D02468F0E7D268C9
:106AA400116821601060F2E701330A2BE7D14FF03F
:106AB400FF33ECE724240020094A38B50123D2F837
:106AC400104482F820341D4604B938BDE3685D7172
:106AD400236820465B689847E3681C68F4E700BFB6
:106AE40024240020037A052B10B50C460FD0437ADA
:106AF40023B1084A0849204600F029FD07492046E9
:106B040000F025FD2046BDE8104000F015BD002A28
:106B1400F8D0F3E7FBC6020000C7020020C702005A
:106B2400C38873B504460D4633B1144A0092144920
:106B3400144A284600F00BFD217A05291CD0637AFB
:106B44004BB1A088FFF7E8FD0F4B104953F8202004
:106B5400284600F0FCFC227A0D4BA08853F82260F2
:106B64000021FFF7BDFD0B4903463246284602B01B
:106B7400BDE8704000F0EBBC02B070BDFBC6020083
:106B84000BC7020003C70200C8C6020000C7020008
:106B940030C7020023C702002DE9F04385B01F4629
:106BA4000C9D002306460C46904695F80C902B73DA
:106BB40029463846FFF7B4FFB8F1060F09D8DFE8D5
:106BC40008F00412181F283340003146284600F00C
:106BD400BEFC002229463846FFF784FF85F80C9056
:106BE40005B0BDE8F08322683146284600F0AFFCCA
:106BF400EFE7D4E900233146284600F0A8FCE8E793
:106C0400A36800933146D4E90023284600F09FFC92
:106C1400DFE7E3680193A36800933146D4E90023D6
:106C2400284600F094FCD4E723690293E3680193B7
:106C3400A36800933146D4E90023284600F087FC7A
:106C4400C7E76369039323690293E3680193A36825
:106C540000933146D4E90023284600F078FCB8E7D5
:106C640008292DE9F84F80460E4617461C463AD8A7
:106C7400002593F80C901D7319461046FFF750FF3A
:106C8400DFF884A0DFF884B0AE422ED918F80520CE
:106C94005946204600F05BFC0135082DF4D1184913
:106CA400DFF86CB0204600F052FC4FF0000A564565
:106CB40020D918F80A507E2D03D8284605F040FB49
:106CC40000B92E252A465946204600F040FC0AF118
:106CD400010ABAF1080FEAD1012221463846FFF72A
:106CE40001FF84F80C90BDE8F88F5146204600F06F
:106CF4002EFCD1E70349204600F029FCE7E700BF5A
:106D0400F6C60200F4C60200F2C60200ECC6020097
:106D1400F8C6020070B5084D084E00242B789C423A
:106D240001D3002070BD3368012113F8340001F051
:106D34001BFB0134F2E700BFE028002004290020F7
:106D440070B5094D094E00242B789C4204D30848A1
:106D5400BDE8704000F0EEBA336813F8340001F077
:106D640047FB0134F0E700BFE0280020042900209D
:106D7400E42800201FB50021039001AA44F2010079
:106D8400CDE9011100F004F805B05DF804FB000042
:106D940010B572B6FFF790FEFFF7DEFC0028FBD1BA
:106DA400104B114C1149E41AE408240444F0010086
:106DB400FFF73CFE0E4B1B68DB0700D500BE0D49F8
:106DC40044F00200FFF732FEBFF34F8F0A490B4B2A
:106DD400CA6802F4E0621343CB60BFF34F8F00BF75
:106DE400FDE700BFE4C5020024C602008FC702000D
:106DF400F0ED00E09BC7020000ED00E00400FA059E
:106E0400094A537891780133DBB2994208BF0023D1
:106E1400117899421FBF03705078182303FB002098
:106E240014BF0430002070470829002073B50546BC
:106E340000240DF107000E468DF8074000F08AFA91
:106E44000DF10600FFF7DCFF90B10670094B9DF8C9
:106E5400062045605A709DF8070000F09FFA24B997
:106E6400054B4FF48012C3F80021204602B070BDD8
:106E74000424F0E70829002000E100E0024B4FF46D
:106E84003C6043F001031847B0C7020038B50C4B0F
:106E94000C4C4FF40032C3F8802001254FF48033AA
:106EA400C4F84833C4F808336560FFF7E7FF064BBE
:106EB400A56000241C60FFF7E1FF044B1C7038BD83
:106EC40000E100E000100140242A0020152A0020DF
:106ED400F8B51F4B1F491B680025C1F84051C1F884
:106EE4004451C1F84851C1F84C51C1F80051C1F89E
:106EF40004514BB3D1F8044517490968641A24F0C6
:106F04007F442F461A68A24209D8A41A15441A7C51
:106F1400DE691AB11F74D3E905209047AEB90F4A50
:106F24000F4B11781B788B4205D10133DBB2022B56
:106F340008BF0023137012780A4B43F822500A4BFF
:106F44004FF48012C3F80021F8BD3346DAE700BFDE
:106F5400282A002000100140242A0020212A002091
:106F6400202A0020182A002000E100E02DE9F04F3B
:106F7400A14AA24913780978A14D994285B03CD021
:106F84000133DBB2022B08BF002313709D49127832
:106F94009D4B0F6853F822003B1823F07F430022D7
:106FA4000B602B6816461446944613B942B12B6005
:106FB40006E0196881420ED902B12B60091A1960E2
:106FC40001272B68DFF848A201934FF00008BEB9EF
:106FD400DFF844B266E0401A0C44D968C3F800C034
:106FE400D3F81CE031B13A1922F07F42C3E9012100
:106FF400DE611E4601227346D7E700263746E0E7E6
:107004003446F6697F4A63681268DFF810C2A068E4
:10701400991A21F07F41614500F2A6800144216064
:10702400012222742A680023C4E90133E361002A9F
:1070340040F0A3802C60CAE75A1C9BF80210D2B21D
:1070440091428BF8002004BF00228BF80020182204
:1070540002FB03B31A799C68022A1CD0032A12D0BB
:10706400012A1FD1207CE8B9D3E90312A2605A692E
:10707400E2609A69654BA2611B78002B0CBF0B463A
:1070840003466360BEE700222B681146002B67D1DC
:1070940042B12B6006E029680A468946002A5AD183
:1070A400002323749BF800309BF801209A42C3D13B
:1070B4002B68B8F1000F04D1019A9A4201D1002F34
:1070C40043D0002B73D0D3F800A0514D4D4BD5F8CD
:1070D40004751C68DFF848813E1B98F8003026F0E0
:1070E4007F4603369BB94FF48033C5F84433C5F863
:1070F4000433484B4FF400324FF00109C3F88021A8
:107104001A60C5F80090FFF7B9FE88F80090B24500
:107114002CBF5444A41924F07F44C5F84045D5F845
:107124000435DB1B23F07F43E41B033324F07F444B
:10713400A3420AD9D5F80435C5F84035FFF79EFEB9
:10714400344B4FF40032C3F80021304B00221A7044
:1071540005B0BDE8F08F94422CD09146D2699DE7EA
:1071640019740122DB6991E7D31A23F07F43834228
:1071740034BFC31A0023236052E72168136899427D
:1071840013D8591A1160E26154E7091AD8691A46EA
:1071940038B1034618688842F7D3401A1860184675
:1071A40013462160E061DC6111E71346F2E7FFF763
:1071B4006DFECAE74C4511D1CB692B6073B9DFF87A
:1071C40044E00120CDE90212CAF80800CEF80030EC
:1071D4000E4B1870FFF752FEDDE902121368D269F4
:1071E400C9F81C2012B11068034413602B6899423B
:1071F40018BF4FF0010853E7202A0020212A00205D
:10720400282A0020242A0020182A0020142A0020DA
:107214000010014000E100E008290020FEFF7F008B
:10722400152A002008B5FFF731FE104B00200B2271
:1072340018809A700E4B18600E4B18700E4B187015
:107244000E4B4FF48012C021C3F8802183F814132D
:107254001A6002F18042A2F56F22C2F8080583F891
:107264001113074BD2F804251A6008BD0829002021
:10727400282A0020202A0020212A002000E100E002
:10728400242A0020074B9B784BB132B128B1036804
:10729400187C20B959745A61704707207047082038
:1072A400704700BF082900202DE9F7431E4FBB7823
:1072B40005460E469046A3B398B304292FD94369D3
:1072C4007BB3437C0024012B0DF107000CBF8946DE
:1072D400A1468DF8074000F03DF80DF10600FFF7D8
:1072E4008FFDD0B101230370104B4560D3F80435F2
:1072F400C0E90498C0E902369DF806307B709DF819
:10730400070000F04BF824B9094B4FF48012C3F87E
:107314000021204603B0BDE8F0830424EFE70724EE
:10732400F7E70824F5E700BF082900200010014012
:1073340000E100E0064A92783AB130B1426922B1E4
:10734400002202740221FFF771BD0820704700BFBC
:107354000829002070B5EFF3108672B60C4A9468C1
:1073640001239CB993600B4B0B4DD3F8801029403B
:107374001160C3F88050D3F8841051604FF0FF328D
:10738400C3F88420047006B962B670BD0370FAE7CE
:107394002C2A002000E100E0FC06FFBD084B9A689F
:1073A40010B55AB150B9EFF3108172B6054A1C6892
:1073B40014605C685460986001B962B610BD00BF87
:1073C4002C2A002000E100E001F01F024B090121FA
:1073D400914000EB830000F01DB801F01F0301226F
:1073E4009A404B0900EB8300D14300F029B84B09C4
:1073F40001F01F0150F82300C84000F0010070475D
:1074040050E8002F0B4640E8003C9CF0000FF7D1F9
:107414001046704750E8003F43EA010240E8002C60
:107424009CF0000FF6D11046704750E8002F02EA96
:10743400010340E8003C9CF0000FF6D11046704771
:1074440050E8003F03EA010240E8002C9CF0000FE2
:10745400F6D11046704750E8003F03EB010240E8C4
:10746400002C9CF0000FF6D11046704750E8003F06
:10747400A3EB010240E8002C9CF0000FF6D110466B
:1074840070470121FFF7C6BF0021FFF7CEBF10B53B
:1074940090B1D0E9012301689B1ADBB20A60013B79
:1074A400DBB2FF2B026802D10020107110BD1168FD
:1074B4004C1C14600B70F2E70E20F7E737B5054655
:1074C40000240DF107008DF80740FFF743FF2A68F9
:1074D4006B68116899420ED9481E106011F8014C6E
:1074E400EB68298A01FB0434AB6811791B1ADBB2FF
:1074F400994238BF13719DF80700FFF74FFF2046EC
:1075040003B030BD37B5054600230DF107000C4626
:107514008DF80730FFF71EFF2A681368591C1160A5
:10752400E968641A298AB4FBF1F41C709DF8070019
:10753400FFF734FF03B030BD826810B504462AB1AA
:1075440043690168006998470023A36010BD0EB425
:1075540003B5039921B104AB01AA019300F06CF8BF
:1075640002B05DF804EB03B07047826830B404687D
:10757400551C8560A154D0E901329A4202D330BC33
:10758400FFF7DABF30BC70472DE9F84F9946DDE9C3
:107594000A431746824688460A460126BA420FD253
:1075A4004E4538BF4E4613F0010B01D164B9002497
:1075B4000125B9F1010F1AD909F1FF397D43F8E723
:1075C400B2FBF7F20136E9E79B070ED5B9F1000FDC
:1075D4000CBF30252025A642EAD2013C294650465C
:1075E400FFF7C3FF002CF6D1E1E72025F3E7B8FB52
:1075F400F5F39F42E2D9DFF83C90B8FBF5F350462F
:1076040019F8031005FB1388FFF7AFFFB5FBF7F379
:10761400BD4207D2BBF1000F02D00CB1A64203D386
:10762400BDE8F88F1D46E8E720215046013CFFF7EE
:107634009CFFF2E7B6C702002DE9F74F054617464F
:107644008846002900F0308118F8011B49B92B7BCA
:10765400002B00F02981284603B0BDE8F04FFFF766
:107664006BBF252940F0C080002698F800302D2BF0
:10767400424608F1010823D0302B24D02B2B25D0EF
:1076840000242A2B02F1010123D13B681A1D1B6837
:107694003A601C440A4613782E2B26D101324FF04F
:1076A4000009104610F8011BA1F1300CBCF1090FC0
:1076B4001DD80A2303FB0913A3F130090246F0E79E
:1076C40046F00106D1E746F00206CEE746F004068E
:1076D400CBE711F8013CA3F130000928DBD80A22DA
:1076E40002FB0434303C0A46CBE74FF0000912F8A1
:1076F400011B01F0FB0068289046F8D069290ED0E0
:107704004AD8582964D006D825296DD098F8003075
:10771400002B99D19BE7632962D06429F6D13A689A
:10772400D2F800A0111D8AEAEA723960A2EBEA726B
:107734004FF0010B092A5BDCCB4538BFCB462CB19B
:10774400BAF1000F01DB720700D5013CB30702D583
:10775400B9F1000F04D0F00702D4002C4ED100245C
:10776400BAF1000F52DACAF1000A2D212846FFF7B8
:10777400FCFE06F00302022A05D1B9F1000F02D182
:10778400002C47D10024CDE900464B460A2251463D
:107794002846FFF7F9FEB9E773294CD014D87029AD
:1077A400B4D13B681A1D3A60302128461C68FFF7A3
:1077B400DCFE78212846FFF7D8FE00220823CDE915
:1077C400003221461022E3E775292BD078299DD178
:1077D40039680A1D3A60CDE900464B46102228E07C
:1077E4003B681A1D19783A602846FFF7BEFE8DE7FC
:1077F4000A230BF1010BB2FBF3F29BE7A345AFD2D3
:1078040020212846013CFFF7B0FEA6E77107B0D55A
:107814002B21ABE7A345B6D230212846013CFFF724
:10782400A4FEADE73968CDE900460A1D3A604B462F
:107834000A220968ACE73B681A1D3A6016F0010693
:10784400D3F800A020D1BAF1000F03D0504604F0C1
:1078540055FE0646B44200D9C4B90AF1FF3A1EE007
:1078640028460136FFF781FE1AF806100029F7D1E1
:10787400A642BFF44BAF002C3FF448AF202128466A
:10788400013CFFF772FEF3E70026EDE720212846CE
:10789400013CFFF76AFEDDE72846FFF766FE1AF8AB
:1078A400011F0029F8D131E703B0BDE8F08F2DE9BD
:1078B400F047B0F806904479D2F800A09DF82080F3
:1078C40009FB04F4043C06460AEB0300A0420F46FD
:1078D40088BFA4EB030A191DC2F800A0B1FBF9F597
:1078E40009FB15114DB9A9EB0104544528BF5446B1
:1078F400BAF1000F04D1BDE8F0873668013DF1E725
:1079040004317B1970182246B8F1000F0ED00146DD
:107914001846AAEB040A04F073FDD14525443668E1
:107924004C464FF0000128BF5446E1E71946F0E702
:10793400FFF7ADBDF8B546790146721E0546002332
:1079440093422D6803D30024A64202D8F8BD013324
:10795400F6E70F682846FFF7D5FD01343946F3E70B
:107964002DE9F843068ACD1C0746FFF7A7FD043E20
:1079740035440446B5FBF6F5F0B14FF48073EDB22F
:107984008380C680013D076081464FF00008A8450A
:1079940012D23846FFF792FD064648B163790133A7
:1079A400637108F10108C9F8000007608146EEE739
:1079B4002046FFF7BFFF34462046BDE8F883012187
:1079C4000430FFF748BD10B5012104460430FFF729
:1079D4004DFD10F0FF0F04D12046BDE81040FFF725
:1079E400A9BF10BD1FB503920022009203AAFFF79E
:1079F4005EFF05B05DF804FB1FB5039201220092FF
:107A040003AAFFF754FF05B05DF804FB41DF70479C
:107A1400064B10B500241C70054B1C60BFF35F8F30
:107A24000449054800F039F8204610BD402A0020DA
:107A3400442A0020C8C70200382A002007B50023C2
:107A44000DF107008DF80730FFF784FCF1EE103AD2
:107A540023F09F03E1EE103ABFF35F8F094B4022FE
:107A6400C3F884219DF80700FFF798FC03F02CFC71
:107A740020B1FFF7CBFF03B05DF804FB20BF40BF8C
:107A840020BFF8E700E100E0836800225A609A60B2
:107A9400C3E90422DA601A6070470B684A684360DD
:107AA400934208BF0023016008BF436070474368E6
:107AB40043B10268916852680B449342436004BF27
:107AC400002343607047000010B50D49A1F594727E
:107AD400914201D800200FE08B1ADB1003EBD37323
:107AE4005B1002EBC30452F83330834205D802D250
:107AF40004F10802ECE7606810BD2146E8E700BF26
:107B040018C9020008B5FFF7DFFF024B002808BFC1
:107B1400184608BDDDC70200026813685268934224
:107B240091BFD01A80680130801888BFC01A70478E
:107B34002DE9F84303681D685C68A54284BF836827
:107B440001331746884694BF641B5C1BC2684168B6
:107B5400BC42064605FB02110CD37A43404604F0AE
:107B64004FFCB3683D449D4288BF002533681D60C7
:107B7400BDE8F88304FB02F94A46404604F040FCA1
:107B8400F26871683C1B624308EB090004F038FC9E
:107B940033681C60ECE7036881681A685B688B4291
:107BA40034BF01330023D31A584258417047F7B504
:107BB400002304460DF107000D468DF80730FFF74A
:107BC400C9FB2046FFF7E7FF10B1237C002B3CD113
:107BD4002268A66853685168B14234BF013100215C
:107BE400516030B11168A068814234BF0131002175
:107BF4001160E2686068511E072920D8DFE801F0AF
:107C040004101F141F1F1F182A78C2542046FFF7A0
:107C140083FF23689A68824200D29860002415E0AA
:107C24002A8820F81320F1E72A6840F82320EDE79A
:107C3400D5E9006700EBC300C0E90067E6E7294621
:107C440002FB030004F0DCFBE0E704249DF80700DA
:107C5400FFF7A4FB204603B0F0BDF7B506460F4678
:107C64001446AAB10DF1070000258DF80750FFF75F
:107C740071FB3046FFF750FFA0420CD32246394631
:107C84003046FFF755FF2C469DF80700FFF786FBAB
:107C9400204603B0F0BD0524F6E70000BFF34F8F84
:107CA4000549064BCA6802F4E0621343CB60BFF394
:107CB4004F8F00BFFDE700BF00ED00E00400FA05B0
:107CC4000C4B1B78062B10D10B4B1B681A070CD1DD
:107CD4000A4B186800F0F003302B08D000F0E000E5
:107CE400A0F14003584258417047002070470120DA
:107CF400704700BFE00F00F0E40F00F0E80F00F061
:107D0400094B1B78062B0CD1084B1B681A0708D1AA
:107D1400074B186800F0F000A0F1300358425841B6
:107D240070470020704700BFE00F00F0E40F00F040
:107D3400E80F00F008B5FFF7C3FF28B1894B8A4A62
:107D44001B68C3F304231360FFF7DAFF10B1874BFA
:107D5400874A1A60FFF7B4FF28B1864B864A1B682E
:107D6400C3F342331360FFF7CBFF20B1834AD368D8
:107D740023F08073D360FFF7A3FF40B14FF080433B
:107D84000022C3F80C21C3F81021C3F83825FFF7EB
:107D9400B7FF10B17A4B03221A60FFF7B1FF40B16D
:107DA400784B05221A6001229A6700229A603F22CA
:107DB4005A60754B1B78062B50D1744B1B681807FF
:107DC4004CD1734B1B6803F0F003502B46D14FF09A
:107DD4008052704BD2F80414C3F82015D2F808145A
:107DE400C3F82415D2F80C14C3F82815D2F81014CB
:107DF400C3F82C15D2F81414C3F83015D2F818149B
:107E0400C3F83415D2F81C14C3F84015D2F8201462
:107E1400C3F84415D2F82414C3F84815D2F828142A
:107E2400C3F84C15D2F82C14C3F85015D2F83014FA
:107E3400C3F85415D2F83414C3F86015D2F83814C2
:107E4400C3F86415D2F83C14C3F86815D2F840148A
:107E5400C3F86C15D2F84424C3F87025FFF730FF3B
:107E640028B14D4B4D4A1B6803F04F031360FFF7D5
:107E740027FF48B14FF08043D3F80024D10744BF13
:107E84006FF00102C3F80024454B1B68062B08D190
:107E9400444B1B68062B01BF434A136843F48063B9
:107EA4001360424AD2F8883043F47003C2F8883031
:107EB400BFF34F8FBFF36F8F4FF01023D3F80C2213
:107EC400D2071ED53A4B0122C3F80425D3F8002467
:107ED400002AFBD04FF01022D2F80C3223F0010319
:107EE400C2F80C32324B1A46D3F800140029FBD0E6
:107EF4000021C3F80415D2F80034002BFBD0FFF79F
:107F0400CDFED3F80022002A03DBD3F80432002B81
:107F140023DA274B0122C3F80425D3F80024002ACE
:107F2400FBD04FF010221521C2F80012D3F8002420
:107F3400002AFBD04FF010231522C3F804221C4B57
:107F44001A46D3F800140029FBD00021C3F8041505
:107F5400D2F80034002BFBD0D1E7164B164A1A6036
:107F640008BD00BF240300104035014074C0074021
:107F74000DF0ADBA440200103C050040F0ED00E005
:107F8400A005004010560040E00F00F0E40F00F0A0
:107F9400E80F00F000C0004058020010E40E00405A
:107FA40030010010340100103C17004000ED00E0E7
:107FB40000E00140C02200200090D003044B1A5C72
:107FC400012393404FF0A042C2F80C35704700BF24
:107FD400D2CC0200044B1A5C012393404FF0A04220
:107FE400C2F80835704700BFD2CC020038B5074C40
:107FF400051E04F1080318BF1C4623682BB11A6838
:1080040022605B6828469847F7E738BD502A00206D
:1080140020B9054B01225A70FFF7E8BF012802D1AD
:10802400014A9070F8E77047482A002020B9034BB2
:1080340001225A70FFF7DABF704700BF482A0020B8
:1080440038B50B4C237883B90A486360A360236175
:10805400E36000F057F8054603F036F908B900F07C
:108064005DF801232370284638BD8525FBE700BF52
:10807400482A00201580020037B50B4C00230DF16F
:1080840007008DF80730FFF765F9E368013BE3600B
:10809400E56815B900F054F8A5709DF80700FFF7DE
:1080A4007DF903B030BD00BF482A0020012813B574
:1080B40009D018B103281CD002B010BD0F4B012207
:1080C400C3F88020F8E70E4C00230DF107008DF86B
:1080D4000730FFF73FF923780BB9FFF7B1FFE368E7
:1080E4009DF807000133E3600123A370FFF756F9FD
:1080F400E2E700F013F8FFF7BFFFDDE700E100E07F
:10810400482A0020044A137923B901211060918080
:1081140018467047852070475C2A0020074B1A6870
:10812400D2075FBFC02283F8002301221A604FF0F8
:1081340080430122C3F81825704700BF00E100E026
:10814400044B01221A604FF08042D2F81834DB034A
:10815400FBD470470C000040154B07B51A687AB180
:1081640000221A601B680093009B4FF08043012299
:10817400C3F808230F4B587910B95A711B689847F4
:108184000D4B1A6882B100221A601B680193019B8F
:108194004FF080430222C3F80823064B1B680120DA
:1081A40003B05DF804EB184703B05DF804FB00BFAF
:1081B400000100405C2A00200401004000F18040DE
:1081C40000F5C040002382B0036003680193019B63
:1081D40002B07047800000F1A040D0F8003723F4CB
:1081E4004033C0F80037D0F8003743EA0141C0F803
:1081F40000177047054B4FF0FF32072843F8202043
:1082040084BF1B1883F84820704700BF642A0020ED
:1082140010B5174C94F8583043BB04F130032021B7
:10822400FF22013911F0FF0103F8012BF9D1C8B283
:10823400FFF7E0FF01310C29F9D1042200210D4898
:1082440004F007F90C4BC02283F8062340221A607D
:108254004FF4BE70FFF7B2FF084B4FF00042C3F873
:108264000423012384F85830002010BD0820FCE7C3
:10827400642A0020B82A002000E100E000600040E9
:10828400F0B5374B1C1894F93040002C1C4664DAC6
:108294008D78C5F34005002D0BBF082300230C2661
:1082A4000826B34201D10420F0BD54F823700137ED
:1082B4003FD1261844F8232086F8303015B9E21847
:1082C40082F848008A78550713D4D60733D582003C
:1082D40002F1A042D2F8005725F00205C2F8005777
:1082E400204EC50800F007070122BA40775D3A43E3
:1082F40072558A780D7812F0020225D09B0003F1A2
:10830400804303F5C0430202D3F8101521F447312A
:1083140021F44071C3F810152D04D3F8101502F49C
:10832400F85205F440352A430A43C3F810250020C7
:10833400BAE70133B5E74D7800F5E0724FF0A04697
:10834400AD0046F82250CBE7083B234493F8501085
:1083540041EA851583F85050E9E70820A4E700BFF7
:10836400642A0020B82A002038B51F4C251895F936
:108374003020072A17DD224492F84810890903297E
:108384000CD14FF0A043D3F81035C34013F0010FC4
:1083940008BF0221BDE83840FFF71CBF012914BF04
:1083A40003210221F6E7D3B2072B1CD8930003F173
:1083B400804303F5C043D3F8100540F00100C3F82F
:1083C400100502F14000800080B2FFF7F7FE51B1C2
:1083D40095F9303054F823302BB1012303FA02F21B
:1083E400024BC3F8042338BD642A00200060004017
:1083F4000E4B034493F93020072A02DD0021FFF7D6
:10840400E9BED3B2072B10D8930003F1804303F5E0
:10841400C043D3F8101521F00101C3F8101501234E
:1084240003FA02F2024BC3F808237047642A0020BF
:10843400006000402DE9F04F85B000245A4D0194AE
:108444004FF48072012102F1804303F5C04390B2DE
:108454001B68012B06D1D5F804330B4202D0FFF779
:10846400ADFE0C430432B2F5907F4FEA4101EAD1EC
:108474004E4B1B68012B0AD14FF4BE70FFF79EFED2
:108484004FF0A04344F00044D3F81035019314F0A6
:10849400FF0F1AD0464F00250126344210D0AB00FE
:1084A40003F1804303F5C043D3F81005D3F8101546
:1084B40057F8253023B1C1F30141C0F30420984794
:1084C4000135082D4FEA4606E7D1002C64DA002274
:1084D4004FF0FF33CDE90223354D01274FF0000A59
:1084E400344E54464FF0A04816F9012B531C46D085
:1084F400D2B222F0C0094FEAD90104A8084402F01C
:10850400070310F804CC07FA03F31CEA030F36D070
:1085140005EB090C92099CF930C055F82CB0BBF15D
:10852400000F0AD1032A2AD10DF1080E1EF801C04A
:108534004CEA030C0EF801C001E0032AF4D009F55B
:10854400E07110F80C0C58F821101842C1F30141E5
:1085540005D0022913D1032A0BD1114604E00329C3
:108564000DD1032A05D102214846FFF733FE013419
:10857400E4B2BBF1000F02D011464846D8470AF1D5
:10858400010ABAF1040FAFD134B14FF0A043019AFC
:10859400D3F81035934202D105B0BDE8F08F0193B2
:1085A400029B03939AE700BF006000407C61004097
:1085B400642A0020B42A0020014B1B68184700BF1E
:1085C400C02A00200E4B984237B50D4602D0002039
:1085D40003B030BD00230DF107008DF80730FEF71E
:1085E400B9FE084B1C7914B901221D601A719DF85B
:1085F4000700FEF7D3FE002CE9D01120E8E700BF06
:1086040000200040C02A00207FB503788DF8043094
:108614004368029383688DF80C30C368049303693C
:108624008DF81430054A064B01A853F8213052F84E
:108634002110984707B05DF804FB00BFC82A00204A
:10864400D42A0020F0B50646174616F804CB124A81
:1086540042F82C70114A42F82C30114B0D460FCBC6
:1086640085B06C4684E80F002B6800932B798DF855
:1086740005306B798DF80630AB680293002FAB8917
:10868400ADF80C30074A634608BF3A4621463046E7
:1086940000F036F805B0F0BDD42A0020C82A002026
:1086A400F8CC02000D8602004FF0402382B0D3F8CC
:1086B4001831E3B10F4B00221A601B680193019B30
:1086C4000D4BD97FFF2907D0987F01228A404FF0B4
:1086D400A04148B1C1F80C2500225A771A72D3E997
:1086E4000021064802B01047C1F80825F4E702B09B
:1086F400704700BF18410040E02A0020E82A00200B
:108704002DE9F74F06796C4F00934FF0240A0AFBCA
:1087140006FA07EB0A0B91469BF81C20019780464A
:108724000C46002A40F0C480056864492846FFF7D7
:1087340049FF002840F0BE80019B227B43F80A9049
:10874400009BCBF8043094F800C04FF0A041012303
:1087540003FA0CF3012A94BFC1F80C35C1F80835AB
:108764000CF5E0734FF0010E41F823E06378FF2B22
:108774001FBF0EFA03FEC1F80CE503F5E07E4FF0CF
:10878400030A18BF41F82EA0A17808BF4FF0FF33A9
:10879400FF2917BF01F5E07E4FF0FF374FF0A04AE5
:1087A4004FF0040B08BF0097019F1CBF00914AF8CB
:1087B4002EB04FF0240E0EFB0677DFF8FCE087F8AE
:1087C4002010E178F977FF2917D094F804A04FF02E
:1087D400010B0BFA01FB4FF0A047BAF1000F5ED07A
:1087E400C7F80CB501F5E0714FF0030B47F821B061
:1087F400242101FB06E181F81EA0C5F808C5C5F8CF
:108804000C35009BC5F81035A368C5F82435637B87
:10881400003318BF0123022A44D0032A45D0012A79
:1088240001D143F00203C5F85435A379C5F8C03526
:10883400B9F1000F02D04023C5F804330723C5F86B
:108844000035B9F1000F20D0D8F8003062791B0B45
:1088540059B20029A8BF01F16044DBB2B8BF03F0EC
:108864000F054FEA4212B4BF154C04F56144D2B26D
:10887400B4BF625584F8002303F01F03012202FAF7
:1088840003F349090F4A42F82130242303FB06E687
:10889400002373770123337703B0BDE8F08FC7F863
:1088A40008B59FE743F00403BDE743F00603BAE7C6
:1088B4000820F1E71120EFE7E02A0020AD8602004E
:1088C40014ED00E000E100E02DE9F3410579474EA5
:1088D40024236B431446F2180F46517F8046002927
:1088E40040F08180F35823B114F0140F04BF012326
:1088F400537797E80F004FF0240C0CFB056C0CF138
:108904000C0E8EE80F009CF81F20FF2A08D09CF85C
:108914001E10012393404FF0A042C1B1C2F80835A4
:10892400396821B101F06043B3F1005F06D1BA6840
:1089340082B102F06043B3F1005F0BD0242303FB48
:10894400056500236B77102002B0BDE8F081C2F802
:108954000C35E5E7D8F800307868C3F84415C3F857
:108964004805F968C3F834250022C3F83815C3F85C
:108974001821D3F818210192019A14F0010218BFAA
:108984000122C3F8502514F0020218BF0122C3F8D3
:10899400402522075CBF01221A6124226A43B2588F
:1089A400B2B9D3F81821002AFBD0242303FB0565B0
:1089B400EA7FFF2A07D0A87F012393404FF0A0420B
:1089C40018B1C2F80C350020BEE7C2F80835BBE781
:1089D40014F004004FF0400202D0C3F80823F2E779
:1089E400C3F80423B0E71120AEE700BFE02A00205B
:1089F40031DF70471FB500238DF807000DF10F001C
:108A04008DF80F30FEF7A6FC02F05EFC50B90DF1B4
:108A140007010848FFF7CBF80648FFF7BCF808B190
:108A240000F0D2F89DF80F00FEF7B8FC05B05DF831
:108A340004FB00BFBCC5020007B520B103280BD05E
:108A440003B05DF804FB0F4B1B78012BF8D100F049
:108A5400BBF800F0C1F8F3E700230DF107008DF82F
:108A64000730FEF777FC07480378012B05D1064948
:108A7400013000F069F800F095F89DF80700FEF762
:108A84008DFCDDE7542B0020F989020013B5124C4C
:108A94002378FBB9114A8DF80730002808BF104627
:108AA4000288A4F801200DF10700FEF753FC02F040
:108AB4000BFC30B90A49601C00F046F840B900F0DC
:108AC40071F801239DF807002370FEF767FC00206E
:108AD40002B010BD8520FBE7542B00200DCD020011
:108AE400F98902002DE9F7430024DFF85890054680
:108AF4000E46A0460DF107008DF80780FEF72AFC0C
:108B040002F0E2FB074638B9324629464846FFF7E9
:108B1400A4F8044600F046F89DF80700FEF73EFC72
:108B240047B131462846FFF763FF42F207039842F4
:108B3400044605D0022CDDD0204603B0BDE8F08306
:108B44000524F9E7BCC5020010B5124C2278FAB925
:108B5400114B1960037813F0010F104B1EBFD3F8AB
:108B6400042542F00102C3F80425D3F8002222F0C0
:108B74000102C3F800224378094A5B01DBB282F8A0
:108B84000D334FF40053136001232370002010BDF4
:108B94008520FCE75C2B0020582B002000D00040EF
:108BA40000E100E0064B00221A6082B01B680193CA
:108BB400019B044B0122C3F804231A6002B07047DE
:108BC40000D1004000D00040024A0123C2F808331B
:108BD4005360704700D00040064A0123C2F80833AE
:108BE4005360054B4FF40052C3F88020034B00221E
:108BF4001A70704700D0004000E100E05C2B0020B8
:108C0400074B00221A6082B01B680193019B054B3D
:108C1400D3F80805044B1B68C0B202B0184700BF64
:108C240000D1004000D00040582B002000234350C6
:108C340082B043580193019B02B070472DE9F0477D
:108C44000D78089E9DF824A004460F469946002DF1
:108C54005ED1D0F82431D2F800803BB14FF4927148
:108C6400FFF7E4FF012363613B7017E0D0F81C3188
:108C740053B34FF48E71FFF7D9FFD0F824311BB1F1
:108C84004FF492712046EBE713689E4212D919F80B
:108C94000330C0F81C35136801331360B04535D177
:108CA400D4F8043193B34FF482712046FFF7BEFF2A
:108CB400002504E00123BAF1000F03D0C361284664
:108CC400BDE8F0874361E9E7D0F80831002BE5D02F
:108CD4004FF48471FFF7AAFFD0F82431002BCFD1D1
:108CE40013689E42DAD9D0F8181509F803101368EE
:108CF40001331360721E934205D10223C0F800327F
:108D040001232362CAE79E42FAD1C7E70125D6E7C9
:108D14004FF49271FFF78AFF4FF48E71FFF786FFCD
:108D24004FF48471FFF782FFBAE700002DE9FF4793
:108D34000C4605461F4620463B4B03934FF4827175
:108D440016469DF83080FFF771FF4FF49271FFF7DC
:108D54006DFF4FF48E71FFF769FF4FF48471FFF7D5
:108D640065FF0023C4F800326B6385F82E300123BD
:108D74002362A3606A6B97421DD9B35CC4F81C35A7
:108D84006B6B01336B632B68E3B905F1340A05F1AE
:108D94002E09039B002B1FDC95F82E3053BB0020BB
:108DA400039B002B15DC0023C4F800350523C4F80D
:108DB400003503200DE0B8F1000F01D0E361E2E7D4
:108DC4006361E0E740F28623AB60AB68C4F8043328
:108DD400002004B0BDE8F087CDE900783346524660
:108DE40049462046FFF72AFF0028D5D0039B013BC4
:108DF4000393CEE7D4F8C434C4F8C434002BCED0E3
:108E040013F0010F14BF4FF40240032048F2012273
:108E140013F0020F18BF104613F0040F48F2022398
:108E240018BF1846BCE700BFA08601002DE9FF4724
:108E34000C4605461F462046354B03934FF482717A
:108E44009246FFF7F3FE4FF49271FFF7EFFE4FF4F3
:108E54008E71FFF7EBFE4FF48471FFF7E7FE0023FA
:108E6400012F2E686B6385F82E3008BF02224FF065
:108E740001030CBFC4F80022C4F80032236223604B
:108E8400AEB905F1340905F12E08039B002B18DC5B
:108E940095F82E301BBB0020039B002B0EDC002317
:108EA400C4F800350523C4F80035032006E040F279
:108EB4008623AB60AB68C4F80433002004B0BDE87B
:108EC400F087CDE9007653464A4641462046FFF7EF
:108ED400B5FE0028DCD0039B013B0393D5E7D4F80F
:108EE400C434C4F8C434002BD5D013F0010F14BF1C
:108EF4004FF40240032048F2012213F0020F18BF7E
:108F0400104613F0040F48F2022318BF1846C3E7B3
:108F1400A0860100F0B52C4C2C4894F82C3089B074
:108F240004F134020193A36A0093636A04F12E01ED
:108F3400FFF784FE2746E0B994F82EC0266ABCF1F8
:108F4400000F1DD1217B8B1E012B19D8626AA369E6
:108F54009A4215D1E26963696262C6F34016032935
:108F6400A36284F82C6006D1009618492046FFF7C6
:108F7400DDFE09B0F0BD15492046FFF757FFF8E7BD
:108F8400134D0FCD03AC0FC42B682360BCF1000F4D
:108F940017D00E4AD2F8C434C2F8C43499070CD599
:108FA40001238DF80830002387F82F307307E0D4AD
:108FB400D7E9003102A89847DBE75A07F3D5022323
:108FC400EFE78DF808C0EEE7602B0020003000408A
:108FD4006C2B00202DE9F84F0579334C4FF03C08F9
:108FE40008FB05F804EB08069B4696F82D308146ED
:108FF4000F469246002B52D12C490068FFF7E2FA43
:1090040000284ED139687B7B86F8383001F5E07250
:109014004FF0A043B060C6F804B086F82F0086F87D
:10902400300040F20C6644F808A043F822607A68E5
:1090340002F5E07C43F82C60D9F80030C3F8081539
:10904400C3F80C25BA68C3F82425BAF1000F1ED062
:109054001B0B59B200293A7BB4BF154E01F160468F
:10906400DBB2B8BF03F00F074FEA4212A8BF06F500
:109074006146D2B2B4BFF25586F8002303F01F0351
:10908400012202FA03F349090A4A42F821303C2337
:1090940003FB0544012384F82D30BDE8F88F082034
:1090A400FBE71120F9E700BF602B0020198F0200B5
:1090B40014ED00E000E100E0026803790521C2F844
:1090C4000015044A3C2101FB0323022283F82D20CE
:1090D400704700BF602B00202DE9F74F2E4E90F80B
:1090E4000480D0F800E02D4BCEF808333C2404FB78
:1090F4000864C8EB081994F82F308A46154606EB25
:10910400890903F0FF0B33B1A368CEF804331120AF
:1091140003B0BDE8F08F82F00403C3F3800384F846
:109124002F3022628C46BCE80F0004F10C070FC7F5
:10913400DCF800303B60DAF80430A362DAF80C2083
:1091440062629AF80110CEF888159AF80010012985
:109154001AD0B9B9C5F340153C2101FB0861484652
:1091640081F82C5000957146FFF7E0FD3C2303FB8A
:1091740008F806EB080256F80830002BC8D182F82C
:109184002F30C5E70125E7E784F82CB0714648463F
:10919400FFF74CFEEAE700BF602B00208642040084
:1091A400F0B587B004460F4615460021142201A8E5
:1091B4001E4603F04EF99DF830308DF80570002BF3
:1091C40014BF2022002201A9204602960495FFF72D
:1091D40083FF07B0F0BDF0B587B004460F461546CF
:1091E400002112220DF106001E4603F032F901237C
:1091F400002201A920468DF804308DF805700296EE
:109204000495FFF769FF07B0F0BD72DF704773DFA5
:10921400704776DF70477ADF70477CDF70477FDF07
:1092240070478FDF7047B1DF7047FDF7A3BD0000C3
:1092340008B5064B01211878FFF7E9FF08B1FDF7DF
:1092440099FD0020BDE80840FEF7B8BED4220020F6
:109254000388212B13B5044652D024D8112B2DD0CA
:10926400132B45D0102B41D12D4B2E482E49C01A1B
:10927400C008000440F00300FDF7D8FB0120FEF70E
:109284009DFE0020FEF7A6FE284BA18828481980E1
:1092940001F0B0FE08B1FDF76DFDFDF73BFD28B30D
:1092A400FDF768FD22E0522B32D0562B01D03B2B28
:1092B4001CD11321A088FFF7ACFFF0E7184B194825
:1092C4001C49C01AC008000440F00300FDF7AEFBBF
:1092D4000120FEF77FFE154B4FF6FF721A80FDF753
:1092E4002FFD08B1FDF746FDFFF7A2FF02B010BD48
:1092F4000E4800231A4685210088FFF790FFCEE729
:10930400002301A98088ADF80430FFF78AFFC6E77F
:10931400064800231A4619460088FFF784FFBEE773
:10932400E4C5020024C602001BCD0200D6220020A0
:10933400082C002025CD020008B503784BB9054B55
:109344003B211888FFF765FF18B1BDE80840FDF719
:1093540011BD08BDD622002010B50A4B0A4CE41AF0
:10936400E408240444F0030402203AB1FEF726FE84
:1093740006492046BDE81040FDF758BBFEF72AFE1B
:109384000349F6E7E4C5020024C6020046CD020004
:1093940057CD0200FDF7EEBC30B54FF40041A7B045
:1093A4000020FDF77FF908B1FDF7E4FCFDF7B0F804
:1093B4007B4C7C4B7C49E41AE408240444F0030409
:1093C4002046FDF733FBFDF72DFF08B1FDF7D2FC76
:1093D400FEF71EFB08B1FDF7CDFC01F037FF08B125
:1093E400FDF7C8FC002317A90120179301F0B6FF6D
:1093F40008B1FDF7BFFC17A802F062F808B1FDF749
:10940400B9FC112369488DF8203003F077F86749D7
:1094140082B208A8FFF701FF08B1FDF7ABFC0822F0
:10942400002117A803F015F8614A4FF0C87317A874
:10943400CDE91723FFF7EFFE08B1FDF79BFC0021F0
:109444005C4801F0CFFC08B1FDF794FC00230893BD
:1094540017A9594B5948179301F0BAFD08B1FDF704
:1094640089FC574B5748089308A901F037FE08B107
:10947400FDF780FC41F22353ADF80430514B524DBB
:109484009B7C8DF806303C22002108A802F0E1FF05
:1094940002238DF820303C2240F20163002117A8FA
:1094A400ADF8223002F0D5FF2A460123ADF86C3026
:1094B40052F8041B01AB08A81C9301F00BF808B187
:1094C400FDF758FC414AA96817A801F003F808B150
:1094D400FDF750FC1822002102A802F0BAFF002375
:1094E4000122ADF8143003934FF480738DF80820F3
:1094F400ADF81C3002AA4023334935480493FFF7E2
:1095040084FE08B1FDF736FC1C22002117A802F0E6
:10951400A0FF00234FF42022CDE91732ADF86A30C2
:109524004FF420328DF86C302A4B19921C9303228D
:10953400294B8DF8682017A81D9301F093FA08B100
:10954400FDF718FCFEF764FE08B1FDF713FC00F00C
:1095540083FD00F049FD00F0BDFA204800F067FEED
:109564001F4800F0F1FB1E4800F0BAFC20461D49DC
:109574001D4CFDF75BFAFFF75BFE44F0010400F0BD
:1095840011FA4FF496754FF47A40A047013DFAD191
:10959400FDF7E2F80028F2D1FEF750FAEFE700BF3A
:1095A40024C60200E4C5020069CD020079CD0200A0
:1095B4005000A000DC2B00202F920200082C002079
:1095C4005D930200F02B0020C4220020D022002052
:1095D400D42200203D93020099930200EC22002043
:1095E400302C002087CD020040CD020008B5014692
:1095F40001220F2000F08EF9012008BD13B50122CD
:1096040004460DF10701202000F084F99DF80710AD
:1096140001F00F0141EA0411C9B220208DF80710AE
:1096240000F058F9012002B010BD000013B501226A
:109634000DF106010446202000F06CF901220DF121
:109644000701232000F066F99DF8062012F0F00FC0
:1096540006D11F4B1B7823F00F0313438DF80630FC
:10966400012C28D024B1022C16D0002002B010BD49
:109674009DF80630164A137003F00F038DF8063078
:109684009DF80610202000F025F99DF807102320EE
:1096940000F020F90120E9E79DF8063023F00803E3
:1096A4008DF806309DF8073023F0080343F00803D3
:1096B4008DF80730E4E79DF8063023F0080343F003
:1096C40008038DF806309DF8073023F00803EFE710
:1096D400142C002013B501220DF1070104462020AB
:1096E40000F018F99DF8071004F0070421F00701B1
:1096F400214320208DF8071000F0ECF8012002B07F
:1097040010BD13B5012204460DF10701232000F01A
:1097140001F99DF8071021F0300141EA0411C9B2A2
:1097240023208DF8071000F0D5F8012002B010BDF9
:1097340008B500F0B5F808B1FDF71CFB0520FFF7EC
:109744005DFF0220FFF772FF0020FFF7DAFF07201A
:10975400BDE80840FFF7BEBF13B5012204460DF172
:109764000701222000F0D6F8214622208DF8074078
:1097740000F0B0F8012002B010BD13B50122044678
:109784000DF10701302000F0C5F89DF8071001F035
:109794004001214330208DF8071000F09BF8012090
:1097A40002B010BD13B5012204460DF107013020AB
:1097B40000F0B0F89DF8071001F03F0141EA841170
:1097C400C9B230208DF8071000F084F8012002B0EF
:1097D40010BD08B50306014604D4322000F07AF81F
:1097E400012008BD0020FCE770B506464020144661
:1097F4000D46FFF7B1FF3046FFF7EBFF3CB13F20CA
:10980400FFF7BBFF2846BDE87040FFF7CBBF2046FB
:10981400F6E713B5012204460DF10601282000F0F5
:1098240079F80DF107010122292000F073F8BDF841
:10983400063023800DF1060101222A2000F06AF887
:109844000DF1070101222B2000F064F8BDF8063069
:1098540063800DF1060101222C2000F05BF8012247
:109864000DF107012D2000F055F8BDF80630A38056
:10987400012002B010BD000003784BB90379032B1B
:1098840006D8DFE803F002060602034B01221A7031
:109894007047024BFAE700BF162C0020152C00205D
:1098A4001FB5094B0FCB6C4684E80F0021460023FB
:1098B400064A0748FFF78EFB044610B90448FFF731
:1098C400FBFB204604B010BDA0CD02007D98020031
:1098D400B0CD02001FB500238DF80C008DF80D10DB
:1098E400009303AA022319210848FFF759FC38B949
:1098F400074A42F21073117829B9013BFBD10D20BC
:1099040005B05DF804FB00231370F9E7B0CD020045
:10991400162C002030B585B000230C4615468DF872
:109924000F0000930DF10F02012319211148FFF7D5
:1099340037FC38B9104A42F21073117839B9013B37
:10994400FBD10D2005B030BD00231370FAE70023CE
:10995400137019212B4622460648FFF73CFC0028C9
:10996400F0D1064A42F2107311780029ECD1013B80
:10997400FAD1E6E7B0CD0200162C0020152C002009
:109984000448054B0549C01AC008000440F0030010
:10999400FDF74CB824C60200E4C50200B8CD0200AD
:1099A400000000002DE9F0472DED048B434E84B0F8
:1099B4003046FFF72EFFB6F90250B6F900402846AC
:1099C40001F0E8FDB6F904A080465046894601F04E
:1099D400E1FD06460F4647EC116B49EC108B02F093
:1099E400B1FA42464B4640464946B0EE408AF0EE54
:1099F400608A01F057FF3246804689463B4630462E
:109A0400394601F04FFF02460B464046494601F0F5
:109A140005FE41EC100B02F09DFB2046B0EE409A8F
:109A2400F0EE609A01F0B6FDB0EE491AF0EE691A54
:109A3400024601F1004343EC102B02F083FA204E5E
:109A4400204BCDF800A0F61AF608360446F00306BB
:109A54002B46224630461C498DED020BFCF7FDFFD8
:109A64009DED020B002251EC100B184B01F01AFF74
:109A740010A3D3E9002301F0CBFF01F0A2FD0022E3
:109A840004B2124B51EC180B01F00CFF09A3D3E9FB
:109A9400002301F0BDFF01F094FD0D4902B22346FD
:109AA400304604B0BDEC048BBDE8F047FCF7CBBFF7
:109AB400AFF30080182D4454FB210940182C0020DA
:109AC40024C60200E4C50200F6CD02000080664010
:109AD4000ECE020007B50023ADF8043001238DF843
:109AE4000430134A022301A913208DF80630FEF72F
:109AF400C7FB08B1FDF73EF901211320FEF734FC42
:109B0400FFF716FE012203211420FFF76DFE0DF16D
:109B14000300FFF76BFD074B07480849C01AC0084C
:109B2400000440F00300FCF781FF03B05DF804FB80
:109B340085990200E4C5020024C60200D0CD0200CB
:109B44001FB51D4B009300220446042369461B489D
:109B54000392CDE90132FEF7B7FE08B1FDF70AF929
:109B64000022FF23694615480094CDE9013203928F
:109B7400FEF7AAFE08B1FDF7FDF80022FF343523F5
:109B840069460E480094CDE901320392FEF79CFE2B
:109B940008B1FDF7EFF80A4B009300220D23694644
:109BA40006480392CDE90132FEF78EFE08B1FDF7B7
:109BB400E1F804B010BD00BF2B2C0020DC220020F3
:109BC4001E2C002000F59A72F021002301704370CE
:109BD4008370C37004309042F8D17047F0B51D4BC8
:109BE4000E46174605460FCB85B06C4684E80F0039
:109BF4004FF00043029300231A46214616488DF87D
:109C040001708DF80060FEF71DFD08B1FDF7B2F894
:109C1400124B134C1349E41AE408240444F00304DB
:109C24002046FCF703FF4FF49A7002F099FB28607A
:109C340038B920460C49FCF7F9FE4FF40040FDF713
:109C440099F82868FFF7BEFF08492046FCF7EEFEA6
:109C540005B0F0BD24CE0200D8220020E4C50200E5
:109C640024C6020034CE020041CE020066CE0200B9
:109C74002DE9F74F092B0746ADF804203AD82A48B6
:109C84009DF904E09DF8052030F8139000244FF06E
:109C9400010C4FF0070A5FFA8EF6C2EBC205354499
:109CA4004FFA82F8EDB20020C3B21819C0B20CFA10
:109CB40000F010EA090F23D00A2A1ED8F018C0B207
:109CC40006281AD805EB030B4FFA8BFB5FFA8BF0CF
:109CD4004C2804D80C9847F82B0001F80BC001332A
:109CE400DBB2032B58B2DFD10334E4B201320F2CC0
:109CF400D2B2D0D103B0BDE8F08F4FF0FF3BE5E71F
:109D04000A2A0ED806EB030B5FFA8BFBBBF1060F96
:109D140007D818FB0ABB4FEA8B0B0D9847F80B00CA
:109D2400DDE76FF0030BF8E77ECE020038B504469A
:109D340038B1044D45F001054FF47A40A847013C81
:109D4400FAD138BDA0CE020010B50E4B0E49044620
:109D54000E48C01AC008000440F00300FCF766FE79
:109D6400042002F0FDFA0021206084F851104D22F5
:109D7400201D02F06EFB206819221A21BDE8104054
:109D8400FFF72CBFE4C50200A6CE020024C60200E1
:109D94002DE9F043DFF8C090DFF8C08087B00446B7
:109DA400ADF81020D9F80020ADF80C30D8F8003008
:109DB400ADF814100646906854F8047B93F900300B
:109DC4000190106800900A25059A386893FBF5F312
:109DD4002146DBB2FFF74CFFD9F80020D8F8003059
:109DE400906893F9001001903768106891FBF5F3BF
:109DF400009005FB1313049A38682146DBB2FFF781
:109E040037FFD9F80020D8F80030906893F9013072
:109E14000190506837680090039A386893FBF5F313
:109E24002146DBB2FFF724FFD9F80020D8F8003030
:109E3400906893F901100190506891FBF5F305FBCC
:109E4400131335680090DBB20E9A28682146FFF799
:109E54000FFF07B0BDE8F083882C00208C2C002075
:109E640003681868FFF76CBEF0B5184B184A194917
:109E7400194C1B884D785778D1B00646ADF80030A0
:109E840013780A782178647842EA052241EA0421A9
:109E940043EA0723FFF77CFF03A8FFF793FE0F4D68
:109EA400002403AB1819336819682144043422468A
:109EB40002F0A6FA03A8FFF743FEB5F90000FFF786
:109EC40035FFB4F59A7FECD151B0F0BDC1CE02009C
:109ED400BFCE0200BDCE0200BBCE0200E8220020AD
:109EE4002DE9F0433E4FDFF8FC90B7F90030002B2A
:109EF4008FB006460CBF6FF004046FF009044FF0F6
:109F04000008042533681868FFF75CFEB7F90030D1
:109F1400012B2DD0022B45D0E3B98DF808308DF8F4
:109F24001030C4F106035BB28DF814508DF815306F
:109F34008DF811308DF80C50BDF814308DF80D40AB
:109F44008DF80940ADF80030DDE90323029930466D
:109F5400FFF71EFF30460134FFF782FF64B2B9F900
:109F64000000FFF7E3FE002CCCDD0FB0BDE8F0836A
:109F7400A31D5BB28DF824508DF825308DF8213067
:109F84008DF81880BDF824308DF819408DF81C50D8
:109F94008DF81D408DF82080ADF800300699DDE97C
:109FA4000723D4E7E3B25A42C3F106035BB252B2C9
:109FB4008DF834508DF835308DF829208DF83130F6
:109FC4008DF82880BDF834308DF82C508DF82D2074
:109FD4008DF83080ADF800300A99DDE90B23B6E73F
:109FE400842C0020EA22002010B500F027F8062077
:109FF40002F0B6F90E4C20600C2002F0B1F90D4BC2
:10A004000D4A186023681168928819609A80142197
:10A014000023E222027043708370C17002714371A5
:10A024008171C171027243728372C37210BD00BF29
:10A034008C2C0020882C0020C3CE020008B50420FC
:10A0440002F08EF9024B1860024B036008BD00BF9A
:10A05400902C00206D9E020037B5134B1348144911
:10A06400144DC01AC008000440F00300FCF7DEFCE5
:10A07400642445F001054FF47A40A847013CFAD125
:10A084002046FEF703FD08B1FCF774FE022101A887
:10A09400FEF728FD08B1FCF76DFE9DF8050002F0FF
:10A0A400A9F903B030BD00BFE4C5020024C6020014
:10A0B400D6CE0200D0CE0200024B800143F0010351
:10A0C400184700BFF0CE0200827901234FF0A0416F
:10A0D40003FA02F2C1F80C2502799340C1F808355D
:10A0E4000420FFF7E9BF2DE9F04743794FF0A0447E
:10A0F40003F5E07391460322002544F82320064625
:10A1040088460127AA46737948FA05F207FA03F349
:10A11400D2074CBFC4F80835C4F80C350120FFF74A
:10A12400CBFFB37907FA03F3C4F808350120FFF72E
:10A13400C3FFB9F1000F0BD0072D09D1737903F5D3
:10A14400E07344F823A00135082DDCD1BDE8F08785
:10A15400B37907FA03F3C4F80C350120FFF7ACFF19
:10A16400F1E72DE9F04143794FF0A04503F5E073A1
:10A17400002445F823400746A0460126BB7906FA89
:10A1840003F3C5F808350120FFF796FFBB7906FAFB
:10A1940003F3C5F80C350120FFF78EFFD5F8100541
:10A1A4007B79D84000F00100A040013440EA080067
:10A1B400082C5FFA80F8E1D14046BDE8F081012324
:10A1C40003FA00F04FF0A043C3F80C050420FFF796
:10A1D40073BF38B50446FFF777FF0122812120467B
:10A1E400FFF781FF2046FFF7BCFF05462079FFF704
:10A1F400E6FF284638BD38B505460C46FFF7E9FFAB
:10A2040000F07F0040EAC41044B22846FFF75CFF28
:10A21400284600228021FFF766FF2846E1B200228B
:10A22400FFF761FF2879BDE83840FFF7C8BF4279DE
:10A234001F23036002F5E0724FF0A043002170B4C5
:10A2440043F82210857905F5E076032243F82620A9
:10A25400047904F5E07643F82620012202FA04F496
:10A26400AA40C3F80C45C3F80C2570BCFFF7C3BF64
:10A274000369C1688B429DBF8268D21802F1FF3224
:10A2840003F1FF3394BF501A581A70472DE9F04177
:10A29400D0E9027405463E1B406896422044884635
:10A2A400144404D902F0ACF8EC60BDE8F081324605
:10A2B400E41B02F0A5F8224608EB06016868F1E702
:10A2C4002DE9F843C5680646894617464FF000084D
:10A2D4003469B3687068A54228BFE418013C621B66
:10A2E4005C1BBC4228BF3C46944228BF14464946E6
:10A2F4002844224602F084F8B3682544AB4208BFE0
:10A3040000253F1BA044A144F560E1D14046BDE8CF
:10A31400F883000010B5114C114AA2610223C4E96C
:10A324000433104BE361A2644FF400730E4A2362BA
:10A33400E264002310220D49A362E01D6362E3621C
:10A34400A3656365E365226502F0B6F80849204613
:10A3540002F0B2F82023A37110BD00BF942C00209A
:10A36400F6CE02001C2D00200C2D0020FFCE020092
:10A3740003CF0200F8B5184C182300FB033503FB88
:10A3840000402544C46A012C0F46164611D024B15E
:10A39400022C1BD000242046F8BD2846FFF768FF96
:10A3A400B042F8D3324639462846FFF76FFF3446A9
:10A3B400F1E72846FFF75CFF8642344628BF04468F
:10A3C400224639462846FFF761FFE4E72846BDE800
:10A3D400F840FFF775BF00BF942C0020FFF79ABF29
:10A3E4006DDF704779DF70477DDF704764DF70474A
:10A3F4002DE9F04F85B000250E9CBDF83CB02788B0
:10A404000191804691469A462E46B8F80020B24201
:10A414000CDC3DB12288013AD21B92B2FF2A3BD810
:10A424000AF80720002005B0BDE8F08FD8F8042012
:10A4340052F82600039000220DF10B0103A8FFF748
:10A44400D5FF0028EFD19DF80B204A4522D1228860
:10A45400002D14BF0020022002EB090101445945DC
:10A464001ADC45B9013292B2019B22800AF802300B
:10A4740022880132228022880DF10B01524403A864
:10A48400FFF7B4FF0028CED121889DF80B200A44A1
:10A49400228001250136B8E70C20C4E72DE9F341F9
:10A4A400089CBDF824501746CDE900450222064613
:10A4B4009846FFF79DFF50B943461022394630466F
:10A4C400CDE9084502B0BDE8F041FFF791BF02B005
:10A4D400BDE8F0812DE9F04F00231688138090F831
:10A4E4002D3085B007460D46144653B3082E01D8C7
:10A4F4000C2027E102A8FFF773FF002840F0228117
:10A5040023880822EA54238801339BB21B22238028
:10A51400EA542088013080B2208006220DF109011E
:10A52400284401F06DFF23889DF8082006339BB270
:10A5340012F0FE0218BF01222380EA54238801335B
:10A544002380BB78FBB123880433B342D0D802A85C
:10A55400FFF748FF002840F0F58023880322EA54DF
:10A56400238801339BB219222380EA542388BDF83F
:10A57400082001339BB2E9182380EA54120A4A7076
:10A58400238802332380FA789AB12388D91CB142F4
:10A59400AED80221E954238801339BB201212380E0
:10A5A400E95423880B449BB22380EA5423880B4448
:10A5B40023807A68AAB12388D91CB14298D8022191
:10A5C40092F90020E954238801339BB20A212380A5
:10A5D400E954238801339BB22380EA54238801334E
:10A5E40023803B89002B40F0A1803B8A5BB1CDE9FD
:10A5F40000462B460722032107F11000FFF74EFF08
:10A60400002840F09F803B8B5BB1CDE900462B4690
:10A614001522142107F11800FFF740FF002840F02D
:10A6240091803A6A002A40F09080D7F82480B8F1EB
:10A63400000F30D0B8F804302188981C8A1C0244DA
:10A64400B2423FF655AFFE283FF652AF03336B5488
:10A65400238801339BB2FF222380EA5423880133E9
:10A664009BB22380B8F80020EA54E918120A4A7011
:10A674002088023080B22080B8F804205AB1D8F87B
:10A68400081000296BD0284401F0BAFE2388B8F8DA
:10A6940004201344238097F82C30002B40F09A8038
:10A6A400387800284ED03B88012B58D0228802F1FC
:10A6B400020CB4453FF61CAF012805D17B78023368
:10A6C40013449E42FFF414AF023EB61AB6B202A976
:10A6D40005EB0C00ADF80860FFF786FE90BB3978F7
:10A6E400BDF80820022900F0BA807B78934202D397
:10A6F400B24240F2B280012940F0B3809BB29E4244
:10A70400C0F0AF80ADF808300821BDF80830FE2B4A
:10A714003FF6EEAE22880133AB542288013292B266
:10A724002280A9542288134423800BE0CDE90046FB
:10A734002B460622022107F10800FFF7AFFE00288E
:10A744003FF453AF05B0BDE8F08FB4F800C00CF18E
:10A754000603B3423FF6CCAE1188052901D8072081
:10A76400F0E76FF4486E01EB0E039BB24FF27D3EAF
:10A774007345F4D95388052BF1D96FF44860181840
:10A7840080B27045EBD94FF6FF70814203D083420B
:10A7940001D09942E3D8052305F80C30238801330E
:10A7A4009BB212212380E954238801339BB2238076
:10A7B4001188E954E818090A4170238802339BB2CE
:10A7C40023805288EA54E918120A4A702388023313
:10A7D40023802AE7BB6A002BC1D04FF000094FF059
:10A7E4000C0A4FF0160B97F82C305FFA89F293425B
:10A7F4007FF656AFB96A0AFB02F201EB0208B8F819
:10A804000430981CFE283FF673AE208803332B5483
:10A81400238801339BB2238005F803B023880133D6
:10A824009BB223808A5AEA54E918120A4A70208893
:10A83400023080B22080B8F804205AB1D8F8081049
:10A8440000298CD0284401F0DBFD2388B8F80420CB
:10A854001344238009F10109C5E7092155E7B242F0
:10A86400FBD9ADF808604FE775DF704776DF7047B6
:10A874007ADF70477BDF7047034B1A8882420CBF34
:10A8840018460020704700BF382F0020024B9B69F8
:10A8940003B11847704700BF1C2F002073B586B260
:10A8A4003046FFF7E9FF044670B1164D027A2B7B60
:10A8B4009A420BD200F10A013046FFF7D5FFE8B106
:10A8C400112801D0FFF7E2FF02B070BD002303722C
:10A8D4002B7C43B13B213046FFF7C8FF30F008031F
:10A8E40001D0FFF7D3FF6B69002BEDD000228DF868
:10A8F4000420ADF8066001A89847E5E7237A013300
:10A904002372E1E71C2F002013B50B46497A0F4C44
:10A91400024669B9D4E901101C7A002C18BF01461B
:10A924005868FCF7C1FC08B1FFF7B0FF02B010BDD6
:10A93400002119726369002BF8D00121ADF80600DB
:10A944008DF8041001A89847F0E700BF1C2F0020E1
:10A954004B8802889A4213D842889A4210D380883E
:10A964008A8840F2F313984294BF031AC31A93429D
:10A9740006D800F2F310904234BF00200120704743
:10A98400002070470388112B70B5014648D002D8C7
:10A99400102B1ED070BD122B52D0502BFAD12F4B3E
:10A9A400C288DB899A42F5D1038A022BF2D18688C8
:10A9B4003046FFF761FF05460028EBD001F1120095
:10A9C40000F021F930BB6868FCF7B4FC0028E1D042
:10A9D40009E0C37B012BDDD14FF6FF70FFF74CFF7D
:10A9E400054620B90420BDE87040FFF74FBF1C4A5C
:10A9F4008E880680002303721368C5F80A300A3073
:10AA0400536843601031FFF7A3FF144B6872DB896E
:10AA1400002BBFD129463046BDE87040FFF774BF14
:10AA24008088FFF729FF04460028B3D04068FCF76C
:10AA340081FC08B1FFF72AFF4FF6FF732380A9E7D3
:10AA440086883046FFF718FF05460028A2D0083153
:10AA54000A30FFF77DFF6872DCE700BF1C2F00207F
:10AA64004C2F0020F8B5064648B305460FCD154FC8
:10AA74003C460FC495E8070084E807003068124C90
:10AA84003C60B0B1FFF7F4FEC0B9326813682360CC
:10AA9400536863600D480E4A4FF6FF7303800D4BF5
:10AAA40040F8043F0021FCF7EDFB002818BF032009
:10AAB40004E02046FFF7DEFE0028EBD0F8BD0E20B0
:10AAC400FCE700BF1C2F00204C2F0020382F002053
:10AAD400A1A80200542F002073B50191019C0646E1
:10AAE4006CB100252C46294601A8FCF780FC18B15E
:10AAF40006EB440301349D800135142DF3D1304617
:10AB0400346002B070BD00002DE9F04703888488EA
:10AB1400112B8CB006463CD01A2B3FD0102B17D1EA
:10AB2400274DAB68DB43009369686846FCF788FCF3
:10AB3400009901A8FFF7D0FF0DF108094FF00008B4
:10AB4400019B984507D3132C13D90420FCF712F961
:10AB54000CB0BDE8F08739F802AB00270137514645
:10AB640005EB8700FCF739FC1D2FF7D108F101082C
:10AB7400E6E721461348FCF727FC21461248FCF778
:10AB840023FCF37B012BE3D010482146FCF71CFC8B
:10AB9400DEE70C482146FCF720FCD9E7057A0C488F
:10ABA4002D09012D214606D9FCF70EFC022D214664
:10ABB4000848F0D0EAE7FCF710FC21460548EAE72C
:10ABC400742F00207C2F0020782F0020802F00205D
:10ABD400842F0020882F0020AADF7047002301382B
:10ABE4000B70042806D8DFE800F00306080A0C00FE
:10ABF40011230B7070472123FBE73123F9E712235C
:10AC0400F7E72223F5E7007800F001007047F0B57C
:10AC14008B7891B0002B0C4608BF01238DF80E30C1
:10AC240005460B88ADF80C30002116466846032211
:10AC340001F00FFC6946607CFFF7D0FF0DF10101C4
:10AC4400A07CFFF7CBFF9DF80230E27B62F3C303E5
:10AC5400227C62F30413227B62F30003227D002A28
:10AC640014BF0222012262F3420300211C2209A81C
:10AC74008DF8023001F0EDFB637B13F0300F15D03B
:10AC840002AF03220021384601F0E3FB0DF1090174
:10AC9400E07CFFF7A3FF11238DF808309DF80A30FC
:10ACA4000E97012262F342038DF80A30637B8DF81C
:10ACB40024301422A37B8DF82530002104A801F050
:10ACC400C8FB03AB0493A388ADF81C30A368CDF88C
:10ACD40014D01BB1E288ADF818200893A369002BA7
:10ACE4002ED001AF03220021384601F0B2FBA36944
:10ACF4001A88ADF82C205A88187BADF82E203946D6
:10AD04005A680A920D97FFF769FFA3690DF10501CF
:10AD1400587BFFF763FFA2699DF80630917A61F3CF
:10AD2400C303D17A61F30413117A927B002A61F38D
:10AD3400000314BF0222012262F342038DF806309D
:10AD4400E36903B10C93334604AA09A92846FFF723
:10AD540043FF11B0F0BD90DF7047A5DF7047B5DF4A
:10AD6400704700007FB50023ADF80810ADF80A1055
:10AD74006A4602A9064603930093ADF80430FFF730
:10AD8400EAFF054600B3124B124CE41AE408FCF740
:10AD9400B9FE240444F00104034632460E49204619
:10ADA400FBF751FEBDF80020BDF8023052EA030162
:10ADB40003D00A492046FBF746FEBDF804201AB129
:10ADC40007492046FBF736FE284604B070BD00BF95
:10ADD400E4C5020034C602000ACF020054CF0200C8
:10ADE40093CF020078B14FF0171303601B23037154
:10ADF4001723C380038141F61B3200230161438181
:10AE04008281184670470E207047000013B5034630
:10AE140080880C46A0B91A88232A00F0A38011D890
:10AE2400102A22D0112A51D0A37A4BB1E1880020F4
:10AE3400FFF793FF002840F09B804FF480736381F9
:10AE440002B010BD3A2A49D0552A5FD0242AEBD14A
:10AE54001A7A0B694A73002BE6D04DF67A21ADF8C5
:10AE6400040000918DF8042078E0DB7B0A790A73F2
:10AE7400012B13D0022B14D0E18823898B4205D2F5
:10AE84000020FFF76AFF70B90123E372217B637B23
:10AE94008B42C9D20020FFF765FFC5E70B88E3802A
:10AEA400EAE74B88FBE7112802D10123A372EDE7FF
:10AEB400FCF728FE374A384B38499B1ADB081B0439
:10AEC400024643F00100FBF7B5FDDFE71723CB8013
:10AED4000B8141F61B3348818B81A5E75B89CA88C6
:10AEE400934228BF1346172B0A6938BF17230B81D7
:10AEF4004AB1C97A39B140F677210091ADF80430EE
:10AF0400694620469047002363818DE7DB88C98822
:10AF1400A072172B38BF17238B4228BF0B462381FF
:10AF2400FFF71DFF60B1FCF7EDFD1A4A1A4B1C49EF
:10AF34009B1ADB081B04024643F00100FBF77AFD71
:10AF4400E37A002B7FF470AF2369002B3FF46CAFDE
:10AF540040F6772200922289ADF804206946204603
:10AF6400984761E7197A237B994228BF194692E7EB
:10AF740011283FF465AFFCF7C5FD064A064B0749A7
:10AF84009B1ADB081B04024643F00100FBF752FD49
:10AF940056E700BFE4C5020034C60200E9CF020050
:10AFA4001AD00200B0DF704766DF704710B5002189
:10AFB40004464088FFF7F8FF034608B9237210BD22
:10AFC400112801D10123F9E76368BDE8104018474F
:10AFD40060B159B10378DE2B0AD00B684360DE23DD
:10AFE40003704FF6FF734380002070470E207047B4
:10AFF4000820704728B10378DE2B04D1418000205B
:10B0040070470E20704708207047F0B5054685B09C
:10B014000C46F1B1E8B10B78DE2B1AD182884B884B
:10B024009A4204D10B7A13B10846FFF7BFFF2B886D
:10B03400112B32D0512B0ED0012B0AD12B7A012B9C
:10B0440007D1A9886288914203D123722046FFF771
:10B05400ADFF05B0F0BDAE886388B342F9D1AF79D6
:10B06400022FF6D1AD7B2B1F022BF2D80021102228
:10B07400684601F0EEF9052D14BF4FF4C0730023A8
:10B08400694630468DF80070ADF80430FFF78AFF4A
:10B094000028DED063689847DBE76388AA889A4271
:10B0A40004BF4FF6FF736380D3E7A8DF704762DF06
:10B0B40070470288502A10B40DD1C4884A8894423B
:10B0C40009D1028A012A06D14B6923B1827C5DF839
:10B0D400044B808818475DF8044B7047F0B50B6843
:10B0E40043618FB0334B02AA044603F1100716469E
:10B0F40018685968154603C50833BB422A46F7D178
:10B1040004F112013046FFF7D2FF00284FD1A37C8F
:10B114008DF80630224641F2235301A90120ADF8EF
:10B124000430FFF7C2FF002841D10146202206A8BF
:10B1340001F08FF941F22453ADF81830A37C8DF857
:10B144001A309DF82530224623F0120301254FF0D2
:10B15400011643F0120332F80A0B079606A98DF87C
:10B1640025308DF829508DF82B50FFF750FDF0B99C
:10B174000146202206A801F06CF941F22553ADF8EE
:10B184001830A37C8DF81A309DF825300796224696
:10B1940023F00A0343F00A0332F8020B8DF825303A
:10B1A40006A98DF829508DF82A50FFF730FD0FB00D
:10B1B400F0BD00BF56D0020010DF704713B504463F
:10B1C40009496846FCF769FC019808B902B010BD4A
:10B1D400D0E900312046984718B16846FCF767FC6F
:10B1E400F2E71120F2E700BF6CD0020013B5044669
:10B1F40007496846FCF751FC019B0BB902B010BD2E
:10B204002046D3E9002190476846FCF750FCF3E759
:10B2140084D002000B4991F816335A09EC231341E8
:10B22400DB0706D5084B9A683AB94FF480030B60E4
:10B23400704742F20200FBF79DBD1A6842F4800297
:10B244001A60704700E100E02C2A0020F7B5194F7E
:10B254003C7864BB184E012520463570FFF7AEFFDD
:10B26400112821D02046FFF7C1FF144B8DF803406D
:10B27400186801900DF10300FCF76CF8104901A85F
:10B28400FFF79AFF0446B0FA80F0400938709DF841
:10B294000300FCF783F83CB90A4B34701C70FFF7C9
:10B2A400B9FF2846FFF7A2FF204603B0F0BD0824EB
:10B2B400FAE700BFED2F0020EC2F002066D002003B
:10B2C400956D0200EE2F0020014B1878704700BFE7
:10B2D400ED2F002007B508496846FCF7DEFB019B0B
:10B2E40013B903B05DF804FBD3E900209047684626
:10B2F400FCF7DDFBF3E700BF78D00200FFF7EABFFD
:10B3040060DF704769DF704761DF704730B5114B0C
:10B314001B7891B0E3B1104D34240DF1020103A860
:10B32400ADF80240FFF7F0FF70B9294601A8FCF719
:10B33400B4FB029B002BF0D003A8D3E90021904773
:10B3440001A8FCF7B4FBF4E7052801D0FBF712FDD4
:10B3540011B030BDEF2F0020C4D2020030B5054635
:10B3640085B00C46002900F099804D4B0B600C22EF
:10B37400002101A801F06DF801238DF80630226840
:10B384008DF80450062301A92020ADF80830FFF7FA
:10B39400B9FF60B1FCF7B6FB424A434B43499B1AE1
:10B3A400DB081B04024643F00100FBF743FB0C22BD
:10B3B400002101A801F04DF801238DF80530226821
:10B3C400002301A94020ADF80630FFF79BFF60B1D0
:10B3D400FCF798FB334A344B35499B1ADB081B04B2
:10B3E400024643F00100FBF725FB0C22002101A8D3
:10B3F40001F02FF80A2322688DF8043001A90120F6
:10B40400FFF780FF60B1FCF77DFB264A264B2949F4
:10B414009B1ADB081B04024643F00100FBF70AFBFE
:10B424000C22002101A801F014F84FF4B063226843
:10B43400019301A9A120FFF765FF60B1FCF762FB4E
:10B44400184A194B1C499B1ADB081B04024643F09B
:10B454000100FBF7EFFA0C22002101A800F0F9FF2C
:10B464009DF8043022686FF3000301A9A0208DF831
:10B474000430FFF747FF034668B1FCF743FB094A72
:10B48400094B0E499B1ADB081B04024643F00100DA
:10B49400FBF7D0FA0023184605B030BD0E23FAE7B7
:10B4A400B8220020E4C5020044C6020098D002007D
:10B4B400DED002002AD1020076D10200C7D10200F8
:10B4C400F8B506460768FFF71BFF3368BB4205461D
:10B4D4001DD9194B194C1A49E41AE408240444F000
:10B4E40002042046FBF7A2FA336816493A4620467E
:10B4F400FBF7A9FA4FF080533268D3F80C311249A4
:10B504009B0203F100539A1A2046FBF793FA25B9DC
:10B514000E4B01221A702846F8BD2846FCF7F2FAB1
:10B52400054A064B0A499B1ADB081B04024643F0F2
:10B534000100FBF77FFAEEE7E4C5020044C602000F
:10B544001AD2020049D202007AD20200EF2F002060
:10B55400A4D202004BDF70471FB50D4C01A8FFF7C2
:10B56400F9FF70B9214602A8FCF797FA039B002B58
:10B57400F4D00198D3E90021904702A8FCF797FA88
:10B58400F4E7052801D0FBF7F5FB04B010BD00BFBC
:10B59400DCD20200004204BF0146704710F00042B2
:10B5A4004FEA125242F4806242F01D0200D540423A
:10B5B400B0FA80F18840521AC30A400503EB0251E5
:10B5C40070474B005A0DA2F54072FF3A0FD4D2F1E6
:10B5D4001F020EDD11EA410F4FEAC12141EA50502A
:10B5E40040F0004020FA02F028BF4042704700209B
:10B5F4007047004218BF43F0010313F5001F88BFD2
:10B6040021F0004111F0004058BF6FF00040704736
:10B6140081F0004183F0004383F00043F0B491EAE9
:10B62400030F00F18E80841A71EB030603D2121902
:10B634007341001BB1414FF07F4646F4600616EAA1
:10B64400410F08BF62E0B6EB410F98BF69E04FEAD3
:10B654001154A4EB1357B14341F4801116EA430F7C
:10B6640007BF00230022B34343F48013D7F120061D
:10B6740034D303FA06F5401941F1000122FA07F523
:10B68400401923FA07F541EB050102FA06F211F419
:10B69400001F19D121F4801101EB0451F0BCB2F167
:10B6A400004F08BF10EA500F50F1000041F10001B3
:10B6B4004FF07F4343F46003B3EB410F88BF7047FF
:10B6C400090D09050020704749085FEA30005FEA68
:10B6D400320228BF42F001020134DBE7203F402F51
:10B6E40019D223FA07F5401941F10001C7F12006E8
:10B6F400124218BF012203FA06F52A43C7E711EAEA
:10B70400560F04BF00200021F0BC704701F0004137
:10B714000020F0BC704721F4801101EB0451F0BC0F
:10B724007047004218BF41F00101B6EB410F04BF5E
:10B73400F0BC70474FF0FE4141F478010020F0BCAA
:10B74400704783F00043841A71EB030705D287F036
:10B754000047001BB94112197B415FF07F4656F444
:10B76400600616EA430FCAD0B6EB410F40F28C8054
:10B774000C0DA4EB1357C90241EA5051C00241F029
:10B784000041DB0243EA5253D20243F00043D7F1B3
:10B7940020065AD302FA06FCFA4003FA06F52A43B5
:10B7A400FB401CEA0C0F18BF42F00102801A9941B9
:10B7B400E30A6405640D11F0404F2ED427D100290B
:10B7C40002BF01460020203C00295BD0B1F5803F38
:10B7D4003FBF103C090441EA10410004B1F1807FED
:10B7E4003FBF083C090241EA10610002B1F1805FE9
:10B7F4003FBF043C090141EA1071000111F0404FC0
:10B8040001BF023C890041EA9071800009425FBF98
:10B81400013C490041EAD0714000002C11DD420591
:10B8240021F00041C00A40EA4150C90A41EAC3710B
:10B83400460872F1004250F1000051EB0451F0BC93
:10B8440070470020D907F0BC7047A7F12007202FCC
:10B854000CD2C7F1200603FA06F5FB402A4318BFB1
:10B8640043F00103C01A61F10001A1E721F0004196
:10B87400C00A40EA4150C90A01EB0451F0BC7047C8
:10B8840000200021F0BC7047004218BF41F00101C4
:10B89400B6EB410F7FF44EAFB6EB430F3FF44AAF24
:10B8A400F0BC7047F0B5574F81EA030517EA010E63
:10B8B4001EBF9EEA070F17EA030494EA070F64D039
:10B8C4004EEAD57EA64421EA470141F4801123EAD9
:10B8D400470343F48013A1FB0247A0FB0365361919
:10B8E4007D41A1FB034747F10003A0FB0217F619B2
:10B8F400654153F10003094218BF46F001061427BD
:10B90400B3F5007F47F1000734BF3F4A3F4ABEEB1F
:10B91400020E31D4C7F1200403FA04F105FA04F04D
:10B9240025FA07F2114326FA07F2104316FA04F433
:10B9340021F480114FEA5E0741EA47010AD0B4F1CD
:10B94400004F50F1000041F10001B4F1004F08BF75
:10B9540020F001002B4F1EEA070F10D041EACE71F0
:10B96400BE453CBFBDE8F04070472649002041EA8F
:10B97400CE71BDE8F04070471EEB020EF5D44FEADD
:10B98400CE710020BDE8F0407047394204BF01F099
:10B9940000410020004218BF41F001013B4204BFB6
:10B9A40003F000430022124218BF43F0010307EAE8
:10B9B4000304BC4218BF9EEA070F05D005F00041FE
:10B9C4000020BDE8F040704721F0004123F000431F
:10B9D400B9420FD8BB420DD8002918BF002B09D09B
:10B9E40005F0004141F0FE4141F470010020BDE842
:10B9F400F04070474FF0FE4141F478010020BDE86B
:10BA0400F04070470000F07F0000F03F0000E03F8E
:10BA1400F0B581EA030E0EF0004E814F17EA41059E
:10BA24001EBF95EA070F17EA430494EA070F00F0D4
:10BA3400C5806D0DA5EB545707F580674FF00046A0
:10BA440046EAC12444EA5054C00246EAC32343EA06
:10BA54005253D202801A9C4104D2001864418018C7
:10BA64005C41013F5B084FEA32020025002140F0AF
:10BA740001004FF0070604E0801A9C4136D3404190
:10BA84006441801A9C4136D340416441801A9C41F0
:10BA940036D340416441801A9C4136D340416441CD
:10BAA400801A9C4136D340416441013E17D0801A2C
:10BAB4009C4136D340416441801A9C4136D3404175
:10BAC4006441801A9C4136D340416441090201EB30
