:020000022000DC
:1060000000000420756302005D6302005F6302000C
:106010006163020063630200656302000000000028
:1060200000000000000000000000000067630200A4
:1060300069630200000000006B6302006D630200F0
:10604000819802006F630200399D02006F630200B5
:106050006F6302006F6302008D9B02006F6302009A
:106060006F6302006F6302006F6302006F630200E0
:106070006F6302006F6302006F6302006F630200D0
:106080006F6302006D7102006F6302006F630200B4
:10609000097202006F630200890003006F6302004F
:1060A0006F6302006F6302006F6302006F630200A0
:1060B0006F6302006F630200000000000000000038
:1060C0006F6302006F6302006F6302006F63020080
:1060D0006F6302006F6302006F6302006F63020070
:1060E0006F6302006F6302006F6302000000000034
:1060F000000000006F630200000000006F630200F8
:10610000000000000000000000000000000000008F
:10611000000000000000000000000000000000007F
:10612000000000000000000000000000000000006F
:10613000000000000000000000000000000000005F
:10614000000000000000000000000000000000004F
:10615000000000000000000000000000000000003F
:10616000000000000000000000000000000000002F
:10617000000000000000000000000000000000001F
:10618000000000000000000000000000000000000F
:1061900000000000000000000000000000000000FF
:1061A00000000000000000000000000000000000EF
:1061B00000000000000000000000000000000000DF
:1061C00000000000000000000000000000000000CF
:1061D00000000000000000000000000000000000BF
:1061E00000000000000000000000000000000000AF
:1061F000000000000000000000000000000000009F
:10620000354936480A1A02D0072291438D4634494F
:1062100034480A1A06D00722914381F309880222E2
:1062200082F3148830483149314A00F044F831484B
:106230003149324A00F03FF831483249324A00F0E1
:106240003AF832483249334A00F035F83248334997
:10625000334A00F030F833483349344A00F02BF821
:1062600033483449344A00F026F83448344900228F
:1062700000F02CF833483449002200F027F8334866
:106280003349091A082902DB002202604160314AC1
:1062900090471F481F49884205D00268043003B464
:1062A000904703BCF7E700208646EC46002000211B
:1062B000294A9047FEE7884207D0521A05D0037852
:1062C00001300B700131013AF9D17047884202D098
:1062D00002700130FAE770470000042000E003205C
:1062E0000000042000000420C42C0300242200200D
:1062F0007C220020D4630200D4630200380603002D
:10630000C42C03002422002024220020B007030014
:10631000B0070300B0070300B0070300B007030095
:10632000B0070300B0070300B0070300C42C03004C
:106330001C2D03007C2200207C2200207C220020D7
:1063400046360020483600204836002048360020D7
:10635000485600209D63020065AF0200FEE7FEE79D
:10636000FEE7FEE7FEE7FEE7FEE7FEE7FEE7FEE705
:10637000704700BF1048804710484FF0070188431E
:1063800085460F4880470F48016841F4700101605D
:10639000BFF34F8FBFF36F8FFFF732BF0A480B4930
:1063A0000B4A884207D0521A05D0037801300B708F
:1063B0000131013AF9D170477163020000000420F5
:1063C000FD92020088ED00E09C07030010220020EF
:0463D0002422002063
:1063D400F0B595B01C46164608460D4602F0CEFEB2
:1063E4001A9B0D93CDE9086400242346082205A9CD
:1063F40028460A948DF82C400C9402F0DCFE079B8E
:106404000293069B03939DF814308DF8114003F01A
:106414000302012A1DD1BDF81440059EC3F3C20333
:10642400C4F383148DF81030A20008230EA9284663
:1064340002F0C1FEC6F3952608AB0093224602ABD8
:106444000EA9304600F0F0FB284602F09BFE15B082
:10645400F0BD022AF8D1BDF81640C3F3C203A40963
:106464008DF810300827082C264628BF08263B46FE
:1064740032460EA9284602F09EFEA41B08AB02AACF
:1064840031460EA8374400F033FC002CEBD1DBE797
:10649400014B01221A707047BD2200207047000092
:1064A40070B50E4D06460FCD88B06C460FC495E806
:1064B4000F00002E84E80F004FF00603084A094835
:1064C400009308BF0022694603F072F908B100F096
:1064D4009DFD054B1E7008B070BD00BFB0070300E2
:1064E40095640200242200207C22002007B5044B7E
:1064F4000093044A4023FFF76BFF03B05DF804FBED
:106504000D6502007D22002038B50D4B0D4D002095
:1065140018700D4804782D5DD2B21C4665B1043064
:1065240004F068F808B100F071FD084B1A7812B154
:106534002378002BFBD038BD0C3003F045FEF1E787
:10654400BD220020C82B0020242200207C22002011
:1065540008B50848084A0378D35C3BB1043003F01B
:10656400F3FF0020BDE80840FFF79ABF0C3003F0AA
:10657400D5FDF6E724220020C82B00200120FFF7D8
:106584008FBF000008B5FFF7F9FF0421034800F0AE
:10659400B9FA034B01225A7108BD00BF8C070300EE
:1065A40038220020037813F0040216D003F003030A
:1065B400012B03D0022B09D0012070470A68008800
:1065C4000232C0F3831002440A60F5E70B68428884
:1065D400023303EB92130B60EEE7104670470000A2
:1065E4002DE9F04F87B000230446851C0DF1070008
:1065F4000F4690468DF8073000F0F8FF45480668CE
:106604003E60D0E90132134401339B1B824600F201
:106614001C4600F5836900F21447AB421BD30022E9
:10662400B8F1000F70D0052363F3070264F38912F5
:10663400DAF80010DAF808309DF807000B4003334D
:106644000D444AF82320CAF8005000F0F3FF01205B
:1066540007B0BDE8F08F0121304602F010F848463B
:1066640002F026F8384602F023F8DAF80400DAF8E3
:1066740008B0029000EA0B0003300AEB800002A984
:10668400FFF790FF029B50BB0BEA03020AEB820266
:1066940003F1020CD2680392013303EA0B0B0AEBF9
:1066A4008B0B02F00302012ACDF808C0DBF80C10B2
:1066B40022D0022A16D08346384601F0FCFF10B1DE
:1066C400029BCAF804305946304601F0D8FFDAE993
:1066D40001231344DAF8002001339B1A9DE70BEAE7
:1066E4000300C9E7BDF80E309B0903334FEA114B91
:1066F4000CEB93030293DFE7BDF80C30C3F3831371
:106704004FEA114B6344F5E7062363F3070264F38E
:106714009F528DE7902300200B4B0C48FF2210B5AD
:106724009A600022C3F81824C3E90022C3F8142491
:1067340083F8202402F0DBFC044610B9044802F07C
:1067440083FD204610BD00BF90230020C006030037
:10675400F007030030B50A4C71B10A4A0A49121B0A
:10676400D20800239A4201D1002030BD31F82350D1
:10677400854202D00133F5E7034654F83300F4E7C9
:10678400D40603008C07030024220020094B01399E
:1067940003EBC000032909D8DFE801F00A0204066C
:1067A4000420704700797047407970470020704793
:1067B40002207047D4060300034BD3E90030C31A08
:1067C40058425841704700BF902300202DE9F04300
:1067D40087B0FFF7F1FF0646002840F0FB807E4DAE
:1067E400C5F81804BFF34F8F6868AC680290204066
:1067F400033005EB800002A9FFF7D4FE029B18B119
:10680400D5F81824002A5FD004EA0302991C013346
:1068140005EB8202234005EB8303D268DB68049313
:1068240002F00303022B0392029162D1BDF80E30F1
:106834006A484FEA9318B8F1500FC14628BF4FF089
:10684400500969F38F1309F10801ADF80E3002F015
:1068540066FC0746002800F0A88002F08FFC03A91C
:1068640000230822384602F09CFC029924EA01061F
:106874000136B600B14535D95FFA89F97EB3F6B26F
:10688400A9EB0609214003315FFA89F4B146544E5D
:1068940005EB810108234A46384602F082FC36B1F2
:1068A40009F1080322463146384602F07AFC029B7D
:1068B40008F1030803EB98030293D5F81834002B6E
:1068C4004BD1D5F810445BE02A689A4204D86A6038
:1068D400304607B0BDE8F08304EA030088E7404986
:1068E4003446D7E72140033108234A4605EB8101AA
:1068F400DAE7012B59D1BDF80C303848C3F38311C2
:10690400062928BF062161F3891302318900ADF8F5
:106914000C3002F004FC0746002846D002F02EFC9E
:106924000023082203A9384602F03BFC0026BDF8E8
:106934000C20C2F38312B300964203F10803BCD2C5
:1069440002994A1C21400331029205EB8101042281
:10695400384602F026FC0136E9E7384602F012FC1C
:10696400FFF72AFF80F00100C6B2B1E7E3685B7964
:1069740023B1236839461B6820469847E3681C689E
:10698400002CF3D1384602F0FDFB0DF107008DF821
:10699400074000F02BFED5F818340BB9029B6B604E
:1069A4009DF8070000F046FEDAE7D5F8104454B924
:1069B4000C4B0D480D49C01AC008000440F00200F9
:1069C40000F06EF8CCE7236820469B689847E3689C
:1069D4001C68ECE700267BE790230020C006030038
:1069E4009C230020D4060300FC060300FC070300DC
:1069F4002DE9F74F284C80460F46924601A9012203
:106A040018469B46D4F80890FFF7EAFD80B3019D31
:106A14000026A91C5E4506EB010233D100211F4864
:106A240001F0ECFD80F310006A1C02EA090204EB99
:106A34008202000405EA0903033340EA1840D060E7
:106A440014F8232068F3C50204F8232034F8232023
:106A540066F3891224F8232054F8232067F39F2235
:106A640044F8232002F0F80242F0010204F8232043
:106A740094F820341BB1FFF7A9FE0028FBD103B022
:106A8400BDE8F08F09EA020204EB82025AF82630CC
:106A9400D3600136BEE700BF90230020AC2700205E
:106AA40000231A46FFF7A4BF07B50123019201AAE8
:106AB400FFF79EFF03B05DF804FB07B5CDE90023A3
:106AC40002236A46FFF794FF03B05DF804FB1FB589
:106AD400CDE90123069B039301AA0323FFF788FF53
:106AE40005B05DF804FB1FB5CDE90023069B0293B6
:106AF400079B03936A460423FFF77AFF05B05DF80A
:106B040004FB000030B50F49D1F8102400231446CB
:106B14003CB9C468237152B9C1F810042260184604
:106B240030BDE46825799D4206D02468F0E7D26838
:106B3400116821601060F2E701330A2BE7D14FF0AE
:106B4400FF33ECE790230020094A38B50123D2F83B
:106B5400104482F820341D4604B938BDE3685D71E1
:106B6400236820465B689847E3681C68F4E700BF25
:106B740090230020037A052B10B50C460FD0437ADE
:106B840023B1084A0849204601F0F8FD0749204688
:106B940001F0F4FD2046BDE8104001F0E4BD002AF8
:106BA400F8D0F3E7470803008720030069080300CF
:106BB400C38873B504460D4633B1144A0092144990
:106BC400144A284601F0DAFD217A05291CD0637A9B
:106BD4004BB1A088FFF7DAFD0F4B104953F8202082
:106BE400284601F0CBFD227A0D4BA08853F8226091
:106BF4000021FFF7AFFD0B4903463246284602B099
:106C0400BDE8704001F0BABD02B070BD4708030092
:106C1400540803004C0803001408030087200300F1
:106C2400780803006C0803002DE9F04385B01F4683
:106C34000C9D002306460C46904695F80C902B7349
:106C440029463846FFF7B4FFB8F1060F09D8DFE844
:106C540008F00412181F283340003146284601F07A
:106C64008DFD002229463846FFF784FF85F80C90F5
:106C740005B0BDE8F08322683146284601F07EFD68
:106C8400EFE7D4E900233146284601F077FDE8E731
:106C9400A36800933146D4E90023284601F06EFD31
:106CA400DFE7E3680193A36800933146D4E9002346
:106CB400284601F063FDD4E723690293E368019356
:106CC400A36800933146D4E90023284601F056FD19
:106CD400C7E76369039323690293E3680193A36895
:106CE40000933146D4E90023284601F047FDB8E774
:106CF40008292DE9F84F80460E4617461C463AD817
:106D0400002593F80C901D7319461046FFF750FFA9
:106D1400DFF884A0DFF884B0AE422ED918F805203D
:106D24005946204601F02AFD0135082DF4D11849B1
:106D3400DFF86CB0204601F021FD4FF0000A564503
:106D440020D918F80A507E2D03D8284609F0A6FB4E
:106D540000B92E252A465946204601F00FFD0AF1B6
:106D6400010ABAF1080FEAD1012221463846FFF799
:106D740001FF84F80C90BDE8F88F5146204601F0DD
:106D8400FDFCD1E70349204601F0F8FCE7E700BF2A
:106D940042080300400803003E08030038080300CB
:106DA400440803002DE9F04F394E87B04FF0000935
:106DB400384B1B785FFA89F5AB4202D807B0BDE8BF
:106DC400F08F354BD3F800A01AF835000124D6E92A
:106DD400001EA0F12002C0F1200304FA02F224FAFA
:106DE40003F3134304FA00FC009301EA0C03029337
:106DF400009B0EEA03030393DDE9022313430AEB2A
:106E0400C50B41D0009B21EA0C012EEA0303C6E91D
:106E1400001302F0ABFE1AF835502049A5F1200208
:106E2400C5F1200304FA02F224FA03F31343D1E96F
:106E340000C2AC40134004EA0C0105930024C3B221
:106E4400CDE90034009A0491C5F12003A5F1200195
:106E540022FA03F302FA01F848EA03081346AB40A6
:106E64001F46DDE90434444508BFBB420CD1DBF8BE
:106E740004304BB19BF801104A1E51425141081A8B
:106E8400414241412846984709F1010990E700BF72
:106E9400802800204C280020882800207828002002
:106EA4002DE9F0418046204800F090FBD0BB01253D
:106EB400A8F12004C8F1200325FA03F305FA04F429
:106EC4001C431A4BD3E9001205FA08F501EA05063A
:106ED40002EA040756EA07001E461DD1404602F0A6
:106EE40045FE134BD3E9001288B129432243C3E979
:106EF4000012D6E900231C430E4B0B4819681543B6
:106F0400C6E900540022BDE8F04100F019BB21EAB3
:106F1400050122EA0402EAE721EA050522EA04045B
:106F2400C3E90054BDE8F0815428002080280020E3
:106F34007828002050280020042A2DE9F341054632
:106F44000C4616463AD902F041FDD8B11C4B1D49F6
:106F54001D601D4BDFF884801C701C4B00221E60DA
:106F64000023C1E900231A49C1E90023013CE4B22A
:106F740000260327FF2C0CD1164A1748002100F0E5
:106F8400CDFA03E002F0EAFC0028DFD002B0BDE84D
:106F9400F08123B205EBC30201A992788DF8052094
:106FA40015F833008DF8066042468DF8047002F03F
:106FB40017FD013CE4B20028DCD0E7E70720E5E751
:106FC40088280020782800204C2800205028002001
:106FD40080280020A96D0200D8080300A56E0200D5
:106FE40070B5084D084E00242B789C4201D3002034
:106FF40070BD3368012113F8340002F06DFD0134D3
:10700400F2E700BF4C280020882800201FB500218B
:10701400039001AA44F20100CDE9011100F004F843
:1070240005B05DF804FB000010B572B6FFF78CFDE7
:10703400FFF7CCFB0028FBD1104B114C1149E41A8B
:10704400E408240444F00100FFF72AFD0E4B1B68FA
:10705400DB0700D500BE0D4944F00200FFF720FD18
:10706400BFF34F8F0A490B4BCA6802F4E062134323
:10707400CB60BFF34F8F00BFFDE700BFD406030012
:10708400FC060300DC080300F0ED00E0E808030060
:1070940000ED00E00400FA05094A537891780133C1
:1070A400DBB2994208BF0023117899421FBF0370D5
:1070B4005078182303FB002014BF043000207047CD
:1070C4008C28002073B5054600240DF107000E46F8
:1070D4008DF8074000F08AFA0DF10600FFF7DCFF97
:1070E40090B10670094B9DF8062045605A709DF8D2
:1070F400070000F09FFA24B9054B4FF48012C3F83F
:107104000021204602B070BD0424F0E78C28002042
:1071140000E100E0024B4FF43C6043F001031847E8
:107124000009030038B50C4B0C4C4FF40032C3F883
:10713400802001254FF48033C4F84833C4F8083361
:107144006560FFF7E7FF064BA56000241C60FFF7AE
:10715400E1FF044B1C7038BD00E100E00010014069
:10716400A829002099290020F8B51F4B1F491B6846
:107174000025C1F84051C1F84451C1F84851C1F843
:107184004C51C1F80051C1F804514BB3D1F8044536
:1071940017490968641A24F07F442F461A68A242EA
:1071A40009D8A41A15441A7CDE691AB11F74D3E9EC
:1071B40005209047AEB90F4A0F4B11781B788B42CC
:1071C40005D10133DBB2022B08BF00231370127800
:1071D4000A4B43F822500A4B4FF48012C3F80021A3
:1071E400F8BD3346DAE700BFAC29002000100140A7
:1071F400A8290020A5290020A42900209C290020DA
:1072040000E100E02DE9F04FA14AA2491378097882
:10721400A14D994285B03CD00133DBB2022B08BFAB
:10722400002313709D4912789D4B0F6853F8220078
:107234003B1823F07F4300220B602B68164614464C
:10724400944613B942B12B6006E0196881420ED905
:1072540002B12B60091A196001272B68DFF848A2D4
:1072640001934FF00008BEB9DFF844B266E0401A5B
:107274000C44D968C3F800C0D3F81CE031B13A1902
:1072840022F07F42C3E90121DE611E4601227346DA
:10729400D7E700263746E0E73446F6697F4A636855
:1072A4001268DFF810C2A068991A21F07F41614585
:1072B40000F2A68001442160012222742A6800237E
:1072C400C4E90133E361002A40F0A3802C60CAE7DB
:1072D4005A1C9BF80210D2B291428BF8002004BFD2
:1072E40000228BF80020182202FB03B31A799C6851
:1072F400022A1CD0032A12D0012A1FD1207CE8B90B
:10730400D3E90312A2605A69E2609A69654BA261EB
:107314001B78002B0CBF0B4603466360BEE70022BC
:107324002B681146002B67D142B12B6006E0296817
:107334000A468946002A5AD1002323749BF8003058
:107344009BF801209A42C3D12B68B8F1000F04D1F5
:10735400019A9A4201D1002F43D0002B73D0D3F865
:1073640000A0514D4D4BD5F804751C68DFF84881D9
:107374003E1B98F8003026F07F4603369BB94FF445
:107384008033C5F84433C5F80433484B4FF4003216
:107394004FF00109C3F880211A60C5F80090FFF787
:1073A400B9FE88F80090B2452CBF5444A41924F0C7
:1073B4007F44C5F84045D5F80435DB1B23F07F43F3
:1073C400E41B033324F07F44A3420AD9D5F80435DF
:1073D400C5F84035FFF79EFE344B4FF40032C3F836
:1073E4000021304B00221A7005B0BDE8F08F9442A2
:1073F4002CD09146D2699DE719740122DB6991E78B
:10740400D31A23F07F43834234BFC31A002323607B
:1074140052E721681368994213D8591A1160E2613E
:1074240054E7091AD8691A4638B1034618688842DD
:10743400F7D3401A1860184613462160E061DC61F6
:1074440011E71346F2E7FFF76DFECAE74C4511D189
:10745400CB692B6073B9DFF844E00120CDE9021257
:10746400CAF80800CEF800300E4B1870FFF752FE31
:10747400DDE902121368D269C9F81C2012B1106840
:10748400034413602B68994218BF4FF0010853E777
:10749400A4290020A5290020AC290020A829002027
:1074A4009C290020982900200010014000E100E000
:1074B4008C280020FEFF7F009929002008B5FFF7E3
:1074C40031FE104B00200B2218809A700E4B18606E
:1074D4000E4B18700E4B18700E4B4FF48012C021D7
:1074E400C3F8802183F814131A6002F18042A2F5D4
:1074F4006F22C2F8080583F81113074BD2F804254C
:107504001A6008BD8C280020AC290020A429002082
:10751400A529002000E100E0A8290020074B9B7862
:107524004BB132B128B10368187C20B959745A613F
:107534007047072070470820704700BF8C28002040
:107544002DE9F7431E4FBB7805460E469046A3B37C
:1075540098B304292FD943697BB3437C0024012BBE
:107564000DF107000CBF8946A1468DF8074000F0D5
:107574003DF80DF10600FFF78FFDD0B10123037034
:10758400104B4560D3F80435C0E90498C0E90236CD
:107594009DF806307B709DF8070000F04BF824B985
:1075A400094B4FF48012C3F80021204603B0BDE814
:1075B400F0830424EFE70724F7E70824F5E700BF86
:1075C4008C2800200010014000E100E0064A927877
:1075D4003AB130B1426922B1002202740221FFF7AC
:1075E40071BD0820704700BF8C28002070B5EFF3F0
:1075F400108672B60C4A946801239CB993600B4BB5
:107604000B4DD3F8801029401160C3F88050D3F893
:10761400841051604FF0FF32C3F88420047006B91F
:1076240062B670BD0370FAE7B029002000E100E003
:10763400FC06FFBD084B9A6810B55AB150B9EFF378
:10764400108172B6054A1C6814605C6854609860C6
:1076540001B962B610BD00BFB029002000E100E00E
:1076640070B5064D0646002455F8043B0BB1304670
:1076740098470134042CF7D170BD00BFC8290020FD
:10768400033080B240F2FD33984230B51FD8124B1C
:107694001A783AB91C895D892C440444A4B2B4F51F
:1076A400806F0AD31A7DA2B99A8BDC8B22440244E0
:1076B40092B2B2F5806F0CD201220A8014461422D1
:1076C40002FB04335A8910445881002030BD09203C
:1076D400FCE70720FAE700BFFC2900200B4A0C4B0B
:1076E4005188142000FB0131CB6833B90420496868
:1076F40010700122074801F0C5BA0523064913702A
:1077040002238B80012200230968F3E7E02900208B
:10771400FC29002010220020C42A002007B50023E1
:1077240005490093054A09680548082301F014FA3D
:1077340003B05DF804FB00BFC42A00201409030051
:107744001022002007B50023009301460823034AB2
:10775400034801F001FA03B05DF804FB0C090300CF
:107764001022002013B500230C4600930146042385
:10777400074A084801F0F0F938B9074B142202FB14
:1077840004340123237402B010BD0E20FBE700BFB4
:107794000809030010220020FC29002037B50A48FC
:1077A4000A4B42689C881968538803250333057083
:1077B4009BB2002000909B0001EB8401044801F07F
:1077C400CBF903B030BD00BFE0290020C42A00205B
:1077D4001022002010B50146044800F043FE1C228C
:1077E4000446002108F0C3FE204610BDB02A002044
:1077F40068B10268084B9A4209D14068074B984225
:1078040007D0013398420CBF0120032070470320A6
:1078140070470020704700BFDEC0ADDEFE011EF1E0
:107824004388033300EB8303994209D382884FF6DC
:10783400FF739A4206D00088B0FA80F0400970477E
:1078440002207047012070472DE9F8430223DFF836
:1078540060800B800D46174600F5805600F1080441
:107864004FF00109B4420FD2236801330CD03146E2
:107874002046FFF7D5FF48B10FB187F800900228E2
:107884000BD14FF480632B80BDE8F883A368D8F84C
:107894000020934201D9C8F800302B886288033352
:1078A40013442B806388033304EB8304DAE700BFBB
:1078B400F4290020154A142303FB002070B50B683B
:1078C40044680D4604F58056ABB15C88033403EB81
:1078D4008404B4420DD2236801330AD031462046D1
:1078E400FFF79EFF01280BD010F0FF0F05D00228F0
:1078F400EFD1002003E00834EBE72C60012070BDD9
:107904006388033304EB8304E3E700BFFC2900200E
:10791400436873B504460D4663B3234AD1688B426A
:1079240028D31269934225D813F0030022D11F4AA9
:107934002189128991421DD121689A68914219D1F5
:107944001B4A51688B4203D901F580518B420DD3F8
:10795400926993420CD902F58052934208D20123D2
:107964002B80B0FA80F0400902B070BD0346F7E7FF
:107974000A20F6E700232B801E46019601A92888D9
:10798400FFF798FF30B92B8801339BB2012B2B8072
:10799400F3D9E9E7019B226899689142EED16360CB
:1079A400024B1B892381DFE710220020E0290020FD
:1079B400FC2900202DE9F8431C461C4B1B78064685
:1079C4000F4615466BB372B36CB3DFF868804FF0A3
:1079D4001409A388012B01D90A2020E009FB03F331
:1079E40018F803302BB92146A088FFF763FF20B9AC
:1079F4002060A3880133A380EBE723681EB1998834
:107A040032889142EFD11FB119883A889142EAD164
:107A14009A68C5E90023064B1B892B810020BDE829
:107A2400F8830220FBE70520F9E700BFD8290020EE
:107A3400E0290020FC29002008B5074B191D5888AF
:107A4400FFF738FF18B1BDE80840FFF7A7BEBDE84F
:107A54000840FFF743BE00BFE02900202DE9F04FA6
:107A6400A04FDFF8A49289B00646B8463B6823B914
:107A740049469D4800F030FD3860D8F80050297818
:107A84004B1E052B00F2FA80DFE813F006005E00BF
:107A94005E00EE00EE005C0126B1944B00225A60B9
:107AA4000124ECE02B79032B1DD8DFE803F0150249
:107AB4002A358F490B78022B084619D00B7D022BEF
:107AC4004FF0010316D114225343C2180020C854A6
:107AD4005068FFF737FE03E001232B71FFF71EFE0A
:107AE400002800F0BC80814B00225A600E24C6E0BE
:107AF4000023E8E77D4A13700023536041F61D54C8
:107B0400BDE07C497C48002302222B718A8001223B
:107B1400096801F0B7F8E3E7764C00262E71206877
:107B2400734DFFF70FFE754BD4F800C05A88142329
:107B34005343EA18EE5451682160A188C2F804C086
:107B440011810222A280CBE7B5F814A0AA7DDFF848
:107B5400A0B1AEB1022AEB8806D9142101FB0AB107
:107B6400DA1C088902440A81142202FB0ABAC3F50A
:107B74007F43BAF80A20FD331344AAF80A308FE78A
:107B8400142303FB0AB318895C6804EB8004062AF7
:107B940068D8DFE802F0274D35431D59040041F64B
:107BA4001D54AA7DEB88022A06D9142101FB0AB1CF
:107BB400DA1C088902440A81142202FB0ABAC3F5BA
:107BC4007F43BAF80A20FD331344AAF80A3056E07A
:107BD4004B484C4900234360AB690360FFF798FEB0
:107BE400002871D00223AB75002300930423EA1804
:107BF4002146414800F0B0FF002830D00E24D0E7E1
:107C04002B69002B14BF03230123AB7500230093BE
:107C140005F10C02042304F10801EAE70123AB7522
:107C24000022EB8800929B002A6904F10C01E0E732
:107C340003290CBF05230623AB75002300930423FB
:107C440005F10802E118D4E70623AB752D4B19881A
:107C54002B4B5868FFF786FD04460028A1D109B0D4
:107C6400BDE8F08F0F249CE7002E7FF419AF2B7929
:107C7400012B4BD0E3B1022B3FF440AF0F2414226D
:107C8400002103A808F073FC41F61D539C4208BF71
:107C94000024D8F8003004941A78023A042A00F236
:107CA4000581DFE812F0E600F20015011D01240150
:107CB40002232B710DF10A01EB68039303A8CDE9AC
:107CC4000466FFF725FE08B90A24D8E70498BDF82E
:107CD4000A108388EB8003882B81FFF743FD044659
:107CE40027E000BFF8290020B02A0020D82900206E
:107CF400FC290020C42A002010220020E0290020B2
:107D0400BC290020D02A0020F0290020DFF8FCA1A3
:107D140003AA53463146A81DFFF74CFE044658B942
:107D2400BAF804100498FFF71DFD04460A2C3FF42A
:107D3400E5AE002CA3D192E708223146504608F064
:107D440016FCF3E7002E7FF4ABAE6B4B1A7BAAB1A3
:107D54001E731A78013A062A90D801A151F822F02C
:107D64000B7E0200317E02004F7E0200557E02002F
:107D7400817C02005B7E02006D7E02001A78072A75
:107D8400E7D801A151F822F0AD7D0200577D020031
:107D9400577D0200D37D0200E77D0200077E0200CA
:107DA400077E0200CF7D02001A89544901321A81EC
:107DB40000225A801A730A78B2FA82F252099A722D
:107DC4000A7DB2FA82F25209DA72012207E04C49C2
:107DD40058688A884088033202448A8002221A70D2
:107DE400B7E7464C5A884649142505FB0242086801
:107DF400546850608888108102228A800C600622B0
:107E0400EDE70722EBE79A7A32B9DA7A8AB90022E7
:107E14001A705A805A6071E6384900229A72CA6808
:107E2400002AF2D1097C0029EFD05A80FFF704FE22
:107E340055E70022DA72314A116A0029E7D192F833
:107E44002420002AE3D00122EFE7FFF7A7FC46E74E
:107E5400FFF744FC43E7294A5B88142101FB032311
:107E64005868FFF76FFC3AE700225A60FFF756FCA8
:107E740035E701228DF80C201A89ADF818209A886C
:107E8400DB68ADF81A20059310E002228DF80C206F
:107E94001A89ADF818209A88ADF81A20DA689B7D03
:107EA40005929A1F534253418DF81C3003A8FFF7E3
:107EB400D7FB002649461348C8F8006000F037FB9A
:107EC4000121114800F0E6FB00287FF4CFADC6E69F
:107ED40003228DF80C20DA88ADF818201A89CFE730
:107EE4000422DB888DF80C20ADF81830DEE705237A
:107EF4008DF80C30DAE700BFE0290020FC290020CF
:107F0400C42A0020B02A0020C02A0020D42A00203D
:107F14004068FFF7A3BD000008B50121044800F044
:107F2400A3FB18B9BDE80840FFF798BD08BD00BF22
:107F3400C02A00202DE9F3419846354B1B780646AC
:107F44000D46002B5BD000295BD009884FF6FF73E8
:107F5400994258D06B88002B55D06B689B0754D13D
:107F64004AB92F890DF102013846FFF789FB30B178
:107F740002B0BDE8F08113885788ADF8023001A83B
:107F8400FFF728FC044658B9BDF80230214A1421F1
:107F940001FB032358890338C01B58810820E7E7F5
:107FA40000238375BDF8023083826B68036180F817
:107FB40000800121184800F062FB2B882381B8F16E
:107FC400030F6B88A38004BF0423A3754FF000053F
:107FD40008BF3368E06008BFA361E780658101A939
:107FE4000E4800F069FA36B1E36833600C4B7560F3
:107FF4001B89B5723381FFF78FFF0020B8E7022099
:10800400B6E70520B4E70420B2E70320B0E700BFD9
:10801400D8290020FC290020F4290020B02A0020BF
:10802400E029002008B5084B1A68042A09D0196809
:10803400064A42F821000121184600F020FB0020E6
:1080440008BD0C20FCE700BFCC2A0020C829002072
:108054002DE9F04F14228BB000210DEB020008F043
:1080640086FA764A137803F0FF01CDE901123BB199
:1080740005A8FFF7F5FA002738460BB0BDE8F08FE6
:10808400029B181D00F011FB0028F4D140F6F87390
:108094004FF080521B685C1C08BF694B694C08BFD9
:1080A4001B6811695269581C08BF02FB01F3236164
:1080B4000022A3F540536449E360204600F018FD14
:1080C400039407460028D7D11C238C225F496048BB
:1080D400DFF88891DFF8888100F08FF9BA463D46D1
:1080E4004FF0030B3C46039BDE6856443046314652
:1080F400FFF77EFB01284DD042B2002A36D0032878
:1081040022D106F580520868013040F08A8004319B
:108114009142F8D1D9F800203AB902220123C9F8D2
:108124000060A9F8042001930CE0142262430220A9
:1081340008EB020108F80200464A4E6054800134FC
:108144000881A4B245F001050AF5805ABAF5405FEA
:10815400C9D1BBF1010F98BF0025EDB2022D03D0A8
:10816400062D35D0002D3CD10B2785E71421614322
:1081740008EB010008F8012001F110020831466003
:10818400424441443046FFF75FFB45F002050134A9
:10819400A4B2D9E7019B63B11422624308EB020144
:1081A400022008F802000134D9F800204A6008814E
:1081B400A4B200222849C9F800603046FFF744FB06
:1081C400B9F80420022A0CBF042208221543BBE795
:1081D400029A0123137005A800235360FFF740FAA5
:1081E4004AE704A8FFF7F6FAC8B10123013D03707A
:1081F4000A2D09D8DFE805F006080608070807086D
:108204000F110F000023037104A9114800F054F961
:10821400FFF782FE30E70323F5E70223F3E708279D
:108224002AE70BF1FF321FFA82FB1422624308EBA8
:1082340002014E60032108F80210A8E7D8290020A3
:108244001410001010220020080B0300242A002020
:10825400B02A0020E0290020C82A0020C42A0020D7
:10826400FC29002073B50D460446C8B1C1B10DF117
:108274000601FFF74DFBA8B10B4BBDF8060066687D
:10828400142202FB003001210C3000F0F8F963687D
:108294002E600C336B600123A372002002B070BD0A
:1082A4000520FBE70A20F9E7FC29002013B5044662
:1082B400A8B10DF10601FFF72BFB90B10B4ABDF8F5
:1082C4000630142101FB0323DA6862B1A27A52B1A9
:1082D400DA680020013ADA60A07202B010BD05200D
:1082E400FBE70A20F9E70620F7E700BFFC29002096
:1082F40002230022FFF71EBE18B103230022FFF75A
:1083040019BE052070470000104B1B7813B50446B6
:10831400ABB14FF6FF73984213D001A8FFF75AFA96
:1083240088B10523037001230371C48001A908489F
:1083340000F0C2F8FFF7F0FD002002B010BD0220EB
:10834400FBE70420F9E70820F7E700BFD82900205D
:10835400B02A00200E4B1B7807B5A3B101A8FFF784
:1083640039FA90B10623037001A90A4800F0A4F871
:10837400094B1A780AB101221A73FFF7CDFD0020C8
:1083840003B05DF804FB0220FAE70820F8E700BF19
:10839400D8290020B02A0020E029002007B5ADF834
:1083A4000600ADF804100DF1060001A9FFF702FB69
:1083B40003B05DF804FB07B51346ADF806000A46A2
:1083C40000200DF10601FFF7F5FA03B05DF804FB98
:1083D40007B51346ADF806000A460DF10600002164
:1083E400FFF7E8FA03B05DF804FB20B119B10368A4
:1083F4000B60002070470520704710B561B1B2FBD7
:10840400F3F403FB1424A4B244B9C0E90014846057
:108414008281C381204610BD0E20FCE70920FAE7C3
:1084240082B050E8022FC188B2EB324F4FF0000304
:1084340017BF92B241EA014142EA014104E04268B5
:10844400B2EB324F08BF012340E80212002AE8D100
:108454008DF807309DF80730002B0CBF1120002049
:1084640002B0704737B550E8013F9DB2C489254436
:108474008489A54228BF2D1B0489A54202BFBFF3EE
:108484002F8F002207E0C5EA030540E80154002CC1
:10849400E9D14FF001028DF803200193019B9DF86F
:1084A40003200B6002F0FF0322B10B88006818441C
:1084B40003B030BD1846FBE70A884B889A4209D1BD
:1084C40050E8012FC2EA024240E80123002BF7D111
:1084D400012070470020704737B550E8023F1FFA6B
:1084E400A3F5C488A54202BFBFF32F8F00220DE07D
:1084F400C48925448489A54228BF2D1BC3EA0545A8
:1085040040E80254002CE8D14FF001028DF803201A
:108514000193019B9DF803200B6002F0FF0322B13D
:108524004B880068184403B030BD1846FBE70A883E
:108534004B889A4209D150E8022FC2EA224240E80D
:108544000223002BF7D1012070470020704701F06F
:108554001F024B090121914000EB830000F063B836
:108564004B0910B501F01F040121A14000EB830069
:1085740000F04EF8E04000F0010010BD01F01F03D0
:1085840001229A404B0900EB8300D14300F061B80B
:108594004B0901F01F0150F82300C84000F001000E
:1085A40070472DE9F0474E1E760980460F46013686
:1085B400002558F8254008EB8509E44394FAA4F40F
:1085C400B4FA84F44FEA451A202C06D10135AE42A0
:1085D400EFD83C462046BDE8F0875444A742F5D97D
:1085E40021464046FFF7BCFF0028F3D0D9F80040ED
:1085F400E44394FAA4F4B4FA84F4E5E750E8002FD1
:108604000B4640E8003C9CF0000FF7D11046704741
:1086140050E8002F42EA010340E8003C9CF0000FC0
:10862400F6D11046704750E8003F43EA010240E8A3
:10863400002C9CF0000FF6D11046704750E8002F34
:1086440002EA010340E8003C9CF0000FF6D110461A
:10865400704750E8003F03EA010240E8002C9CF018
:10866400000FF6D11046704750E8002F02EB0103CB
:1086740040E8003C9CF0000FF6D11046704750E8EB
:10868400003F03EB010240E8002C9CF0000FF6D100
:108694001046704750E8003FA3EB010240E8002C6D
:1086A4009CF0000FF6D1104670470121FFF7B0BFD0
:1086B4000121FFF7B8BF0021FFF7C0BF10B590B18B
:1086C400D0E9012301689B1ADBB20A60013BDBB2EB
:1086D400FF2B026802D10020107110BD11684C1CE0
:1086E40014600B70F2E70E20F7E737B50546002457
:1086F4000DF107008DF80740FEF778FF2A686B68D4
:10870400116899420ED9481E106011F8014CEB68AB
:10871400298A01FB0434AB6811791B1ADBB2994234
:1087240038BF13719DF80700FEF784FF204603B09D
:1087340030BD37B5054600230DF107000C468DF812
:108744000730FEF753FF2A681368591C1160E96863
:10875400641A298AB4FBF1F41C709DF80700FEF733
:1087640069FF03B030BD826810B504462AB143697D
:108774000168006998470023A36010BD0EB403B5D7
:10878400039921B104AB01AA019300F075F802B07A
:108794005DF804EB03B070470A2938B504460D466A
:1087A40002D10D21FFF7F8FFA3682268591CA160CC
:1087B400D554D4E901329A4204D32046BDE8384066
:1087C400FFF7D1BF38BD00002DE9F84F9946DDE928
:1087D4000A431746824688460A460126BA420FD201
:1087E4004E4538BF4E4613F0010B01D164B9002445
:1087F4000125B9F1010F1AD909F1FF397D43F8E7D1
:10880400B2FBF7F20136E9E79B070ED5B9F1000F89
:108814000CBF30252025A642EAD2013C2946504609
:10882400FFF7BAFF002CF6D1E1E72025F3E7B8FB08
:10883400F5F39F42E2D9DFF83C90B8FBF5F35046DC
:1088440019F8031005FB1388FFF7A6FFB5FBF7F330
:10885400BD4207D2BBF1000F02D00CB1A64203D334
:10886400BDE8F88F1D46E8E720215046013CFFF79C
:1088740093FFF2E71C0903002DE9F74F054617465D
:108884008846002900F0308118F8011B49B92B7B78
:10889400002B00F02981284603B0BDE8F04FFFF714
:1088A40062BF252940F0C080002698F800302D2BA7
:1088B400424608F1010823D0302B24D02B2B25D09D
:1088C40000242A2B02F1010123D13B681A1D1B68E5
:1088D4003A601C440A4613782E2B26D101324FF0FD
:1088E4000009104610F8011BA1F1300CBCF1090F6E
:1088F4001DD80A2303FB0913A3F130090246F0E74C
:1089040046F00106D1E746F00206CEE746F004063B
:10891400CBE711F8013CA3F130000928DBD80A2287
:1089240002FB0434303C0A46CBE74FF0000912F84E
:10893400011B01F0FB0068289046F8D069290ED08D
:108944004AD8582964D006D825296DD098F8003023
:10895400002B99D19BE7632962D06429F6D13A6848
:10896400D2F800A0111D8AEAEA723960A2EBEA7219
:108974004FF0010B092A5BDCCB4538BFCB462CB149
:10898400BAF1000F01DB720700D5013CB30702D531
:10899400B9F1000F04D0F00702D4002C4ED100240A
:1089A400BAF1000F52DACAF1000A2D212846FFF766
:1089B400F3FE06F00302022A05D1B9F1000F02D139
:1089C400002C47D10024CDE900464B460A225146EB
:1089D4002846FFF7F9FEB9E773294CD014D870295B
:1089E400B4D13B681A1D3A60302128461C68FFF751
:1089F400D3FE78212846FFF7CFFE00220823CDE9D5
:108A0400003221461022E3E775292BD078299DD125
:108A140039680A1D3A60CDE900464B46102228E029
:108A24003B681A1D19783A602846FFF7B5FE8DE7B2
:108A34000A230BF1010BB2FBF3F29BE7A345AFD280
:108A440020212846013CFFF7A7FEA6E77107B0D511
:108A54002B21ABE7A345B6D230212846013CFFF7D2
:108A64009BFEADE73968CDE900460A1D3A604B46E6
:108A74000A220968ACE73B681A1D3A6016F0010641
:108A8400D3F800A020D1BAF1000F03D0504607F06C
:108A9400A1FD0646B44200D9C4B90AF1FF3A1EE06A
:108AA40028460136FFF778FE1AF806100029F7D198
:108AB400A642BFF44BAF002C3FF448AF2021284618
:108AC400013CFFF769FEF3E70026EDE72021284685
:108AD400013CFFF761FEDDE72846FFF75DFE1AF86B
:108AE400011F0029F8D131E703B0BDE8F08F000081
:108AF40007B50B4688B9124B1248134AC01A0E2305
:108B0400C0080093114B0004114940F00100FDF727
:108B1400DEFF0E2003B05DF804FB4BB9084B094897
:108B24000C4AC01AC0080E2300930004074BEBE75D
:108B340003601B68114603B05DF804EB184700BFDF
:108B4400D40603001C070300D90903002C09030001
:108B5400DE090300550A03002DE9F34188B93D4BB2
:108B64003D483E4AC01AC0080E243D4B0094000400
:108B74003C4940F00100FDF7AAFF204602B0BDE8E1
:108B8400F0814AB9334B3448374AC01AC0080E241E
:108B940000040094324BEBE7D0F800C0BCF1000FA6
:108BA40009D12C4B2C48314AC01AC00808240004AF
:108BB40000942B4BDCE74BB9264B27482C4AC01AB0
:108BC400C008092400040094254BD1E74768D7F86E
:108BD4000480B3FBF8F708FB17374FB11D4B1E4851
:108BE400244AC01AC0080924000400941C4BBFE79F
:108BF4008F0709D0174B18481F4AC01AC008102401
:108C040000040094164BB3E712F0030F09D0114B84
:108C140011481A4AC01AC008102400040094104BCA
:108C2400A6E7C768B9420BD34C1E05691C44AC4285
:108C340006D8DCF80C40A44602B0BDE8F041604719
:108C4400044B05480E4AC01AC008102400040094BE
:108C5400034B8DE7D40603001C070300D909030066
:108C64003E090300DE0903005B0A03004F0A030008
:108C74000E0A0300610A03008B0A0300A30A03001F
:108C8400C60A0300F7B580B92A4B2B482B4AC01AF1
:108C9400C0080E242A4B009400042A4940F0010025
:108CA400FDF715FF204603B0F0BDD0F800C0BCF1BD
:108CB400000F09D11F4B2048234AC01AC0080824BA
:108CC400000400941E4BE8E74AB91A4B1A481F4A9D
:108CD400C01AC008092400040094194BDDE7476852
:108CE400D7F800E00EF1FF370F4209D0114B1248BC
:108CF400174AC01AC008102400040094104BCCE793
:108D0400C768B9420CD34C1E05690EFB0244AC4241
:108D140006D8DCF81040A44603B0BDE8F040604734
:108D2400044B05480B4AC01AC008102400040094E0
:108D3400034BB2E7D40603001C070300D909030060
:108D440051090300DE0903004F0A03000E0A030061
:108D5400640903008A09030029DF704728DF70478C
:108D640070B503689D6886B004460E466DB1142242
:108D74000021684607F0FBFBA3680593237901965D
:108D84002BB1012B0DD06846A84706B070BD012356
:108D94008DF8003023690293E368039363690493B5
:108DA400F1E702238DF80030E3681B030293F5E733
:108DB4000846704700207047024B187A003018BFED
:108DC40001207047782B0020034B187A0122B0FA57
:108DD40080F05A7440097047782B002008B510467B
:108DE4001A4607F09BFB002008BD000008B51422BA
:108DF4000021044807F0BBFB0348FFF711FB0020E8
:108E040008BD00BF782B0020682B002010B5094C4A
:108E1400094B43602046FFF748FC40B907F018F9B6
:108E24001C2320748C2205490548FFF7E6FA00202C
:108E340010BD00BF782B0020FC0A0300DC2A0020B0
:108E4400682B002070B5244C244E237A25463BB968
:108E540023492448FFF740FB306008B9606070BDC7
:108E6400346802232B72237973B1012B24D020465A
:108E74000321FFF775FF00232B726B601849194813
:108E8400BDE87040FFF753BBD4E90523D21AB2F50D
:108E9400805F28BF4FF48052D4E903109208012A5E
:108EA40038BF012219441844FFF756FF50B1112866
:108EB400DDD101232B72D2E7D4E903031844FFF771
:108EC4004DFFF3E72B7C002BC9D10146BDE8704070
:108ED400022000F009B800BF782B0020902B00205E
:108EE4008C2B0020682B002038B5831E012B45D81D
:108EF400234C237A002B41D0022B09D1032830D0F4
:108F0400204B1B680022E2601A793AB1012A22D070
:108F1400637C7BBBBDE83840FFF794BFD3E90512FF
:108F24008D1AB5F5805F94BF521902F580529A618B
:108F34009142EDD102284FF0000308BF1946237275
:108F4400104B18BF0D211868FFF70AFF0E490F4890
:108F5400FFF7EDFADCE71A6901321A615B699A429C
:108F6400E7E7E3680133082B01D8E360D0E7002387
:108F7400E360DFE7BDE8384007F05AB838BD00BF0A
:108F8400782B0020902B00208C2B0020682B0020B5
:108F940000F0FD03012B08D1044B00225A74421E39
:108FA400504250411874FFF74DBF7047782B002092
:108FB40010B5064C201DFFF778FB28B9637C1BB95C
:108FC400BDE81040FFF73EBF10BD00BF782B002066
:108FD4002DE9F34180460D460F4801A916461F4668
:108FE400FFF740FA0446A8B11C22002107F0BFFA9B
:108FF4002D0B0123237101A9C4F80080A760E5604B
:1090040066610548FFF758FAFFF7D2FF002002B067
:10901400BDE8F0810420FAE7682B00202DE9F7432E
:1090240081468846104801A917461E46FFF71AFADA
:109034000446B0B11C22002107F099FA00250A9BCE
:10904400A36001A92571C4F80090C4E9037866619E
:109054000548FFF731FAFFF7ABFF284603B0BDE838
:10906400F0830420FAE700BF682B00202DE9F047C5
:10907400B0F806904479D2F800A09DF8208009FB4E
:1090840004F4043C06460AEB0300A0420F4688BFE2
:10909400A4EB030A191DC2F800A0B1FBF9F509FB02
:1090A40015114DB9A9EB0104544528BF5446BAF132
:1090B400000F04D1BDE8F0873668013DF1E70431C3
:1090C4007B1970182246B8F1000F0ED001461846DD
:1090D400AAEB040A07F022FAD145254436684C4627
:1090E4004FF0000128BF5446E1E71946F0E7FFF7C7
:1090F400E5BAF8B546790146721E05460023934247
:109104002D6803D30024A64202D8F8BD0133F6E744
:109114000F682846FFF70DFB01343946F3E72DE9C4
:10912400F843068ACD1C0746FFF7DFFA043E3544B0
:109134000446B5FBF6F5F0B14FF48073EDB28380CD
:10914400C680013D076081464FF00008A84512D251
:109154003846FFF7CAFA064648B1637901336371AA
:1091640008F10108C9F8000007608146EEE72046CF
:10917400FFF7BFFF34462046BDE8F88301210430E1
:10918400FFF77DBA10B5012104460430FFF782FAD7
:1091940010F0FF0F04D12046BDE81040FFF7A9BF2F
:1091A40010BD1FB503920022009203AAFFF75EFFD1
:1091B40005B05DF804FB1FB503920122009203AAD7
:1091C400FFF754FF05B05DF804FB41DF7047000072
:1091D400064B10B500241C70054B1C60BFF35F8F59
:1091E4000449054800F039F8204610BD9C2B0020A6
:1091F400A02B0020280B0300942B002007B500238C
:109204000DF107008DF80730FEF7F0F9F1EE103A92
:1092140023F09F03E1EE103ABFF35F8F094B402226
:10922400C3F884219DF80700FEF704FA06F010FF46
:1092340020B1FFF7CAFF03B05DF804FB20BF40BFB5
:1092440020BFF8E700E100E0836800225A609A60DA
:10925400C3E90422DA601A6070470B684A68436005
:10926400934208BF0023016008BF4360704743680E
:1092740043B10268916852680B449342436004BF4F
:10928400002343607047000010B50D49A1F59472A6
:10929400914201D800200FE08B1ADB1003EBD3734B
:1092A4005B1002EBC30452F83330834205D802D278
:1092B40004F10802ECE7606810BD2146E8E700BF4E
:1092C400780C030008B5FFF7DFFF024B002808BF46
:1092D400184608BD3D0B0300054B1B68082B01BF56
:1092E400044B1868B0FA80F0400918BF002070479A
:1092F400300100103401001008B54FF08043002203
:10930400C3F80C21C3F81021C3F838254FF080525C
:1093140003F54043D2F80414C3F82015D2F8081416
:10932400C3F82415D2F80C14C3F82815D2F8101475
:10933400C3F82C15D2F81414C3F83015D2F8181445
:10934400C3F83415D2F81C14C3F84015D2F820140D
:10935400C3F84415D2F82414C3F84815D2F82814D5
:10936400C3F84C15D2F82C14C3F85015D2F83014A5
:10937400C3F85415D2F83414C3F86015D2F838146D
:10938400C3F86415D2F83C14C3F86815D2F8401435
:10939400C3F86C15D2F84424C3F87025FFF79CFF7A
:1093A40010B1384B384A1A60FFF796FF18B1374BA3
:1093B400FB22C3F81825FFF78FFF48B13449354B1A
:1093C4000A681B6822F00F0203F00F0313430B60BB
:1093D400FFF782FF18B1304B4FF400721A604FF060
:1093E4008043D3F80024D20744BF6FF00102C3F8CE
:1093F40000242A4AD2F8883043F47003C2F8883033
:10940400BFF34F8FBFF36F8F4FF01023D3F80022B9
:10941400002A03DBD3F80432002B2FDA204B01227D
:10942400C3F80425D3F80024002AFBD04FF01022FF
:109434001221C2F80012D3F80024002AFBD04FF006
:1094440010231222C3F80422154B1A46D3F8001431
:109454000029FBD00021C3F80415D2F80034002BF6
:10946400FBD0BFF34F8F0D490E4BCA6802F4E06284
:109474001343CB60BFF34F8F00BFFDE70A4B0B4A8A
:109484001A6008BD8C5600404881030000F000407B
:10949400E40E0040580200104096024000ED00E047
:1094A40000E001400400FA05402200200090D003AF
:1094B400074B1B5C1F2B8ABF064A4FF0A04203F0E8
:1094C4001F03D2F80405D840C04300F001007047E0
:1094D4003610030000030050074B1B5C1F2B86BF94
:1094E40003F01F0305494FF0A041012202FA03F3E0
:1094F400C1F80C35704700BF36100300000300505C
:10950400074B1B5C1F2B86BF03F01F0305494FF05D
:10951400A041012202FA03F3C1F80835704700BFE5
:10952400361003000003005008B50020FFF7E8FFE1
:109534000120FFF7E5FF0220FFF7E2FF0320BDE86B
:109544000840FFF7DDBF08B50020FFF7C5FF012085
:10955400FFF7C2FF0220FFF7BFFF0320BDE808406A
:10956400FFF7BABF0A4B185C1F288ABF094B4FF09C
:10957400A04300F01F00D3F804250121814021EA13
:1095840002000A40C3F80805C3F80C25704700BF61
:109594003610030000030050074B1B5C1F2B8ABFCF
:1095A400064A4FF0A04203F01F03D2F81005D8403A
:1095B400C04300F001007047321003000003005064
:1095C4000B2809D00C2809D0182809D019280CBF59
:1095D40003204FF0FF307047002070470120704790
:1095E40002207047014B185C704700BF3210030023
:1095F400C20710B504460CD54FF0A0430322C3F8AC
:109604003427C3F83827C3F83C27C3F84027FFF7AB
:109614008BFFA3070AD54FF0A0430C22C3F82C27D5
:10962400C3F83027C3F86027C3F8642710BD0000CF
:1096340038B5074C051E04F1080318BF1C462368FF
:109644002BB11A6822605B6828469847F7E738BD53
:10965400AC2B002020B9054B01225A70FFF7E8BF5C
:10966400012802D1014A9070F8E77047A42B00202A
:1096740020B9034B01225A70FFF7DABF704700BFCD
:10968400A42B002038B50B4C237883B90A486360B7
:10969400A3602361E36000F0C7F8054606F0D8FC38
:1096A40008B900F0CDF801232370284638BD85257C
:1096B400FBE700BFA42B00205996020037B50B4CE2
:1096C40000230DF107008DF80730FDF78FFFE368E5
:1096D400013BE360E56815B900F0C4F8A5709DF896
:1096E4000700FDF7A7FF03B030BD00BFA42B002087
:1096F400012813B509D018B103281CD002B010BD3D
:109704000F4B0122C3F88020F8E70E4C00230DF123
:1097140007008DF80730FDF769FF23780BB9FFF7D1
:10972400B1FFE3689DF807000133E3600123A370F0
:10973400FDF780FFE2E700F083F8FFF7BFFFDDE706
:1097440000E100E0A42B00201FB503788DF8003061
:109754004368019383688DF80830C3680393054A0E
:10976400054B684653F8213052F82110984705B04C
:109774005DF804FBB82B0020C02B00201FB5037834
:109784008DF800304368019383688DF80830C3680E
:109794000393054A054B684653F8213052F82110CB
:1097A400984705B05DF804FBB82B0020C02B0020BF
:1097B400F0B5184B0778DFF86CE043F82720164B18
:1097C40016460A6943F827204B7F0EF807300C46EB
:1097D40084460FCC89B06D460FC594E80F0085E828
:1097E4000F001EF80730049753B1002E0B4A694648
:1097F40008BF32460CF1040000F0CAFD09B0F0BD08
:10980400002E074A694608BF32460CF10C0000F0EE
:10981400B1FBF3E7C02B0020B82B00204D970200CA
:1098240081970200C82B0020044A137923B901212F
:10983400106091801846704785207047CC2B00201B
:10984400074B1A68D2075FBFC02283F800230122A6
:109854001A604FF080430122C3F81825704700BFF7
:1098640000E100E0044B01221A604FF08042D2F87C
:109874001834DB03FBD470470C000040154B07B5CC
:109884001A687AB100221A601B680093009B4FF09B
:1098940080430122C3F808230F4B587910B95A7139
:1098A4001B6898470D4B1A6882B100221A601B6826
:1098B4000193019B4FF080430222C3F80823064B17
:1098C4001B68012003B05DF804EB184703B05DF892
:1098D40004FB00BF00010040CC2B00200401004029
:1098E40000F1804000F5C040002382B003600368AB
:1098F4000193019B02B0704703681F2B83BF03F0E1
:109904001F03036001484FF0A0407047000300505C
:1099140007B5019001A8FFF7EFFF019B00EB83005F
:10992400D0F8002722F44032C0F80027D0F80037DE
:1099340043EA0143C0F8003703B05DF804FB0000BC
:10994400054B4FF0FF32072843F8202084BF1B1833
:1099540083F85820704700BFD42B002010B5174C53
:1099640094F86A3043BB04F130033021FF220139FB
:1099740011F0FF0103F8012BF9D1C8B2FFF7E0FFA2
:1099840001310C29F9D1062200210D4806F0EFFD22
:109994000C4BC02283F8062340221A604FF4BE7099
:1099A400FFF79EFF084B4FF00042C3F80423012346
:1099B40084F86A30002010BD0820FCE7D42B002076
:1099C400382C002000E100E000600040034B93F8D5
:1099D4006A00003018BF0120704700BFD42B00205C
:1099E400F7B53B4E3318054693F93030002B6CDA4B
:1099F4008B78C3F34003002B0BBF082400240C20F6
:109A04000820844202D1042003B0F0BD56F824702B
:109A1400013743D1701946F8242080F8304013B937
:109A2400331983F858508B785A0717D4D80737D589
:109A340001A80195FFF760FF019B00EB8300D0F8BC
:109A4400003723F00203C0F800372248EA0805F083
:109A540007070123BB40875C3B43835488780A781B
:109A640010F0020028D0A40004F1804404F5C0449E
:109A74002D02D4F8103523F44F3323F44073C4F883
:109A840010351204D4F8103505F47C5502F4403234
:109A940015431D43C4F810550020B5E70134B0E761
:109AA40001A84A780195FFF727FF019B03F5E073AE
:109AB400920040F82320C8E7083C344494F86050EE
:109AC40045EA821284F860209EE708209CE700BFE4
:109AD400D42B0020382C002073B5224C25180646C0
:109AE40095F93020072A19DD224492F858309B0951
:109AF400032B0FD1019001A8FFF7FEFE019AD0F8C5
:109B04001035D340DB0707D402213046FFF700FFAE
:109B140002B070BD012BF7D00321F6E7D3B2072BB7
:109B2400F6D8930003F1804303F5C043D3F810053E
:109B340040F00100C3F8100502F14000800080B23B
:109B4400FFF7CEFE0029E3D095F9303054F82330E6
:109B5400002BDDD0012303FA02F2034BC3F80423E4
:109B6400D6E700BFD42B00200060004007B5019069
:109B740001A8FFF7C1FE019BD0F81005D84000F002
:109B8400010003B05DF804FB2DE9F04F002489B017
:109B9400CDE90244624D4FF48072012102F1804309
:109BA40003F5C04390B21B68012B06D1D5F80433EA
:109BB4000B4202D0FFF794FE0C430432B2F5907FBF
:109BC4004FEA4101EAD1574B1B68012B0ED14FF4E8
:109BD400BE70FFF785FE4FF0A04344F00044D3F875
:109BE40010350293504BD3F81035039314F0FF0F44
:109BF4001AD04E4F00250126344210D0AB0003F199
:109C0400804303F5C043D3F81005D3F8101557F873
:109C1400253023B1C1F30141C0F305209847013534
:109C2400082D4FEA4606E7D1002C75DA0DF110082D
:109C340000230493C8F804304FF0FF33CDE9063312
:109C4400DFF8E8A0DFF8E89000273D4619F9014B5A
:109C5400631C48D0E4B2012324F0C00604F00702D8
:109C640003FA02F2F00808AB191811F8083C134281
:109C740039D00AEB0603A40993F930305AF823B01B
:109C8400BBF1000F08D1032C2DD118F800C04CEA09
:109C9400020C08F800C001E0032CF6D001A80196DC
:109CA400FFF72AFE019B11F8181C03F5E07C114212
:109CB40050F82C00C0F3014005D0022813D1032C26
:109CC4000BD1214604E003280DD1032C05D1022138
:109CD4003046FFF71DFE0135EDB2BBF1000F02D097
:109CE40021463046D8470137042FAFD1A5B14FF0F4
:109CF400A0430299D3F8102503F540739142D3F899
:109D0400103502D10399994206D002920393049A22
:109D1400059B0692079395E709B0BDE8F08F00BF55
:109D2400006000407C61004000030050D42B002000
:109D3400342C0020014B1B68184700BF402C002026
:109D44000E4B984237B50D4602D0002003B030BD0B
:109D540000230DF107008DF80730FDF747FC084B91
:109D64001C7914B901221D601A719DF80700FDF7D2
:109D740061FC002CE9D01120E8E700BF002000407E
:109D8400402C0020034B984201BF034B00221A6071
:109D94001A71704700200040402C002000234350DB
:109DA40082B043580193019B02B070470A4610B534
:109DB4004FF48E71FFF7F2FF136A9168C95C136A5E
:109DC40001331362C0F81C1510BD8B690A4610B527
:109DD4004FF4847123B9FFF7E1FFD0F8183510BDB3
:109DE400FFF7DCFF536AD168D0F81805C854536AEA
:109DF40001335362F3E700001FB501238DF80030EF
:109E0400044BCDE90110D3E900126846904705B030
:109E14005DF804FB482C002030B54C4AD2F80433DA
:109E240013F4007F85B015464FD0D2F82431002BAF
:109E34004BD04FF492711046FFF7B0FF4FF401730B
:109E4400C2F80833424B93F8291009B90121516033
:109E54003E4902228DF80020D1F88024C1F88024E4
:109E640003929A690292DA6801920022C3E90622F7
:109E74006846D3E9001290473448D0F81C315BB1EE
:109E840033490A6A4B699A420A464BD291F8283000
:109E9400002B47D1FFF78AFF2C4AD2F8443193B103
:109EA4004FF4A2711046FFF779FF294B93F829105C
:109EB40009B1012111609A692AB100229A61586A94
:109EC400D968FFF799FF05B030BDD5F804335B07B7
:109ED400D2D5D5F80831002BCED01D4C1B482146D5
:109EE400FFF773FF636AA2699A422346C4D1E26909
:109EF400E1684AB12369E3600023606AA261E36117
:109F04006362FFF779FFB7E794F829200AB90122C1
:109F14006A600E4A4FF40170C2F8080300229A6185
:109F2400586AEEE74FF48E710848FFF737FF51691E
:109F34000029B1D00023029191688DF8003001917D
:109F440053616846D2E900139847A5E70020004012
:109F5400482C00201F2886BF00F01F00044B4FF040
:109F6400A04300F5E070022243F82020704700BFB0
:109F7400000300502DE9F843624F047991462C22E6
:109F840002FB0472064692F82A200D46002A40F08D
:109F9400B3805D490068FFF7D3FE8046002840F097
:109FA400AE8029684A1C10D01F2987BF01F01F0307
:109FB400564A0B464FF0A0420120984003F5E07347
:109FC400C2F80805032042F823006868431C0DD03A
:109FD4001F288BBF00F01F0303464C4A4FF0A042DA
:109FE40003F5E0734FF0000C42F823C03368AA690C
:109FF40095F814C0C3F824256A7DBCF1010F4CEA1E
:10A004000202C3F86C25C3F81405C3F80C152BD150
:10A01400A968481C0DD01F298BBF01F01F020A46F6
:10A024003A484FF0A04002F5E0724FF0000C40F8BF
:10A0340022C0E868421C13D01F2887BF00F01F0C01
:10A04400324A84464FF0A0424FF0010E0EFA0CFE45
:10A054000CF5E07CC2F808E54FF0030E42F82CE062
:10A06400C3F80805C3F810152C236343FA18C2F883
:10A0740004902A69FA50B9F1000F2AD04FF48E7176
:10A0840030682D7FFFF78AFE30684FF4A271FFF726
:10A0940085FE32681E4BC2F80433120B51B20029FC
:10A0A400A8BF01F160404FEA4513BABF194802F056
:10A0B4000F0500F56140DBB2B4BF435580F80033AF
:10A0C40002F01F02012303FA02F24909124B43F87A
:10A0D400212033680422C3F800252C2303FB0473D6
:10A0E4000022C3E9062283F829205A61012283F859
:10A0F4002A204046BDE8F8834FF00808F9E74FF0FE
:10A104001108F6E7482C00201D9E020000030050B1
:10A114008000020014ED00E000E100E02DE9F041D0
:10A1240003680479254D0022C3F800252C2202FB84
:10A1340004520646526872B1214AC3F80823190B27
:10A144004AB20120520901F01F0100FA01F1203244
:10A154001C4840F82210D3F80C05D3F81485D3F822
:10A164000815D3F810754FF0FF329042C3F8142548
:10A17400C3F80C25C3F80825C3F8102501D0FFF750
:10A18400E9FEB8F1FF3F02D04046FFF7E3FE7A1C38
:10A1940002D03846FFF7DEFE4B1C02D00846FFF71C
:10A1A400D9FE3068FFF7EEFD2C2303FB0454002393
:10A1B40084F82A306360BDE8F08100BF482C002099
:10A1C4008402020000E100E02DE9F047214F067906
:10A1D4004FF02C0909FB067480466569002D37D1C0
:10A1E4006261A16025624FF48E71006884F8285082
:10A1F400FFF7D4FDD8F80000012383602146FFF760
:10A20400D5FD6368A14693B9D8F800A0226A6369B2
:10A214009A4212D3D8F80030D3F81C21002AFBD07C
:10A224000122DA602C2303FB06760023736128469F
:10A23400BDE8F08794F8283043B9DAF81C31002BD4
:10A24400F8D049465046FFF7B1FDDFE70F25E9E7AF
:10A254001125ECE7482C00200023435082B04358DA
:10A264000193019B02B070471FB501238DF80030A4
:10A27400044BCDE90110D3E900126846904705B0BC
:10A284005DF804FB742C00207FB5374AD2F82461B2
:10A29400002E48D010464FF49271FFF7DDFF0223E1
:10A2A4008DF80030D2F88034C2F880340393D2F8A9
:10A2B4003C3502932D4BDA6801920022C3E9062251
:10A2C4006846D3E900129047274AD2F844317BB15B
:10A2D4004FF4A2711046FFF7BFFF244B996939B1BF
:10A2E4000021C3E90611D968D2F83C05FFF7BCFF89
:10A2F4001D4AD2F82031A3B14FF490711046FFF7F4
:10A30400ABFF1A4B596961B1D2F84C150291002286
:10A3140099688DF8002001915A616846D3E90012CA
:10A32400904704B070BDD2F81031002BCCD04FF45C
:10A3340088711046FFF790FF0C4BD2F83C059969E1
:10A344008842C1D1DC69D96864B1D2F8005225F0E1
:10A354002005C2F800521A699C61DA60DE61FFF7D9
:10A3640083FFB1E79C61FAE700200040742C0020D1
:10A374001F2886BF00F01F00044B4FF0A04300F5D8
:10A38400E070022243F82020704700BF0003005011
:10A394002DE9F843664F06799146242202FB0672A2
:10A3A400044692F820200D46002A40F0BB80614903
:10A3B4000068FFF7C5FC8046002840F0B680286896
:10A3C400421C10D01F2887BF00F01F035A4A0346BF
:10A3D4004FF0A0420121994003F5E073C2F808153B
:10A3E400032142F8231069684B1C0DD01F298BBF31
:10A3F40001F01F030B46504A4FF0A04203F5E073EF
:10A404004FF0000C42F823C02368AA6995F814C0E1
:10A41400C3F824256A7DBCF1010F4CEA0202C3F89B
:10A424006C25C3F80C05C3F814152BD1A968481C76
:10A434000DD01F298BBF01F01F020A463E484FF082
:10A44400A04002F5E0724FF0000C40F822C0E8682A
:10A45400421C13D01F2887BF00F01F0C364A8446C5
:10A464004FF0A0424FF0010E0EFA0CFE0CF5E07C0A
:10A47400C2F808E54FF0030E42F82CE0C3F80805D3
:10A48400C3F8101524237343FA18C2F804902A69F8
:10A49400FA50B9F1000F34D04FF4887120682D7F41
:10A4A400FFF7DAFE4FF490712068FFF7D5FE4FF402
:10A4B40092712068FFF7D0FE20684FF4A271FFF775
:10A4C400CBFE22681D4BC2F80433120B51B2002993
:10A4D400A8BF01F160404FEA4513BABF184802F023
:10A4E4000F0500F56140DBB2B4BF435580F800337B
:10A4F40002F01F02012303FA02F24909114B43F847
:10A50400212023680822C3F80025242303FB0673B3
:10A514000022C3E906225A61012283F82020404622
:10A52400BDE8F8834FF00808F9E74FF01108F6E7A3
:10A53400742C00208DA202000003005010030200BE
:10A5440014ED00E000E100E02DE9F0410368047936
:10A55400254D0022C3F80025242202FB045206469E
:10A56400526872B1214AC3F80823190B4AB2012078
:10A57400520901F01F0100FA01F120321C4840F891
:10A584002210D3F80C05D3F81485D3F80815D3F8A2
:10A5940010754FF0FF329042C3F80C25C3F8142510
:10A5A400C3F80825C3F8102501D0FFF7E1FEB8F180
:10A5B400FF3F02D04046FFF7DBFE7A1C02D038464C
:10A5C400FFF7D6FE4B1C02D00846FFF7D1FE3068D9
:10A5D400FFF7D8FB242303FB0454002384F8203022
:10A5E4006360BDE8F08100BF742C002010030200FA
:10A5F40000E100E001F06043B3F1005F2DE9F041B8
:10A60400074632D11B4B0679242505FB06359846AF
:10A614006C6964BB6A61A96000684FF49071FFF7CC
:10A624001BFE4FF4AC713868FFF716FE3B686A698D
:10A63400A968C3F84415C3F8482501229A606A68DA
:10A6440062B9D3F82021D3F8584152B9002CF8D07C
:10A654000F24242303FB0686002373612046BDE8F0
:10A66400F081002C18BF0F24F3E71024F6E711241F
:10A67400F4E700BF742C00200220FEF773BF000033
:10A684002DE9F04781460D46FEF79AFF032804465C
:10A6940004D8012D04D025B3022D2FD0BDE8F087B6
:10A6A400194D47003A18A918AE5C4A7852B1DFF840
:10A6B4006880164842464FF40041FCF741FF08B950
:10A6C40088F800903B192B449A78114B1A55002EA8
:10A6D400E4D0104B1B68002BE0D03046BDE8F047B7
:10A6E40018470A48FCF772FF074B04EB4402134473
:10A6F4009E78074B1B5DB342D0D1E8E7024B00EBD9
:10A7040040041C446678E2E7FC2C0020BC2C0020AA
:10A71400152D0020102D0020982C002002210078F7
:10A72400FFF7AEBF08B5094B1B7853B10020FEF705
:10A73400E7FE0120FEF7E4FE0320BDE80840FEF733
:10A74400DFBEBDE80840FEF7EFBE00BF992C002035
:10A75400F8B57B4C237805461BB100232370FFF723
:10A76400E1FF172D00F28880DFE805F00C1717438E
:10A7740054657680888D888D959A9A9A9A9AC4C9D8
:10A78400D1D9E4E4FFF7CEFF6E48FCF71FFF6E4B10
:10A79400002204461A702046F8BD0020FEF788FE09
:10A7A400F8B10020FEF7ACFE022D0CBF4FF4E161BE
:10A7B4004FF47A61644B1D704FF400404FF4FA7407
:10A7C4000025E0FB01454FF47A7200232046294618
:10A7D40005F0A4FD002201465A48BDE8F840FCF704
:10A7E400AFBEFEF779FE022D0CBFC8214FF4C8712D
:10A7F400E0E70020FEF75CFE40B10020FEF780FE9B
:10A804004FF44871504B03221A70D5E7FEF764FEEB
:10A81400C821F7E70020FEF74BFE38B10020FEF711
:10A824006FFE4FF47A61484B0422EDE7FEF754FEC5
:10A834004FF4C871F7E70020FEF73AFE48B1002054
:10A84400FEF75EFE404B05221A7041F69A11002273
:10A85400C2E7FEF741FEF5E70020FEF783FE3A4B20
:10A8640006221A70002240F6CD41B5E70020FEF71B
:10A8740033FE354B07221A7000248CE70120207028
:10A88400FEF770FEEEE701202070FEF76BFE00225B
:10A894004FF48041A0E7FEF756FE2B4B0C22EAE76B
:10A8A4002A482B4EFCF792FED5F1110504461CD024
:10A8B400D8B9012D13D0C8235D434FF400474FF49A
:10A8C400FA7000214FF47A720023C7FB050105F0EA
:10A8D40025FD224601461D48FCF732FE04460220AF
:10A8E400FEF7FAFD0123337055E70220FEF708FE58
:10A8F4000023F8E7FFF716FF134B1222BBE7FFF71D
:10A9040011FF0020FEF7E8FD0F4B1322B3E7FFF71A
:10A9140009FF0120FEF7E0FD0B4B1422ABE7FFF724
:10A9240001FF0020FEF7D8FD0120FEF7D5FD064B00
:10A934001522A0E7FEF707FE034B1D709CE700BF3E
:10A944000C2D0020DC2C0020142D00209C2C002039
:10A95400992C0020044B1B68DB0703D5034B1878A4
:10A96400FFF7F6BE704700BF082D0020142D00200D
:10A97400002910B514BF03240024FEF733FE1F285A
:10A984008ABF0A4B4FF0A04300F01F0003EB800086
:10A99400D0F8002722F44032C0F80027D0F800375E
:10A9A40043EA0443C0F80037002010BD0003005000
:10A9B400032801D8FEF7F0BD00207047044B1B6844
:10A9C40013F0010301D0FFF7C3BE1846704700BF60
:10A9D400082D002038B51C4B18601C4B10F00204E5
:10A9E400054619601AD01A4B1A480E221A700F2203
:10A9F400DA7010229A7111225A72042140F26662AE
:10AA0400FCF79AFA044648B9FCF7EAFA044628B96E
:10AA14000146114A1148FCF781FD0446EB0711D5A4
:10AA24000120FEF7E5FD6CB921460D4A0D48FCF7FF
:10AA340075FD044630B90C4A0C480121BDE8384084
:10AA4400FCF76CBD204638BD082D0020102D0020D9
:10AA5400FC2C00205C10030021A7020080100300DE
:10AA640059A90200841003007DA602007C10030093
:10AA7400032813D8012A0BD1012908D100F10E02B1
:10AA8400D2B200EB40000C4B1A5400207047002255
:10AA94000129F6D04BB24BB1022901D007207047EF
:10AAA400054B00EB400018444270EEE7024900EB0E
:10AAB400400008448270E8E7FC2C0020032802D8F8
:10AAC4000121FFF755BF0620704708B50122022176
:10AAD4000020FFF7CDFF08B1072810D1072202217B
:10AAE4000120FFF7C5FF08B1072808D100210A2279
:10AAF4000846FFF7BDFF10B1072808BF002008BDB6
:10AB04000388102B10B502D0112B1ED010BD1A4C87
:10AB14002168B1B901220846FFF7AAFF08B1072846
:10AB240024D1072202210120FFF7A2FF08B1072840
:10AB34001CD1042202210020FFF79AFF08B1072844
:10AB440014D1236801332360E0E70B4A1368013B07
:10AB54001360002BDAD1FFF7B8FF0028D6D0074BDB
:10AB64001B68002BD2D0BDE810401847034B1B686C
:10AB7400002BE6D09847E4E7202D00201C2D002070
:10AB840008B50020FFF79AFF08B1062806D1012076
:10AB9400FFF794FF10B1062808BF002008BD00008D
:10ABA4000D4B10B518600C4629B10120FFF700FFCA
:10ABB40040B102232370094B1B6853B9BDE8104010
:10ABC400FFF783BFFFF7F4FE08B10B23F2E7207011
:10ABD400F1E7002010BD00BF1C2D0020202D002017
:10ABE40076DF704778DF70477ADF70477CDF704725
:10ABF4008FDF704733DF7047FCF708BA0A46014617
:10AC0400014802F0B3BA00BF7C2F002008B5002031
:10AC1400FFF7D4FE08B1FCF7F9F9FFF7B1FF08B16B
:10AC2400FCF7F4F9FFF7E6FF18B1BDE80840FCF7BC
:10AC3400EDB908BD13B5044604F0CEF92388212BE1
:10AC440046D005D8102B0CD0112B2CD002B010BD3F
:10AC54003B2B01D0562BF9D11321A088FFF7C0FF5D
:10AC64001CE01F4B1F482049C01AC008000440F0D4
:10AC74000300FBF715FF0720FFF7A0FE08B1FCF760
:10AC8400C5F9A188194C1A48218002F0DBFA08B1F1
:10AC9400FCF7BCF92188174802F07AFD0028D5D0CA
:10ACA400FCF7B4F9D2E70E4B0E481349C01AC0089A
:10ACB400000440F00300FBF7F3FE104B1049187832
:10ACC400002201F069F9094B4FF6FF721A80BDE7C3
:10ACD400002301A9A088ADF80430FFF789FFDDE760
:10ACE400D4060300FC060300881003004C22002055
:10ACF4007C2F0020C42F002092100300AC2F0020D2
:10AD040011AE020010B5094B094904460948C01A9E
:10AD1400C008000440F00300FBF7C2FE064B608845
:10AD240019780122BDE8104001F018B9D4060300D7
:10AD340009110300FC060300AC2F0020087808B5B5
:10AD4400A0B9B1F88220042A0ED10231084805F0D6
:10AD5400AAFBB0FA80F14909064802F03FFB28B18A
:10AD6400BDE80840FCF752B90146F5E708BD00BF4D
:10AD7400482200207C2F002008B503784BB9054BEE
:10AD84003B211888FFF72CFF18B1BDE80840FCF7F9
:10AD94003DB908BD4C220020042808B505D00A2876
:10ADA4000FD1BDE80840FFF731BF064B13211888C7
:10ADB400FFF716FF30F0080303D0BDE80840FCF7A6
:10ADC40025B908BD4C22002008B598B1032815D137
:10ADD4000B4B0C480C49C01AC008000440F0030097
:10ADE400FBF75EFE0220FFF7E9FD38B1BDE808403D
:10ADF400FCF70CB9BDE80840FFF708BF08BD00BF69
:10AE0400D4060300FC0603008B11030013B50446AB
:10AE140001F056F8022807D101220E4B204619787A
:10AE240001F09CF802B010BD0DF10601204603F0BC
:10AE34000DFC08B1FCF7EAF8BDF806004FF6FF7305
:10AE44009842EFD003F028FC08B1FCF7DFF80022A9
:10AE5400E3E700BFAC2F002073B5154B1549064638
:10AE64001548C01AC008000440F00300FBF718FEA0
:10AE74004FF6FF7003F0FCFB4FF6FF750446AC423F
:10AE840001D102B070BD0DF10601204603F0CCFBE8
:10AE940008B1FCF7BBF8BDF806007388834202D002
:10AEA4000021FFF7B3FF204603F0E2FB0446E6E788
:10AEB400D4060300CA100300FC06030037B5134B85
:10AEC40013481449C01AC008000440F00300FBF7FB
:10AED400E7FD4FF6FF7003F0CBFB4FF6FF7504461A
:10AEE400AC4201D103B030BD0DF10601204603F0A0
:10AEF4009BFB08B1FCF78AF80021BDF80600FFF7B8
:10AF040085FF204603F0B4FB0446E9E7D4060300BA
:10AF1400FC0603009F10030008B50321044800F059
:10AF24009DFC18B1BDE80840FCF770B808BD00BF2F
:10AF3400242D002010B5044604F02AF8204603F01E
:10AF44004DFE23780C2B03D1BDE81040FFF7E4BF7E
:10AF540010BDFCF75BB8FCF759B8FCF757B8000014
:10AF640000B54FF40041B7B00020FBF7D5FB08B1A2
:10AF7400FCF74CF8FBF706FBFCF7A0FA08B1FCF76A
:10AF840045F898490320FFF725FD08B1FCF73EF882
:10AF94000BA90020FFF704FE08B1FCF737F89DF871
:10AFA4002C50FEF715F908B1FCF730F804F0D2FF85
:10AFB40008B1FCF72BF800230BA901200B9305F033
:10AFC40091F808B1FCF722F80BA805F03DF908B197
:10AFD400FCF71CF8112384488DF8103005F0FAFAB8
:10AFE400814982B204A8FFF701FE08B1FCF70EF80C
:10AFF4000020FFF7F7FD08B1FCF708F8082200214C
:10B004000BA805F0B4FA79484FF0C873CDE90B03E7
:10B014000BA8FFF7E9FD08B1FBF7F8FF002174481E
:10B0240002F036FA08B1FBF7F1FFAC2200210BA8BD
:10B0340005F09DFA02236F4A8DF82C3040F201533B
:10B04400ADF82E301092012300222821ADF83C30B7
:10B054008DF8A520ADF8A83044F25062664B3493C5
:10B06400CDE92D12654B664835930BA900F07FFBA3
:10B0740008B1FBF7CBFF0121614800F075FB00210B
:10B084001022684605F073FA4FF40073ADF80830E7
:10B094005C4B01935C4B039369465C4B5C480093A7
:10B0A40002F0EDFA08B1FBF7B1FF00211C2204A85D
:10B0B40005F05DFA00F030FF564B1870564B0493C0
:10B0C400564B0593BDF81830554803F0D50343F4A7
:10B0D4000A7343F00203ADF8183002238DF81A30D6
:10B0E4004B4B07934F4B08934F4B099304A94F4B7A
:10B0F4000A9302F0ADF808B1FBF788FF4022002163
:10B104000BA805F034FA0BA8494900F078FF012395
:10B114000BA88DF8683004F0F9FD08B1FBF776FF51
:10B124001C2200210BA805F022FA00234FF4F02280
:10B13400CDE90B32ADF83A304FF420328DF83C3083
:10B144003C4B0D92109303223B4B8DF838200BA8F7
:10B15400119300F0C7FD08B1FBF758FF03F07CF929
:10B1640008B1FBF753FF052200210BA805F0FFF9F6
:10B174000B9B03F07C42314B13430B939DF830300F
:10B1840023F0030343F003030BA88DF8303003F0DE
:10B19400FDF908B1FBF73AFF294803F0DFF908B1DC
:10B1A400FBF734FF274B284C2849E41AE40824040D
:10B1B40044F003042046FBF773FC022D0FD124490D
:10B1C4002046FBF76DFC03F071FA08B1FBF71EFF94
:10B1D400FBF7FCFA0028FBD1FEF710F8F8E7FFF7BD
:10B1E4009BFEF5E79DAD02003E11030007009001B0
:10B1F400B02F002044220020CDAD02005FAF02003A
:10B20400242D0020E42F002001AC0200FDAB02003D
:10B21400C42F0020AC2F002041AD02005BAF020020
:10B224007C2F002009AD0200C1AE02005DAE020019
:10B23400491103007DAD020057AF0200310710032E
:10B2440039AF0200D4060300FC0603005D110300BD
:10B254007E1103006DDF704779DF70477DDF704733
:10B2640064DF70472DE9F04F85B000250E9CBDF8D2
:10B274003CB027880191804691469A462E46B8F8FC
:10B284000020B2420CDC3DB12288013AD21B92B2BA
:10B29400FF2A3BD80AF80720002005B0BDE8F08F4C
:10B2A400D8F8042052F82600039000220DF10B0177
:10B2B40003A8FFF7D5FF0028EFD19DF80B204A45DE
:10B2C40022D12288002D14BF0020022002EB0901A4
:10B2D400014459451ADC45B9013292B2019B2280DE
:10B2E4000AF8023022880132228022880DF10B01F3
:10B2F400524403A8FFF7B4FF0028CED121889DF85B
:10B304000B200A44228001250136B8E70C20C4E74B
:10B314002DE9F341089CBDF824501746CDE90045BA
:10B32400022206469846FFF79DFF50B94346102275
:10B3340039463046CDE9084502B0BDE8F041FFF793
:10B3440091BF02B0BDE8F0812DE9F04F00231688CB
:10B35400138090F82D3085B007460D46144653B33C
:10B36400082E01D80C2027E102A8FFF773FF00285C
:10B3740040F0228123880822EA54238801339BB2B7
:10B384001B222380EA542088013080B220800622C8
:10B394000DF10901284405F0C1F823889DF808201F
:10B3A40006339BB212F0FE0218BF01222380EA5436
:10B3B400238801332380BB78FBB123880433B34251
:10B3C400D0D802A8FFF748FF002840F0F580238872
:10B3D4000322EA54238801339BB219222380EA54BE
:10B3E4002388BDF8082001339BB2E9182380EA546E
:10B3F400120A4A70238802332380FA789AB1238888
:10B40400D91CB142AED80221E954238801339BB23E
:10B4140001212380E95423880B449BB22380EA54FE
:10B4240023880B4423807A68AAB12388D91CB142AB
:10B4340098D8022192F90020E954238801339BB261
:10B444000A212380E954238801339BB22380EA54E0
:10B454002388013323803B89002B40F0A1803B8A61
:10B464005BB1CDE900462B460722032107F110000A
:10B47400FFF74EFF002840F09F803B8B5BB1CDE986
:10B4840000462B461522142107F11800FFF740FF50
:10B49400002840F091803A6A002A40F09080D7F862
:10B4A4002480B8F1000F30D0B8F804302188981CFB
:10B4B4008A1C0244B2423FF655AFFE283FF652AF13
:10B4C40003336B54238801339BB2FF222380EA5455
:10B4D400238801339BB22380B8F80020EA54E9188A
:10B4E400120A4A702088023080B22080B8F8042002
:10B4F4005AB1D8F8081000296BD0284405F00EF88A
:10B504002388B8F804201344238097F82C30002BA8
:10B5140040F09A80387800284ED03B88012B58D0D0
:10B52400228802F1020CB4453FF61CAF012805D174
:10B534007B78023313449E42FFF414AF023EB61AE2
:10B54400B6B202A905EB0C00ADF80860FFF786FE61
:10B5540090BB3978BDF80820022900F0BA807B78C6
:10B56400934202D3B24240F2B280012940F0B38048
:10B574009BB29E42C0F0AF80ADF808300821BDF800
:10B584000830FE2B3FF6EEAE22880133AB542288FE
:10B59400013292B22280A9542288134423800BE002
:10B5A400CDE900462B460622022107F10800FFF7E9
:10B5B400AFFE00283FF453AF05B0BDE8F08FB4F8F8
:10B5C40000C00CF10603B3423FF6CCAE1188052946
:10B5D40001D80720F0E76FF4486E01EB0E039BB22D
:10B5E4004FF27D3E7345F4D95388052BF1D96FF49E
:10B5F4004860181880B27045EBD94FF6FF7081424D
:10B6040003D0834201D09942E3D8052305F80C30D6
:10B61400238801339BB212212380E9542388013308
:10B624009BB223801188E954E818090A41702388E1
:10B6340002339BB223805288EA54E918120A4A70F2
:10B644002388023323802AE7BB6A002BC1D04FF042
:10B6540000094FF00C0A4FF0160B97F82C305FFAE4
:10B6640089F293427FF656AFB96A0AFB02F201EB04
:10B674000208B8F80430981CFE283FF673AE208800
:10B6840003332B54238801339BB2238005F803B082
:10B69400238801339BB223808A5AEA54E918120A98
:10B6A4004A702088023080B22080B8F804205AB151
:10B6B400D8F8081000298CD0284404F02FFF2388E0
:10B6C400B8F804201344238009F10109C5E70921CE
:10B6D40055E7B242FBD9ADF808604FE770B5C0B189
:10B6E4004AB116880024B44203D305196D789D42EB
:10B6F40008D0A14201D800200BE0055D01352C449F
:10B70400A4B2F0E7A142F6D9A31C1380005D01386E
:10B7140080B270BD13B50023ADF8063013460DF1A9
:10B7240006020446FFF7DAFF10B1BDF80600204414
:10B7340002B010BD72DF704773DF704738B5012265
:10B7440004460D46B0F83812D0F83402FFF7E2FF91
:10B7540000B1057004F13C0204F50D7104F15400CC
:10B76400BDE83840FFF7E6BF80F830107047F8B501
:10B7740004460F4600296DD000286BD091F87A302A
:10B784001BB191F89830002B66D107F178060FCEE3
:10B794004FF0000C251D84F802C00FC50FCE0FC555
:10B7A40096E8070085E8070084F830C0D7F8A4308D
:10B7B4006363D7F8A830A3634FF6FF7504F50D73E0
:10B7C400C4F84432A4F848520722614604F24A20DD
:10B7D40004F0CDFE23780BB984F8545094F8243047
:10B7E400002B14BFEE231F2304F15501C4F83412B7
:10B7F400A4F8383204F50E723846FFF7A5FD40BBB5
:10B8040094F82430002B14BFEE231F2304F24311B9
:10B81400C4F83C12A4F8403204F5107207F13C005D
:10B82400FFF792FDA8B9A369A4F848304FF48073D8
:10B834000125A4F8503063692064014684F83C5023
:10B84400636404F13C0204F15400FFF773FF00B990
:10B854002570F8BD0E20FCE70720FAE7F8B5077855
:10B8640004460D46002F00F0078100F24A26A1701D
:10B8740007220021304604F07AFEE38813B1A3784E
:10B88400012B04D0E3794BB1A378022B06D1636B6F
:10B894009BB1012284F8512208209847324604F5CE
:10B8A400147112F8013F5BB98A42FAD16A1E032A65
:10B8B40052D8DFE802F0070D111484F85132EDE795
:10B8C4003B46F3E7A2791AB194F8242002B95BB994
:10B8D400E2790AB1002B41D1237A002B40D1637A5B
:10B8E400002B0CBF00250425636BA570002B39D0F9
:10B8F400033D012D36D86279A2B394F852228ABB53
:10B9040084F85422012284F853220720984704F132
:10B914003C0518220021284604F029FEE26A01238E
:10B92400511E994284F83C3001D9042A1ED1D3B265
:10B9340094F8242084F851301AB1CFB1A36A84F862
:10B944005230A178002384F8503004291FD8DFE84E
:10B9540001F07B1126395D000025C5E70225C3E708
:10B964000325C1E7002384F85332D0E70027DFE73B
:10B974000123E4E7C4F84432C4E91063022301223A
:10B9840084F83C30802384F83120A4F84830A3782C
:10B99400002B5CD1636B002B6AD1002067E002238B
:10B9A400002A84F8313014BF0723032384F83C3081
:10B9B4002369A4F848300023C4F84432E3682664B9
:10B9C4006364E4E763696364A369A4F8483012B16B
:10B9D400062384F83C306379B3B194F852329BB9AE
:10B9E40094F8543283B1022384F850300421204661
:10B9F400FFF7A4FE0028CAD1052384F8313004F5EA
:10BA04000D73C4F84432C2E70323F6E7E3696364C1
:10BA1400236AA4F8483012B1062384F83C306379D1
:10BA240083B194F852326BB994F8543253B102236F
:10BA340084F8503004212046FFF780FE0028A6D168
:10BA44000623DAE70423D8E784F831309FE72A464F
:10BA5400D4F8441204F15400FFF76CFE38B994F89A
:10BA6400301094F85400FFF767FE002892D0F8BD18
:10BA740094F83100984790E70820F8E70388112BE1
:10BA840010B50C460AD0262B1FD0102B05D1C37B32
:10BA9400012B02D18388A1F8483210BD002283888B
:10BAA40081F85222B1F848229A42F6D10B79002B40
:10BAB400F3D101212046FFF7D1FE0028EDD0A36B7E
:10BAC400002BEAD0BDE810401847037A013B012B54
