:020000022000DC
:1060000000000420756302005D6302005F6302000C
:106010006163020063630200656302000000000028
:1060200000000000000000000000000067630200A4
:1060300069630200000000006B6302006D630200F0
:1060400035B202006F63020031B702006F630200D5
:106050006F6302006F63020085B502006F63020088
:106060006F6302006F6302006F6302006F630200E0
:106070006F6302006F6302006F6302006F630200D0
:106080006F630200D57802006F6302006F63020045
:10609000717902006F63020011F302006F63020066
:1060A0006F6302006F6302006F6302006F630200A0
:1060B0006F6302006F630200000000000000000038
:1060C0006F6302006F6302006F6302006F63020080
:1060D0006DB802006F6302006F6302006F6302001D
:1060E0006F6302006F6302006F6302000000000034
:1060F000000000006F630200000000006F630200F8
:10610000000000000000000000000000000000008F
:10611000000000000000000000000000000000007F
:10612000000000000000000000000000000000006F
:10613000000000000000000000000000000000005F
:10614000000000000000000000000000000000004F
:10615000000000000000000000000000000000003F
:10616000000000000000000000000000000000002F
:10617000000000000000000000000000000000001F
:10618000000000000000000000000000000000000F
:1061900000000000000000000000000000000000FF
:1061A00000000000000000000000000000000000EF
:1061B00000000000000000000000000000000000DF
:1061C00000000000000000000000000000000000CF
:1061D00000000000000000000000000000000000BF
:1061E00000000000000000000000000000000000AF
:1061F000000000000000000000000000000000009F
:10620000354936480A1A02D0072291438D4634494F
:1062100034480A1A06D00722914381F309880222E2
:1062200082F3148830483149314A00F044F831484B
:106230003149324A00F03FF831483249324A00F0E1
:106240003AF832483249334A00F035F83248334997
:10625000334A00F030F833483349344A00F02BF821
:1062600033483449344A00F026F83448344900228F
:1062700000F02CF833483449002200F027F8334866
:106280003349091A082902DB002202604160314AC1
:1062900090471F481F49884205D00268043003B464
:1062A000904703BCF7E700208646EC46002000211B
:1062B000294A9047FEE7884207D0521A05D0037852
:1062C00001300B700131013AF9D17047884202D098
:1062D00002700130FAE770470000042000E003205C
:1062E0000000042000000420002A0300FC320020EB
:1062F0008C360020D4630200D4630200DCFD02006F
:10630000002A0300FC320020FC320020CC000300F5
:10631000CC000300CC000300CC000300CC00030041
:10632000CC000300CC000300CC000300002A0300D3
:10633000902D03008C3600208C3600208C360020F7
:106340003069002030690020346900203469002061
:10635000348900209D6302003DD80200FEE7FEE77D
:10636000FEE7FEE7FEE7FEE7FEE7FEE7FEE7FEE705
:10637000704700BF1048804710484FF0070188431E
:1063800085460F4880470F48016841F4700101605D
:10639000BFF34F8FBFF36F8FFFF732BF0A480B4930
:1063A0000B4A884207D0521A05D0037801300B708F
:1063B0000131013AF9D170477163020000000420F5
:1063C0004DAD020088ED00E0F0FF02002032002019
:0463D000FC3200207B
:1063D4000048704728690020F0B595B01C46164661
:1063E40008460D4604F09FF91A9B0D93CDE9086405
:1063F400002423460C2205A928460A948DF82C4033
:106404000C9404F0ADF9079B0293069B03939DF84B
:1064140014308DF8114003F00302012A1DD1BDF898
:106424001440059EC3F3C203C4F383148DF81030E3
:10643400A2000C230EA9284604F092F9C6F395266F
:1064440008AB0093224602AB0EA9304600F062FF6F
:10645400284604F06CF915B0F0BD022AF8D1BDF855
:106464001640C3F3C203A4098DF810300C27082C7E
:10647400264628BF08263B4632460EA9284604F085
:106484006FF9A41B08AB02AA31460EA8374400F0EA
:10649400A5FF002CEBD1DBE7014B01221A707047FA
:1064A400CD3600207047000070B50E4D06460FCD66
:1064B40088B06C460FC495E80F00002E84E80F00E6
:1064C4004FF00603084A0948009308BF00226946B2
:1064D40004F048FE08B101F041F9054B1E7008B004
:1064E40070BD00BFCC0003009D640200FC3200209C
:1064F4008C36002007B5044B0093044A4023FFF771
:106504006BFF03B05DF804FB156502008D360020B7
:1065140038B50D4B0D4D002018700D4804782D5DD5
:10652400D2B21C4665B1043005F0B4FE08B101F0E6
:1065340015F9084B1A7812B12378002BFBD038BD1B
:106544000C3005F005FCF1E7CD3600200C5A002094
:10655400FC3200208C36002008B50848084A03782D
:10656400D35C3BB1043005F03FFE0020BDE8084099
:10657400FFF79ABF0C3005F095FBF6E7FC320020DC
:106584000C5A002000230428CB604B6098BF044BB6
:10659400044A98BF53F820308A600B60704700BFEC
:1065A400D4020300B0020300CB6800225A71704782
:1065B400C368DB6800225A717047CB6801225A71A4
:1065C4007047C368DB6801225A7170470D4A8A60BC
:1065D40070B50D4A0D4C0023121BCB604B600B6051
:1065E40012091D469A4207D0E6683679FF2E05D077
:1065F400854202D1A3680B6070BD013501331034AC
:10660400F0E700BFE8020300F0FF0200C0FF020051
:106614002DE9F74F164D174C52F8047C0193641B77
:1066240006468946924624094FF00008444508D19D
:10663400114A3B460221304603B0BDE8F04F02F058
:10664400F3B8A968384609F070FBAB46103510B1B1
:1066540008F10108EAE7DDED017A17EE90CA534626
:106664004A465946304603B0BDE8F04F604700BF84
:10667400C0FF0200F0FF020020040300014BFFF7FB
:10668400C7BF00BFC56C0200014BFFF7C1BF00BF0D
:10669400AD650200014BFFF7BBBF00BFBF65020041
:1066A400014BFFF7B5BF00BFFD6A0200037813F08A
:1066B400040216D003F00303012B03D0022B09D0EC
:1066C400012070470A6800880332C0F38310024433
:1066D4000A60F5E70B684288033303EB92130B60FF
:1066E400EEE71046704700002DE9F04F87B0002315
:1066F4000446C51C0DF107000F4690468DF807307F
:1067040001F02EFB444806683E60D0E90132134490
:1067140001339B1B414E8246A6F10409A6F10807EA
:10672400AB421BD30022B8F1000F6FD0052363F3F3
:10673400070264F38912DAF80010DAF808309DF8D9
:1067440007000B4003330D444AF82320CAF80050D5
:1067540001F02AFB012007B0BDE8F08F012130468B
:1067640001F06EFB484601F084FB384601F081FBE2
:10677400DAF80400DAF808B0029000EA0B000330FB
:106784000AEB800002A9FFF791FF029B48BB0BEACA
:1067940003020AEB820203F1010CD26803920CEAB1
:1067A4000B0B0AEB8B0C02F003020333012ADCF817
:1067B4000C10029322D0022A16D08346384601F0E8
:1067C4005BFB10B1029BCAF804305946304601F015
:1067D40037FBDAE901231344DAF8002001339B1A6A
:1067E4009EE70BEA0300CAE7BDF80E2092090332C4
:1067F4004FEA114B03EB92030293DFE7BDF80C2041
:10680400C2F383124FEA114B1344F5E7062363F3F3
:10681400070264F39F528EE7A0370020BC57002084
:10682400012907B5034604D08168D1F848118907C6
:1068340007D500221146184603B05DF804EB03F0B7
:106844004FB853680193054B00931368044A02211F
:1068540001F0EAFF03B05DF804FB00BF020103008E
:10686400F80003002DE9F3478368D3F84841C4F3E3
:106874004004074634B10022114602B0BDE8F04797
:1068840003F02EB8144E154DDFF85880DFF85890F9
:10689400DFF858A0AD1B2D09AC4202D102B0BDE80F
:1068A400F087F268B3681179FF2907D10C4A0821EF
:1068B400384601F0B9FF01341036EDE75279002A69
:1068C40014BF42464A46CDE90021384652460821C3
:1068D40001F0AAFFEFE700BFC0FF0200F0FF0200D3
:1068E40028010300170103001F01030047010300EF
:1068F40030B50A4B0A4A0B49D21AD20800239A42ED
:1069040001D1052006E031F823500468A54202D1E4
:106914000360002030BD0133F1E700BF9CFE02009C
:1069240054FF0200443200208368D3F848319B07A7
:1069340003D50022114602F0D3BF024A022101F01E
:1069440073BF00BF680103008368D3F848319B0715
:1069540003D50022114602F0C3BF024A022101F00E
:1069640063BF00BF680103002DE9F84F0546002806
:106974004ED0294C40F2FF7342F21802A360002368
:10698400A35042F214020846A35042F22002C4E982
:106994000033A35400F07CFD42F20C031F48E55081
:1069A40003F07AFE814688B91D481E4E1E4CDFF85E
:1069B40084A004F058F8A41BE4084D46A54208D16D
:1069C40000231A4A1A481946A3421BD14846BDE877
:1069D400F88F4FF00008474606EBC50BBD420AD0BE
:1069E400142256F83710DBF8000009F0ABF8002841
:1069F400C8BF08F101080137BC42EFD12AF825804D
:106A04000135DBE720F8231042F8041B0133DBE7F0
:106A14004FF00709DAE700BFA037002054FF020057
:106A2400A40203009CFE020054FF0200A0320020D6
:106A3400463200204432002007B5019031B9019A52
:106A4400064B53F8320003B05DF804FB01A8FFF7CE
:106A54004FFF0028F3D00020F5E700BF9CFE0200A2
:106A6400002310B5CB604B60034B8B600C460121B7
:106A7400FFF7E2FF206010BDB0020300094B0139AB
:106A840003EBC000032909D8DFE801F00A02040679
:106A940004207047007970474079704700207047A0
:106AA400022070479CFE020030B5114C00EB400000
:106AB40054F821508240072383406A401A400D4B0A
:106AC4006A40C2F3821044F8212003EB8101C2F32F
:106AD400C203834238BF0346C2F34220834202F01A
:106AE400070238BF03469A4238BF1A464A8030BD6F
:106AF400A0320020443200202DE9F74F06461D46FF
:106B04009046002A4FD0CB6828684B4993F80490EC
:106B1400072209F017F8D0B9B8F1010F07D1474A95
:106B24000221304603B0BDE8F04F01F07DBE444F72
:106B340004460A2257F8041B686809F003F8002881
:106B440073D00134052CF4D16B683E4A13E008225B
:106B54003D49286808F0F6FF58B9B8F1010F04461A
:106B64002AD00127394A3A4B9B1A4FEAD30A934653
:106B740045E02B68374A0221304603B0BDE8F04FA8
:106B840001F052BE18F83530A3420FD20021284636
:106B9400FFF752FF524603460221304601F044FEFD
:106BA4000135BD42EED103B0BDE8F08F224629463F
:106BB4004846FFF779FFF3E7244B254FDFF89CA005
:106BC400FF1AFF08002503F10608EAE7184600212A
:106BD4000193FFF731FF0099202208F0B3FF019BD6
:106BE400014608B1013310E00BEBC3029279A242D3
:106BF40015D3224619464846FFF756FF0137474545
:106C0400D1D255F82730009300239A45DED155F8A8
:106C14002730114A0221304601F006FEEEE71846FD
:106C2400FFF70AFF0D4A0346F4E7B8F1020FE4B296
:106C3400C2D0022796E700BF790103008001030058
:106C4400C0020300EB010300970103009CFE020055
:106C540054FF02009F010300D7010300B4010300A5
:106C640013460A46C168FFF747BF000013B5044640
:106C74000191A3B162B9019A0F4B04EB44040720BC
:106C840053F82230A0401840E040C0B202B010BD1A
:106C940001A8FFF72DFE0028EDD00020F6E72AB961
:106CA400019A064B03EBC2039879EFE701A8FFF7BB
:106CB4001FFE0028F1D1F3E7A03200209CFE020061
:106CC400284B294A2DE9F04F9B1A4FEAD309CB6888
:106CD4005B7985B005460E461BB9244A022101F0B2
:106CE400A3FD234B234A244F0821284601F09CFD91
:106CF400224A0821284601F097FD00244C4502D180
:106D040005B0BDE8F08FF36893F8048001231A46B8
:106D140021464046FFF7AAFF01222146834600236D
:106D24004046FFF7A3FF0328034628BF03235FFA67
:106D340083FA804601212046FFF77EFE57F82A3069
:106D440001930F4A0F4B57F82B100091D04598BF71
:106D5400134602930C4A03460821284601F064FDB9
:106D64000134CBE754FF02009CFE02000A02030038
:106D74001D02030029020300C002030047020300AE
:106D8400160C0300080203008402030013460A469B
:106D9400C168FFF795BF0000034BD3E90030C31A65
:106DA40058425841704700BFA03700202DE9F04FEA
:106DB40087B0FFF7F1FF0646002840F02B81964D7F
:106DC40042F21803E850BFF34F8F6868AC68029032
:106DD40020400330914F05EB800002A9FFF766FCC9
:106DE400029B10B13A68002A70D0591C214005EB6F
:106DF400810104EA0302C9680491D91C023305EB3A
:106E04008202234005EB8303D268DB68059302F01A
:106E14000303022B0392029170D1BDF80E30804817
:106E24009DF80C604FEA931ABAF1500FD14628BF6F
:106E34004FF0500969F38F1309F10C01ADF80E30CE
:106E440003F042FCC6F3C2068046002800F0C88066
:106E540003F069FC0C220DEB02010023404603F011
:106E640075FC029924EA01070137BF00B9453ED9F0
:106E74005FFA89F9002F37D0FFB2A9EB0709214047
:106E840003315FFA89FBB946664F05EB81010C2398
:106E94004A46404603F05AFC37B109F10C035A46FE
:106EA4003946404603F052FC029B0AF1030A03EB05
:106EB4009A03029342F21803EB58002B55D142F285
:106EC4001003DFF87491EC58072773E02A689A429C
:106ED40004D86A60304607B0BDE8F08F04EA0300C6
:106EE400033005EB800078E74E49BB46CFE72140ED
:106EF40003310C234A4605EB8101D2E7012B6FD104
:106F0400BDF80C604648C6F38311062928BF062144
:106F140061F3891603318900ADF80C6003F0D4FBEA
:106F2400C6F3C206804600285AD003F0FCFB0C22AC
:106F340000230DEB0201404603F008FC0027BDF8D6
:106F44000C20C2F38312BB00974203F10C03B1D2AD
:106F540002994A1C21400331029205EB810104226B
:106F6400404603F0F3FB0137E9E7404603F0DFFB5B
:106F7400FFF712FF80F00100C6B2ABE7E3685A796D
:106F8400B2B11B79BDF8101003EB430259F821107C
:106F940007FA02F3052E03EA010323FA02F308BFFA
:106FA4000326B34204D3236841461B68204698470E
:106FB400E3681C68002CE1D1404603F0B8FB0DF1F6
:106FC40007008DF8074000F0CBFE42F21803EB589F
:106FD4000BB9029B6B609DF8070000F0E5FEC7E764
:106FE40042F21003EC5874B90F4B5B88012BBFD9E4
:106FF4000E4B0F480F49C01AC008000440F00200AD
:1070040000F080F8B4E7236820469B689847E3685B
:107014001C68E8E700265DE7A0370020B857002089
:1070240054FF0200AC370020643200209CFE0200B2
:10703400DCFE020048040300A03200202DE9F74FD3
:107044002E4C81468846174601A9012218469B46C4
:10705400D4F808A0FFF748FB00283AD0019D002689
:10706400E91C5E4506EB01023ED10021244800F0F4
:10707400B1FE80F310006B1C03EA0A0304EB8303E4
:10708400000440EA1940D86042F20C03AF1CE358F4
:10709400984707EA0A0704EB870705EA0A0303335C
:1070A400F86014F8232069F3C50204F8232034F8A7
:1070B400232066F3891224F8232054F8232068F34C
:1070C4009F2244F8232002F0F80242F0010204F85F
:1070D400232042F22003E35C1BB1FFF767FE002884
:1070E400FBD103B0BDE8F08F0AEA020204EB82028E
:1070F40057F82630D3600136B3E700BFA03700202D
:10710400BC57002000231A46FFF798BF07B5012398
:10711400019201AAFFF792FF03B05DF804FB07B5E3
:10712400CDE9002302236A46FFF788FF03B05DF828
:1071340004FB1FB5CDE90123069B039301AA032396
:10714400FFF77CFF05B05DF804FB00002DE9F84370
:107154001C4A42F210030746D358884600241946B5
:1071640091B9F9680C71ABB942F2100017500B6079
:10717400154B164DED1AED08002603F10709AE4232
:107184000DD12046BDE8F883C9680879A04212D021
:107194000968E5E7DB681A680A601F60E8E719F820
:1071A4003620FB684245314628BF42461879FFF72E
:1071B4007BFC0136E3E701340A2CD0D14FF0FF34D5
:1071C400DFE700BFA03700209CFE020054FF02004E
:1071D40038B50A4A42F2100342F22001D45801237E
:1071E40053541D4604B938BDE3685D7123682046D5
:1071F4005B689847E3681C68F4E700BFA037002089
:10720400037A052B10B50C460FD0437A23B1084AF4
:107214000849204603F047F80749204603F043F89D
:107224002046BDE8104003F033B8002AF8D0F3E755
:10723400D3060300FF0B03005E080300F0B5C38808
:1072440085B004460D4633B1284A00922849294A9C
:10725400284603F028F8217A052945D0637A4BB1F2
:10726400A088FFF70BFC244B244953F82020284620
:1072740003F019F8224A23681168B3FBF1F1214B9A
:107284001F68B1FBF7F34FF461664FF47A70B3FBF8
:10729400F6F206FB123607FB13134FF03C0C00FB0F
:1072A40003F1B6FBFCF3B1FBF7FE0CFB136607FB23
:1072B4001E11009641432846B1FBF7F1CDE901E1E7
:1072C400114902F0F0FF227A104BA08853F8226093
:1072D4000021FFF7B1FB0E4903463246284605B0AC
:1072E400BDE8F04002F0DFBF05B0F0BDD3060300F7
:1072F400E0060300D8060300A0060300FF0B03000A
:10730400605800205C580020F806030020070300A2
:10731400140703002DE9F04385B01F460C9D00239C
:1073240006460C46904695F80C902B732946384631
:10733400FFF784FFB8F1060F09D8DFE808F004125C
:10734400181F283340003146284602F0ACFF0022C3
:1073540029463846FFF754FF85F80C9005B0BDE880
:10736400F08322683146284602F09DFFEFE7D4E916
:1073740000233146284602F096FFE8E7A36800930D
:107384003146D4E90023284602F08DFFDFE7E368A5
:107394000193A36800933146D4E90023284602F000
:1073A40082FFD4E723690293E3680193A3680093FF
:1073B4003146D4E90023284602F075FFC7E7636924
:1073C400039323690293E3680193A368009331460E
:1073D400D4E90023284602F066FFB8E708292DE91E
:1073E400F84F80460E4617461C463AD8002593F8B7
:1073F4000C901D7319461046FFF720FFDFF884A098
:10740400DFF884B0AE422ED918F80520594620463C
:1074140002F049FF0135082DF4D11849DFF86CB0AA
:10742400204602F040FF4FF0000A564520D918F8D4
:107434000A507E2D03D8284608F08CF900B92E2571
:107444002A465946204602F02EFF0AF1010ABAF1F3
:10745400080FEAD1012221463846FFF7D1FE84F80D
:107464000C90BDE8F88F5146204602F01CFFD1E78E
:107474000349204602F017FFE7E700BFCE060300EA
:10748400CC060300CA060300C4060300D0060300AA
:10749400084A10B50123084C13600021A04204D807
:1074A40001B11360054B186010BD40085B00012159
:1074B400F4E700BF6058002040420F005C580020F1
:1074C4002DE9F04F394E87B04FF00009384B1B7847
:1074D4005FFA89F5AB4202D807B0BDE8F08F354BAF
:1074E400D3F800A01AF835000124D6E9001EA0F153
:1074F4002002C0F1200304FA02F224FA03F3134336
:1075040004FA00FC009301EA0C030293009B0EEAC8
:1075140003030393DDE9022313430AEBC50B41D0B4
:10752400009B21EA0C012EEA0303C6E9001304F0D0
:1075340019F81AF835502049A5F12002C5F12003A5
:1075440004FA02F224FA03F31343D1E900C2AC4073
:10755400134004EA0C0105930024C3B2CDE90034BE
:10756400009A0491C5F12003A5F1200122FA03F346
:1075740002FA01F848EA03081346AB401F46DDE966
:107584000434444508BFBB420CD1DBF804304BB192
:107594009BF801104A1E51425141081A414241418F
:1075A4002846984709F1010990E700BF9858002040
:1075B40064580020A0580020905800202DE9F04184
:1075C4008046204800F0B6FBD0BB0125A8F120047A
:1075D400C8F1200325FA03F305FA04F41C431A4BFB
:1075E400D3E9001205FA08F501EA050602EA0407E0
:1075F40056EA07001E461DD1404603F0B3FF134B65
:10760400D3E9001288B129432243C3E90012D6E921
:1076140000231C430E4B0B4819681543C6E900545C
:107624000022BDE8F04100F03FBB21EA050122EA57
:107634000402EAE721EA050522EA0404C3E9005446
:10764400BDE8F0816C580020985800209058002024
:1076540068580020042A2DE9F34105460C461646D5
:107664003AD903F08DFED8B11C4B1D491D601D4B4A
:10767400DFF884801C701C4B00221E600023C1E9CB
:1076840000231A49C1E90023013CE4B20026032780
:10769400FF2C0CD1164A1748002100F0F3FA03E03E
:1076A40003F036FE0028DFD002B0BDE8F08123B23B
:1076B40005EBC30201A992788DF8052015F8330073
:1076C4008DF8066042468DF8047003F063FE013CB9
:1076D400E4B20028DCD0E7E70720E5E7A058002063
:1076E40090580020645800206858002098580020C2
:1076F400C57402006C070300C175020070B5084D23
:10770400084E00242B789C4201D3002070BD3368BE
:10771400012113F8340003F0B9FE0134F2E700BF8D
:1077240064580020A058002070B5094D094E00246B
:107734002B789C4204D30848BDE8704000F0FABAA4
:10774400336813F8340003F0EBFE0134F0E700BFB4
:1077540064580020A05800206C5800201FB5002158
:10776400039001AA44F20100CDE9011100F004F8EC
:1077740005B05DF804FB000010B572B6FFF728FDF4
:10778400FFF714FB0028FBD1154C62884AB1154859
:10779400154B1649C01AC008000440F00100FFF759
:1077A400B1FC134B1B68DB0700D500BE6388012BBB
:1077B40009D90C480C4B0F49C01AC008000440F00A
:1077C4000200FFF79FFCBFF34F8F0B490B4BCA68B6
:1077D40002F4E0621343CB60BFF34F8F00BFFDE7B9
:1077E40064320020DCFE02009CFE020070070300ED
:1077F400F0ED00E07C07030000ED00E00400FA0572
:10780400094A537891780133DBB2994208BF0023C7
:10781400117899421FBF03705078182303FB00208E
:1078240014BF043000207047A458002073B50546E7
:1078340000240DF107000E468DF8074000F090FA81
:107844000DF10600FFF7DCFF90B10670094B9DF8BF
:10785400062045605A709DF8070000F0A5FA24B987
:10786400054B4FF48012C3F80021204602B070BDCE
:107874000424F0E7A458002000E100E0024B4FF498
:107884003C6043F0010318479007030038B50C4BE4
:107894000C4C4FF40032C3F8802001254FF48033A0
:1078A400C4F84833C4F808336560FFF7E7FF064BB4
:1078B400A56000241C60FFF7E1FF044B1C7038BD79
:1078C40000E100E000100140C0590020B15900203F
:1078D400F8B51F4B1F491B680025C1F84051C1F87A
:1078E4004451C1F84851C1F84C51C1F80051C1F894
:1078F40004514BB3D1F8044517490968641A24F0BC
:107904007F442F461A68A24209D8A41A15441A7C47
:10791400DE691AB11F74D3E905209047AEB90F4A46
:107924000F4B11781B788B4205D10133DBB2022B4C
:1079340008BF0023137012780A4B43F822500A4BF5
:107944004FF48012C3F80021F8BD3346DAE700BFD4
:10795400C459002000100140C0590020BD59002026
:10796400BC590020B459002000E100E02DE9F04F9B
:10797400A14AA24913780978A14D994285B03CD017
:107984000133DBB2022B08BF002313709D49127828
:107994009D4B0F6853F822003B1823F07F430022CD
:1079A4000B602B6816461446944613B942B12B60FB
:1079B40006E0196881420ED902B12B60091A1960D8
:1079C40001272B68DFF848A201934FF00008BEB9E5
:1079D400DFF844B266E0401A0C44D968C3F800C02A
:1079E400D3F81CE031B13A1922F07F42C3E90121F6
:1079F400DE611E4601227346D7E700263746E0E7DC
:107A04003446F6697F4A63681268DFF810C2A068DA
:107A1400991A21F07F41614500F2A680014421605A
:107A2400012222742A680023C4E90133E361002A95
:107A340040F0A3802C60CAE75A1C9BF80210D2B213
:107A440091428BF8002004BF00228BF800201822FA
:107A540002FB03B31A799C68022A1CD0032A12D0B1
:107A6400012A1FD1207CE8B9D3E90312A2605A6924
:107A7400E2609A69654BA2611B78002B0CBF0B4630
:107A840003466360BEE700222B681146002B67D1D2
:107A940042B12B6006E029680A468946002A5AD179
:107AA400002323749BF800309BF801209A42C3D131
:107AB4002B68B8F1000F04D1019A9A4201D1002F2A
:107AC40043D0002B73D0D3F800A0514D4D4BD5F8C3
:107AD40004751C68DFF848813E1B98F8003026F0D6
:107AE4007F4603369BB94FF48033C5F84433C5F859
:107AF4000433484B4FF400324FF00109C3F880219E
:107B04001A60C5F80090FFF7B9FE88F80090B245F6
:107B14002CBF5444A41924F07F44C5F84045D5F83B
:107B24000435DB1B23F07F43E41B033324F07F4441
:107B3400A3420AD9D5F80435C5F84035FFF79EFEAF
:107B4400344B4FF40032C3F80021304B00221A703A
:107B540005B0BDE8F08F94422CD09146D2699DE7E0
:107B640019740122DB6991E7D31A23F07F4383421E
:107B740034BFC31A0023236052E721681368994273
:107B840013D8591A1160E26154E7091AD8691A46E0
:107B940038B1034618688842F7D3401A186018466B
:107BA40013462160E061DC6111E71346F2E7FFF759
:107BB4006DFECAE74C4511D1CB692B6073B9DFF870
:107BC40044E00120CDE90212CAF80800CEF80030E2
:107BD4000E4B1870FFF752FEDDE902121368D269EA
:107BE400C9F81C2012B11068034413602B68994231
:107BF40018BF4FF0010853E7BC590020BD590020BD
:107C0400C4590020C0590020B4590020B0590020A4
:107C14000010014000E100E0A4580020FEFF7F00B6
:107C2400B159002008B5FFF731FE104B00200B229C
:107C340018809A700E4B18600E4B18700E4B18700B
:107C44000E4B4FF48012C021C3F8802183F8141323
:107C54001A6002F18042A2F56F22C2F8080583F887
:107C64001113074BD2F804251A6008BDA45800204C
:107C7400C4590020BC590020BD59002000E100E097
:107C8400C0590020074B9B784BB132B128B103682F
:107C9400187C20B959745A6170470720704708202E
:107CA400704700BFA45800202DE9F7431E4FBB784E
:107CB40005460E469046A3B398B304292FD94369C9
:107CC4007BB3437C0024012B0DF107000CBF8946D4
:107CD400A1468DF8074000F043F80DF10600FFF7C8
:107CE4008FFDD0B101230370104B4560D3F80435E8
:107CF400C0E90498C0E902369DF806307B709DF80F
:107D0400070000F051F824B9094B4FF48012C3F86E
:107D14000021204603B0BDE8F0830424EFE70724E4
:107D2400F7E70824F5E700BFA4580020001001403D
:107D340000E100E0064A92783AB130B1426922B1DA
:107D4400002202740221FFF771BD0820704700BFB2
:107D5400A4580020014BD3F80405704700100140DB
:107D640070B5EFF3108672B60C4A946801239CB97F
:107D740093600B4B0B4DD3F8801029401160C3F86E
:107D84008050D3F8841051604FF0FF32C3F8842040
:107D9400047006B962B670BD0370FAE7C8590020D2
:107DA40000E100E0FC06FFBD084B9A6810B55AB12B
:107DB40050B9EFF3108172B6054A1C6814605C6810
:107DC4005460986001B962B610BD00BFC859002064
:107DD40000E100E050E8002F0B4640E8003C9CF036
:107DE400000FF7D11046704750E8002F42EA010314
:107DF40040E8003C9CF0000FF6D11046704750E874
:107E0400003F43EA010240E8002C9CF0000FF6D149
:107E14001046704750E8002F02EA010340E8003C96
:107E24009CF0000FF6D11046704750E8003F03EA7B
:107E3400010240E8002C9CF0000FF6D11046704778
:107E440050E8003F03EB010240E8002C9CF0000FD7
:107E5400F6D11046704750E8003FA3EB010240E81A
:107E6400002C9CF0000FF6D1104670470121FFF75B
:107E7400BBBF0121FFF7C3BF0021FFF7CBBF002128
:107E8400FFF7D3BF2DE9F0478368D3F84841C4F323
:107E9400400488B0074634B10022114608B0BDE85A
:107EA400F04701F01DBD012906D91E4A022108B080
:107EB400BDE8F04700F0B8BC1B4D1C4EDFF870A0C5
:107EC4004FF06408A146761B1C23B6FBF3F6A642CA
:107ED40005F11C0502D108B0BDE8F08755F81C0C6B
:107EE40055E90623017900689A1A1B1ADBB2039339
:107EF40008FB03F3B3FBF2F3CDE9019335F8043C3B
:107F04000093CDE9061255F8083C11FB08F13846F8
:107F1400B1FBF2F1CDE904215246082100F084FCC2
:107F24000134D4E7C007030054FF0200A8FF020095
:107F3400D307030010B590B1D0E9012301689B1A5F
:107F4400DBB20A60013BDBB2FF2B026802D10020E6
:107F5400107110BD11684C1C14600B70F2E70E20F8
:107F6400F7E737B5054600240DF107008DF8074003
:107F7400FFF7F6FE2A686B68116899420ED9481E0D
:107F8400106011F8014CEB68298B01FB0434AB68D9
:107F940011791B1ADBB2994238BF13719DF807009F
:107FA400FFF702FF204603B030BD37B50546002376
:107FB4000DF107000C468DF80730FFF7D1FE2A6853
:107FC4001368591C1160E968641A298BB4FBF1F435
:107FD4001C709DF80700FFF7E7FE03B030BD30B119
:107FE4008A68B2F8483143F02003A2F84831704758
:107FF400436810B59C686068036801219B689847D2
:10800400A36810B903221A7010BD0422FBE70968A3
:10801400006807F08ABE08B107F0AEBE704738B5F5
:10802400836805460068DC7FFFF7F5FFAB685A7E7E
:108034002044B0FBF2F302FB1300B0FA80F04009D5
:1080440038BD10B584680068FFF7E5FFE37F627E02
:10805400A076C0B20344B3FBF2F102FB1133013347
:108064002375A37F01311844A175B0FBF2F3591CA9
:1080740002FB13030133E175637504F1140010BDB1
:1080840038B58368054600689C7FFFF7C4FFAB687A
:108094005A7E2044B0FBF2F302FB1300B0FA80F0E6
:1080A400400938BD2DE9F843089C1E460F46E1B946
:1080B400184D194C641BE408944204D9174800EB8A
:1080C4008208BC4201D100230AE06B68D8F80000A2
:1080D400196807F02AFEA946083520B9D9F80430F2
:1080E4003360BDE8F8830137EBE70028EBD0017873
:1080F400436839B12146104698472368002BE2D0E3
:108104003460EEE7120199189B58002BDBD03160E4
:10811400E7E700BF1CFE020064FE020020320020DC
:1081240030B50368D3F8405185B00446EDB100235F
:10813400092201A9284602F013FB2368029AC3F816
:1081440040210021092201A807F09AFD00230922F9
:1081540001A9284602F0FAFA284602F09FFA236899
:10816400D3F8400118B9C3F83C0105B030BD01A9EA
:108174000023092202F0F4FA20680023092201A94D
:10818400D0F84001019302F0E1FAEEE707B5836805
:10819400B9B1DA7E8A4211D00B4A009233228DF8AB
:1081A400042001F12F028DF805206D22ADF8062080
:1081B400D9766A460549006902F075F803B05DF89E
:1081C40004FBD976024AF5E71B5B313BFF0B030046
:1081D400FA080300836807B51A7F8A4213D045F66C
:1081E4001B32ADF8002034228DF8022001F12F0259
:1081F4008DF803206D22ADF8042019776A460349EF
:10820400006902F050F803B05DF804FBFF0B0300B3
:10821400014902F048B800BF150C03000A46006883
:10822400014902F040B800BF2409030009B1FFF777
:10823400F5BF7047014A024902F035B8F00803005F
:10824400FF0B03002DE9F047002506460F461446B0
:108254000560207840B107F078FA60B1002304F893
:10826400013B33680B2BF4D93368002247F82320F1
:108274002846BDE8F08733685A1C326047F823402B
:10828400054694F80080B8F1000FEAD0002D40F0C4
:108294008280B8F1270F06D0B8F15C0F00F083801C
:1082A400B8F1220F6FD12046FFF7B5FE611C0246DC
:1082B400204607F00AFB4546E3E72046FFF7ABFEFE
:1082C400611C0246204607F000FB0025D9E7302850
:1082D40025D102234FF00008E05CA0F13001C9B2BF
:1082E40007295FFA83F917D8013341EAC801052B3E
:1082F4005FFA81F8F0D199462046FFF78CFE09F128
:10830400FF3AA244821CA2EB09025146204607F020
:10831400DCFA04F8018BB4E7B9F1020FECD1782848
:1083240037D102214FF00008635CA3F13002D2B2CE
:10833400092AC8B214D842EA081303295FFA83F859
:108344000CD14FF0040A2046FFF765FE0AF1FF390D
:10835400A144821CA2EB0A024946D7E70321E3E7C2
:10836400A3F16102052A03D8573B43EA0813E4E763
:10837400A3F14102052A01D8373BF6E7022808D0C9
:108384004FF0030ADFE7404607F0DFF900287FF4E7
:1083940068AF013475E7A8458FD0B8F15C0FF8D108
:1083A4006078854293D12046FFF735FE04F1010839
:1083B40002464146204607F088FA444661E72DE923
:1083C400F34106460F461446002514B902B0BDE831
:1083D400F081706803682246D3F80C80791901ABE8
:1083E400C047019B1D44E41A002BEED1B3681A78F0
:1083F400032AEAD0D3F848219206FBD5B3F84821E2
:108404006FF34512A3F84821DFE72DE9F04F054645
:1084140085B090460F46002971D00024385D07F0DE
:1084240094F940BB5FFA88FB05F1100A3846FFF760
:10843400F2FDAB685B7E001BA3EB0803984207EBDD
:1084440004091AD94A46002612F8010B0293019234
:10845400039207F07AF9DDE9012320B112F8013C17
:108464000A2B35D03346A968487E08EB06018842BA
:108474002DD90136E8E70134D0E74B460026B04257
:1084840019D013F8012B0A2A04EB060A1DD1286916
:1084940001F0FEFE32462E4649462846FFF78FFF7E
:1084A40056F8100FFFF7B4FE5FFA88F130460AF170
:1084B4000104FFF7BBFE2869391901F0F4FE2869AD
:1084C40005B0BDE8F04FFFF7A3BE0136D7E71E465F
:1084D400286901F0DDFE324649462846FFF76FFF62
:1084E4003444385D07F031F938B92869FFF790FE54
:1084F40059465046FFF79AFE98E70134F1E705B074
:10850400BDE8F08F0A4619B10249006801F0CBBEFC
:10851400704700BF2A0903000A4619B102490068DE
:1085240001F0C1BE704700BF1E09030070B50546C7
:10853400FFF787FD83790278817801339A420446F4
:1085440001D1012915D0012905F1100604D90139F9
:10855400C9B23046FFF7D6FF2378A1798B4209D9F7
:10856400013B591AC9B23046FFF7D6FFAB68002267
:10857400DA7770BD0131C91AC9B23046FFF756FE29
:10858400F4E7F8B50546FFF75CFD04468778C6783E
:108594002846FFF744FD78B12869FFF739FEB74252
:1085A40005F110050ED161782378C91A2846C9B29D
:1085B400BDE8F840FFF7B0BF2846FFF761FD00288B
:1085C400EAD1ECE7A378E178C91AC9B22846FFF7E3
:1085D40099FF237861788B42E7D9591A2846C9B2A2
:1085E400BDE8F840FFF722BE2DE9F3410646806856
:1085F400414F002480222146A0308DF8034007F02B
:108604003FFB3E49306901F04EFE306901F040FE07
:108614004FF47A7547F00107706803680122D3F8B4
:1086240010800DF1030101ABC047019B5BB94FF60C
:10863400C010B847019B002BEED1013DADB2002D17
:10864400EAD10D2033E09DF80330B1681B2B46D0EE
:1086540091F8A0201B2AEDD1522B40D10C440023C9
:1086640084F8A03091F8A1205B2A1DD101F1A20069
:10867400022510F8012B0135EDB23B2A6CB219D159
:10868400002C1FDB05F1A0040C44002214F8010B9C
:10869400D0B9FA2A28BFFA22FA2B28BFFA230A757E
:1086A4008B7581F8A00002E081F8A0300B2002B0A5
:1086B400BDE8F08103EB830302EB4303303B802DE1
:1086C4009BB2D6D10C20F2E702EB820200EB42000F
:1086D40001353038EDB282B22806F3D4D6E70A1950
:1086E4000134E4B2092C82F8A030A3D9002381F824
:1086F400A0300420DBE700BF300903000F090300AA
:1087040038B50546FFF79DFC027843789A42044643
:108714008378C27801D1934214D09A4205D9D21AEF
:10872400D2B20B49286901F0BEFD237861788B42EF
:1087340005F1100007D9591AC9B2FFF7EDFEAB686D
:108744009A7FDA7738BDC91AC9B2FFF76FFDF6E729
:1087540018090300F8B51E46C3685B6805469860AF
:108764004068036817461C68294A2B46A0470446FC
:10877400002844D1686901F08FFF044600283ED1E7
:10878400A8684FF4A6722146C0E94F4407F078FA6E
:10879400AB682048B3F8482142F02002A3F84821EE
:1087A400B3F8482167F38202A3F84821B3F84821BB
:1087B40042F00802A3F8482101221A7045F2180277
:1087C4001A83154A154B9B1A4FEAD30C21460432DF
:1087D400614516D1072B04D9114B0E48042207F02A
:1087E40091F866B19DF81810E868FEF7AFFC002810
:1087F400A1BFEB68DB6801225A71B8BF042420468C
:10880400F8BD52F831703F6840F8047B0131DFE76E
:10881400E37F0200203200201CFE020064FE0200FE
:1088240013800200FFF7CBBD0CB473B506AB0E4644
:1088340053F8045B81680193D1F848315B0704461F
:1088440020D5CB7EB3421DD002221B31684607F0EF
:10885400EEF931462046FFF799FC01AA2946206922
:1088640001F09EFD9DF800102046FFF78FFC9DF857
:10887400011011B12046FFF7ADFC02B0BDE8704015
:1088840002B0704701AA2946206901F089FDF4E786
:10889400F8B504468068857FAB187F2B0F461646D3
:1088A4003ADC002A38D0C37FED1A03F120011344C7
:1088B4002033EDB201446A1C184407F006F8A0689E
:1088C400C37F203332463946184406F0FEFFA068C1
:1088D4002030FFF7A0FBA268D37F907720331344A6
:1088E40020460E4A0821FFF79FFFA368DA7F32442F
:1088F400DA772046FFF793FB40B12069FFF788FC45
:1089040055B12046BDE8F840FFF73BBE2046FFF7CF
:10891400B7FB0028F1D1F3E7F8BD00BFFF0B03005C
:108924002DE9F04104468068D0F84831827FC3F3D2
:108934000008C37F5FFA88F7D51A0E46EDB2002F00
:108944003ED17E2A40D83DB103F1200121330144B8
:108954002A46184406F0B9FFA368DA7F1A4482F85D
:108964002060002F72D19A7F0132D2B29A771344D9
:1089740083F82080002D72D02046FFF762FB8278B6
:10898400C3789A4204F1100620D1A268D37F203321
:10899400134408212046354AFFF746FFE91BC9B2B4
:1089A4003046FFF7B9FDA268D37F0133D377204661
:1089B400FFF735FB10B32069BDE8F041FFF728BC91
:1089C4007E2AC9D9002DC7D1BDE8F0812069284A83
:1089D400264901F068FCA268D37F20331344204663
:1089E400224A0821FFF720FF2069224A1F4901F08B
:1089F4005AFC01213046FFF711FCD4E72046FFF76B
:108A04003FFB0028E0D02046FFF71BFBC2788378A9
:108A1400013AD21A12F0FF02054604F1100603D0FF
:108A24001549206901F03FFC2069FFF7F1FBE97863
:108A3400AB78C91A3046C9B2FFF764FD2978013909
:108A44003046C9B2BDE8F041FFF7F0BB002D93D129
:108A54009A7F0132D2B29A77134483F82050324677
:108A64000649206901F01FFC9DE700BFFF0B0300CE
:108A7400F4080300F708030018090300D0060300F4
:108A8400F0B5826885B000250446CDE901558DF81E
:108A94000C50D2F844610F46002941D1002E3AD03F
:108AA400FFF744FDA0683B46D0F84401092201A920
:108AB40001F056FEA068029BC0F84431857F002B6C
:108AC4004CD1A030FFF7A7FAA36830B303F1A0019B
:108AD40003F1200007F007F9A0682030FFF79BFAA4
:108AE4008DF80C009DF80C30A268AB42D3779377D5
:108AF40002D22069FFF79EFBA3682D4A204620334B
:108B04000821FFF791FE2046FFF789FA002848D094
:108B14002069FFF77DFB05B0F0BD83F82000DBE79B
:108B2400D2F84031B342F6D0D2F83C31002BF2D027
:108B3400FFF7FCFCA368D3F8440130BB03F1200029
:108B4400FFF769FAC5B2A068D0F83C31C0F84431E7
:108B5400C5B100F12001A03007F0C5F8A06801A953
:108B640000230922D0F8440101F0FAFDA0689DF821
:108B74000C2000F1200109230132D0F8440101F056
:108B8400EFFDAFE780F8A050E8E72B46092201A9E2
:108B940001F0E6FDA368019A9DF80C50C3F8442146
:108BA400DCE72046FFF76CFA0028B1D1B3E700BF39
:108BB400FF0B030038B504468068C37F857FED1A38
:108BC40015F0FF0540D003F12101203301442A466A
:108BD400184406F07AFEA268937F013B93772046FF
:108BE400FFF72FFA8278C3789A4215D1A268D37F0F
:108BF400203313442046154A0821FFF715FE54F884
:108C0400100F1249124A01F04EFB691E2046C9B2E8
:108C1400BDE83840FFF780BC0E4A0C49206901F0DA
:108C240042FB2069FFF706FBA268D37F203313447D
:108C34002046064A0821FFF7F7FD2069064A034942
:108C4400BDE8384001F02FBB38BD00BFFF0B030067
:108C5400FE080300F4080300F70803002DE9F041BF
:108C6400C3685B6890B004460D46002203A91868E7
:108C740001F0ADFE002840F08B808DB1039801F027
:108C840056FDA268D2F838310133C2F8383103F006
:108C94000703012B04D00125284610B0BDE8F0815C
:108CA4002046FFF7CEF981780129064605D9013916
:108CB400C9B204F11000FFF725FC3178012905D968
:108CC4000139C9B204F11000FFF726FC2069FFF74F
:108CD400B1FA2DB12F4A02212046FFF7A5FDDBE7AB
:108CE40000230C2204A9039801F03AFD069B079384
:108CF400059B08939DF810308DF8255003F003026E
:108D0400012A25D1BDF81060049F0398C3F3C20360
:108D1400C6F383168DF82430B2000C230AA901F09F
:108D24001FFDC7F3952723690093324607AB0AA9B1
:108D34003846FEF7EFFA039801F0F9FCE3685B6844
:108D4400002203A9186801F042FE0028C8D0A2E757
:108D5400022AF0D1BDF81260C3F3C203B6098DF83C
:108D640024304FF00C08082E374628BF0827434606
:108D74003A460AA9039801F0F3FCF61B236907AAF3
:108D840039460AA8B844FEF729FB002EEBD1D2E7F6
:108D9400002581E7BC08030013B5436801A900223C
:108DA40018689C6801F013FE014610B92046FFF7CD
:108DB40055FF02B010BDF7B547680191BC68A368C0
:108DC4001E78042E0ED001A9386801F02AFD05464C
:108DD40050B9019801F0A7FC032E03D1294620467F
:108DE400FFF73CFF03B0F0BDF11E18BF0121204680
:108DF400FFF734FFE7E700002DE9F04F04468068F1
:108E0400A5B0102100F5A470FEF7F9FFA3681B7844
:108E1400022B40F0938000230B93606803680122C7
:108E24001D690DF12B010BABA8470B9B002B6CD0DC
:108E34009DF92B30002BF0DB01F0DAFCA0684378BD
:108E44000593022B00F20685DFE813F003004404C7
:108E54004B049DF82B500D2D31D00A2D2FD0B0F896
:108E640048316FF38D13A0F84831092D00F0FD81CE
:108E740000F2EA81002DD0D0082D00F0D1832846DD
:108E840006F068FC0028C8D0A3689DF82B10D3F81E
:108E94004851C5F3C00515F0FF0F40F01683987FC5
:108EA4007E28BAD8DE7F721CD2B2DA771E441A4406
:108EB400013086F8201082F820509877ADE7D0F87A
:108EC400483113F47F5F05D0D0F84831C3F38713DA
:108ED4009D42CAD1B0F8483165F38D13A0F84831EA
:108EE400837F002B37D1C0F844312069FFF790F914
:108EF400A36802221A700022DA8383F820202368F0
:108F0400B14A03212046FFF78FFC00212046FFF7DA
:108F1400A5FE98B12368AC4A03212046FFF784FCE0
:108F2400A368D3F84821120708D520462033A64A5F
:108F34000821FFF779FC2046FFF723FB206901F0A5
:108F4400A7F9A0686FF0100100F5A470FEF76DFF9B
:108F540025B0BDE8F08F90F82030002B5CD1A068DC
:108F64002030FFF758F8A3680026C5B2C3F844615F
:108F740015B3D3F83C01002800F08F803346092252
:108F840017A901F0EDFB9DF864309D4240F0858007
:108F9400A068092300F1A0016A1CD0F83C0101F08B
:108FA400DFFBA06800F1A001203006F0BEFEA3683C
:108FB400002870D183F8A0002046FFF7A1FB2046CB
:108FC400FFF72DF810B92069FFF722F9A26817A955
:108FD40020320EA8FFF736F90E9A0346002A84D0F1
:108FE400002840F0A080794F794EF61BF60805461C
:108FF400AE42179B40F09D80764A00920221764A49
:109004002046FFF711FC73E70135B5F5807F04D1E5
:10901400002283F82020A2E70025A3682B44EEB2A7
:1090240093F8200006F091FBA3680028ECD16EB100
:109034009A7F03F120000132521B411906F045FCCE
:10904400A268937F9B1BDBB29377D377A568AB7F32
:109054001F331D445FFA85F8A946EFB2A8EB070653
:1090640099F80000F6B2013D06F06FFB0028F3D139
:10907400A268937F03F11F01114489453FF46FAF48
:109084009E1BA7EB080716443B44DBB286F820007E
:109094009377D37763E783F8A060082705F10A067E
:1090A40004EB07083146606901F00EFB0546002811
:1090B40033D0A368D3F83C01A8B9C3E94F55CDE92F
:1090C40017009B7F8DF8643017A9284600230922D6
:1090D40001F03CFBA1688A7F092301322031284634
:1090E40001F034FB68E70023092217A901F038FBDB
:1090F400A06818950023092217A9D0F83C0101F0B3
:1091040025FB00231893A368D3F83C2117929A7F78
:109114008DF86420C3F83C51D6E74046FFF700F8C9
:10912400013FBFD148E72D4A02212046FFF77CFBCF
:10913400DEE67A681846116806F0F7FDB846083787
:1091440018B10135AE42BFF453AFA068002110221C
:1091540004300F9106F094FDD8F80450EB682BB15D
:1091640095E80F00A668043686E80F00D5F808B025
:10917400DFF86C90DFF86CA017AF00264FF0010801
:1091840000250E9B43450BD94946786806F0CDFD72
:1091940050BBA268B2F8483143F00203A2F8483148
:1091A400A3681B69002B49D00E9917AA02EB86020B
:1091B400891B20469847A368B3F848216FF34102FE
:1091C400A3F8482194E600BFFF0B03001CFE020035
:1091D40064FE0200900B0300D20A03007C0B030020
:1091E400A40B0300A70B03005146786806F09DFD0D
:1091F4000028CED013AB00932A460FAB4146584605
:10920400FEF750FF6A1CCBD00F9B002BC8D0196807
:10921400786806F08AFD01350028B2D10F9DEB680D
:1092240033B195E80F00A668043686E80F00464679
:1092340008F10108D5F808B00437A1E7A54A0221CE
:109244002046FFF7F1FAB6E71B2D0BD07F2D7FF4F4
:1092540016AED0F8483118077FF5DFAD2046FFF78A
:10926400A9FCDAE501234370D7E5D0F848311B07A0
:109274007FF5D3AD837FC3F17F0313F0FF03039323
:109284003FF4CBAD00F12001C27FA03006F0CFFC4B
:10929400A368DA7F1344002583F8A050D87F06F032
:1092A40054FAA2680690431B18BF0123C2F8445124
:1092B40017A9A0320CA80793FEF7C4FF1798FEF76E
:1092C400AAFE059B0493CDE90D55C7B21E4602952F
:1092D400AB46A9460C9B23B1079A013B1344B34206
:1092E4007CD8069B002B38D124AB03EB860353F8C0
:1092F400340CFEF790FEC7B224AB03EB86034FF0A9
:10930400000A09930AF1010308930FAB0093524634
:109314000DAB31462846FEF7C5FE0D9B002B00F031
:10932400C1801968099B3A4653F8340C06F00AFCCC
:109334008046A8B9029B013302930D9B18680E9BCB
:109344008BB9FEF768FE039AC3B20493DB1B9A42FF
:1093540001DDDBB20393D34631E0059FCCE7D14670
:10936400DDF820A0CEE7FEF756FE049BC0B2834290
:1093740038BF03460493039B0BB313AB00932846F7
:109384000EAB4A463146FEF78DFE0D9B18680E9BC8
:10939400D3F800C007EB08025FFA88F1835C2BB9AD
:1093A400039B8B4228BF0B46039308E01CF8022062
:1093B4009A42F5D108F10108B8F5807FEAD10D9BF6
:1093C4000E93089B002BCAD1434A04212046FFF781
:1093D4002BFA002D6AD14FF0FF3965E024AB4FF032
:1093E400000803EB860A0FAB009342460DAB3146EF
:1093F4002846FEF757FEB8F1FF3F05D1364A04214F
:109404002046FFF711FA08E50D9B002B3FF405AD4C
:1094140019685AF8340C06F088FC08F10108002891
:10942400E1D10D9B9D68002D45D1029B002B3FF49B
:10943400F4AC012B6FD12B783BB10FAB00934A46B0
:109444000EAB31462846FEF72DFE0E9B1868FEF73C
:10945400E2FDB84206D00E9B039A196820463944AF
:10946400FFF716FAA368DA7F134493F8200006F096
:109474006CF9A368002831D1D3F84821D70723D544
:10948400B3F8482160F30002A3F8482120212046C4
:10949400FFF746FAA268B2F8483143F00103A2F894
:1094A4004831BAE4002DC0D10025BEE70D9B4FF032
:1094B400FF39002BB9D00C9B079A0136F6B213443E
:1094C4009E42FFF407AFB0E720212046FFF728FAB9
:1094D400A3E400BFAE0B0300CC0B0300DA7F9B7F39
:1094E4009A42BFF49AAC2046FEF7ABFDA268857899
:1094F400D37F0133D3772046FEF7A3FD8378AB42B5
:1095040005D1012104F11000FEF788FE85E42069ED
:10951400FEF77EFE81E4A368DFF8649300225A77A5
:1095240024AB03EB860306930BF1010305930FAB06
:1095340000935A460DAB31462846FEF7B3FD0D9B0A
:109544001968069B3A4653F8340C06F0FBFA70B9D6
:10955400029B013B02930D9BD3F800B0BBF1000FBB
:1095640008D1A36883F81DB0029B002B3FD0DDF81F
:1095740014B0D9E74846FEF74EFD049BA268184490
:10958400C3B2484692F819800893FEF744FD079049
:109594005846FEF740FD089B079A181A5FFA80FAAE
:1095A400A068417FA8EB0208B8FBF3F3DBB2B1FB80
:1095B400F3F203FB121301F1010C13F0FF0F80F817
:1095C4001DC00DD1CDF800B04B46A34A072120465B
:1095D400FFF72AF9514604F11000FEF727FEC3E70E
:1095E4005B469E4A07212046FFF71EF9F2E72368EF
:1095F4009B4A20460321FFF717F9A368974A2033B3
:1096040008212046FFF710F92046FEF7BAFF0E9B0B
:10961400039A196820463944FFF73AF9FFF7FDBB6E
:10962400D0F848311E077FF5F8AB867F002E3FF453
:10963400F4ABC37F002B3FF4F0ABF61A03F1200127
:10964400F6B21F33721C0144184406F03EF9A368B5
:10965400DA7F013ADA779A7F013A9A77002E37D087
:109664002A468049206900F01EFE2046FEF7E9FCE8
:109674008278C3789A4213D1A268D37F29462033D3
:10968400254613442046754AFFF7CEF855F8100FC7
:10969400FEF7D0FD31462846FEF73EFFFFF7BDBB7F
:1096A400714A6E49206900F0FEFD2069FEF7C2FD93
:1096B400A268D37F203313442946684A2046FFF723
:1096C400B3F86A4A6549206900F0EDFDFFF7A5BBD0
:1096D400674AF7E79DF82B305B2B40F0BB800223F1
:1096E400C1E500234370D0F8483119077FF50DAC6C
:1096F4009DF82B30313B1B2B3FF68FAB01A252F868
:1097040023F000BF2598020033980200539802000A
:10971400179802001F8E02001F8E02001F8E020087
:109724001F8E02001F8E02001F8E02001F8E020079
:109734001F8E02001F8E02001F8E02001F8E020069
:109744001F8E020079970200859702008997020014
:10975400D59702001F8E02001B9802001F8E020084
:10976400299802001F8E02001F8E02001F8E020025
:109774003798020001212046FFF782F9FFF74DBB1D
:109784000021F8E72046FEF75CFC037842789A4211
:10979400054604D18178C27891423FF43EAB6A79A0
:1097A4009A4204F110060ED132492069012200F0D8
:1097B4007AFD69793046FEF7AFFEA268D37F0133A4
:1097C400D377FFF72ABB01213046FEF727FDF4E7E4
:1097D4002046FEF736FC8379027801339A42054627
:1097E40003D18378012B3FF418AB012A20690BD1F4
:1097F400214900F058FD697904F11000FEF716FDC7
:10980400A268D37F013BDBE701221C4900F04BFD3A
:10981400F6E7032343702046FEF772FFFFF7FDBA15
:10982400032343702046FEF781FEFFF7F6BA0323B5
:109834004370D0F84831B0F8482103F0010383F0B5
:10984400010363F30002A0F84821FFF7E6BA0323FB
:109854004370FEE4002306E5F80B0300FF0B03004E
:10986400FE0B0300D0060300F4080300F70803000E
:109874000B090300180903002A0903001E09030049
:10988400CB060300836870B51E78012E044620D1F0
:109894004068036800219B6898470546B8B90821C9
:1098A4002046FEF773FC31462046FEF793FC0A4936
:1098B400206900F0F8FCA3680222DD8383F82050BD
:1098C4001A7003212368054A2046FEF7ADFF284697
:1098D40070BD0825FBE700BF140C0300FF0B030059
:1098E4002DE9F04F044689B07E48DFF81C921746F4
:1098F4000E4606F041FA05467B4806F03DFAA36899
:10990400CDF80090794A5B6808212D1A2046FEF7AD
:109914008BFFA3685868FEF77EFB8046484606F036
:109924002BFAA36808EB000292B299682046FEF76E
:109934006CFD6F4A00212046ADB2FEF775FF3FB1C2
:1099440036B14FF00C09B04609FB0769C84527D169
:10995400654806F011FA02300544ADB2614B00933C
:1099640005F10308634A082120462B461FFA88F8AC
:10997400FEF75AFF424660492046FEF746FD36B1DF
:109984000C23DFF8709103FB0767BE4222D1A36862
:10999400D3F80C80B8F1000F5AD109B0BDE8F08FAC
:1099A400D8F80400FEF737FB8246D8F80000FEF72B
:1099B40032FB5044A8420AD9D8F80400FEF72BFB26
:1099C4000546D8F80000FEF726FB0544ADB208F1C1
:1099D4000C08BBE7D6E9002393B34AB30192424A89
:1099E40000920821454A2046FEF71EFF7068FEF7E4
:1099F40012FB83463068FEF70EFB82463A4806F0B7
:109A0400BBF9A5EB0B03A3EB0A031B1AD9B204F1B0
:109A14001000FEF70BFC3A223949206900F043FCA0
:109A2400B16889B142462046FEF7EFFC0C36ACE73C
:109A340000932B464A4608212046FEF7F5FEEFE741
:109A4400002AEDD00092F4E72069FEF7E1FBEDE790
:109A540000220392174604AE009603AB0121404650
:109A640002F10109FEF71EFB039D5DB12868FEF7B4
:109A7400D2FAB84204D9039B1868FEF7CCFA87B22D
:109A84004A46E9E7B9F1010F87D01E4ADFF864A01E
:109A940029462046FEF7C8FE2A46BD1CADB203ABDC
:109AA40000960121404602F10109FEF7FBFA039BEF
:109AB400002B3FF472AF1B68009308212B465246DB
:109AC4002046FEF7B1FE039B596831B17A1D92B26C
:109AD4002046FEF79AFC4A46E1E72069FEF798FB28
:109AE400F9E700BF36090300240C0300F90B030057
:109AF4002D0B0300370B03003F0B0300520B030035
:109B0400D00603005B0B0300140903000022114676
:109B1400FFF7E6BE022910B5044608D18368D3F8DE
:109B240048319B0703D5BDE81040FFF7EFBF20691C
:109B3400054A064900F0B7FB2069054A0349BDE818
:109B4400104000F0B0BB00BF02090300FF0B03008C
:109B540006090300012906D0022906D18368D3F837
:109B640048319B0701D5FFF7D1BF024A0221FEF716
:109B74005BBE00BFAE0B030038B58368D3F8484121
:109B8400C4F340040D4634B100221146FFF7A8FE89
:109B94002546284638BD0029FBD05B68024A0221CD
:109BA400FEF742FEF5E700BF5C0A0300012937B562
:109BB4000546144604D103B0BDE83040FFF7A6BF04
:109BC400023918BF0121FFF7D7FF48B96368019331
:109BD400044B0093044A236802212846FEF724FE1E
:109BE40003B030BD02010300CF0A0300012907B509
:109BF40004D103B05DF804EBFFF788BF02290AD152
:109C040053680193084B00931368084AFEF70CFE4F
:109C140003B05DF804FB8CBF0121002103B05DF8A3
:109C240004EBFFF7A9BF00BF02010300CF0A030042
:109C340011F1FF3110B518BF01210446FFF79CFF55
:109C440040B9054A0549206900F02DFBA36845F297
:109C540018021A8310BD00BFEA080300FF0B0300BB
:109C640001292DE9F3410446154637D18668FEF7EC
:109C7400BBFC38BBA36804F11005FA21284693F80D
:109C840014809F7DFEF7CAFA20691E49FA2200F06B
:109C94000AFB2046FEF7A8FCA0B9A368197D7176DB
:109CA400A368A1EB08019B7D33762846C9B2FEF771
:109CB40033FC317EC91BC9B2284602B0BDE8F0416D
:109CC400FEF720BCA36845F218021A830E4A042149
:109CD400204602B0BDE8F041FEF7A6BD022994BFBC
:109CE40000210121FFF748FF48B96B680193074B36
:109CF40000932B68064A02212046FEF795FD02B028
:109D0400BDE8F08118090300F30A0300020103000F
:109D1400CF0A03002DE9F04111F1FF3186B018BFDD
:109D240001210546FFF728FF40BBAB68DFF85480EC
:109D3400D3F840610446EEB1082C1BD03046002312
:109D4400092203A900F00CFD9DF81420A9683046EF
:109D540009230132A03100F003FDAB68049EA03357
:109D64000093671C2346424600212846FEF75CFD0B
:109D74003C46E0E7AB68002283F8A02006B0BDE8CB
:109D8400F08100BFE90A030011F1FF3110B518BFDB
:109D940001210446FFF7F0FE30B9A368B3F8482167
:109DA40060F38202A3F8482110BD11F1FF3110B510
:109DB40018BF01210446FFF7DFFE30B9A268B2F8EC
:109DC400483143F00403A2F8483110BD11F1FF31CA
:109DD40010B518BF01210446FFF7CEFE30B9A368C1
:109DE400B3F8482160F3C302A3F8482110BD11F170
:109DF400FF3110B518BF01210446FFF7BDFE30B98D
:109E0400A268B2F8483143F00803A2F8483110BD03
:109E1400022973B50D4694BF00210121044616465C
:109E2400FFF7AAFE014658B9022D0BD173680193BE
:109E34000C4B00930C4A336829462046FEF7F4FC89
:109E440002B070BDA368094AD3F8483113F0080F73
:109E5400074B18BF1346074A204602B0BDE87040BE
:109E6400FEF7E2BC02010300CF0A0300281A030034
:109E7400521A0300D80A030011F1FF3110B518BFBC
:109E840001210446FFF778FE48B9A368C3F83801F6
:109E9400E3685B68BDE81040186800F0E0BD10BDE1
:109EA4007FB511F1FF3118BF01210446FFF764FEAD
:109EB4000546B8B9E3685B681E68304600F0CCFD1F
:109EC400B268A168C0B2CDE9010264234343B3FB85
:109ED400F2F3DBB20093D1F83831034A2946204625
:109EE400FEF7A2FC04B070BD980A030010B5002070
:109EF4001C4603F0B7FE2060002010BD836818687C
:109F0400FDF718BF10B541680024C1E900230C72A5
:109F140003F01EFF024B01221A70204610BD00BF41
:109F2400D459002010B50446002003F007FF20B1E7
:109F340063680020D3E90021904763680120D3E9D6
:109F440000219047A368224640F6CD411868BDE839
:109F54001040FDF7A9BE000043681B7A70B50446A3
:109F64000E46CBB183681868FDF7E4FE30F00803B1
:109F7400054601D116B10025284670BD63681B7AD9
:109F840063B1A368224640F6CD411868FDF78CFE04
:109F9400054603F0DDFEEFE70029ECD1054AA06891
:109FA4000021FDF76FFE636801221A72054600283E
:109FB400E7D0E1E7299F02002DE9F74F9A461B4BB2
:109FC4001B68DB078B46154605D4CAF80020002021
:109FD40003B0BDE8F08F164BDFF858800527002446
:109FE40043F001092A460BEB0401002003F086FE2E
:109FF4000646A0B998F800305BB10A2301934FF4E8
:10A004007A40C847019B013BF8D1013F07D188F84A
:10A014000070002C08BF2C46CAF80040D7E7012383
:10A02400AD1B88F800303444DCD1F2E7F0ED00E0F9
:10A03400B00E0300D45900201A60C0681A4600F01C
:10A04400E5BD000010B4074C0378E35C23B1043091
:10A054005DF8044B02F01EB90C305DF8044B01F0BE
:10A0640077BE00BF0C5A00204069054A0378D35CD0
:10A0740013B1043002F0C8B90C3001F035BF00BF91
:10A084000C5A00200378044AD35C13B1043002F064
:10A09400ABB80C3001F006BE0C5A002010B50446D3
:10A0A4004069FFF7EFFFA368BDE810401868FDF7AB
:10A0B40041BE000037B51A6004461A46006900F034
:10A0C4002CFD054608BB6069134A0378D35CFBB1D9
:10A0D400043002F021F9C0B9FF23019301AA01233E
:10A0E4006946206900F057FD78B99DF8042000996D
:10A0F4006069FFF7A7FF636893F82930054623B129
:10A1040018B90199206900F0C0FD284603B030BD9C
:10A114000C3001F065FEDEE70C5A002037B5FF2352
:10A12400044600936A46012301A9C06800F0A4FC18
:10A1340098B9009888B163690B4D0199C2B2187837
:10A14400285C60B1181D02F0F3F830B9A368224608
:10A1540040F6CD411868FDF7A7FD03B030BD03F10B
:10A164000C0001F049FEF0E70C5A002073B50378A7
:10A17400FF26012B05460C4601960BD0BBB1022BE2
:10A1840006D1017AE06800F0B1FC2046FFF7C6FF73
:10A1940002B070BD017AE06800F0A8FC2B7A002BB5
:10A1A400F3D063680020D3E900219047EDE7017AFA
:10A1B400206900F06AFD01AA01236946206901961D
:10A1C40000F0E9FC019A22B1D2B200996069FFF76C
:10A1D40039FF63680120D3E900219047D8E70000E4
:10A1E40038B5436893F8283004460D460BB38368AA
:10A1F4001868FDF79FFD30F008030ED175B1606952
:10A20400FFF740FF616860690022083100F0AAFF8F
:10A2140068B96368012283F8292038BD636893F81C
:10A22400283043B12046BDE83840FFF777BF062009
:10A23400F3E70029E3D1064AA0680021FDF722FDD7
:10A244006368012283F828200028EBD0E5E700BFEB
:10A254006DA0020038B5044640680D46C0E90023ED
:10A26400002303852022083005F0E1FC2C612946F7
:10A27400064A606900F076FF054628B9E06800F0F8
:10A28400F2FB206900F0EFFB284638BD71A1020003
:10A29400826810B504462AB1436901680069984789
:10A2A4000023A36010BD0EB403B5039921B104AB20
:10A2B40001AA019300F074F802B05DF804EB03B056
:10A2C40070470A2938B504460D4602D10D21FFF71F
:10A2D400F8FFA3682268591CA160D554D4E901325F
:10A2E4009A4204D32046BDE83840FFF7D1BF38BDB9
:10A2F4002DE9F84F9946DDE90A4317468246884618
:10A304000A460126BA420FD24E4538BF4E4613F0D4
:10A31400010B01D164B900240125B9F1010F1AD947
:10A3240009F1FF397D43F8E7B2FBF7F20136E9E7BB
:10A334009B070ED5B9F1000F0CBF30252025A6428E
:10A34400EAD2013C29465046FFF7BBFF002CF6D168
:10A35400E1E72025F3E7B8FBF5F39F42E2D9DFF804
:10A364003C90B8FBF5F3504619F8031005FB13882D
:10A37400FFF7A7FFB5FBF7F3BD4207D2BBF1000F10
:10A3840002D00CB1A64203D3BDE8F88F1D46E8E71E
:10A3940020215046013CFFF794FFF2E7E90E030049
:10A3A4002DE9F74F054617468846002900F030810D
:10A3B40018F8011B49B92B7B002B00F02981284692
:10A3C40003B0BDE8F04FFFF763BF252940F0C0801C
:10A3D400002698F800302D2B424608F1010823D0BE
:10A3E400302B24D02B2B25D000242A2B02F1010161
:10A3F40023D13B681A1D1B683A601C440A46137833
:10A404002E2B26D101324FF00009104610F8011B03
:10A41400A1F1300CBCF1090F1DD80A2303FB091369
:10A42400A3F130090246F0E746F00106D1E746F011
:10A434000206CEE746F00406CBE711F8013CA3F18F
:10A4440030000928DBD80A2202FB0434303C0A46D7
:10A45400CBE74FF0000912F8011B01F0FB0068285C
:10A464009046F8D069290ED04AD8582964D006D825
:10A4740025296DD098F80030002B99D19BE76329EA
:10A4840062D06429F6D13A68D2F800A0111D8AEA94
:10A49400EA723960A2EBEA724FF0010B092A5BDC25
:10A4A400CB4538BFCB462CB1BAF1000F01DB7207A4
:10A4B40000D5013CB30702D5B9F1000F04D0F00771
:10A4C40002D4002C4ED10024BAF1000F52DACAF1A2
:10A4D400000A2D212846FFF7F4FE06F00302022AA3
:10A4E40005D1B9F1000F02D1002C47D10024CDE9E8
:10A4F40000464B460A2251462846FFF7F9FEB9E7C3
:10A5040073294CD014D87029B4D13B681A1D3A6011
:10A51400302128461C68FFF7D4FE78212846FFF72F
:10A52400D0FE00220823CDE9003221461022E3E7C1
:10A5340075292BD078299DD139680A1D3A60CDE957
:10A5440000464B46102228E03B681A1D19783A60F1
:10A554002846FFF7B6FE8DE70A230BF1010BB2FB89
:10A56400F3F29BE7A345AFD220212846013CFFF735
:10A57400A8FEA6E77107B0D52B21ABE7A345B6D259
:10A5840030212846013CFFF79CFEADE73968CDE950
:10A5940000460A1D3A604B460A220968ACE73B684C
:10A5A4001A1D3A6016F00106D3F800A020D1BAF1C2
:10A5B400000F03D0504605F0DFFB0646B44200D935
:10A5C400C4B90AF1FF3A1EE028460136FFF779FEC6
:10A5D4001AF806100029F7D1A642BFF44BAF002C9D
:10A5E4003FF448AF20212846013CFFF76AFEF3E719
:10A5F4000026EDE720212846013CFFF762FEDDE757
:10A604002846FFF75EFE1AF8011F0029F8D131E74A
:10A6140003B0BDE8F08F2DE9F047B0F80690447917
:10A62400D2F800A09DF8208009FB04F4043C0646FF
:10A634000AEB0300A0420F4688BFA4EB030A191DCE
:10A64400C2F800A0B1FBF9F509FB15114DB9A9EB4E
:10A654000104544528BF5446BAF1000F04D1BDE8A3
:10A66400F0873668013DF1E704317B197018224602
:10A67400B8F1000F0ED001461846AAEB040A05F003
:10A68400D6FAD145254436684C464FF0000128BF20
:10A694005446E1E71946F0E7FDF74CBCF8B54679B6
:10A6A4000146721E0546002393422D6803D30024FD
:10A6B400A64202D8F8BD0133F6E70F682846FDF735
:10A6C40074FC01343946F3E72DE9F843068BCD1CBD
:10A6D4000746FDF746FC043E35440446B5FBF6F553
:10A6E400F0B14FF48073EDB28380C680013D076002
:10A6F40081464FF00008A84512D23846FDF731FCD8
:10A70400064648B163790133637108F10108C9F859
:10A71400000007608146EEE72046FFF7BFFF34469E
:10A724002046BDE8F88301210430FDF789BB10B54C
:10A73400012104460430FDF78EFB10F0FF0F04D115
:10A744002046BDE81040FFF7A9BF10BD1FB5039216
:10A754000022009203AAFFF75EFF05B05DF804FB38
:10A764001FB503920122009203AAFFF754FF05B01C
:10A774005DF804FB41DF7047064B10B500241C70E4
:10A78400054B1C60BFF35F8F0449054800F08EFA47
:10A79400204610BDE0590020E4590020FC0E0300BF
:10A7A400D859002007B500230DF107008DF80730B4
:10A7B400FDF7D6FAF1EE103A23F09F03E1EE103ADA
:10A7C400BFF35F8F094B4022C3F884219DF8070033
:10A7D400FDF7EAFA04F080FD20B1FFF7CBFF03B0E8
:10A7E4005DF804FB20BF40BF20BFF8E700E100E0B4
:10A7F4007047026813685268934291BFD01A806808
:10A804000130801888BFC01A7047036881681A68CD
:10A814005B688B4234BF01330023D31A584258413A
:10A824007047F7B5002304460DF107000D468DF877
:10A834000730FDF795FA2046FFF7E7FF10B1237CB8
:10A84400002B3CD12268A66853685168B14234BFDA
:10A8540001310021516030B11168A068814234BFD8
:10A86400013100211160E2686068511E072920D877
:10A87400DFE801F004101F141F1F1F182A78C254A8
:10A884002046FFF7B6FF23689A68824200D2986098
:10A89400002415E02A8820F81320F1E72A6840F8FC
:10A8A4002320EDE7D5E9006700EBC300C0E90067AA
:10A8B400E6E7294602FB030005F0B9F9E0E70424C2
:10A8C4009DF80700FDF770FA204603B0F0BD13B5FC
:10A8D400002304460DF107008DF80730FDF740FA18
:10A8E4002046FFF786FF04469DF80700FDF75CFA53
:10A8F400204602B010BD00002DE9F04F8368D3F864
:10A904004851C5F340058BB0074635B100221146C6
:10A914000BB0BDE8F04FFEF7E3BF012906D9224A88
:10A9240002210BB0BDE8F04FFDF77EBF1F4C204E57
:10A93400DFF88080DFF88090DFF880A0361B1C23CE
:10A94400B6FBF3F6AE4202D10BB0BDE8F08FE3687C
:10A9540008932368D4F808B09A6809922046FFF750
:10A96400B6FF099A94F810E0642303FB00FCBEF1DF
:10A97400000F0CBFC646CE465343B3FBFBF3CDE9F1
:10A984000432BCFBFBF1089B0191CDE9020B00935F
:10A99400CDE906BE6369524608213846FDF744FFF7
:10A9A40001351C34CEE700BFC007030064FE02007B
:10A9B4009CFE02004C0F0300550F0300610F0300BF
:10A9C400036818685B68C31A58425841704773B5E6
:10A9D400002305460DF107000C4616468DF8073096
:10A9E400FDF7BEF92846FFF7EBFF002832D12968AE
:10A9F4000B682EB90A68A868824238BF561C0E60DC
:10AA0400EA686968501E07281ED8DFE800F0040EC3
:10AA14001D121D1D1D16CB5C237000249DF807001C
:10AA2400FDF7C2F9204602B070BD31F8133023801F
:10AA3400F3E751F823302360EFE701EBC301D1E9D9
:10AA44000023C4E90023E8E703FB0211204605F0D4
:10AA5400EEF8E2E70524E1E70368986870470368C5
:10AA640000229A607047836800225A609A60C3E9A2
:10AA74000422DA601A6070472DE9F04106460F4659
:10AA840090461D468BB9B0687368D0E9031403F18E
:10AA9400010C0A1B62450FD10024C8F800401DB305
:10AAA400FDF7EDF90020BDE8F0818068FDF7DEF9DF
:10AAB4000028E8D01120F6E701EA030223409A4275
:10AAC40038BF6444D8F800302CBFACEB0204641ADD
:10AAD4009C4228BF1C463368C8F8004013443B60BE
:10AAE400C3681C44C460DDE72846DCE78268436829
:10AAF400106910B50133946803441B1B8B420AD3BD
:10AB04000C44C2E902441046FDF7B6F9002814BF0C
:10AB14000020082010BD0420FCE72DE9F84F05466D
:10AB240080688A469146FDF7A1F9804680BBD5E945
:10AB340001431A69013414449A68A41AD9F800200C
:10AB4400944228BF1446C9F800406F689E683E408E
:10AB54000137A7EB060B5C4509D9286851463044F8
:10AB64005A4605F064F8F61B3444DA44464628682D
:10AB740022465146304405F05AF8A868D9F8002016
:10AB8400836813448360FDF77AF94046BDE8F88F83
:10AB94004FF01108F9E72DE9F84306460F469046B1
:10ABA40099467BB9B06882684469151B12D1C8F80C
:10ABB4000050B9F1000F02D00430FDF760F92846C7
:10ABC400BDE8F88380680430FDF750F90028E9D027
:10ABD4001125F4E77368D8F800101C401A40944219
:10ABE4000DD28D4201D2C8F800503368D8F8002045
:10ABF4001C4443693C60134443610025DFE701338F
:10AC04001B1B8B4238BFC8F80030EEE72DE9F84330
:10AC14000646806804300F469046FDF727F98146C2
:10AC240080BBB26813699568ED1AD8F800309D426C
:10AC340028BF1D46C8F8005073681169946819400C
:10AC44001C40A14228BF5C1C641AA54208D9336881
:10AC540038461944224604F0EAFF2D1B27440021FC
:10AC640033682A461944384604F0E1FFB068D8F83E
:10AC740000200369134403610430FDF700F94846DA
:10AC8400BDE8F8834FF01109F9E7806808B58268D8
:10AC94000369D21A8A4207D30B44C0E9043304304F
:10ACA400FDF7EDF8002008BD0420FCE70B684A68B6
:10ACB4004360934208BF0023016008BF43607047AC
:10ACC400436843B10268916852680B4493424360FD
:10ACD40004BF00234360704710B50D49A1F5947279
:10ACE400914201D800200FE08B1ADB1003EBD373E1
:10ACF4005B1002EBC30452F83330834205D802D20E
:10AD040004F10802ECE7606810BD2146E8E700BFE3
:10AD14003C11030008B5FFF7DFFF024B002808BF12
:10AD2400184608BDFE0F0300054B1B68082B01BF26
:10AD3400044B1868B0FA80F0400918BF002070472F
:10AD4400300100103401001008B54FF08043002298
:10AD5400C3F80C21C3F81021C3F838254FF08052F2
:10AD640003F54043D2F80414C3F82015D2F80814AC
:10AD7400C3F82415D2F80C14C3F82815D2F810140B
:10AD8400C3F82C15D2F81414C3F83015D2F81814DB
:10AD9400C3F83415D2F81C14C3F84015D2F82014A3
:10ADA400C3F84415D2F82414C3F84815D2F828146B
:10ADB400C3F84C15D2F82C14C3F85015D2F830143B
:10ADC400C3F85415D2F83414C3F86015D2F8381403
:10ADD400C3F86415D2F83C14C3F86815D2F84014CB
:10ADE400C3F86C15D2F84424C3F87025FFF79CFF10
:10ADF40010B1384B384A1A60FFF796FF18B1374B39
:10AE0400FB22C3F81825FFF78FFF48B13449354BAF
:10AE14000A681B6822F00F0203F00F0313430B6050
:10AE2400FFF782FF18B1304B4FF400721A604FF0F5
:10AE34008043D3F80024D20744BF6FF00102C3F863
:10AE440000242A4AD2F8883043F47003C2F88830C8
:10AE5400BFF34F8FBFF36F8F4FF01023D3F800224F
:10AE6400002A03DBD3F80432002B2FDA204B012213
:10AE7400C3F80425D3F80024002AFBD04FF0102295
:10AE84001221C2F80012D3F80024002AFBD04FF09C
:10AE940010231222C3F80422154B1A46D3F80014C7
:10AEA4000029FBD00021C3F80415D2F80034002B8C
:10AEB400FBD0BFF34F8F0D490E4BCA6802F4E0621A
:10AEC4001343CB60BFF34F8F00BFFDE70A4B0B4A20
:10AED4001A6008BD8C5600404881030000F0004011
:10AEE400E40E0040580200104096024000ED00E0DD
:10AEF40000E001400400FA05183300200090D0035C
:10AF0400074B1B5C1F2B86BF03F01F0305494FF043
:10AF1400A041012202FA03F3C1F80C35704700BFC7
:10AF2400F614030000030050074B1B5C1F2B86BF65
:10AF340003F01F0305494FF0A041012202FA03F375
:10AF4400C1F80835704700BFF61403000003005031
:10AF540008B50020FFF7E8FF0120FFF7E5FF022016
:10AF6400FFF7E2FF0320BDE80840FFF7DDBF000064
:10AF74000A4B185C1F288ABF094B4FF0A04300F00E
:10AF84001F00D3F804250121814021EA02000A4070
:10AF9400C3F80805C3F80C25704700BFF614030076
:10AFA40000030050C20710B504460CD54FF0A0436F
:10AFB4000322C3F83427C3F83827C3F83C27C3F85F
:10AFC4004027FFF7C5FFA3070AD54FF0A0430C2283
:10AFD400C3F82C27C3F83027C3F86027C3F86427C5
:10AFE40010BD000038B5074C051E04F1080318BF56
:10AFF4001C4623682BB11A6822605B682846984770
:10B00400F7E738BDF059002020B9054B01225A70EA
:10B01400FFF7E8BF012802D1014A9070F8E77047B2
:10B02400E859002020B9034B01225A70FFF7DABF18
:10B03400704700BFE859002038B50B4C237883B91A
:10B044000A486360A3602361E36000F0C7F8054623
:10B0540004F042F908B900F0CDF801232370284622
:10B0640038BD8525FBE700BFE85900200DB002007C
:10B0740037B50B4C00230DF107008DF80730FCF7B2
:10B084006FFEE368013BE360E56815B900F0C4F8BE
:10B09400A5709DF80700FCF787FE03B030BD00BF24
:10B0A400E8590020012813B509D018B103281CD091
:10B0B40002B010BD0F4B0122C3F88020F8E70E4CFC
:10B0C40000230DF107008DF80730FCF749FE2378C3
:10B0D4000BB9FFF7B1FFE3689DF807000133E360A4
:10B0E4000123A370FCF760FEE2E700F083F8FFF7AA
:10B0F400BFFFDDE700E100E0E85900201FB5037859
:10B104008DF800304368019383688DF80830C36874
:10B114000393054A054B684653F8213052F8211031
:10B12400984705B05DF804FBFC590020045A002040
:10B134001FB503788DF800304368019383688DF858
:10B144000830C3680393054A054B684653F8213019
:10B1540052F82110984705B05DF804FBFC59002013
:10B16400045A0020F0B5184B0778DFF86CE043F878
:10B174002720164B16460A6943F827204B7F0EF802
:10B1840007300C4684460FCC89B06D460FC594E851
:10B194000F0085E80F001EF80730049753B1002E06
:10B1A4000B4A694608BF32460CF1040000F040FF28
:10B1B40009B0F0BD002E074A694608BF32460CF1BB
:10B1C4000C0000F09BFCF3E7045A0020FC5900201B
:10B1D40001B1020035B102000C5A0020044A13796F
:10B1E40023B901211060918018467047852070476B
:10B1F400105A0020074B1A68D2075FBFC02283F899
:10B20400002301221A604FF080430122C3F818255D
:10B21400704700BF00E100E0044B01221A604FF0C8
:10B224008042D2F81834DB03FBD470470C00004092
:10B23400154B07B51A687AB100221A601B6800938F
:10B24400009B4FF080430122C3F808230F4B587929
:10B2540010B95A711B6898470D4B1A6882B10022C5
:10B264001A601B680193019B4FF080430222C3F8CC
:10B274000823064B1B68012003B05DF804EB184754
:10B2840003B05DF804FB00BF00010040105A002029
:10B294000401004000F1804000F5C040002382B06A
:10B2A400036003680193019B02B0704703681F2B7E
:10B2B40083BF03F01F03036001484FF0A0407047B1
:10B2C4000003005007B5019001A8FFF7EFFF019BB1
:10B2D40000EB8300D0F8002722F44032C0F80027A6
:10B2E400D0F8003743EA0143C0F8003703B05DF8F3
:10B2F40004FB0000054B4FF0FF32072843F82020E1
:10B3040084BF1B1883F85820704700BF185A0020C8
:10B3140010B5174C94F86A3043BB04F13003302164
:10B32400FF22013911F0FF0103F8012BF9D1C8B252
:10B33400FFF7E0FF01310C29F9D1062200210D4865
:10B3440004F09EFC0C4BC02283F8062340221A60B2
:10B354004FF4BE70FFF79EFF084B4FF00042C3F856
:10B364000423012384F86A30002010BD0820FCE780
:10B37400185A00207C5A002000E100E000600040E0
:10B38400034B93F86A00003018BF0120704700BFD8
:10B39400185A0020F7B53B4E3318054693F9303060
:10B3A400002B6CDA8B78C3F34003002B0BBF08240B
:10B3B40000240C200820844202D1042003B0F0BDF4
:10B3C40056F82470013743D1701946F8242080F8C8
:10B3D400304013B9331983F858508B785A0717D46F
:10B3E400D80737D501A80195FFF760FF019B00EB53
:10B3F4008300D0F8003723F00203C0F80037224856
:10B40400EA0805F007070123BB40875C3B438354EC
:10B4140088780A7810F0020028D0A40004F180444F
:10B4240004F5C0442D02D4F8103523F44F3323F42B
:10B434004073C4F810351204D4F8103505F47C5563
:10B4440002F4403215431D43C4F810550020B5E7FB
:10B454000134B0E701A84A780195FFF727FF019B63
:10B4640003F5E073920040F82320C8E7083C344415
:10B4740094F8605045EA821284F860209EE7082020
:10B484009CE700BF185A00207C5A002073B5224C58
:10B494002518064695F93020072A19DD224492F82A
:10B4A40058309B09032B0FD1019001A8FFF7FEFE32
:10B4B400019AD0F81035D340DB0707D40221304677
:10B4C400FFF700FF02B070BD012BF7D00321F6E7B0
:10B4D400D3B2072BF6D8930003F1804303F5C0439E
:10B4E400D3F8100540F00100C3F8100502F1400044
:10B4F400800080B2FFF7CEFE0029E3D095F930300A
:10B5040054F82330002BDDD0012303FA02F2034B5D
:10B51400C3F80423D6E700BF185A00200060004097
:10B524000E4B034493F93020072A02DD0021FFF774
:10B53400C9BED3B2072B10D8930003F1804303F59F
:10B54400C043D3F8101521F00101C3F810150123ED
:10B5540003FA02F2024BC3F808237047185A00207A
:10B564000060004007B5019001A8FFF79FFE019B12
:10B57400D0F81005D84000F0010003B05DF804FBDA
:10B584002DE9F04F002489B0CDE90244624D4FF417
:10B594008072012102F1804303F5C04390B21B681D
:10B5A400012B06D1D5F804330B4202D0FFF772FE0B
:10B5B4000C430432B2F5907F4FEA4101EAD1574B74
:10B5C4001B68012B0ED14FF4BE70FFF763FE4FF0E2
:10B5D400A04344F00044D3F810350293504BD3F801
:10B5E4001035039314F0FF0F1AD04E4F0025012697
:10B5F400344210D0AB0003F1804303F5C043D3F8C9
:10B604001005D3F8101557F8253023B1C1F30141C3
:10B61400C0F3052098470135082D4FEA4606E7D1C7
:10B62400002C75DA0DF1100800230493C8F80430D7
:10B634004FF0FF33CDE90633DFF8E8A0DFF8E890F8
:10B6440000273D4619F9014B631C48D0E4B201239D
:10B6540024F0C00604F0070203FA02F2F00808AB73
:10B66400191811F8083C134239D00AEB0603A4094F
:10B6740093F930305AF823B0BBF1000F08D1032CF2
:10B684002DD118F800C04CEA020C08F800C001E003
:10B69400032CF6D001A80196FFF708FE019B11F8D0
:10B6A400181C03F5E07C114250F82C00C0F3014053
:10B6B40005D0022813D1032C0BD1214604E0032822
:10B6C4000DD1032C05D102213046FFF7FBFD0135D6
:10B6D400EDB2BBF1000F02D021463046D847013706
:10B6E400042FAFD1A5B14FF0A0430299D3F8102590
:10B6F40003F540739142D3F8103502D1039999426E
:10B7040006D002920393049A059B0692079395E749
:10B7140009B0BDE8F08F00BF006000407C610040CC
:10B7240000030050185A0020785A0020014B1B686F
:10B73400184700BF845A00200E4B984237B50D4677
:10B7440002D0002003B030BD00230DF107008DF8B6
:10B754000730FCF705FB084B1C7914B901221D6066
:10B764001A719DF80700FCF71FFB002CE9D011208B
:10B77400E8E700BF00200040845A0020034B9842B1
:10B7840001BF034B00221A601A7170470020004069
:10B79400845A00200023435082B043580193019BF4
:10B7A40002B07047F0B547791B4B1C4E43F8272075
:10B7B4007D00EB19F35C6BBB90F904308C78002BA3
:10B7C400A8BF03F1604CDAB2BABF02F00F0EDFF883
:10B7D40050C00CF5614C4FEA4414E4B2B4BF0CF809
:10B7E4000E408CF800435B09012402F01F02DFF8CD
:10B7F40034C004FA02F24CF8232003680A88C3F820
:10B8040008253D4473190A795A707455CA789A7098
:10B814000020F0BD0820FCE7905A00208C5A00203C
:10B8240014ED00E000E100E0036801221A604379AE
:10B83400024A03EB43030221D15470478C5A00207F
:10B844000368044901225A60437903EB4303CA5451
:10B85400704700BF8C5A002003680122C3F84823B4
:10B86400C3F80823704700002DE9F041224E234F0E
:10B87400DFF88C8000244FF48035D7F80433A6F524
:10B8840080412B4289B20CD0336853B1C7F8485376
:10B894003846C7F80853FFF77DFFD8F80030E0B208
:10B8A40098470134042C4FEA450506F10406E4D117
:10B8B4001248D0F80433DA070AD5D0F800313BB186
:10B8C4004FF48071FFF766FF0D4B20461B689847C5
:10B8D4000A48D0F804339B070CD5D0F804314BB197
:10B8E4004FF48271FFF756FF054B05201B68BDE836
:10B8F400F0411847BDE8F081404102400040024059
:10B90400905A00200023435082B043580193019B76
:10B9140002B070470A4610B54FF48E71FFF7F2FF7C
:10B92400136A9168C95C136A01331362C0F81C1569
:10B9340010BD024608B54FF492710068FFF7E2FFAC
:10B944004FF484711068FFF7DDFF136801221A6059
:10B9540008BD8B690A4610B54FF4847123B9FFF70B
:10B96400D1FFD0F8183510BDFFF7CCFF536AD1686A
:10B97400D0F81805C854536A01335362F3E7000042
:10B984001FB501238DF80030044BCDE90110D3E934
:10B9940000126846904705B05DF804FB945A0020F5
:10B9A40030B54C4AD2F8043313F4007F85B0154601
:10B9B4004FD0D2F82431002B4BD04FF49271104663
:10B9C400FFF7A0FF4FF40173C2F80833424B93F81A
:10B9D400291009B9012151603E4902228DF8002045
:10B9E400D1F88024C1F8802403929A690292DA681B
:10B9F40001920022C3E906226846D3E90012904767
:10BA04003448D0F81C315BB133490A6A4B699A4215
:10BA14000A464BD291F82830002B47D1FFF77AFF22
:10BA24002C4AD2F8443193B14FF4A2711046FFF777
:10BA340069FF294B93F8291009B1012111609A6912
:10BA44002AB100229A61586AD968FFF799FF05B0B4
:10BA540030BDD5F804335B07D2D5D5F80831002BB7
:10BA6400CED01D4C1B482146FFF773FF636AA269C1
:10BA74009A422346C4D1E269E1684AB12369E3608A
:10BA84000023606AA261E3616362FFF779FFB7E7AD
:10BA940094F829200AB901226A600E4A4FF4017011
:10BAA400C2F8080300229A61586AEEE74FF48E71D7
:10BAB4000848FFF727FF51690029B1D000230291FC
:10BAC40091688DF80030019153616846D2E9001302
