:020000040002F8
:10600000706B0020C1630200C9630200CB63020011
:10601000CD630200CF630200D163020000000000E4
:10602000000000000000000000000000D363020038
:10603000D563020000000000D7630200D9630200AC
:1060400079670200DB630200196B0200DB63020068
:10605000DB630200DB630200B1650200DB63020068
:10606000DB630200DB630200DB630200DB63020030
:10607000DB630200DB630200DB630200DB63020020
:10608000DB630200D1670200DB630200DB63020016
:10609000F5670200DB630200F9670200DB630200C0
:1060A000DB630200DB630200DB630200DB630200F0
:1060B000DB630200DB630200000000000000000060
:1060C000DB630200DB630200DB630200DB630200D0
:1060D000DB630200DB630200DB6302000000000000
:1060E00000000000000000000000000000000000B0
:1060F00000000000000000000000000000000000A0
:10610000000000000000000000000000000000008F
:10611000000000000000000000000000000000007F
:10612000000000000000000000000000000000006F
:10613000000000000000000000000000000000005F
:10614000000000000000000000000000000000004F
:10615000000000000000000000000000000000003F
:10616000000000000000000000000000000000002F
:10617000000000000000000000000000000000001F
:10618000000000000000000000000000000000000F
:1061900000000000000000000000000000000000FF
:1061A00000000000000000000000000000000000EF
:1061B00000000000000000000000000000000000DF
:1061C00000000000000000000000000000000000CF
:1061D00000000000000000000000000000000000BF
:1061E00000000000000000000000000000000000AF
:1061F000000000000000000000000000000000009F
:10620000DFF80CD000F096F90048004731B20200E8
:10621000706B002030B450E8012F93B2C48923443E
:106220008489A34228BF1B1B0489A34202BFBFF37A
:106230002F8F002007E0C3EA020340E80134002C5E
:10624000E9D14FF001000A6030BC704750E8012FDF
:10625000C2EA024240E801210029F7D1704730B478
:1062600050E8022F1FFAA2F3C488A34202BFBFF373
:106270002F8F00200DE0C48923448489A34228BFC6
:106280001B1BC2EA034340E80234002CE8D14FF064
:1062900001000A6030BC704750E8022FC2EA224277
:1062A00040E802210029F7D17047034653E8022F46
:1062B000D988B2EB324F4FF0000017BF92B241EADB
:1062C000014142EA014104E05A68B2EB324F08BF93
:1062D000012043E80212002AE8D1704730B4044696
:1062E00054E8000F0D4644E80053002BF8D1156028
:1062F00030BC704730B4044654E8000F40EA010552
:1063000044E80053002BF7D1156030BC704730B41F
:10631000044654E8000F00EA010544E80053002B4E
:10632000F7D1156030BC704730B4044654E8000F14
:1063300080EA010544E80053002BF7D1156030BC1A
:10634000704730B4044654E8000F00EB010544E800
:106350000053002BF7D1156030BC704730B40446B1
:1063600054E8000FA0EB010544E80053002BF7D1DF
:10637000156030BC704770B404464FF0000054E81C
:10638000006F0D68AE4207BF44E80023012044E8D7
:1063900000630E60002B1CBF0020F0E770BC70474C
:1063A00030B4044654E8000F88422CBF451A054615
:1063B00044E80053002BF5D1156030BC7047000055
:1063C0000648804706480047FEE7FEE7FEE7FEE78F
:1063D000FEE7FEE7FEE7FEE7FEE7FEE7FD670200F9
:1063E000016202002DE9F05F0546002092469B46BF
:1063F00088460646814640241BE0284641464746DB
:10640000224600F087F853465A46C01A914110D3ED
:1064100011461846224600F016F82D1A67EB0108BF
:106420004F4622460120002100F00DF817EB00092D
:106430004E41201EA4F10104DFDC484631462A46C5
:106440004346BDE8F09F202A04DB203A00FA02F11F
:10645000002070479140C2F1200320FA03F3194352
:1064600090407047004870475026030010B5431A0B
:10647000934209D28318881803E010F8011D03F82D
:10648000011D521EF9D210BD40EA01039B0703D043
:1064900009E008C9121F08C0042AFAD203E011F863
:1064A000013B00F8013B521EF9D210BDD2B201E00F
:1064B00000F8012B491EFBD270470022F6E710B509
:1064C00013460A4604461946FFF7F0FF204610BD62
:1064D000421C10F8011B0029FBD1801A704710B52F
:1064E000002200E0521C835C8C5CA34201D1002B93
:1064F000F8D1D8B2E1B2401A10BD30B50446002040
:10650000034600E05B1C934203D2E05CCD5C401B81
:10651000F8D030BD202A04DB203A21FA02F0002115
:10652000704721FA02F3D040C2F1200291400843A3
:1065300019467047064C074D06E0E06840F001033D
:1065400094E8070098471034AC42F6D3FFF75CFE9E
:10655000003D0300203D030070B58C1810F8015B6E
:1065600015F0070301D110F8013B2A1106D110F8EC
:10657000012B03E010F8016B01F8016B5B1EF9D1F0
:106580002B0705D40023521E0DD401F8013BFAE776
:1065900010F8013BCB1A921C03E013F8015B01F8E1
:1065A000015B521EF9D5A142D8D3002070BD000076
:1065B0002DE9F04700268AB0DFF85091B0464FF43D
:1065C0008075012437460696284606F0B3F938B19F
:1065D000D9F80403204203D0284606F0A1F9264347
:1065E0002D1D64007F1CADB2082FEDD34FF4BE7497
:1065F000204606F09FF948B1204606F091F946F092
:10660000004606AA0121002006F076F9404D16F05A
:10661000FF0F15D00127002437420DD009EB84016C
:10662000D1F81005D1F81015C0F3042055F8242036
:10663000C1F3014102B190477F00641C082CEBD3E9
:10664000002E5FDA4FF0FF30CDF8108054E02819AB
:1066500010F8507F90F9000027F0C008401C3BD094
:1066600007A9404605F021F910B34FEA97194046B3
:1066700002F0D8FA55F820701FB1B9F1030F03D01A
:1066800006E0B9F1030F27D104A9404605F015F93A
:106690004FF0A04101EB8800D0F8000706A9C0F335
:1066A000014A404605F001F918B1BAF1020F03D0D2
:1066B00012E0BAF1030F0FD1B9F1030F08D1BAF10B
:1066C000020F1DD00221404606F0FAF8761CF6B201
:1066D00017B149464046B847641C042CB7D3002E76
:1066E00010D06A460121002006F006F906990098AC
:1066F000884207D006900498002634460790A6E703
:106700000321E0E70AB0BDE8F08700000060004028
:106710002442002000F01F02012191404009800026
:1067200000F1E020C0F88012704700F01F02012144
:1067300091404009800000F1E020C0F8001170474E
:1067400000F01F02012191404009800000F1E0208B
:10675000C0F8001270474907090E002806DA00F059
:106760000F0000F1E02080F8141D704700F1E020D8
:1067700080F800147047000070B54FF48076304602
:1067800005F036FC114CB50560B1304605F037FC1C
:106790000120C5F80803607920B9012060712168E3
:1067A000002088474FF48276304605F021FC00280F
:1067B0000AD0304605F023FC0220C5F80803216802
:1067C000BDE870400120084770BD0000183400206B
:1067D00007480021C0F84011C0F84411C0F8481122
:1067E000C0F84C11C0F80011C0F804110AF072BED4
:1067F000001001400AF0BCBD06F02ABEF0B5B54855
:106800000023021D0178101D01254FF08054062938
:106810000BD11678360708D10678C6F30316032E77
:1068200006D0042E04D0052E02D0062907D00EE093
:10683000B4F82463A84FC6F304263E6002E016783D
:10684000360704D10678C6F30316032E02D00629B4
:1068500004D00FE0A24FA14E7E670EE016783607F7
:1068600008D10678C6F30316032E06D0042E04D0F2
:10687000052E02D0062907D00EE0D4F84462994FC5
:10688000C6F342363E6002E01678360704D1067839
:10689000C6F30316032E02D0062906D011E0924E4D
:1068A000376827F0807737600EE01678360708D112
:1068B0000678C6F30316032E06D0042E04D0052E48
:1068C00002D006290AD011E04FF08046C6F80C31FC
:1068D000C6F81031834E361F336002E01678360753
:1068E00004D10678C6F30316032E02D0062905D07C
:1068F0000CE07C4F032664373E600AE016783607CA
:1069000004D10678C6F30316032E02D006290DD053
:1069100014E0764F05263E60744E78363560734E2F
:10692000083633603F263F1D3E6002E0167836078A
:1069300004D10678C6F30316052E02D0062957D0D7
:1069400062E06B4E36686B4F3E60694E361D3668AE
:106950003F1D3E60664E083636683F1D3E60644E01
:106960000C3636683F1D3E60614E103636683F1D5E
:106970003E605F4E143636683F1D3E605C4E1836F2
:1069800036685C4F20373E60594E1C3636683F1DD6
:106990003E60574E203636683F1D3E60544E2436CA
:1069A00036683F1D3E60524E283636683F1D3E60B9
:1069B0004F4E2C3636683F1D3E604D4E30363668A1
:1069C0004C4F40373E604A4E343636683F1D3E607D
:1069D000474E383636683F1D3E60454E3C36366879
:1069E0003F1D3E60424E403636683F1D3E6002E02D
:1069F0001678360708D10678C6F30316032E06D09C
:106A0000042E04D0052E02D0062907D019E0D4F8B0
:106A10005812394A01F04F01116002E0117809075C
:106A20000FD10078C0F30310032803D0042801D04D
:106A3000052806D131480168C90702D06FF001016D
:106A40000160D4F83001062808D1D4F834010628B2
:106A500004D12B48016841F48061016022487438F8
:106A6000016841F470010160BFF34F8FBFF36F8F76
:106A70004FF01021D1F80002002803DBD1F8040206
:106A8000002822DA1F4A15601F480468002CFCD039
:106A90001524C1F800420568002DFCD0C1F804425D
:106AA00001680029FCD0136001680029FCD0BFF305
:106AB0004F8F0D48F0380168144A01F4E06111432A
:106AC0000160BFF34F8F00BFFDE712491048086017
:106AD000F0BD0000E00F00F0403501400DF0ADBA10
:106AE00000C007403C050040FCED00E010560040AF
:106AF0000404001020C50040E40E004000040040E3
:106B00003C17004004E5014000E401400400FA05A0
:106B10000090D003103500200148006800470000B5
:106B20002034002002E008C8121F08C1002AFAD150
:106B300070477047002001E001C1121F002AFBD1FD
:106B4000704700000121202803DA814005480140F8
:106B500003E0402802DA2038814009B10120704763
:106B600000207047FC06FFBD2DE9F843804643F244
:106B7000020659B9694608F0E7FAB04202D008B1F6
:106B800000F0BAF99DF80000800744D40021404687
:106B900008F016FB05003ED0112D3CD01F482049BF
:106BA000401AC708022000EB07440D2D0AD00B2D18
:106BB0001DD0B5421FD11B4920464246BDE8F843CF
:106BC00006F0BCB820464246174906F0B7F8132134
:106BD000404676DF00281ED006F0C2FC024601B017
:106BE00020464346BDE8F04310A106F0AEB820466B
:106BF00042461C49E2E7284606F0B2FC0246012064
:106C000000EB0740434618A106F09FF82846BDE870
:106C1000F84300F071B9BDE8F8830000783D030047
:106C2000303D0300BC2E0300482E030073645F62F6
:106C30006C655F6761705F646973636F6E6E6563D7
:106C40007428292072657475726E6564202573201E
:106C50006F6E20636F6E6E5F68616E646C65202579
:106C6000642E0000082F0300417373657274696E0F
:106C7000672E20706D5F636F6E6E5F7365637572F4
:106C80006528292072657475726E656420257320ED
:106C90006F6E20636F6E6E5F68616E646C65202539
:106CA000642E000031B500252C462146684604F0CC
:106CB00060FD00B16D1C641C142CF6D3284638BD51
:106CC00010B560B159B102780B785208B2EB530F8E
:106CD00005D10622401C491CFFF70FFC08B100201B
:106CE00010BD012010BD800701D000207047012099
:106CF0007047C3688B4206D811440069491E81421F
:106D000001D80120704700207047000010B5002016
:106D100005F0D2FB00280ED109F07AFC002001F02A
:106D2000B7FC0321044800F038FD002803D0BDE87B
:106D3000104000F0E1B810BDF435002010B501227C
:106D40000221002001F04AFD08B1072810D10722D6
:106D50000221012001F042FD08B1072808D10021DD
:106D60000A22084601F03AFD08B1072800D10020A8
:106D700010BD70B58CB015460E4600236C46C3F1AD
:106D80000F01415CE1545B1C102BF8D30D2104F181
:106D90001000FFF792FB0020C0F10F02315C22448B
:106DA000401C11740328F7D3684646DF0020C0F169
:106DB0000F01214491F820102954401C0328F6D3D8
:106DC0000CB070BD022001F049BC00000149C97837
:106DD00000F0A2BEDC33002070B50024064D06E0B2
:106DE0006868012110F8340006F01CFC641C287847
:106DF0008442F5D3002070BD28340020F8B5154634
:106E00000C460646052A01D20720F8BD06F004FD0F
:106E100018B906F0CBFC0028F7D1124900224E60C9
:106E20000C708D60C1E90422C1E906220E4D0DE00F
:106E300006EBC4002968009181788DF80110007874
:106E40000A4A694606F040FC0028DED1641EE4B21E
:106E5000EED2BDE8F84004480021054A001D00F0CC
:106E600057B8000028340020BC220300B1A1020062
:106E7000AD92020072B606F011F800BF05F040FEB8
:106E80000028FBD111481249401AC408012000EB28
:106E9000044010A105F04EFF11480068C00700D063
:106EA00000BE022000EB04400EA105F043FFBFF33B
:106EB0004F8F0B48E43801680E4A01F4E06111433A
:106EC0000160BFF34F8F00BFFDE70000E03D03000E
:106ED000303D0300466174616C206572726F720010
:106EE000F0ED00E053797374656D2072657365741D
:106EF000000000000400FA050EB500210091CDE964
:106F000001106A4644F20100FFF7B4FF0EBD000015
:106F1000084B9B7823B12AB120B10068037C1BB1D8
:106F200008207047072070470023037441744261B2
:106F300018467047F042002070B509F0B5FA1048C5
:106F400000240B21047044700E4D817014206C607D
:106F50002C706C70FFF7DEFB06211420FFF7FBFBA3
:106F60001420FFF7E2FB0848046006211120FFF718
:106F7000F2FB0548001F0068A860002070BD0000FB
:106F8000F042002048340020081501402DE9FC475C
:106F9000DFF8789099F8023073B368B3052902D20C
:106FA0000720BDE8FC87436933B3437C012B25D020
:106FB000002704460025884616468DF8005068468E
:106FC00000F038F801A80AF065FDC8B10121017090
:106FD0000F4944600968C0E90218C0E904769DF8C9
:106FE000040089F801009DF8000000F047F8142023
:106FF000FFF7A6FB2846D4E70820D2E70F46D8E7DC
:1070000004259DF8000000F039F8F3E7F042002075
:10701000041501400649897839B130B1416921B17F
:107020000021017402210AF031BA082070470000E3
:10703000F042002030B5EFF3108172B60D4A94682B
:10704000012324B10370002900D162B630BD9360E2
:107050004FF0E023D3F88051074C25401560C3F86A
:107060008041D3F8844154605A17C3F88421002228
:107070000270E8E7FC430020FC06FFBD0B498A686C
:10708000002A11D000280FD1EFF3108072B60B68E0
:107090004FF0E022C2F800314B68C2F80431002200
:1070A0008A60002800D162B670470000FC430020CF
:1070B0002DE9F041064608680C46411C4FF0A047F8
:1070C0004FF0010506D005FA00F1C7F80815206851
:1070D00005F0E2FB6068411C02D0002105F0CAFB0C
:1070E0003168A069C1F82405607D227D31681043B4
:1070F000C1F86C05D4E900123068C0F81425C0F856
:107100000C15207D012815D1A068411C02D000215A
:1071100005F0B0FBE068411C05D08540C7F8085574
:10712000E06805F0B9FBD4E902123068C0F8082520
:10713000C0F81015BDE8F0812DE9F0410646086859
:107140000C46411C4FF0A0474FF0010506D005FA50
:1071500000F1C7F80815206805F0A8FB6068411C1D
:1071600002D0002105F08FFB3168A069C1F8240529
:10717000607D217D32680843C2F86C05D4E90012B5
:107180003068C0F80C15C0F81425207D012815D1F1
:10719000A068411C02D0002105F075FBE068411C8D
:1071A00005D08540C7F80855E06805F07FFBD4E9B5
:1071B00002123068C0F80825C0F81015BDE8F0814B
:1071C00003F006BF2DE9F047814605884A484FF095
:1071D00000088AB001784246284600F0B5FC99F8CC
:1071E0000500400701D4002176E005F58077B8B2AC
:1071F00001AB0122072107F01BFC04003F48404A75
:107200004FF00101A0EB02004FEAD00001EB004675
:107210000AD0204606F0A4F9024630462B463949EA
:1072200005F093FD214629E0284603F03DFB4FF68B
:10723000FF71044688422BD18A46029803F09EFAD9
:107240000446504510D00146284603F00DFB284661
:10725000FFF7BCFDE0B9284609F096FB2846FFF78A
:10726000B5FD0028BFD013E007F0AEFD0446504541
:1072700008D1304624A105F05DFD0421284609F01F
:10728000B1FBB0E70146284603F0EEFA4FF00108E3
:10729000B8B22246072107F043FC07001BD0862F17
:1072A0001ED006F05DF9024630462B462349009475
:1072B00005F053FD3946284609F094FB0021484665
:1072C00007F0AAFAB8F1000F02D0204603F0D6FA70
:1072D0000AB0BDE8F0870121484607F09DFAF7E7BC
:1072E0001822174903A8FFF7C1F8ADF80E5003A8FC
:1072F00002F010FAEFE70000DC330020803D0300CD
:10730000303D0300C0310300436F756C64206E6F25
:107310007420616C6C6F63617465206E657720709A
:107320006565725F696420666F7220696E636F6D58
:10733000696E6720626F6E642E000000DC3203000D
:107340003C2203002DE9FC470025178806461580DE
:1073500090F82D001446894630B13A4621464846F9
:1073600000F0A6FC051E09D1B0784FF00C0A18B346
:107370002088C846001DB84202D95046BDE8FC87A7
:10738000684679DF0028F9D12088032108F8001029
:1073900020881921401C80B2208008F80010208825
:1073A000401C80B2208000EB0801BDF800000AF00C
:1073B00092FA218808442080F0780222C8B12188FE
:1073C00096F9033001F1030C4846BC45D5D8425428
:1073D00021884FF0010C491C89B2218000F801C0BE
:1073E0002188491C89B2218009F801302088401C7D
:1073F00020807068B8B1218890F9003001F1030C49
:107400004846BC45B9D8425421880A22491C89B251
:10741000218042542188491C89B2218009F8013019
:107420002088401C2080308950B1CDE900474B4670
:107430000622022106F108000AF044FB051E9DD138
:10744000308A50B1CDE900474B460722032106F1AF
:1074500010000AF037FB051E90D1308B50B1CDE9FA
:1074600000474B461522142106F118000AF02AFBAA
:10747000051E83D1306A30B13B462246494601F0B1
:1074800078FD051EDBD1706A30B13B462246494685
:1074900003F0C2FF051ED2D196F82C0038B13B464E
:1074A00022464946304609F0DFFB051EC7D1307839
:1074B00038B13B4622464946304604F05DF8051E89
:1074C000BDD128465AE7F8B506464FF00000150032
:1074D000ADF8000015D009236A46304600F025F8C3
:1074E0000446BDF80000064458B154B12846FEF7E2
:1074F000EFFFA04205D1224631462846FEF7FDFFA8
:1075000008B10020F8BD0120F8BD18B504460020E0
:10751000ADF8000013466A46204600F006F8002841
:1075200002D0BDF80000204418BD70B588B182B10A
:107530000024158803E0065D641C3444A4B2A5420F
:1075400003D8061976789E4201D08C42F3D38C4240
:1075500001D3002070BDA11C1180005D401E80B2CF
:1075600070BD2DE9F0418AB006460020ADF8140048
:107570001346102088468DF804000D4606AA01A97E
:10758000184664DFA6B398BB9DF80400022804D017
:10759000042807D0102839D10DE003208DF8100001
:1075A000022003E005208DF8100004208DF8110062
:1075B000002404AF0FE007208DF810000620F5E747
:1075C0003B5D05AA41463046FFF7AFFF641CE4B2BD
:1075D0000546022C04D2BDF814000028F0D003E0C8
:1075E000BDF81400002812D080B2064400240BE03D
:1075F0000CE030199DF8042006A9FEF77EFF48B183
:107600009DF80400204484B2AC42F2D300200AB0BA
:10761000BDE8F0810120FAE780F8301070470000E3
:107620002DE9F0470D00044606D02CB195F87A00FC
:107630000026012803D006E00E20BDE8F08795F86B
:107640009800012829D0D5F8A000042825D0D5F825
:107650009C00042821D04FF00109A6702C2205F1CE
:107660007801201DFEF702FF84F83060D5F8A400F1
:107670006063D5F8A800A0634FF6FF70A4F8480235
:1076800004F50D70C4F84402C4F84A62A4F84E62CE
:1076900084F85062207810B104E00720CDE7FF2085
:1076A00084F8540004F15501C4F8341294F824000D
:1076B000EE274FF01F08012833D0A4F8388200BF0E
:1076C00004F50E722846FFF73DFE0028B5D104F2FE
:1076D0004311C4F83C1294F82400012824D0A4F8E3
:1076E000408200BF04F5107205F13C00FFF72AFE4E
:1076F0000028A2D184F85190208BA4F8480084F887
:107700003C90266484F85060606960644D4604F1E2
:107710003C02002104F1540072DF00288DD1257055
:107720008BE7A4F83872CBE7A4F84072DAE710B51B
:107730000288102A1BD0112A20D0262A1DD1007AB7
:107740000C46012801D0022817D1A0780521401C41
:10775000B0FBF1F201FB1201204600F01EF80028F8
:107760000BD0A16B002908D0BDE810400847C27BB0
:10777000012A02D18088A1F8480210BD0C460021E0
:1077800084F852128088B4F848128842F5D12079E2
:107790000028F2D10121DFE770472DE9F05F0446B0
:1077A00000780F4698B1A7700025C4F84A52A4F893
:1077B0004E5284F85052A079012608B1012F09D009
:1077C000E07980B1012F05D0022F03D00BE0082013
:1077D000BDE8F09F616B21B184F8516208208847B1
:1077E00001E084F8515204F24B2100200A5C0AB1F6
:1077F000304603E0401C0628F8D300204FF0020872
:107800004FF0030B012F06D0022F0CD0032F0FD007
:10781000042F15D110E0A17929B194F8241011B9E1
:1078200008B130460DE0E17911B108B1404608E0F9
:10783000207A08B1584604E0607A08B1042000E0DC
:107840002846A070616B41B1032801D0042804D1FF
:10785000607910B194F85202A0B184F8535204F147
:107860003C0018210746FEF728FE04F12C0084F89E
:107870003C60814607F0D4FB58B194F82C0084F8A2
:10788000510008E084F8545284F853620720884776
:10789000E5E784F8516094F8240050B1484607F0B9
:1078A000BFFB20B194F8280084F8520001E084F86E
:1078B000526084F85050A27804F24A2104F50D7900
:1078C0004FF0060A052A62D2DFE802F07A030F229F
:1078D000410084F83160C4F84452C4E9101584F8BA
:1078E0003C808020A4F8480053E084F8318094F86C
:1078F0002420384612B10722027001E080F800B05F
:10790000228A8281C4F844524160E168B96040E053
:107910006069B860208BB88194F824003D4610B1AE
:1079200084F83CA001E084F83C6020460AF08EF820
:1079300050B185F814800421204602F007F930BBCD
:10794000052184F8311020E084F831B01DE0E069B1
:10795000B860208CB88194F824003D4610B184F8BA
:107960003CA001E084F83C6020460AF06FF848B182
:1079700085F814800421204602F0E8F838B984F82C
:1079800031A002E0042084F83100C4F84492A078C9
:1079900078B13A4604F15400D4F8441272DF00285A
:1079A0007FF416AF94F8301094F8540073DF002879
:1079B000F6D1616B11B194F831008847002007E7D8
:1079C00084F83150F5E7000070B5040012D001468C
:1079D0001C221448FEF74AFD1248134D056020682A
:1079E00050B17ADF002806D120680168296040681C
:1079F000686005E00E2070BD0B487BDF0028FAD1DF
:107A000008484FF6FF711438084A20F8041B05494E
:107A1000343901600021FFF77BFA0028EBD0032006
:107A200070BD0000403A002024330020E519030017
:107A3000054808B5C16800918168684603F0BDFE3D
:107A40000098FFF72FF908BD5C3A002010B50446F6
:107A500000F09AF8002805D02146BDE81040024801
:107A600003F087BE10BD00006C3A002070B51546CB
:107A70000E46044609F0F6FF002809D0054800EB41
:107A8000840080692A463146BDE8704002F08AB819
:107A900070BD00005C3A002010B5044600F074F898
:107AA000002805D02146BDE81040024803F061BE21
:107AB00010BD0000703A002070B50546002400F0AB
:107AC00063F838B12946044803F053FE08B1022494
:107AD00000E00124204670BD683A002070B50546DC
:107AE000002400F051F838B12946044803F041FE63
:107AF00008B1022400E00124204670BD643A002051
:107B000010B51821034803F00FFE182800D0C0B2AA
:107B100010BD00005C3A002070B505460C460846D2
:107B200009F0A0FF60B1284600F02EF840B10548EA
:107B3000294600EB8400BDE87040183003F019BE00
:107B4000002070BD5C3A002070B5054614460E4614
:107B5000084609F087FF002812D0284600F014F8E4
:107B600000280DD00748294600EB860018301CB1CC
:107B7000BDE8704003F008BEBDE8704003F0B9BD39
:107B800070BD00005C3A0020142801D3002070472B
:107B90000146014803F0EDBD603A002070B540B1E8
:107BA0000C4D297839B1044608F0B4FB28B1002007
:107BB00070BD0E2070BD082070BDE868062807D291
:107BC0000549226801EB8001401C0A60E860EEE78D
:107BD000042070BD2C330020D43A002040B1054968
:107BE00000220123CA600B70C1E9010210467047F0
:107BF0000E2070472C33002070B504002DD00029D2
:107C00002BD020480078002827D020880D46112846
:107C100015D0302804D0322807D033281ED109E0EF
:107C2000211D284606F042FC18E0211D284606F0DA
:107C3000FDF913E0211D284606F0F4FA0EE0A088B5
:107C4000B5F8CA12884209D1002085F8C70285F824
:107C5000C8024FF6FF70A5F8CA0270BD95F8C802B9
:107C60000028FAD020883028F7D34F28F5D8A088EC
:107C7000B5F8CA128842F0D12846BDE8704001F03C
:107C8000C9BB00002C33002048B1084A137843B127
:107C9000D26832B190F8C7222AB1112070470E2065
:107CA00070470820704701F0B5BB00002C3300205E
:107CB0007CB5054608880C460930904201D90C2055
:107CC0007CBD68466DDF0028FAD121880820685401
:107CD00020881B21401C80B2208029542088401C11
:107CE00080B220802844DDF801100160BDF8051045
:107CF00081802088801D80B220809DF80010490876
:107D000000D0012129542088401C208000207CBD07
:107D100010B504468088FFF7CFFE012814D02188D3
:107D2000262911D0022801D01D291CD10E49204638
:107D300000F0B0F90C4920460C3100F0FDFA204665
:107D4000BDE8104005F0E6BF074920466C3900F059
:107D50006BFA054920461C3900F0D5FB2046BDE8EA
:107D6000104006F0EDB810BD9435002010B51A4C47
:107D70000188606810290ED011292BD1401E606047
:107D800028D1FEF7DBFF002824D02168002921D06C
:107D9000BDE810400847D0B900210122084600F094
:107DA0001DFD08B107280FD107220221012000F094
:107DB00015FD08B1072807D104220221002000F098
:107DC0000DFD20B1072802D0216801B18847606805
:107DD000401C606010BD00001C3300202DE9F047FE
:107DE00001883B4E40F2F3194FF6FF7510291BD066
:107DF00011293ED0122954D0502946D1C188F28988
:107E0000841D914241D1618902293ED18688304644
:107E100002F0F8FD050038D004F10C0000F0DFFBA3
:107E2000A8B3294630464EE0C17B87880446012925
:107E30002BD1A846284602F0E5FD050017D02F807B
:107E400000202872234843464A460168C5F80A10B4
:107E50004068C5F80E0004F1100105F10A0002F0B7
:107E60008FFE6872F08900280FD129462AE004208D
:107E700013E0808802F0C6FD040006D06068FFF7BA
:107E8000C9F808B108F092FD2580BDE8F087FFE74A
:107E90006868FFF7BFF80028F7D0BDE8F04708F0A2
:107EA00085BD87880646384602F0ACFD0400ECD05C
:107EB0002B464A4606F1080104F10A0002F060FE72
:107EC000607221463846BDE8F04701F099B80000DD
:107ED000403A0020243300202DE9F04F07468588E2
:107EE00002883D48012197B08346102A09D0112A03
:107EF00049D01A2A6CD1387AB1EB101F45D2012231
:107F000044E0354C083CA068C0430B9061680BA866
:107F100003F053FC0B990CA801F00CF82C220CA9CF
:107F20006846FEF7A3FA0026E946A04610E000BF27
:107F300009EB46005FF00004B0F804A008EB8400F1
:107F40005146001D03F0D5FB641C1D2CF6D3761C96
:107F50000098B042ECD8142D05D317B00420BDE82A
:107F6000F04FFEF7C9BF2946584603F00DFC2946DD
:107F700008F1040003F008FCF87B012828D016481B
:107F80002946001D15E029461AE000220221B1EB26
:107F9000101F01D2012600E000260F49083901F127
:107FA0001000041D294682B103F0EEFB36B12946CC
:107FB000204617B0BDE8F04F03F0E6BB2946204647
:107FC00017B0BDE8F04F03F094BB03F092FBF5E768
:107FD00017B0BDE8F08F0000643A002010B50446E9
:107FE0000748007800280AD0204602F039FB2046D6
:107FF00008F0DEFE2046BDE8104001F015BF10BDC0
:108000006C33002030B1018012B11168C0F8021049
:10801000002070470E20704770B5E8B10F4C028801
:10802000438820680E4D00EB8001401C00F00700E3
:10803000206005EB810102204B81C881081D086189
:1080400000248C810120087208714C710A808870AC
:1080500009F07AFA204670BD0E2070BDFC33002076
:10806000D040002008B598B191B101228DF80220CE
:1080700041F60D02ADF80020096881604FF6FF71EE
:1080800001800021418081806846FFF787FD08BD9F
:108090000E2008BD0A460146100029D0002927D02D
:1080A0000A88112A1AD0382A03D0392A20D106F09A
:1080B00087B900888A8890421AD1C888A0F5807153
:1080C000053909D0A0F580710F3905D00949087923
:1080D000401C00F00700486009F036BA0288898821
:1080E0008A4205D14FF6FF710180002141808180D5
:1080F00070470000FC33002030B50446008C8BB084
:10810000A0F57F42FF3A23D005AA204602F0AEF93F
:108110000546ADF800000020019002900390049005
:108120002189ADF804100121ADF808008DF8061082
:1081300005A8CDF80CD00490208C01A9AEDF002852
:1081400004D1BDF80010A94200D00C200BB030BD06
:108150000820FBE7F0B504468FB008682060087976
:1081600060714FF6FF702084002084F82200A4F88C
:108170004C001427012684F84E708DF8226041F6D9
:108180000D000D46ADF82000A21D08A93046A8DF5D
:10819000002847D120216846FEF78FF942F63720A4
:1081A000ADF80000ADF8047009AA0021204602F0E5
:1081B0005DF9ADF8060009A802908DF80C609DF8F5
:1081C0000D0004F1080240F010008DF80D00287B2E
:1081D0008DF81300E088694600F02CFD002821D1BD
:1081E000A868F0B120216846FEF767F942F638200A
:1081F000ADF80460ADF80000ADF80660A868029024
:108200009DF80D0004F1100240F002008DF80D0001
:10821000687B8DF81100E088694600F00BFD0028AE
:1082200000D100200FB0F0BD38B50288102A15D05B
:10823000112A15D0502A16D130F8062F8B899A4270
:1082400011D10C46418902290DD1216800290AD09B
:108250000C3000F0C4F938B1002006E0808801E05D
:108260004FF6FF70088438BD01208DF800002268A9
:1082700069462046904738BD30B50A788DB0002A4F
:1082800036D18A88A2F5C0530D3B31D18A79012AB3
:108290002ED18DF800204A88ADF80220002242F647
:1082A00037240B7A13E000BF02EBC20501EB450552
:1082B000ED89A5420AD102EBC20201EB42010A8B11
:1082C000ADF80420C98AADF8061002E0521C9342B2
:1082D000EAD80188A1F57F42FF3A06D0418821B94A
:1082E000818811B90199C0F80210826869469047E7
:1082F0000DB030BD30B1018012B11168C0F802106C
:10830000002070470E20704708B598B191B1012246
:108310008DF8022041F61402ADF800200968816052
:108320004FF6FF7101800021418081806846FFF790
:1083300035FC08BD0E2008BD0A0001461BD00029EF
:1083400019D010460A88112A0BD0382A03D0392AAE
:1083500011D106F06EB80088898888420BD109F0E7
:108360000DB9028889888A4205D14FF6FF710180D4
:10837000002141808180704770B518B30288A2F552
:108380007F41FF391CD0104C4388104D206800EB12
:108390008001401C00F00700206005EB81010220F5
:1083A0004B81C881081D086100248C81012008725E
:1083B00008714C710A80887009F0E0F8204670BDA1
:1083C000082070BD0E2070BD0434002070410020D4
:1083D00070B58EB00D46040061D0002D5FD02868C6
:1083E00020604FF6FF70E082E888208301268DF838
:1083F000366041F61400ADF83400221D0DA9304658
:10840000A8DF002849D120216846FEF756F842F639
:108410005320ADF800001420ADF804008DF80C6076
:108420009DF80D0008AE40F010008DF80D00287981
:108430008DF8130008AA05F108012046029607F0FE
:108440008FFFADF80600A088A21D694600F0F2FB80
:10845000002822D120216846FEF72FF842F654204A
:108460000221ADF80000ADF80410E8888DF8200076
:10847000000A8DF821009DF80D00ADF8061040F0BF
:10848000020002968DF80D0068798DF81100A08821
:1084900004F10E02694600F0CDFB0EB070BD0E2057
:1084A000FBE730B58BB0040029D041B3E08AA0F5DA
:1084B0007F42FF3A25D005AA204607F051FF054626
:1084C000ADF8000000200190029003900490E18834
:1084D000ADF804100121ADF808008DF8061005A8CC
:1084E000CDF80CD00490E08A01A9AEDF002804D1B9
:1084F000BDF80010A94200D00C200BB030BD0E20FA
:10850000FBE70820F9E738B500291FD000281DD067
:108510000288102A15D0112A15D0502A16D130F809
:10852000062F4B899A4211D10C46418902290DD15F
:10853000216800290AD00C3000F051F838B1002031
:1085400006E0808801E04FF6FF70C88238BD012048
:108550008DF80000226869462046904738BD00002B
:1085600030B50A7885B0002A37D18A88A2F5C05381
:10857000143B32D18A79012A2FD14A88ADF80220E2
:10858000002242F653240B7A13E000BF02EBC2052F
:1085900001EB4505ED89A5420AD102EBC20201EBD0
:1085A00042010A8BADF80420C98AADF8061002E03A
:1085B000521C9342EAD80188A1F57F42FF3A06D0C7
:1085C000418821B9818811B90199C0F802100121AF
:1085D0008DF8001082686946904705B030BD00787C
:1085E00000F00100704700000649095C4FF0A04010
:1085F000D0F81005C84010F0010000D0012080F034
:1086000001007047352003002DE9FC410646C007F4
:108610004FF000050ED0104F00240122385D009568
:1086200000231146019504F0CBF8641C042CF4D30C
:1086300000F046F8B0070DD5074E0024361D002285
:10864000305D032300951146019504F0B9F8641CD0
:10865000042CF4D3BDE8FC813120030007490B5CF6
:108660004FF0A041D1F804250120984020EA0203F0
:10867000C1F808351040C1F80C05704731200300DF
:108680000249085C012104F02CB9000031200300EC
:108690000249085C002104F024B9000031200300E5
:1086A0000649095C4FF0A040D0F80405C84010F01E
:1086B000010000D0012080F001007047312003004C
:1086C00010B500242046FFF7DBFF641C042CF9D30F
:1086D00010BD10B500242046FFF7DAFF641C042CFF
:1086E000F9D310BD10B50246064B4FF0FF30002104
:1086F0005C5C944201D1084610BD491C0429F7D3A3
:1087000010BD00003520030070B50C4E0C004FF07A
:10871000000530600BD0012000F05AF808B10220AB
:1087200004E0002000F054F800B10B2020707068C5
:1087300010B9FEF703FB0546284670BD1C33002028
:108740002DE9F0470D468146FFF7CCFF044604288B
:1087500036D2DFF874801B481C4EA8F10C0725B3F5
:10876000012D0ED0022D2BD104EB4400304445786E
:10877000002D25D0B968002922D02846BDE8F04751
:10878000084704EB4401755C0E44717849B10E4A08
:108790004FF40041093A8068FEF7F8FB08B987F802
:1087A0000390B17808F80410E2E78068FEF732FC25
:1087B00004EB4401314418F804008D78A842D7D066
:1087C000BDE8F0873C20030018330020E03900208A
:1087D000042801D2FFF708BF0020704770B50023BE
:1087E000042810D20D4D00EB4004012A02D10129CA
:1087F0000CD00022094E00EB4000304461B1012949
:1088000006D0022906D00723184670BD0E30C2B22A
:108810002A55F9E74270F7E78270F5E7E039002062
:1088200070B506461E480024C0E90161B00720D596
:108830000025012211462846FFF7D0FF6D1C044693
:10884000042D02D2002CF4D013E094B940F26662F9
:1088500004211448FEF7D2FA04000AD1FEF7BCFA4C
:10886000040006D10F48104A0021001FFEF750FBFC
:108870000446F00712D00120FFF7C6FE74B909487C
:108880000A4A00210C38FEF743FB040006D10548D4
:10889000074A01210838FEF73BFB0446204670BD1D
:1088A0000C33002048200300518B020079AC0200F9
:1088B000C56D02002DE9F05F6E4C0546002660781C
:1088C000B34618B184F801B002F0BEF96A4F4FF414
:1088D0007A694FF4C87A4FF00108182D69D2DFE8A1
:1088E00005F00C1313384754696E727B727BC58494
:1088F00084848484B3B6B9BCC5C502F0A5F93868D0
:10890000FEF788FB06465CE00020FFF7C9FE002862
:108910004FF0000008D0FFF7B3FE022D02D14FF454
:10892000E16008E0484606E0FFF7B2FE022D01D103
:10893000C82000E05046410CC0034FF4FA72801882
:1089400041F10001257052000023FDF74BFD014667
:108950002AE00020FFF7A4FE00284FF0000004D01A
:10896000FFF78EFE4FF44870E5E7FFF791FEDFE773
:108970000020FFF795FE00284FF0000002D0FFF71F
:108980007FFECFE7FFF784FED4E70020FFF788FEE5
:1089900000284FF0000002D0FFF772FE01E0FFF761
:1089A00077FE257041F69A1100223868FEF7EEFA3C
:1089B000064646E00020FFF751FE257008E0002043
:1089C00051E025703DE084F801800120FFF746FE6C
:1089D000002240F6CD41E8E784F801800120FFF74E
:1089E0003DFE00224FF48041DFE77868FEF712FB7E
:1089F0000646D5F1110000D02EB10220FFF740FE4F
:108A000084F802B01DE0012816D980B2C82148437D
:108A1000C117C90341EA5041C0034FF4FA728018EC
:108A200041F1000152000023FDF7DCFC0146002269
:108A30007868FEF7ABFA06460220FFF729FE84F8B5
:108A400002803046BDE8F09F02F0FEF8B9E702F080
:108A5000FBF8B4E702F0F8F804E002F0F5F80020C3
:108A6000FFF716FE0120FFF713FEAAE7FFF731FE1E
:108A7000A7E700000C3300203C2003002DE9F84359
:108A80000546861C00208DF8000090460F464FF0EA
:108A900001096846FEF7CEFA1B4C20683860D4E91D
:108AA0000001401AA16804F21C47081A0EE00121D7
:108AB000384602F07CFE02F06DFB0146384602F0BB
:108AC00076FED4E90001401AA168081A401C8642CB
:108AD000EDD8B8F1000F03D0052065F3891002E04E
:108AE000062065F39F50A2682168114004EB8101C4
:108AF000C8602068304420609DF80000FEF7BEFA90
:108B00004846BDE8F88300004C47002070B50D468C
:108B100004460A2902D10D21FFF7F8FFA068226858
:108B2000411CA1601554D4E90101814204D32046BF
:108B3000BDE8704003F0E1BA70BD0000034803C80F
:108B4000814201D101207047002070474C4700202E
:108B500000780221FFF7F4BD1CB5044601F0A4FE25
:108B600000236A46092106F0A5F8052805D1034827
:108B7000012241792046FEF7E7FF1CBD3C3300206F
:108B80001CB504460020009042F6A620ADF8000077
:108B900001208DF80200084801AA6946006801908A
:108BA0002046A0DF002805D1044801228179204613
:108BB000FEF7CAFF1CBD0000E42003003C33002088
:108BC00005494FF0FF32082841F8202002D308441D
:108BD00080F848207047000024420020F0B54FF094
:108BE000FF3512B10023082601E008230C260C4CA7
:108BF00005E000BF54F823707F1C04D05B1CB34217
:108C0000F8D32846F0BD26185DB286F8305044F8F7
:108C10002310002AF5D1E11881F84800F1E700009F
:108C2000244200200249084490F9300070470000B7
:108C3000244200202DE9F0438146887891B0904687
:108C40000C4600B901208DF83E002088ADF83C00AC
:108C500000250095607C694608F092F86E46A07C7D
:108C6000711C08F08DF8E07B00289DF8020002D00E
:108C700040F0080001E020F008008DF80200217C9F
:108C800011B140F0100001E020F010008DF802005A
:108C9000217B11B140F0010001E020F001008DF8CE
:108CA0000200217D09B1022100E0012161F34200AF
:108CB0008DF802001C2102A8FDF7FFFB607BC106B6
:108CC00001D4800617D50E950EAFE07C791C08F014
:108CD00057F89DF83800079720F00F00401C20F04F
:108CE000F00010308DF838009DF83A0020F00600B2
:108CF000801C8DF83A00607B8DF80800A07B8DF811
:108D00000900142109A8FDF7D8FB0FA8CDE9090631
:108D1000A088ADF83000A06820B1E088ADF82C0044
:108D2000A0680D90A06998B301950088ADF8100077
:108D3000A06901AD01A94088ADF81200A0694068A2
:108D400006950390A069007B08F01AF8A069691CD9
:108D5000407B08F015F8A069807A00289DF806008D
:108D600002D040F0080001E020F008008DF8060075
:108D7000A169C97A11B140F0100001E020F01000A3
:108D80008DF80600A169097A19B140F0010002E0EE
:108D90000DE020F001008DF80600A169897B09B182
:108DA000022100E0012161F342008DF80600E06934
:108DB00000B10590434609AA02A94846AADF11B0AE
:108DC000BDE8F08308B5024690F8C6020B4600EBFA
:108DD0008001C1EB801002EB400092F8C52242B145
:108DE000521ED2B202EBC20100EB4102518A491C71
:108DF00000E0C188ADF800100089ADF802006946B6
:108E000018469DDF08BD70B504464FF6FF750A464B
:108E10002846AC4209D14FF480742146104602F036
:108E200083FC80B2A0420BD070BDFF2CFCD8214641
:108E3000104602F069FC90F0010F01D0204670BD91
:108E4000284670BD70B5084C050009D01034216863
:108E5000002907D008682060496828468847F6E757
:108E60000834F4E770BD000010420020054A0121DB
:108E700020B1012805D19170FFF7E4BF51700020A7
:108E8000FAE77047104200202DE9F05F264841685C
:108E9000F1B3DFF898B00E688146DBF800408768D0
:108EA0008078E11B21F07F45ED1CB0B9DFF88080B0
:108EB0004FF48030C8F84403C8F804031120FDF7CC
:108EC00029FC1120FDF731FC4FF0010AC8F800A081
:108ED0002F2004F09FFB89F802A0B54200D235464E
:108EE000124BE8193C3320F07F401860DBF800108B
:108EF0005A46091B21F07F41001B20F07F40C91C0E
:108F000081420FD9106818602F2004F083FB00E025
:108F100004E0BDE8F05F1120FDF712BCBDE8F05F92
:108F200007F0C2BABDE8F09F4834002004150140A4
:108F30000010014073B58CB00646002000900D98DB
:108F400080B100246D4621460DA802F012FC30B11C
:108F5000009805EB400084800098401C0090641C41
:108F6000142CF0D32C2269463046FDF77FFA0EB060
:108F700070BD2DE9F04117880646B81D14460D4610
:108F8000984202D90C20BDE8F081318807220629D9
:108F90000AD34FF4486C4FF6FF73614501D99942EB
:108FA00002D17088062801D21046ECE7604501D94D
:108FB0009842F9D1994203D0984201D08142F3D826
:108FC0000520E85520881221401C80B220802954B9
:108FD0002088401C80B220804119308808F07BFC3A
:108FE0002188084480B220804119708808F073FC01
:108FF0002188084420800020C5E7FDF77DBF0000E0
:1090000038B54A7A0F4B62B100220A7259690029B9
:1090100006D001228DF80020ADF80200684688478E
:1090200038BD0A7A62B19B684C68024619462046F0
:10903000FDF7ACFF0028F3D0BDE8384007F0B6BC20
:109040005B68F1E7403A0020F0B587B016460F465E
:1090500004461D4618220B496846FDF707FA0A48E0
:109060008DF80870ADF80240ADF80A608DF80C502C
:10907000017800222046FEF767FD684600F04AFBB3
:1090800007B0F0BD54220300DC330020FDF76CBDB7
:1090900070B588B00646002005900690ADF8141013
:1090A000ADF816100190029001AA05A9304690DF94
:1090B000050021D004F054FA034611481149324604
:1090C000401AC108012000EB014004460E4903F09C
:1090D0003CFEBDF8042012B9BDF8060028B1BDF869
:1090E0000630204609A103F030FEBDF808201AB171
:1090F0002046164903F022FE08B0284670BD000045
:10910000503D0300303D03007C2A03005468652075
:109110007265717565737465642054582F525820B8
:109120007061636B6574206C656E67746820697329
:1091300020746F6F206C6F6E672062792025752F09
:109140002575206F63746574732E0000C82A0300B0
:1091500010B5044601460548FFF78EF8214603483E
:10916000BDE810400C30FFF7FBB90000943500203B
:1091700070B504460948012102F034FBBFF35F8F4C
:109180000025002808D1204601F07EFF002803D1E9
:10919000BFF35F8F0148056070BD000048330020B9
:1091A0007FB50C4610B1012004B070BD20790026B7
:1091B00038B141F61D5501281BD0022826D00F20BA
:1091C000F2E70220207102960396E068019069465A
:1091D00001A807F005F850B102988188E180008865
:1091E0002081BDF80010029807F078F8DCE70A202B
:1091F000DAE70A4B6A460021A01D06F0ADFF38B140
:10920000064918398E61CE610A28CDD12846CBE7B0
:1092100002488188019807F061F8F5E7743400206E
:109220002DE9F843054690F8C6020F4600EB800191
:10923000C1EB801005EB400695F8C542914604EB62
:10924000C40006EB40013279601C0A31904226D1FD
:109250006B460022284601F0B5FC18B310E0401E12
:10926000A04201D1002004E004EBC40006EB400062
:109270001C30804602466B46284601F0A3FC30B104
:1092800000203870694648469EDFBDE8F88395F8AF
:10929000C5024146401C641C85F8C502E4B2307921
:1092A000A042DCD8012038700020EEE72DE9F0471D
:1092B0000025DFF890803DE06068002100EBC506E6
:1092C000012032789146FDF7BEF8D4E9062300EA82
:1092D000020701EA030C57EA0C0729D082438B43AB
:1092E0004846C4E9062304F057FA3278824691468C
:1092F00001200021FDF7A7F8D4E9042300EA0204C5
:1093000001EA03074A4650460021FDF79CF8444015
:109310004F403C430CD17078012801D0012000E07F
:109320000020726880EA0A0012B1C1B24846904734
:109330006D1CEDB298F8000044468542BCD3BDE8F0
:10934000F0870000283400202DE9F047894690F886
:10935000C612904601EB8102C2EB811100EB41077E
:10936000384606F0D7FF06002FD0194CA068062813
:109370002BD2184D762205EBC0103946A0F802809A
:10938000001DFDF773F80027B9F1000F04D0A068A5
:1093900005EBC010077004E0A168022005EBC111C5
:1093A0000870A06805EBC011401CCE67A060E168A2
:1093B00088420AD1002604E005EBC610C16F884739
:1093C000761CE0688642F7D3A760BDE8F08700000E
:1093D0002C330020EC3A002070B50E4690F8C612EF
:1093E000154601EB8102C2EB8111A0B000EB4100F8
:1093F00006F090FF040009D07C2205496846FDF77D
:1094000035F8ADF8025068460196A04720B070BD0F
:109410006820030070B50E4604464FF43371FDF723
:109420004CF811480025A4F8CA62856084F8C95236
:109430000E4884F8C65284F8C5520068206022465F
:10944000012130469BDF0121112806D0002809D1D7
:1094500084F8C71284F8C85203E084F8C71284F86D
:10946000C812002070BD00002C330020D43A002028
:1094700010B50021024802F0B5F980F3100010BDCC
:10948000684B00200E4910B50A784C780023A242A0
:1094900012D0521CD2B20A70022A00D10B70084AB4
:1094A0000B780C3252F8232002608868104420F0B8
:1094B0007F408860012010BD0360002010BD0000C7
:1094C0004834002013460A460021FFF7BDBD0000C6
:1094D0002DE9F843104D0F4680461E4691466946D9
:1094E000286802F0DAF8040014D01C21FCF7E5FF2C
:1094F00001202071C4F81490380BC4F80080C4E92E
:1095000002606946286802F0E9F806F091FD002043
:10951000BDE8F8830420FBE76023030010B503785F
:109520000022072B06D2DFE803F0050406102029ED
:1095300030000A7010BD01230B7003898B81838872
:10954000CB81C06888600A7410BD02220A7002894B
:109550008A818288CA81C2688A60807D062802D09A
:109560000020087410BD0120FBE703220A70C288A6
:109570008A810289CA81C068886010BD04230B708B
:10958000C0888881CA818A6010BD0520087010BD1E
:1095900070B5064D0646002455F8241009B1304632
:1095A0008847641C042CF7D370BD000024440020BD
:1095B00030B50446006887B00D46806800281FD08B
:1095C00018216846FCF779FF0195A068059020797D
:1095D00010B1012810D107E001208DF800002069AA
:1095E0000290E068039005E002208DF80000E0683A
:1095F000000302906069049020688168684688478B
:1096000007B030BD2DE9F04186B016460C0080460B
:1096100029D0112C27D0082C25D018216846FCF71A
:109620004CFFADF80280404601F03EF9ADF8040071
:109630001B481C490027401AC5080D2C16D020468F
:1096400003F08EFF0246012000EB05404346164919
:1096500003F07BFB07208DF8000002948DF80C705E
:10966000684600F065F806B0BDE8F081022000EB26
:10967000054042460D4903F061FB03208DF80000D0
:1096800026B13078C00701D0012000E002208DF81B
:10969000080041F201108DF80C70ADF80A00DFE708
:1096A000883D0300303D0300FC340300EC3303002D
:1096B00010B50446408801F0F7F8A0800248016820
:1096C0002046BDE8104008474433002010B504464A
:1096D000808801F033F86080024801682046BDE8C8
:1096E00010400847543300202DE9F041074600247C
:1096F000064E074D05E000BF56F82410384688474F
:10970000641CE8788442F7DBBDE8F08184400020E7
:109710006C33002010B50446408801F0C5F8A080E5
:10972000024801682046BDE81040084708220300AF
:109730000149096808470000AC22030070B586B0F3
:10974000044618216846FCF7B8FEA0890125A0F55B
:109750004040ADF804002078324E062835D2DFE8CC
:1097600000F0340303032E4EA08900F093F930B9C2
:10977000E08943F6FE71A0F54040884225D8A07BE1
:109780008DF808002078032811D000208DF80900FA
:10979000A0680390606860B109208DF800006068DF
:1097A00004908DF81450684605F0D6F90DE00120BC
:1097B000ECE708208DF800008DF81050F3E7A08941
:1097C00000F068F908B1E08930B17078002801D064
:1097D00005F00CFB06B070BD606840B10B208DF841
:1097E0000000606802908DF80C507570DBE70A206D
:1097F0008DF80000BDF8040005F096FBF5E7606801
:1098000058B114208DF80000606802908DF80C505B
:109810004FF6FF70ADF80400C5E713208DF8000087
:10982000F6E700005833002038B504460E480078AB
:10983000A8B1A4F57F40FF380FD0684606F02AFB98
:1098400078B10521017001210171C480684606F0DC
:109850002FFB06F0DFFB002038BD042038BD0220BE
:1098600038BD082038BD00007C3400200C4808B505
:10987000007888B1684606F00DFB78B106210170CA
:10988000684606F015FB0748017809B1012101730C
:1098900006F0C0FB002008BD022008BD082008BD5E
:1098A0007C340020E8440020F0B587B014216846DD
:1098B000FCF703FE2F4C207818B16846FFF768FECE
:1098C00055E0201D01F070FF98BB40F6F87001686C
:1098D000481C02D14FF0102041694FF080500269BE
:1098E00040694B1C01D100FB02F1234800220161B9
:1098F000A1F54051C160214902F094FD002822D118
:1099000020481C238C221E49006801F0B3FE04F09D
:10991000B5FE050016D0022D14D000270126062D15
:1099200013D005A806F0B6FA90B106700C2D19D226
:1099300000E01CE0DFE805F0160E160E16151615F1
:10994000161012100B2007B0F0BD26706760B4E748
:109950000820F8E7077105E0032100E0022101710A
:1099600000E0067105A806F0A3FA06F053FB0020FC
:10997000E9E700007C340020143500207023030048
:1099800034440020D822030038B5040014D06946BE
:1099900006F026FCA0B1BDF8000000EB80010948EC
:1099A00000EB8100C16849B1A17A39B1C168491E93
:1099B000C1600020A07238BD052038BD062038BD2A
:1099C0000A2038BDC04400201FB501A9684606F032
:1099D000C3FB04B010BD07B513460A466946002014
:1099E00006F0BAFB0EBD07B513460A4600216846CD
:1099F00006F0B2FB0EBD20B119B10068086000206E
:109A00007047052070470000F8B50D46040018D0D7
:109A1000BDB1694606F0E4FBA8B1BDF800000B49F2
:109A200000EB800001EB800001210C30666801F042
:109A3000BEFE2E6060680C3068600120A0720020BD
:109A4000F8BD0520F8BD0A20F8BD0000C044002084
:109A500018B10323002208F0C3B905207047022380
:109A6000002208F0BDB90000084910B50A69042AAF
:109A70000AD0074A096942F8210004480121103040
:109A800001F095FE002010BD0C2010BD5C340020BC
:109A90002444002043F6FE71A0F54040884201D8DE
:109AA000012070470020704770B51C4802F056F83E
:109AB000041E01D0FDF720FA1948FCF709FD40B15A
:109AC000174A0021154802F099F8041E01D0FDF74D
:109AD00013FA144E4FF6FF753088A84209D07088EB
:109AE000A84206D106F1080203210C4802F086F8CC
:109AF00004467088A84209D03088A84206D1094A95
:109B00000321121D054802F079F80446200003D015
:109B1000BDE87040FDF7F0B970BD00004C38002082
:109B200030200300582D002010B504460078182876
:109B300002D1FDF7E5FF207010BD10B50446007896
:109B4000182802D1FDF7DCFF207010BD70B50D465E
:109B50000446B0F83812D0F834020122FDF7D5FCE3
:109B600000B1057004F13C0204F50D7104F15400DC
:109B700072DF70BD70B5134600220546112900D171
:109B80000122074C33B12179FDF7DEFF0022617815
:109B9000284600E06178BDE87040FDF7D5BF0000C1
:109BA000E4330020F7B517460E0011D000980025C9
:109BB00060B100242146684601F0DBFD18B1A0B277
:109BC0003946B0476D1C641C142CF3D32846FEBDE7
:109BD0000020FEBD406806F07DB900000EB514A15E
:109BE0009DF8080020F00F00401C20F0F00010301D
:109BF0008DF80800092202A87CDF08B1FDF77CF986
:109C00000020009001900D48018EADF80010418EAB
:109C1000ADF80210818EADF80410C08EADF80600CC
:109C200068467ADF002801D0FDF766F90EBD000016
:109C30006E52462052656C61790000004C3800205D
:109C400070B508B1012070BD1B4C0025207B08B108
:109C5000257301E000F0A4F8207808282AD2DFE874
:109C600000F02904080C10291422BDE8704000F00F
:109C700025B8BDE8704000F081B8BDE8704000F044
:109C800063B8BDE8704000F03FB8062020706088DF
:109C9000094900EB8000283901EB80004068BDE8ED
:109CA000704004F0CBBC072020706560BDE87040B8
:109CB00004F0D2BC0F2070BDE84400201149F0B47C
:109CC0008A1C00200346A1F128050C18A67A4EB183
:109CD000A37200EB800405EB8404E66816B9247CCB
:109CE000012C0AD0401C80B20228EED30B704B80AE
:109CF0004B60F0BC41F61D5070471080F0BC00F086
:109D00003DB80000E84400200C48418801EB810286
:109D1000A0F1280101EB8201CA6852B1052101704E
:109D2000074802218180016800230122054802F0D2
:109D3000DDBA042202704968F6E70000E84400201A
:109D4000843400201435002038B50A49084803241B
:109D50000B684268898803EB810153880470DB1C1F
:109D600000201B0400909B0B034802F03BFC38BD15
:109D7000E84400208434002014350020074910B541
:109D80004888091D06F07CFA18B1BDE81040FFF7BD
:109D9000DBBFBDE81040FFF7B7BF0000E84400207C
:109DA000F0B51F481F490125067802248B88A0F1D1
:109DB0002802082E19D2DFE806F00418181B222FFB
:109DC0002F170189491C01810021418080F80C1066
:109DD00001EB810312F8233043B100234418491CDE
:109DE00089B2A3720229F3D30570F0BD0123F5E710
:109DF00042685288D21C1A448A800470F0BD46889A
:109E00000D6806EB860602EB860256680E6055600A
:109E100013818C80062100E007210170F0BD000055
:109E2000E8440020843400202DE9F0430646808871
:109E30003288DFF85C8187B00746502A37D010DCC3
:109E40005449554B06F10A05A1EB03014FEAD10134
:109E50004FF0020303EB0144352A3AD0362A07D1EA
:109E600068E0522A02D0542AF9D102E001F0B0F899
:109E700082E0182249496846FCF7F8FAADF802700A
:109E8000384600F011FDADF8040000F0D3F90022CF
:109E9000444698F804103846FDF756FE0022E17853
:109EA0003846FDF751FE6846FFF702FC64E0307B60
:109EB000012861D1B07A01285ED13089A0F5245102
:109EC000023959D10121384601F0D6F807F072FD68
:109ED00052E098F80610FDF71FFE00284CD0002233
:109EE00098F806103846FDF72FFEF288B2F5857F08
:109EF00017D012B120462AA10BE02A88012A03D0EC
:109F0000204636A102F01AFF6A88012A04D02046B2
:109F100041A102F013FF04E0A98800223846A1DF26
:109F200008B1002125E0012298F807103846FDF716
:109F30000BFE21E04FF0000998F80710FDF7ECFD4B
:109F4000D0B1002298F807103846FDF7FDFDF288E1
:109F500012B1204612A104E0AA88012A04D02046AA
:109F60002DA102F0EBFE03E0A87900B101208146AB
:109F70004946384607F0C6F90022364998F80200EB
:109F8000FDF774FD07B0BDE8F04306F097BD000093
:109F90003C330020383D0300303D030048210300DE
:109FA000556E65787065637465642047415454202C
:109FB000737461747573207768696C652067657464
:109FC00074696E6720434152206368617220766134
:109FD0006C75653A20307825780000004D756C74FA
:109FE00069706C65202825642920434152206368EC
:109FF0006172616374657269737469637320666FFB
:10A00000756E642C207573696E67207468652066B0
:10A01000697273742E000000556E65787065637404
:10A0200065642043415220636861726163746572A4
:10A0300069737469632076616C7565206C656E6701
:10A04000746820282564292C2073746F7265203071
:10A050002E000000C171020070B50446007800288F
:10A0600014D1608800F0B4FF6588284600F0A4F998
:10A0700028B107480122C1782846FDF765FD6088B0
:10A08000FEF76AFDBDE8704007F094BC70BD0000AB
:10A090003C33002070B5204C00252570FDF730FDC5
:10A0A0006070FDF72DFDA070FDF72AFDE070FDF753
:10A0B00027FD2071FDF724FD6071FDF721FDA071E2
:10A0C000FDF71EFDE07162780121182A18D0A278F0
:10A0D000182A15D0E278182A12D02279182A0FD01F
:10A0E0006279182A0CD0A279182A09D0182807D02A
:10A0F00004F10C000560BFF35F8F2170002070BD7C
:10A100000648074A801AC00801EB0040054902F0E2
:10A1100011FE032070BD00003C330020383D0300D9
:10A12000303D03003C2703007CB504460078082836
:10A1300037D1607A58BB207A1C4E4FF6FF75012844
:10A1400011D0072802D008282BD121E0A08800F0E8
:10A15000F5FA0446A84224D0012100F08DFF2046E4
:10A16000FEF7FAFC1DE0A0886A46012104F016FC07
:10A1700068B90198007850B1A08800F0DFFAA842D1
:10A180000FD00122F178FDF7DFFC06F097FC08E024
:10A19000F068012805D1BFF35F8F044900200C311E
:10A1A0000860BDE87C4007F005BC00003C3300209F
:10A1B0002DE9F0418046024601200021FCF743F9D9
:10A1C0001A4F05460E467868FCF724FF00280CD18C
:10A1D000174CD4E9062110462A4001EA06031A4327
:10A1E00005D0A843B143C4E90601BDE8F08140466B
:10A1F00003F0D2FA30B1D4E9040128433143C4E971
:10A20000040105E0D4E90410A943B043C4E90410F3
:10A21000D4E9060128433143C4E90601A1687868FE
:10A22000BDE8F0410022FCF7B1BE0000BC220300F3
:10A23000283400201CB5054AD2E90212CDE90012EB
:10A240000022694604F070FD1CBD0000642103007B
:10A2500003484FF6FF718180012101700020704793
:10A260004C3300202DE9FC41804600F01DFB00240A
:10A2700003250127A0F57F412646FF3908D06A460D
:10A28000082104F08BFB18B90198841D86880568A5
:10A2900032462B4621464046B1DF042804D0082828
:10A2A00004D00B2808D002E0112000E00020002F8D
:10A2B00000D10B20BDE8FC810027A80701D50125AE
:10A2C000E6E7344303D0002426460325E0E70648AA
:10A2D00006494246401AC008012101EB00400449EA
:10A2E00002F02CFDE5E70000403D0300303D030097
:10A2F000042A03002DE9FC41804600F0D5FAA0F5C0
:10A300007F410646FF390ED001252A466D1C0027E5
:10A31000ADB26B460821304604F08AFB040006D03B
:10A32000072C33D033E043F20200BDE8FC810199F1
:10A3300003230A1D0B604046891DB2DF040004D0D0
:10A340000C2C09D0052C09D009E032460821104612
:10A3500004F0E6FB04461AE0012700E0002408218F
:10A36000304604F0D3FB70B103F0FAF80346094815
:10A3700009493246401AC008012101EB0040074953
:10A3800002F0E3FC0324002FBFD100E00C242046A0
:10A39000CBE70000403D0300303D0300842903006B
:10A3A00004488088A0F57F41FF3901D006F090BBBA
:10A3B000704700004C3300200EB502A9019100F057
:10A3C00073FA6A46012104F0E9FA08B100200EBDD3
:10A3D000019800780EBD00002DE9F04107464FF6C8
:10A3E000FF761048B3DF78B103F0BAF802460E48A2
:10A3F0000E49401AC008012101EB00400C4902F04F
:10A400009DFC0320BDE8F081064C43F20305A41E29
:10A41000324661883846AFDFA842F3D16088401CDD
:10A420006080F5E74E330020403D0300303D0300DF
:10A4300038290300428800EB82020C328A4201D99B
:10A44000022070478188A1F57F42FF3A03D000883F
:10A4500008B10020704701207047884204D200688C
:10A46000401C01D001207047002070472DE9F041C9
:10A47000044640799046002500B1042594F8220056
:10A4800008B145F00205CAB2FF2908D9090A88F8BF
:10A49000012045F0010588F80210032602E088F843
:10A4A00001200226B4F84C0008B145F01005002741
:10A4B0001BE000BF94F84E10B21C91420BD2B4F8CE
:10A4C0004C0004EB4701C01B420004F1240024317E
:10A4D000FBF7CCFF0DE004EB470008EB0601808C96
:10A4E0000870000A4870D6B27F1CB4F84C00B8421D
:10A4F000E0DC34F84C0FC01B208088F80050304658
:10A50000BDE8F08170B506462448254A0C46801AFD
:10A510000978C008032202EB0040012919D0022962
:10A520003AD1A2881FA102F009FCA1882148FDF7B9
:10A53000E3FD002830D008282ED013282CD0112875
:10A540002AD043F20141884226D0BDE87040FCF792
:10A55000D3BC194D2988A1F57F42FF3A1CD16288EE
:10A560002A8016A102F0EAFBFFF79EFA221D298835
:10A570003046FDF747FD08B1FCF7BEFC00212888F6
:10A5800004F01EFE112802D008B1FCF7B5FC3046DD
:10A59000FDF742FD0028D8D170BD0000E03D03006A
:10A5A000303D030048656172742052617465203D3E
:10A5B0002025640028350020582D002048525320C3
:10A5C000646973636F7665726564206F6E20636F74
:10A5D0006E6E5F68616E646C65203078257800006F
:10A5E0003EB5027802230C46B3EB520F17D1B0F8F8
:10A5F0000110ADF80010C1788DF802108188ADF817
:10A60000041080798DF8060002AA01A92046FCF703
:10A61000B0FB032202A96846FBF76FFF08B10020D8
:10A620003EBD01203EBD000070B50D460446142815
:10A6300010D2FDF7A9FA68B1084904EB840001EBD8
:10A640004000D0F802102960C188A980007AA87162
:10A65000002070BD43F2020070BD0000EC3D002000
:10A6600070B5018892B0102961D1011D2C22684675
:10A67000FBF7FCFE9DF804004FF6FF7603213446FD
:10A68000B1EB500F2BD004F00DFB9DF804006D468C
:10A6900040080ED001280CD0022820D118E00D99D6
:10A6A000281D1131FCF70CFB18B100BFBDF82C4080
:10A6B00015E00CAA0BA9072004F0C8FA0028EED177
:10A6C0000DE00D99281D491CFFF78AFF0028EDD1E8
:10A6D0000CAA0BA9072004F0B9FA0028F1D1BDF8A3
:10A6E0000000B44200EB8001124820F8114000EB5A
:10A6F00041000199C0F80210BDF80810C1809DF812
:10A700000A10017213D0BDF80000ADF82E00002031
:10A71000ADF83040084E8DF82C000BAD044600BF5C
:10A7200056F8241028468847641C022CF8D312B02F
:10A7300070BD0000EC3D0020782103002DE9F041C0
:10A740004FF6FF760546B04213D00B4F002400BFF2
:10A7500004EB840037F81000A84206D12046FDF72C
:10A7600013FA10B12046BDE8F081641CA4B2142C89
:10A77000EED33046F7E70000EC3D00203EB50C4636
:10A78000054604F08FFA0BE0BDF80000A04207D0A8
:10A790002846029900F00EF810B1BDF800003EBD49
:10A7A00001AA6946072004F051FA0028ECD14FF6BF
:10A7B000FF703EBD2DE9F0410C46054600F1110742
:10A7C00001F111061022491C401CFBF796FE48B906
:10A7D000681C00F01DFA28B1601C00F019FA08B1DD
:10A7E000012400E0002431463846FCF769FA3B7842
:10A7F0000222B2EB530F0CD00321B1EB530F08D060
:10A800003378B2EB530F04D0B1EB530F01D00121D9
:10A8100000E00021084201D18C4302D00120BDE8B4
:10A82000F0810020FBE7018811B9421892780AB143
:10A8300001207047491C0829F7D30020704710B544
:10A840000C460346FFF7EFFF00280AD0188821883E
:10A85000884205D10822A11C981CFBF74EFE08B1C6
:10A86000002010BD012010BD142804D2024A00EBC4
:10A87000800022F810107047EC3D002070B50546AE
:10A88000FFF75CFF0446284604F08CF8002808D146
:10A89000142C06D2034B04EB84024FF6FF7123F80D
:10A8A000121070BDEC3D002010B50446142808D2EB
:10A8B000FDF76AF928B1044904EB840031F810006F
:10A8C00010BD4FF6FF7010BDEC3D00203EB50446B4
:10A8D00004F0E8F90EE0019920464631FFF7AFFF9A
:10A8E00028B9019920462A31FFF7A9FF10B1BDF818
:10A8F00008003EBD6A4602A9072004F0A7F9002817
:10A90000E9D14FF6FF703EBD10B50A4941600A48D3
:10A9100000F04AFF58B902F0ADFD07491C238C2214
:10A92000087404488C39001F006800F0A3FE002062
:10A9300010BD000064230300944500202DE9F04180
:10A940002D4F002518B17D600120BDE8F081087908
:10A95000012258B1294E01280CD0274C4FF0020893
:10A960000834022821D0032842D128E00A7103F0DC
:10A9700073FE3BE05FF0000000EB800116F8211051
:10A98000022908D0401C80B20228F5D33A707D60BD
:10A9900041F61D50D9E700EB800006F8205006EB89
:10A9A0008000406803F04AFE20E00D71A4F80480A6
:10A9B000002301221248216801F098FC16E00D7175
:10A9C000206803F03BFE0D4923682831498801EBDC
:10A9D000810206EB8201D1F804C0C4F800C04B60CC
:10A9E000A3880B81A4F8048006F822500028ACD07C
:10A9F0007D600E20A9E700007C340020C0440020C8
:10AA0000143500200146034802888A4200D0002005
:10AA1000704700002C3A00202DE9FC5F0E008346B1
:10AA2000DDE90C47C6F1000098469246814600D405
:10AA30000846012503E000BF90FBFAF06D1C50456D
:10AA4000FADAA84500D9454624B1002E01DB780783
:10AA500000D5641EB80702D5B8F1000F0AD0F80778
:10AA600008D13CB1A54205D220215846641EFEF70C
:10AA70004DF8F6E7002E02DA4E462D2102E0780767
:10AA800003D52B215846FEF741F807F003000228B2
:10AA90000BD1B8F1000F08D13CB1A54205D230214D
:10AAA0005846641EFEF732F8F6E7CDE90047434604
:10AAB00052463146584606F023FFBDE8FC9F000091
:10AAC00070B50D46044600684FF4887102F068FDC9
:10AAD0004FF49071206802F063FD4FF4927120688A
:10AAE00002F05EFD4FF4A271206802F059FD20686B
:10AAF0001149C0F804132068690740F30730090EB4
:10AB0000002806DA00F00F0000F1E02080F8141DA4
:10AB100003E000F1E02080F800142068012140F3F8
:10AB2000073000F01F0291404009800000F1E02052
:10AB3000C0F8001170BD00001003020002460020A2
:10AB40001268530713D502F00300012802D002282F
:10AB50000CD105E0C2F383100B68801C184404E09C
:10AB60000223086803EB92521044086001207047EA
:10AB70000248007A002800D0012070479445002048
:10AB8000F0B58488A518944200D82246A41AC28839
:10AB9000D6189A4200D81346D21A4B880788BB426F
:10ABA0000CD34088834209D88888A04206D3A842A3
:10ABB00004D8C888904201D3B04201D90020F0BD2A
:10ABC0000120F0BD10B509892AB1D088491C814205
:10ABD00018D1002010BD90F8C62202EB8204C4EB0D
:10ABE000821200EB420212899142F2D0491C198074
:10ABF00090F8C61201EB8102C2EB811100EB41001B
:10AC0000008902E01980D088401E5880012010BDC4
:10AC10000021425C0AB101207047491C1029F8D379
:10AC20000020704790F83A00C0F3C100012803D01B
:10AC3000032801D00020704701207047800701D011
:10AC400000207047012070470A4810B5807860B135
:10AC5000002401E0022C06D02046FDF711FD641C03
:10AC6000042CF7D310BD0324F6E7BDE81040FDF730
:10AC700027BD00000C33002003480179C90702D02A
:10AC80000078FDF717BE70470C33002017210180B4
:10AC900041800021017141711B218171C171704797
:10ACA0002DE9FE4F2E4F984692460D00814601D069
:10ACB00000260DE0684600F0B3FC6A4600214846D5
:10ACC00003F0C4FD3878009E10B99DF8090098B1D2
:10ACD00052463146484606F0E5F904460146002250
:10ACE0004846FEF747FF0D2C37D008DCA4B3082CEC
:10ACF00033D00B2C09D130E00520BDE8FE8F112C9C
:10AD00001ED0A4F54050023827D0204602F028FC7F
:10AD10000246144814494B46401AC008012101EB71
:10AD20000040124902F011F85FF00305B8F1000F7E
:10AD300004D0324621464846FEF764FC2846DCE74C
:10AD40002A46F9784846FCF7FFFE5246B97848464D
:10AD5000FCF7FAFE0025E9E7FFE72546E6E70000F5
:10AD6000E4330020883D0300303D0300A434030099
:10AD70007EDF042800D111207047000070B50D005F
:10AD80001446064617D01648C1783046FCF7DCFE5C
:10AD90003046FFF789FD0146A0F57F40FF3800D01F
:10ADA00074B129463046FFF7E3FF04462878C00710
:10ADB0000BD001220AE0BDE870400021FFF7D8BFA8
:10ADC000304600F00FF8044605E002222CB10021C5
:10ADD000304605F0A3FD204670BD0121F8E70000D4
:10ADE000DC3300207CB50E4605466A460721304616
:10ADF00003F0D4FD040013D0052C1DD0112C2BD052
:10AE000002F0AEFB0246194819493346401AC00801
:10AE1000012101EB0040174901F097FF03241BE0DB
:10AE2000019C94F84400183410F0010001D0019CFA
:10AE300034340CB110B106E011240DE004F112001D
:10AE4000FFF7F1FC38B1224604F11201284685DFF4
:10AE5000040008D000E00B2400210022284605F061
:10AE60005DFD20467CBD0121F7E70000803D030029
:10AE7000303D03003433030070B514460D460646DA
:10AE800005F07CFD00280FD0304603F085FC00283B
:10AE900022462946304603D0BDE8704003F082BC0C
:10AEA000BDE87040FEF70EBB70BD000070B5094DE7
:10AEB0000646A978FCF730FE0446E9783046FCF7F0
:10AEC0002BFE014622463046BDE870400123FFF7C5
:10AED000E7BE0000E43300202DE9F047394E00279B
:10AEE00080463D46DFF8E090D6F804A057E003D056
:10AEF0000446D0F81C8035E099F8002002EB4201AE
:10AF0000521CD2B289F8002009EBC10199F8023035
:10AF1000091D9A4201D189F8005048680A78044610
:10AF2000012A12D0022A02D0032A3BD108E006F0FF
:10AF30007DFA00B10127257434E00574C06900E092
:10AF400070680028F9D170602CE0207C50BB8868C4
:10AF50006060C868A0600869E0604869A061F07836
:10AF600000B165606268B168184B501A20F07F40EC
:10AF7000984202D2A168084406E0881AA16820F02D
:10AF80007F40814202D9081A206000E02560656098
:10AF90000120A56020742046E56106F029FAB8F189
:10AFA0000000A4D199F8001099F801008142A3D1C2
:10AFB00017B97168514502D00120BDE8F087002023
:10AFC000FBE7000048340020F0420020FFFF7F0034
:10AFD000F0B587B00546002718216846FBF76DFAE3
:10AFE000A5F57F40ADF80250FF3825D02846FFF781
:10AFF00039F9040022D01B481B49401AC6080B2C03
:10B0000022D0112C1ED0A4F5405002380ED020467C
:10B0100002F0A6FA0246012000EB06402B46134937
:10B0200001F093FE2146284605F0C8FC10483A4638
:10B0300081782846FCF788FD07B0F0BD0E208DF81A
:10B0400000000BE00127F1E70F208DF8000002203F
:10B0500000EB06402A46074901F070FE6846FEF7FD
:10B0600027FBE3E7383D0300303D03000C280300D5
:10B070003C330020602803000A4602494978FCF767
:10B0800063BD00003C3300202DE9F041002786B06D
:10B0900080463E46FFF72EF9040022D0112C22D024
:10B0A0001B481C49401AC508862C1ED0A4F54050E8
:10B0B00002380ED0204602F053FA0246012000EB7F
:10B0C0000540434614A101F040FE2146404605F0EC
:10B0D00075FC39464046FFF7CFFF06B03046BDE865
:10B0E000F0810126F5E70127F3E718221A4968469F
:10B0F000FBF7BCF90220ADF8028000EB05404246A8
:10B1000016A101F01BFE6846FEF7D2FAE1E7000047
:10B11000383D0300303D03006773636D5F6C6F6300
:10B12000616C5F64625F63616368655F75706461D1
:10B13000746528292072657475726E6564202573A4
:10B1400020666F7220636F6E6E5F68616E646C65FF
:10B150003A2025640000000018210300466C61734A
:10B16000682066756C6C2E20436F756C64206E6F62
:10B17000742073746F7265206461746120666F72ED
:10B1800020636F6E6E5F68616E646C653A20256443
:10B19000000000002DE9FF410026234800F001FBDC
:10B1A0002148001F074600F0FCFA204C6068009020
:10B1B000A56800E000986946284004EB80000C3048
:10B1C000FFF7BCFC0028F5D101AA009901EA0503AC
:10B1D00004EB8303491CDB6842F82030401C0091DB
:10B1E0000228F2D3019800F0030001280BD00228B6
:10B1F00010D10198032101EB90500099BDF80A602D
:10B2000001EB900005E00198BDF80A60C0F38310DF
:10B2100008440090384600F0C1FA08B10098606018
:10B2200004B03046BDE8F081644B00204C4700205C
:10B23000ACB04FF40041002001F0FAFD08B1FBF77B
:10B240005BFE01F04FFCFBF777FE08B1FBF754FE05
:10B2500000210320FDF7E4FA08B1FBF74DFE694633
:10B260000020FDF751FA08B1FBF746FE9DF80000FB
:10B2700002287DD05FF0000501F0F0FE08B1FBF779
:10B280003BFE02F0ABF808B1FBF736FE002769463B
:10B290000120009701F032FF08B1FBF72DFE684650
:10B2A00001F0ACFF08B1FBF727FE05F071F9FEF7DE
:10B2B00095FC0021454800F00AFB08B1FBF71CFE95
:10B2C0001C216846FBF7F9F84FF42030CDE90070F7
:10B2D0004FF47020032602908DF80C604FF6FF703B
:10B2E000ADF80E0001243A488DF81040CDE9057004
:10B2F0006846FCF769FB08B1FBF7FEFD3548FCF733
:10B300006DFC08B1FBF7F8FD03F054FE32480090E5
:10B310002E4869461838FCF7A5FE08B1FBF7ECFD8E
:10B320002E480090294869460C38FCF7EDFF08B11B
:10B33000FBF7E2FD05F0DCFCAC216846FBF7BDF84D
:10B3400002208DF800008DF8024006218DF80310D0
:10B35000ADF81000224805904FF49670229044F208
:10B36000506023908DF87C401E486946299000E08B
:10B3700020E016484830FCF753F908B1FBF7BCFD54
:10B38000124801214830FCF747F917481749401A7D
:10B39000C00806EB0040044615A101F0CBFC5DB1EE
:10B3A000204619A101F0C6FC04F08EFC30B1FBF779
:10B3B000A3FD03E001255FE7FBF7A8FC01F0A0FB7C
:10B3C0000028FBD101F05EFEF8E70000AC3500205C
:10B3D000FB8F02005191020005A50200C10303008A
:10B3E0005C2D0020B9DC0200E03D0300303D03008D
:10B3F00052656C6179206578616D706C652073743D
:10B4000061727465642E0000457261736520626F1D
:10B410006E6473210000000070B5144682880E46E9
:10B4200005462088111D0144921C994201D8FE2A2C
:10B4300001D90C2070BD521C32542088FF21401CC1
:10B4400080B2208031542088401C80B22080811935
:10B45000288806F040FA2188084480B22080AA8813
:10B4600042B1A96841B13044FBF700F82088A988AF
:10B4700008442080002070BD072070BD2DE9F047F2
:10B48000C5881E1DB6FBF5F78946B6FBF5F10446E7
:10B4900005FB176C407916686843DDF820A0F718A3
:10B4A000001F874200D9C61A166001E02468491EB1
:10B4B0000029FBD1A5EB0C078846B74216D818E047
:10B4C00004EB0C00001D09EB0803BAF1000F3A462B
:10B4D00002D00146184600E01946FAF7C7FF246873
:10B4E000F61B4FF0000CB844B54201D9374600E0D6
:10B4F0002F46002EE4D1BDE8F087000030B50246AB
:10B5000051B101F0B3FC0021074C08E034F82130C0
:10B510001568AB4202D11160002030BD491C814248
:10B52000F4D3052030BD00000000000010B50F4B23
:10B5300000224FF6FF7400BF02EB420103EB8101D2
:10B540004988A1420DD102EB420103EB8102014681
:10B55000104600F08BFA002806D0BDE81040FBF73B
:10B56000CBBC521C032AE7D310BD0000D03500200D
:10B57000BFF35F8F00F0FDB8F8B50F4601781446B1
:10B580000546012901D1687830B12088821C9A4291
:10B5900032D8012902D006E00720F8BD69780144BD
:10B5A000891C994228D8181A801E86B2ADF800600E
:10B5B0002188B81C084469467DDF0028EDD1297830
:10B5C000022904D06878BDF80020904205D3BDF868
:10B5D0000000B04201D809200AE00820012905D165
:10B5E0006978B14202D8ADF8001001E0ADF8006012
:10B5F000BDF80010FE2901D90C20F8BD2288491C95
:10B60000B9542188491C89B2218078542088401C73
:10B610002080BDF80010084420800020F8BD000004
:10B62000034A00219268C0E9002181607047000050
:10B63000E433002070B54FF6FF750E46A84201D1E5
:10B64000002000E0401C84B208E02146304600F0B3
:10B6500090F808B1204670BD641CA4B2FF2CF4D948
:10B66000284670BD10B5FAF720FE08B1002010BDC5
:10B67000112010BD10B531B1B2FBF3F403FB14245B
:10B680001CB1092010BD0E2010BD016000214160D9
:10B6900081608281C381084610BD70B50C460546A5
:10B6A000FAF7B8FD002802D021882868084470BD48
:10B6B00010B50A8849888A4203D1FAF7EDFD0120C6
:10B6C00010BD002010BD70B50C460546FAF7C7FD49
:10B6D000002802D061882868084470BD10B50A8827
:10B6E00049888A4203D1FAF7B1FD012010BD00203C
:10B6F00010BD01F01F0301229A40D243490900EB1B
:10B700008100114600F059B80A4601F01F030121DB
:10B71000994010B552090C4600EB820000F05DF82C
:10B72000204000D0012010BD2DE9F04180460D469B
:10B730000024481E012101EB501716E058F82400A0
:10B74000C04390FAA0F0B0FA80F020280CD200EBB1
:10B750004416AE4208D231464046FFF7D5FF0028D6
:10B76000ECD13046BDE8F081641CA742E6D82846FB
:10B77000F8E74A0950F8220001F01F020121914028
:10B78000084000D00120704701F01F0301229A40B9
:10B79000490900EB8100114600F029B8002100F0B2
:10B7A00017B8012100F023B8012100F016B808B540
:10B7B0006A46FAF7C6FD009808BD08B56A46FAF76A
:10B7C000A6FD009808BD08B56A46FAF7BAFD08BD9F
:10B7D00008B56A46FAF79BFD08BD08B56A46FAF750
:10B7E00089FD08BD08B56A46FAF778FD08BD08B5B9
:10B7F0006A46FAF77FFD009808BD08B56A46FAF771
:10B80000ADFD009808BD38B5044600258DF8005000
:10B810006846FBF70FFC21686268086890420ED901
:10B82000401E08600178238AE26801FB0325227A22
:10B830002168101AC0B20A79824200D208719DF8BC
:10B840000000FBF71BFC284638BD38B50546002034
:10B850008DF800000C466846FBF7ECFBE868298A87
:10B86000201AB0FBF1F12A681068431C13600170C4
:10B870009DF80000FBF702FC38BD10B530B1017A2D
:10B8800042680368891AC9B21A6006E00E2010BD2A
:10B8900003681A68541C1C601170491EC9B2F7D2A3
:10B8A000006800210171084610BDC20800F00703BE
:10B8B0000120895C98400840704710B5C20800F02C
:10B8C0000703885C01249C402043885410BD70B558
:10B8D000040010D017202162208060801B2020717E
:10B8E000002504EBC500801DFFF7D0F96D1C032D6A
:10B8F000F7D3002070BD0E2070BD00002DE9F0418F
:10B9000085888EB00C46032D7ED20188474E4FF0BD
:10B910000008242940D006DC102909D011290CD0B8
:10B9200023295FD154E03A290DD055295AD12EE070
:10B930000146204602F022FC54E004EBC500801DC5
:10B94000FFF7A4F94EE0294604EBC107408937F818
:10B95000062F824200D810467880172800D2172080
:10B960007880206A70B1787960B1D6E90002CDE9BB
:10B970000002ADF802107888ADF80400226A204673
:10B980006946904787F8058087F804802AE00146D9
:10B99000204602F0BFFC25E0011D2C226846FAF784
:10B9A00065FDBDF80000BDF8042004EBC0014A733A
:10B9B000226ABAB1D6E90423CDE90B23ADF82E00F3
:10B9C000487B8DF83000226A20460BA9904709E099
:10B9D00004EBC503017A187B884200D20146284651
:10B9E000FDF756FB04EBC504A07A00281AD0E188C5
:10B9F0002846A5DF012590B1112813D001F0B0FD34
:10BA000002460B480B4900E00CE0401AC0080EB09B
:10BA100005EB0040BDE8F04107A101F08FB984F8C3
:10BA20000A80E5720EB0BDE8F081000080210300BD
:10BA3000503D0300303D030073645F626C655F67D7
:10BA4000617474635F65786368616E67655F6D7468
:10BA5000755F7265717565737428292072657475D8
:10BA6000726E65642025732E0000000020B10278FC
:10BA7000DE2A03D0082070470E2070474180002046
:10BA8000704760B159B10278DE2A0AD00968416076
:10BA9000DE2101704FF6FF714180002070470E20BB
:10BAA0007047082070477FB5054600294DD0002D0E
:10BAB0004BD008780C46DE2847D1A8886188884298
:10BAC00002D1204605F0D4FF2888012825D002287D
:10BAD0003BD011283AD0512837D135F8040F61886E
