:020000040002F8
:1060000018420020F96202000163020003630200EB
:10601000056302000763020009630200000000003C
:106020000000000000000000000000000B63020000
:106030000D630200000000000F6302001163020004
:106040000966020013630200A969020013630200DB
:106050001363020013630200416402001363020031
:106060001363020013630200136302001363020050
:106070001363020013630200136302001363020040
:1060800013630200616602001363020013630200DF
:106090008566020013630200896602001363020032
:1060A0001363020013630200136302001363020010
:1060B00013630200136302000000000000000000F0
:1060C00013630200136302001363020013630200F0
:1060D0001363020013630200136302000000000058
:1060E00000000000000000000000000000000000B0
:1060F00000000000000000000000000000000000A0
:10610000000000000000000000000000000000008F
:10611000000000000000000000000000000000007F
:10612000000000000000000000000000000000006F
:10613000000000000000000000000000000000005F
:10614000000000000000000000000000000000004F
:10615000000000000000000000000000000000003F
:10616000000000000000000000000000000000002F
:10617000000000000000000000000000000000001F
:10618000000000000000000000000000000000000F
:1061900000000000000000000000000000000000FF
:1061A00000000000000000000000000000000000EF
:1061B00000000000000000000000000000000000DF
:1061C00000000000000000000000000000000000CF
:1061D00000000000000000000000000000000000BF
:1061E00000000000000000000000000000000000AF
:1061F000000000000000000000000000000000009F
:10620000DFF80CD000F00AF900480047F57B0200E7
:106210001842002030B4044654E8000F0D4644E80C
:106220000053002BF8D1156030BC704730B40446E1
:1062300054E8000F40EA010544E80053002BF7D171
:10624000156030BC704730B4044654E8000F00EAD3
:10625000010544E80053002BF7D1156030BC7047AE
:1062600030B4044654E8000F80EA010544E80053C6
:10627000002BF7D1156030BC704730B4044654E8A9
:10628000000F00EB010544E80053002BF7D1156027
:1062900030BC704730B4044654E8000FA0EB010551
:1062A00044E80053002BF7D1156030BC704770B440
:1062B00004464FF0000054E8006F0D68AE4207BF7F
:1062C00044E80023012044E800630E60002B1CBF5B
:1062D0000020F0E770BC704730B4044654E8000F6B
:1062E00088422CBF451A054644E80053002BF5D1DF
:1062F000156030BC704700000648804706480047DC
:10630000FEE7FEE7FEE7FEE7FEE7FEE7FEE7FEE765
:10631000FEE7FEE78D660200016202002DE9F05FF4
:106320000546002092469B46884606468146402404
:106330001BE0284641464746224600F05EF8534699
:106340005A46C01A914110D311461846224600F011
:1063500016F82D1A67EB01084F462246012000214E
:1063600000F00DF817EB00094E41201EA4F10104C6
:10637000DFDC484631462A464346BDE8F09F202AE6
:1063800004DB203A00FA02F1002070479140C2F18C
:10639000200320FA03F319439040704700487047E8
:1063A000C8A4020040EA01039B0703D009E008C922
:1063B000121F08C0042AFAD203E011F8013B00F8CA
:1063C000013B521EF9D27047D2B201E000F8012B16
:1063D000491EFBD270470022F6E710B513460A4665
:1063E00004461946FFF7F0FF204610BD421C10F886
:1063F000011B0029FBD1801A7047202A04DB203AB8
:1064000021FA02F00021704721FA02F3D040C2F1D4
:10641000200291400843194670470000064C074D82
:1064200006E0E06840F0010394E807009847103464
:10643000AC42F6D3FFF7E8FE18AB020038AB02001F
:106440002DE9F04700268AB0DFF85091B0464FF4AE
:106450008075012437460696284601F0C7FF38B1FB
:10646000D9F80403204203D0284601F0B5FF2643A3
:106470002D1D64007F1CADB2082FEDD34FF4BE7408
:10648000204601F0B3FF48B1204601F0A5FF46F0D9
:10649000004606AA0121002001F08AFF404D16F0B7
:1064A000FF0F15D00127002437420DD009EB8401DE
:1064B000D1F81005D1F81015C0F3042055F82420A8
:1064C000C1F3014102B190477F00641C082CEBD35B
:1064D000002E5FDA4FF0FF30CDF8108054E028191D
:1064E00010F8507F90F9000027F0C008401C3BD006
:1064F00007A9404601F031FD10B34FEA9719404615
:1065000001F062F855F820701FB1B9F1030F03D004
:1065100006E0B9F1030F27D104A9404601F025FD9B
:106520004FF0A04101EB8800D0F8000706A9C0F3A6
:10653000014A404601F011FD18B1BAF1020F03D033
:1065400012E0BAF1030F0FD1B9F1030F08D1BAF17C
:10655000020F1DD00221404601F00EFF761CF6B25C
:1065600017B149464046B847641C042CB7D3002EE7
:1065700010D06A460121002001F01AFF0699009808
:10658000884207D006900498002634460790A6E774
:106590000321E0E70AB0BDE8F0870000006000409A
:1065A0006C1A002000F01F02012191404009800078
:1065B00000F1E020C0F88012704700F01F020121B6
:1065C00091404009800000F1E020C0F800117047C0
:1065D00000F01F02012191404009800000F1E020FD
:1065E000C0F8001270474907090E002806DA00F0CB
:1065F0000F0000F1E02080F8141D704700F1E0204A
:1066000080F800147047000070B54FF48076304673
:1066100001F0B5FC114CB50560B1304601F0B6FC97
:106620000120C5F80803607920B901206071216854
:10663000002088474FF48276304601F0A0FC002805
:106640000AD0304601F0A2FC0220C5F808032168F8
:10665000BDE870400120084770BD0000F018002020
:1066600007480021C0F84011C0F84411C0F8481193
:10667000C0F84C11C0F80011C0F8041103F0F0BAD2
:106680000010014003F03ABA02F0FEBBF0B5B54885
:106690000023021D0178101D01254FF080540629AA
:1066A0000BD11678360708D10678C6F30316032EE9
:1066B00006D0042E04D0052E02D0062907D00EE005
:1066C000B4F82463A84FC6F304263E6002E01678AF
:1066D000360704D10678C6F30316032E02D0062926
:1066E00004D00FE0A24FA14E7E670EE01678360769
:1066F00008D10678C6F30316032E06D0042E04D064
:10670000052E02D0062907D00EE0D4F84462994F36
:10671000C6F342363E6002E01678360704D10678AA
:10672000C6F30316032E02D0062906D011E0924EBE
:10673000376827F0807737600EE01678360708D183
:106740000678C6F30316032E06D0042E04D0052EB9
:1067500002D006290AD011E04FF08046C6F80C316D
:10676000C6F81031834E361F336002E016783607C4
:1067700004D10678C6F30316032E02D0062905D0ED
:106780000CE07C4F032664373E600AE0167836073B
:1067900004D10678C6F30316032E02D006290DD0C5
:1067A00014E0764F05263E60744E78363560734EA1
:1067B000083633603F263F1D3E6002E016783607FC
:1067C00004D10678C6F30316052E02D0062957D049
:1067D00062E06B4E36686B4F3E60694E361D366820
:1067E0003F1D3E60664E083636683F1D3E60644E73
:1067F0000C3636683F1D3E60614E103636683F1DD0
:106800003E605F4E143636683F1D3E605C4E183663
:1068100036685C4F20373E60594E1C3636683F1D47
:106820003E60574E203636683F1D3E60544E24363B
:1068300036683F1D3E60524E283636683F1D3E602A
:106840004F4E2C3636683F1D3E604D4E3036366812
:106850004C4F40373E604A4E343636683F1D3E60EE
:10686000474E383636683F1D3E60454E3C363668EA
:106870003F1D3E60424E403636683F1D3E6002E09E
:106880001678360708D10678C6F30316032E06D00D
:10689000042E04D0052E02D0062907D019E0D4F822
:1068A0005812394A01F04F01116002E011780907CE
:1068B0000FD10078C0F30310032803D0042801D0BF
:1068C000052806D131480168C90702D06FF00101DF
:1068D0000160D4F83001062808D1D4F83401062824
:1068E00004D12B48016841F480610160224874386A
:1068F000016841F470010160BFF34F8FBFF36F8FE8
:106900004FF01021D1F80002002803DBD1F8040277
:10691000002822DA1F4A15601F480468002CFCD0AA
:106920001524C1F800420568002DFCD0C1F80442CE
:1069300001680029FCD0136001680029FCD0BFF376
:106940004F8F0D48F0380168144A01F4E06111439B
:106950000160BFF34F8F00BFFDE712491048086088
:10696000F0BD0000E00F00F0403501400DF0ADBA81
:1069700000C007403C050040FCED00E01056004020
:106980000404001020C50040E40E00400004004054
:106990003C17004004E5014000E401400400FA0512
:1069A0000090D003B01900200148006800470000A3
:1069B000F818002002E008C8121F08C1002AFAD106
:1069C00070477047002001E001C1121F002AFBD16F
:1069D000704700000121202803DA8140054801406A
:1069E00003E0402802DA2038814009B101207047D5
:1069F00000207047FC06FFBD30B593B05920ADF8BC
:106A00003C00184811901720ADF8400004253C21A7
:106A10006846FFF7E0FC00240FA88DF800400990BD
:106A20008DF8035018211048FFF7D5FC0E480521BA
:106A30000C4A017044600475A02181608481103A81
:106A4000684602CA00F00AFA08B100F0A3F8054946
:106A5000054A1039081F72DF002801D000F09AF8AB
:106A600013B030BDBC180020B4190020022000F083
:106A700011BB000070B50024064D06E068680121D6
:106A800010F8340002F0DCFA641C28788442F5D354
:106A9000002070BD00190020F8B515460C460646CA
:106AA000052A01D20720F8BD02F0C4FB18B902F094
:106AB0008BFB0028F7D1124900224E600C708D60CC
:106AC000C1E90422C1E906220E4D0DE006EBC40027
:106AD0002968009181788DF8011000780A4A69468A
:106AE00002F000FB0028DED1641EE4B2EED2BDE865
:106AF000F84004480021054A001D00F057B8000086
:106B000000190020E4A10200417802005177020040
:106B100072B601F00DFF00BF01F04EFD0028FBD161
:106B200011481249401AC408012000EB044010A18A
:106B300001F05CFE11480068C00700D000BE0220D2
:106B400000EB04400EA101F051FEBFF34F8F0B4844
:106B5000E43801680E4A01F4E06111430160BFF3BB
:106B60004F8F00BFFDE7000080AB020048AB020082
:106B7000466174616C206572726F7200F0ED00E026
:106B800053797374656D207265736574000000003D
:106B90000400FA050EB500210091CDE901106A4606
:106BA00044F20100FFF7B4FF0EBD0000084B9B78D4
:106BB00023B12AB120B10068037C1BB108207047C3
:106BC00007207047002303744174426118467047E0
:106BD000381B002070B502F00BFE104800240B217A
:106BE000047044700E4D817014206C602C706C70B9
:106BF000FFF7D8FC06211420FFF7F5FC1420FFF75F
:106C0000DCFC0848046006211120FFF7ECFC054875
:106C1000001F0068A860002070BD0000381B002025
:106C200020190020081501402DE9FC47DFF8789075
:106C300099F8023073B368B3052902D20720BDE882
:106C4000FC87436933B3437C012B25D000270446DE
:106C50000025884616468DF80050684600F038F842
:106C600001A803F01FFAC8B1012101700F49446067
:106C70000968C0E90218C0E904769DF8040089F8A3
:106C800001009DF8000000F047F81420FFF7A0FC79
:106C90002846D4E70820D2E70F46D8E704259DF818
:106CA000000000F039F8F3E7381B0020041501401C
:106CB0000649897839B130B1416921B100210174A7
:106CC000022102F0A9BF082070470000381B0020F5
:106CD00030B5EFF3108172B60D4A9468012324B1E8
:106CE0000370002900D162B630BD93604FF0E023FD
:106CF000D3F88051074C25401560C3F88041D3F884
:106D0000844154605A17C3F8842100220270E8E7D6
:106D1000441C0020FC06FFBD0B498A68002A11D0E4
:106D200000280FD1EFF3108072B60B684FF0E0220D
:106D3000C2F800314B68C2F8043100228A60002892
:106D400000D162B670470000441C00202DE9F041DC
:106D5000064608680C46411C4FF0A0474FF001055D
:106D600006D005FA00F1C7F80815206801F0F0FA1E
:106D70006068411C02D0002101F0D8FA3168A06996
:106D8000C1F82405607D227D31681043C1F86C058F
:106D9000D4E900123068C0F81425C0F80C15207D25
:106DA000012815D1A068411C02D0002101F0BEFAD3
:106DB000E068411C05D08540C7F80855E06801F03F
:106DC000C7FAD4E902123068C0F80825C0F81015D7
:106DD000BDE8F0812DE9F041064608680C46411CEB
:106DE0004FF0A0474FF0010506D005FA00F1C7F8B3
:106DF0000815206801F0B6FA6068411C02D0002135
:106E000001F09DFA3168A069C1F82405607D217DFB
:106E100032680843C2F86C05D4E900123068C0F843
:106E20000C15C0F81425207D012815D1A068411C3F
:106E300002D0002101F083FAE068411C05D08540B2
:106E4000C7F80855E06801F08DFAD4E902123068FD
:106E5000C0F80825C0F81015BDE8F0812DE9FC4701
:106E6000002517880646158090F82D00144689469F
:106E700030B13A462146484600F0B1F8051E09D126
:106E8000B0784FF00C0A18B32088C846001DB842ED
:106E900002D95046BDE8FC87684679DF0028F9D161
:106EA0002088032108F8001020881921401C80B296
:106EB000208008F800102088401C80B2208000EB61
:106EC0000801BDF8000003F08EF8218808442080F6
:106ED000F0780222C8B1218896F9033001F1030C41
:106EE0004846BC45D5D8425421884FF0010C491C76
:106EF00089B2218000F801C02188491C89B2218013
:106F000009F801302088401C20807068B8B12188C1
:106F100090F9003001F1030C4846BC45B9D8425401
:106F200021880A22491C89B2218042542188491CA7
:106F300089B2218009F801302088401C20803089E6
:106F400050B1CDE900474B460622022106F1080068
:106F500003F0C0F8051E9DD1308A50B1CDE900473D
:106F60004B460722032106F1100003F0B3F8051E7B
:106F700090D1308B50B1CDE900474B4615221421FA
:106F800006F1180003F0A6F8051E83D1306A30B16F
:106F90003B462246494600F097FB051EDBD1706A4E
:106FA00030B13B462246494600F086FE051ED2D14E
:106FB00096F82C0038B13B4622464946304602F04E
:106FC000DBFC051EC7D1307838B13B462246494626
:106FD000304600F0FBFE051EBDD128465AE77CB5C1
:106FE000054608880C460930904201D90C207CBD2A
:106FF00068466DDF0028FAD121880820685420886F
:107000001B21401C80B2208029542088401C80B263
:1070100020802844DDF801100160BDF80510818052
:107020002088801D80B220809DF80010490800D083
:10703000012129542088401C208000207CBD0000B4
:107040002DE9FC410646C0074FF000050ED0104F59
:1070500000240122385D009500231146019501F0BE
:107060000BF9641C042CF4D300F046F8B0070DD5DE
:10707000074E0024361D0022305D03230095114683
:10708000019501F0F9F8641C042CF4D3BDE8FC81EF
:10709000A2A1020007490B5C4FF0A041D1F80425E2
:1070A0000120984020EA0203C1F808351040C1F8D9
:1070B0000C057047A2A102000249085C012101F001
:1070C0006CB90000A2A102000249085C002101F095
:1070D00064B90000A2A102000649095C4FF0A0407B
:1070E000D0F80405C84010F0010000D0012080F065
:1070F00001007047A2A1020010B500242046FFF74E
:10710000DBFF641C042CF9D310BD10B5002420460D
:10711000FFF7DAFF641C042CF9D310BD10B502464A
:10712000064B4FF0FF3000215C5C944201D10846D1
:1071300010BD491C0429F7D310BD0000A6A1020010
:107140002DE9F0470D468146FFF7E8FF0446042885
:1071500036D2DFF874801B481C4EA8F10C0725B30B
:10716000012D0ED0022D2BD104EB44003044457884
:10717000002D25D0B968002922D02846BDE8F04767
:10718000084704EB4401755C0E44717849B10E4A1E
:107190004FF40041093A8068FFF746FD08B987F8C7
:1071A0000390B17808F80410E2E78068FFF780FDEB
:1071B00004EB4401314418F804008D78A842D7D07C
:1071C000BDE8F087ACA10200E01800202C1A0020D6
:1071D00070B50023042810D20D4D00EB4004012AA5
:1071E00002D101290CD00022094E00EB40003044AE
:1071F00061B1012906D0022906D00723184670BDC7
:107200000E30C2B22A55F9E74270F7E78270F5E70F
:107210002C1A0020044A014600201279D20702D01D
:10722000084600F04DB87047D418002070B50646E7
:107230001E480024C0E90161B00720D500250122C5
:1072400011462846FFF7C4FF6D1C0446042D02D2E8
:10725000002CF4D013E094B940F266620421144883
:10726000FFF71AFC04000AD1FFF704FC040006D162
:107270000F48104A0021001FFFF798FC0446F00752
:1072800012D00120FFF7DCFE74B909480A4A002138
:107290000C38FFF78BFC040006D10548074A012192
:1072A0000838FFF783FC0446204670BDD418002040
:1072B000B8A102005D7502004D7A02006D6A0200FD
:1072C0002DE9F05F6E4C054600266078B34618B194
:1072D00084F801B000F0A2FB6A4F4FF47A694FF4D2
:1072E000C87A4FF00108182D69D2DFE805F00C13B9
:1072F00013384754696E727B727BC584848484849E
:10730000B3B6B9BCC5C500F089FB3868FFF7D0FC3F
:1073100006465CE00020FFF7DFFE00284FF000008B
:1073200008D0FFF7C9FE022D02D14FF4E16008E05A
:10733000484606E0FFF7C8FE022D01D1C82000E054
:107340005046410CC0034FF4FA72801841F100011D
:10735000257052000023FEF7E1FF01462AE00020DD
:10736000FFF7BAFE00284FF0000004D0FFF7A4FE9C
:107370004FF44870E5E7FFF7A7FEDFE70020FFF7CF
:10738000ABFE00284FF0000002D0FFF795FECFE7DC
:10739000FFF79AFED4E70020FFF79EFE00284FF08B
:1073A000000002D0FFF788FE01E0FFF78DFE257098
:1073B00041F69A1100223868FFF736FC064646E08F
:1073C0000020FFF767FE257008E0002051E02570DF
:1073D0003DE084F801800120FFF75CFE002240F6CA
:1073E000CD41E8E784F801800120FFF753FE002239
:1073F0004FF48041DFE77868FFF75AFC0646D5F185
:10740000110000D02EB10220FFF756FE84F802B022
:107410001DE0012816D980B2C8214843C117C9030D
:1074200041EA5041C0034FF4FA72801841F1000163
:1074300052000023FEF772FF014600227868FFF732
:10744000F3FB06460220FFF73FFE84F80280304639
:10745000BDE8F09F00F0E2FAB9E700F0DFFAB4E728
:1074600000F0DCFA04E000F0D9FA0020FFF72CFE6F
:107470000120FFF729FEAAE7FFF747FEA7E7000074
:10748000D4180020ACA102002DE9F8430546861C63
:1074900000208DF8000090460F464FF00109684625
:1074A000FFF716FC1B4C20683860D4E90001401A35
:1074B000A16804F21C47081A0EE00121384600F0CA
:1074C000DEFC00F049FB0146384600F0D8FCD4E968
:1074D0000001401AA168081A401C8642EDD8B8F194
:1074E000000F03D0052065F3891002E0062065F344
:1074F0009F50A2682168114004EB8101C860206898
:10750000304420609DF80000FFF706FC4846BDE8C7
:10751000F8830000F41D002070B50D4604460A29CA
:1075200002D10D21FFF7F8FFA0682268411CA1607D
:107530001554D4E90101814204D32046BDE87040CE
:1075400000F0A1BD70BD0000034803C8814201D115
:107550000120704700207047F41D002000780221B0
:10756000FFF7EEBD05494FF0FF32082841F8202013
:1075700002D3084480F84820704700006C1A0020AD
:10758000F0B54FF0FF3512B10023082601E00823C3
:107590000C260C4C05E000BF54F823707F1C04D06F
:1075A0005B1CB342F8D32846F0BD26185DB286F8BE
:1075B000305044F82310002AF5D1E11881F8480032
:1075C000F1E700006C1A00200249084490F93000ED
:1075D000704700006C1A002070B5084C050009D0F7
:1075E00010342168002907D00868206049682846BF
:1075F0008847F6E70834F4E770BD0000581A002009
:10760000054A012120B1012805D19170FFF7E4BF9F
:1076100051700020FAE77047581A00202DE9F05FFA
:1076200026484168F1B3DFF898B00E688146DBF870
:10763000004087688078E11B21F07F45ED1CB0B9E0
:10764000DFF880804FF48030C8F84403C8F80403A2
:107650001120FEF7A7FF1120FEF7AFFF4FF0010A40
:10766000C8F800A02F2001F0E3FC89F802A0B54281
:1076700000D23546124BE8193C3320F07F401860A9
:10768000DBF800105A46091B21F07F41001B20F057
:107690007F40C91C81420FD9106818602F2001F06B
:1076A000C7FC00E004E0BDE8F05F1120FEF790BFEA
:1076B000BDE8F05F02F09CB8BDE8F09F2019002003
:1076C00004150140001001402DE9F04117880646DD
:1076D000B81D14460D46984202D90C20BDE8F08131
:1076E0003188072206290AD34FF4486C4FF6FF73FE
:1076F000614501D9994202D17088062801D210460D
:10770000ECE7604501D99842F9D1994203D09842FB
:1077100001D08142F3D80520E85520881221401C71
:1077200080B2208029542088401C80B220804119DA
:10773000308802F058FC2188084480B2208041192A
:10774000708802F050FC2188084420800020C5E7A2
:107750002DE9F0470025DFF890803DE060680021CA
:1077600000EBC506012032789146FEF708FED4E909
:10777000062300EA020701EA030C57EA0C0729D0A6
:1077800082438B434846C4E9062301F013FD327857
:107790008246914601200021FEF7F1FDD4E9042341
:1077A00000EA020401EA03074A4650460021FEF7B8
:1077B000E6FD44404F403C430CD17078012801D095
:1077C000012000E00020726880EA0A0012B1C1B214
:1077D000484690476D1CEDB298F80000444685423B
:1077E000BCD3BDE8F08700000019002010B50021CF
:1077F000024800F04FFB80F3100010BD1022002063
:107800000E4910B50A784C780023A24212D0521CBF
:10781000D2B20A70022A00D10B70084A0B780C32DF
:1078200052F8232002608868104420F07F4088606E
:10783000012010BD0360002010BD000020190020B1
:107840002DE9F0418046024601200021FEF797FD18
:107850001A4F05460E467868FFF72AFA00280CD121
:10786000174CD4E9062110462A4001EA06031A43C0
:1078700005D0A843B143C4E90601BDE8F081404604
:1078800001F098FC30B1D4E9040128433143C4E944
:10789000040105E0D4E90410A943B043C4E904108D
:1078A000D4E9060128433143C4E90601A168786898
:1078B000BDE8F0410022FFF7B7B90000E4A10200E3
:1078C000001900202DE9FC5F0E008346DDE90C471E
:1078D000C6F1000098469246814600D4084601252C
:1078E00003E000BF90FBFAF06D1C5045FADAA845A2
:1078F00000D9454624B1002E01DB780700D5641E6F
:10790000B80702D5B8F1000F0AD0F80708D13CB18A
:10791000A54205D220215846641EFFF7FDFDF6E77B
:10792000002E02DA4E462D2102E0780703D52B21E6
:107930005846FFF7F1FD07F0030002280BD1B8F11C
:10794000000F08D13CB1A54205D230215846641E33
:10795000FFF7E2FDF6E7CDE90047434652463146E0
:10796000584602F045FBBDE8FC9F000070B50D468F
:10797000044600684FF4887101F020FB4FF49071C9
:10798000206801F01BFB4FF49271206801F016FB98
:107990004FF4A271206801F011FB20681149C0F872
:1079A00004132068690740F30730090E002806DA3F
:1079B00000F00F0000F1E02080F8141D03E000F15A
:1079C000E02080F800142068012140F3073000F027
:1079D0001F0291404009800000F1E020C0F8001132
:1079E00070BD000010030200024600201268530719
:1079F00013D502F00300012802D002280CD105E0C3
:107A0000C2F383100B68801C184404E0022308684A
:107A100003EB925210440860012070470A4810B5E9
:107A2000807860B1002401E0022C06D02046FFF7E8
:107A300043FB641C042CF7D310BD0324F6E7BDE818
:107A40001040FFF759BB0000D4180020034801790B
:107A5000C90702D00078FFF733BC7047D418002064
:107A60002DE9F047394E002780463D46DFF8E0908B
:107A7000D6F804A057E003D00446D0F81C8035E0C7
:107A800099F8002002EB4201521CD2B289F8002082
:107A900009EBC10199F80230091D9A4201D189F818
:107AA000005048680A780446012A12D0022A02D0FF
:107AB000032A3BD108E002F07FF800B101272574CA
:107AC00034E00574C06900E070680028F9D1706086
:107AD0002CE0207C50BB88686060C868A0600869A2
:107AE000E0604869A061F07800B165606268B168E3
:107AF000184B501A20F07F40984202D2A1680844E7
:107B000006E0881AA16820F07F40814202D9081A55
:107B1000206000E0256065600120A560207420469B
:107B2000E56102F02BF8B8F10000A4D199F800103B
:107B300099F801008142A3D117B97168514502D06B
:107B40000120BDE8F0870020FBE70000201900209D
:107B5000381B0020FFFF7F002DE9FF41002623484E
:107B600000F08AF92148001F074600F085F9204CF3
:107B700060680090A56800E000986946284004EB22
:107B800080000C30FFF730FF0028F5D101AA0099E2
:107B900001EA050304EB8303491CDB6842F820304B
:107BA000401C00910228F2D3019800F00300012844
:107BB0000BD0022810D10198032101EB90500099BD
:107BC000BDF80A6001EB900005E00198BDF80A607D
:107BD000C0F3831008440090384600F04AF908B119
:107BE0000098606004B03046BDE8F0810C220020AF
:107BF000F41D002008B54FF40041002000F062FEA3
:107C000008B1FEF7C7FF00F0C9FCFEF7E3FF08B1BB
:107C1000FEF7C0FF00210120FFF708FB08B1FEF7C7
:107C2000B9FF00F065FF08B1FEF7B4FF01F0F2F80C
:107C300008B1FEF7AFFF002000906946012000F078
:107C4000A5FF08B1FEF7A6FF684601F01DF808B1D0
:107C5000FEF7A0FFFEF7D0FE0E480F49401AC008FD
:107C6000032101EB00400DA100F0C0FD11480121EE
:107C7000007873DF08B1FEF78DFF0220FFF7CAFA24
:107C800008B1FEF787FF00F097FC0028FBD100F059
:107C900043FFF8E780AB020048AB02004265616336
:107CA0006F6E206578616D706C652073746172749D
:107CB00065642E00A818002070B5144682880E4610
:107CC00005462088111D0144921C994201D8FE2AC4
:107CD00001D90C2070BD521C32542088FF21401C59
:107CE00080B2208031542088401C80B220808119CD
:107CF000288802F078F92188084480B22080AA8878
:107D000042B1A96841B13044FEF74CFB2088A988F4
:107D100008442080002070BD072070BD2DE9F04789
:107D2000C5881E1DB6FBF5F78946B6FBF5F104467E
:107D300005FB176C407916686843DDF820A0F7183A
:107D4000001F874200D9C61A166001E02468491E48
:107D50000029FBD1A5EB0C078846B74216D818E0DE
:107D600004EB0C00001D09EB0803BAF1000F3A46C2
:107D700002D00146184600E01946FEF713FB2468BE
:107D8000F61B4FF0000CB844B54201D9374600E06D
:107D90002F46002EE4D1BDE8F087000030B5024642
:107DA00051B100F0ADFD0021074C08E034F821305E
:107DB0001568AB4202D11160002030BD491C8142E0
:107DC000F4D3052030BD000000000000F8B50F46D8
:107DD000017814460546012901D1687830B1208820
:107DE000821C9A4232D8012902D006E00720F8BD51
:107DF00069780144891C994228D8181A801E86B2D5
:107E0000ADF800602188B81C084469467DDF002871
:107E1000EDD12978022904D06878BDF8002090427D
:107E200005D3BDF80000B04201D809200AE00820BF
:107E3000012905D16978B14202D8ADF8001001E0FE
:107E4000ADF80060BDF80010FE2901D90C20F8BD86
:107E50002288491CB9542188491C89B22180785450
:107E60002088401C2080BDF800100844208000209D
:107E7000F8BD002100F009B8012100F010B808B5E4
:107E80006A46FEF7FAF9009808BD08B56A46FEF79B
:107E9000DAF908BD08B56A46FEF7BCF908BD08B5B1
:107EA0006A46FEF7C3F9009808BD08B56A46FEF7B2
:107EB000F1F9009808BD38B5044600258DF800504A
:107EC0006846FEF705FF21686268086890420ED98F
:107ED000401E08600178238AE26801FB0325227AAC
:107EE0002168101AC0B20A79824200D208719DF846
:107EF0000000FEF711FF284638BD38B505460020C2
:107F00008DF800000C466846FEF7E2FEE868298A14
:107F1000201AB0FBF1F12A681068431C136001704D
:107F20009DF80000FEF7F8FE38BD10B530B1017ABB
:107F300042680368891AC9B21A6006E00E2010BDB3
:107F400003681A68541C1C601170491EC9B2F7D22C
:107F5000006800210171084610BDC20800F0070347
:107F60000120895C98400840704710B5C20800F0B5
:107F70000703885C01249C402043885410BD00F115
:107F800080400068002800D00120704708B500F14B
:107F90008040002101600068009008BD70B50B4C66
:107FA000207808B185250FE00020A0606060206186
:107FB000E060074801F01EF8054600F077FF08B9B9
:107FC00001F002F801202070284670BD581A0020E8
:107FD0000176020038B500258DF800506846FEF79E
:107FE00077FE074CE068401EE060E06810B901F0E1
:107FF00011F8A5709DF80000FEF78EFE38BD000058
:10800000581A0020F0B505460478154889B0164680
:1080100040F82420124A0869121DA2F1080742F80C
:108020002400487F385520226846FEF7BBF90494A7
:108030002878385C48B10EB10A4A00E0002269464F
:10804000281D01F063FA09B0F0BD0EB1064A00E048
:108050000022694605F10C0001F02CF9F3E700005D
:10806000E8180020C59E0200119D02000FB408B55B
:108070000399002904D004AA00926A4600F00FF880
:1080800001B05DF814FB10B582680446002A05D0E3
:10809000D4E90403216898470020A06010BD2DE9B1
:1080A000FC4791460C00804676D014F8011B39B18C
:1080B00025290ED04046FFF72FFA20780028F4D16A
:1080C00098F80C00002867D04046BDE8FC47FFF751
:1080D000DABF0020012221782B291BD02D2902D0C4
:1080E000302908D102E040F0010001E040F0020038
:1080F000641C002AEFD100252A290ED02178A1F195
:1081000030020A2A11D205EB850201EB4205641CFC
:10811000303DF1E740F00400EAE7D9F800100B1D0C
:10812000C9F800300968641C0D44217800232E2909
:108130000BD114F8011FA1F130020A2A05D203EB7A
:10814000830201EB4203303BF3E76C290DD0682931
:108150000BD0692921D00BDC252918D0582931D022
:1081600063290ED0642915D117E014F8011FECE73C
:10817000702969D0732932D075291BD0782909D18B
:1081800020E0D9F80000011DC9F800100178404630
:10819000FFF7C2F9641C90E76CE0D9F800100A1DE3
:1081A000C9F800200968CDE900500A224046FFF7CF
:1081B00089FBEFE7D9F800100A1DC9F8002009680B
:1081C0000A2206E0D9F800100A1DC9F80020096843
:1081D0001022CDE90050404601F00AFFDAE7D9F855
:1081E000001000270A1DC9F800200E68C00705D13D
:1081F00012E04046761C7F1CFFF78EF9317800298B
:10820000F7D104E0202140466D1EFFF785F9BD42FD
:10821000C0D9002DF6D1BDE74EB13046FEF7E6F8E5
:10822000074604E0202140466D1EFFF775F9BD4268
:1082300006D9002DF6D103E04046761CFFF76CF915
:1082400031780029F8D1A5E7D9F80000011DC9F857
:108250000010056830214046FFF75EF9782140465E
:10826000FFF75AF908200021CDE90001034610224A
:108270002946B0E7BDE8FC8770B541EA4201DDE977
:1082800004564FF0A04441EA830141EA052104EB82
:10829000800041EA0641C0F8001770BD70B541EAA0
:1082A0004201DDE904564FF0A04441EA830141EA6E
:1082B000052104EB800041EA0641C0F8001770BDBB
:1082C00070B541EA4201DDE904564FF0A04441EAAD
:1082D000830141EA052104EB800041EA0641C0F830
:1082E000001770BD70B541EA4201DDE904564FF058
:1082F000A04441EA830141EA052104EB800041EA00
:108300000641C0F8001770BD1CB5002100910B4656
:1083100001220191FFF7D4FF1CBD1CB50021009183
:108320000B4601220191FFF7DDFF1CBD1CB50022A9
:108330000B46009211460192FFF7C2FF1CBD1CB50F
:1083400000220B46009211460192FFF7CBFF1CBDA5
:108350001CB5002100910B46012201911146FFF747
:10836000AFFF1CBD1CB5002100910B4601220191FD
:108370001146FFF7B7FF1CBD4FF0A04202EB800093
:10838000D0F8002722F44032C0F80027D0F80027A8
:1083900042EA0141C0F80017704701224FF0A043A4
:1083A000824011B1C3F808257047C3F80C25704707
:1083B00018B5084B6C4601441B68009306E000BFEB
:1083C00054F82030D3F81035401C08C28142F7D849
:1083D00018BD0000D8A10200034908B508440021D7
:1083E00001600068009008BD0060004002494058EC
:1083F000012800D0002070470060004030B5154AC9
:1084000001460020D2F8104423460AE0DB681D79BB
:10841000854205D1401C0A28F6DB4FF0FF3030BD05
:108420001B68002BF2D1431CF9D0CB681871D2F82D
:10843000103443B1DB68CC681B682360D2F8102489
:10844000D268116030BDC2F81014C96800220A60F9
:1084500030BD0000F41D0020F0B595B01C46154657
:108460000F4608461A9E00F01DFB182109A8FDF7CB
:10847000B2FF0E96CDE909540023082203A938461D
:1084800000F025FB05980690BDF81000ADF81C0023
:10849000BDF81200ADF81E0000208DF821000398F1
:1084A000082600F00300012802D0022818D032E08C
:1084B00003983346850AC0F3C2008DF82000039864
:1084C0000FA9C0F38314A200384600F000FB09A8EE
:1084D000009006AB22460FA9284600F03FFA1AE0AA
:1084E0000398840DC0F3C2008DF82000082C01D23F
:1084F000254600E0082533462A460FA9384600F0F5
:10850000E6FA2E44641B09AB06AA29460FA800F020
:1085100081F9002CEAD1384600F0CAFA15B0F0BD56
:108520007047012001F012BC084810B50178084AD4
:10853000515C19B1001D01F075F802E00C3000F03B
:1085400083FFBDE81040002001F000BC401900206E
:10855000E418002008B5034A00924023024AFFF7BE
:108560007BFF08BD399902005C1C00200A4A0129E2
:1085700002EBC00007D0022907D0032907D0042945
:1085800007D0002070470220704704207047007910
:10859000704740797047000048AB020010B5FFF704
:1085A000C0FF04210348FFF729FF02490120C968E1
:1085B000487110BD38AB02002DE9F04F8DB0FEF7C9
:1085C000C3FF18B100200DB0BDE8F08F7E4C4FF016
:1085D000000BC4F818B4BFF34F8F60680290A56811
:1085E000D846284004EB80000CE000BFD4F8180403
:1085F00070B921680298814201D86160E2E72840A1
:1086000004EB80000C3002A9FFF7EEF90028EDD151
:10861000002005AA029901EA050304EB8303491C23
:10862000DB6842F82030401C02910228F2D3059802
:1086300000F00300022802D001284DD0AAE00598DE
:108640005022810D8946B2EB905F00D850210E4632
:1086500066F39F50059008315C4800F0DAF9070096
:1086600078D000F01FFA4346082205A9384600F0EA
:1086700036FA029908F1080A2940681A8000001D9C
:10868000864222D9504D0C3530B1C2B204EB810183
:10869000301A90460C3104E02946F2B2002590468B
:1086A0002846C6B25346384600F019FA0AEB0803CA
:1086B00025B132462946384600F011FA029909F1EF
:1086C000030001EB900002903BE004EB8101534674
:1086D000324638460C31EFE70598C0F38310062880
:1086E00000D30620059960F38911C1F38310801C23
:1086F00005918100354800F08CF907004AD000F060
:10870000D1F94346082205A9384600F0E8F908F1F6
:10871000080800260FE00298434600EA0501401CC5
:1087200004EB81010290042238460C3100F0D7F9A5
:1087300008F10408761C0598C0F38310B042EAD80B
:1087400047B1D4F81054D4F8180478B1384600F082
:10875000AFF934E01EE0E8684079012804D12A68C6
:108760002846394612689047E8680568002DF2D11E
:10877000384600F09DF98DF800B06846FEF7A8FA7B
:10878000D4F8180408B9029860609DF80000FEF75C
:10879000C3FA14E0D4F8104405E021682046896843
:1087A0008847E0680468002CF7D109480949401A55
:1087B000C008022101EB004007A100F017F8FEF706
:1087C000C3FE80F00100FEE6F41D0020A0AB020015
:1087D00080AB020048AB02004261636B656E64735C
:1087E00020666C75736865640000000000231A46FB
:1087F00001F03EB908B5012300926A4601F038F94C
:1088000008BD1CB5CDE9002302236A4601F030F90A
:108810001CBD00002DE9F0470E4680461C469246DE
:10882000082940D894F80C9000202073194610466F
:1088300000F086FF0025B54206D218F805201BA1DE
:108840002046FFF713FC03E01AA12046FFF70EFCB9
:108850006D1C082DEFD318A12046FFF707FC00255B
:10886000B54212D218F805707E2F08D8FDF796FD94
:108870000068C05D10F03E0F01D03A4600E02E22A5
:108880000EA12046FFF7F2FB03E00DA12046FFF703
:10889000EDFB6D1C082DE3D301222146504600F06C
:1088A00031FF84F80C90BDE8F087000020253032BD
:1088B00078000000202020007C00000025630000DC
:1088C000200000000B4810B5FF21816000210160ED
:1088D0004160C0F81814C0F8141480F82014064839
:1088E00000F0E4F8002803D1044800F037F9002034
:1088F00010BD0000F41D0020A0AB020094A30200F4
:1089000002480349401AC00870470000A0AB0200AB
:1089100048AB020013B56846FFF740FA08B10020E3
:108920001CBD0248009950F831001CBD48AB020044
:1089300070B509480125D0F8104480F8205407E0AC
:10894000E06845712168204649688847E068046806
:10895000002CF5D170BD0000F41D00202DE9FF476B
:1089600081460C9D00200C462F7B287398461646A6
:108970002946184600F0E4FE072E42D2DFE806F052
:1089800004090F161F2A360049462846FFF76EFBDA
:1089900037E0494628462268FFF768FB31E0D4E912
:1089A000002349462846FFF761FB2AE0A0680090B3
:1089B000D4E9002349462846FFF758FB21E0D4E9D3
:1089C0000201CDE90001D4E9002349462846FFF71A
:1089D0004DFB16E004F1080007C88DE80700D4E954
:1089E000002349462846FFF741FB0AE004F108004E
:1089F0000FC88DE80F00D4E9002349462846FFF749
:108A000035FB00222946404600F07CFE2F73BDE86E
:108A1000FF872DE9F041058A80462D1F4819C01CAB
:108A2000B0FBF5F0C6B24046FFF745FA041E19D078
:108A30000020207101206071E58000272546761E08
:108A4000C4F800800BE04046FFF735FA60B1617969
:108A5000491C6171286005467F1CC0F80080B74240
:108A6000F1D32046BDE8F081204600F002F8002056
:108A7000F8E72DE9F041457901466B1E002201E03F
:108A80000968521C9A42FBD30F680146002605E094
:108A900038460C68FFF731FA2146761CAE42F7D310
:108AA000BDE8F0810121001DFFF7E9B9FFF73DBAEC
:108AB00010B504460121001DFFF7F7F910F0FF0F74
:108AC00004D12046BDE81040FFF7D3BF10BD1CB550
:108AD00001920122009201AAFFF720F91CBD1CB5EA
:108AE00001920022009201AAFFF718F91CBD0000B4
:108AF000064910B500204870091D0860BFF35F8F5C
:108B00000349044800F0F6F9002010BD3419002094
:108B100020A20200501C002008B500208DF80000A3
:108B20006846FEF7D5F8F1EE100A20F09F00E1EE5E
:108B3000100ABFF35F8F08494020C1F880029DF8FA
:108B40000000FEF7E9F800F0B1F908B141DF08BD17
:108B500020BF40BF20BF08BD04E000E082680021C4
:108B6000916082681161826851618268D160826817
:108B7000516080680160704720B103490968016055
:108B8000002070470E20704718A40200FEB5024670
:108B90000E460846FFF7F0FF002866D10024009437
:108BA0008DF8002001208DF8020001940620ADF818
:108BB0000400029469462020326869DF2B492C4A60
:108BC000891AC908012202EB014530B100F0D6F93B
:108BD000024628462749FFF70DFE00948DF8014014
:108BE0008DF80240019402948DF8034069464020BC
:108BF000326869DF30B100F0C1F9024628461E49EB
:108C0000FFF7F8FD0094019402948DF80040694646
:108C10000120326869DF30B100F0B0F90246284621
:108C20001649FFF7E7FDF820009001940294694689
:108C3000A120326869DF30B100F0A0F90246284671
:108C40000F49FFF7D7FD0094019402948DF800407E
:108C50006946A020326869DF30B100F08FF9024622
:108C600028460849FFF7C6FD0020FEBD90AB020074
:108C700048AB020014AA02005CAA020074A9020018
:108C8000C0A9020020A902002DE9F04105460768AD
:108C900060DF804619491A482A68081AC608BA428D
:108CA00019D9022000EB064416A12046FFF79EFDCD
:108CB00020463A461FA12B68FFF7A3FD4FF08050D6
:108CC000D0F80C012968800200F10050421A2046B9
:108CD00025A1FFF78FFDB8F100004FF001040AD085
:108CE00000F04CF9024604EB06402AA1FFF782FD92
:108CF0004046BDE8F0812F480470F9E790AB0200D0
:108D000048AB0200496E73756666696369656E7487
:108D10002052414D20616C6C6F6361746564206604
:108D20006F722074686520536F667444657669635A
:108D3000652E00004368616E676520746865205287
:108D4000414D207374617274206C6F636174696F3C
:108D50006E2066726F6D203078257820746F203019
:108D60007825782E000000004D6178696D756D20C2
:108D700052414D2073697A6520666F722061707070
:108D80006C69636174696F6E20697320307825782F
:108D90002E00000073645F626C655F656E61626CDB
:108DA0006528292072657475726E65642025732E9E
:108DB00000000000AF19002030B5144891B00078D1
:108DC000002820D05FF03405ADF8405010A903A86A
:108DD00061DF30B1052816D011B0BDE83040FDF795
:108DE000D9BE03AC0A49684600F084F807E000BF2A
:108DF000D0E9002120469047684600F092F802989A
:108E00000028E1D0F4E711B030BD0000AF19002018
:108E10001CA402007CB5194C207808B108207CBD48
:108E20000120A070002000F059FD112819D0002069
:108E300000F06CFD12480026006801908DF800607B
:108E40006846FDF745FF0F4901A810DF05000AD06D
:108E5000002020709DF80000FDF75EFF2DB1284630
:108E60007CBD00207CBD0120F3E7A670667000F099
:108E7000D3FD012000F04AFDF3E70000AC1900200B
:108E8000B0A30200116B02000EB50749684600F05E
:108E900031F805E0D0E900108847684600F041F855
:108EA00002980028F6D10EBDCCA30200014800783C
:108EB00070470000AC1900201FB568464BDF30B189
:108EC000052814D004B0BDE81040FDF763BE084982
:108ED00001A800F00FF806E0D0E9002100989047C3
:108EE00001A800F01EF803980028E6D0F4E71FBDA3
:108EF00038A40200016009684160AFF3008010B53A
:108F0000D0E900215368994201D1002104E0D1E960
:108F10000034A34202D01946816010BD083141607F
:108F2000F0E7816800290BD0026892680A448260E9
:108F300041684B689A4203D108314160FFF7DFBFB7
:108F4000704700000C4A10B502F594730EE0991AB0
:108F5000C91001EBD171491002EBC1010C688442C8
:108F600001D90B4602E005D201F108029A42EED384
:108F7000002010BD486810BD40A2020000B5FFF7F8
:108F8000E1FF002800D1014800BD00002CA2020032
:108F90004058002800D00120704708B500224250F8
:108FA0004058009008BDD0F80403084000D00120CC
:108FB00070474058002800D00120704708B50022B3
:108FC00042504058009008BD08480068012110F048
:108FD000010F06D14FF0E020C02280F80024C0F835
:108FE00000110349012008607047000000E100E023
:108FF000180500400649024600200B790BB1852078
:1090000070470A6001220A7100224A71704700000D
:10901000F018002004490120086004480168C1F3E9
:1090200000410029FAD170470C00004018040040AC
:10903000002802D00149800108477047F1A10200D1
:109040002DE9F0418846054600F044FB234E0028F8
:1090500028461AD0FEF7B8FA304490F84800800944
:10906000032802D001280ED007E04FF0A040D0F82E
:109070001005E84010F0010F05D003212846BDE897
:10908000F041FFF779B90221F8E700F02FFB002843
:1090900022D02846FEF798FA04464FF4807000EB81
:1090A00084000F4F81B207EB8400D0F8102542F006
:1090B0000102C0F810250846FFF78EF9B8F1000F3D
:1090C0000AD02846FEF780FA56F82000002803D080
:1090D0000120A040C7F80403BDE8F0816C1A00200D
:1090E000006000402DE9FC41DFF8BC80044608EB3D
:1090F0000400002790F930001346C0170E46401CAC
:1091000001D008274CE0B0781946C0F34002204651
:10911000FEF736FA0546401C41D0B078410719D415
:10912000C0070AD04FF0A04000EB8401D1F800073F
:1091300020F00200C1F8000707E000217378204604
:1091400000910A460191FFF7A9F8174920465431CA
:10915000FEF70BFFB078800718D51448317800EB84
:109160008500D0F81025124B1A40C0F810254FF496
:10917000F8524FF4403302EA042203EA01410A4361
:10918000D0F810150A43C0F8102509E008EB0500D7
:10919000327810F8481F41EA8211017000E004277C
:1091A0003846BDE8FC8100006C1A002000600040D9
:1091B000FFE0FCFF4FF0A041D1F81015C14011F0C5
:1091C000010000D00120704770B5174D95F8580088
:1091D00008B1082070BD0020411E2A18401CC0B2F2
:1091E00082F830102028F8D300242046FEF7BAF980
:1091F000641CE4B20C2CF8D300240C49C0206C652C
:1092000081F8000401264020891FC1F800014FF4B5
:10921000BE70FFF7E1F80649F007C1F8040385F8CE
:109220005860204670BD00006C1A002006E000E087
:1092300000600040034890F85800002800D001204A
:10924000704700006C1A00200121B1EB507F01D162
:10925000012070470020704738B50D4600F0BCFA79
:10926000040014D000208DF800006846FDF730FDA2
:10927000207928B19DF80000FDF74EFD112038BD82
:109280000120256020719DF80000FDF745FD0020BC
:1092900038BD10B500F0A0FA002802D0002101600E
:1092A000017110BD0149024800F078BDC81A0020C4
:1092B000002000402DE9F0410546007916460F4692
:1092C00000EB40012C4A01EBC00102EB810494F851
:1092D0002A1011B10820BDE8F081284951F820106A
:1092E0002868FFF7B9FF08B11120F4E7394628468E
:1092F000FDF72CFD66603869206030004FF00106F4
:109300002DD03F7F4FF48E712868FFF746FE4FF453
:10931000A2712868FFF741FE28681949C0F80413B4
:1093200028684FEA471140F30730002806DA00F0BA
:109330000F0000F1E02080F8141D03E000F1E020B0
:1093400080F80014286840F3073000F01F0106FA87
:1093500001F14009800000F1E020C0F80011286808
:109360000421C0F800150020A061E06184F8290004
:1093700044F8140FA675AEE7C81A0020DCA102005D
:10938000800002002DE9F047054600790B4600EB0E
:10939000400101EBC000234901EB8004284600F0A6
:1093A00043F810B11120BDE8F0874FF00008C4F871
:1093B0002080A360626184F828804FF48E7647464F
:1093C00031462868FFF7E9FD28684FF00109C0F829
:1093D00008902146286800F07DFC606800BBD5F845
:1093E00000A00EE094F8280008B10F2716E03146DF
:1093F0005046FFF7CDFD0028F4D02146504600F03E
:1094000069FC216A60698142F1D331462868FFF71F
:10941000BFFD0028F9D02868C0F80C90C4F814806B
:109420003846C0E7C81A0020007900EB400101EB84
:10943000C000044901EB80004069002800D00120F1
:1094400070470000C81A00202DE9F0470446007953
:109450004FF0000900EB400101EBC000254901EB92
:1094600080072068C0F80095786880B1206822499C
:10947000C0F808132068012140F3073000F01F02F4
:1094800091404009800000F1E020C0F88011206880
:10949000D0F80C25D0F81485D0F80865D0F8105510
:1094A0004FF0FF31C0F81415C0F80C152068C0F853
:1094B0000815C0F81015501C02D01046FEF724FF06
:1094C000B8F1FF3F02D04046FEF71EFF681C02D0F5
:1094D0002846FEF719FF701C02D03046FEF714FF35
:1094E0002068FFF7D6FE87F82A90C7F80490BDE8F9
:1094F000F0870000C81A00208402020001490248D7
:1095000000F0F8BCF41A0020002000402DE9F041E2
:109510000546164600790F46154A00EBC00102EBDE
:10952000810494F8201011B10820BDE8F0811149A0
:1095300051F820102868FFF78FFE08B11120F4E7DA
:1095400039462846FDF746FC6660386920601EB142
:10955000397F2846FEF70AFA28680821C0F8001566
:109560000020A061E0616061012184F82010DCE747
:10957000F41A0020E0A102002DE9F04704460E464F
:109580000079204900EBC00001EB8005174630460A
:10959000FFF75AFE30B1204600F036F820B1112016
:1095A000BDE8F0871020FBE76F61AE604FF4907666
:1095B000002731462068FFF701FD4FF4AC784146A3
:1095C0002068FFF7FBFC2068AA686969C0F8442599
:1095D000C0F84815206801218160686878B9B146F3
:1095E00049462068FFF7E5FC064641462068FFF73C
:1095F000E0FC0643F4D000B10F2700206861384634
:10960000CEE70000F41A00200079054900EBC00005
:1096100001EB80004069002800D001207047000065
:10962000F41A00202DE9F04704460079274900EBA1
:10963000C00001EB800720684FF00009C0F80095DA
:10964000786880B120682249C0F808132068012199
:1096500040F3073000F01F0291404009800000F104
:10966000E020C0F880112068D0F80C25D0F81485CF
:10967000D0F80865D0F810554FF0FF31C0F80C1540
:10968000C0F814152068C0F80815C0F81015501C53
:1096900002D01046FEF741FEB8F1FF3F02D040462F
:1096A000FEF73BFE681C02D02846FEF736FE701C13
:1096B00002D03046FEF731FE2068FFF7EAFD87F85A
:1096C0002090C7F80490BDE8F0870000F41A00204D
:1096D000100302000449084490F93000082801DB17
:1096E00001207047002070476C1A0020044908448C
:1096F00090F93000082801D20120704700207047FF
:109700006C1A002010B50C46017A052908D0407A61
:1097100038B1084808A102682046FEF7A7FC00E01F
:109720001AB106A12046FEF7A1FC2046BDE8104074
:10973000FEF7A9BC88190020257300000D0A00005F
:1097400038B5C3880D46044633B114A0009015A265
:1097500016A12846FEF78AFC217A05291CD0607ADA
:1097600048B1A088FEF702FF164951F8202016A143
:109770002846FEF77BFCA0880021FFF7CBF80346C4
:109780001049207A143951F8202001B02846BDE84C
:1097900030400EA1FEF76ABC38BD00001B5B306D87
:1097A000000000001B5B313B33316D0025734C6FB3
:1097B00067732064726F70706564202825642925A2
:1097C000730D0A0088190020257300003C25733EA4
:1097D0002025733A200000000349884201D1034844
:1097E000704700207047000000200040F81800205B
:1097F00070B5012670044FF0E0210025C1F880010A
:10980000084C4010C4F84803C4F8080366602F20D1
:10981000FFF70EFCA660044C2F20A560FFF708FCA4
:10982000A57070BD001001402019002070B50546DC
:1098300088690C4600284FF4847128460AD0FFF747
:10984000ACFBD5F81805626AE1688854606A401C70
:10985000606270BDFFF7A1FBD5F8180570BD1FB59C
:1098600001238DF80030CDE90121D0E900126846CE
:1098700090471FBD1FB501238DF80030CDE90121B0
:10988000D0E90012684690471FBD000038B500219E
:10989000012548B101280CD0032809D1FFF794FB1A
:1098A000BDE83840FEF796BB4FF0E020C0F880518D
:1098B00038BD8DF800106846FDF70AFA064C20788E
:1098C00008B9FEF76BFBE068401CE060A5709DF8EE
:1098D0000000FDF721FA38BD581A00203EB50446B5
:1098E00009496846FFF706FB08E000BFD0E9002100
:1098F0002046904730B16846FFF713FB02980028D6
:10990000F4D13EBD11203EBDB4A302003EB50446D5
:1099100008496846FFF7EEFA07E000BFD0E90021EA
:10992000204690476846FFF7FCFA02980028F5D1D8
:109930003EBD0000C0A3020070B50D4C0020D2B2A5
:109940002070201D0B4D0378EB5C1BB1001DFFF751
:1099500013FE02E00C30FFF715FD08B1FDF71AF910
:109960006078002802D021780029FAD070BD00006C
:109970003C190020E41800202DE9F0410746806AD8
:1099800014468846C8B3002531E000BFB96A05EB2C
:10999000450001EB8006B088801CFE2802D90C200F
:1099A000BDE8F0812288401C08F8020020881622B9
:1099B000401C80B2208008F800202088401C80B223
:1099C000208000EB0801308800F00DFB218808445E
:1099D00080B22080B28842B1B16871B14044FCF7D6
:1099E000E1FC2088B188084420806D1CEDB297F816
:1099F0002C00A842CAD80020D2E7FFE70720CFE713
:109A0000002805D10349012048700020FDF7E4BD7E
:109A100070470000581A002010B51620FCF7DAFF36
:109A2000A0B1114890F800044009082811D2012182
:109A3000814011F0EC0F0CD00C4882684FF480018B
:109A40006AB1016841F48001016010BD42F2010079
:109A500001E042F20200BDE81040FDF79BB84FF074
:109A6000E020C0F8001110BD16E000E0441C00200A
:109A70002DE9F84F204D9246894606469846012228
:109A800069461846AF68FDF7FFFC58B300980021FF
:109A90000446801C09E000BF00EA07035AF82120B1
:109AA00005EB8303401C491CDA604145F4D34FEABF
:109AB000164AFDF79BFE4AEA0041601C384005EB60
:109AC00080003C4005EB8402C160D06866F3C500AD
:109AD00068F3891069F39F2020F00300401C20F0F8
:109AE0000400D06095F8200402E000BFFEF764FD9A
:109AF0000028FBD1BDE8F88FF41D00202DE9F84FB8
:109B00001D4C00256846D4E901A6FDF779FE002723
:109B100038B30023009A61681CE0D1F800C0084601
:109B2000944503D9ACEB02020A6015E0A2EB0C02EB
:109B300063440760D0F80CC0C1698146BCF1000FD6
:109B400008D006EB030828F07F48C0E9018CC9F86B
:109B50001C5005460029E0D128466160FDF780FFD2
:109B600003E02846FDF77CFF10B15046FDF756FD97
:109B7000E770BDE8F88F0000201900200D4B10B5EC
:109B8000596831B102680C68A24204D8A21A0A606E
:109B9000C161586010BD0B4603E00B46C969121B3A
:109BA00021B10C689442F8D3A41A0C600260C16120
:109BB000D86110BD201900202DE9F041144E7768BE
:109BC0003D462C4603E0844204D02546E469002C3F
:109BD000F9D11BE0D4B1A5420BD1F869706040B94E
:109BE0000C49012088600021B160F0702F20FFF740
:109BF0001FFA2168E069E86110B102681144016050
:109C00007068874202D00120BDE8F0810020FBE7A8
:109C100020190020001001407CB5064600240D46A6
:109C20008DF800406846FDF753F801A800F03AFAB5
:109C300070B10570094946609DF8040048709DF8B0
:109C40000000FDF769F81420FCF7C2FC20467CBD3B
:109C500004249DF80000FDF75FF8F7E7381B0020AB
:109C60002DE9F041194D6C68002C2CD018480027C4
:109C70000068A968B846401A20F07F462068B042C4
:109C80000CD82146361A0744E469087C20B181F8D3
:109C90001080886949698847002CEFD12978687855
:109CA000814206D1401CC0B26870022801D185F8FB
:109CB0000180064869780C3040F82170BDE8F04119
:109CC0001420FCF785BCBDE8F081000020190020BD
:109CD0000415014070B50C4605464FF48E71FFF730
:109CE0005CF9216AA068415C206A401C2062C5F8CA
:109CF0001C1570BD1FB500228DF8002002918168EF
:109D000001914261D0E90012684690471FBD0000F2
:109D10001FB50A4601788DF8001041680191017A5B
:109D20008DF80810C0680390044850F82210001FF6
:109D300050F82220684690471FBD0000EC18002014
:109D400001490120087070473C19002010B588B007
:109D5000044620220E496846FCF724FB06200090AA
:109D6000C01F0190029003904FF0EB7006900CB171
:109D7000084A00E0002269460748FEF743F908B1A7
:109D8000FCF708FF0448001F447008B010BD000035
:109D900074A30200419D0200401900202DE9FF47F5
:109DA0000C4605464FF40071FFF7FDF801274FF40C
:109DB0000178002618B34FF4927949462846FFF7F8
:109DC000E7F8E0B149462846FFF7E7F8C5F8088309
:109DD00094F8290000B96F6002208DF80000D5F8D2
:109DE0008004C5F880040390A0690290E0680190A7
:109DF000A661E661D4E900126846904728E0042194
:109E00002846FFF7D0F818B34FF484712846FFF7BF
:109E1000BFF8E8B121462846FFF708FD616AA0694E
:109E2000884215D1E06938B1E268616AA0612069B1
:109E3000E6616662E06008E094F8290000B96F60AE
:109E4000C5F80883A661E268616A2046FFF707FD4E
:109E50004FF48E7841462846FFF79AF878B1206A89
:109E60006169884202D294F8280020B3414628460E
:109E7000FFF793F8616911B12046FFF73BFF4FF4FC
:109E8000A27841462846FFF783F8002818D04146BB
:109E90002846FFF782F894F8290000B12F60A069E6
:109EA00000280DD0A661E268616A04B02046BDE8D2
:109EB000F047FFF7D4BC21462846FFF70BFFDEE74B
:109EC000BDE8FF871FB50A4601788DF8001041688C
:109ED0000191017A8DF80810C0680390044850F889
:109EE0002210001F50F82220684690471FBD000036
:109EF000EC1800202DE9FF410C464FF492770646FE
:109F00003946FFF756F80025B8B139463046FFF715
:109F100055F802208DF80000D6F88004C6F88004B9
:109F20000390D6F83C050290E0680190A561E561D8
:109F3000D4E900126846904723E04FF48877394609
:109F40003046FFF736F8E0B139463046FFF736F8CD
:109F5000D6F83C15A069884213D1E06960B1E26887
:109F6000D6F8000220F02000C6F80002E069A061E7
:109F70002069E561E06001E0A561E2682046FFF745
:109F800079FC4FF4A27739463046FFF712F868B1F2
:109F900039463046FFF712F8A06938B1A561E5618E
:109FA000D6F83C152046E268FFF764FC4FF4907742
:109FB00039463046FEF7FDFF002812D039463046BC
:109FC000FEF7FCFF606900280BD0D6F84C058DF831
:109FD00000500290A06801906561D4E900126846C3
:109FE0009047BDE8FF810870000A48700220704762
:109FF0002DE9F05F8346DDE90A4A994690460D4611
:10A000000846012703E000BFB0FBF8F07F1C404585
:10A01000FAD2B94500D94F465FEACA7012D18CB165
:10A020005FEA8A7002D5B9F1000F01D0202607E05F
:10A03000302605E031465846641EFDF76DFA0CB136
:10A04000A742F7D35FF00106B9F1010F02D9A9F1D8
:10A05000010903E0B5FBF6F0404502D306FB08F624
:10A06000F2E7DFF83C9000BFB5FBF6F000FB1655B9
:10A0700019F800105846FDF74FFAB6FBF8F6002E17
:10A08000F2D15FEACA7009D0002C07D0A74205D2EE
:10A0900020215846641EFDF73FFAF5E7BDE8F09F22
:10A0A000F6A102000A494A788B78521CD2B2934238
:10A0B00000D100220B78934201D10020704702703A
:10A0C000487800EB400001EBC000001D7047000025
:10A0D000381B00202DE9FC411646DDE90854CDE986
:10A0E00000541F468046022200F00CF8002807D1D9
:10A0F000CDE900543B4610223146404600F002F8BC
:10A10000BDE8FC812DE9FC5F0026DDE90C4B99469A
:10A1100092468E4680462788354630E0D8F80400BF
:10A12000002200EB850069460068019001A864DF09
:10A13000002830D19DF8000050451FD10EB10021FC
:10A1400000E00221228808441118594522D846B956
:10A15000521C90B2208009F800E02088401C20802A
:10A160000126218801A801EB0902694664DF002865
:10A1700011D120889DF80010084420806D1CB8F88B
:10A180000000A842CADC56B12088C01B401E80B225
:10A19000FF2802D90C20BDE8FC9F09F80700002029
:10A1A000F9E7071213140D0E0F100000EC19002030
:10A1B0000C1A0020381A00200D0003004171020023
:10A1C0000E000300417102000F0003004171020004
:10A1D000100003004171020000000050A59202002F
:10A1E000FD94020003000000181B00200000000086
:10A1F0000338FDD87047303132333435363738398B
:10A2000041424344454600000000000000000000B9
:10A21000000000000000000000000000000000003E
:10A2200008A2020020A2020004000000556E6B6E1E
:10A230006F776E206572726F7220636F64650000C5
:10A240000000000044A8020001000000F0A6020087
:10A2500002000000E4A402000300000064A7020062
:10A2600004000000B8A702000500000098A6020044
:10A270000600000034A6020007000000A0A70200AC
:10A2800008000000ACA602000900000010A70200B0
:10A290000A0000002CA802000B000000CCA4020061
:10A2A0000C000000C4A602000D00000094A80200EB
:10A2B0000E00000090A702000F000000CCA70200D3
:10A2C0001000000000A8020011000000A8A8020071
:10A2D000120000007CA802001300000018A8020071
:10A2E000800000004CA602008100000088A502004A
:10A2F0008200000048A502008300000028A502009B
:10A300008400000064A502008500000070A6020021
:10A310008600000078A702009000000014A602004A
:10A320009100000008A5020092000000D8A60200DB
:10A3300000820000E0A70200018200002CA70200BA
:10A340000282000048A7020000840000A4A50200C9
:10A350000184000050A8020002840000ECA5020065
:10A3600003840000C8A5020055850200298502006B
:10A3700021850200FFFFFFFFFFFFFFFFFFFFFFFF41
:10A38000FFFFFFFF00000000000000000000D601FA
:10A39000060100005C1D00207F000000DC1D002085
:10A3A00000000000000000000000000000000000AD
:10A3B00001000007A0A30200B0A3020008000000F3
:10A3C000D8A30200E8A3020008000000E8A30200EE
:10A3D000F8A3020008000000CCAB0200D4AB0200DE
:10A3E0000000000000000000BCAB0200CCAB02008B
:10A3F000000000000000000000000000000000005D
:10A40000000000000000000000000000000000004C
:10A410000000000000000000A8180020F8A30200BF
:10A4200018A4020008000000B4AB0200BCAB02009C
:10A43000000000000000000028A4020038A4020070
:10A440000800000000404040404040404040414142
:10A4500041414140404040404040404040404040F9
:10A460004040404040050202020202020202020293
:10A470000202020202202020202020202020200290
:10A480000202020202029090909090901010101020
:10A4900010101010101010101010101010101010BC
:10A4A0000202020202028888888888880808080850
:10A4B000080808080808080808080808080808081C
:10A4C000020202024000000045A402004E52465F14
:10A4D0004552524F525F494E56414C49445F4441A8
:10A4E000544100004E52465F4552524F525F534F07
:10A4F00046544445564943455F4E4F545F454E418F
:10A50000424C4544000000004E52465F4552524FB7
:10A51000525F464541545552455F4E4F545F454E3C
:10A5200041424C45440000004E52465F4552524F56
:10A53000525F4D555445585F554E4C4F434B5F4607
:10A5400041494C45440000004E52465F4552524F2F
:10A55000525F4D555445585F4C4F434B5F46414900
:10A560004C4544004E52465F4552524F525F4D5546
:10A570005445585F434F4E445F494E49545F4641EE
:10A58000494C4544000000004E52465F4552524F30
:10A59000525F4D555445585F494E49545F464149B5
:10A5A0004C4544004E52465F4552524F525F424C1A
:10A5B000455F495053505F52585F504B545F54525F
:10A5C000554E4341544544004E52465F4552524F0A
:10A5D000525F424C455F495053505F504545525F72
:10A5E00052454A4543544544000000004E52465FE0
:10A5F0004552524F525F424C455F495053505F4C59
:10A60000494E4B5F444953434F4E4E454354454496
:10A61000000000004E52465F4552524F525F41507B
:10A62000495F4E4F545F494D504C454D454E544542
:10A63000440000004E52465F4552524F525F4E4F0B
:10A64000545F535550504F52544544004E52465F4C
:10A650004552524F525F4D4F44554C455F4E4F54FB
:10A660005F494E495449414C495A45440000000055
:10A670004E52465F4552524F525F4D4F44554C45E6
:10A680005F414C52454144595F494E495449414C00
:10A69000495A4544000000004E52465F4552524F11
:10A6A000525F4E4F545F464F554E44004E52465FE8
:10A6B0004552524F525F494E56414C49445F5354A4
:10A6C000415445004E52465F4552524F525F4441FD
:10A6D00054415F53495A45004E52465F4552524FCE
:10A6E000525F494F5F50454E44494E4700000000BD
:10A6F0004E52465F4552524F525F5356435F484158
:10A700004E444C45525F4D495353494E470000005B
:10A710004E52465F4552524F525F494E56414C4948
:10A72000445F4C454E475448000000004E52465F7F
:10A730004552524F525F4452565F5457495F4552FB
:10A74000525F414E41434B004E52465F4552524F7D
:10A75000525F4452565F5457495F4552525F444ED0
:10A7600041434B004E52465F4552524F525F494E55
:10A770005445524E414C00004E52465F4552524F96
:10A78000525F53544F524147455F46554C4C000071
:10A790004E52465F4552524F525F4E554C4C000050
:10A7A0004E52465F4552524F525F494E56414C49B8
:10A7B000445F504152414D004E52465F4552524F08
:10A7C000525F4E4F5F4D454D000000004E52465FB8
:10A7D0004552524F525F464F5242494444454E0003
:10A7E0004E52465F4552524F525F4452565F545745
:10A7F000495F4552525F4F56455252554E00000038
:10A800004E52465F4552524F525F494E56414C4957
:10A81000445F4144445200004E52465F4552524FFD
:10A82000525F5245534F5552434553004E52465F77
:10A830004552524F525F494E56414C49445F464C37
:10A84000414753004E52465F5355434345535300CF
:10A850004E52465F4552524F525F424C455F4950FF
:10A8600053505F4348414E4E454C5F414C52454129
:10A8700044595F4558495354530000004E52465FB7
:10A880004552524F525F434F4E4E5F434F554E54C9
:10A89000000000004E52465F4552524F525F5449ED
:10A8A0004D454F55540000004E52465F4552524FA1
:10A8B000525F4255535900007761726E696E6700AE
:10A8C00064656275670000001B5B313B33306D00CF
:10A8D0001B5B306D000000001B5B313B33316D00B2
:10A8E0001B5B313B33326D001B5B313B33336D00FF
:10A8F0001B5B313B33346D001B5B313B33356D00EB
:10A900001B5B313B33366D001B5B313B33376D00D6
:10A91000696E666F000000006572726F7200000061
:10A9200073645F626C655F6366675F736574282933
:10A930002072657475726E65642025732077686572
:10A940006E20617474656D7074696E6720746F2019
:10A9500073657420424C455F47415454535F4346EE
:10A96000475F534552564943455F4348414E47452B
:10A97000442E000073645F626C655F6366675F739B
:10A98000657428292072657475726E65642025735C
:10A99000207768656E20617474656D7074696E6788
:10A9A00020746F2073657420424C455F434F4D4DBA
:10A9B0004F4E5F4346475F56535F555549442E00FF
:10A9C00073645F626C655F6366675F736574282993
:10A9D0002072657475726E656420257320776865D2
:10A9E0006E20617474656D7074696E6720746F2079
:10A9F00073657420424C455F47415454535F43464E
:10AA0000475F415454525F5441425F53495A452E67
:10AA10000000000073645F626C655F6366675F736C
:10AA2000657428292072657475726E6564202573BB
:10AA3000207768656E20617474656D7074696E67E7
:10AA400020746F2073657420424C455F434F4E4E17
:10AA50005F4346475F4741502E00000073645F62CA
:10AA60006C655F6366675F7365742829207265741F
:10AA700075726E6564202573207768656E20617439
:10AA800074656D7074696E6720746F2073657420CF
:10AA9000424C455F4741505F4346475F524F4C45EC
:10AAA0005F434F554E542E00636C6F636B00000084
:10AAB000434C4F434B0000004750494F5445000062
:10AAC0005052530055415254000000005541525419
:10AAD000450000007077725F6D676D7400000000C4
:10AAE000756172745F6C6F675F6261636B656E64E2
:10AAF00000000000617070006E72665F7364680031
:10AB00006E72665F7364685F626C65006E72665F2A
:10AB10007364685F736F6300D4AB0200A8180020F1
:10AB20000C010000B4690200E0AC0200B41900207E
:10AB300064280000C469020068A30200000000004D
:10AB4000E0AA020054190020A8AA02000000000098
:10AB5000B0AA020000000000B8AA02000000000035
:10AB6000C0AA020000000000C4AA02000000000009
:10AB7000CCAA020000000000D4AA020000000000DD
:10AB8000F4AA020000000303F8AA02000000030375
:10AB900000AB0200000003030CAB02000000030343
:10ABA000641900205C190020641900209C1C0020FE
:10ABB00018000000019A020000000000B98D020098
:10ABC00000000000B98E0200000000008D98020015
:10ABD00000000000FF000000CC1900201F00000052
:10ABE0000000000000000000021501122334455649
:10ABF0006778899AABBCCDDEEFF001020304C30095
:10AC00000000000000000000000000000000000044
:10AC10000000000000000000000000000000000034
:10AC20000000000000000000000000000000000024
:10AC30000000000000000000000000000000000014
:10AC40000000000000000000000000000000000004
:10AC500000000000000000000000000000000000F4
:10AC600000000000000000000000000000000000E4
:10AC70000020004000000000002000400000000014
:10AC800000000000FF0000000000000000000000C5
:10AC900000000000000000000000000000000000B4
:10ACA0000000000018A90200B8A8020010A90200C4
:10ACB000C0A80200D0A80200C8A80200D8A80200BC
:10ACC000E0A80200E8A80200F0A80200F8A802002C
:10ACD00000A9020008A90200000000000090D003B3
:040000050002620192
:00000001FF
