:020000040002F8
:10600000905A0020C1630200C9630200CB63020002
:10601000CD630200CF630200D163020000000000E4
:10602000000000000000000000000000D363020038
:10603000D563020000000000D7630200D9630200AC
:1060400041670200DB630200296C0200DB6302008F
:10605000DB630200DB63020079650200BD670200BA
:10606000DB630200DB630200DB630200DB63020030
:10607000DB630200DB630200DB630200DB63020020
:10608000DB63020099670200DB630200DB6302004E
:1060900005690200DB63020009690200DB6302009C
:1060A000DB630200DB630200DB630200DB630200F0
:1060B000DB630200DB630200000000000000000060
:1060C000DB630200DB630200DB630200DB630200D0
:1060D000DB630200DB630200DB6302000000000000
:1060E00000000000000000000000000000000000B0
:1060F00000000000000000000000000000000000A0
:10610000000000000000000000000000000000008F
:10611000000000000000000000000000000000007F
:10612000000000000000000000000000000000006F
:10613000000000000000000000000000000000005F
:10614000000000000000000000000000000000004F
:10615000000000000000000000000000000000003F
:10616000000000000000000000000000000000002F
:10617000000000000000000000000000000000001F
:10618000000000000000000000000000000000000F
:1061900000000000000000000000000000000000FF
:1061A00000000000000000000000000000000000EF
:1061B00000000000000000000000000000000000DF
:1061C00000000000000000000000000000000000CF
:1061D00000000000000000000000000000000000BF
:1061E00000000000000000000000000000000000AF
:1061F000000000000000000000000000000000009F
:10620000DFF80CD000F07AF90048004795AD0200A5
:10621000905A002030B450E8012F93B2C48923442F
:106220008489A34228BF1B1B0489A34202BFBFF37A
:106230002F8F002007E0C3EA020340E80134002C5E
:10624000E9D14FF001000A6030BC704750E8012FDF
:10625000C2EA024240E801210029F7D1704730B478
:1062600050E8022F1FFAA2F3C488A34202BFBFF373
:106270002F8F00200DE0C48923448489A34228BFC6
:106280001B1BC2EA034340E80234002CE8D14FF064
:1062900001000A6030BC704750E8022FC2EA224277
:1062A00040E802210029F7D17047034653E8022F46
:1062B000D988B2EB324F4FF0000017BF92B241EADB
:1062C000014142EA014104E05A68B2EB324F08BF93
:1062D000012043E80212002AE8D1704730B4044696
:1062E00054E8000F0D4644E80053002BF8D1156028
:1062F00030BC704730B4044654E8000F40EA010552
:1063000044E80053002BF7D1156030BC704730B41F
:10631000044654E8000F00EA010544E80053002B4E
:10632000F7D1156030BC704730B4044654E8000F14
:1063300080EA010544E80053002BF7D1156030BC1A
:10634000704730B4044654E8000F00EB010544E800
:106350000053002BF7D1156030BC704730B40446B1
:1063600054E8000FA0EB010544E80053002BF7D1DF
:10637000156030BC704770B404464FF0000054E81C
:10638000006F0D68AE4207BF44E80023012044E8D7
:1063900000630E60002B1CBF0020F0E770BC70474C
:1063A00030B4044654E8000F88422CBF451A054615
:1063B00044E80053002BF5D1156030BC7047000055
:1063C0000648804706480047FEE7FEE7FEE7FEE78F
:1063D000FEE7FEE7FEE7FEE7FEE7FEE70D690200E7
:1063E000016202002DE9F05F0546002092469B46BF
:1063F00088460646814640241BE0284641464746DB
:10640000224600F06BF853465A46C01A914110D309
:1064100011461846224600F016F82D1A67EB0108BF
:106420004F4622460120002100F00DF817EB00092D
:106430004E41201EA4F10104DFDC484631462A46C5
:106440004346BDE8F09F202A04DB203A00FA02F11F
:10645000002070479140C2F1200320FA03F3194352
:106460009040704700487047B016030040EA0103AF
:106470009B0703D009E008C9121F08C0042AFAD2FA
:1064800003E011F8013B00F8013B521EF9D27047BE
:10649000D2B201E000F8012B491EFBD27047002266
:1064A000F6E710B513460A4604461946FFF7F0FF13
:1064B000204610BD421C10F8011B0029FBD1801A98
:1064C000704730B504460020034600E05B1C934251
:1064D00003D2E05CCD5C401BF8D030BD202A04DB49
:1064E000203A21FA02F00021704721FA02F3D0404D
:1064F000C2F120029140084319467047064C074DEF
:1065000006E0E06840F0010394E807009847103483
:10651000AC42F6D3FFF778FEBC2C0300DC2C030062
:1065200070B58C1810F8015B15F0070301D110F855
:10653000013B2A1106D110F8012B03E010F8016B82
:1065400001F8016B5B1EF9D12B0705D40023521E05
:106550000DD401F8013BFAE710F8013BCB1A921C6D
:1065600003E013F8015B01F8015B521EF9D5A1426B
:10657000D8D3002070BD00002DE9F04700268AB076
:10658000DFF85091B0464FF48075012437460696E7
:10659000284605F091FC38B1D9F80403204203D015
:1065A000284605F07FFC26432D1D64007F1CADB2FC
:1065B000082FEDD34FF4BE74204605F07DFC48B1A2
:1065C000204605F06FFC46F0004606AA0121002097
:1065D00005F054FC404D16F0FF0F15D001270024A4
:1065E00037420DD009EB8401D1F81005D1F8101510
:1065F000C0F3042055F82420C1F3014102B19047B3
:106600007F00641C082CEBD3002E5FDA4FF0FF30C4
:10661000CDF8108054E0281910F8507F90F9000050
:1066200027F0C008401C3BD007A9404604F0ABFE51
:1066300010B34FEA9719404602F078FA55F82070E7
:106640001FB1B9F1030F03D006E0B9F1030F27D151
:1066500004A9404604F09FFE4FF0A04101EB8800E2
:10666000D0F8000706A9C0F3014A404604F08BFEAB
:1066700018B1BAF1020F03D012E0BAF1030F0FD133
:10668000B9F1030F08D1BAF1020F1DD00221404623
:1066900005F0D8FB761CF6B217B149464046B8471C
:1066A000641C042CB7D3002E10D06A4601210020B0
:1066B00005F0E4FB06990098884207D006900498FC
:1066C000002634460790A6E70321E0E70AB0BDE8BC
:1066D000F0870000006000403031002000F01F0211
:1066E000012191404009800000F1E020C0F88012B3
:1066F000704700F01F02012191404009800000F125
:10670000E020C0F80011704700F01F020121914005
:106710004009800000F1E020C0F8001270474907EE
:10672000090E002806DA00F00F0000F1E02080F8E2
:10673000141D704700F1E02080F80014704700003D
:1067400070B54FF48076304604F060FF114CB5050B
:1067500060B1304604F061FF0120C5F8080360799C
:1067600020B9012060712168002088474FF48276AB
:10677000304604F04BFF00280AD0304604F04DFFAD
:106780000220C5F808032168BDE8704001200847D1
:1067900070BD00001826002007480021C0F84011F5
:1067A000C0F84411C0F84811C0F84C11C0F80011ED
:1067B000C0F8041109F0EABE001001402DE9FE43C3
:1067C0004FF48278404605F063FF4C4F00254C4C57
:1067D000012600B3404605F063FF94F82E0010B187
:1067E00094F82F10D1B18DF8005061680191218982
:1067F000ADF80810E26832B1218B618362602181BB
:10680000E56010B102E0257400E03E602168684652
:10681000884784F82F5094F82E0060B34FF48077A7
:10682000384605F035FF30B3384605F039FF628B46
:1068300094F82D108A420AD9A2EB010080B260833D
:106840002289A2EB0000626802EB400005E007D15C
:10685000E06828B184F82F60658305F007FF04E045
:106860008A4202D184F82F606583404605F018FF04
:106870002248001D06604FF48877384605F008FF6F
:1068800048B1384605F00CFF257402208DF8000051
:106890002168684688474FF48A77384605F0F8FE45
:1068A00028B1384605F0FCFE2574BDE8FE834FF0A4
:1068B00000484FF48C7967691DE000BFB7FA87F094
:1068C00028FA00F109EB80058F43284605F0E0FE29
:1068D00088B1284605F0E4FEA5F58C75E8088DF82A
:1068E000040045F38000401C8DF800608DF8050021
:1068F000216868468847002FE0D1D6E70070004045
:106900008C31002009F090BD06F088B8F0B5B5488C
:106910000023021D0178101D01254FF08054062927
:106920000BD11678360708D10678C6F30316032E66
:1069300006D0042E04D0052E02D0062907D00EE082
:10694000B4F82463A84FC6F304263E6002E016782C
:10695000360704D10678C6F30316032E02D00629A3
:1069600004D00FE0A24FA14E7E670EE016783607E6
:1069700008D10678C6F30316032E06D0042E04D0E1
:10698000052E02D0062907D00EE0D4F84462994FB4
:10699000C6F342363E6002E01678360704D1067828
:1069A000C6F30316032E02D0062906D011E0924E3C
:1069B000376827F0807737600EE01678360708D101
:1069C0000678C6F30316032E06D0042E04D0052E37
:1069D00002D006290AD011E04FF08046C6F80C31EB
:1069E000C6F81031834E361F336002E01678360742
:1069F00004D10678C6F30316032E02D0062905D06B
:106A00000CE07C4F032664373E600AE016783607B8
:106A100004D10678C6F30316032E02D006290DD042
:106A200014E0764F05263E60744E78363560734E1E
:106A3000083633603F263F1D3E6002E01678360779
:106A400004D10678C6F30316052E02D0062957D0C6
:106A500062E06B4E36686B4F3E60694E361D36689D
:106A60003F1D3E60664E083636683F1D3E60644EF0
:106A70000C3636683F1D3E60614E103636683F1D4D
:106A80003E605F4E143636683F1D3E605C4E1836E1
:106A900036685C4F20373E60594E1C3636683F1DC5
:106AA0003E60574E203636683F1D3E60544E2436B9
:106AB00036683F1D3E60524E283636683F1D3E60A8
:106AC0004F4E2C3636683F1D3E604D4E3036366890
:106AD0004C4F40373E604A4E343636683F1D3E606C
:106AE000474E383636683F1D3E60454E3C36366868
:106AF0003F1D3E60424E403636683F1D3E6002E01C
:106B00001678360708D10678C6F30316032E06D08A
:106B1000042E04D0052E02D0062907D019E0D4F89F
:106B20005812394A01F04F01116002E0117809074B
:106B30000FD10078C0F30310032803D0042801D03C
:106B4000052806D131480168C90702D06FF001015C
:106B50000160D4F83001062808D1D4F834010628A1
:106B600004D12B48016841F48061016022487438E7
:106B7000016841F470010160BFF34F8FBFF36F8F65
:106B80004FF01021D1F80002002803DBD1F80402F5
:106B9000002822DA1F4A15601F480468002CFCD028
:106BA0001524C1F800420568002DFCD0C1F804424C
:106BB00001680029FCD0136001680029FCD0BFF3F4
:106BC0004F8F0D48F0380168144A01F4E061114319
:106BD0000160BFF34F8F00BFFDE712491048086006
:106BE000F0BD0000E00F00F0403501400DF0ADBAFF
:106BF00000C007403C050040FCED00E0105600409E
:106C00000404001020C50040E40E004000040040D1
:106C10003C17004004E5014000E401400400FA058F
:106C20000090D003F02600200148006800470000D3
:106C30002026002002E008C8121F08C1002AFAD14D
:106C400070477047002001E001C1121F002AFBD1EC
:106C5000704700000121202803DA814005480140E7
:106C600003E0402802DA2038814009B10120704752
:106C700000207047FC06FFBD2DE9F843804643F233
:106C8000020659B9694607F079FBB04202D008B153
:106C900000F0D4F99DF80000800744D4002140465C
:106CA00007F0A8FB05003ED0112D3CD01F4820491D
:106CB000401AC708022000EB07440D2D0AD00B2D07
:106CC0001DD0B5421FD11B4920464246BDE8F843BE
:106CD00005F0F6BA20464246174905F0F1FA1321AD
:106CE000404676DF00281ED005F020FF024601B0A6
:106CF00020464346BDE8F04310A105F0E8BA20461F
:106D000042461C49E2E7284605F010FF02460120F2
:106D100000EB0740434618A105F0D9FA2846BDE824
:106D2000F84300F08BB9BDE8F88300002C2D030078
:106D3000EC2C0300D81E0300641E030073645F6222
:106D40006C655F6761705F646973636F6E6E6563C6
:106D50007428292072657475726E6564202573200D
:106D60006F6E20636F6E6E5F68616E646C65202568
:106D7000642E0000241F0300417373657274696EF2
:106D8000672E20706D5F636F6E6E5F7365637572E3
:106D90006528292072657475726E656420257320DC
:106DA0006F6E20636F6E6E5F68616E646C65202528
:106DB000642E00000EB51249124805F0EFFF08B12D
:106DC00000F03CF90F4A121D07CA8DE8070069461A
:106DD000002005F08DFF08B100F030F901210A48CC
:106DE00005F034FF08B100F029F907480121801CA3
:106DF00005F02CFF002801D000F020F90EBD0000A6
:106E0000C5F50200A81003002222002010B560B1D1
:106E100059B102780B785208B2EB530F05D1062214
:106E2000401C491CFFF74DFB08B1002010BD01209C
:106E300010BD800701D00020704701207047C36853
:106E40008B4206D811440069491E814201D80120B5
:106E500070470020704710B501220221002001F088
:106E6000B1FC08B1072810D107220221012001F04E
:106E7000A9FC08B1072808D100210A22084601F020
:106E8000A1FC08B1072800D1002010BD10B560B1E9
:106E90000B480C49401AC008032101EB00400AA12D
:106EA00005F00AFA07F0F4FF03E003210A4800F0B6
:106EB0001AFD002803D0BDE8104000F0BFB810BD97
:106EC0009C2D0300EC2C0300457261736520626FFA
:106ED0006E647321000000009427002070B58CB010
:106EE00015460E4600236C46C3F10F01415CE15488
:106EF0005B1C102BF8D30D2104F11000FFF7CFFA23
:106F00000020C0F10F02315C2244401C11740328A0
:106F1000F7D3684646DF0020C0F10F01214491F805
:106F200020102954401C0328F6D30CB070BD00007B
:106F30001349144A10B5891AC908032202EB014209
:106F400048B101280DD0022818D110460EA105F035
:106F5000B3F910200AE010460EA105F0ADF911209A
:106F600004E010460EA105F0A7F90D2001F04CFC3D
:106F7000002803D0BDE8104000F060B810BD00004C
:106F80009C2D0300EC2C03004849474820416C65C8
:106F900072742E004E6F20416C6572742E000000DA
:106FA0004D696C6420416C6572742E000149C9788A
:106FB00000F002BFEC25002072B605F031FA00BFE8
:106FC00005F060F80028FBD111481249401AC408A6
:106FD000012000EB044010A105F06EF91148006893
:106FE000C00700D000BE022000EB04400EA105F057
:106FF00063F9BFF34F8F0B48E43801680E4A01F480
:10700000E06111430160BFF34F8F00BFFDE7000057
:107010009C2D0300EC2C0300466174616C206572AA
:10702000726F7200F0ED00E053797374656D207239
:1070300065736574000000000400FA050EB50021B8
:107040000091CDE901106A4644F20100FFF7B4FF58
:107050000EBD0000084B9B7823B12AB120B1006817
:10706000037C1BB10820704707207047002303747E
:1070700041744261184670470C32002070B508F028
:1070800053FA104800240B21047044700E4D817097
:1070900014206C602C706C70FFF720FB062114200C
:1070A000FFF73DFB1420FFF724FB0848046006218E
:1070B0001120FFF734FB0548001F0068A86000207E
:1070C00070BD00000C320020282600200815014069
:1070D0002DE9FC47DFF8789099F8023073B368B374
:1070E000052902D20720BDE8FC87436933B3437CFE
:1070F000012B25D0002704460025884616468DF82A
:107100000050684600F038F801A809F0E1FCC8B169
:10711000012101700F4944600968C0E90218C0E903
:1071200004769DF8040089F801009DF8000000F045
:1071300047F81420FFF7E8FA2846D4E70820D2E7FA
:107140000F46D8E704259DF8000000F039F8F3E772
:107150000C320020041501400649897839B130B15C
:10716000416921B100210174022109F0EBB9082025
:10717000704700000C32002030B5EFF3108172B67A
:107180000D4A9468012324B10370002900D162B62E
:1071900030BD93604FF0E023D3F88051074C254079
:1071A0001560C3F88041D3F8844154605A17C3F87E
:1071B000842100220270E8E718330020FC06FFBD9E
:1071C0000B498A68002A11D000280FD1EFF31080F4
:1071D00072B60B684FF0E022C2F800314B68C2F87B
:1071E000043100228A60002800D162B67047000096
:1071F000183300202DE9F041064608680C46411C72
:107200004FF0A0474FF0010506D005FA00F1C7F88E
:107210000815206804F002FE6068411C02D00021BD
:1072200004F0EAFD3168A069C1F82405607D227D83
:1072300031681043C1F86C05D4E900123068C0F819
:107240001425C0F80C15207D012815D1A068411C1B
:1072500002D0002104F0D0FDE068411C05D085403B
:10726000C7F80855E06804F0D9FDD4E90212306887
:10727000C0F80825C0F81015BDE8F0812DE9F041EF
:10728000064608680C46411C4FF0A0474FF0010528
:1072900006D005FA00F1C7F80815206804F0C8FD0B
:1072A0006068411C02D0002104F0AFFD3168A06984
:1072B000C1F82405607D217D32680843C2F86C0561
:1072C000D4E900123068C0F80C15C0F81425207DF0
:1072D000012815D1A068411C02D0002104F095FDC1
:1072E000E068411C05D08540C7F80855E06804F007
:1072F0009FFDD4E902123068C0F80825C0F81015C7
:10730000BDE8F08103F016BC2DE9F0478146058801
:107310004A484FF000088AB001784246284600F0FB
:1073200063FD99F80500400701D4002176E005F5DA
:107330008077B8B201AB0122072106F0ADFC040052
:107340003F48404A4FF00101A0EB02004FEAD00055
:1073500001EB00460AD0204605F0E8FB0246304625
:107360002B46394904F0B3FF214629E0284603F0B3
:10737000E3F84FF6FF71044688422BD18A46029803
:1073800003F044F80446504510D00146284603F067
:10739000B3F82846FFF70AFEE0B9284608F046FB96
:1073A0002846FFF703FE0028BFD013E006F040FE9A
:1073B0000446504508D1304624A104F07DFF042145
:1073C000284608F061FBB0E70146284603F094F830
:1073D0004FF00108B8B22246072106F0D5FC07009D
:1073E0001BD0862F1ED005F0A1FB024630462B464F
:1073F0002349009404F073FF3946284608F044FB03
:107400000021484606F03CFBB8F1000F02D02046B0
:1074100003F07CF80AB0BDE8F0870121484606F089
:107420002FFBF7E71822174903A8FFF71FF8ADF85D
:107430000E5003A802F0F0F8EFE70000EC25002062
:10744000342D0300EC2C0300DC210300436F756C2A
:1074500064206E6F7420616C6C6F63617465206E64
:10746000657720706565725F696420666F72206958
:107470006E636F6D696E6720626F6E642E00000030
:10748000F8220300C012030070B5044690B0087BD8
:107490000D468DF83800202105A8FFF700F842F6C8
:1074A0001920ADF814000120ADF81800ADF81A004D
:1074B0000EA80790617C9DF82100A21D61F30410C5
:1074C00040F002008DF82100A87B8DF82700687B32
:1074D0008DF82500A08805A901F030FB00281CD1FB
:1074E000A968E1B10FA801F07FF8064614216846AB
:1074F000FEF7D5FF42F60810ADF80000E87B8DF8E6
:1075000006000FA8ADF80A60ADF80E600490E088A0
:1075100004F10E02694601F0FDFD10B070BD0020BF
:10752000E081FAE710B505F083FC002803D0BDE840
:107530001040FFF783BD10BD0A4601461046AEDF7E
:10754000704770B51500044609D00020286034B19A
:10755000206820B1A079800703D0072070BD0E20DD
:1075600070BD084600F0B8FBC0B2142804D02179E1
:10757000814203D8042070BD052070BDE2882168D7
:1075800000FB02102860002070BD2DE9FC4700259B
:1075900017880646158090F82D001446894630B1AC
:1075A0003A462146484600F0D3FC051E09D1B07882
:1075B0004FF00C0A18B32088C846001DB84202D903
:1075C0005046BDE8FC87684679DF0028F9D120885D
:1075D000032108F8001020881921401C80B2208067
:1075E00008F800102088401C80B2208000EB0801C1
:1075F000BDF8000009F08DF9218808442080F0785A
:107600000222C8B1218896F9033001F1030C4846E3
:10761000BC45D5D8425421884FF0010C491C89B291
:10762000218000F801C02188491C89B2218009F815
:1076300001302088401C20807068B8B1218890F902
:10764000003001F1030C4846BC45B9D842542188AA
:107650000A22491C89B2218042542188491C89B2DE
:10766000218009F801302088401C2080308950B1E9
:10767000CDE900474B460622022106F1080009F039
:107680003FFA051E9DD1308A50B1CDE900474B46E7
:107690000722032106F1100009F032FA051E90D1ED
:1076A000308B50B1CDE900474B461522142106F12D
:1076B000180009F025FA051E83D1306A30B13B4627
:1076C0002246494601F0D9FB051EDBD1706A30B174
:1076D0003B462246494603F02FFC051ED2D196F8C0
:1076E0002C0038B13B4622464946304608F00EFB96
:1076F000051EC7D1307838B13B4622464946304650
:1077000003F0A8FC051EBDD128465AE718B504466B
:107710000020ADF8000013466A46204600F006F847
:10772000002802D0BDF80000204418BD70B588B113
:1077300082B10024158803E0065D641C3444A4B2C1
:10774000A54203D8061976789E4201D08C42F3D325
:107750008C4201D3002070BDA11C1180005D401E31
:1077600080B270BD80F83010704700002DE9F047FE
:107770000D00044606D02CB195F87A0000260128A9
:1077800003D006E00E20BDE8F08795F898000128A8
:1077900029D0D5F8A000042825D0D5F89C000428CD
:1077A00021D04FF00109A6702C2205F17801201D8F
:1077B000FEF75CFE84F83060D5F8A4006063D5F86D
:1077C000A800A0634FF6FF70A4F8480204F50D70FE
:1077D000C4F84402C4F84A62A4F84E6284F85062C5
:1077E000207810B104E00720CDE7FF2084F8540092
:1077F00004F15501C4F8341294F82400EE274FF038
:107800001F08012833D0A4F8388200BF04F50E7297
:107810002846FFF7BAFE0028B5D104F24311C4F898
:107820003C1294F82400012824D0A4F8408200BF20
:1078300004F5107205F13C00FFF7A7FE0028A2D165
:1078400084F85190208BA4F8480084F83C9026647A
:1078500084F85060606960644D4604F13C02002188
:1078600004F1540072DF00288DD125708BE7A4F855
:107870003872CBE7A4F84072DAE710B50288102A14
:107880001BD0112A20D0262A1DD1007A0C460128AF
:1078900001D0022817D1A0780521401CB0FBF1F2DD
:1078A00001FB1201204600F01EF800280BD0A16B4E
:1078B000002908D0BDE810400847C27B012A02D148
:1078C0008088A1F8480210BD0C46002184F85212AD
:1078D0008088B4F848128842F5D120790028F2D186
:1078E0000121DFE770472DE9F05F044600780F467D
:1078F00098B1A7700025C4F84A52A4F84E5284F8F3
:107900005052A079012608B1012F09D0E07980B149
:10791000012F05D0022F03D00BE00820BDE8F09F17
:10792000616B21B184F851620820884701E084F836
:10793000515204F24B2100200A5C0AB1304603E0A8
:10794000401C0628F8D300204FF002084FF0030B2C
:10795000012F06D0022F0CD0032F0FD0042F15D1EA
:1079600010E0A17929B194F8241011B908B130467A
:107970000DE0E17911B108B1404608E0207A08B184
:10798000584604E0607A08B1042000E02846A07060
:10799000616B41B1032801D0042804D1607910B192
:1079A00094F85202A0B184F8535204F13C0018211B
:1079B0000746FEF774FD04F12C0084F83C60814614
:1079C00006F062FC58B194F82C0084F8510008E0ED
:1079D00084F8545284F8536207208847E5E784F816
:1079E000516094F8240050B1484606F04DFC20B197
:1079F00094F8280084F8520001E084F8526084F87A
:107A00005050A27804F24A2104F50D794FF0060A8D
:107A1000052A62D2DFE802F07A030F22410084F8DF
:107A20003160C4F84452C4E9101584F83C808020C9
:107A3000A4F8480053E084F8318094F824203846B4
:107A400012B10722027001E080F800B0228A828120
:107A5000C4F844524160E168B96040E06069B860D0
:107A6000208BB88194F824003D4610B184F83CA0E6
:107A700001E084F83C60204609F006F850B185F832
:107A800014800421204601F0A3FF30BB052184F8B7
:107A9000311020E084F831B01DE0E069B860208C3E
:107AA000B88194F824003D4610B184F83CA001E070
:107AB00084F83C60204608F0E7FF48B185F8148060
:107AC0000421204601F084FF38B984F831A002E097
:107AD000042084F83100C4F84492A07878B13A4682
:107AE00004F15400D4F8441272DF00287FF416AF7A
:107AF00094F8301094F8540073DF0028F6D1616BCD
:107B000011B194F831008847002007E784F831501C
:107B1000F5E70000F7B594B0174605003CD0287C87
:107B20009DF854100024884252D000264FF0010ED8
:107B30000D9615A8ADF834E00E90ADF83660E988E2
:107B40000DAA4FF6FF70ACDF040026D19DF854005B
:107B50002874687CA0B30F96109611961296E88848
:107B6000ADF83C00BDF83600ADF840000DA811900E
:107B70000E981290A7F57F408DF83EE0FE3805D0B4
:107B800039460FA8FFF7D8FC044621E0684600F00C
:107B90009DF800256F460FE00E2017B0F0BD00BF26
:107BA00007EB4506B08800F0E9F8022803D144B19C
:107BB0000FA9B088AEDF6D1C0098A842F0D807E08E
:107BC00005E0B1880FA8FFF7B7FC0446F3E70824E7
:107BD0002046E2E738B50D46040018D0BDB128684C
:107BE000206028796074FF20207401208DF8020045
:107BF00041F60F00ADF80000221D69460120A8DF04
:107C0000002803D129462046FFF73EFC38BD0E2050
:107C100038BD38B5002924D0002822D00288502A47
:107C20001FD10546487C0C4600281AD0E988628995
:107C3000A81D914215D14189022912D1216800293C
:107C40000FD00C3000F0CCFC08B1002000E0012087
:107C50008DF80000A888ADF8020022686946204629
:107C6000904738BD70B5040012D001461C2214485C
:107C7000FEF7FCFB1248134D0560206850B17ADF17
:107C8000002806D12068016829604068686005E026
:107C90000E2070BD0B487BDF0028FAD108484FF654
:107CA000FF711438084A20F8041B05493439016073
:107CB0000021FFF7CFF90028EBD0032070BD0000B2
:107CC0008C2A002034250020210A0300014949683C
:107CD00001F0B4B8A82A002010B5044600F0A4F8BA
:107CE00008B1204610BD142010BD000010B5044698
:107CF00000F09AF8002805D02146BDE8104002485F
:107D000003F0A5BA10BD0000B82A002070B51546D2
:107D10000E46044608F0C4FE002809D0054800EBD2
:107D2000840080692A463146BDE8704001F07CBE7F
:107D300070BD0000A82A002010B5044600F074F8B9
:107D4000002805D02146BDE81040024803F07FBA64
:107D500010BD0000BC2A002070B50546002400F0CC
:107D600063F838B12946044803F071FA08B10224D7
:107D700000E00124204670BDB42A002070B50546FD
:107D8000002400F051F838B12946044803F05FFAA6
:107D900008B1022400E00124204670BDB02A002072
:107DA00010B51821034803F02DFA182800D0C0B2EE
:107DB00010BD0000A82A002070B505460C460846F4
:107DC00008F06EFE60B1284600F02EF840B105487C
:107DD000294600EB8400BDE87040183003F037BA44
:107DE000002070BDA82A002070B5054614460E4636
:107DF000084608F055FE002812D0284600F014F876
:107E000000280DD00748294600EB860018301CB129
:107E1000BDE8704003F026BABDE8704003F0D7B962
:107E200070BD0000A82A0020142801D3002070474C
:107E30000146014803F00BBAAC2A002070B540B1EE
:107E40000C4D297839B1044607F048FB28B10020D1
:107E500070BD0E2070BD082070BDE868062807D2EE
:107E60000549226801EB8001401C0A60E860EEE7EA
:107E7000042070BD3C250020202B002040B1054986
:107E800000220123CA600B70C1E90102104670474D
:107E90000E2070473C25002070B504002DD000292D
:107EA0002BD020480078002827D020880D461128A4
:107EB00015D0302804D0322807D033281ED109E04D
:107EC000211D284605F026FC18E0211D284605F056
:107ED0002BFA13E0211D284605F022FB0EE0A088B6
:107EE000B5F8CA12884209D1002085F8C70285F882
:107EF000C8024FF6FF70A5F8CA0270BD95F8C80217
:107F00000028FAD020883028F7D34F28F5D8A08849
:107F1000B5F8CA128842F0D12846BDE8704001F099
:107F2000FBB900003C25002048B1084A137843B152
:107F3000D26832B190F8C7222AB1112070470E20C2
:107F400070470820704701F0E7B900003C25002089
:107F50007CB5054608880C460930904201D90C20B2
:107F60007CBD68466DDF0028FAD12188082068545E
:107F700020881B21401C80B2208029542088401C6E
:107F800080B220802844DDF801100160BDF80510A2
:107F900081802088801D80B220809DF800104908D3
:107FA00000D0012129542088401C208000207CBD65
:107FB00038B501880446212935D012DC2148224AEF
:107FC0001029A0EB02004FEAD0004FF0030202EBB1
:107FD00000400ED011292FD1BDE838401BA104F07C
:107FE0006BB93B2929D0562926D18088132176DF09
:107FF00013E01AA104F060F9072000F005FC08B1B5
:10800000FFF71CF8A188184803F088FA08B1FFF7B9
:1080100015F8A1881548FFF787FF00280CD0BDE8A8
:108020003840FFF70BB800200090A08869468FDF2A
:10803000002801D0FFF702F838BD8088132176DFD1
:10804000EBE700009C2D0300EC2C030044697363F4
:108050006F6E6E65637465642E000000436F6E6E14
:1080600065637465642E0000882700203C22002090
:1080700010B51A4C0188606810290ED011292BD137
:10808000401E606028D1FEF7E6FE002824D021685B
:10809000002921D0BDE810400847D0B900210122B5
:1080A000084600F08FFB08B107280FD107220221F4
:1080B000012000F087FB08B1072807D10422022124
:1080C000002000F07FFB20B1072802D0216801B119
:1080D00088476068401C606010BD00002C250020AF
:1080E0002DE9F04701883B4E40F2F3194FF6FF753A
:1080F00010291BD011293ED0122954D0502946D125
:10810000C188F289841D914241D1618902293ED101
:108110008688304602F0BEFA050038D004F10C0023
:1081200000F05EFAA8B3294630464EE0C17B87884E
:10813000044601292BD1A846284602F0ABFA0500D7
:1081400017D02F8000202872234843464A460168F2
:10815000C5F80A104068C5F80E0004F1100105F1D9
:108160000A0002F055FB6872F08900280FD12946F9
:108170002AE0042013E0808802F08CFA040006D084
:108180006068FEF7E9FF08B107F062FC2580BDE8F2
:10819000F087FFE76868FEF7DFFF0028F7D0BDE84B
:1081A000F04707F055BC87880646384602F072FA59
:1081B0000400ECD02B464A4606F1080104F10A00FF
:1081C00002F026FB607221463846BDE8F04700F019
:1081D0009BBE00008C2A0020342500202DE9F04FA2
:1081E0000746858802883D48012197B08346102ABA
:1081F00009D0112A49D01A2A6CD1387AB1EB101F54
:1082000045D2012244E0354C083CA068C0430B90A5
:1082100061680BA803F03FF80B990CA800F00EFE64
:108220002C220CA96846FEF721F90026E946A04653
:1082300010E000BF09EB46005FF00004B0F804A0B6
:1082400008EB84005146001D02F0C1FF641C1D2C88
:10825000F6D3761C0098B042ECD8142D05D317B095
:108260000420BDE8F04FFEF7E9BE2946584602F06B
:10827000F9FF294608F1040002F0F4FFF87B012819
:1082800028D016482946001D15E029461AE000228C
:108290000221B1EB101F01D2012600E000260F4998
:1082A000083901F11000041D294682B102F0DAFFFD
:1082B00036B12946204617B0BDE8F04F02F0D2BFD4
:1082C0002946204617B0BDE8F04F02F080BF02F00B
:1082D0007EFFF5E717B0BDE8F08F0000B02A002060
:1082E00010B504460748007800280AD0204601F05F
:1082F000FFFF204607F0DAFD2046BDE8104001F000
:10830000D7BC10BD7C25002018B10181C28200209D
:1083100070470E207047C8B10A68BAB1B1B104C045
:10832000496842F6062202C04FF6FF7120F8081B8A
:108330000021C180012100F8021920F8022900F86B
:10834000021941F602010180FFF778BD0E20704747
:10835000C08A002800D0012070471FB5008811286E
:1083600011D14FF6FF7008810C460846FFF7F0FF69
:10837000002808D002208DF80000226869462046B7
:1083800090470020E0821FBD7FB5002400940122A9
:108390000194029403948DF800204A88ADF80220DD
:1083A0000A7801F10E0312BB8A88A2F5C055023D7E
:1083B0001DD18A79012A1AD1002215E002EBC205EB
:1083C00033F81560A6F60626B6F5005F0BD103EB71
:1083D00045052E79760706D52E6801966E680296B9
:1083E0002D89ADF80C50521C0D7A9542E6D8BDF897
:1083F0000C1009B18DF800400268694690477FBDB6
:1084000070B5044608688AB00E4668B3012520603E
:108410008DF8225041F60200ADF82000221D08A977
:108420002846A8DF00281DD18DF8240020216846A9
:10843000FEF735F842F60620ADF8000009A80290D4
:108440009DF80D00ADF8045040F00400ADF8065062
:108450008DF80D0030798DF81200A088A21D6946B4
:1084600000F06CFB0AB070BD0720FBE7FEB50A46C2
:1084700001880026102912D050291AD10546841DE2
:10848000C088D1881746884213D16089012810D14D
:10849000A98802AA3869FFF754F870B90AE0009673
:1084A000818810696A46FFF74CF8002801D10098CE
:1084B0000670FEBD0299207B08708DF80060A888C8
:1084C000ADF80200029801903A6869463846904734
:1084D000FEBD1CB568B161B1002201230092ADF868
:1084E0000030ADF8022001914189408A6A46ADDF33
:1084F0001CBD0E201CBD70B58AB00C46050037D0DF
:10850000A4B3206898B328606068686001268DF87D
:10851000226041F60300ADF8200005F1080208A929
:108520003046A8DF00281FD120216846FDF7B7FF9D
:1085300042F60620ADF800009DF80D00ADF804608D
:1085400040F00A008DF80D00A07A8DF81200607AD4
:1085500008348DF81100ADF806600294288905F101
:108560000A02694600F0EAFA0AB070BD00E001E0D4
:108570000E20F9E70720F7E738B50246002929D091
:10858000002A27D013880020102B0FD0112B11D0D8
:10859000192B1FD10B46117A00291BD18DF8000031
:1085A0008DF80100694618461A6817E00B46918855
:1085B0005982F3E70C46117A08290BD18DF8000097
:1085C00020460DF10101FFF784FF20B16168002909
:1085D00000D0884738BD226869462046904738BD9C
:1085E000007800F0010070470A7802704978417005
:1085F0000220704770B58AB0044601258DF82250DC
:1086000041F604000E46ADF82000224608A928468F
:10861000A8DF00281AD120216846FDF740FF42F666
:108620000720ADF800009DF80D00ADF8045040F0B3
:108630000200ADF8065002968DF80D0070788DF8A6
:1086400011002088A21C694600F078FA0AB070BDBB
:108650000288102A01D18088488170470149085C4E
:1086600070470000B910030007490B5C4FF0A041B0
:10867000D1F804250120984020EA0203C1F808350A
:108680001040C1F80C057047B51003000249085CA2
:10869000012103F0E8BB0000B51003000249085CAB
:1086A000002103F0E0BB0000B51003000649095C9F
:1086B0004FF0A040D0F80405C84010F0010000D0F1
:1086C000012080F001007047B510030010B50024B0
:1086D0002046FFF7DBFF641C042CF9D310BD10B556
:1086E00000242046FFF7DAFF641C042CF9D310BDE8
:1086F00010B50246064B4FF0FF3000215C5C9442FF
:1087000001D1084610BD491C0429F7D310BD000053
:10871000B910030010B5002000F066F908B1062872
:1087200006D1012000F060F908B1062800D1002030
:1087300010BD00002DE9F0470D468146FFF7D8FF38
:108740000446042836D2DFF874801B481C4EA8F17A
:108750000C0725B3012D0ED0022D2BD104EB4400C4
:1087600030444578002D25D0B968002922D028460C
:10877000BDE8F047084704EB4401755C0E4471788E
:1087800049B10E4A4FF40041093A8068FEF7A0FC57
:1087900008B987F80390B17808F80410E2E7806818
:1087A000FEF7DAFC04EB4401314418F804008D783C
:1087B000A842D7D0BDE8F087C010030028250020CC
:1087C0002C2A002070B50023042810D20D4D00EB98
:1087D0004004012A02D101290CD00022094E00EBED
:1087E0004000304461B1012906D0022906D0072398
:1087F000184670BD0E30C2B22A55F9E74270F7E74D
:108800008270F5E72C2A0020044A014600201279E4
:10881000D20702D0084600F003B870471C2500209C
:108820002DE9F05F6E4C054600266078B34618B11E
:1088300084F801B002F044F86A4F4FF47A694FF4BB
:10884000C87A4FF00108182D69D2DFE805F00C1343
:1088500013384754696E727B727BC5848484848428
:10886000B3B6B9BCC5C502F02BF83868FEF774FC86
:1088700006465CE00020FFF719FF00284FF00000DB
:1088800008D0FFF703FF022D02D14FF4E16008E0AA
:10889000484606E0FFF702FF022D01D1C82000E0A4
:1088A0005046410CC0034FF4FA72801841F10001A8
:1088B000257052000023FDF795FD01462AE00020B7
:1088C000FFF7F4FE00284FF0000004D0FFF7DEFEB3
:1088D0004FF44870E5E7FFF7E1FEDFE70020FFF720
:1088E000E5FE00284FF0000002D0FFF7CFFECFE7F3
:1088F000FFF7D4FED4E70020FFF7D8FE00284FF0A2
:10890000000002D0FFF7C2FE01E0FFF7C7FE2570AE
:1089100041F69A1100223868FEF7DAFB064646E077
:108920000020FFF7A1FE257008E0002051E025702F
:108930003DE084F801800120FFF796FE002240F61A
:10894000CD41E8E784F801800120FFF78DFE002289
:108950004FF48041DFE77868FEF7FEFB0646D5F16D
:10896000110000D02EB10220FFF790FE84F802B073
:108970001DE0012816D980B2C8214843C117C90398
:1089800041EA5041C0034FF4FA72801841F10001EE
:1089900052000023FDF726FD014600227868FEF70D
:1089A00097FB06460220FFF779FE84F802803046E6
:1089B000BDE8F09F01F084FFB9E701F081FFB4E763
:1089C00001F07EFF04E001F07BFF0020FFF766FE70
:1089D0000120FFF763FEAAE7FFF781FEA7E700008B
:1089E0001C250020C0100300012108F0F0B8000091
:1089F0002DE9F8430546861C00208DF800009046BE
:108A00000F464FF001096846FEF7B6FB1B4C206885
:108A10003860D4E90001401AA16804F21C47081A22
:108A20000EE00121384602F030FC02F065F9014603
:108A3000384602F02AFCD4E90001401AA168081A5D
:108A4000401C8642EDD8B8F1000F03D0052065F335
:108A5000891002E0062065F39F50A268216811404A
:108A600004EB8101C8602068304420609DF800005C
:108A7000FEF7A6FB4846BDE8F883000068360020F4
:108A800070B50D4604460A2902D10D21FFF7F8FF03
:108A9000A0682268411CA1601554D4E901018142FB
:108AA00004D32046BDE8704002F035BE70BD000022
:108AB000034803C8814201D101207047002070475C
:108AC000683600201CB5044601F036FD00236A46D6
:108AD000092105F023FA052805D10348012241792F
:108AE0002046FFF781F91CBD4C2500201CB504462B
:108AF0000020009042F6A620ADF8000001208DF87D
:108B00000200084801AA6946006801902046A0DFDB
:108B1000002805D10448012281792046FFF764F935
:108B20001CBD0000681103004C25002002490844C8
:108B300090F9300070470000303100202DE9F043FB
:108B40008146887891B090460C4600B901208DF896
:108B50003E002088ADF83C0000250095607C694609
:108B600007F08CF96E46A07C711C07F087F9E07B5A
:108B700000289DF8020002D040F0080001E020F03B
:108B800008008DF80200217C11B140F0100001E0D6
:108B900020F010008DF80200217B11B140F001009F
:108BA00001E020F001008DF80200217D09B10221D1
:108BB00000E0012161F342008DF802001C2102A8AF
:108BC000FDF76DFC607BC10601D4800617D50E95BC
:108BD0000EAFE07C791C07F051F99DF8380007973B
:108BE00020F00F00401C20F0F00010308DF838000D
:108BF0009DF83A0020F00600801C8DF83A00607B5A
:108C00008DF80800A07B8DF80900142109A8FDF754
:108C100046FC0FA8CDE90906A088ADF83000A06891
:108C200020B1E088ADF82C00A0680D90A06998B341
:108C300001950088ADF81000A06901AD01A9408838
:108C4000ADF81200A069406806950390A069007B0A
:108C500007F014F9A069691C407B07F00FF9A069BF
:108C6000807A00289DF8060002D040F0080001E05C
:108C700020F008008DF80600A169C97A11B140F012
:108C8000100001E020F010008DF80600A169097ABB
:108C900019B140F0010002E00DE020F001008DF874
:108CA0000600A169897B09B1022100E0012161F37D
:108CB00042008DF80600E06900B10590434609AA1C
:108CC00002A94846AADF11B0BDE8F08308B5024604
:108CD00090F8C6020B4600EB8001C1EB801002EB5E
:108CE000400092F8C52242B1521ED2B202EBC2013C
:108CF00000EB4102518A491C00E0C188ADF8001028
:108D00000089ADF80200694618469DDF08BD70B5C0
:108D100004464FF6FF750A462846AC4209D14FF487
:108D200080742146104602F06DFA80B2A0420BD04A
:108D300070BDFF2CFCD82146104602F053FA90F08B
:108D4000010F01D0204670BD284670BD70B5084C9B
:108D5000050009D010342168002907D00868206078
:108D6000496828468847F6E70834F4E770BD0000F4
:108D70001C310020054A012120B1012805D1917044
:108D8000FFF7E4BF51700020FAE770471C31002064
:108D90002DE9F05F26484168F1B3DFF898B00E681E
:108DA0008146DBF8004087688078E11B21F07F4531
:108DB000ED1CB0B9DFF880804FF48030C8F8440370
:108DC000C8F804031120FDF789FC1120FDF791FC80
:108DD0004FF0010AC8F800A02F2003F001FF89F826
:108DE00002A0B54200D23546124BE8193C3320F0C0
:108DF0007F401860DBF800105A46091B21F07F41C4
:108E0000001B20F07F40C91C81420FD910681860F8
:108E10002F2003F0E5FE00E004E0BDE8F05F112044
:108E2000FDF772BCBDE8F05F06F07EBBBDE8F09FC9
:108E300028260020041501400010014073B58CB0B5
:108E40000646002000900D9880B100246D46214612
:108E50000DA802F0FCF930B1009805EB40008480C9
:108E60000098401C0090641C142CF0D32C226946FE
:108E70003046FDF7FBFA0EB070BD2DE9F0411788C2
:108E80000646B81D14460D46984202D90C20BDE88E
:108E9000F0813188072206290AD34FF4486C4FF637
:108EA000FF73614501D9994202D17088062801D229
:108EB0001046ECE7604501D99842F9D1994203D0B8
:108EC000984201D08142F3D80520E855208812212C
:108ED000401C80B2208029542088401C80B2208011
:108EE0004119308807F015FD2188084480B22080A0
:108EF0004119708807F00DFD21880844208000206A
:108F0000C5E7FEF79BB8000038B54A7A0F4B62B14F
:108F100000220A725969002906D001228DF800202A
:108F2000ADF802006846884738BD0A7A62B19B688E
:108F30004C68024619462046FEF7CAF80028F3D0CE
:108F4000BDE8384006F084BD5B68F1E78C2A00205C
:108F5000F0B587B016460F4604461D4618220B4949
:108F60006846FDF783FA0A488DF80870ADF80240AC
:108F7000ADF80A608DF80C50017800222046FEF70B
:108F800033FF684600F048FB07B0F0BDD81203007D
:108F9000EC250020FDF770BE70B588B006460020B5
:108FA00005900690ADF81410ADF8161001900290DF
:108FB00001AA05A9304690DF050021D003F0B6FDD7
:108FC0000346114811493246401AC108012000EBFE
:108FD000014004460E4903F07AF9BDF8042012B9A5
:108FE000BDF8060028B1BDF80630204609A103F0FF
:108FF0006EF9BDF808201AB12046164903F060F951
:1090000008B0284670BD00000C2D0300EC2C0300B6
:10901000981A0300546865207265717565737465EC
:10902000642054582F5258207061636B6574206C13
:10903000656E67746820697320746F6F206C6F6E43
:10904000672062792025752F2575206F63746574FC
:10905000732E0000E41A030001460148FFF794B99B
:109060005C27002070B504460948012102F028F968
:10907000BFF35F8F0025002808D1204601F0B6FD20
:10908000002803D1BFF35F8F0148056070BD000069
:10909000582500207FB50C4610B1012004B070BDEA
:1090A0002079002638B141F61D5501281BD0022831
:1090B00026D00F20F2E70220207102960396E06886
:1090C0000190694601A806F06FF950B102988188B5
:1090D000E18000882081BDF80010029806F0E2F9D6
:1090E000DCE70A20DAE70A4B6A460021A01D06F0F9
:1090F00017F938B1064918398E61CE610A28CDD1E9
:109100002846CBE702488188019806F0CBF9F5E7BD
:1091100054260020F0B587B00C46074616461421A9
:1091200001A8FDF7BCF9A07800B901208DF81A005C
:109130002088ADF8180006A80190A079694606F0CD
:109140009DFE6D46E079691C06F098FEE0780028E7
:109150009DF8020002D040F0080001E020F0080075
:109160008DF80200217911B140F0100001E020F0EB
:1091700010008DF80200617911B140F0010001E0AA
:1091800020F001008DF80200217A09B1022100E0EF
:10919000012161F342008DF8020002956089ADF86B
:1091A0000C00A089ADF80E00E089ADF81000206930
:1091B0000590324601A93846ABDF07B0F0BD2DE976
:1091C000F843054690F8C6020F4600EB8001C1EB5C
:1091D000801005EB400695F8C542914604EBC400AB
:1091E00006EB40013279601C0A31904226D16B4671
:1091F0000022284601F02EFB18B310E0401EA042CA
:1092000001D1002004E004EBC40006EB40001C3058
:10921000804602466B46284601F01CFB30B1002018
:109220003870694648469EDFBDE8F88395F8C50268
:109230004146401C641C85F8C502E4B23079A04266
:10924000DCD8012038700020EEE700002DE9F0475F
:10925000894690F8C612904601EB8102C2EB81115B
:1092600000EB4107384606F039F906002FD0194CBB
:10927000A06806282BD2184D762205EBC01039467F
:10928000A0F80280001DFDF7F1F80027B9F1000FEA
:1092900004D0A06805EBC010077004E0A1680220AC
:1092A00005EBC1110870A06805EBC011401CCE672A
:1092B000A060E16888420AD1002604E005EBC610F0
:1092C000C16F8847761CE0688642F7D3A760BDE887
:1092D000F08700003C250020382B002070B50E469A
:1092E00090F8C612154601EB8102C2EB8111A0B0C5
:1092F00000EB410006F0F2F8040009D07C22054999
:109300006846FDF7B3F8ADF8025068460196A047ED
:1093100020B070BDEC10030070B50E4604464FF44B
:109320003371FDF7BCF811480025A4F8CA628560C6
:1093300084F8C9520E4884F8C65284F8C5520068B1
:1093400020602246012130469BDF0121112806D0F2
:10935000002809D184F8C71284F8C85203E084F8C1
:10936000C71284F8C812002070BD00003C25002000
:10937000202B002010B50021024801F0A1FF80F34E
:10938000100010BD843A00200E4910B50A784C78C0
:109390000023A24212D0521CD2B20A70022A00D17B
:1093A0000B70084A0B780C3252F823200260886850
:1093B000104420F07F408860012010BD0360002031
:1093C00010BD00002826002013460A460021FFF7A2
:1093D000BFBD00002DE9F843104D0F4680461E46E4
:1093E00091466946286801F0C6FE040014D01C218D
:1093F000FDF755F801202071C4F81490380BC4F81B
:109400000080C4E902606946286801F0D5FE05F0D5
:10941000F3FE0020BDE8F8830420FBE7C01303003F
:1094200010B503780022072B06D2DFE803F005040D
:109430000610202930000A7010BD01230B7003892B
:109440008B818388CB81C06888600A7410BD02223A
:109450000A7002898A818288CA81C2688A60807D96
:10946000062802D00020087410BD0120FBE703226B
:109470000A70C2888A810289CA81C068886010BD6A
:1094800004230B70C0888881CA818A6010BD0520C2
:10949000087010BD70B5064D0646002455F824101E
:1094A00009B130468847641C042CF7D370BD000016
:1094B0004033002030B50446006887B00D46806810
:1094C00000281FD018216846FCF7E9FF0195A06825
:1094D0000590207910B1012810D107E001208DF806
:1094E000000020690290E068039005E002208DF8FA
:1094F0000000E068000302906069049020688168C1
:109500006846884707B030BD2DE9F04186B0164661
:109510000C00804629D0112C27D0082C25D01821EA
:109520006846FCF7BCFFADF80280404601F004F845
:10953000ADF804001B481C490027401AC5080D2C33
:1095400016D0204603F0F2FA0246012000EB054057
:109550004346164902F0BBFE07208DF80000029436
:109560008DF80C70684600F065F806B0BDE8F08133
:10957000022000EB054042460D4902F0A1FE032007
:109580008DF8000026B13078C00701D0012000E03E
:1095900002208DF8080041F201108DF80C70ADF832
:1095A0000A00DFE73C2D0300EC2C0300C424030079
:1095B000B423030010B50446408800F0BDFFA0802E
:1095C000024801682046BDE81040084754250020A5
:1095D00010B50446808800F0F9FE608002480168FA
:1095E0002046BDE810400847642500202DE9F041E1
:1095F00007460024064E074D05E000BF56F824102C
:1096000038468847641CE8788442F7DBBDE8F0817F
:10961000D03000207C25002010B50446408800F0A2
:109620008BFFA080024801682046BDE81040084733
:109630008C12030001490968084700001813030051
:1096400070B586B0044618216846FCF728FFA0894B
:109650000125A0F54040ADF804002078324E0628E0
:1096600035D2DFE800F0340303032E4EA08900F06A
:1096700093F930B9E08943F6FE71A0F54040884285
:1096800025D8A07B8DF808002078032811D0002071
:109690008DF80900A0680390606860B109208DF81A
:1096A0000000606804908DF81450684604F088FB50
:1096B0000DE00120ECE708208DF800008DF8105037
:1096C000F3E7A08900F068F908B1E08930B170785B
:1096D000002801D004F0BEFC06B070BD606840B147
:1096E0000B208DF80000606802908DF80C507570AA
:1096F000DBE70A208DF80000BDF8040004F048FD07
:10970000F5E7606858B114208DF800006068029099
:109710008DF80C504FF6FF70ADF80400C5E713202C
:109720008DF80000F6E700006825002038B50446F3
:109730000E480078A8B1A4F57F40FF380FD06846E6
:1097400005F08CFC78B10521017001210171C48004
:10975000684605F091FC05F041FD002038BD04206D
:1097600038BD022038BD082038BD00005C2600202E
:109770000C4808B5007888B1684605F06FFC78B1F0
:1097800006210170684605F077FC0748017809B1A9
:109790000121017305F022FD002008BD022008BD53
:1097A000082008BD5C26002004340020F0B587B0F6
:1097B00014216846FCF773FE2F4C207818B16846D8
:1097C000FFF768FE55E0201D01F05CFD98BB40F6F8
:1097D000F8700168481C02D14FF0102041694FF029
:1097E0008050026940694B1C01D100FB02F1234803
:1097F00000220161A1F54051C160214902F020F928
:10980000002822D120481C238C221E49006801F028
:109810009FFC04F067F8050016D0022D14D0002735
:109820000126062D13D005A805F018FC90B106708E
:109830000C2D19D200E01CE0DFE805F0160E160E24
:1098400016151615161012100B2007B0F0BD267055
:109850006760B4E70820F8E7077105E0032100E03E
:109860000221017100E0067105A805F005FC05F074
:10987000B5FC0020E9E700005C260020F42600206B
:10988000D0130300503300203813030038B5040010
:1098900014D0694605F088FDA0B1BDF8000000EBCA
:1098A0008001094800EB8100C16849B1A17A39B152
:1098B000C168491EC1600020A07238BD052038BDB6
:1098C000062038BD0A2038BDDC3300201FB501A9B1
:1098D000684605F025FD04B010BD07B513460A46DD
:1098E0006946002005F01CFD0EBD07B513460A466B
:1098F0000021684605F014FD0EBD20B119B10068C5
:10990000086000207047052070470000F8B50D463C
:10991000040018D0BDB1694605F046FDA8B1BDF8F8
:1099200000000B4900EB800001EB800001210C30AE
:10993000666801F0AAFC2E6060680C306860012047
:10994000A0720020F8BD0520F8BD0A20F8BD000077
:10995000DC33002018B10323002207F07BBA052076
:1099600070470223002207F075BA0000084910B5BD
:109970000A69042A0AD0074A096942F82100044802
:109980000121103001F081FC002010BD0C2010BD21
:109990003C2600204033002043F6FE71A0F54040F5
:1099A000884201D8012070470020704710B5044656
:1099B0000078182802D1FEF7F3F9207010BD10B519
:1099C00004460078182802D1FEF7EAF9207010BD8D
:1099D00070B50D460446B0F83812D0F834020122B2
:1099E000FDF794FE00B1057004F13C0204F50D7121
:1099F00004F1540072DF70BD70B5134600220546B5
:109A0000112900D10122074C33B12179FEF7ECF97D
:109A100000226178284600E06178BDE87040FEF7DA
:109A2000E3B90000F4250020F7B517460E0011D069
:109A30000098002560B100242146684601F007FC2B
:109A400018B1A0B23946B0476D1C641C142CF3D376
:109A50002846FEBD0020FEBD406805F01FBB00008B
:109A60000EB516A19DF8080020F00F00401C20F054
:109A7000F00010308DF808000B2202A87CDF08B13E
:109A8000FDF7DCFA4FF4107078DF08B1FDF7D6FA75
:109A900000204FF4C87100900190ADF80400ADF8BB
:109AA00000104A00ADF80220ADF8061068467ADFD3
:109AB000002801D0FDF7C2FA0EBD00004E6F72649F
:109AC00069635F50726F780070B508B1012070BD96
:109AD0001B4C0025207B08B1257301E000F0A4F8A1
:109AE000207808282AD2DFE800F02904080C102981
:109AF0001422BDE8704000F025B8BDE8704000F0C9
:109B000081B8BDE8704000F063B8BDE8704000F077
:109B10003FB8062020706088094900EB8000283992
:109B200001EB80004068BDE8704003F0BBBE072039
:109B300020706560BDE8704003F0C2BE0F2070BDAC
:109B4000043400201149F0B48A1C00200346A1F11E
:109B500028050C18A67A4EB1A37200EB800405EB21
:109B60008404E66816B9247C012C0AD0401C80B21B
:109B70000228EED30B704B804B60F0BC41F61D50B9
:109B800070471080F0BC00F03DB8000004340020A5
:109B90000C48418801EB8102A0F1280101EB820110
:109BA000CA6852B10521017007480221818001680D
:109BB00000230122054801F0A7BE04220270496873
:109BC000F6E700000434002064260020F42600207C
:109BD00038B50A49084803240B684268898803EBB2
:109BE000810153880470DB1C00201B0400909B0B38
:109BF000034801F0DDFF38BD043400206426002056
:109C0000F4260020074910B54888091D05F01CFC02
:109C100018B1BDE81040FFF7DBBFBDE81040FFF70B
:109C2000B7BF000004340020F0B51F481F490125CC
:109C3000067802248B88A0F12802082E19D2DFE8CA
:109C400006F00418181B222F2F170189491C0181C7
:109C50000021418080F80C1001EB810312F82330C1
:109C600043B100234418491C89B2A3720229F3D3DB
:109C70000570F0BD0123F5E742685288D21C1A44F2
:109C80008A800470F0BD46880D6806EB860602EBFC
:109C9000860256680E60556013818C80062100E0B4
:109CA00007210170F0BD000004340020642600206C
:109CB0002DE9F043064680883288DFF85C8187B062
:109CC0000746502A37D010DC5449554B06F10A0597
:109CD000A1EB03014FEAD1014FF0020303EB014472
:109CE000352A3AD0362A07D168E0522A02D0542ABF
:109CF000F9D102E000F01EFF82E0182249496846CF
:109D0000FCF7B4FBADF80270384600F015FCADF876
:109D1000040000F091F90022444698F804103846F7
:109D2000FEF762F80022E1783846FEF75DF86846F3
:109D3000FFF740FC64E0307B012861D1B07A012854
:109D40005ED13089A0F52451023959D1012138461C
:109D500000F044FF06F04CFE52E098F80610FEF7C3
:109D60002BF800284CD0002298F806103846FEF751
:109D70003BF8F288B2F5857F17D012B120462AA1B0
:109D80000BE02A88012A03D0204636A102F098FA77
:109D90006A88012A04D0204641A102F091FA04E029
:109DA000A98800223846A1DF08B1002125E0012260
:109DB00098F807103846FEF717F821E04FF0000931
:109DC00098F80710FDF7F8FFD0B1002298F80710B7
:109DD0003846FEF709F8F28812B1204612A104E0D5
:109DE000AA88012A04D020462DA102F069FA03E0D6
:109DF000A87900B1012081464946384606F0DEFACE
:109E00000022364998F80200FDF780FF07B0BDE850
:109E1000F04305F0A5BE00004C250020F42C030003
:109E2000EC2C0300CC110300556E657870656374EB
:109E300065642047415454207374617475732077AE
:109E400068696C652067657474696E672043415268
:109E500020636861722076616C75653A20307825E0
:109E6000780000004D756C7469706C65202825645D
:109E7000292043415220636861726163746572698D
:109E8000737469637320666F756E642C20757369D3
:109E90006E67207468652066697273742E00000016
:109EA000556E657870656374656420434152206324
:109EB0006861726163746572697374696320766145
:109EC0006C7565206C656E67746820282564292C84
:109ED0002073746F726520302E000000057302003D
:109EE00070B504460078002814D1608800F022FE86
:109EF0006588284600F062F928B107480122C17838
:109F00002846FDF771FF6088FEF7DCFDBDE8704074
:109F100006F06EBD70BD00004C25002070B5204CD1
:109F200000252570FDF73CFF6070FDF739FFA0703C
:109F3000FDF736FFE070FDF733FF2071FDF730FFCE
:109F40006071FDF72DFFA071FDF72AFFE0716278C7
:109F50000121182A18D0A278182A15D0E278182AD8
:109F600012D02279182A0FD06279182A0CD0A2793F
:109F7000182A09D0182807D004F10C000560BFF397
:109F80005F8F2170002070BD0648074A801AC00804
:109F900001EB0040054902F08FF9032070BD00007D
:109FA0004C250020F42C0300EC2C03005817030070
:109FB0007CB504460078082837D1607A58BB207AEF
:109FC0001C4E4FF6FF75012811D0072802D0082833
:109FD0002BD121E0A08800F0F9F90446A84224D052
:109FE000012100F0FBFD2046FEF76CFD1DE0A0887E
:109FF0006A46012103F006FE68B90198007850B165
:10A00000A08800F0E3F9A8420FD00122F178FDF713
:10A01000EBFE05F0A5FD08E0F068012805D1BFF3CF
:10A020005F8F044900200C310860BDE87C4006F0D9
:10A03000DFBC00004C2500201CB5054AD2E9021205
:10A04000CDE900120022694603F0A2FF1CBD00000A
:10A05000E811030003484FF6FF7181800121017070
:10A06000002070475C2500202DE9FC41804600F06F
:10A0700063FA002403250127A0F57F412646FF3916
:10A0800008D06A46082103F0BDFD18B90198841D67
:10A090008688056832462B4621464046B1DF0428B3
:10A0A00004D0082804D00B2808D002E0112000E0DA
:10A0B0000020002F00D10B20BDE8FC810027A8075D
:10A0C00001D50125E6E7344303D0002426460325C5
:10A0D000E0E7064806494246401AC008012101EB64
:10A0E0000040044902F0ECF8E5E70000FC2C030016
:10A0F000EC2C0300201A03002DE9FC41804600F0FF
:10A100001BFAA0F57F410646FF390ED001252A46ED
:10A110006D1C0027ADB26B460821304603F0BCFD34
:10A12000040006D0072C33D033E043F20200BDE830
:10A13000FC81019903230A1D0B604046891DB2DF93
:10A14000040004D00C2C09D0052C09D009E03246BB
:10A150000821104603F018FE04461AE0012700E02B
:10A1600000240821304603F005FE70B102F0DEFC49
:10A170000346094809493246401AC008012101EB4B
:10A180000040074902F0A3F80324002FBFD100E0EC
:10A190000C242046CBE70000FC2C0300EC2C030031
:10A1A000A019030004488088A0F57F41FF3901D041
:10A1B00005F0E0BC704700005C2500200EB502A948
:10A1C000019100F0B9F96A46012103F01BFD08B1C5
:10A1D00000200EBD019800780EBD00002DE9F04171
:10A1E00007464FF6FF761048B3DF78B102F09EFCC9
:10A1F00002460E480E49401AC008012101EB0040FA
:10A200000C4902F05DF80320BDE8F081064C43F2F2
:10A210000305A41E324661883846AFDFA842F3D159
:10A220006088401C6080F5E75E250020FC2C030060
:10A23000EC2C030054190300428800EB82020C321C
:10A240008A4201D9022070478188A1F57F42FF3AF6
:10A2500003D0008808B10020704701207047884271
:10A2600004D20068401C01D00120704700207047D4
:10A270003EB5027802230C46B3EB520F17D1B0F86B
:10A280000110ADF80010C1788DF802108188ADF88A
:10A29000041080798DF8060002AA01A92046FCF777
:10A2A0001DFE032202A96846FCF70BF908B1002045
:10A2B0003EBD01203EBD000070B50D460446142889
:10A2C00010D2FDF7B1FD68B1084904EB840001EB41
:10A2D0004000D0F802102960C188A980007AA871D6
:10A2E000002070BD43F2020070BD0000382E002037
:10A2F00070B5018892B0102961D1011D2C226846E9
:10A30000FCF7B4F89DF804004FF6FF7603213446BD
:10A31000B1EB500F2BD003F0F9FD9DF804006D4612
:10A3200040080ED001280CD0022820D118E00D9949
:10A33000281D1131FCF76AFD18B100BFBDF82C4093
:10A3400015E00CAA0BA9072003F0B4FD0028EED1FC
:10A350000DE00D99281D491CFFF78AFF0028EDD15B
:10A360000CAA0BA9072003F0A5FD0028F1D1BDF828
:10A370000000B44200EB8001124820F8114000EBCD
:10A3800041000199C0F80210BDF80810C1809DF885
:10A390000A10017213D0BDF80000ADF82E000020A5
:10A3A000ADF83040084E8DF82C000BAD044600BFD0
:10A3B00056F8241028468847641C022CF8D312B0A3
:10A3C00070BD0000382E0020FC1103002DE9F04183
:10A3D0004FF6FF760546B04213D00B4F002400BF66
:10A3E00004EB840037F81000A84206D12046FDF7A0
:10A3F0001BFD10B12046BDE8F081641CA4B2142CF2
:10A40000EED33046F7E70000382E00203EB50C466C
:10A41000054603F07BFD0BE0BDF80000A04207D02D
:10A420002846029900F00EF810B1BDF800003EBDBC
:10A4300001AA6946072003F03DFD0028ECD14FF644
:10A44000FF703EBD2DE9F0410C46054600F11107B5
:10A4500001F111061022491C401CFCF732F848B9E2
:10A46000681C00F01DFA28B1601C00F019FA08B150
:10A47000012400E0002431463846FCF7C7FC3B7855
:10A480000222B2EB530F0CD00321B1EB530F08D0D3
:10A490003378B2EB530F04D0B1EB530F01D001214D
:10A4A00000E00021084201D18C4302D00120BDE828
:10A4B000F0810020FBE7018811B9421892780AB1B7
:10A4C00001207047491C0829F7D30020704710B5B8
:10A4D0000C460346FFF7EFFF00280AD018882188B2
:10A4E000884205D10822A11C981CFBF7EAFF08B19D
:10A4F000002010BD012010BD142804D2024A00EB38
:10A50000800022F810107047382E002070B50546E4
:10A51000FFF75CFF0446284603F078FB002808D1CB
:10A52000142C06D2034B04EB84024FF6FF7123F880
:10A53000121070BD382E002010B50446142808D221
:10A54000FDF772FC28B1044904EB840031F81000D7
:10A5500010BD4FF6FF7010BD382E00203EB50446EA
:10A5600003F0D4FC0EE0019920464631FFF7AFFF1F
:10A5700028B9019920462A31FFF7A9FF10B1BDF88B
:10A5800008003EBD6A4602A9072003F093FC00289C
:10A59000E9D14FF6FF703EBD10B50A4941600A4847
:10A5A00000F070FE58B902F04BFA07491C238C22C8
:10A5B000087404488C39001F006800F0C9FD0020B1
:10A5C00010BD0000C4130300B03400202DE9F04199
:10A5D0002D4F002518B17D600120BDE8F08108797C
:10A5E000012258B1294E01280CD0274C4FF0020807
:10A5F0000834022821D0032842D128E00A7103F050
:10A600005FF93BE05FF0000000EB800116F82110DD
:10A61000022908D0401C80B20228F5D33A707D6030
:10A6200041F61D50D9E700EB800006F8205006EBFC
:10A630008000406803F036F920E00D71A4F8048032
:10A64000002301221248216801F05EF916E00D7125
:10A65000206803F027F90D4923682831498801EB68
:10A66000810206EB8201D1F804C0C4F800C04B603F
:10A67000A3880B81A4F8048006F822500028ACD0EF
:10A680007D600E20A9E700005C260020DC3300205E
:10A69000F42600200146034802888A4200D00020A8
:10A6A00070470000782A00202DE9FC5F0E008346E9
:10A6B000DDE90C47C6F1000098469246814600D479
:10A6C0000846012503E000BF90FBFAF06D1C5045E1
:10A6D000FADAA84500D9454624B1002E01DB7807F7
:10A6E00000D5641EB80702D5B8F1000F0AD0F807EC
:10A6F00008D13CB1A54205D220215846641EFEF780
:10A70000BFF9F6E7002E02DA4E462D2102E0780767
:10A7100003D52B215846FEF7B3F907F003000228B2
:10A720000BD1B8F1000F08D13CB1A54205D23021C0
:10A730005846641EFEF7A4F9F6E7CDE90047434604
:10A7400052463146584606F0F9F8BDE8FC9F000035
:10A7500070B50D46044600684FF4887102F006FAA1
:10A760004FF49071206802F001FA4FF49271206862
:10A7700002F0FCF94FF4A271206802F0F7F92068AA
:10A780001149C0F804132068690740F30730090E27
:10A79000002806DA00F00F0000F1E02080F8141D18
:10A7A00003E000F1E02080F800142068012140F36C
:10A7B000073000F01F0291404009800000F1E020C6
:10A7C000C0F8001170BD0000100302000246002016
:10A7D0001268530713D502F00300012802D00228A3
:10A7E0000CD105E0C2F383100B68801C184404E010
:10A7F0000223086803EB925210440860012070475E
:10A800000248007A002800D001207047B0340020B0
:10A81000F0B58488A518944200D82246A41AC288AC
:10A82000D6189A4200D81346D21A4B880788BB42E2
:10A830000CD34088834209D88888A04206D3A84216
:10A8400004D8C888904201D3B04201D90020F0BD9D
:10A850000120F0BD10B509892AB1D088491C814278
:10A8600018D1002010BD90F8C62202EB8204C4EB80
:10A87000821200EB420212899142F2D0491C1980E7
:10A8800090F8C61201EB8102C2EB811100EB41008E
:10A89000008902E01980D088401E5880012010BD38
:10A8A0000021425C0AB101207047491C1029F8D3ED
:10A8B00000207047800701D00020704701207047BA
:10A8C0000A4810B5807860B1002401E0022C06D05F
:10A8D0002046FDF7DBFE641C042CF7D310BD0324D7
:10A8E000F6E7BDE81040FDF7F1BE00001C25002092
:10A8F0001721018041800021017141711B2181716B
:10A90000C17170472DE9FE4F2E4F984692460D00BB
:10A91000814601D000260DE0684600F0EFFB6A4654
:10A920000021484603F0C6F83878009E10B99DF81B
:10A93000090098B152463146484605F019FC0446D4
:10A94000014600224846FFF757F80D2C37D008DCA7
:10A95000A4B3082C33D00B2C09D130E00520BDE87E
:10A96000FE8F112C1ED0A4F54050023827D020466F
:10A9700002F0DCF80246144814494B46401AC0085D
:10A98000012101EB0040124901F0A1FC5FF0030539
:10A99000B8F1000F04D0324621464846FEF7B4FD18
:10A9A0002846DCE72A46F9784846FDF71DFA524664
:10A9B000B9784846FDF718FA0025E9E7FFE725468C
:10A9C000E6E70000F42500203C2D0300EC2C0300FA
:10A9D0006C24030070B50E460C49154604460978F0
:10A9E000FDF7EAF900280FD0204603F009F8002807
:10A9F0002A463146204603D0BDE8704003F006B831
:10AA0000BDE87040FEF7E0BC70BD0000EC25002002
:10AA100070B5094D0646A978FDF7CEF90446E978E8
:10AA20003046FDF7C9F9014622463046BDE8704080
:10AA30000123FFF767BF0000F42500202DE9F04750
:10AA4000394E002780463D46DFF8E090D6F804A056
:10AA500057E003D00446D0F81C8035E099F8002078
:10AA600002EB4201521CD2B289F8002009EBC1016D
:10AA700099F80230091D9A4201D189F800504868BE
:10AA80000A780446012A12D0022A02D0032A3BD1B6
:10AA900008E005F027FD00B10127257434E00574B6
:10AAA000C06900E070680028F9D170602CE0207C5B
:10AAB00050BB88686060C868A0600869E060486949
:10AAC000A061F07800B165606268B168184B501AF7
:10AAD00020F07F40984202D2A168084406E0881A1C
:10AAE000A16820F07F40814202D9081A206000E06E
:10AAF000256065600120A56020742046E56105F0B1
:10AB0000D3FCB8F10000A4D199F8001099F8010025
:10AB10008142A3D117B97168514502D00120BDE827
:10AB2000F0870020FBE70000282600200C320020E0
:10AB3000FFFF7F00F0B587B0054600271821684663
:10AB4000FBF7ADFCA5F57F40ADF80250FF3825D0EE
:10AB50002846FFF789FA040022D01B481B49401AF7
:10AB6000C6080B2C22D0112C1ED0A4F54050023860
:10AB70000ED0204601F0DAFF0246012000EB06402D
:10AB80002B46134901F0A3FB2146284604F068FF39
:10AB900010483A4681782846FDF726F907B0F0BDFF
:10ABA0000E208DF800000BE00127F1E70F208DF853
:10ABB0000000022000EB06402A46074901F080FB16
:10ABC0006846FEF7F7FCE3E7F42C0300EC2C0300E7
:10ABD000281803004C2500207C1803000A4602496F
:10ABE0004978FDF701B900004C2500202DE9F0411E
:10ABF000002786B080463E46FFF77EFA040022D04A
:10AC0000112C22D01B481C49401AC508862C1ED086
:10AC1000A4F5405002380ED0204601F087FF0246CE
:10AC2000012000EB0540434614A101F050FB2146F2
:10AC3000404604F015FF39464046FFF7CFFF06B007
:10AC40003046BDE8F0810126F5E70127F3E7182239
:10AC50001A496846FBF70AFC0220ADF8028000EBB7
:10AC60000540424616A101F02BFB6846FEF7A2FC08
:10AC7000E1E70000F42C0300EC2C03006773636D24
:10AC80005F6C6F63616C5F64625F63616368655F83
:10AC900075706461746528292072657475726E65BB
:10ACA0006420257320666F7220636F6E6E5F68612B
:10ACB0006E646C653A202564000000009C1103005E
:10ACC000466C6173682066756C6C2E20436F756CE2
:10ACD00064206E6F742073746F7265206461746198
:10ACE00020666F7220636F6E6E5F68616E646C6564
:10ACF0003A202564000000002DE9FF41002623488A
:10AD000000F0BDFA2148001F074600F0B8FA204CB9
:10AD100060680090A56800E000986946284004EB50
:10AD200080000C30FFF752FD0028F5D101AA0099F0
:10AD300001EA050304EB8303491CDB6842F8203079
:10AD4000401C00910228F2D3019800F00300012872
:10AD50000BD0022810D10198032101EB90500099EB
:10AD6000BDF80A6001EB900005E00198BDF80A60AB
:10AD7000C0F3831008440090384600F07DFA08B113
:10AD80000098606004B03046BDE8F081803A002051
:10AD9000683600200124A007ACB00460D0F8001190
:10ADA0000029FBD0544855490327401AC00807EB37
:10ADB0000040054652A101F07FFA4FF40041002007
:10ADC00001F0F8FA08B1FCF739F901F04DF9FCF798
:10ADD00055F908B1FCF732F9504A01215048FCF707
:10ADE00039F908B1FCF72AF901F0FAFB08B1FCF7D0
:10ADF00025F901F0D9FD08B1FCF720F900266946D4
:10AE00000120009601F060FC08B1FCF717F96846D4
:10AE100001F0DAFC08B1FCF711F9FBF7CBFFFEF704
:10AE20001FFE00213F4800F0C0FA08B1FCF706F908
:10AE3000AC216846FBF733FB02208DF800008DF84B
:10AE4000024005208DF803000420ADF810003648BC
:10AE500005902820229044F2506023908DF87C4089
:10AE6000324829902F4869462030FCF77FFC08B112
:10AE7000FCF7E4F82B4801212030FCF773FC2C4848
:10AE8000FCF7FCFF08B1FCF7D9F804F085FF1C21A2
:10AE90006846FBF704FB4FF42030CDE900604FF427
:10AEA000702002908DF80C702248ADF80E608DF87D
:10AEB0001040CDE905606846FCF7D4FE08B1FCF708
:10AEC000BDF803F0ABF928460DA101F0F5F94046B5
:10AED000FBF7DCFF13486FF00702203090F85410A6
:10AEE000012077DF08B1FCF7A9F801F0CBF80028C2
:10AEF000FBD101F089FBF8E79C2D0300EC2C03004B
:10AF000050726F78696D697479206578616D706CC5
:10AF10006520737461727465642E000025750200EB
:10AF2000A410030074270020082500208DD2020001
:10AF300059900200038F020070B5144682880E46B5
:10AF400005462088111D0144921C994201D8FE2A11
:10AF500001D90C2070BD521C32542088FF21401CA6
:10AF600080B2208031542088401C80B2208081191A
:10AF7000288805F0CEFC2188084480B22080AA8869
:10AF800042B1A96841B13044FBF770FA2088A98822
:10AF900008442080002070BD072070BD2DE9F047D7
:10AFA000C5881E1DB6FBF5F78946B6FBF5F10446CC
:10AFB00005FB176C407916686843DDF820A0F71888
:10AFC000001F874200D9C61A166001E02468491E96
:10AFD0000029FBD1A5EB0C078846B74216D818E02C
:10AFE00004EB0C00001D09EB0803BAF1000F3A4610
:10AFF00002D00146184600E01946FBF737FA2468EC
:10B00000F61B4FF0000CB844B54201D9374600E0BA
:10B010002F46002EE4D1BDE8F087000030B502468F
:10B0200051B101F0E5F90021074C08E034F8213076
:10B030001568AB4202D11160002030BD491C81422D
:10B04000F4D3052030BD000000000000BFF35F8F87
:10B0500000F0FDB8F8B50F46017814460546012901
:10B0600001D1687830B12088821C9A4232D80129F7
:10B0700002D006E00720F8BD69780144891C994296
:10B0800028D8181A801E86B2ADF800602188B81C36
:10B09000084469467DDF0028EDD12978022904D0D3
:10B0A0006878BDF80020904205D3BDF80000B0429A
:10B0B00001D809200AE00820012905D16978B142A8
:10B0C00002D8ADF8001001E0ADF80060BDF8001046
:10B0D000FE2901D90C20F8BD2288491CB9542188C9
:10B0E000491C89B2218078542088401C2080BDF8FA
:10B0F0000010084420800020F8BD0000034A002111
:10B100009268C0E90021816070470000F4250020AA
:10B1100070B54FF6FF750E46A84201D1002000E041
:10B12000401C84B208E02146304600F090F808B197
:10B13000204670BD641CA4B2FF2CF4D9284670BD13
:10B1400010B5FBF7B2F808B1002010BD112010BDFA
:10B1500010B531B1B2FBF3F403FB14241CB1092088
:10B1600010BD0E2010BD0160002141608160828110
:10B17000C381084610BD70B50C460546FBF74AF87A
:10B18000002802D021882868084470BD10B50A88BC
:10B1900049888A4203D1FBF77FF8012010BD0020C7
:10B1A00010BD70B50C460546FBF759F8002802D0D3
:10B1B00061882868084470BD10B50A8849888A42A9
:10B1C00003D1FBF743F8012010BD002010BD01F0B2
:10B1D0001F0301229A40D243490900EB8100114626
:10B1E00000F059B80A4601F01F030121994010B53B
:10B1F00052090C4600EB820000F05DF8204000D0C0
:10B20000012010BD2DE9F04180460D460024481E66
:10B21000012101EB501716E058F82400C04390FAC2
:10B22000A0F0B0FA80F020280CD200EB4416AE4219
:10B2300008D231464046FFF7D5FF0028ECD1304612
:10B24000BDE8F081641CA742E6D82846F8E74A0921
:10B2500050F8220001F01F0201219140084000D067
:10B260000120704701F01F0301229A40490900EBB9
:10B270008100114600F029B8002100F017B8012123
:10B2800000F023B8012100F016B808B56A46FBF7B4
:10B2900058F8009808BD08B56A46FBF738F80098DA
:10B2A00008BD08B56A46FBF74CF808BD08B56A4604
:10B2B000FBF72DF808BD08B56A46FBF71BF808BD7B
:10B2C00008B56A46FBF70AF808BD08B56A46FBF7F9
:10B2D00011F8009808BD08B56A46FBF73FF80098DA
:10B2E00008BD38B5044600258DF800506846FBF7C8
:10B2F00043FF21686268086890420ED9401E0860CA
:10B300000178238AE26801FB0325227A2168101A5A
:10B31000C0B20A79824200D208719DF80000FBF7A2
:10B320004FFF284638BD38B5054600208DF800008F
:10B330000C466846FBF720FFE868298A201AB0FB14
:10B34000F1F12A681068431C136001709DF8000039
:10B35000FBF736FF38BD10B530B1017A426803689B
:10B36000891AC9B21A6006E00E2010BD03681A6877
:10B37000541C1C601170491EC9B2F7D2006800212C
:10B380000171084610BDC20800F007030120895C66
:10B3900098400840704710B5C20800F00703885C69
:10B3A00001249C402043885410BD10B560B1016158
:10B3B000172120F8021B20F8021B1B2100F8021B9A
:10B3C000FFF796FA002010BD0E2010BDF0B585885D
:10B3D00093B00C46002D39D1018800263F4F242917
:10B3E0003BD006DC102909D011290CD0232958D1D3
:10B3F0004FE03A290BD0552953D129E00146204688
:10B4000002F03AF84DE0A01DFFF772FA49E022463B
:10B41000408934F8061F814200D80846608017280A
:10B4200000D217206080106970B1607960B1D7E9EF
:10B430000001CDE90301ADF80E506088ADF81000B1
:10B44000136903A9104698476671267113B0F0BDC1
:10B450000146204602F0DCF823E0011D2C2206A85C
:10B46000FBF704F8BDF81800BDF81C2004EBC00180
:10B470004A732269AAB1D7E90423CDE90423ADF8C0
:10B480001200487B8DF814002269204604A99047D9
:10B4900007E0017A207B884200D201462846FDF76A
:10B4A0007BFDA07A0028D1D0E1882846A5DF0125C0
:10B4B00080B11128CAD001F039FB02460848094979
:10B4C00013B0401AC00805EB0040BDE8F04006A1EB
:10B4D00000F0F6BEA672E572B8E7000004120300A1
:10B4E0000C2D0300EC2C030073645F626C655F67D6
:10B4F000617474635F65786368616E67655F6D74BE
:10B50000755F72657175657374282920726574752D
:10B51000726E65642025732E0000000020B1027851
:10B52000DE2A03D0082070470E207047418000209B
:10B53000704760B159B10278DE2A0AD009684160CB
:10B54000DE2101704FF6FF714180002070470E2010
:10B550007047082070477FB5054600294DD0002D63
:10B560004BD008780C46DE2847D1A88861888842ED
:10B5700002D1204605F09AFA2888012825D0022811
:10B580003BD011283AD0512837D135F8040F6188C3
:10B59000884232D1A978A81C02292ED1017A042927
:10B5A00003D0062901D0052927D1002100910222CC
:10B5B0008DF8002001914FF4C07202910391ADF813
:10B5C0000420007A05280FD010E0297A20460129AE
:10B5D00013D1A988428891420FD10121017204B090
:10B5E000BDE8704005F062BAADF8041028886946DD
:10B5F000B0DF002801D0616888477FBDA8886188D6
:10B600008842FAD14FF6FF7060807FBD00F1804024
:10B610000068002800D00120704708B500F1804084
:10B62000002101600068009008BD000070B50B4C5F
:10B63000207808B185250FE00020A06060602061BF
:10B64000E060074801F0AEFA054601F0F9F908B9E3
:10B6500001F092FA01202070284670BD1C310020B4
:10B66000758D020038B500258DF800506846FBF74F
:10B6700083FD074CE068401EE060E06810B901F00F
:10B68000A1FAA5709DF80000FBF79AFD38BD0000F7
:10B690001C310020F0B505460478154889B01646DF
:10B6A00040F82420124A0869121DA2F1080742F846
:10B6B0002400487F385520226846FAF7D7FE0494C4
:10B6C0002878385C48B10EB10A4A00E00022694689
:10B6D000281D01F0F7FC09B0F0BD0EB1064A00E0EC
:10B6E0000022694605F10C0001F0C0FBF3E7000001
:10B6F00010260020F10703003D0603000FB408B533
:10B700000399002904D004AA00926A4600F00FF8B9
:10B7100001B05DF814FB10B582680446002A05D01C
:10B72000D4E90403216898470020A06010BD2DE9EA
:10B73000FC4791460C00804676D014F8011B39B1C5
:10B7400025290ED04046FDF79BF920780028F4D13A
:10B7500098F80C00002867D04046BDE8FC47FFF78A
:10B76000DABF0020012221782B291BD02D2902D0FD
:10B77000302908D102E040F0010001E040F0020071
:10B78000641C002AEFD100252A290ED02178A1F1CE
:10B7900030020A2A11D205EB850201EB4205641C36
:10B7A000303DF1E740F00400EAE7D9F800100B1D46
:10B7B000C9F800300968641C0D44217800232E2943
:10B7C0000BD114F8011FA1F130020A2A05D203EBB4
:10B7D000830201EB4203303BF3E76C290DD068296B
:10B7E0000BD0692921D00BDC252918D0582931D05C
:10B7F00063290ED0642915D117E014F8011FECE776
:10B80000702969D0732932D075291BD0782909D1C4
:10B8100020E0D9F80000011DC9F800100178404669
:10B82000FDF72EF9641C90E76CE0D9F800100A1DB2
:10B83000C9F800200968CDE900500A224046FEF709
:10B8400033FFEFE7D9F800100A1DC9F80020096896
:10B850000A2206E0D9F800100A1DC9F8002009687C
:10B860001022CDE90050404605F068F8DAE7D9F833
:10B87000001000270A1DC9F800200E68C00705D176
:10B8800012E04046761C7F1CFDF7FAF8317800295B
:10B89000F7D104E0202140466D1EFDF7F1F8BD42CE
:10B8A000C0D9002DF6D1BDE74EB13046FAF702FE01
:10B8B000074604E0202140466D1EFDF7E1F8BD4239
:10B8C00006D9002DF6D103E04046761CFDF7D8F8E6
:10B8D00031780029F8D1A5E7D9F80000011DC9F891
:10B8E0000010056830214046FDF7CAF8782140462F
:10B8F000FDF7C6F808200021CDE90001034610221B
:10B900002946B0E7BDE8FC872DE9F84388460500E5
:10B910002C482D499946A0EB01004FEAD0004FF08A
:10B920000101164601EB004424D0286800282CD0E1
:10B93000002E34D0696840464FF010070A68511E47
:10B9400011EA080F11D1014672432846FBF777FA36
:10B9500000282ED028684B463246046901B0414683
:10B960002846A446BDE8F04360472046174B18A27E
:10B97000009722E00E2000902046144B1EA220A12A
:10B9800000F0ADFC0E20BDE8F883082000902046B2
:10B990000E4B26A21AA100F0A2FC0820F3E7092012
:10B9A00000902046094B24A215A100F098FC092024
:10B9B000E9E7064B214A2046009711A100F08FFCD1
:10B9C0001020E0E78C2D0300EC2C0300AB130300E8
:10B9D000616464725F69735F706167655F616C6900
:10B9E000676E656428705F66732C20706167655FA1
:10B9F0006164647229000000705F667300000000DB
:10BA0000257320636865636B206661696C656420DB
:10BA1000696E202573282920776974682076616C07
:10BA2000756520307825782E00000000705F667301
:10BA30002D3E705F617069006C656E0030250300FB
:10BA400038B503001148124D4FF00E04A0EB05006D
:10BA50004FEAD0004FF0010505EB004009D061B17D
:10BA600019600C6801B0A446BDE830401146184684
:10BA70006047084B08A2009402E0064B08A200941D
:10BA800009A100F02CFC0E2038BD00008C2D030015
:10BA9000EC2C030060130300705F6673000000006D
:10BAA000705F617069000000257320636865636BD7
:10BAB000206661696C656420696E202573282920E1
:10BAC000776974682076616C756520307825782EEA
:10BAD00000000000044801214174007A08B10020F0
