:1000000000000420750300005D0300005F03000092
:1000100061030000630300006503000000000000AE
:100020000000000000000000000000006703000066
:1000300069030000000000006B0300006D03000076
:100040006F0300006F030000C11400006F03000085
:100050006F0300006F0300006F0300006F030000D8
:100060006F0300006F0300006F0300006F030000C8
:100070006F0300006F0300006F0300006F030000B8
:100080006F0300006F0300006F0300006F030000A8
:100090006F0300006F0300006F0300006F03000098
:1000A0006F0300006F0300006F0300006F03000088
:1000B0006F0300006F03000000000000000000005C
:1000C0006F0300006F0300006F0300006F03000068
:1000D0006F0300006F0300006F0300006F03000058
:1000E0006F030000491800006F03000000000000CB
:1000F000000000006F030000000000006F0300001C
:1001000000000000000000000000000000000000EF
:1001100000000000000000000000000000000000DF
:1001200000000000000000000000000000000000CF
:1001300000000000000000000000000000000000BF
:1001400000000000000000000000000000000000AF
:10015000000000000000000000000000000000009F
:10016000000000000000000000000000000000008F
:10017000000000000000000000000000000000007F
:10018000000000000000000000000000000000006F
:10019000000000000000000000000000000000005F
:1001A000000000000000000000000000000000004F
:1001B000000000000000000000000000000000003F
:1001C000000000000000000000000000000000002F
:1001D000000000000000000000000000000000001F
:1001E000000000000000000000000000000000000F
:1001F00000000000000000000000000000000000FF
:10020000354936480A1A02D0072291438D463449AF
:1002100034480A1A06D00722914381F30988022242
:1002200082F3148830483149314A00F044F83148AB
:100230003149324A00F03FF831483249324A00F041
:100240003AF832483249334A00F035F832483349F7
:10025000334A00F030F833483349344A00F02BF881
:1002600033483449344A00F026F8344834490022EF
:1002700000F02CF833483449002200F027F83348C6
:100280003349091A082902DB002202604160314A21
:1002900090471F481F49884205D00268043003B4C4
:1002A000904703BCF7E700208646EC46002000217B
:1002B000294A9047FEE7884207D0521A05D00378B2
:1002C00001300B700131013AF9D17047884202D0F8
:1002D00002700130FAE770470000042000E00320BC
:1002E0000000042000000420982B000000000020E3
:1002F00038000020D4030000D4030000C226000010
:10030000982B0000000000200000002008270000BB
:100310000827000008270000082700000827000021
:10032000082700000827000008270000982B00007D
:10033000D02B0000380000203800002038000020BA
:1003400085080020880800208808002088080020F0
:10035000882800209D03000051210000FEE7FEE7F1
:10036000FEE7FEE7FEE7FEE7FEE7FEE7FEE7FEE765
:10037000704700BF1048804710484FF0070188437E
:1003800085460F4880470F48016841F470010160BD
:10039000BFF34F8FBFF36F8FFFF732BF0A480B4990
:1003A0000B4A884207D0521A05D0037801300B70EF
:1003B0000131013AF9D170477103000000000420B7
:1003C000FD22000088ED00E008270000000000206A
:0403D0000000002009
:1003D400F0B595B01C46164608460D4600F0CDFF14
:1003E4001A9B0D93CDE9086400242346082205A92D
:1003F40028460A948DF82C400C9400F0DBFF079BF0
:100404000293069B03939DF814308DF8114003F07A
:100414000302012A1DD1BDF81440059EC3F3C20393
:10042400C4F383148DF81030A20008230EA92846C3
:1004340000F0C0FFC6F3952608AB0093224602AB3A
:100444000EA9304600F0ACFB284600F09AFF15B028
:10045400F0BD022AF8D1BDF81640C3F3C203A409C3
:100464008DF810300827082C264628BF08263B465E
:1004740032460EA9284600F09DFFA41B08AB02AA31
:1004840031460EA8374400F0EFFB002CEBD1DBE73C
:100494007047000007B5044B0093044A4023FFF75C
:1004A40097FF03B05DF804FBF50400003900002059
:1004B40030B50C4D0FCD89B06C460FC495E80F00D4
:1004C40084E80F000623002269460748009300F0E1
:1004D400B9FF08B100F022FC044B00221A7009B0E5
:1004E40030BD00BF082700000000002038000020B5
:1004F40038B50D4B0D4D002018700D4804782D5D56
:10050400D2B21C4665B1043001F0D8FD08B100F048
:1005140005FC084B1A7812B12378002BFBD038BDA8
:100524000C3001F0B5FBF1E7790000201C06002037
:10053400000000203800002008B50848084A037865
:10054400D35C33B1043001F063FDBDE80840FFF72C
:10055400AFBF0C3001F046FBF7E700BF00000020FE
:100564001C060020FFF7A4BF08B5FFF7FBFF04211A
:10057400034800F083FA034B01225A7108BD00BFFF
:10058400E426000014000020037813F0040216D0BF
:1005940003F00303012B03D0022B09D00120704781
:1005A4000A6800880232C0F3831002440A60F5E747
:1005B4000B684288023303EB92130B60EEE710469C
:1005C400704700002DE9F04F044685B0851C0020DB
:1005D4000F46904600F0FAFB454806683E60D0E9B5
:1005E4000132134401339B1B824600F21C4600F582
:1005F400836900F21447AB421AD30022B8F1000F0A
:100604006FD0052363F3070264F38912DAF800104C
:10061400DAF808300B4003330D444AF82320002055
:10062400CAF8005000F0D4FB012005B0BDE8F08FFB
:100634000121304600F0EEFB484600F001FC38464C
:1006440000F0FEFBDAF80400DAF808B0009000EAE3
:100654000B0003300AEB80006946FFF795FF009B0F
:1006640050BB0BEA03020AEB820203F1020CD268CC
:100674000192013303EA0B0B0AEB8B0B02F003022A
:10068400012ACDF800C0DBF80C1022D0022A16D0C3
:100694008346384600F0D7FB10B1009BCAF80430FB
:1006A4005946304600F0B6FBDAE901231344DAF880
:1006B400002001339B1A9EE70BEA0300C9E7BDF84B
:1006C40006309B0903334FEA114B0CEB9303009361
:1006D400DFE7BDF80430C3F383134FEA114B6344DF
:1006E400F5E7062363F3070264F39F528EE700BF26
:1006F4004C0100200B4B0C48FF2210B59A600022DD
:10070400C3F81824C3E90022C3F81424012283F88F
:10071400202400F0EBFD044610B9044800F054FE18
:10072400204610BD4C010020F4260000482700009C
:1007340030B50A4C71B10A4A0A49121BD208002387
:100744009A4201D1002030BD31F82350854202D0B5
:100754000133F5E7034654F83300F4E7C4260000F8
:10076400E426000000000020094B013903EBC0001F
:10077400032909D8DFE801F00A02040604207047BF
:100784000079704740797047002070470220704715
:10079400C4260000034BD3E90030C31A5842584121
:1007A400704700BF4C0100202DE9F04385B0FFF7EE
:1007B400F1FF0646002840F0F7807C4DC5F8180488
:1007C400BFF34F8F6868AC6800902040033005EB9E
:1007D40080006946FFF7D8FE009B18B1D5F81824AD
:1007E400002A5FD004EA0302991C013305EB82025C
:1007F400234005EB8303D268DB68029302F0030312
:10080400022B0192009162D1BDF8063068484FEA8C
:100814009318B8F1500FC14628BF4FF0500969F33F
:100824008F1309F10801ADF8063000F077FD074693
:10083400002800F0A48000F0A0FD01A900230822F4
:10084400384600F0ADFD009924EA01060136B600F1
:10085400B14535D95FFA89F97EB3F6B2A9EB060939
:10086400214003315FFA89F4B146524E05EB810110
:1008740008234A46384600F093FD36B109F10803CF
:1008840022463146384600F08BFD009B08F10308F0
:1008940003EB98030093D5F81834002B4BD1D5F80B
:1008A40010445BE02A689A4204D86A60304605B076
:1008B400BDE8F08304EA030088E73E493446D7E7FD
:1008C4002140033108234A4605EB8101DAE7012B75
:1008D40055D1BDF804303648C3F38311062928BF27
:1008E400062161F3891302318900ADF8043000F068
:1008F40015FD0746002842D000F03FFD00230822E2
:1009040001A9384600F04CFD0026BDF80420C2F3CE
:100914008312B300964203F10803BCD200994A1C27
:1009240021400331009205EB81010422384600F096
:1009340037FD0136E9E7384600F023FDFFF72AFFCB
:1009440080F00100C6B2B1E7E3685B7923B12368A4
:1009540039461B6820469847E3681C68002CF3D18D
:10096400384600F00EFD204600F030FAD5F8183471
:100974000BB9009B6B60002000F02AFADEE7D5F883
:10098400104454B90C4B0D480D49C01AC00800045A
:1009940040F0020000F06EF8D0E7236820469B6820
:1009A4009847E3681C68ECE700267FE74C010020C9
:1009B400F426000058010020C4260000DC260000B4
:1009C400542700002DE9F74F284C80460F469246E5
:1009D40001A9012218469B46D4F80890FFF7F2FDBE
:1009E40080B3019D0026A91C5E4506EB010233D1AC
:1009F40000211F4800F0EEF980F310006A1C02EA9F
:100A0400090204EB8202000405EA0903033340EA05
:100A14001840D06014F8232068F3C50204F823209A
:100A240034F8232066F3891224F8232054F8232071
:100A340067F39F2244F8232002F0F80242F00102F7
:100A440004F8232094F820341BB1FFF7ADFE0028EE
:100A5400FBD103B0BDE8F08F09EA020204EB820285
:100A64005AF82630D3600136BEE700BF4C0100209F
:100A74006805002000231A46FFF7A4BF30B50F49CC
:100A8400D1F81024002314463CB9C468237152B928
:100A9400C1F810042260184630BDE46825799D42EF
:100AA40006D02468F0E7D268116821601060F2E78C
:100AB40001330A2BE7D14FF0FF33ECE74C01002060
:100AC400094A38B50123D2F8104482F820341D466F
:100AD40004B938BDE3685D71236820465B689847B4
:100AE400E3681C68F4E700BF4C010020037A052B7F
:100AF40010B50C460FD0437A23B1084A0849204662
:100B040000F0FBF90749204600F0F7F92046BDE85C
:100B1400104000F0E7B9002AF8D0F3E79F2700005F
:100B2400A4270000C4270000C38873B504460D46FB
:100B340033B1144A00921449144A284600F0DDF9EE
:100B4400217A05291CD0637A4BB1A088FFF70CFEEB
:100B54000F4B104953F82020284600F0CEF9227A92
:100B64000D4BA08853F822600021FFF7E1FD0B49EB
:100B740003463246284602B0BDE8704000F0BDB9D5
:100B840002B070BD9F270000AF270000A727000018
:100B94006C270000A4270000D4270000C72700000A
:100BA4002DE9F04385B01F460C9D002306460C46F4
:100BB400904695F80C902B7329463846FFF7B4FFFE
:100BC400B8F1060F09D8DFE808F00412181F28331B
:100BD40040003146284600F090F900222946384664
:100BE400FFF784FF85F80C9005B0BDE8F083226818
:100BF4003146284600F081F9EFE7D4E90023314675
:100C0400284600F07AF9E8E7A36800933146D4E96E
:100C14000023284600F071F9DFE7E3680193A36835
:100C240000933146D4E90023284600F066F9D4E75E
:100C340023690293E3680193A36800933146D4E9DE
:100C44000023284600F059F9C7E763690393236931
:100C54000293E3680193A36800933146D4E9002327
:100C6400284600F04AF9B8E708292DE9F84F8046EC
:100C74000E4617461C463AD8002593F80C901D736F
:100C840019461046FFF750FFDFF884A0DFF884B060
:100C9400AE422ED918F805205946204600F02DF909
:100CA4000135082DF4D11849DFF86CB0204600F066
:100CB40024F94FF0000A564520D918F80A507E2D21
:100CC40003D8284601F04CFC00B92E252A46594683
:100CD400204600F012F90AF1010ABAF1080FEAD12C
:100CE400012221463846FFF701FF84F80C90BDE845
:100CF400F88F5146204600F000F9D1E70349204619
:100D040000F0FBF8E7E700BF9A27000098270000EF
:100D140096270000902700009C2700001FB50021A3
:100D2400039001AA44F20100CDE9011100F004F896
:100D340005B05DF804FB000010B572B6FFF7C0FE05
:100D4400FFF732FD0028FBD1104B114C1149E41A76
:100D5400E408240444F00100FFF78CFE0E4B1B68EA
:100D6400DB0700D500BE0D4944F00200FFF782FE08
:100D7400BFF34F8F0A490B4BCA6802F4E062134376
:100D8400CB60BFF34F8F00BFFDE700BFC426000058
:100D9400DC26000033280000F0ED00E03F280000CE
:100DA40000ED00E00400FA0572B6024A136801334C
:100DB4001360704708060020034A1368013B136060
:100DC40003B962B6704700BF08060020FFF7ECBF06
:100DD400FFF7F2BF50E8002F0B4640E8003C9CF0C0
:100DE400000FF7D11046704750E8003F43EA010274
:100DF40040E8002C9CF0000FF6D11046704750E8F4
:100E0400002F02EA010340E8003C9CF0000FF6D1F9
:100E14001046704750E8003F03EB010240E8002C05
:100E24009CF0000FF6D11046704750E8003FA3EB4A
:100E3400010240E8002C9CF0000FF6D110467047E8
:100E44000121FFF7D1BF0021FFF7D9BF10B590B141
:100E5400D0E9012301689B1ADBB20A60013BDBB2D3
:100E6400FF2B026802D10020107110BD11684C1CC8
:100E740014600B70F2E70E20F7E738B50446002043
:100E8400FFF7A4FF226863681168994213D9481ECA
:100E9400106011F8015CE368218A01FB0535A36841
:100EA40011791B1ADBB2994200D213710020FFF7AB
:100EB4008FFF284638BD0025F8E738B505460020E1
:100EC4000C46FFF783FF2A681368591C1160E96810
:100ED400641A298AB4FBF1F41C700020BDE8384080
:100EE400FFF776BF826810B504462AB143690168EA
:100EF400006998470023A36010BD0EB403B503999D
:100F040021B104AB01AA019300F074F802B05DF8BA
:100F140004EB03B070470A2938B504460D4602D1E4
:100F24000D21FFF7F8FFA3682268591CA160D5546E
:100F3400D4E901329A4204D32046BDE83840FFF791
:100F4400D1BF38BD2DE9F84F9946DDE90A4317466C
:100F5400824688460A460126BA420FD24E4538BF19
:100F64004E4613F0010B01D164B900240125B9F1F7
:100F7400010F1AD909F1FF397D43F8E7B2FBF7F203
:100F84000136E9E79B070ED5B9F1000F0CBF3025F8
:100F94002025A642EAD2013C29465046FFF7BBFF72
:100FA400002CF6D1E1E72025F3E7B8FBF5F39F42E7
:100FB400E2D9DFF83C90B8FBF5F3504619F803107A
:100FC40005FB1388FFF7A7FFB5FBF7F3BD4207D274
:100FD400BBF1000F02D00CB1A64203D3BDE8F88FD9
:100FE4001D46E8E720215046013CFFF794FFF2E755
:100FF4004C2800002DE9F74F05461746884600297E
:1010040000F0308118F8011B49B92B7B002B00F04C
:101014002981284603B0BDE8F04FFFF763BF2529B7
:1010240040F0C080002698F800302D2B424608F18D
:10103400010823D0302B24D02B2B25D000242A2B9D
:1010440002F1010123D13B681A1D1B683A601C445C
:101054000A4613782E2B26D101324FF00009104690
:1010640010F8011BA1F1300CBCF1090F1DD80A23A3
:1010740003FB0913A3F130090246F0E746F0010629
:10108400D1E746F00206CEE746F00406CBE711F8B6
:10109400013CA3F130000928DBD80A2202FB043406
:1010A400303C0A46CBE74FF0000912F8011B01F06F
:1010B400FB0068289046F8D069290ED04AD85829F0
:1010C40064D006D825296DD098F80030002B99D12A
:1010D4009BE7632962D06429F6D13A68D2F800A06C
:1010E400111D8AEAEA723960A2EBEA724FF0010B31
:1010F400092A5BDCCB4538BFCB462CB1BAF1000FD3
:1011040001DB720700D5013CB30702D5B9F1000F2A
:1011140004D0F00702D4002C4ED10024BAF1000F01
:1011240052DACAF1000A2D212846FFF7F4FE06F030
:101134000302022A05D1B9F1000F02D1002C47D1D4
:101144000024CDE900464B460A2251462846FFF7C3
:10115400F9FEB9E773294CD014D87029B4D13B688F
:101164001A1D3A60302128461C68FFF7D4FE782106
:101174002846FFF7D0FE00220823CDE9003221469D
:101184001022E3E775292BD078299DD139680A1DEF
:101194003A60CDE900464B46102228E03B681A1D10
:1011A40019783A602846FFF7B6FE8DE70A230BF15B
:1011B400010BB2FBF3F29BE7A345AFD220212846F3
:1011C400013CFFF7A8FEA6E77107B0D52B21ABE7DA
:1011D400A345B6D230212846013CFFF79CFEADE77B
:1011E4003968CDE900460A1D3A604B460A2209686F
:1011F400ACE73B681A1D3A6016F00106D3F800A06C
:1012040020D1BAF1000F03D0504601F028FA064667
:10121400B44200D9C4B90AF1FF3A1EE028460136A7
:10122400FFF779FE1AF806100029F7D1A642BFF499
:101234004BAF002C3FF448AF20212846013CFFF778
:101244006AFEF3E70026EDE720212846013CFFF77C
:1012540062FEDDE72846FFF75EFE1AF8011F00294B
:10126400F8D131E703B0BDE8F08F2DE9F047B0F8CD
:1012740006904479D2F800A09DF8208009FB04F47C
:10128400043C06460AEB0300A0420F4688BFA4EBC9
:10129400030A191DC2F800A0B1FBF9F509FB1511E9
:1012A4004DB9A9EB0104544528BF5446BAF1000FC7
:1012B40004D1BDE8F0873668013DF1E704317B19BC
:1012C40070182246B8F1000F0ED001461846AAEB5A
:1012D400040A01F09BF9D145254436684C464FF089
:1012E400000128BF5446E1E71946F0E7FFF7AEBD19
:1012F400F8B546790146721E0546002393422D68CF
:1013040003D30024A64202D8F8BD0133F6E70F68E0
:101314002846FFF7D2FD01343946F3E72DE9F843B7
:10132400068ACD1C0746FFF7A8FD043E3544044653
:10133400B5FBF6F5F0B14FF48073EDB28380C6804F
:10134400013D076081464FF00008A84512D2384697
:10135400FFF793FD064648B163790133637108F1E1
:101364000108C9F8000007608146EEE72046FFF750
:10137400BFFF34462046BDE8F88301210430FFF75F
:1013840049BD10B5012104460430FFF74EFD10F0AD
:10139400FF0F04D12046BDE81040FFF7A9BF10BDE0
:1013A4001FB503920022009203AAFFF75EFF05B067
:1013B4005DF804FB1FB503920122009203AAFFF714
:1013C40054FF05B05DF804FB836800225A609A60FC
:1013D400C3E90422DA601A60704700001FB503787D
:1013E4008DF800304368019383688DF80830C36832
:1013F4000393054A054B684653F8213052F82110EF
:10140400984705B05DF804FB0C0600201406002084
:101414001FB503788DF800304368019383688DF815
:101424000830C3680393054A054B684653F82130D6
:1014340052F82110984705B05DF804FB0C06002013
:1014440014060020F0B5184B0778DFF86CE043F879
:101454002720164B16460A6943F827204B7F0EF8BF
:1014640007300C4684460FCC89B06D460FC594E80E
:101474000F0085E80F001EF80730049753B1002EC3
:101484000B4A694608BF32460CF1040000F0E4FC44
:1014940009B0F0BD002E074A694608BF32460CF178
:1014A4000C0000F0CBFAF3E7140600200C06002031
:1014B400E1130000151400001C060020014B1B68FA
:1014C400184700BF2006002038B50B4B98420D4644
:1014D40001D0002038BD0020FFF778FC074B1C79B1
:1014E40014B901221D601A710020FFF771FC002C51
:1014F400EFD01120EEE700BF0020004020060020BE
:10150400034B984201BF034B00221A601A717047C3
:1015140000200040200600200E4A537910B503F045
:10152400FF01A3B90C4B1960116821B10124547156
:101534000A4AC2F8044300F1804000F52430012235
:10154400026011B91A68002AFCD0002000E01120C2
:1015540010BD00BF28060020009102400090024008
:10156400F8B5414D2E79002E77D190F804E0BEF104
:10157400FF0F74D090F805C0BCF1FF0F6FD08779CE
:10158400FF2F6CD0C379FF2B69D0384CC4F824E505
:10159400C4F828C5C4F83075C4F83435037A90F813
:1015A4000BC0877AFF2B08BF4FF0FF33C4F83835E0
:1015B400437AFF2B08BF4FF0FF33C4F83C35036870
:1015C400C4F84035037B9B0143EACC033B43477B90
:1015D40090F810C0002F14BF802700273B43C4F8A5
:1015E4004435D4F80036877B23F07F4323F0FF0390
:1015F4003B43C77B43EA4C6390F811C0002F14BFF0
:101604004FF08077002743EA0C733B43C4F800365D
:1016140001236E712960AA60C4F8083341B1837C48
:10162400134A5B01DBB282F829334FF40073536031
:101634000E49104C104E012200202A711643C1F8A5
:101644000025642520600A60236853B94FF4207094
:10165400B047013DF8D10D20F8BD0820FCE7072074
:10166400FAE70020F8E700BF2806002000900240B7
:1016740000E100E00091024060280000444B5B79E7
:101684002DE9F0411446054603F0FF02002B73D107
:10169400404E4378326011B39A1E072A1FD8DFE800
:1016A40002F04B49471145434104CA79120688792F
:1016B40042EA0042487942EA002208790243364865
:1016C400C0F83C26CA781206887842EA0042487874
:1016D40042EA002209780A432F49C1F838262E4AE3
:1016E4000121C2F80813A9781B0243EA01332978BF
:1016F4000B43E97843EA4133297943EA8133697931
:1017040043EAC133C2F83436244B642743F001085A
:1017140033689BBB4FF42070C047013FF8D10D20C4
:10172400BDE8F0810022C2E70022C3E70022C4E73B
:101734000022C9E70022CAE70022CBE76978D3F880
:101744003C26D3F838360239072913D8DFE801F0EC
:10175400110F0D0B0A080604110EE171110CA17191
:10176400110A617122711A0EE2701A0CA2701A0A1F
:10177400627023700020D3E71120D1E70023336087
:10178400054B0122C3F80423002CD7D12046C7E718
:1017940028060020009102400090024060280000CA
:1017A4000B4A0C490123C2F808330B604B64002335
:1017B400C2F80035084A4FF40071C2F8841002F1EF
:1017C400C04202F5D8321360044A1371704700BF57
:1017D400009002401090024000E100E02806002042
:1017E40000F06043B3F1005F09D1064BC3F8102544
:1017F400C3F81405C3F818150820FFF78DBE102090
:10180400704700BF0090024000F06043B3F1005FF6
:1018140009D1064BC3F80425C3F80805C3F80C1511
:101824000420FFF779BE1020704700BF00900240EB
:10183400034BC3F81C15C3F820050C20FFF76CBE3E
:1018440000900240054A136833B1054B00205871DB
:10185400996810601A681047704700BF00910240F1
:10186400280600200023435082B043580193019B73
:1018740002B070470A4610B54FF48E71FFF7F2FFBD
:10188400136A9168C95C136A01331362C0F81C15AA
:1018940010BD8B690A4610B54FF4847123B9FFF764
:1018A400E1FFD0F8183510BDFFF7DCFF536AD168AB
:1018B400D0F81805C854536A01335362F3E70000A3
:1018C4001FB501238DF80030044BCDE90110D3E995
:1018D40000126846904705B05DF804FB340600200A
:1018E40030B54C4AD2F8043313F4007F85B0154662
:1018F4004FD0D2F82431002B4BD04FF492711046C4
:10190400FFF7B0FF4FF40173C2F80833424B93F86A
:10191400291009B9012151603E4902228DF80020A5
:10192400D1F88024C1F8802403929A690292DA687B
:1019340001920022C3E906226846D3E900129047C7
:101944003448D0F81C315BB133490A6A4B699A4276
:101954000A464BD291F82830002B47D1FFF78AFF73
:101964002C4AD2F8443193B14FF4A2711046FFF7D8
:1019740079FF294B93F8291009B1012111609A6963
:101984002AB100229A61586AD968FFF799FF05B015
:1019940030BDD5F804335B07D2D5D5F80831002B18
:1019A400CED01D4C1B482146FFF773FF636AA26922
:1019B4009A422346C4D1E269E1684AB12369E360EB
:1019C4000023606AA261E3616362FFF779FFB7E70E
:1019D40094F829200AB901226A600E4A4FF4017072
:1019E400C2F8080300229A61586AEEE74FF48E7138
:1019F4000848FFF737FF51690029B1D0002302914D
:101A040091688DF80030019153616846D2E9001362
:101A14009847A5E700200040340600201F2886BF11
:101A240000F01F00044B4FF0A04300F5E0700222C9
:101A340043F82020704700BF000300502DE9F8430D
:101A4400624F047991462C2202FB0472064692F8F6
:101A54002A200D46002A40F0B3805D490068FFF754
:101A640033FD8046002840F0AE8029684A1C10D01F
:101A74001F2987BF01F01F03564A0B464FF0A042AF
:101A84000120984003F5E073C2F80805032042F8EA
:101A940023006868431C0DD01F288BBF00F01F0370
:101AA40003464C4A4FF0A04203F5E0734FF0000C9C
:101AB40042F823C03368AA6995F814C0C3F82425F2
:101AC4006A7DBCF1010F4CEA0202C3F86C25C3F82D
:101AD4001405C3F80C152BD1A968481C0DD01F2977
:101AE4008BBF01F01F020A463A484FF0A04002F5AE
:101AF400E0724FF0000C40F822C0E868421C13D09A
:101B04001F2887BF00F01F0C324A84464FF0A042C2
:101B14004FF0010E0EFA0CFE0CF5E07CC2F808E55D
:101B24004FF0030E42F82CE0C3F80805C3F8101573
:101B34002C236343FA18C2F804902A69FA50B9F1C5
:101B4400000F2AD04FF48E7130682D7FFFF78AFE84
:101B540030684FF4A271FFF785FE32681E4BC2F85D
:101B64000433120B51B20029A8BF01F160404FEABF
:101B74004513BABF194802F00F0500F56140DBB206
:101B8400B4BF435580F8003302F01F02012303FA67
:101B940002F24909124B43F8212033680422C3F8A6
:101BA40000252C2303FB04730022C3E9062283F8D7
:101BB40029205A61012283F82A204046BDE8F8838F
:101BC4004FF00808F9E74FF01108F6E73406002053
:101BD400E5180000000300508000020014ED00E04E
:101BE40000E100E02DE9F04103680479254D00226D
:101BF400C3F800252C2202FB04520646526872B137
:101C0400214AC3F80823190B4AB20120520901F0F2
:101C14001F0100FA01F120321C4840F82210D3F8C9
:101C24000C05D3F81485D3F80815D3F810754FF0C4
:101C3400FF329042C3F81425C3F80C25C3F80825D5
:101C4400C3F8102501D0FFF7E9FEB8F1FF3F02D039
:101C54004046FFF7E3FE7A1C02D03846FFF7DEFE6B
:101C64004B1C02D00846FFF7D9FE3068FFF748FC4A
:101C74002C2303FB0454002384F82A306360BDE85A
:101C8400F08100BF340600208402020000E100E07D
:101C94002DE9F047214F06794FF02C0909FB067412
:101CA40080466569002D37D16261A16025624FF4D9
:101CB4008E71006884F82850FFF7D4FDD8F800002E
:101CC400012383602146FFF7D5FD6368A14693B9DC
:101CD400D8F800A0226A63699A4212D3D8F8003077
:101CE400D3F81C21002AFBD00122DA602C2303FB49
:101CF4000676002373612846BDE8F08794F82830FF
:101D040043B9DAF81C31002BF8D049465046FFF7A6
:101D1400B1FDDFE70F25E9E71125ECE734060020E4
:101D24000023435082B043580193019B02B0704793
:101D34001FB501238DF80030044BCDE90110D3E920
:101D440000126846904705B05DF804FB6006002069
:101D54007FB5374AD2F82461002E48D010464FF49C
:101D64009271FFF7DDFF02238DF80030D2F8803442
:101D7400C2F880340393D2F83C3502932D4BDA68D1
:101D840001920022C3E906226846D3E90012904773
:101D9400274AD2F844317BB14FF4A2711046FFF7C1
:101DA400BFFF244B996939B10021C3E90611D968F1
:101DB400D2F83C05FFF7BCFF1D4AD2F82031A3B18D
:101DC4004FF490711046FFF7ABFF1A4B596961B19C
:101DD400D2F84C150291002299688DF800200191E7
:101DE4005A616846D3E90012904704B070BDD2F836
:101DF4001031002BCCD04FF488711046FFF790FFC0
:101E04000C4BD2F83C0599698842C1D1DC69D96888
:101E140064B1D2F8005225F02005C2F800521A69C4
:101E24009C61DA60DE61FFF783FFB1E79C61FAE74A
:101E340000200040600600201F2886BF00F01F001D
:101E4400044B4FF0A04300F5E070022243F8202039
:101E5400704700BF000300502DE9F843664F067930
:101E64009146242202FB0672044692F820200D4675
:101E7400002A40F0BB8061490068FFF725FB8046DB
:101E8400002840F0B6802868421C10D01F2887BF65
:101E940000F01F035A4A03464FF0A0420121994023
:101EA40003F5E073C2F80815032142F823106968AA
:101EB4004B1C0DD01F298BBF01F01F030B46504A4A
:101EC4004FF0A04203F5E0734FF0000C42F823C03A
:101ED4002368AA6995F814C0C3F824256A7DBCF167
:101EE400010F4CEA0202C3F86C25C3F80C05C3F8D1
:101EF40014152BD1A968481C0DD01F298BBF01F0E4
:101F04001F020A463E484FF0A04002F5E0724FF02F
:101F1400000C40F822C0E868421C13D01F2887BF79
:101F240000F01F0C364A84464FF0A0424FF0010ED9
:101F34000EFA0CFE0CF5E07CC2F808E54FF0030E37
:101F440042F82CE0C3F80805C3F8101524237343A2
:101F5400FA18C2F804902A69FA50B9F1000F34D083
:101F64004FF4887120682D7FFFF7DAFE4FF49071EB
:101F74002068FFF7D5FE4FF492712068FFF7D0FE7A
:101F840020684FF4A271FFF7CBFE22681D4BC2F804
:101F94000433120B51B20029A8BF01F160404FEA8B
:101FA4004513BABF184802F00F0500F56140DBB2D3
:101FB400B4BF435580F8003302F01F02012303FA33
:101FC40002F24909114B43F8212023680822C3F87F
:101FD4000025242303FB06730022C3E906225A6169
:101FE400012283F820204046BDE8F8834FF008081A
:101FF400F9E74FF01108F6E760060020551D0000D0
:10200400000300501003020014ED00E000E100E0C2
:102014002DE9F04103680479254D0022C3F8002519
:10202400242202FB04520646526872B1214AC3F8C4
:102034000823190B4AB20120520901F01F0100FACA
:1020440001F120321C4840F82210D3F80C05D3F8D3
:102054001485D3F80815D3F810754FF0FF32904269
:10206400C3F80C25C3F81425C3F80825C3F81025B4
:1020740001D0FFF7E1FEB8F1FF3F02D04046FFF781
:10208400DBFE7A1C02D03846FFF7D6FE4B1C02D08A
:102094000846FFF7D1FE3068FFF732FA242303FB2A
:1020A4000454002384F820306360BDE8F08100BF4D
:1020B400600600201003020000E100E001F060432C
:1020C400B3F1005F2DE9F041074632D11B4B06798D
:1020D400242505FB063598466C6964BB6A61A960D2
:1020E40000684FF49071FFF71BFE4FF4AC71386831
:1020F400FFF716FE3B686A69A968C3F84415C3F87C
:10210400482501229A606A6862B9D3F82021D3F87D
:10211400584152B9002CF8D00F24242303FB06861F
:10212400002373612046BDE8F081002C18BF0F2402
:10213400F3E71024F6E71124F4E700BF600600205B
:10214400014B01221A7070478408002070B50021E9
:1021540088B00846FEF7CEFA08B1FEF7DFFDFEF7B9
:1021640003FA4D4C4D4B4E494E4EE41AE4082404F8
:1021740044F003042046FEF77DFC002000F040FA02
:10218400002500F02DFA0135B5F5807F06F8010B26
:10219400F7D1454E0FCE03AD0FC5336843492B60CD
:1021A400002203A8FFF7DCF908B1FEF7B7FD4049A8
:1021B4002046FEF75FFC40238DF803303D4B0022A0
:1021C400186801909B88ADF80830114601A8FFF704
:1021D40055FA08B1FEF7A2FD00229923114601A881
:1021E4008DF80430FFF74AFA08B1FEF797FD40F284
:1021F400012300220DF1030101A8ADF80430FFF71B
:102204003DFA08B1FEF78AFD2B4D0021012029700B
:10221400FFF70EFB08B1FEF781FD2B78002BFCD0F5
:10222400002626492E702046FEF724FC32464FF441
:1022340080711C48FFF7D4FA08B1FEF76FFD2B78C4
:10224400002BFCD000261E492E702046FEF712FCFF
:1022540032464FF480711B48FFF7D6FA2B78002BD7
:10226400FCD0002318492B702046FEF703FC1749C5
:102274002046FEF7FFFB4FF480721249094800F034
:1022840074F930B912492046FEF7F4FBFFF788FAD7
:10229400FEE71049F7E700BFDC260000C426000073
:1022A4008E280000840700207428000045210000C7
:1022B400C62800008828000084080020DC280000CC
:1022C40001290000840600201F290000292900009C
:1022D4003429000044290000054B1B68082B01BF6A
:1022E400044B1868B0FA80F0400918BF002070470A
:1022F400300100103401001008B54FF08043002273
:10230400C3F80C21C3F81021C3F838254FF08052CC
:1023140003F54043D2F80414C3F82015D2F8081486
:10232400C3F82415D2F80C14C3F82815D2F81014E5
:10233400C3F82C15D2F81414C3F83015D2F81814B5
:10234400C3F83415D2F81C14C3F84015D2F820147D
:10235400C3F84415D2F82414C3F84815D2F8281445
:10236400C3F84C15D2F82C14C3F85015D2F8301415
:10237400C3F85415D2F83414C3F86015D2F83814DD
:10238400C3F86415D2F83C14C3F86815D2F84014A5
:10239400C3F86C15D2F84424C3F87025FFF79CFFEA
:1023A40010B1384B384A1A60FFF796FF18B1374B13
:1023B400FB22C3F81825FFF78FFF48B13449354B8A
:1023C4000A681B6822F00F0203F00F0313430B602B
:1023D400FFF782FF18B1304B4FF400721A604FF0D0
:1023E4008043D3F80024D20744BF6FF00102C3F83E
:1023F40000242A4AD2F8883043F47003C2F88830A3
:10240400BFF34F8FBFF36F8F4FF01023D3F8002229
:10241400002A03DBD3F80432002B2FDA204B0122ED
:10242400C3F80425D3F80024002AFBD04FF010226F
:102434001221C2F80012D3F80024002AFBD04FF076
:1024440010231222C3F80422154B1A46D3F80014A1
:102454000029FBD00021C3F80415D2F80034002B66
:10246400FBD0BFF34F8F0D490E4BCA6802F4E062F4
:102474001343CB60BFF34F8F00BFFDE70A4B0B4AFA
:102484001A6008BD8C5600404881030000F00040EB
:10249400E40E0040580200104096024000ED00E0B7
:1024A40000E001400400FA051C0000200090D00365
:1024B4007F2805D8034B185C034B5B5C18407047BE
:1024C4000020704758290000D8290000A0F16103BA
:1024D400192B98BF20387047A0F14103192B98BFDE
:1024E400203070477F2805D8034B185C034B5B5C96
:1024F400184070470020704758290000D829000070
:10250400A0F16103192B98BF20387047A0F1410353
:10251400192B98BF203070477F299ABF0170012082
:102524006FF02E0070475AB10A787F2A0AD800B19A
:102534000260002119605960501A18BF01207047C9
:10254400002070476FF02E007047000008B5034B61
:102554005B689B681B68984708BD00BF200000208B
:1025640008B50921FFF7F2FF08BD002A36D070B480
:1025740013460F2A1AD940EA010212F0030F01D0C0
:102584005A1E15E004680A689442F9D1043B041DFC
:102594000A1D114620460434043206680D68AE4212
:1025A400EED120461146043B042BF2D85A1E10D01B
:1025B40004780B789C420CD1431C4C1C02441846F2
:1025C4002146934205D00133013406780D78AE429A
:1025D400F5D000780B78C01A70BC704700207047A3
:1025E400054B1868054943F2390201FB00201860C5
:1025F400C0F30E40704700BF340000206D4EC6414A
:10260400014B1860704700BF34000020844640EA44
:10261400010313F0030F18D18446202A0BD32DE9AC
:10262400F007B1E8F807A0E8F807A2F12002202A91
:10263400F7D2BDE8F007042A07D351F8043B40F869
:10264400043BA2F10402042AF7D2002A05D011F8AF
:10265400013B00F8013B013AF9D16046704700F1B3
:10266400010110F0030F11D010F8012B002A23D020
:1026740010F0030F0AD010F8012B002A1CD010F020
:10268400030F03D010F8012B002A15D02DE9700098
:102694004FF001324FF0803350F8044BA4EB0205A5
:1026A40025EA04051D4000D1F6E7A0F1040070BC42
:0E26B40010F8012B002AFBD1A0EB01007047AB
:1026C4005C280000000000006628000000000000F4
:1026D4006B280000000000006527000000000303D1
:1026E4002827000000000000342700001400002008
:1026F4007C000020440100204C01002084000020C4
:0427040018000000B9
:10270800FFFFFFFFFFFFFFFFFFFFFFFFFFFFFFFFD1
:1027180000000000000000000000D60106010000D3
:10272800990400003D05000095040000756172746D
:102738005F6C6F675F6261636B656E6400000000C9
:10274800700500207F000000F00500204261636BE7
:10275800656E647320666C7573686564006170707B
:10276800000000009F270000E8270000A7270000BE
:10277800F0270000F82700000028000008280000C3
:10278800102800001828000020253032780020206A
:1027980020007C002563001B5B306D002573001B47
:1027A8005B313B33316D0025734C6F677320647266
:1027B8006F70706564202825642925730D0A003C14
:1027C80025733E2025733A20000000000000000019
:1027D8003928000020280000282800002D280000A3
:1027E8001B5B313B33306D001B5B313B33326D007B
:1027F8001B5B313B33336D001B5B313B33346D0066
:102808001B5B313B33356D001B5B313B33366D0051
:102818001B5B313B33376D007761726E696E670001
:10282800696E666F00646562756700466174616C05
:10283800206572726F720053797374656D207265CA
:1028480073657400303132333435363738394142A4
:1028580043444546505253000338FDD8704755410C
:102868005254005541525445000000000000000039
:1028780013111415161704030000010000010600C7
:10288800660101010101515350492077726974654D
:1028980020616E642072656164206578616D706C7A
:1028A80065207573696E67203234626974206164CB
:1028B8006472657373696E67206D6F646500515348
:1028C8005049206578616D706C652073746172740D
:1028D80065642E0050726F63657373206F662065A0
:1028E800726173696E6720666972737420626C6FB7
:1028F800636B2073746172740050726F63657373D5
:10290800206F662077726974696E672064617461EC
:10291800207374617274004461746120726561642B
:1029280000436F6D706172652E2E2E0044617461D4
:1029380020636F6E73697374656E740044617461AB
:1029480020696E636F6E73697374656E740000003E
:102958002020202020202020206828282828202007
:10296800202020202020202020202020202020205F
:102978004810101010101010101010101010101017
:1029880084848484848484848484101010101010B7
:102998001081818181818101010101010101010110
:1029A80001010101010101010101011010101010C4
:1029B80010828282828282020202020202020202E1
:1029C8000202020202020202020202101010102089
:1029D8000007032004170201085710408000000078
:1029E8008C2B0000502A0000642B000053756E00E9
:1029F8004D6F6E0054756500576564005468750026
:102A08004672690053617400000000004A616E005C
:102A1800466562004D617200417072004D61790037
:102A28004A756E004A756C00417567005365700001
:102A38004F6374004E6F7600446563000000000029
:102A4800414D00504D000000882B0000842B0000F1
:102A5800842B0000842B0000842B0000842B0000B2
:102A6800842B0000842B0000842B0000842B0000A2
:102A7800FFFFFFFFFFFFFFFFFFFFFFFFFFFF00005C
:102A8800C42A0000F4290000002B0000142A0000CA
:102A9800482A0000A82A0000582B0000B42A000089
:102AA800256D2F25642F257900000000256120253C
:102AB80062202565202554202559000053756E6431
:102AC8006179004D6F6E6461790054756573646156
:102AD80079005765646E657364617900546875722E
:102AE8007364617900467269646179005361747531
:102AF80072646179000000004A616E756172790044
:102B08004665627275617279004D61726368004151
:102B18007072696C004D6179004A756E65004A757E
:102B28006C79004175677573740053657074656DD1
:102B3800626572004F63746F626572004E6F7665EE
:102B48006D62657200446563656D626572000000C0
:102B580025483A254D3A255300000000B5240000C9
:102B6800D1240000DD240000E92400000525000030
:102B7800112500001D2500002B2500000000000085
:102B88002E00000043000000504F53495800000039
:102B9800000000000020004000000000002000406D
:102BA8000000000000000000FF0000000090D003BB
:102BB800E8290000E8290000E8290000E8290000C9
:082BC800E829000001000000F3
:040000030000037581
:00000001FF
