:1000000000000420750300005D0300005F03000092
:1000100061030000630300006503000000000000AE
:100020000000000000000000000000006703000066
:1000300069030000000000006B0300006D03000076
:100040006F0300006F030000F51400006D16000040
:100050007D1600006F0300006F0300006F030000B7
:100060006F0300006F0300006F0300006F030000C8
:100070006F0300006F0300006F0300006F030000B8
:100080006F0300006F0300006F0300006F030000A8
:100090006F0300006F0300006F0300006F03000098
:1000A0006F0300006F0300006F0300006F03000088
:1000B0006F0300006F03000000000000000000005C
:1000C0006F0300006F0300006F0300006F03000068
:1000D0006F0300006F0300006F0300006F03000058
:1000E0006F0300006F0300006F03000000000000BA
:1000F000000000006F030000000000006F0300001C
:1001000000000000000000000000000000000000EF
:1001100000000000000000000000000000000000DF
:1001200000000000000000000000000000000000CF
:1001300000000000000000000000000000000000BF
:1001400000000000000000000000000000000000AF
:10015000000000000000000000000000000000009F
:10016000000000000000000000000000000000008F
:10017000000000000000000000000000000000007F
:10018000000000000000000000000000000000006F
:10019000000000000000000000000000000000005F
:1001A000000000000000000000000000000000004F
:1001B000000000000000000000000000000000003F
:1001C000000000000000000000000000000000002F
:1001D000000000000000000000000000000000001F
:1001E000000000000000000000000000000000000F
:1001F00000000000000000000000000000000000FF
:10020000354936480A1A02D0072291438D463449AF
:1002100034480A1A06D00722914381F30988022242
:1002200082F3148830483149314A00F044F83148AB
:100230003149324A00F03FF831483249324A00F041
:100240003AF832483249334A00F035F832483349F7
:10025000334A00F030F833483349344A00F02BF881
:1002600033483449344A00F026F8344834490022EF
:1002700000F02CF833483449002200F027F83348C6
:100280003349091A082902DB002202604160314A21
:1002900090471F481F49884205D00268043003B4C4
:1002A000904703BCF7E700208646EC46002000217B
:1002B000294A9047FEE7884207D0521A05D00378B2
:1002C00001300B700131013AF9D17047884202D0F8
:1002D00002700130FAE770470000042000E00320BC
:1002E0000000042000000420182500000000002069
:1002F00020000020D4030000D4030000AA20000046
:10030000182500000000002000000020F820000058
:10031000F8200000F8200000F8200000F82000007D
:10032000F8200000F8200000F82000001825000048
:1003300038250000200000202000002020000020A0
:10034000FC080020FC080020FC080020FC0800201D
:10035000FC2800209D030000B51A0000FEE7FEE720
:10036000FEE7FEE7FEE7FEE7FEE7FEE7FEE7FEE765
:10037000704700BF1048804710484FF0070188437E
:1003800085460F4880470F48016841F470010160BD
:10039000BFF34F8FBFF36F8FFFF732BF0A480B4990
:1003A0000B4A884207D0521A05D0037801300B70EF
:1003B0000131013AF9D170477103000000000420B7
:1003C000DD1C000088ED00E0F820000000000020A7
:0403D0000000002009
:1003D4007047000007B5044B0093044A402300F023
:1003E40032F803B05DF804FBF5030000210000209F
:1003F4002DE9F84389461446B2B10F4B0F4E03253D
:10040400002743F00108224609EB0701002001F010
:100414001DFC0744241A48B933782BB14FF47A40B1
:10042400C047013D02D13570BDE8F8830123337024
:10043400002CE8D1F8E700BF0021000020000020D4
:10044400704701F037BCF0B595B01C461646084617
:100454000D4600F064FF1A9B0D93CDE90864002457
:100464002346082205A928460A948DF82C400C94AA
:1004740000F072FF079B0293069B03939DF81430D0
:100484008DF8114003F00302012A1DD1BDF8144078
:10049400059EC3F3C203C4F383148DF81030A20085
:1004A40008230EA9284600F057FFC6F3952608AB8B
:1004B4000093224602AB0EA9304600F04BFB2846BF
:1004C40000F031FF15B0F0BD022AF8D1BDF8164096
:1004D400C3F3C203A4098DF810300827082C26465C
:1004E40028BF08263B4632460EA9284600F034FFB2
:1004F400A41B08AB02AA31460EA8374400F08EFBB9
:10050400002CEBD1DBE7000008B5FFF79AFF0421CC
:10051400034800F08DFA034B01225A7108BD00BF55
:10052400D420000000000020037813F0040216D049
:1005340003F00303012B03D0022B09D001207047E1
:100544000A6800880232C0F3831002440A60F5E7A7
:100554000B684288023303EB92130B60EEE71046FC
:10056400704700002DE9F04F044685B0851C00203B
:100574000F46904600F004FC454806683E60D0E90A
:100584000132134401339B1B824600F21C4600F5E2
:10059400836900F21447AB421AD30022B8F1000F6A
:1005A4006FD0052363F3070264F38912DAF80010AD
:1005B400DAF808300B4003330D444AF823200020B6
:1005C400CAF8005000F0DEFB012005B0BDE8F08F52
:1005D4000121304600F0F8FB484600F00BFC384699
:1005E40000F008FCDAF80400DAF808B0009000EA39
:1005F4000B0003300AEB80006946FFF795FF009B70
:1006040050BB0BEA03020AEB820203F1020CD2682C
:100614000192013303EA0B0B0AEB8B0B02F003028A
:10062400012ACDF800C0DBF80C1022D0022A16D023
:100634008346384600F0E1FB10B1009BCAF8043051
:100644005946304600F0C0FBDAE901231344DAF8D6
:10065400002001339B1A9EE70BEA0300C9E7BDF8AB
:1006640006309B0903334FEA114B0CEB93030093C1
:10067400DFE7BDF80430C3F383134FEA114B63443F
:10068400F5E7062363F3070264F39F528EE700BF86
:10069400340100200B4B0C48FF2210B59A60002255
:1006A400C3F81824C3E90022C3F8142483F82024CF
:1006B40000F0EEFD044610B9044800F057FE204651
:1006C40010BD00BF34010020E420000024210000FC
:1006D40030B50A4C71B10A4A0A49121BD2080023E8
:1006E4009A4201D1002030BD31F82350854202D016
:1006F4000133F5E7034654F83300F4E7AC20000077
:10070400D420000000000020094B013903EBC00095
:10071400032909D8DFE801F00A020406042070471F
:100724000079704740797047002070470220704775
:10073400AC200000034BD3E90030C31A584258419F
:10074400704700BF340100202DE9F04385B0FFF766
:10075400F1FF0646002840F0F7807C4DC5F81804E8
:10076400BFF34F8F6868AC6800902040033005EBFE
:1007740080006946FFF7D8FE009B18B1D5F818240D
:10078400002A5FD004EA0302991C013305EB8202BC
:10079400234005EB8303D268DB68029302F0030372
:1007A400022B0192009162D1BDF8063068484FEAED
:1007B4009318B8F1500FC14628BF4FF0500969F3A0
:1007C4008F1309F10801ADF8063000F079FD0746F2
:1007D400002800F0A48000F0A2FD01A90023082253
:1007E400384600F0AFFD009924EA01060136B60050
:1007F400B14535D95FFA89F97EB3F6B2A9EB06099A
:10080400214003315FFA89F4B146524E05EB810170
:1008140008234A46384600F095FD36B109F108032D
:1008240022463146384600F08DFD009B08F103084E
:1008340003EB98030093D5F81834002B4BD1D5F86B
:1008440010445BE02A689A4204D86A60304605B0D6
:10085400BDE8F08304EA030088E73E493446D7E75D
:100864002140033108234A4605EB8101DAE7012BD5
:1008740055D1BDF804303648C3F38311062928BF87
:10088400062161F3891302318900ADF8043000F0C8
:1008940017FD0746002842D000F041FD002308223E
:1008A40001A9384600F04EFD0026BDF80420C2F32D
:1008B4008312B300964203F10803BCD200994A1C88
:1008C40021400331009205EB81010422384600F0F7
:1008D40039FD0136E9E7384600F025FDFFF72AFF28
:1008E40080F00100C6B2B1E7E3685B7923B1236805
:1008F40039461B6820469847E3681C68002CF3D1EE
:10090400384600F010FD204600F03AFAD5F81834C5
:100914000BB9009B6B60002000F034FADEE7D5F8D9
:10092400104454B90C4B0D480D49C01AC0080004BA
:1009340040F0020000F06EF8D0E7236820469B6880
:100944009847E3681C68ECE700267FE73401002041
:10095400E420000040010020AC200000CC20000076
:10096400302100002DE9F74F284C80460F4692466F
:1009740001A9012218469B46D4F80890FFF7F2FD1E
:1009840080B3019D0026A91C5E4506EB010233D10C
:1009940000211F4800F0F8F980F310006A1C02EAF5
:1009A400090204EB8202000405EA0903033340EA66
:1009B4001840D06014F8232068F3C50204F82320FB
:1009C40034F8232066F3891224F8232054F82320D2
:1009D40067F39F2244F8232002F0F80242F0010258
:1009E40004F8232094F820341BB1FFF7ADFE00284F
:1009F400FBD103B0BDE8F08F09EA020204EB8202E6
:100A04005AF82630D3600136BEE700BF3401002017
:100A14005005002000231A46FFF7A4BF07B50123A1
:100A2400019201AAFFF79EFF03B05DF804FB0000EA
:100A340030B50F49D1F81024002314463CB9C468DA
:100A4400237152B9C1F810042260184630BDE4681D
:100A540025799D4206D02468F0E7D26811682160A8
:100A64001060F2E701330A2BE7D14FF0FF33ECE7D4
:100A740034010020094A38B50123D2F8104482F821
:100A840020341D4604B938BDE3685D7123682046EF
:100A94005B689847E3681C68F4E700BF34010020F2
:100AA400037A052B10B50C460FD0437A23B1084ABC
:100AB4000849204600F0FBF90749204600F0F7F901
:100AC4002046BDE8104000F0E7B9002AF8D0F3E76B
:100AD4007B21000080210000A0210000C38873B5A1
:100AE40004460D4633B1144A00921449144A284668
:100AF40000F0DDF9217A05291CD0637A4BB1A08876
:100B0400FFF702FE0F4B104953F82020284600F04F
:100B1400CEF9227A0D4BA08853F822600021FFF70A
:100B2400D7FD0B4903463246284602B0BDE8704063
:100B340000F0BDB902B070BD7B2100008B21000024
:100B4400832100004821000080210000B021000022
:100B5400A32100002DE9F04385B01F460C9D00231E
:100B640006460C46904695F80C902B732946384659
:100B7400FFF7B4FFB8F1060F09D8DFE808F0041254
:100B8400181F283340003146284600F090F900220F
:100B940029463846FFF784FF85F80C9005B0BDE878
:100BA400F08322683146284600F081F9EFE7D4E962
:100BB40000233146284600F07AF9E8E7A368009359
:100BC4003146D4E90023284600F071F9DFE7E368F1
:100BD4000193A36800933146D4E90023284600F02A
:100BE40066F9D4E723690293E3680193A368009349
:100BF4003146D4E90023284600F059F9C7E7636970
:100C0400039323690293E3680193A3680093314635
:100C1400D4E90023284600F04AF9B8E708292DE969
:100C2400F84F80460E4617461C463AD8002593F8DE
:100C34000C901D7319461046FFF750FFDFF884A08F
:100C4400DFF884B0AE422ED918F805205946204664
:100C540000F02DF90135082DF4D11849DFF86CB0F6
:100C6400204600F024F94FF0000A564520D918F820
:100C74000A507E2D03D8284601F062F900B92E25CA
:100C84002A465946204600F012F90AF1010ABAF13F
:100C9400080FEAD1012221463846FFF701FF84F804
:100CA4000C90BDE8F88F5146204600F000F9D1E7DA
:100CB4000349204600F0FBF8E7E700BF7621000077
:100CC40074210000722100006C21000078210000D2
:100CD4001FB50021039001AA44F20100CDE90111DE
:100CE40000F004F805B05DF804FB000010B572B61E
:100CF400FFF7C0FEFFF728FD0028FBD1104B114C75
:100D04001149E41AE408240444F00100FFF782FEC8
:100D14000E4B1B68DB0700D500BE0D4944F00200F2
:100D2400FFF778FEBFF34F8F0A490B4BCA6802F4F2
:100D3400E0621343CB60BFF34F8F00BFFDE700BFFA
:100D4400AC200000CC2000000F220000F0ED00E0F9
:100D54001B22000000ED00E00400FA0572B6024A0E
:100D64001368013313607047F0050020034A1368C9
:100D7400013B136003B962B6704700BFF005002061
:100D8400FFF7ECBFFFF7F2BF50E8002F0B4640E837
:100D9400003C9CF0000FF7D11046704750E8003F2C
:100DA40043EA010240E8002C9CF0000FF6D1104603
:100DB400704750E8002F02EA010340E8003C9CF031
:100DC400000FF6D11046704750E8003F03EB0102D4
:100DD40040E8002C9CF0000FF6D11046704750E814
:100DE400003FA3EB010240E8002C9CF0000FF6D179
:100DF400104670470121FFF7D1BF0021FFF7D9BF8B
:100E040010B590B1D0E9012301689B1ADBB20A60E6
:100E1400013BDBB2FF2B026802D10020107110BD30
:100E240011684C1C14600B70F2E70E20F7E738B51C
:100E340004460020FFF7A4FF226863681168994202
:100E440013D9481E106011F8015CE368218A01FB84
:100E54000535A36811791B1ADBB2994200D21371CC
:100E64000020FFF78FFF284638BD0025F8E738B586
:100E7400054600200C46FFF783FF2A681368591CB7
:100E84001160E968641A298AB4FBF1F41C7000202B
:100E9400BDE83840FFF776BF826810B504462AB132
:100EA40043690168006998470023A36010BD0EB42C
:100EB40003B5039921B104AB01AA019300F06CF8C6
:100EC40002B05DF804EB03B07047826830B4046884
:100ED400551C8560A154D0E901329A4202D330BC3A
:100EE400FFF7DABF30BC70472DE9F84F9946DDE9CA
:100EF4000A431746824688460A460126BA420FD25A
:100F04004E4538BF4E4613F0010B01D164B900249D
:100F14000125B9F1010F1AD909F1FF397D43F8E729
:100F2400B2FBF7F20136E9E79B070ED5B9F1000FE2
:100F34000CBF30252025A642EAD2013C2946504662
:100F4400FFF7C3FF002CF6D1E1E72025F3E7B8FB58
:100F5400F5F39F42E2D9DFF83C90B8FBF5F3504635
:100F640019F8031005FB1388FFF7AFFFB5FBF7F380
:100F7400BD4207D2BBF1000F02D00CB1A64203D38D
:100F8400BDE8F88F1D46E8E720215046013CFFF7F5
:100F94009CFFF2E7282200002DE9F74F054617468B
:100FA4008846002900F0308118F8011B49B92B7BD1
:100FB400002B00F02981284603B0BDE8F04FFFF76D
:100FC4006BBF252940F0C080002698F800302D2BF7
:100FD400424608F1010823D0302B24D02B2B25D0F6
:100FE40000242A2B02F1010123D13B681A1D1B683E
:100FF4003A601C440A4613782E2B26D101324FF056
:101004000009104610F8011BA1F1300CBCF1090FC6
:101014001DD80A2303FB0913A3F130090246F0E7A4
:1010240046F00106D1E746F00206CEE746F0040694
:10103400CBE711F8013CA3F130000928DBD80A22E0
:1010440002FB0434303C0A46CBE74FF0000912F8A7
:10105400011B01F0FB0068289046F8D069290ED0E6
:101064004AD8582964D006D825296DD098F800307C
:10107400002B99D19BE7632962D06429F6D13A68A1
:10108400D2F800A0111D8AEAEA723960A2EBEA7272
:101094004FF0010B092A5BDCCB4538BFCB462CB1A2
:1010A400BAF1000F01DB720700D5013CB30702D58A
:1010B400B9F1000F04D0F00702D4002C4ED1002463
:1010C400BAF1000F52DACAF1000A2D212846FFF7BF
:1010D400FCFE06F00302022A05D1B9F1000F02D189
:1010E400002C47D10024CDE900464B460A22514644
:1010F4002846FFF7F9FEB9E773294CD014D87029B4
:10110400B4D13B681A1D3A60302128461C68FFF7A9
:10111400DCFE78212846FFF7D8FE00220823CDE91B
:10112400003221461022E3E775292BD078299DD17E
:1011340039680A1D3A60CDE900464B46102228E082
:101144003B681A1D19783A602846FFF7BEFE8DE702
:101154000A230BF1010BB2FBF3F29BE7A345AFD2D9
:1011640020212846013CFFF7B0FEA6E77107B0D561
:101174002B21ABE7A345B6D230212846013CFFF72B
:10118400A4FEADE73968CDE900460A1D3A604B4636
:101194000A220968ACE73B681A1D3A6016F001069A
:1011A400D3F800A020D1BAF1000F03D0504600F0CC
:1011B4004AFF0646B44200D9C4B90AF1FF3A1EE018
:1011C40028460136FFF781FE1AF806100029F7D1E8
:1011D400A642BFF44BAF002C3FF448AF2021284671
:1011E400013CFFF772FEF3E70026EDE720212846D5
:1011F400013CFFF76AFEDDE72846FFF766FE1AF8B2
:10120400011F0029F8D131E703B0BDE8F08F2DE9C3
:10121400F047B0F806904479D2F800A09DF82080F9
:1012240009FB04F4043C06460AEB0300A0420F4603
:1012340088BFA4EB030A191DC2F800A0B1FBF9F59D
:1012440009FB15114DB9A9EB0104544528BF5446B7
:10125400BAF1000F04D1BDE8F0873668013DF1E72B
:1012640004317B1970182246B8F1000F0ED00146E4
:101274001846AAEB040A00F068FED14525443668F6
:101284004C464FF0000128BF5446E1E71946F0E709
:10129400FFF7B6BDF8B546790146721E0546002330
:1012A40093422D6803D30024A64202D8F8BD01332B
:1012B400F6E70F682846FFF7DAFD01343946F3E70D
:1012C4002DE9F843068ACD1C0746FFF7B0FD043E1E
:1012D40035440446B5FBF6F5F0B14FF48073EDB236
:1012E4008380C680013D076081464FF00008A84511
:1012F40012D23846FFF79BFD064648B163790133A5
:10130400637108F10108C9F8000007608146EEE73F
:101314002046FFF7BFFF34462046BDE8F88301218D
:101324000430FFF751BD10B5012104460430FFF726
:1013340056FD10F0FF0F04D12046BDE81040FFF722
:10134400A9BF10BD1FB503920022009203AAFFF7A4
:101354005EFF05B05DF804FB1FB503920122009205
:1013640003AAFFF754FF05B05DF804FB836800226D
:101374005A609A60C3E90422DA601A607047000078
:101384001FB503788DF800308388ADF80430836886
:101394008DF80630C3688DF80730036902934369FA
:1013A4000393054A054B684653F8213052F821103F
:1013B400984705B05DF804FBF4050020FC05002007
:1013C400024B4FF4807043F00103184740220000A1
:1013D4001F2886BF00F01F00044A4FF0A0420123DB
:1013E40003FA00F0C2F80805704700BF000300507C
:1013F4002DE9F04716460778394A42F82760394AFA
:1014040042F827304B7B80460C46A3B30868DFF8CC
:10141400DC904FF0A04100F5E07340F20C6241F81B
:101424002320636803F5E073002541F82320FFF7C8
:10143400CFFF6068FFF7CCFF236803F5E07340F249
:101444000D6241F82320636803F5E0734FF0010A4D
:1014540041F82320FFF7B4FF63681F2B8ABF4A4675
:101464004FF0A04203F01F03D2F8102522FA03F331
:10147400DB070CD50DBB002E3B461B4A214608BF9B
:10148400324608F10400BDE8F04700F0FDB82368D7
:101494001F2B86BF03F01F034A464FF0A0420AFAEF
:1014A40003F3C2F80C35FFF78BFF01352068FFF713
:1014B4008FFFFFF785FF092DCED163681F2B86BFF1
:1014C40003F01F0309494FF0A041012202FA03F37C
:1014D400C1F80C35FFF774FF6068FFF779FFCAE7BE
:1014E400FC050020F40500208513000000030050D3
:1014F400014B1B68184700BF0406002038B50B4B8E
:1015040098420D4601D0002038BD0020FFF738FC7A
:10151400074B1C7914B901221D601A710020FFF7D2
:1015240031FC002CEFD01120EEE700BF002000407A
:10153400040600200023435082B043580193019BCA
:1015440002B07047F0B5D0F8243187B004460D4698
:101554009BB14FF49271FFF7EDFFD0F8043163B9FA
:10156400AB68C0F808330223AB60AB68C0F804333F
:1015740001230362436107B0F0BDD4F80431002BAA
:1015840034D04FF48271204605F10C07FFF7D2FFE7
:101594000FCF01AE0FC63B68336095F82E3073B1A0
:1015A4002B7B012B0CBFD4F83C25D4F84C2502929C
:1015B400022B0CBFD4F83C35D4F84C3503934FF4CC
:1015C400B0712046FFF7B6FF4FF4AE71FFF7B2FFDC
:1015D40095F8303013B195F82E30CBB10023C4F810
:1015E4000032AB601F4BC4F8083311E04FF4A47110
:1015F4002046FFF79FFF2B7BEBB905F10C070FCFBC
:1016040001AE0FC63B68336095F83030002BE6D04E
:10161400D4F8C434C4F8C4349A071ED501238DF811
:10162400003095F830300BB985F82F30D5E900310A
:10163400684698479FE74FF40073C4F8003240F2BD
:101644000223AB6003F1CE73C4F80833AB68C4F86B
:1016540004330123A36023628DE713F0040318BF4E
:101664000223DCE702029C0101490248FFF76ABF3A
:101674000C0600200030004002494FF04020FFF7E4
:1016840061BF00BF400600202DE9F84F04793D4DAD
:101694004FF0340A0AFB04FA05EB0A069B4696F857
:1016A4002D3080460F469146002B67D1364B00689B
:1016B40053F82410FFF722FF002861D13A687B7B9E
:1016C40086F832301F2A8CBF02F01F031346B06025
:1016D400C6F804B086F82F0086F8300003F5E071F0
:1016E40088BF2A4E45F80A9098BF4FF0A04640F2B2
:1016F4000C6346F8213079681F291E468CBF01F01F
:101704001F030B4603F5E0738CBFDFF880C04FF076
:10171400A04C4CF82360D8F80030C3F80825BA6808
:10172400C3F80C15C3F82425B9F1000F1ED01B0B08
:1017340059B200293A7BB4BF154E01F16046DBB2C1
:10174400B8BF03F00F074FEA4212A8BF06F561467F
:10175400D2B2B4BFF25586F8002303F01F0301226E
:1017640002FA03F349090B4A42F82130342303FBFC
:101774000454012384F82D30BDE8F88F0820FBE7DA
:101784001120F9E70C0600204C2200000003005051
:1017940014ED00E000E100E0026803790621C2F8DC
:1017A4000015044A342101FB0323022283F82D206F
:1017B400704700BF0C0600202DE9F843CB6803F006
:1017C4006043B3F1005F0D46904603D010221046EB
:1017D400BDE8F8830779964E0468964BC4F808333D
:1017E4004FF0340C0CFB076C9CF82F302BB1DCF859
:1017F4000830C4F804331122E9E712F0140F0CBFC7
:10180400012300238CF82F308946B9E80F000CF12E
:101814000C0EAEE80F00D9F80030CEF80030C8F353
:1018240000138CF830306B78C4F888354FF482712B
:101834002046FFF77FFE4FF49271FFF77BFE18F00E
:10184400010318BF0123C4F8503518F0020318BF70
:101854000123C4F840352B78032B00F2C780DFE85E
:1018640003F087AF68022B6903F06043B3F1005FB4
:10187400ACD14FF48073EA68C4F800326B68C4F8E2
:1018840044254FF4A871C4F84835FFF753FE4FF4CC
:10189400B071FFF74FFE4FF4A471FFF74BFE012325
:1018A4002362A360D4F85031002BFBD04FF4A8710D
:1018B4002046FFF73FFEAB682A69C4F84425C4F804
:1018C4004835342303FB07635B4A9A604FF4827301
:1018D4000821002218F0080F04D1287803281CBF1F
:1018E400012060503421794370187158002940F068
:1018F4008280012523441968002900F0898034215D
:10190400D4F8C434C4F8C43401FB0766002186F853
:101914002F10002B3FF45BAF13F0020F48F20122AB
:1019240008BF032213F0040F48F2022318BF1A461B
:101934004DE76B68EA68C4F84425C4F848352B6958
:1019440003F06042B2F1005F7FF440AFAA68C4F8CC
:1019540034354FF48453C4F83825C4F800323423A2
:1019640003FB076340F202229A6001232362ADE77E
:101974006B68EA68C4F8442518F0200FC4F84835A9
:101984004FF0340310D003FB07634FF48072C4F8A4
:101994000022294A9A604FF4A471FFF7CBFD4FF45B
:1019A400A4730122226293E74FF4007203FB0763DE
:1019B400C4F8002240F202229A604FF48273F0E7E6
:1019C4006B68EA68C4F83425C4F838354FF480539A
:1019D400C4F80032342303FB076340F202229A6006
:1019E4000123236200214FF4827372E74FF4827360
:1019F400082107226EE718F0040F1CBF4FF4007390
:101A04008360342303FB0766B368C4F80433DEE65B
:101A1400D4F8241100293FF46EAF4FF4927120469C
:101A2400FFF788FD25624FF48273656162E700BFAA
:101A34000C06002002029C0100020400F0B587B0ED
:101A440004460F461546002112220DF106001E46DB
:101A540000F0A4FA0123002201A920468DF80430E5
:101A64008DF8057002960495FFF7A6FE07B0F0BD49
:101A74001FB52B212A22CDE900124FF0CC7200238E
:101A840002920222039369468DF80C2006481A46F6
:101A9400FFF7AEFC08B1FFF71BF90448FFF77CFE23
:101AA40005B05DF804FB00BF64220000682200005A
:101AB4002DE9F34100210846FEF7ECFD08B1FFF7DC
:101AC40007F9FEF721FD1A4C1A4B1B49E41AE408E6
:101AD400240444F003042046FEF79CFFFEF734FE82
:101AE40006460028FAD1FFF7C3FF144FDFF85480ED
:101AF400012501230DF10702E9B23846FFF79EFFE5
:101B040028B92A4641462046FEF788FF0126FEF7FB
:101B14001BFE0028FBD10135802DEAD13EB90849CE
:101B24002046FEF777FFFEF70FFE0028FBD1FEE705
:101B3400CC200000AC2000007422000068220000C9
:101B4400AE220000892200000369C1688B429DBF58
:101B54008268D21802F1FF3203F1FF3394BF501AA6
:101B6400581A70472DE9F041D0E9027405463E1B2E
:101B74004068964220448846144404D900F0E5F9AC
:101B8400EC60BDE8F0813246E41B00F0DEF9224649
:101B940008EB06016868F1E72DE9F843C5680646D5
:101BA400894617464FF000083469B3687068A54247
:101BB40028BFE418013C621B5C1BBC4228BF3C46A6
:101BC400944228BF144649462844224600F0BDF9F1
:101BD400B3682544AB4208BF00253F1BA044A14481
:101BE400F560E1D14046BDE8F883000010B5114C22
:101BF400114AA2610223C4E90433104BE361A264D5
:101C04004FF400730E4A2362E264002310220D494C
:101C1400A362E01D6362E362A3656365E365226515
:101C240000F0EFF90849204600F0EBF92023A371F6
:101C340010BD00BF74060020C3220000FC06002073
:101C4400EC060020CC220000D0220000F8B5184C8D
:101C5400182300FB033503FB00402544C46A012C10
:101C64000F46164611D024B1022C1BD00024204666
:101C7400F8BD2846FFF768FFB042F8D3324639462C
:101C84002846FFF76FFF3446F1E72846FFF75CFF6D
:101C94008642344628BF0446224639462846FFF782
:101CA40061FFE4E72846BDE8F840FFF775BF00BFD1
:101CB40074060020FFF79ABF054B1B68082B01BF71
:101CC400044B1868B0FA80F0400918BF0020704730
:101CD400300100103401001008B54FF08043002299
:101CE400C3F80C21C3F81021C3F838254FF08052F3
:101CF40003F54043D2F80414C3F82015D2F80814AD
:101D0400C3F82415D2F80C14C3F82815D2F810140B
:101D1400C3F82C15D2F81414C3F83015D2F81814DB
:101D2400C3F83415D2F81C14C3F84015D2F82014A3
:101D3400C3F84415D2F82414C3F84815D2F828146B
:101D4400C3F84C15D2F82C14C3F85015D2F830143B
:101D5400C3F85415D2F83414C3F86015D2F8381403
:101D6400C3F86415D2F83C14C3F86815D2F84014CB
:101D7400C3F86C15D2F84424C3F87025FFF79CFF10
:101D840010B1384B384A1A60FFF796FF18B1374B39
:101D9400FB22C3F81825FFF78FFF48B13449354BB0
:101DA4000A681B6822F00F0203F00F0313430B6051
:101DB400FFF782FF18B1304B4FF400721A604FF0F6
:101DC4008043D3F80024D20744BF6FF00102C3F864
:101DD40000242A4AD2F8883043F47003C2F88830C9
:101DE400BFF34F8FBFF36F8F4FF01023D3F8002250
:101DF400002A03DBD3F80432002B2FDA204B012214
:101E0400C3F80425D3F80024002AFBD04FF0102295
:101E14001221C2F80012D3F80024002AFBD04FF09C
:101E240010231222C3F80422154B1A46D3F80014C7
:101E34000029FBD00021C3F80415D2F80034002B8C
:101E4400FBD0BFF34F8F0D490E4BCA6802F4E0621A
:101E54001343CB60BFF34F8F00BFFDE70A4B0B4A20
:101E64001A6008BD8C5600404881030000F0004011
:101E7400E40E0040580200104096024000ED00E0DD
:101E840000E001400400FA05080000200090D0039F
:101E94007F2805D8034B185C034B5B5C18407047E4
:101EA40000207047D822000058230000A0F16103ED
:101EB400192B98BF20387047A0F14103192B98BF04
:101EC400203070477F2805D8034B185C034B5B5CBC
:101ED4001840704700207047D822000058230000A3
:101EE400A0F16103192B98BF20387047A0F141037A
:101EF400192B98BF203070477F299ABF01700120A9
:101F04006FF02E0070475AB10A787F2A0AD800B1C0
:101F14000260002119605960501A18BF01207047EF
:101F2400002070476FF02E007047000008B5034B87
:101F34005B689B681B68984708BD00BF0C000020C5
:101F440008B50921FFF7F2FF08BD844640EA010302
:101F540013F0030F18D18446202A0BD32DE9F00780
:101F6400B1E8F807A0E8F807A2F12002202AF7D286
:101F7400BDE8F007042A07D351F8043B40F8043BBA
:101F8400A2F10402042AF7D2002A05D011F8013B79
:101F940000F8013B013AF9D1604670478446002AB3
:101FA4002DD010F0030F04D000F8011B013A26D005
:101FB400F7E7C9B241EA012141EA0141202A12D3DB
:101FC400A2F120022DE9F0030B460C460D460E4605
:101FD4000F4688468946A0E8FA03203AFBD2BDE8BA
:101FE400F00320320BD0042A05D340F8041B043A32
:101FF40005D0042AF9D200F8011B013AFBD160464E
:102004007047024610F0030F16D111F0030F13D1DD
:102014002DE9F0004FF001374FF0803351F8044BB5
:10202400A4EB070525EA04051D4002D142F8044B40
:10203400F4E7A1F10401F0BC11F8013B02F8013B03
:10204400002BF9D1704700F1010110F0030F11D0FA
:1020540010F8012B002A23D010F0030F0AD010F837
:10206400012B002A1CD010F0030F03D010F8012B11
:10207400002A15D02DE970004FF001324FF0803363
:1020840050F8044BA4EB020525EA04051D4000D1D9
:10209400F6E7A0F1040070BC10F8012B002AFBD174
:0620A400A0EB01007047F3
:1020AC004622000000000000542200000000000046
:1020BC0059220000000000005E2200000000000019
:0820CC004121000000000303A4
:1020D400082100000000000014210000000000207E
:1020E400640000202C010020340100206C0000203A
:0420F40018000000D0
:1020F80000000000000000000338FDD87047000011
:10210800D903000045040000D50300007274745F11
:102118006C6F675F6261636B656E640058050020D1
:102128007F000000D80500204261636B656E647310
:1021380020666C757368656400617070000000004B
:102148007B210000C421000083210000CC21000075
:10215800D4210000DC210000E4210000EC21000073
:10216800F4210000202530327800202020007C0057
:102178002563001B5B306D002573001B5B313B330F
:10218800316D0025734C6F67732064726F707065D2
:1021980064202825642925730D0A003C25733E20F8
:1021A80025733A20000000000000000015220000FE
:1021B800FC21000004220000092200001B5B313BC7
:1021C80033306D001B5B313B33326D001B5B313BA1
:1021D80033336D001B5B313B33346D001B5B313B8C
:1021E80033356D001B5B313B33366D001B5B313B78
:1021F80033376D007761726E696E6700696E666F5E
:1022080000646562756700466174616C206572726E
:102218006F720053797374656D207265736574000D
:102228003031323334353637383941424344454604
:1022380000000000000000000338FDD8704750522D
:10224800530000006D1600007D1600005457494DDC
:1022580000554152540055415254450000000000B9
:1022680000300040000000000100000054574920E1
:102278007363616E6E657220737461727465642E27
:102288000054574920646576696365206465746500
:10229800637465642061742061646472657373207B
:1022A800307825782E004E6F206465766963652046
:1022B80077617320666F756E642E005465726D6960
:1022C8006E616C0052545400534547474552000014
:1022D800202020202020202020682828282820208E
:1022E80020202020202020202020202020202020E6
:1022F800481010101010101010101010101010109E
:10230800848484848484848484841010101010103D
:102318001081818181818101010101010101010196
:10232800010101010101010101010110101010104A
:102338001082828282828202020202020202020267
:10234800020202020202020202020210101010200F
:1023580000070320041702010857104080000000FE
:102368000C250000D0230000E424000053756E0003
:102378004D6F6E00547565005765640054687500AC
:102388004672690053617400000000004A616E00E3
:10239800466562004D617200417072004D617900BE
:1023A8004A756E004A756C00417567005365700088
:1023B8004F6374004E6F76004465630000000000B0
:1023C800414D00504D000000082500000425000084
:1023D8000425000004250000042500000425000051
:1023E8000425000004250000042500000425000041
:1023F800FFFFFFFFFFFFFFFFFFFFFFFFFFFF0000E3
:10240800442400007423000080240000942300006A
:10241800C823000028240000D82400003424000029
:10242800256D2F25642F25790000000025612025C2
:1024380062202565202554202559000053756E64B7
:102448006179004D6F6E64617900547565736461DC
:1024580079005765646E65736461790054687572B4
:1024680073646179004672696461790053617475B7
:1024780072646179000000004A616E7561727900CA
:102488004665627275617279004D617263680041D8
:102498007072696C004D6179004A756E65004A7505
:1024A8006C79004175677573740053657074656D58
:1024B800626572004F63746F626572004E6F766575
:1024C8006D62657200446563656D62657200000047
:1024D80025483A254D3A255300000000951E000076
:1024E800B11E0000BD1E0000C91E0000E51E000050
:1024F800F11E0000FD1E00000B1F00000000000080
:102508002E00000043000000504F534958000000BF
:1025180000000000FF0000000090D00368230000C6
:102528006823000068230000682300006823000077
:040000030000037581
:00000001FF
